{
  "_format": "hh-sol-artifact-1",
  "contractName": "DomainNoSubdomainNameVerifier",
  "sourceName": "contracts/core/nameVerifiers/DomainNoSubdomainNameVerifier.sol",
  "abi": [
    {
      "inputs": [
        {
          "internalType": "string",
          "name": "name",
          "type": "string"
        }
      ],
      "name": "verifyTokenName",
      "outputs": [
        {
          "internalType": "bool",
          "name": "",
          "type": "bool"
        }
      ],
      "stateMutability": "pure",
      "type": "function"
    }
  ],
  "bytecode": "0x608060405234801561001057600080fd5b50610377806100206000396000f3fe608060405234801561001057600080fd5b506004361061002b5760003560e01c80634c8bc1c914610030575b600080fd5b6100a76004803603602081101561004657600080fd5b810190808035906020019064010000000081111561006357600080fd5b82018360208201111561007557600080fd5b8035906020019184600183028401116401000000008311171561009757600080fd5b90919293919293905050506100c1565b604051808215151515815260200191505060405180910390f35b6000606083838080601f016020809104026020016040519081016040528093929190818152602001838380828437600081840152601f19601f82011690508083019250505050505050905060008090506000809050600080905060008090505b845181101561032057600085828151811061013857fe5b602001015160f81c60f81b9050603060f81b817effffffffffffffffffffffffffffffffffffffffffffffffffffffffffffff1916101580156101a15750603960f81b817effffffffffffffffffffffffffffffffffffffffffffffffffffffffffffff191611155b1580156102075750606160f81b817effffffffffffffffffffffffffffffffffffffffffffffffffffffffffffff1916101580156102055750607a60f81b817effffffffffffffffffffffffffffffffffffffffffffffffffffffffffffff191611155b155b80156102395750602d60f81b817effffffffffffffffffffffffffffffffffffffffffffffffffffffffffffff191614155b801561026b5750602e60f81b817effffffffffffffffffffffffffffffffffffffffffffffffffffffffffffff191614155b801561029d5750605f60f81b817effffffffffffffffffffffffffffffffffffffffffffffffffffffffffffff191614155b156102b1576000965050505050505061033b565b602e60f81b817effffffffffffffffffffffffffffffffffffffffffffffffffffffffffffff191614156102fd5783156102f4576000965050505050505061033b565b60019350610312565b831561030c5760019250610311565b600194505b5b508080600101915050610121565b5082801561032b5750815b80156103345750805b9450505050505b9291505056fea26469706673582212209caece9c792feb714808ee75f061546dfdfb88a53150e2b53018bb61b906135b64736f6c63430006090033",
  "linkReferences": {},
  "deployedLinkReferences": {}
}