{
  "_format": "hh-sol-artifact-1",
  "contractName": "AuthorizePlatformFeeWithdrawerSpell",
  "sourceName": "contracts/spells/AuthorizePlatformFeeWithdrawerSpell.sol",
  "abi": [
    {
      "inputs": [
        {
          "internalType": "address",
          "name": "exchange",
          "type": "address"
        },
        {
          "internalType": "uint256",
          "name": "marketID",
          "type": "uint256"
        },
        {
          "internalType": "address",
          "name": "withdrawer",
          "type": "address"
        }
      ],
      "name": "execute",
      "outputs": [],
      "stateMutability": "nonpayable",
      "type": "function"
    }
  ],
  "bytecode": "0x608060405234801561001057600080fd5b50610178806100206000396000f3fe608060405234801561001057600080fd5b506004361061002b5760003560e01c8063e0af5f6a14610030575b600080fd5b61009c6004803603606081101561004657600080fd5b81019080803573ffffffffffffffffffffffffffffffffffffffff16906020019092919080359060200190929190803573ffffffffffffffffffffffffffffffffffffffff16906020019092919050505061009e565b005b8273ffffffffffffffffffffffffffffffffffffffff1663130362b383836040518363ffffffff1660e01b8152600401808381526020018273ffffffffffffffffffffffffffffffffffffffff1673ffffffffffffffffffffffffffffffffffffffff16815260200192505050600060405180830381600087803b15801561012557600080fd5b505af1158015610139573d6000803e3d6000fd5b5050505050505056fea26469706673582212206c7e1c873d65d314a2a2dd9f3c11c8cf0efecf2f8b35fab090632915ee13cee664736f6c63430006090033",
  "linkReferences": {},
  "deployedLinkReferences": {}
}