{
  "_format": "hh-sol-artifact-1",
  "contractName": "SetPlatformFeeSpell",
  "sourceName": "contracts/spells/SetPlatformFeeSpell.sol",
  "abi": [
    {
      "inputs": [
        {
          "internalType": "address",
          "name": "factory",
          "type": "address"
        },
        {
          "internalType": "uint256",
          "name": "marketID",
          "type": "uint256"
        },
        {
          "internalType": "uint256",
          "name": "platformFeeRate",
          "type": "uint256"
        }
      ],
      "name": "execute",
      "outputs": [],
      "stateMutability": "nonpayable",
      "type": "function"
    }
  ],
  "bytecode": "0x608060405234801561001057600080fd5b5061012e806100206000396000f3fe6080604052348015600f57600080fd5b506004361060285760003560e01c8063c52ab77814602d575b600080fd5b608060048036036060811015604157600080fd5b81019080803573ffffffffffffffffffffffffffffffffffffffff16906020019092919080359060200190929190803590602001909291905050506082565b005b8273ffffffffffffffffffffffffffffffffffffffff1663dc5ea5d983836040518363ffffffff1660e01b81526004018083815260200182815260200192505050600060405180830381600087803b15801560dc57600080fd5b505af115801560ef573d6000803e3d6000fd5b5050505050505056fea264697066735822122086738b6ab162e0ab517fd2e69a7a618a7e95160df1af7563284fcdcd7a80850064736f6c63430006090033",
  "linkReferences": {},
  "deployedLinkReferences": {}
}