{
  "_format": "hh-sol-artifact-1",
  "contractName": "AuthorizeInterestWithdrawerSpell",
  "sourceName": "contracts/spells/AuthorizeInterestWithdrawerSpell.sol",
  "abi": [
    {
      "inputs": [
        {
          "internalType": "address",
          "name": "exchange",
          "type": "address"
        },
        {
          "internalType": "address",
          "name": "ideaToken",
          "type": "address"
        },
        {
          "internalType": "address",
          "name": "withdrawer",
          "type": "address"
        }
      ],
      "name": "execute",
      "outputs": [],
      "stateMutability": "nonpayable",
      "type": "function"
    }
  ],
  "bytecode": "0x608060405234801561001057600080fd5b506101ba806100206000396000f3fe608060405234801561001057600080fd5b506004361061002b5760003560e01c8063e65add9514610030575b600080fd5b6100b26004803603606081101561004657600080fd5b81019080803573ffffffffffffffffffffffffffffffffffffffff169060200190929190803573ffffffffffffffffffffffffffffffffffffffff169060200190929190803573ffffffffffffffffffffffffffffffffffffffff1690602001909291905050506100b4565b005b8273ffffffffffffffffffffffffffffffffffffffff1663159fc8f883836040518363ffffffff1660e01b8152600401808373ffffffffffffffffffffffffffffffffffffffff1673ffffffffffffffffffffffffffffffffffffffff1681526020018273ffffffffffffffffffffffffffffffffffffffff1673ffffffffffffffffffffffffffffffffffffffff16815260200192505050600060405180830381600087803b15801561016757600080fd5b505af115801561017b573d6000803e3d6000fd5b5050505050505056fea26469706673582212207cb0cc6ae22353f772f58d1e6943ca6d1e6b98fe779e2c45f233215da334cb3164736f6c63430006090033",
  "linkReferences": {},
  "deployedLinkReferences": {}
}