{
  "_format": "hh-sol-artifact-1",
  "contractName": "MultiAction",
  "sourceName": "contracts/avm/core/MultiAction.sol",
  "abi": [
    {
      "inputs": [
        {
          "internalType": "address",
          "name": "ideaTokenExchange",
          "type": "address"
        },
        {
          "internalType": "address",
          "name": "ideaTokenFactory",
          "type": "address"
        },
        {
          "internalType": "address",
          "name": "ideaTokenVault",
          "type": "address"
        },
        {
          "internalType": "address",
          "name": "dai",
          "type": "address"
        },
        {
          "internalType": "address",
          "name": "swapRouter",
          "type": "address"
        },
        {
          "internalType": "address",
          "name": "quoter",
          "type": "address"
        },
        {
          "internalType": "address",
          "name": "weth",
          "type": "address"
        }
      ],
      "stateMutability": "nonpayable",
      "type": "constructor"
    },
    {
      "inputs": [],
      "name": "HIGH_POOL_FEE",
      "outputs": [
        {
          "internalType": "uint24",
          "name": "",
          "type": "uint24"
        }
      ],
      "stateMutability": "view",
      "type": "function"
    },
    {
      "inputs": [],
      "name": "LOW_POOL_FEE",
      "outputs": [
        {
          "internalType": "uint24",
          "name": "",
          "type": "uint24"
        }
      ],
      "stateMutability": "view",
      "type": "function"
    },
    {
      "inputs": [],
      "name": "MEDIUM_POOL_FEE",
      "outputs": [
        {
          "internalType": "uint24",
          "name": "",
          "type": "uint24"
        }
      ],
      "stateMutability": "view",
      "type": "function"
    },
    {
      "inputs": [],
      "name": "_dai",
      "outputs": [
        {
          "internalType": "contract IERC20",
          "name": "",
          "type": "address"
        }
      ],
      "stateMutability": "view",
      "type": "function"
    },
    {
      "inputs": [],
      "name": "_uniswapV3Factory",
      "outputs": [
        {
          "internalType": "contract IUniswapV3Factory",
          "name": "",
          "type": "address"
        }
      ],
      "stateMutability": "view",
      "type": "function"
    },
    {
      "inputs": [],
      "name": "_uniswapV3Quoter",
      "outputs": [
        {
          "internalType": "contract IQuoter",
          "name": "",
          "type": "address"
        }
      ],
      "stateMutability": "view",
      "type": "function"
    },
    {
      "inputs": [],
      "name": "_uniswapV3SwapRouter",
      "outputs": [
        {
          "internalType": "contract ISwapRouter",
          "name": "",
          "type": "address"
        }
      ],
      "stateMutability": "view",
      "type": "function"
    },
    {
      "inputs": [],
      "name": "_weth",
      "outputs": [
        {
          "internalType": "contract IWETH",
          "name": "",
          "type": "address"
        }
      ],
      "stateMutability": "view",
      "type": "function"
    },
    {
      "inputs": [
        {
          "internalType": "string",
          "name": "tokenName",
          "type": "string"
        },
        {
          "internalType": "uint256",
          "name": "marketID",
          "type": "uint256"
        },
        {
          "internalType": "uint256",
          "name": "amount",
          "type": "uint256"
        },
        {
          "internalType": "uint256",
          "name": "lockDuration",
          "type": "uint256"
        },
        {
          "internalType": "address",
          "name": "recipient",
          "type": "address"
        }
      ],
      "name": "addAndBuy",
      "outputs": [],
      "stateMutability": "nonpayable",
      "type": "function"
    },
    {
      "inputs": [
        {
          "internalType": "address",
          "name": "ideaToken",
          "type": "address"
        },
        {
          "internalType": "uint256",
          "name": "amount",
          "type": "uint256"
        },
        {
          "internalType": "uint256",
          "name": "fallbackAmount",
          "type": "uint256"
        },
        {
          "internalType": "uint256",
          "name": "cost",
          "type": "uint256"
        },
        {
          "internalType": "uint256",
          "name": "lockDuration",
          "type": "uint256"
        },
        {
          "internalType": "address",
          "name": "recipient",
          "type": "address"
        }
      ],
      "name": "buyAndLock",
      "outputs": [],
      "stateMutability": "nonpayable",
      "type": "function"
    },
    {
      "inputs": [
        {
          "internalType": "string",
          "name": "tokenName",
          "type": "string"
        },
        {
          "internalType": "uint256",
          "name": "marketID",
          "type": "uint256"
        },
        {
          "internalType": "address",
          "name": "inputCurrency",
          "type": "address"
        },
        {
          "internalType": "uint256",
          "name": "amount",
          "type": "uint256"
        },
        {
          "internalType": "uint256",
          "name": "fallbackAmount",
          "type": "uint256"
        },
        {
          "internalType": "uint256",
          "name": "cost",
          "type": "uint256"
        },
        {
          "internalType": "uint256",
          "name": "lockDuration",
          "type": "uint256"
        },
        {
          "internalType": "address",
          "name": "recipient",
          "type": "address"
        }
      ],
      "name": "convertAddAndBuy",
      "outputs": [],
      "stateMutability": "payable",
      "type": "function"
    },
    {
      "inputs": [
        {
          "internalType": "address",
          "name": "inputCurrency",
          "type": "address"
        },
        {
          "internalType": "address",
          "name": "ideaToken",
          "type": "address"
        },
        {
          "internalType": "uint256",
          "name": "amount",
          "type": "uint256"
        },
        {
          "internalType": "uint256",
          "name": "fallbackAmount",
          "type": "uint256"
        },
        {
          "internalType": "uint256",
          "name": "cost",
          "type": "uint256"
        },
        {
          "internalType": "uint256",
          "name": "lockDuration",
          "type": "uint256"
        },
        {
          "internalType": "address",
          "name": "recipient",
          "type": "address"
        }
      ],
      "name": "convertAndBuy",
      "outputs": [],
      "stateMutability": "payable",
      "type": "function"
    },
    {
      "inputs": [
        {
          "internalType": "address",
          "name": "outputCurrency",
          "type": "address"
        },
        {
          "internalType": "address",
          "name": "ideaToken",
          "type": "address"
        },
        {
          "internalType": "uint256",
          "name": "amount",
          "type": "uint256"
        },
        {
          "internalType": "uint256",
          "name": "minPrice",
          "type": "uint256"
        },
        {
          "internalType": "address payable",
          "name": "recipient",
          "type": "address"
        }
      ],
      "name": "sellAndConvert",
      "outputs": [],
      "stateMutability": "nonpayable",
      "type": "function"
    },
    {
      "stateMutability": "payable",
      "type": "receive"
    }
  ],
  "bytecode": "0x60806040523480156200001157600080fd5b506040516200473138038062004731833981016040819052620000349162000237565b6001600160a01b038716158015906200005557506001600160a01b03861615155b80156200006a57506001600160a01b03851615155b80156200007f57506001600160a01b03841615155b80156200009457506001600160a01b03831615155b8015620000a957506001600160a01b03821615155b8015620000be57506001600160a01b03811615155b620000e65760405162461bcd60e51b8152600401620000dd90620002d2565b60405180910390fd5b600080546001600160a01b03808a166001600160a01b0319928316179092556001805489841690831617905560028054888416908316179055600380548784169083161790556006805492861692909116821790556040805163c45a015560e01b8152905163c45a015591600480820192602092909190829003018186803b1580156200017257600080fd5b505afa15801562000187573d6000803e3d6000fd5b505050506040513d601f19601f82011682018060405250810190620001ad919062000212565b600480546001600160a01b03199081166001600160a01b03938416179091556005805482169483169490941790935560078054909316911617905550620002fa9350505050565b80516001600160a01b03811681146200020c57600080fd5b92915050565b60006020828403121562000224578081fd5b620002308383620001f4565b9392505050565b600080600080600080600060e0888a03121562000252578283fd5b6200025e8989620001f4565b96506200026f8960208a01620001f4565b9550620002808960408a01620001f4565b9450620002918960608a01620001f4565b9350620002a28960808a01620001f4565b9250620002b38960a08a01620001f4565b9150620002c48960c08a01620001f4565b905092959891949750929550565b6020808252600e908201526d696e76616c69642d706172616d7360901b604082015260600190565b614427806200030a6000396000f3fe6080604052600436106100c65760003560e01c806377f78ad31161007f578063ad91184d11610059578063ad91184d146101db578063b5467de0146101f0578063be14c0bf14610205578063ff14d67e14610225576100e4565b806377f78ad31461019c57806399e86f1c146101b1578063a1764595146101c6576100e4565b8063051bd70b146100e9578063089bfeec146101095780631af3ede314610134578063370312531461015657806348981a67146101765780635695896d14610189576100e4565b366100e4576007546001600160a01b031633146100e257600080fd5b005b600080fd5b3480156100f557600080fd5b506100e2610104366004613c69565b61023a565b34801561011557600080fd5b5061011e6102d3565b60405161012b919061435b565b60405180910390f35b34801561014057600080fd5b506101496102d9565b60405161012b919061407c565b34801561016257600080fd5b506100e2610171366004613b54565b6102e8565b6100e2610184366004613ae3565b610455565b6100e2610197366004613bd1565b6105df565b3480156101a857600080fd5b506101496106bf565b3480156101bd57600080fd5b5061011e6106ce565b3480156101d257600080fd5b506101496106d4565b3480156101e757600080fd5b506101496106e3565b3480156101fc57600080fd5b506101496106f2565b34801561021157600080fd5b506100e2610220366004613a85565b610701565b34801561023157600080fd5b5061011e610920565b60006102468585610926565b600354909150610260906001600160a01b03163383610a65565b60006102a388888080601f0160208091040260200160405190810160405280939291908181526020018383808284376000920191909152508a9250610ba6915050565b905083156102bd576102b88186848787610d14565b6102c9565b6102c981868486610e34565b5050505050505050565b6101f481565b6005546001600160a01b031681565b600080546040516342de842b60e01b81526001600160a01b0390911691879183906342de842b9061031f908c908690600401613f4b565b60206040518083038186803b15801561033757600080fd5b505afa15801561034b573d6000803e3d6000fd5b505050506040513d601f19601f8201168201806040525081019061036f9190613ea2565b905085811115610426576040516342de842b60e01b81526001600160a01b038416906342de842b906103a7908c908b90600401613f4b565b60206040518083038186803b1580156103bf57600080fd5b505afa1580156103d3573d6000803e3d6000fd5b505050506040513d601f19601f820116820180604052508101906103f79190613ea2565b9050858111156104225760405162461bcd60e51b8152600401610419906140c3565b60405180910390fd5b8691505b60035461043d906001600160a01b03163383610a65565b61044a8983838888610d14565b505050505050505050565b600080546040516342de842b60e01b81526001600160a01b0390911691879183906342de842b9061048c908c908690600401613f4b565b60206040518083038186803b1580156104a457600080fd5b505afa1580156104b8573d6000803e3d6000fd5b505050506040513d601f19601f820116820180604052508101906104dc9190613ea2565b6003549091506000906104fa908c906001600160a01b031684610f3d565b9050868111156105c3576040516342de842b60e01b81526001600160a01b038516906342de842b90610532908d908c90600401613f4b565b60206040518083038186803b15801561054a57600080fd5b505afa15801561055e573d6000803e3d6000fd5b505050506040513d601f19601f820116820180604052508101906105829190613ea2565b60035490925061059d908c906001600160a01b031684610f3d565b9050868111156105bf5760405162461bcd60e51b8152600401610419906140c3565b8792505b6105d28b8b8386868b8b610f56565b5050505050505050505050565b6003546001600160a01b03168560006105f88a83610926565b905060006106078a8584610f3d565b90508681111561064e5761061b8b89610926565b91506106288a8584610f3d565b90508681111561064a5760405162461bcd60e51b8152600401610419906140c3565b8792505b600061069e8e8e8080601f016020809104026020016040519081016040528093929190818152602001838380828437600081840152601f19601f820116905080830192505050505050508d610ba6565b90506106af8b828487878c8c610f56565b5050505050505050505050505050565b6003546001600160a01b031681565b61271081565b6007546001600160a01b031681565b6006546001600160a01b031681565b6004546001600160a01b031681565b600080546003546040516368b5e64760e01b81526001600160a01b0392831693919092169183906368b5e6479061073e908a908a90600401613f4b565b60206040518083038186803b15801561075657600080fd5b505afa15801561076a573d6000803e3d6000fd5b505050506040513d601f19601f8201168201806040525081019061078e9190613ea2565b9050600061079d838a84610fe8565b9050858110156107bf5760405162461bcd60e51b8152600401610419906140c3565b6107ca883389610a65565b60405163aa556e0b60e01b81526001600160a01b0385169063aa556e0b906107fc908b908b9087903090600401613fff565b600060405180830381600087803b15801561081657600080fd5b505af115801561082a573d6000803e3d6000fd5b5050505061083a838a8484610ff6565b6001600160a01b038916610884576040516001600160a01b0386169082156108fc029083906000818181858888f1935050505015801561087e573d6000803e3d6000fd5b5061044a565b60405163a9059cbb60e01b81526001600160a01b038a169063a9059cbb906108b29088908590600401613f4b565b602060405180830381600087803b1580156108cc57600080fd5b505af11580156108e0573d6000803e3d6000fd5b505050506040513d601f19601f820116820180604052508101906109049190613bb1565b61044a5760405162461bcd60e51b8152600401610419906141a7565b610bb881565b60006109306138b5565b60015460405163c7d5fe5560e01b81526001600160a01b039091169063c7d5fe559061096090879060040161436b565b60006040518083038186803b15801561097857600080fd5b505afa15801561098c573d6000803e3d6000fd5b505050506040513d6000823e601f3d908101601f191682016040526109b49190810190613d13565b80519091506109d55760405162461bcd60e51b81526004016104199061417f565b600080546040516357b0a6bf60e01b81526001600160a01b03909116916357b0a6bf91610a0a91859188908290600401614289565b60806040518083038186803b158015610a2257600080fd5b505afa158015610a36573d6000803e3d6000fd5b505050506040513d601f19601f82011682018060405250810190610a5a9190613ccc565b519150505b92915050565b604051636eb1769f60e11b815281906001600160a01b0385169063dd62ed3e90610a959086903090600401613f64565b60206040518083038186803b158015610aad57600080fd5b505afa158015610ac1573d6000803e3d6000fd5b505050506040513d601f19601f82011682018060405250810190610ae59190613ea2565b1015610b035760405162461bcd60e51b81526004016104199061414f565b6040516323b872dd60e01b81526001600160a01b038416906323b872dd90610b3390859030908690600401613f7e565b602060405180830381600087803b158015610b4d57600080fd5b505af1158015610b61573d6000803e3d6000fd5b505050506040513d601f19601f82011682018060405250810190610b859190613bb1565b610ba15760405162461bcd60e51b8152600401610419906141a7565b505050565b6001546040516304515d8160e21b81526000916001600160a01b0316908190631145760490610bdd90879087903390600401614090565b600060405180830381600087803b158015610bf757600080fd5b505af1158015610c0b573d6000803e3d6000fd5b5050604051635c7ba9a560e11b81526001600160a01b0384169250630a81adc191508590839063b8f7534a90610c47908a90859060040161405a565b60206040518083038186803b158015610c5f57600080fd5b505afa158015610c73573d6000803e3d6000fd5b505050506040513d601f19601f82011682018060405250810190610c979190613ea2565b6040518363ffffffff1660e01b8152600401610cb4929190614374565b60006040518083038186803b158015610ccc57600080fd5b505afa158015610ce0573d6000803e3d6000fd5b505050506040513d6000823e601f3d908101601f19168201604052610d089190810190613e08565b60600151949350505050565b6002546001600160a01b0316610d2c86868630610e34565b60405163095ea7b360e01b81526001600160a01b0387169063095ea7b390610d5a9084908990600401613f4b565b602060405180830381600087803b158015610d7457600080fd5b505af1158015610d88573d6000803e3d6000fd5b505050506040513d601f19601f82011682018060405250810190610dac9190613bb1565b610dc85760405162461bcd60e51b81526004016104199061412e565b60405163042964f560e11b81526001600160a01b03821690630852c9ea90610dfa908990899088908890600401613fff565b600060405180830381600087803b158015610e1457600080fd5b505af1158015610e28573d6000803e3d6000fd5b50505050505050505050565b60005460035460405163095ea7b360e01b81526001600160a01b03928316929091169063095ea7b390610e6d9084908790600401613f4b565b602060405180830381600087803b158015610e8757600080fd5b505af1158015610e9b573d6000803e3d6000fd5b505050506040513d601f19601f82011682018060405250810190610ebf9190613bb1565b610edb5760405162461bcd60e51b81526004016104199061412e565b60405163cc09125f60e01b81526001600160a01b0382169063cc09125f90610f0f908890889081908990899060040161402a565b600060405180830381600087803b158015610f2957600080fd5b505af115801561044a573d6000803e3d6000fd5b600080610f4b85858561142b565b979650505050505050565b6001600160a01b03871615610f7057610f70873387610a65565b600354610f899088906001600160a01b03168786610ff6565b8115610fa157610f9c8685858585610d14565b610fad565b610fad86858584610e34565b4715610fdf5760405133904780156108fc02916000818181858888f193505050501580156102c9573d6000803e3d6000fd5b50505050505050565b600080610f4b85858561269c565b6007546006546001600160a01b03918216911660608061101788888861269c565b50909250905060006001600160a01b03891661108957846001600160a01b031663d0e30db0886040518263ffffffff1660e01b81526004016000604051808303818588803b15801561106857600080fd5b505af115801561107c573d6000803e3d6000fd5b505050505084905061108c565b50875b60405163095ea7b360e01b81526001600160a01b0382169063095ea7b3906110ba9087908b90600401613f4b565b602060405180830381600087803b1580156110d457600080fd5b505af11580156110e8573d6000803e3d6000fd5b505050506040513d601f19601f8201168201806040525081019061110c9190613bb1565b6111285760405162461bcd60e51b8152600401610419906140e5565b8251600214801561113a575081516001145b156112715761114761391c565b6040518061010001604052808560008151811061116057fe5b60200260200101516001600160a01b031681526020018560018151811061118357fe5b60200260200101516001600160a01b03168152602001846000815181106111a657fe5b602002602001015162ffffff168152602001306001600160a01b0316815260200142600101815260200189815260200188815260200160006001600160a01b03168152509050846001600160a01b031663414bf389826040518263ffffffff1660e01b81526004016112189190614220565b602060405180830381600087803b15801561123257600080fd5b505af1158015611246573d6000803e3d6000fd5b505050506040513d601f19601f8201168201806040525081019061126a9190613ea2565b50506113b4565b60608360008151811061128057fe5b60200260200101518360008151811061129557fe5b6020026020010151856001815181106112aa57fe5b6020026020010151856001815181106112bf57fe5b6020026020010151876002815181106112d457fe5b60200260200101516040516020016112f0959493929190613ef9565b6040516020818303038152906040529050611309613960565b506040805160a0810182528281523060208201526001420181830152606081018a905260808101899052905163c04b8d5960e01b81526001600160a01b0387169063c04b8d599061135e9084906004016141c9565b602060405180830381600087803b15801561137857600080fd5b505af115801561138c573d6000803e3d6000fd5b505050506040513d601f19601f820116820180604052508101906113b09190613ea2565b5050505b6001600160a01b03881661044a57604051632e1a7d4d60e01b81526001600160a01b03861690632e1a7d4d906113ee90899060040161436b565b600060405180830381600087803b15801561140857600080fd5b505af115801561141c573d6000803e3d6000fd5b50505050505050505050505050565b60608060006001600160a01b038616156114455785611452565b6007546001600160a01b03165b95506001600160a01b038516156114695784611476565b6007546001600160a01b03165b60408051600280825260608083018452939850909160208301908036833750506040805160018082528183019092529293506060929150602080830190803683370190505060048054604051630b4c774160e11b8152929350600092839283926001600160a01b031691631698ee82916114f8918f918f916101f49101613fa2565b60206040518083038186803b15801561151057600080fd5b505afa158015611524573d6000803e3d6000fd5b505050506040513d601f19601f820116820180604052508101906115489190613a62565b6001600160a01b03161461166657898460008151811061156457fe5b60200260200101906001600160a01b031690816001600160a01b031681525050888460018151811061159257fe5b60200260200101906001600160a01b031690816001600160a01b0316815250506101f4836000815181106115c257fe5b62ffffff909216602092830291909101909101526005546040516330d07f2160e01b81526001600160a01b03909116906330d07f2190611611908d908d906101f4908e90600090600401613fca565b602060405180830381600087803b15801561162b57600080fd5b505af115801561163f573d6000803e3d6000fd5b505050506040513d601f19601f820116820180604052508101906116639190613ea2565b91505b60048054604051630b4c774160e11b81526000926001600160a01b0390921691631698ee829161169e918f918f91610bb89101613fa2565b60206040518083038186803b1580156116b657600080fd5b505afa1580156116ca573d6000803e3d6000fd5b505050506040513d601f19601f820116820180604052508101906116ee9190613a62565b6001600160a01b031614611824576005546040516330d07f2160e01b81526001600160a01b03909116906330d07f2190611737908d908d90610bb8908e90600090600401613fca565b602060405180830381600087803b15801561175157600080fd5b505af1158015611765573d6000803e3d6000fd5b505050506040513d601f19601f820116820180604052508101906117899190613ea2565b905081158061179757508181105b156118245780915089846000815181106117ad57fe5b60200260200101906001600160a01b031690816001600160a01b03168152505088846001815181106117db57fe5b60200260200101906001600160a01b031690816001600160a01b031681525050610bb88360008151811061180b57fe5b602002602001019062ffffff16908162ffffff16815250505b60048054604051630b4c774160e11b81526000926001600160a01b0390921691631698ee829161185c918f918f916127109101613fa2565b60206040518083038186803b15801561187457600080fd5b505afa158015611888573d6000803e3d6000fd5b505050506040513d601f19601f820116820180604052508101906118ac9190613a62565b6001600160a01b0316146119e2576005546040516330d07f2160e01b81526001600160a01b03909116906330d07f21906118f5908d908d90612710908e90600090600401613fca565b602060405180830381600087803b15801561190f57600080fd5b505af1158015611923573d6000803e3d6000fd5b505050506040513d601f19601f820116820180604052508101906119479190613ea2565b905081158061195557508181105b156119e257809150898460008151811061196b57fe5b60200260200101906001600160a01b031690816001600160a01b031681525050888460018151811061199957fe5b60200260200101906001600160a01b031690816001600160a01b031681525050612710836000815181106119c957fe5b602002602001019062ffffff16908162ffffff16815250505b60408051600280825260608083018452926020830190803683370190505090506000806001600160a01b0316600460009054906101000a90046001600160a01b03166001600160a01b0316631698ee82600760009054906101000a90046001600160a01b03168e6101f46040518463ffffffff1660e01b8152600401611a6a93929190613fa2565b60206040518083038186803b158015611a8257600080fd5b505afa158015611a96573d6000803e3d6000fd5b505050506040513d601f19601f82011682018060405250810190611aba9190613a62565b6001600160a01b031614611ba6576101f482600181518110611ad857fe5b602002602001019062ffffff16908162ffffff1681525050600560009054906101000a90046001600160a01b03166001600160a01b03166330d07f21600760009054906101000a90046001600160a01b03168d6101f48e60006040518663ffffffff1660e01b8152600401611b51959493929190613fca565b602060405180830381600087803b158015611b6b57600080fd5b505af1158015611b7f573d6000803e3d6000fd5b505050506040513d601f19601f82011682018060405250810190611ba39190613ea2565b90505b60006001600160a01b0316600460009054906101000a90046001600160a01b03166001600160a01b0316631698ee82600760009054906101000a90046001600160a01b03168e610bb86040518463ffffffff1660e01b8152600401611c0d93929190613fa2565b60206040518083038186803b158015611c2557600080fd5b505afa158015611c39573d6000803e3d6000fd5b505050506040513d601f19601f82011682018060405250810190611c5d9190613a62565b6001600160a01b031614611d5857600560009054906101000a90046001600160a01b03166001600160a01b03166330d07f21600760009054906101000a90046001600160a01b03168d610bb88e60006040518663ffffffff1660e01b8152600401611ccc959493929190613fca565b602060405180830381600087803b158015611ce657600080fd5b505af1158015611cfa573d6000803e3d6000fd5b505050506040513d601f19601f82011682018060405250810190611d1e9190613ea2565b9250801580611d2c57508083105b15611d5857610bb882600181518110611d4157fe5b62ffffff9092166020928302919091019091015250815b60006001600160a01b0316600460009054906101000a90046001600160a01b03166001600160a01b0316631698ee82600760009054906101000a90046001600160a01b03168e6127106040518463ffffffff1660e01b8152600401611dbf93929190613fa2565b60206040518083038186803b158015611dd757600080fd5b505afa158015611deb573d6000803e3d6000fd5b505050506040513d601f19601f82011682018060405250810190611e0f9190613a62565b6001600160a01b031614611f0a57600560009054906101000a90046001600160a01b03166001600160a01b03166330d07f21600760009054906101000a90046001600160a01b03168d6127108e60006040518663ffffffff1660e01b8152600401611e7e959493929190613fca565b602060405180830381600087803b158015611e9857600080fd5b505af1158015611eac573d6000803e3d6000fd5b505050506040513d601f19601f82011682018060405250810190611ed09190613ea2565b9250801580611ede57508083105b15611f0a5761271082600181518110611ef357fe5b62ffffff9092166020928302919091019091015250815b83158015611f16575080155b15611f335760405162461bcd60e51b81526004016104199061410d565b600081156124425760006001600160a01b0316600460009054906101000a90046001600160a01b03166001600160a01b0316631698ee828f600760009054906101000a90046001600160a01b03166101f46040518463ffffffff1660e01b8152600401611fa293929190613fa2565b60206040518083038186803b158015611fba57600080fd5b505afa158015611fce573d6000803e3d6000fd5b505050506040513d601f19601f82011682018060405250810190611ff29190613a62565b6001600160a01b0316146120de576101f48360008151811061201057fe5b602002602001019062ffffff16908162ffffff1681525050600560009054906101000a90046001600160a01b03166001600160a01b03166330d07f218e600760009054906101000a90046001600160a01b03166101f48660006040518663ffffffff1660e01b8152600401612089959493929190613fca565b602060405180830381600087803b1580156120a357600080fd5b505af11580156120b7573d6000803e3d6000fd5b505050506040513d601f19601f820116820180604052508101906120db9190613ea2565b90505b60006001600160a01b0316600460009054906101000a90046001600160a01b03166001600160a01b0316631698ee828f600760009054906101000a90046001600160a01b0316610bb86040518463ffffffff1660e01b815260040161214593929190613fa2565b60206040518083038186803b15801561215d57600080fd5b505afa158015612171573d6000803e3d6000fd5b505050506040513d601f19601f820116820180604052508101906121959190613a62565b6001600160a01b03161461229057600560009054906101000a90046001600160a01b03166001600160a01b03166330d07f218e600760009054906101000a90046001600160a01b0316610bb88660006040518663ffffffff1660e01b8152600401612204959493929190613fca565b602060405180830381600087803b15801561221e57600080fd5b505af1158015612232573d6000803e3d6000fd5b505050506040513d601f19601f820116820180604052508101906122569190613ea2565b935080158061226457508084105b1561229057610bb88360008151811061227957fe5b62ffffff9092166020928302919091019091015250825b60006001600160a01b0316600460009054906101000a90046001600160a01b03166001600160a01b0316631698ee828f600760009054906101000a90046001600160a01b03166127106040518463ffffffff1660e01b81526004016122f793929190613fa2565b60206040518083038186803b15801561230f57600080fd5b505afa158015612323573d6000803e3d6000fd5b505050506040513d601f19601f820116820180604052508101906123479190613a62565b6001600160a01b03161461244257600560009054906101000a90046001600160a01b03166001600160a01b03166330d07f218e600760009054906101000a90046001600160a01b03166127108660006040518663ffffffff1660e01b81526004016123b6959493929190613fca565b602060405180830381600087803b1580156123d057600080fd5b505af11580156123e4573d6000803e3d6000fd5b505050506040513d601f19601f820116820180604052508101906124089190613ea2565b935080158061241657508084105b15612442576127108360008151811061242b57fe5b62ffffff9092166020928302919091019091015250825b8415801561244e575080155b1561246b5760405162461bcd60e51b81526004016104199061410d565b801580612476575081155b1561248e575094975092955090935061269392505050565b604080516003808252608082019092526060916020820183803683370190505090508d816000815181106124be57fe5b6001600160a01b0392831660209182029290920101526007548251911690829060019081106124e957fe5b60200260200101906001600160a01b031690816001600160a01b0316815250508c8160028151811061251757fe5b60200260200101906001600160a01b031690816001600160a01b03168152505060608160028151811061254657fe5b60200260200101518560018151811061255b57fe5b60200260200101518360018151811061257057fe5b60200260200101518760008151811061258557fe5b60200260200101518560008151811061259a57fe5b60200260200101516040516020016125b6959493929190613ef9565b6040516020818303038152906040529050600560009054906101000a90046001600160a01b03166001600160a01b0316632f80bb1d828f6040518363ffffffff1660e01b815260040161260a92919061405a565b602060405180830381600087803b15801561262457600080fd5b505af1158015612638573d6000803e3d6000fd5b505050506040513d601f19601f8201168201806040525081019061265c9190613ea2565b92508683108061266a575086155b1561268357509950919750909550612693945050505050565b5096995094975092955050505050505b93509350939050565b60608060006001600160a01b038616156126b657856126c3565b6007546001600160a01b03165b95506001600160a01b038516156126da57846126e7565b6007546001600160a01b03165b60408051600280825260608083018452939850909160208301908036833750506040805160018082528183019092529293506060929150602080830190803683370190505060048054604051630b4c774160e11b8152929350600092839283926001600160a01b031691631698ee8291612769918f918f916101f49101613fa2565b60206040518083038186803b15801561278157600080fd5b505afa158015612795573d6000803e3d6000fd5b505050506040513d601f19601f820116820180604052508101906127b99190613a62565b6001600160a01b0316146128d75789846000815181106127d557fe5b60200260200101906001600160a01b031690816001600160a01b031681525050888460018151811061280357fe5b60200260200101906001600160a01b031690816001600160a01b0316815250506101f48360008151811061283357fe5b62ffffff9092166020928302919091019091015260055460405163f7729d4360e01b81526001600160a01b039091169063f7729d4390612882908d908d906101f4908e90600090600401613fca565b602060405180830381600087803b15801561289c57600080fd5b505af11580156128b0573d6000803e3d6000fd5b505050506040513d601f19601f820116820180604052508101906128d49190613ea2565b91505b60048054604051630b4c774160e11b81526000926001600160a01b0390921691631698ee829161290f918f918f91610bb89101613fa2565b60206040518083038186803b15801561292757600080fd5b505afa15801561293b573d6000803e3d6000fd5b505050506040513d601f19601f8201168201806040525081019061295f9190613a62565b6001600160a01b031614612a8c5760055460405163f7729d4360e01b81526001600160a01b039091169063f7729d43906129a8908d908d90610bb8908e90600090600401613fca565b602060405180830381600087803b1580156129c257600080fd5b505af11580156129d6573d6000803e3d6000fd5b505050506040513d601f19601f820116820180604052508101906129fa9190613ea2565b905081811115612a8c578091508984600081518110612a1557fe5b60200260200101906001600160a01b031690816001600160a01b0316815250508884600181518110612a4357fe5b60200260200101906001600160a01b031690816001600160a01b031681525050610bb883600081518110612a7357fe5b602002602001019062ffffff16908162ffffff16815250505b60048054604051630b4c774160e11b81526000926001600160a01b0390921691631698ee8291612ac4918f918f916127109101613fa2565b60206040518083038186803b158015612adc57600080fd5b505afa158015612af0573d6000803e3d6000fd5b505050506040513d601f19601f82011682018060405250810190612b149190613a62565b6001600160a01b031614612c415760055460405163f7729d4360e01b81526001600160a01b039091169063f7729d4390612b5d908d908d90612710908e90600090600401613fca565b602060405180830381600087803b158015612b7757600080fd5b505af1158015612b8b573d6000803e3d6000fd5b505050506040513d601f19601f82011682018060405250810190612baf9190613ea2565b905081811115612c41578091508984600081518110612bca57fe5b60200260200101906001600160a01b031690816001600160a01b0316815250508884600181518110612bf857fe5b60200260200101906001600160a01b031690816001600160a01b03168152505061271083600081518110612c2857fe5b602002602001019062ffffff16908162ffffff16815250505b60408051600280825260608083018452926020830190803683370190505090506000806001600160a01b0316600460009054906101000a90046001600160a01b03166001600160a01b0316631698ee828e600760009054906101000a90046001600160a01b03166101f46040518463ffffffff1660e01b8152600401612cc993929190613fa2565b60206040518083038186803b158015612ce157600080fd5b505afa158015612cf5573d6000803e3d6000fd5b505050506040513d601f19601f82011682018060405250810190612d199190613a62565b6001600160a01b031614612e05576101f482600081518110612d3757fe5b602002602001019062ffffff16908162ffffff1681525050600560009054906101000a90046001600160a01b03166001600160a01b031663f7729d438d600760009054906101000a90046001600160a01b03166101f48e60006040518663ffffffff1660e01b8152600401612db0959493929190613fca565b602060405180830381600087803b158015612dca57600080fd5b505af1158015612dde573d6000803e3d6000fd5b505050506040513d601f19601f82011682018060405250810190612e029190613ea2565b90505b60006001600160a01b0316600460009054906101000a90046001600160a01b03166001600160a01b0316631698ee828e600760009054906101000a90046001600160a01b0316610bb86040518463ffffffff1660e01b8152600401612e6c93929190613fa2565b60206040518083038186803b158015612e8457600080fd5b505afa158015612e98573d6000803e3d6000fd5b505050506040513d601f19601f82011682018060405250810190612ebc9190613a62565b6001600160a01b031614612fae57600560009054906101000a90046001600160a01b03166001600160a01b031663f7729d438d600760009054906101000a90046001600160a01b0316610bb88e60006040518663ffffffff1660e01b8152600401612f2b959493929190613fca565b602060405180830381600087803b158015612f4557600080fd5b505af1158015612f59573d6000803e3d6000fd5b505050506040513d601f19601f82011682018060405250810190612f7d9190613ea2565b925080831115612fae57610bb882600081518110612f9757fe5b62ffffff9092166020928302919091019091015250815b60006001600160a01b0316600460009054906101000a90046001600160a01b03166001600160a01b0316631698ee828e600760009054906101000a90046001600160a01b03166127106040518463ffffffff1660e01b815260040161301593929190613fa2565b60206040518083038186803b15801561302d57600080fd5b505afa158015613041573d6000803e3d6000fd5b505050506040513d601f19601f820116820180604052508101906130659190613a62565b6001600160a01b03161461315757600560009054906101000a90046001600160a01b03166001600160a01b031663f7729d438d600760009054906101000a90046001600160a01b03166127108e60006040518663ffffffff1660e01b81526004016130d4959493929190613fca565b602060405180830381600087803b1580156130ee57600080fd5b505af1158015613102573d6000803e3d6000fd5b505050506040513d601f19601f820116820180604052508101906131269190613ea2565b925080831115613157576127108260008151811061314057fe5b62ffffff9092166020928302919091019091015250815b83158015613163575080155b156131805760405162461bcd60e51b81526004016104199061410d565b6000811561367d5760006001600160a01b0316600460009054906101000a90046001600160a01b03166001600160a01b0316631698ee82600760009054906101000a90046001600160a01b03168f6101f46040518463ffffffff1660e01b81526004016131ef93929190613fa2565b60206040518083038186803b15801561320757600080fd5b505afa15801561321b573d6000803e3d6000fd5b505050506040513d601f19601f8201168201806040525081019061323f9190613a62565b6001600160a01b03161461332b576101f48360018151811061325d57fe5b602002602001019062ffffff16908162ffffff1681525050600560009054906101000a90046001600160a01b03166001600160a01b031663f7729d43600760009054906101000a90046001600160a01b03168e6101f48660006040518663ffffffff1660e01b81526004016132d6959493929190613fca565b602060405180830381600087803b1580156132f057600080fd5b505af1158015613304573d6000803e3d6000fd5b505050506040513d601f19601f820116820180604052508101906133289190613ea2565b90505b60006001600160a01b0316600460009054906101000a90046001600160a01b03166001600160a01b0316631698ee82600760009054906101000a90046001600160a01b03168f610bb86040518463ffffffff1660e01b815260040161339293929190613fa2565b60206040518083038186803b1580156133aa57600080fd5b505afa1580156133be573d6000803e3d6000fd5b505050506040513d601f19601f820116820180604052508101906133e29190613a62565b6001600160a01b0316146134d457600560009054906101000a90046001600160a01b03166001600160a01b031663f7729d43600760009054906101000a90046001600160a01b03168e610bb88660006040518663ffffffff1660e01b8152600401613451959493929190613fca565b602060405180830381600087803b15801561346b57600080fd5b505af115801561347f573d6000803e3d6000fd5b505050506040513d601f19601f820116820180604052508101906134a39190613ea2565b9350808411156134d457610bb8836001815181106134bd57fe5b62ffffff9092166020928302919091019091015250825b60006001600160a01b0316600460009054906101000a90046001600160a01b03166001600160a01b0316631698ee82600760009054906101000a90046001600160a01b03168f6127106040518463ffffffff1660e01b815260040161353b93929190613fa2565b60206040518083038186803b15801561355357600080fd5b505afa158015613567573d6000803e3d6000fd5b505050506040513d601f19601f8201168201806040525081019061358b9190613a62565b6001600160a01b03161461367d57600560009054906101000a90046001600160a01b03166001600160a01b031663f7729d43600760009054906101000a90046001600160a01b03168e6127108660006040518663ffffffff1660e01b81526004016135fa959493929190613fca565b602060405180830381600087803b15801561361457600080fd5b505af1158015613628573d6000803e3d6000fd5b505050506040513d601f19601f8201168201806040525081019061364c9190613ea2565b93508084111561367d576127108360018151811061366657fe5b62ffffff9092166020928302919091019091015250825b84158015613689575080155b156136a65760405162461bcd60e51b81526004016104199061410d565b8015806136b1575081155b156136c9575094975092955090935061269392505050565b604080516003808252608082019092526060916020820183803683370190505090508d816000815181106136f957fe5b6001600160a01b03928316602091820292909201015260075482519116908290600190811061372457fe5b60200260200101906001600160a01b031690816001600160a01b0316815250508c8160028151811061375257fe5b60200260200101906001600160a01b031690816001600160a01b03168152505060608160008151811061378157fe5b60200260200101518560008151811061379657fe5b6020026020010151836001815181106137ab57fe5b6020026020010151876001815181106137c057fe5b6020026020010151856002815181106137d557fe5b60200260200101516040516020016137f1959493929190613ef9565b6040516020818303038152906040529050600560009054906101000a90046001600160a01b03166001600160a01b031663cdca1753828f6040518363ffffffff1660e01b815260040161384592919061405a565b602060405180830381600087803b15801561385f57600080fd5b505af1158015613873573d6000803e3d6000fd5b505050506040513d601f19601f820116820180604052508101906138979190613ea2565b92508683111561268357509950919750909550612693945050505050565b604051806101600160405280600015158152602001600081526020016060815260200160006001600160a01b031681526020016000815260200160008152602001600081526020016000815260200160008152602001600081526020016000151581525090565b6040805161010081018252600080825260208201819052918101829052606081018290526080810182905260a0810182905260c0810182905260e081019190915290565b6040518060a001604052806060815260200160006001600160a01b031681526020016000815260200160008152602001600081525090565b80518015158114610a5f57600080fd5b8051610a5f816143d9565b60008083601f8401126139c4578182fd5b50813567ffffffffffffffff8111156139db578182fd5b6020830191508360208285010111156139f357600080fd5b9250929050565b600082601f830112613a0a578081fd5b815167ffffffffffffffff811115613a20578182fd5b613a33601f8201601f1916602001614382565b9150808252836020828501011115613a4a57600080fd5b613a5b8160208401602086016143a9565b5092915050565b600060208284031215613a73578081fd5b8151613a7e816143d9565b9392505050565b600080600080600060a08688031215613a9c578081fd5b8535613aa7816143d9565b94506020860135613ab7816143d9565b935060408601359250606086013591506080860135613ad5816143d9565b809150509295509295909350565b600080600080600080600060e0888a031215613afd578182fd5b8735613b08816143d9565b96506020880135613b18816143d9565b955060408801359450606088013593506080880135925060a0880135915060c0880135613b44816143d9565b8091505092959891949750929550565b60008060008060008060c08789031215613b6c578182fd5b8635613b77816143d9565b95506020870135945060408701359350606087013592506080870135915060a0870135613ba3816143d9565b809150509295509295509295565b600060208284031215613bc2578081fd5b81518015158114613a7e578182fd5b60008060008060008060008060006101008a8c031215613bef578283fd5b893567ffffffffffffffff811115613c05578384fd5b613c118c828d016139b3565b909a5098505060208a0135965060408a0135613c2c816143d9565b955060608a0135945060808a0135935060a08a0135925060c08a0135915060e08a0135613c58816143d9565b809150509295985092959850929598565b60008060008060008060a08789031215613c81578384fd5b863567ffffffffffffffff811115613c97578485fd5b613ca389828a016139b3565b9097509550506020870135935060408701359250606087013591506080870135613ba3816143d9565b600060808284031215613cdd578081fd5b613ce76080614382565b825181526020830151602082015260408301516040820152606083015160608201528091505092915050565b600060208284031215613d24578081fd5b815167ffffffffffffffff80821115613d3b578283fd5b610160918401808603831315613d4f578384fd5b613d5883614382565b613d628783613998565b8152602082015160208201526040820151935082841115613d81578485fd5b613d8d878584016139fa565b6040820152613d9f87606084016139a8565b60608201526080820151608082015260a082015160a082015260c082015160c082015260e082015160e082015261010093508382015184820152610120935083820151848201526101409350613df787858401613998565b848201528094505050505092915050565b600060208284031215613e19578081fd5b815167ffffffffffffffff80821115613e30578283fd5b81840160808187031215613e42578384fd5b613e4c6080614382565b9250613e588682613998565b835260208101516020840152604081015182811115613e75578485fd5b613e81878284016139fa565b604085015250606001519050613e96816143d9565b60608201529392505050565b600060208284031215613eb3578081fd5b5051919050565b15159052565b60008151808452613ed88160208601602086016143a9565b601f01601f19169290920160200192915050565b6001600160a01b03169052565b6bffffffffffffffffffffffff19606096871b811682526001600160e81b031960e896871b8116601484015294871b811660178301529290941b909216602b840152921b909116602e82015260420190565b6001600160a01b03929092168252602082015260400190565b6001600160a01b0392831681529116602082015260400190565b6001600160a01b039384168152919092166020820152604081019190915260600190565b6001600160a01b03938416815291909216602082015262ffffff909116604082015260600190565b6001600160a01b039586168152938516602085015262ffffff9290921660408401526060830152909116608082015260a00190565b6001600160a01b03948516815260208101939093526040830191909152909116606082015260800190565b6001600160a01b039586168152602081019490945260408401929092526060830152909116608082015260a00190565b60006040825261406d6040830185613ec0565b90508260208301529392505050565b6001600160a01b0391909116815260200190565b6000606082526140a36060830186613ec0565b6020830194909452506001600160a01b0391909116604090910152919050565b602080825260089082015267736c69707061676560c01b604082015260600190565b6020808252600e908201526d726f757465722d617070726f766560901b604082015260600190565b6020808252600790820152660dcde5ae0c2e8d60cb1b604082015260600190565b602080825260079082015266617070726f766560c81b604082015260600190565b602080825260169082015275696e73756666696369656e742d616c6c6f77616e636560501b604082015260600190565b6020808252600e908201526d1a5b9d985b1a590b5b585c9ad95d60921b604082015260600190565b6020808252600890820152673a3930b739b332b960c11b604082015260600190565b600060208252825160a060208401526141e560c0840182613ec0565b60018060a01b0360208601511660408501526040850151606085015260608501516080850152608085015160a0850152809250505092915050565b81516001600160a01b03908116825260208084015182169083015260408084015162ffffff16908301526060808401518216908301526080808401519083015260a0838101519083015260c0808401519083015260e09283015116918101919091526101000190565b60006080825261429d608083018751613eba565b602086015160a083015260408601516101608060c08501526142c36101e0850183613ec0565b606089015192506142d760e0860184613eec565b60808901516101008681019190915260a08a01516101208088019190915260c08b01516101408089019190915260e08c015185890152918b01516101808801528a01516101a087015289015192506143336101c0860184613eba565b8093505050508460208301528360408301526143526060830184613eba565b95945050505050565b62ffffff91909116815260200190565b90815260200190565b918252602082015260400190565b60405181810167ffffffffffffffff811182821017156143a157600080fd5b604052919050565b60005b838110156143c45781810151838201526020016143ac565b838111156143d3576000848401525b50505050565b6001600160a01b03811681146143ee57600080fd5b5056fea26469706673582212208a5b262d43c76bc819a93f836e854e16d5c926bd044a0b6eeb527bba6f246b1464736f6c63430006090033",
  "linkReferences": {},
  "deployedLinkReferences": {}
}