{
  "_format": "hh-sol-artifact-1",
  "contractName": "MultiAction",
  "sourceName": "contracts/avm/core/MultiAction.sol",
  "abi": [
    {
      "inputs": [
        {
          "internalType": "address",
          "name": "ideaTokenExchange",
          "type": "address"
        },
        {
          "internalType": "address",
          "name": "ideaTokenFactory",
          "type": "address"
        },
        {
          "internalType": "address",
          "name": "ideaTokenVault",
          "type": "address"
        },
        {
          "internalType": "address",
          "name": "dai",
          "type": "address"
        },
        {
          "internalType": "address",
          "name": "swapRouter",
          "type": "address"
        },
        {
          "internalType": "address",
          "name": "quoter",
          "type": "address"
        },
        {
          "internalType": "address",
          "name": "weth",
          "type": "address"
        }
      ],
      "stateMutability": "nonpayable",
      "type": "constructor"
    },
    {
      "inputs": [],
      "name": "HIGH_POOL_FEE",
      "outputs": [
        {
          "internalType": "uint24",
          "name": "",
          "type": "uint24"
        }
      ],
      "stateMutability": "view",
      "type": "function"
    },
    {
      "inputs": [],
      "name": "LOW_POOL_FEE",
      "outputs": [
        {
          "internalType": "uint24",
          "name": "",
          "type": "uint24"
        }
      ],
      "stateMutability": "view",
      "type": "function"
    },
    {
      "inputs": [],
      "name": "MEDIUM_POOL_FEE",
      "outputs": [
        {
          "internalType": "uint24",
          "name": "",
          "type": "uint24"
        }
      ],
      "stateMutability": "view",
      "type": "function"
    },
    {
      "inputs": [],
      "name": "_dai",
      "outputs": [
        {
          "internalType": "contract IERC20",
          "name": "",
          "type": "address"
        }
      ],
      "stateMutability": "view",
      "type": "function"
    },
    {
      "inputs": [],
      "name": "_uniswapV3Factory",
      "outputs": [
        {
          "internalType": "contract IUniswapV3Factory",
          "name": "",
          "type": "address"
        }
      ],
      "stateMutability": "view",
      "type": "function"
    },
    {
      "inputs": [],
      "name": "_uniswapV3Quoter",
      "outputs": [
        {
          "internalType": "contract IQuoter",
          "name": "",
          "type": "address"
        }
      ],
      "stateMutability": "view",
      "type": "function"
    },
    {
      "inputs": [],
      "name": "_uniswapV3SwapRouter",
      "outputs": [
        {
          "internalType": "contract ISwapRouter",
          "name": "",
          "type": "address"
        }
      ],
      "stateMutability": "view",
      "type": "function"
    },
    {
      "inputs": [],
      "name": "_weth",
      "outputs": [
        {
          "internalType": "contract IWETH",
          "name": "",
          "type": "address"
        }
      ],
      "stateMutability": "view",
      "type": "function"
    },
    {
      "inputs": [
        {
          "internalType": "string",
          "name": "tokenName",
          "type": "string"
        },
        {
          "internalType": "uint256",
          "name": "marketID",
          "type": "uint256"
        },
        {
          "internalType": "uint256",
          "name": "amount",
          "type": "uint256"
        },
        {
          "internalType": "uint256",
          "name": "lockDuration",
          "type": "uint256"
        },
        {
          "internalType": "address",
          "name": "recipient",
          "type": "address"
        }
      ],
      "name": "addAndBuy",
      "outputs": [],
      "stateMutability": "nonpayable",
      "type": "function"
    },
    {
      "inputs": [
        {
          "internalType": "address",
          "name": "ideaToken",
          "type": "address"
        },
        {
          "internalType": "uint256",
          "name": "amount",
          "type": "uint256"
        },
        {
          "internalType": "uint256",
          "name": "fallbackAmount",
          "type": "uint256"
        },
        {
          "internalType": "uint256",
          "name": "cost",
          "type": "uint256"
        },
        {
          "internalType": "uint256",
          "name": "lockDuration",
          "type": "uint256"
        },
        {
          "internalType": "address",
          "name": "recipient",
          "type": "address"
        }
      ],
      "name": "buyAndLock",
      "outputs": [],
      "stateMutability": "nonpayable",
      "type": "function"
    },
    {
      "inputs": [
        {
          "internalType": "string",
          "name": "tokenName",
          "type": "string"
        },
        {
          "internalType": "uint256",
          "name": "marketID",
          "type": "uint256"
        },
        {
          "internalType": "address",
          "name": "inputCurrency",
          "type": "address"
        },
        {
          "internalType": "uint256",
          "name": "amount",
          "type": "uint256"
        },
        {
          "internalType": "uint256",
          "name": "fallbackAmount",
          "type": "uint256"
        },
        {
          "internalType": "uint256",
          "name": "cost",
          "type": "uint256"
        },
        {
          "internalType": "uint256",
          "name": "lockDuration",
          "type": "uint256"
        },
        {
          "internalType": "address",
          "name": "recipient",
          "type": "address"
        }
      ],
      "name": "convertAddAndBuy",
      "outputs": [],
      "stateMutability": "payable",
      "type": "function"
    },
    {
      "inputs": [
        {
          "internalType": "address",
          "name": "inputCurrency",
          "type": "address"
        },
        {
          "internalType": "address",
          "name": "ideaToken",
          "type": "address"
        },
        {
          "internalType": "uint256",
          "name": "amount",
          "type": "uint256"
        },
        {
          "internalType": "uint256",
          "name": "fallbackAmount",
          "type": "uint256"
        },
        {
          "internalType": "uint256",
          "name": "cost",
          "type": "uint256"
        },
        {
          "internalType": "uint256",
          "name": "lockDuration",
          "type": "uint256"
        },
        {
          "internalType": "address",
          "name": "recipient",
          "type": "address"
        }
      ],
      "name": "convertAndBuy",
      "outputs": [],
      "stateMutability": "payable",
      "type": "function"
    },
    {
      "inputs": [
        {
          "internalType": "address",
          "name": "outputCurrency",
          "type": "address"
        },
        {
          "internalType": "address",
          "name": "ideaToken",
          "type": "address"
        },
        {
          "internalType": "uint256",
          "name": "amount",
          "type": "uint256"
        },
        {
          "internalType": "uint256",
          "name": "minPrice",
          "type": "uint256"
        },
        {
          "internalType": "address payable",
          "name": "recipient",
          "type": "address"
        }
      ],
      "name": "sellAndConvert",
      "outputs": [],
      "stateMutability": "nonpayable",
      "type": "function"
    },
    {
      "stateMutability": "payable",
      "type": "receive"
    }
  ],
  "bytecode": "0x60806040523480156200001157600080fd5b5060405162004d6c38038062004d6c8339818101604052810190620000379190620004de565b600073ffffffffffffffffffffffffffffffffffffffff168773ffffffffffffffffffffffffffffffffffffffff1614158015620000a25750600073ffffffffffffffffffffffffffffffffffffffff168673ffffffffffffffffffffffffffffffffffffffff1614155b8015620000dc5750600073ffffffffffffffffffffffffffffffffffffffff168573ffffffffffffffffffffffffffffffffffffffff1614155b8015620001165750600073ffffffffffffffffffffffffffffffffffffffff168473ffffffffffffffffffffffffffffffffffffffff1614155b8015620001505750600073ffffffffffffffffffffffffffffffffffffffff168373ffffffffffffffffffffffffffffffffffffffff1614155b80156200018a5750600073ffffffffffffffffffffffffffffffffffffffff168273ffffffffffffffffffffffffffffffffffffffff1614155b8015620001c45750600073ffffffffffffffffffffffffffffffffffffffff168173ffffffffffffffffffffffffffffffffffffffff1614155b62000206576040517f08c379a0000000000000000000000000000000000000000000000000000000008152600401620001fd90620005cd565b60405180910390fd5b866000806101000a81548173ffffffffffffffffffffffffffffffffffffffff021916908373ffffffffffffffffffffffffffffffffffffffff16021790555085600160006101000a81548173ffffffffffffffffffffffffffffffffffffffff021916908373ffffffffffffffffffffffffffffffffffffffff16021790555084600260006101000a81548173ffffffffffffffffffffffffffffffffffffffff021916908373ffffffffffffffffffffffffffffffffffffffff16021790555083600360006101000a81548173ffffffffffffffffffffffffffffffffffffffff021916908373ffffffffffffffffffffffffffffffffffffffff16021790555082600660006101000a81548173ffffffffffffffffffffffffffffffffffffffff021916908373ffffffffffffffffffffffffffffffffffffffff1602179055508273ffffffffffffffffffffffffffffffffffffffff1663c45a01556040518163ffffffff1660e01b815260040160206040518083038186803b1580156200039157600080fd5b505afa158015620003a6573d6000803e3d6000fd5b505050506040513d601f19601f82011682018060405250810190620003cc9190620004b2565b600460006101000a81548173ffffffffffffffffffffffffffffffffffffffff021916908373ffffffffffffffffffffffffffffffffffffffff16021790555081600560006101000a81548173ffffffffffffffffffffffffffffffffffffffff021916908373ffffffffffffffffffffffffffffffffffffffff16021790555080600760006101000a81548173ffffffffffffffffffffffffffffffffffffffff021916908373ffffffffffffffffffffffffffffffffffffffff160217905550505050505050506200064e565b600081519050620004ac8162000634565b92915050565b600060208284031215620004c557600080fd5b6000620004d5848285016200049b565b91505092915050565b600080600080600080600060e0888a031215620004fa57600080fd5b60006200050a8a828b016200049b565b97505060206200051d8a828b016200049b565b9650506040620005308a828b016200049b565b9550506060620005438a828b016200049b565b9450506080620005568a828b016200049b565b93505060a0620005698a828b016200049b565b92505060c06200057c8a828b016200049b565b91505092959891949750929550565b60006200059a600e83620005ef565b91507f696e76616c69642d706172616d730000000000000000000000000000000000006000830152602082019050919050565b60006020820190508181036000830152620005e8816200058b565b9050919050565b600082825260208201905092915050565b60006200060d8262000614565b9050919050565b600073ffffffffffffffffffffffffffffffffffffffff82169050919050565b6200063f8162000600565b81146200064b57600080fd5b50565b61470e806200065e6000396000f3fe6080604052600436106100c65760003560e01c806377f78ad31161007f578063ad91184d11610059578063ad91184d1461028d578063b5467de0146102b8578063be14c0bf146102e3578063ff14d67e1461030c57610127565b806377f78ad31461020c57806399e86f1c14610237578063a17645951461026257610127565b8063051bd70b1461012c578063089bfeec146101555780631af3ede31461018057806337031253146101ab57806348981a67146101d45780635695896d146101f057610127565b3661012757600760009054906101000a900473ffffffffffffffffffffffffffffffffffffffff1673ffffffffffffffffffffffffffffffffffffffff163373ffffffffffffffffffffffffffffffffffffffff161461012557600080fd5b005b600080fd5b34801561013857600080fd5b50610153600480360381019061014e9190613695565b610337565b005b34801561016157600080fd5b5061016a6103f6565b60405161017791906142e9565b60405180910390f35b34801561018c57600080fd5b506101956103fc565b6040516101a291906140a5565b60405180910390f35b3480156101b757600080fd5b506101d260048036038101906101cd9190613515565b610422565b005b6101ee60048036038101906101e99190613477565b6105fd565b005b61020a600480360381019061020591906135c7565b61080f565b005b34801561021857600080fd5b50610221610931565b60405161022e919061408a565b60405180910390f35b34801561024357600080fd5b5061024c610957565b60405161025991906142e9565b60405180910390f35b34801561026e57600080fd5b5061027761095d565b60405161028491906140f6565b60405180910390f35b34801561029957600080fd5b506102a2610983565b6040516102af91906140c0565b60405180910390f35b3480156102c457600080fd5b506102cd6109a9565b6040516102da91906140db565b60405180910390f35b3480156102ef57600080fd5b5061030a60048036038101906103059190613400565b6109cf565b005b34801561031857600080fd5b50610321610cde565b60405161032e91906142e9565b60405180910390f35b60006103438585610ce4565b9050610372600360009054906101000a900473ffffffffffffffffffffffffffffffffffffffff163383610ea3565b60006103c288888080601f016020809104026020016040519081016040528093929190818152602001838380828437600081840152601f19601f8201169050808301925050505050505087611043565b905060008411156103df576103da8186848787611201565b6103ec565b6103eb81868486611379565b5b5050505050505050565b6101f481565b600560009054906101000a900473ffffffffffffffffffffffffffffffffffffffff1681565b60008060009054906101000a900473ffffffffffffffffffffffffffffffffffffffff169050600086905060008273ffffffffffffffffffffffffffffffffffffffff166342de842b8a8a6040518363ffffffff1660e01b815260040161048a929190613f54565b60206040518083038186803b1580156104a257600080fd5b505afa1580156104b6573d6000803e3d6000fd5b505050506040513d601f19601f820116820180604052508101906104da91906137d2565b9050858111156105b8578273ffffffffffffffffffffffffffffffffffffffff166342de842b8a896040518363ffffffff1660e01b815260040161051f929190613f54565b60206040518083038186803b15801561053757600080fd5b505afa15801561054b573d6000803e3d6000fd5b505050506040513d601f19601f8201168201806040525081019061056f91906137d2565b9050858111156105b4576040517f08c379a00000000000000000000000000000000000000000000000000000000081526004016105ab9061417f565b60405180910390fd5b8691505b6105e5600360009054906101000a900473ffffffffffffffffffffffffffffffffffffffff163383610ea3565b6105f28983838888611201565b505050505050505050565b60008060009054906101000a900473ffffffffffffffffffffffffffffffffffffffff169050600086905060008273ffffffffffffffffffffffffffffffffffffffff166342de842b8a8a6040518363ffffffff1660e01b8152600401610665929190613f54565b60206040518083038186803b15801561067d57600080fd5b505afa158015610691573d6000803e3d6000fd5b505050506040513d601f19601f820116820180604052508101906106b591906137d2565b905060006106e68b600360009054906101000a900473ffffffffffffffffffffffffffffffffffffffff1684611507565b9050868111156107f3578373ffffffffffffffffffffffffffffffffffffffff166342de842b8b8a6040518363ffffffff1660e01b815260040161072b929190613f54565b60206040518083038186803b15801561074357600080fd5b505afa158015610757573d6000803e3d6000fd5b505050506040513d601f19601f8201168201806040525081019061077b91906137d2565b91506107aa8b600360009054906101000a900473ffffffffffffffffffffffffffffffffffffffff1684611507565b9050868111156107ef576040517f08c379a00000000000000000000000000000000000000000000000000000000081526004016107e69061417f565b60405180910390fd5b8792505b6108028b8b8386868b8b611778565b5050505050505050505050565b6000600360009054906101000a900473ffffffffffffffffffffffffffffffffffffffff169050600086905060006108478a83610ce4565b905060006108568a8584611507565b9050868111156108c05761086a8b89610ce4565b91506108778a8584611507565b9050868111156108bc576040517f08c379a00000000000000000000000000000000000000000000000000000000081526004016108b39061417f565b60405180910390fd5b8792505b60006109108e8e8080601f016020809104026020016040519081016040528093929190818152602001838380828437600081840152601f19601f820116905080830192505050505050508d611043565b90506109218b828487878c8c611778565b5050505050505050505050505050565b600360009054906101000a900473ffffffffffffffffffffffffffffffffffffffff1681565b61271081565b600760009054906101000a900473ffffffffffffffffffffffffffffffffffffffff1681565b600660009054906101000a900473ffffffffffffffffffffffffffffffffffffffff1681565b600460009054906101000a900473ffffffffffffffffffffffffffffffffffffffff1681565b60008060009054906101000a900473ffffffffffffffffffffffffffffffffffffffff1690506000600360009054906101000a900473ffffffffffffffffffffffffffffffffffffffff16905060008273ffffffffffffffffffffffffffffffffffffffff166368b5e64788886040518363ffffffff1660e01b8152600401610a59929190613f54565b60206040518083038186803b158015610a7157600080fd5b505afa158015610a85573d6000803e3d6000fd5b505050506040513d601f19601f82011682018060405250810190610aa991906137d2565b90506000610ab8838a84611868565b905085811015610afd576040517f08c379a0000000000000000000000000000000000000000000000000000000008152600401610af49061417f565b60405180910390fd5b610b08883389610ea3565b8373ffffffffffffffffffffffffffffffffffffffff1663aa556e0b898985306040518563ffffffff1660e01b8152600401610b479493929190613fc2565b600060405180830381600087803b158015610b6157600080fd5b505af1158015610b75573d6000803e3d6000fd5b50505050610b85838a8484611ad9565b600073ffffffffffffffffffffffffffffffffffffffff168973ffffffffffffffffffffffffffffffffffffffff161415610c06578473ffffffffffffffffffffffffffffffffffffffff166108fc829081150290604051600060405180830381858888f19350505050158015610c00573d6000803e3d6000fd5b50610cd3565b8873ffffffffffffffffffffffffffffffffffffffff1663a9059cbb86836040518363ffffffff1660e01b8152600401610c41929190613e41565b602060405180830381600087803b158015610c5b57600080fd5b505af1158015610c6f573d6000803e3d6000fd5b505050506040513d601f19601f82011682018060405250810190610c93919061359e565b610cd2576040517f08c379a0000000000000000000000000000000000000000000000000000000008152600401610cc99061423f565b60405180910390fd5b5b505050505050505050565b610bb881565b6000610cee612f16565b600160009054906101000a900473ffffffffffffffffffffffffffffffffffffffff1673ffffffffffffffffffffffffffffffffffffffff1663c7d5fe55856040518263ffffffff1660e01b8152600401610d499190614304565b60006040518083038186803b158015610d6157600080fd5b505afa158015610d75573d6000803e3d6000fd5b505050506040513d6000823e3d601f19601f82011682018060405250810190610d9e9190613750565b90508060000151610de4576040517f08c379a0000000000000000000000000000000000000000000000000000000008152600401610ddb9061421f565b60405180910390fd5b6000809054906101000a900473ffffffffffffffffffffffffffffffffffffffff1673ffffffffffffffffffffffffffffffffffffffff166357b0a6bf8260008660006040518563ffffffff1660e01b8152600401610e46949392919061429d565b60806040518083038186803b158015610e5e57600080fd5b505afa158015610e72573d6000803e3d6000fd5b505050506040513d601f19601f82011682018060405250810190610e969190613727565b6000015191505092915050565b808373ffffffffffffffffffffffffffffffffffffffff1663dd62ed3e84306040518363ffffffff1660e01b8152600401610edf929190613e6a565b60206040518083038186803b158015610ef757600080fd5b505afa158015610f0b573d6000803e3d6000fd5b505050506040513d601f19601f82011682018060405250810190610f2f91906137d2565b1015610f70576040517f08c379a0000000000000000000000000000000000000000000000000000000008152600401610f67906141ff565b60405180910390fd5b8273ffffffffffffffffffffffffffffffffffffffff166323b872dd8330846040518463ffffffff1660e01b8152600401610fad93929190613e93565b602060405180830381600087803b158015610fc757600080fd5b505af1158015610fdb573d6000803e3d6000fd5b505050506040513d601f19601f82011682018060405250810190610fff919061359e565b61103e576040517f08c379a00000000000000000000000000000000000000000000000000000000081526004016110359061423f565b60405180910390fd5b505050565b600080600160009054906101000a900473ffffffffffffffffffffffffffffffffffffffff1690508073ffffffffffffffffffffffffffffffffffffffff1663114576048585336040518463ffffffff1660e01b81526004016110a893929190614141565b600060405180830381600087803b1580156110c257600080fd5b505af11580156110d6573d6000803e3d6000fd5b505050508073ffffffffffffffffffffffffffffffffffffffff16630a81adc1848373ffffffffffffffffffffffffffffffffffffffff1663b8f7534a88886040518363ffffffff1660e01b8152600401611132929190614111565b60206040518083038186803b15801561114a57600080fd5b505afa15801561115e573d6000803e3d6000fd5b505050506040513d601f19601f8201168201806040525081019061118291906137d2565b6040518363ffffffff1660e01b815260040161119f92919061431f565b60006040518083038186803b1580156111b757600080fd5b505afa1580156111cb573d6000803e3d6000fd5b505050506040513d6000823e3d601f19601f820116820180604052508101906111f49190613791565b6060015191505092915050565b6000600260009054906101000a900473ffffffffffffffffffffffffffffffffffffffff16905061123486868630611379565b8573ffffffffffffffffffffffffffffffffffffffff1663095ea7b382876040518363ffffffff1660e01b815260040161126f929190613f54565b602060405180830381600087803b15801561128957600080fd5b505af115801561129d573d6000803e3d6000fd5b505050506040513d601f19601f820116820180604052508101906112c1919061359e565b611300576040517f08c379a00000000000000000000000000000000000000000000000000000000081526004016112f7906141df565b60405180910390fd5b8073ffffffffffffffffffffffffffffffffffffffff16630852c9ea878786866040518563ffffffff1660e01b815260040161133f9493929190613f7d565b600060405180830381600087803b15801561135957600080fd5b505af115801561136d573d6000803e3d6000fd5b50505050505050505050565b60008060009054906101000a900473ffffffffffffffffffffffffffffffffffffffff169050600360009054906101000a900473ffffffffffffffffffffffffffffffffffffffff1673ffffffffffffffffffffffffffffffffffffffff1663095ea7b382856040518363ffffffff1660e01b81526004016113fc929190613f54565b602060405180830381600087803b15801561141657600080fd5b505af115801561142a573d6000803e3d6000fd5b505050506040513d601f19601f8201168201806040525081019061144e919061359e565b61148d576040517f08c379a0000000000000000000000000000000000000000000000000000000008152600401611484906141df565b60405180910390fd5b8073ffffffffffffffffffffffffffffffffffffffff1663cc09125f86868787876040518663ffffffff1660e01b81526004016114ce959493929190614007565b600060405180830381600087803b1580156114e857600080fd5b505af11580156114fc573d6000803e3d6000fd5b505050505050505050565b60006060806115168686612046565b915091506002825114801561152c575060018151145b1561162c57600560009054906101000a900473ffffffffffffffffffffffffffffffffffffffff1673ffffffffffffffffffffffffffffffffffffffff166330d07f218360008151811061157c57fe5b60200260200101518460018151811061159157fe5b6020026020010151846000815181106115a657fe5b60200260200101518860006040518663ffffffff1660e01b81526004016115d1959493929190613f01565b602060405180830381600087803b1580156115eb57600080fd5b505af11580156115ff573d6000803e3d6000fd5b505050506040513d601f19601f8201168201806040525081019061162391906137d2565b92505050611771565b60608260028151811061163b57fe5b60200260200101518260018151811061165057fe5b60200260200101518460018151811061166557fe5b60200260200101518460008151811061167a57fe5b60200260200101518660008151811061168f57fe5b60200260200101516040516020016116ab959493929190613de2565b6040516020818303038152906040529050600560009054906101000a900473ffffffffffffffffffffffffffffffffffffffff1673ffffffffffffffffffffffffffffffffffffffff16632f80bb1d82876040518363ffffffff1660e01b815260040161171992919061405a565b602060405180830381600087803b15801561173357600080fd5b505af1158015611747573d6000803e3d6000fd5b505050506040513d601f19601f8201168201806040525081019061176b91906137d2565b93505050505b9392505050565b600073ffffffffffffffffffffffffffffffffffffffff168773ffffffffffffffffffffffffffffffffffffffff16146117b8576117b7873387610ea3565b5b6117e687600360009054906101000a900473ffffffffffffffffffffffffffffffffffffffff168786611ad9565b6000821115611801576117fc8685858585611201565b61180e565b61180d86858584611379565b5b600047111561185f573373ffffffffffffffffffffffffffffffffffffffff166108fc479081150290604051600060405180830381858888f1935050505015801561185d573d6000803e3d6000fd5b505b50505050505050565b60006060806118778686612046565b915091506002825114801561188d575060018151145b1561198d57600560009054906101000a900473ffffffffffffffffffffffffffffffffffffffff1673ffffffffffffffffffffffffffffffffffffffff1663f7729d43836000815181106118dd57fe5b6020026020010151846001815181106118f257fe5b60200260200101518460008151811061190757fe5b60200260200101518860006040518663ffffffff1660e01b8152600401611932959493929190613f01565b602060405180830381600087803b15801561194c57600080fd5b505af1158015611960573d6000803e3d6000fd5b505050506040513d601f19601f8201168201806040525081019061198491906137d2565b92505050611ad2565b60608260008151811061199c57fe5b6020026020010151826000815181106119b157fe5b6020026020010151846001815181106119c657fe5b6020026020010151846001815181106119db57fe5b6020026020010151866002815181106119f057fe5b6020026020010151604051602001611a0c959493929190613de2565b6040516020818303038152906040529050600560009054906101000a900473ffffffffffffffffffffffffffffffffffffffff1673ffffffffffffffffffffffffffffffffffffffff1663cdca175382876040518363ffffffff1660e01b8152600401611a7a92919061405a565b602060405180830381600087803b158015611a9457600080fd5b505af1158015611aa8573d6000803e3d6000fd5b505050506040513d601f19601f82011682018060405250810190611acc91906137d2565b93505050505b9392505050565b6000600760009054906101000a900473ffffffffffffffffffffffffffffffffffffffff1690506000600660009054906101000a900473ffffffffffffffffffffffffffffffffffffffff169050606080611b348888612046565b9150915060008073ffffffffffffffffffffffffffffffffffffffff168973ffffffffffffffffffffffffffffffffffffffff161415611bd7578473ffffffffffffffffffffffffffffffffffffffff1663d0e30db0886040518263ffffffff1660e01b81526004016000604051808303818588803b158015611bb657600080fd5b505af1158015611bca573d6000803e3d6000fd5b5050505050849050611bdb565b8890505b8073ffffffffffffffffffffffffffffffffffffffff1663095ea7b385896040518363ffffffff1660e01b8152600401611c16929190613f54565b602060405180830381600087803b158015611c3057600080fd5b505af1158015611c44573d6000803e3d6000fd5b505050506040513d601f19601f82011682018060405250810190611c68919061359e565b611ca7576040517f08c379a0000000000000000000000000000000000000000000000000000000008152600401611c9e9061419f565b60405180910390fd5b60028351148015611cb9575060018251145b15611e3157611cc6612f8a565b60405180610100016040528085600081518110611cdf57fe5b602002602001015173ffffffffffffffffffffffffffffffffffffffff16815260200185600181518110611d0f57fe5b602002602001015173ffffffffffffffffffffffffffffffffffffffff16815260200184600081518110611d3f57fe5b602002602001015162ffffff1681526020013073ffffffffffffffffffffffffffffffffffffffff168152602001600142018152602001898152602001888152602001600073ffffffffffffffffffffffffffffffffffffffff1681525090508473ffffffffffffffffffffffffffffffffffffffff1663414bf389826040518263ffffffff1660e01b8152600401611dd89190614281565b602060405180830381600087803b158015611df257600080fd5b505af1158015611e06573d6000803e3d6000fd5b505050506040513d601f19601f82011682018060405250810190611e2a91906137d2565b5050611f9a565b606083600081518110611e4057fe5b602002602001015183600081518110611e5557fe5b602002602001015185600181518110611e6a57fe5b602002602001015185600181518110611e7f57fe5b602002602001015187600281518110611e9457fe5b6020026020010151604051602001611eb0959493929190613de2565b6040516020818303038152906040529050611ec961302c565b6040518060a001604052808381526020013073ffffffffffffffffffffffffffffffffffffffff1681526020016001420181526020018a81526020018981525090508573ffffffffffffffffffffffffffffffffffffffff1663c04b8d59826040518263ffffffff1660e01b8152600401611f44919061425f565b602060405180830381600087803b158015611f5e57600080fd5b505af1158015611f72573d6000803e3d6000fd5b505050506040513d601f19601f82011682018060405250810190611f9691906137d2565b5050505b600073ffffffffffffffffffffffffffffffffffffffff168873ffffffffffffffffffffffffffffffffffffffff16141561203b578473ffffffffffffffffffffffffffffffffffffffff16632e1a7d4d876040518263ffffffff1660e01b81526004016120089190614304565b600060405180830381600087803b15801561202257600080fd5b505af1158015612036573d6000803e3d6000fd5b505050505b505050505050505050565b6060806000600760009054906101000a900473ffffffffffffffffffffffffffffffffffffffff16905060008073ffffffffffffffffffffffffffffffffffffffff168673ffffffffffffffffffffffffffffffffffffffff16146120ab57856120ad565b815b905060008073ffffffffffffffffffffffffffffffffffffffff168673ffffffffffffffffffffffffffffffffffffffff16146120ea57856120ec565b825b90506000600460009054906101000a900473ffffffffffffffffffffffffffffffffffffffff169050600073ffffffffffffffffffffffffffffffffffffffff168173ffffffffffffffffffffffffffffffffffffffff16631698ee8285856101f46040518463ffffffff1660e01b815260040161216c93929190613eca565b60206040518083038186803b15801561218457600080fd5b505afa158015612198573d6000803e3d6000fd5b505050506040513d601f19601f820116820180604052508101906121bc91906133d7565b73ffffffffffffffffffffffffffffffffffffffff1614612338576060600267ffffffffffffffff811180156121f157600080fd5b506040519080825280602002602001820160405280156122205781602001602082028036833780820191505090505b5090506060600167ffffffffffffffff8111801561223d57600080fd5b5060405190808252806020026020018201604052801561226c5781602001602082028036833780820191505090505b509050848260008151811061227d57fe5b602002602001019073ffffffffffffffffffffffffffffffffffffffff16908173ffffffffffffffffffffffffffffffffffffffff168152505083826001815181106122c557fe5b602002602001019073ffffffffffffffffffffffffffffffffffffffff16908173ffffffffffffffffffffffffffffffffffffffff16815250506101f48160008151811061230f57fe5b602002602001019062ffffff16908162ffffff1681525050818197509750505050505050612f0f565b600073ffffffffffffffffffffffffffffffffffffffff168173ffffffffffffffffffffffffffffffffffffffff16631698ee828585610bb86040518463ffffffff1660e01b815260040161238f93929190613eca565b60206040518083038186803b1580156123a757600080fd5b505afa1580156123bb573d6000803e3d6000fd5b505050506040513d601f19601f820116820180604052508101906123df91906133d7565b73ffffffffffffffffffffffffffffffffffffffff161461255b576060600267ffffffffffffffff8111801561241457600080fd5b506040519080825280602002602001820160405280156124435781602001602082028036833780820191505090505b5090506060600167ffffffffffffffff8111801561246057600080fd5b5060405190808252806020026020018201604052801561248f5781602001602082028036833780820191505090505b50905084826000815181106124a057fe5b602002602001019073ffffffffffffffffffffffffffffffffffffffff16908173ffffffffffffffffffffffffffffffffffffffff168152505083826001815181106124e857fe5b602002602001019073ffffffffffffffffffffffffffffffffffffffff16908173ffffffffffffffffffffffffffffffffffffffff1681525050610bb88160008151811061253257fe5b602002602001019062ffffff16908162ffffff1681525050818197509750505050505050612f0f565b600073ffffffffffffffffffffffffffffffffffffffff168173ffffffffffffffffffffffffffffffffffffffff16631698ee8285856127106040518463ffffffff1660e01b81526004016125b293929190613eca565b60206040518083038186803b1580156125ca57600080fd5b505afa1580156125de573d6000803e3d6000fd5b505050506040513d601f19601f8201168201806040525081019061260291906133d7565b73ffffffffffffffffffffffffffffffffffffffff161461277e576060600267ffffffffffffffff8111801561263757600080fd5b506040519080825280602002602001820160405280156126665781602001602082028036833780820191505090505b5090506060600167ffffffffffffffff8111801561268357600080fd5b506040519080825280602002602001820160405280156126b25781602001602082028036833780820191505090505b50905084826000815181106126c357fe5b602002602001019073ffffffffffffffffffffffffffffffffffffffff16908173ffffffffffffffffffffffffffffffffffffffff1681525050838260018151811061270b57fe5b602002602001019073ffffffffffffffffffffffffffffffffffffffff16908173ffffffffffffffffffffffffffffffffffffffff16815250506127108160008151811061275557fe5b602002602001019062ffffff16908162ffffff1681525050818197509750505050505050612f0f565b6060600267ffffffffffffffff8111801561279857600080fd5b506040519080825280602002602001820160405280156127c75781602001602082028036833780820191505090505b509050600073ffffffffffffffffffffffffffffffffffffffff168273ffffffffffffffffffffffffffffffffffffffff16631698ee8286886101f46040518463ffffffff1660e01b815260040161282193929190613eca565b60206040518083038186803b15801561283957600080fd5b505afa15801561284d573d6000803e3d6000fd5b505050506040513d601f19601f8201168201806040525081019061287191906133d7565b73ffffffffffffffffffffffffffffffffffffffff16146128b9576101f48160008151811061289c57fe5b602002602001019062ffffff16908162ffffff1681525050612ad4565b600073ffffffffffffffffffffffffffffffffffffffff168273ffffffffffffffffffffffffffffffffffffffff16631698ee828688610bb86040518463ffffffff1660e01b815260040161291093929190613eca565b60206040518083038186803b15801561292857600080fd5b505afa15801561293c573d6000803e3d6000fd5b505050506040513d601f19601f8201168201806040525081019061296091906133d7565b73ffffffffffffffffffffffffffffffffffffffff16146129a857610bb88160008151811061298b57fe5b602002602001019062ffffff16908162ffffff1681525050612ad3565b600073ffffffffffffffffffffffffffffffffffffffff168273ffffffffffffffffffffffffffffffffffffffff16631698ee8286886127106040518463ffffffff1660e01b81526004016129ff93929190613eca565b60206040518083038186803b158015612a1757600080fd5b505afa158015612a2b573d6000803e3d6000fd5b505050506040513d601f19601f82011682018060405250810190612a4f91906133d7565b73ffffffffffffffffffffffffffffffffffffffff1614612a975761271081600081518110612a7a57fe5b602002602001019062ffffff16908162ffffff1681525050612ad2565b6040517f08c379a0000000000000000000000000000000000000000000000000000000008152600401612ac9906141bf565b60405180910390fd5b5b5b600073ffffffffffffffffffffffffffffffffffffffff168273ffffffffffffffffffffffffffffffffffffffff16631698ee8287866101f46040518463ffffffff1660e01b8152600401612b2b93929190613eca565b60206040518083038186803b158015612b4357600080fd5b505afa158015612b57573d6000803e3d6000fd5b505050506040513d601f19601f82011682018060405250810190612b7b91906133d7565b73ffffffffffffffffffffffffffffffffffffffff1614612bc3576101f481600181518110612ba657fe5b602002602001019062ffffff16908162ffffff1681525050612dde565b600073ffffffffffffffffffffffffffffffffffffffff168273ffffffffffffffffffffffffffffffffffffffff16631698ee828786610bb86040518463ffffffff1660e01b8152600401612c1a93929190613eca565b60206040518083038186803b158015612c3257600080fd5b505afa158015612c46573d6000803e3d6000fd5b505050506040513d601f19601f82011682018060405250810190612c6a91906133d7565b73ffffffffffffffffffffffffffffffffffffffff1614612cb257610bb881600181518110612c9557fe5b602002602001019062ffffff16908162ffffff1681525050612ddd565b600073ffffffffffffffffffffffffffffffffffffffff168273ffffffffffffffffffffffffffffffffffffffff16631698ee8287866127106040518463ffffffff1660e01b8152600401612d0993929190613eca565b60206040518083038186803b158015612d2157600080fd5b505afa158015612d35573d6000803e3d6000fd5b505050506040513d601f19601f82011682018060405250810190612d5991906133d7565b73ffffffffffffffffffffffffffffffffffffffff1614612da15761271081600181518110612d8457fe5b602002602001019062ffffff16908162ffffff1681525050612ddc565b6040517f08c379a0000000000000000000000000000000000000000000000000000000008152600401612dd3906141bf565b60405180910390fd5b5b5b6060600367ffffffffffffffff81118015612df857600080fd5b50604051908082528060200260200182016040528015612e275781602001602082028036833780820191505090505b5090508481600081518110612e3857fe5b602002602001019073ffffffffffffffffffffffffffffffffffffffff16908173ffffffffffffffffffffffffffffffffffffffff16815250508581600181518110612e8057fe5b602002602001019073ffffffffffffffffffffffffffffffffffffffff16908173ffffffffffffffffffffffffffffffffffffffff16815250508381600281518110612ec857fe5b602002602001019073ffffffffffffffffffffffffffffffffffffffff16908173ffffffffffffffffffffffffffffffffffffffff16815250508082975097505050505050505b9250929050565b6040518061016001604052806000151581526020016000815260200160608152602001600073ffffffffffffffffffffffffffffffffffffffff1681526020016000815260200160008152602001600081526020016000815260200160008152602001600081526020016000151581525090565b604051806101000160405280600073ffffffffffffffffffffffffffffffffffffffff168152602001600073ffffffffffffffffffffffffffffffffffffffff168152602001600062ffffff168152602001600073ffffffffffffffffffffffffffffffffffffffff168152602001600081526020016000815260200160008152602001600073ffffffffffffffffffffffffffffffffffffffff1681525090565b6040518060a0016040528060608152602001600073ffffffffffffffffffffffffffffffffffffffff1681526020016000815260200160008152602001600081525090565b6000813590506130808161464e565b92915050565b6000815190506130958161464e565b92915050565b6000813590506130aa81614665565b92915050565b6000815190506130bf8161467c565b92915050565b6000815190506130d481614693565b92915050565b6000815190506130e9816146aa565b92915050565b60008083601f84011261310157600080fd5b8235905067ffffffffffffffff81111561311a57600080fd5b60208301915083600182028301111561313257600080fd5b9250929050565b600082601f83011261314a57600080fd5b815161315d61315882614375565b614348565b9150808252602083016020830185838301111561317957600080fd5b6131848382846145ba565b50505092915050565b60006080828403121561319f57600080fd5b6131a96080614348565b905060006131b9848285016133c2565b60008301525060206131cd848285016133c2565b60208301525060406131e1848285016133c2565b60408301525060606131f5848285016133c2565b60608301525092915050565b6000610160828403121561321457600080fd5b61321f610160614348565b9050600061322f848285016130b0565b6000830152506020613243848285016133c2565b602083015250604082015167ffffffffffffffff81111561326357600080fd5b61326f84828501613139565b6040830152506060613283848285016130c5565b6060830152506080613297848285016133c2565b60808301525060a06132ab848285016133c2565b60a08301525060c06132bf848285016133c2565b60c08301525060e06132d3848285016133c2565b60e0830152506101006132e8848285016133c2565b610100830152506101206132fe848285016133c2565b61012083015250610140613314848285016130b0565b6101408301525092915050565b60006080828403121561333357600080fd5b61333d6080614348565b9050600061334d848285016130b0565b6000830152506020613361848285016133c2565b602083015250604082015167ffffffffffffffff81111561338157600080fd5b61338d84828501613139565b60408301525060606133a1848285016130da565b60608301525092915050565b6000813590506133bc816146c1565b92915050565b6000815190506133d1816146c1565b92915050565b6000602082840312156133e957600080fd5b60006133f784828501613086565b91505092915050565b600080600080600060a0868803121561341857600080fd5b600061342688828901613071565b955050602061343788828901613071565b9450506040613448888289016133ad565b9350506060613459888289016133ad565b925050608061346a8882890161309b565b9150509295509295909350565b600080600080600080600060e0888a03121561349257600080fd5b60006134a08a828b01613071565b97505060206134b18a828b01613071565b96505060406134c28a828b016133ad565b95505060606134d38a828b016133ad565b94505060806134e48a828b016133ad565b93505060a06134f58a828b016133ad565b92505060c06135068a828b01613071565b91505092959891949750929550565b60008060008060008060c0878903121561352e57600080fd5b600061353c89828a01613071565b965050602061354d89828a016133ad565b955050604061355e89828a016133ad565b945050606061356f89828a016133ad565b935050608061358089828a016133ad565b92505060a061359189828a01613071565b9150509295509295509295565b6000602082840312156135b057600080fd5b60006135be848285016130b0565b91505092915050565b60008060008060008060008060006101008a8c0312156135e657600080fd5b60008a013567ffffffffffffffff81111561360057600080fd5b61360c8c828d016130ef565b9950995050602061361f8c828d016133ad565b97505060406136308c828d01613071565b96505060606136418c828d016133ad565b95505060806136528c828d016133ad565b94505060a06136638c828d016133ad565b93505060c06136748c828d016133ad565b92505060e06136858c828d01613071565b9150509295985092959850929598565b60008060008060008060a087890312156136ae57600080fd5b600087013567ffffffffffffffff8111156136c857600080fd5b6136d489828a016130ef565b965096505060206136e789828a016133ad565b94505060406136f889828a016133ad565b935050606061370989828a016133ad565b925050608061371a89828a01613071565b9150509295509295509295565b60006080828403121561373957600080fd5b60006137478482850161318d565b91505092915050565b60006020828403121561376257600080fd5b600082015167ffffffffffffffff81111561377c57600080fd5b61378884828501613201565b91505092915050565b6000602082840312156137a357600080fd5b600082015167ffffffffffffffff8111156137bd57600080fd5b6137c984828501613321565b91505092915050565b6000602082840312156137e457600080fd5b60006137f2848285016133c2565b91505092915050565b61380481614488565b82525050565b613813816143fb565b82525050565b613822816143fb565b82525050565b613839613834826143fb565b6145ed565b82525050565b6138488161441f565b82525050565b6138578161441f565b82525050565b6000613868826143a1565b61387281856143b7565b93506138828185602086016145ba565b61388b81614623565b840191505092915050565b60006138a1826143a1565b6138ab81856143c8565b93506138bb8185602086016145ba565b6138c481614623565b840191505092915050565b6138d88161449a565b82525050565b6138e7816144be565b82525050565b6138f6816144e2565b82525050565b61390581614506565b82525050565b6139148161452a565b82525050565b6139238161454e565b82525050565b61393281614572565b82525050565b61394181614584565b82525050565b6000613952826143ac565b61395c81856143d9565b935061396c8185602086016145ba565b61397581614623565b840191505092915050565b600061398b826143ac565b61399581856143ea565b93506139a58185602086016145ba565b6139ae81614623565b840191505092915050565b60006139c66008836143ea565b91507f736c6970706167650000000000000000000000000000000000000000000000006000830152602082019050919050565b6000613a06600e836143ea565b91507f726f757465722d617070726f76650000000000000000000000000000000000006000830152602082019050919050565b6000613a466007836143ea565b91507f6e6f2d70617468000000000000000000000000000000000000000000000000006000830152602082019050919050565b6000613a866007836143ea565b91507f617070726f7665000000000000000000000000000000000000000000000000006000830152602082019050919050565b6000613ac66016836143ea565b91507f696e73756666696369656e742d616c6c6f77616e6365000000000000000000006000830152602082019050919050565b6000613b06600e836143ea565b91507f696e76616c69642d6d61726b65740000000000000000000000000000000000006000830152602082019050919050565b6000613b466008836143ea565b91507f7472616e736665720000000000000000000000000000000000000000000000006000830152602082019050919050565b600060a0830160008301518482036000860152613b96828261385d565b9150506020830151613bab602086018261380a565b506040830151613bbe6040860182613dc4565b506060830151613bd16060860182613dc4565b506080830151613be46080860182613dc4565b508091505092915050565b61010082016000820151613c06600085018261380a565b506020820151613c19602085018261380a565b506040820151613c2c6040850182613d8f565b506060820151613c3f606085018261380a565b506080820151613c526080850182613dc4565b5060a0820151613c6560a0850182613dc4565b5060c0820151613c7860c0850182613dc4565b5060e0820151613c8b60e0850182613d80565b50505050565b600061016083016000830151613caa600086018261383f565b506020830151613cbd6020860182613dc4565b5060408301518482036040860152613cd58282613947565b9150506060830151613cea60608601826138de565b506080830151613cfd6080860182613dc4565b5060a0830151613d1060a0860182613dc4565b5060c0830151613d2360c0860182613dc4565b5060e0830151613d3660e0860182613dc4565b50610100830151613d4b610100860182613dc4565b50610120830151613d60610120860182613dc4565b50610140830151613d7561014086018261383f565b508091505092915050565b613d898161444f565b82525050565b613d988161446f565b82525050565b613da78161446f565b82525050565b613dbe613db98261446f565b614611565b82525050565b613dcd8161447e565b82525050565b613ddc8161447e565b82525050565b6000613dee8288613828565b601482019150613dfe8287613dad565b600382019150613e0e8286613828565b601482019150613e1e8285613dad565b600382019150613e2e8284613828565b6014820191508190509695505050505050565b6000604082019050613e5660008301856137fb565b613e636020830184613dd3565b9392505050565b6000604082019050613e7f6000830185613819565b613e8c60208301846137fb565b9392505050565b6000606082019050613ea86000830186613819565b613eb560208301856137fb565b613ec26040830184613dd3565b949350505050565b6000606082019050613edf6000830186613819565b613eec6020830185613819565b613ef96040830184613d9e565b949350505050565b600060a082019050613f166000830188613819565b613f236020830187613819565b613f306040830186613d9e565b613f3d6060830185613dd3565b613f4a6080830184613929565b9695505050505050565b6000604082019050613f696000830185613819565b613f766020830184613dd3565b9392505050565b6000608082019050613f926000830187613819565b613f9f6020830186613dd3565b613fac6040830185613dd3565b613fb96060830184613819565b95945050505050565b6000608082019050613fd76000830187613819565b613fe46020830186613dd3565b613ff16040830185613dd3565b613ffe60608301846137fb565b95945050505050565b600060a08201905061401c6000830188613819565b6140296020830187613dd3565b6140366040830186613dd3565b6140436060830185613dd3565b6140506080830184613819565b9695505050505050565b600060408201905081810360008301526140748185613896565b90506140836020830184613dd3565b9392505050565b600060208201905061409f60008301846138cf565b92915050565b60006020820190506140ba60008301846138ed565b92915050565b60006020820190506140d560008301846138fc565b92915050565b60006020820190506140f0600083018461390b565b92915050565b600060208201905061410b600083018461391a565b92915050565b6000604082019050818103600083015261412b8185613980565b905061413a6020830184613dd3565b9392505050565b6000606082019050818103600083015261415b8186613980565b905061416a6020830185613dd3565b61417760408301846137fb565b949350505050565b60006020820190508181036000830152614198816139b9565b9050919050565b600060208201905081810360008301526141b8816139f9565b9050919050565b600060208201905081810360008301526141d881613a39565b9050919050565b600060208201905081810360008301526141f881613a79565b9050919050565b6000602082019050818103600083015261421881613ab9565b9050919050565b6000602082019050818103600083015261423881613af9565b9050919050565b6000602082019050818103600083015261425881613b39565b9050919050565b600060208201905081810360008301526142798184613b79565b905092915050565b6000610100820190506142976000830184613bef565b92915050565b600060808201905081810360008301526142b78187613c91565b90506142c66020830186613938565b6142d36040830185613dd3565b6142e0606083018461384e565b95945050505050565b60006020820190506142fe6000830184613d9e565b92915050565b60006020820190506143196000830184613dd3565b92915050565b60006040820190506143346000830185613dd3565b6143416020830184613dd3565b9392505050565b6000604051905081810181811067ffffffffffffffff8211171561436b57600080fd5b8060405250919050565b600067ffffffffffffffff82111561438c57600080fd5b601f19601f8301169050602081019050919050565b600081519050919050565b600081519050919050565b600082825260208201905092915050565b600082825260208201905092915050565b600082825260208201905092915050565b600082825260208201905092915050565b60006144068261444f565b9050919050565b60006144188261444f565b9050919050565b60008115159050919050565b6000614436826143fb565b9050919050565b6000614448826143fb565b9050919050565b600073ffffffffffffffffffffffffffffffffffffffff82169050919050565b600062ffffff82169050919050565b6000819050919050565b600061449382614596565b9050919050565b60006144a5826144ac565b9050919050565b60006144b78261444f565b9050919050565b60006144c9826144d0565b9050919050565b60006144db8261444f565b9050919050565b60006144ed826144f4565b9050919050565b60006144ff8261444f565b9050919050565b600061451182614518565b9050919050565b60006145238261444f565b9050919050565b60006145358261453c565b9050919050565b60006145478261444f565b9050919050565b600061455982614560565b9050919050565b600061456b8261444f565b9050919050565b600061457d8261444f565b9050919050565b600061458f8261447e565b9050919050565b60006145a1826145a8565b9050919050565b60006145b38261444f565b9050919050565b60005b838110156145d85780820151818401526020810190506145bd565b838111156145e7576000848401525b50505050565b60006145f8826145ff565b9050919050565b600061460a82614641565b9050919050565b600061461c82614634565b9050919050565b6000601f19601f8301169050919050565b60008160e81b9050919050565b60008160601b9050919050565b614657816143fb565b811461466257600080fd5b50565b61466e8161440d565b811461467957600080fd5b50565b6146858161441f565b811461469057600080fd5b50565b61469c8161442b565b81146146a757600080fd5b50565b6146b38161443d565b81146146be57600080fd5b50565b6146ca8161447e565b81146146d557600080fd5b5056fea2646970667358221220947f7606c208f43ed3b33b84c6d74091e18cbb2aaf495bade8d3fed4b53a25f764736f6c63430006090033",
  "linkReferences": {},
  "deployedLinkReferences": {}
}