{
  "_format": "hh-sol-artifact-1",
  "contractName": "DSPause",
  "sourceName": "contracts/timelock/DSPause.sol",
  "abi": [
    {
      "inputs": [
        {
          "internalType": "uint256",
          "name": "delay",
          "type": "uint256"
        },
        {
          "internalType": "address",
          "name": "owner",
          "type": "address"
        }
      ],
      "stateMutability": "nonpayable",
      "type": "constructor"
    },
    {
      "inputs": [],
      "name": "_delay",
      "outputs": [
        {
          "internalType": "uint256",
          "name": "",
          "type": "uint256"
        }
      ],
      "stateMutability": "view",
      "type": "function"
    },
    {
      "inputs": [],
      "name": "_owner",
      "outputs": [
        {
          "internalType": "address",
          "name": "",
          "type": "address"
        }
      ],
      "stateMutability": "view",
      "type": "function"
    },
    {
      "inputs": [
        {
          "internalType": "bytes32",
          "name": "",
          "type": "bytes32"
        }
      ],
      "name": "_plans",
      "outputs": [
        {
          "internalType": "bool",
          "name": "",
          "type": "bool"
        }
      ],
      "stateMutability": "view",
      "type": "function"
    },
    {
      "inputs": [],
      "name": "_proxy",
      "outputs": [
        {
          "internalType": "contract DSPauseProxy",
          "name": "",
          "type": "address"
        }
      ],
      "stateMutability": "view",
      "type": "function"
    },
    {
      "inputs": [
        {
          "internalType": "address",
          "name": "usr",
          "type": "address"
        },
        {
          "internalType": "bytes32",
          "name": "tag",
          "type": "bytes32"
        },
        {
          "internalType": "bytes",
          "name": "fax",
          "type": "bytes"
        },
        {
          "internalType": "uint256",
          "name": "eta",
          "type": "uint256"
        }
      ],
      "name": "drop",
      "outputs": [],
      "stateMutability": "nonpayable",
      "type": "function"
    },
    {
      "inputs": [
        {
          "internalType": "address",
          "name": "usr",
          "type": "address"
        },
        {
          "internalType": "bytes32",
          "name": "tag",
          "type": "bytes32"
        },
        {
          "internalType": "bytes",
          "name": "fax",
          "type": "bytes"
        },
        {
          "internalType": "uint256",
          "name": "eta",
          "type": "uint256"
        }
      ],
      "name": "exec",
      "outputs": [
        {
          "internalType": "bytes",
          "name": "out",
          "type": "bytes"
        }
      ],
      "stateMutability": "nonpayable",
      "type": "function"
    },
    {
      "inputs": [
        {
          "internalType": "address",
          "name": "usr",
          "type": "address"
        },
        {
          "internalType": "bytes32",
          "name": "tag",
          "type": "bytes32"
        },
        {
          "internalType": "bytes",
          "name": "fax",
          "type": "bytes"
        },
        {
          "internalType": "uint256",
          "name": "eta",
          "type": "uint256"
        }
      ],
      "name": "plot",
      "outputs": [],
      "stateMutability": "nonpayable",
      "type": "function"
    },
    {
      "inputs": [
        {
          "internalType": "uint256",
          "name": "delay",
          "type": "uint256"
        }
      ],
      "name": "setDelay",
      "outputs": [],
      "stateMutability": "nonpayable",
      "type": "function"
    },
    {
      "inputs": [
        {
          "internalType": "address",
          "name": "owner",
          "type": "address"
        }
      ],
      "name": "setOwner",
      "outputs": [],
      "stateMutability": "nonpayable",
      "type": "function"
    },
    {
      "inputs": [
        {
          "internalType": "address",
          "name": "usr",
          "type": "address"
        }
      ],
      "name": "soul",
      "outputs": [
        {
          "internalType": "bytes32",
          "name": "tag",
          "type": "bytes32"
        }
      ],
      "stateMutability": "view",
      "type": "function"
    }
  ],
  "bytecode": "0x608060405234801561001057600080fd5b5060405161179b38038061179b8339818101604052604081101561003357600080fd5b81019080805190602001909291908051906020019092919050505081600381905550806000806101000a81548173ffffffffffffffffffffffffffffffffffffffff021916908373ffffffffffffffffffffffffffffffffffffffff1602179055506040516100a190610105565b604051809103906000f0801580156100bd573d6000803e3d6000fd5b50600260006101000a81548173ffffffffffffffffffffffffffffffffffffffff021916908373ffffffffffffffffffffffffffffffffffffffff1602179055505050610112565b61048d8061130e83390190565b6111ed806101216000396000f3fe608060405234801561001057600080fd5b506004361061009e5760003560e01c8063958b640011610066578063958b640014610473578063b2bdfa7b146104cb578063cc2effdc14610515578063e177246e1461055f578063e83637431461058d5761009e565b806313af4035146100a3578063162c7de3146100e7578063168ccd67146101d657806346d2fbbb1461033e578063548b0fab1461042d575b600080fd5b6100e5600480360360208110156100b957600080fd5b81019080803573ffffffffffffffffffffffffffffffffffffffff1690602001909291905050506105ab565b005b6101d4600480360360808110156100fd57600080fd5b81019080803573ffffffffffffffffffffffffffffffffffffffff169060200190929190803590602001909291908035906020019064010000000081111561014457600080fd5b82018360208201111561015657600080fd5b8035906020019184600183028401116401000000008311171561017857600080fd5b91908080601f016020809104026020016040519081016040528093929190818152602001838380828437600081840152601f19601f820116905080830192505050505050509192919290803590602001909291905050506106b1565b005b6102c3600480360360808110156101ec57600080fd5b81019080803573ffffffffffffffffffffffffffffffffffffffff169060200190929190803590602001909291908035906020019064010000000081111561023357600080fd5b82018360208201111561024557600080fd5b8035906020019184600183028401116401000000008311171561026757600080fd5b91908080601f016020809104026020016040519081016040528093929190818152602001838380828437600081840152601f19601f820116905080830192505050505050509192919290803590602001909291905050506107b0565b6040518080602001828103825283818151815260200191508051906020019080838360005b838110156103035780820151818401526020810190506102e8565b50505050905090810190601f1680156103305780820380516001836020036101000a031916815260200191505b509250505060405180910390f35b61042b6004803603608081101561035457600080fd5b81019080803573ffffffffffffffffffffffffffffffffffffffff169060200190929190803590602001909291908035906020019064010000000081111561039b57600080fd5b8201836020820111156103ad57600080fd5b803590602001918460018302840111640100000000831117156103cf57600080fd5b91908080601f016020809104026020016040519081016040528093929190818152602001838380828437600081840152601f19601f82011690508083019250505050505050919291929080359060200190929190505050610d90565b005b6104596004803603602081101561044357600080fd5b8101908080359060200190929190505050610f0f565b604051808215151515815260200191505060405180910390f35b6104b56004803603602081101561048957600080fd5b81019080803573ffffffffffffffffffffffffffffffffffffffff169060200190929190505050610f2f565b6040518082815260200191505060405180910390f35b6104d3610f3a565b604051808273ffffffffffffffffffffffffffffffffffffffff1673ffffffffffffffffffffffffffffffffffffffff16815260200191505060405180910390f35b61051d610f5f565b604051808273ffffffffffffffffffffffffffffffffffffffff1673ffffffffffffffffffffffffffffffffffffffff16815260200191505060405180910390f35b61058b6004803603602081101561057557600080fd5b8101908080359060200190929190505050610f85565b005b610595611052565b6040518082815260200191505060405180910390f35b600260009054906101000a900473ffffffffffffffffffffffffffffffffffffffff1673ffffffffffffffffffffffffffffffffffffffff163373ffffffffffffffffffffffffffffffffffffffff161461066e576040517f08c379a00000000000000000000000000000000000000000000000000000000081526004018080602001828103825260178152602001807f64732d70617573652d756e64656c617965642d63616c6c00000000000000000081525060200191505060405180910390fd5b806000806101000a81548173ffffffffffffffffffffffffffffffffffffffff021916908373ffffffffffffffffffffffffffffffffffffffff16021790555050565b6000809054906101000a900473ffffffffffffffffffffffffffffffffffffffff1673ffffffffffffffffffffffffffffffffffffffff163373ffffffffffffffffffffffffffffffffffffffff1614610773576040517f08c379a00000000000000000000000000000000000000000000000000000000081526004018080602001828103825260158152602001807f64732d70617573652d756e617574686f72697a6564000000000000000000000081525060200191505060405180910390fd5b60006001600061078587878787611058565b815260200190815260200160002060006101000a81548160ff02191690831515021790555050505050565b60606000809054906101000a900473ffffffffffffffffffffffffffffffffffffffff1673ffffffffffffffffffffffffffffffffffffffff163373ffffffffffffffffffffffffffffffffffffffff1614610874576040517f08c379a00000000000000000000000000000000000000000000000000000000081526004018080602001828103825260158152602001807f64732d70617573652d756e617574686f72697a6564000000000000000000000081525060200191505060405180910390fd5b6001600061088487878787611058565b815260200190815260200160002060009054906101000a900460ff16610912576040517f08c379a00000000000000000000000000000000000000000000000000000000081526004018080602001828103825260178152602001807f64732d70617573652d756e706c6f747465642d706c616e00000000000000000081525060200191505060405180910390fd5b8361091c86610f2f565b1461098f576040517f08c379a00000000000000000000000000000000000000000000000000000000081526004018080602001828103825260178152602001807f64732d70617573652d77726f6e672d636f64656861736800000000000000000081525060200191505060405180910390fd5b81421015610a05576040517f08c379a00000000000000000000000000000000000000000000000000000000081526004018080602001828103825260178152602001807f64732d70617573652d7072656d61747572652d6578656300000000000000000081525060200191505060405180910390fd5b600060016000610a1788888888611058565b815260200190815260200160002060006101000a81548160ff021916908315150217905550600260009054906101000a900473ffffffffffffffffffffffffffffffffffffffff1673ffffffffffffffffffffffffffffffffffffffff1663be6002c286856040518363ffffffff1660e01b8152600401808373ffffffffffffffffffffffffffffffffffffffff1673ffffffffffffffffffffffffffffffffffffffff16815260200180602001828103825283818151815260200191508051906020019080838360005b83811015610afd578082015181840152602081019050610ae2565b50505050905090810190601f168015610b2a5780820380516001836020036101000a031916815260200191505b509350505050600060405180830381600087803b158015610b4a57600080fd5b505af1158015610b5e573d6000803e3d6000fd5b505050506040513d6000823e3d601f19601f820116820180604052506020811015610b8857600080fd5b8101908080516040519392919084640100000000821115610ba857600080fd5b83820191506020820185811115610bbe57600080fd5b8251866001820283011164010000000082111715610bdb57600080fd5b8083526020830192505050908051906020019080838360005b83811015610c0f578082015181840152602081019050610bf4565b50505050905090810190601f168015610c3c5780820380516001836020036101000a031916815260200191505b5060405250505090503073ffffffffffffffffffffffffffffffffffffffff16600260009054906101000a900473ffffffffffffffffffffffffffffffffffffffff1673ffffffffffffffffffffffffffffffffffffffff1663b2bdfa7b6040518163ffffffff1660e01b815260040160206040518083038186803b158015610cc457600080fd5b505afa158015610cd8573d6000803e3d6000fd5b505050506040513d6020811015610cee57600080fd5b810190808051906020019092919050505073ffffffffffffffffffffffffffffffffffffffff1614610d88576040517f08c379a000000000000000000000000000000000000000000000000000000000815260040180806020018281038252601f8152602001807f64732d70617573652d696c6c6567616c2d73746f726167652d6368616e67650081525060200191505060405180910390fd5b949350505050565b6000809054906101000a900473ffffffffffffffffffffffffffffffffffffffff1673ffffffffffffffffffffffffffffffffffffffff163373ffffffffffffffffffffffffffffffffffffffff1614610e52576040517f08c379a00000000000000000000000000000000000000000000000000000000081526004018080602001828103825260158152602001807f64732d70617573652d756e617574686f72697a6564000000000000000000000081525060200191505060405180910390fd5b610e5e42600354611134565b811015610ed3576040517f08c379a000000000000000000000000000000000000000000000000000000000815260040180806020018281038252601c8152602001807f64732d70617573652d64656c61792d6e6f742d7265737065637465640000000081525060200191505060405180910390fd5b6001806000610ee487878787611058565b815260200190815260200160002060006101000a81548160ff02191690831515021790555050505050565b60016020528060005260406000206000915054906101000a900460ff1681565b6000813f9050919050565b6000809054906101000a900473ffffffffffffffffffffffffffffffffffffffff1681565b600260009054906101000a900473ffffffffffffffffffffffffffffffffffffffff1681565b600260009054906101000a900473ffffffffffffffffffffffffffffffffffffffff1673ffffffffffffffffffffffffffffffffffffffff163373ffffffffffffffffffffffffffffffffffffffff1614611048576040517f08c379a00000000000000000000000000000000000000000000000000000000081526004018080602001828103825260178152602001807f64732d70617573652d756e64656c617965642d63616c6c00000000000000000081525060200191505060405180910390fd5b8060038190555050565b60035481565b600084848484604051602001808573ffffffffffffffffffffffffffffffffffffffff1673ffffffffffffffffffffffffffffffffffffffff16815260200184815260200180602001838152602001828103825284818151815260200191508051906020019080838360005b838110156110df5780820151818401526020810190506110c4565b50505050905090810190601f16801561110c5780820380516001836020036101000a031916815260200191505b5095505050505050604051602081830303815290604052805190602001209050949350505050565b60008183019050828110156111b1576040517f08c379a000000000000000000000000000000000000000000000000000000000815260040180806020018281038252601a8152602001807f64732d70617573652d6164646974696f6e2d6f766572666c6f7700000000000081525060200191505060405180910390fd5b9291505056fea2646970667358221220d7baa8274968107b2fa64d91dbb493ab038107385b3bc0b8765ecf177927bdf664736f6c63430006090033608060405234801561001057600080fd5b50336000806101000a81548173ffffffffffffffffffffffffffffffffffffffff021916908373ffffffffffffffffffffffffffffffffffffffff16021790555061042d806100606000396000f3fe608060405234801561001057600080fd5b50600436106100365760003560e01c8063b2bdfa7b1461003b578063be6002c214610085575b600080fd5b6100436101d9565b604051808273ffffffffffffffffffffffffffffffffffffffff1673ffffffffffffffffffffffffffffffffffffffff16815260200191505060405180910390f35b61015e6004803603604081101561009b57600080fd5b81019080803573ffffffffffffffffffffffffffffffffffffffff169060200190929190803590602001906401000000008111156100d857600080fd5b8201836020820111156100ea57600080fd5b8035906020019184600183028401116401000000008311171561010c57600080fd5b91908080601f016020809104026020016040519081016040528093929190818152602001838380828437600081840152601f19601f8201169050808301925050505050505091929192905050506101fe565b6040518080602001828103825283818151815260200191508051906020019080838360005b8381101561019e578082015181840152602081019050610183565b50505050905090810190601f1680156101cb5780820380516001836020036101000a031916815260200191505b509250505060405180910390f35b6000809054906101000a900473ffffffffffffffffffffffffffffffffffffffff1681565b60606000809054906101000a900473ffffffffffffffffffffffffffffffffffffffff1673ffffffffffffffffffffffffffffffffffffffff163373ffffffffffffffffffffffffffffffffffffffff16146102c2576040517f08c379a000000000000000000000000000000000000000000000000000000000815260040180806020018281038252601b8152602001807f64732d70617573652d70726f78792d756e617574686f72697a6564000000000081525060200191505060405180910390fd5b60008373ffffffffffffffffffffffffffffffffffffffff16836040518082805190602001908083835b6020831061030f57805182526020820191506020810190506020830392506102ec565b6001836020036101000a038019825116818451168082178552505050505050905001915050600060405180830381855af49150503d806000811461036f576040519150601f19603f3d011682016040523d82523d6000602084013e610374565b606091505b508093508192505050806103f0576040517f08c379a000000000000000000000000000000000000000000000000000000000815260040180806020018281038252601b8152602001807f64732d70617573652d64656c656761746563616c6c2d6572726f72000000000081525060200191505060405180910390fd5b509291505056fea26469706673582212207bc95f684030385c70ca58e0d6a67c29cd7311d3ef508e764a47e5301e4cb3a164736f6c63430006090033",
  "linkReferences": {},
  "deployedLinkReferences": {}
}