{
  "_format": "hh-sol-artifact-1",
  "contractName": "IdeaTokenExchange",
  "sourceName": "contracts/core/IdeaTokenExchange.sol",
  "abi": [
    {
      "anonymous": false,
      "inputs": [
        {
          "indexed": false,
          "internalType": "address",
          "name": "ideaToken",
          "type": "address"
        },
        {
          "indexed": false,
          "internalType": "uint256",
          "name": "investmentToken",
          "type": "uint256"
        }
      ],
      "name": "DaiRedeemed",
      "type": "event"
    },
    {
      "anonymous": false,
      "inputs": [
        {
          "indexed": false,
          "internalType": "uint256",
          "name": "marketID",
          "type": "uint256"
        },
        {
          "indexed": false,
          "internalType": "address",
          "name": "ideaToken",
          "type": "address"
        },
        {
          "indexed": false,
          "internalType": "uint256",
          "name": "daiInToken",
          "type": "uint256"
        },
        {
          "indexed": false,
          "internalType": "uint256",
          "name": "daiInvested",
          "type": "uint256"
        },
        {
          "indexed": false,
          "internalType": "uint256",
          "name": "tradingFeeInvested",
          "type": "uint256"
        },
        {
          "indexed": false,
          "internalType": "uint256",
          "name": "platformFeeInvested",
          "type": "uint256"
        },
        {
          "indexed": false,
          "internalType": "uint256",
          "name": "volume",
          "type": "uint256"
        }
      ],
      "name": "InvestedState",
      "type": "event"
    },
    {
      "anonymous": false,
      "inputs": [
        {
          "indexed": false,
          "internalType": "address",
          "name": "ideaToken",
          "type": "address"
        },
        {
          "indexed": false,
          "internalType": "address",
          "name": "withdrawer",
          "type": "address"
        }
      ],
      "name": "NewInterestWithdrawer",
      "type": "event"
    },
    {
      "anonymous": false,
      "inputs": [
        {
          "indexed": false,
          "internalType": "uint256",
          "name": "marketID",
          "type": "uint256"
        },
        {
          "indexed": false,
          "internalType": "address",
          "name": "withdrawer",
          "type": "address"
        }
      ],
      "name": "NewPlatformFeeWithdrawer",
      "type": "event"
    },
    {
      "anonymous": false,
      "inputs": [
        {
          "indexed": false,
          "internalType": "address",
          "name": "oldOwner",
          "type": "address"
        },
        {
          "indexed": false,
          "internalType": "address",
          "name": "newOwner",
          "type": "address"
        }
      ],
      "name": "OwnershipChanged",
      "type": "event"
    },
    {
      "anonymous": false,
      "inputs": [
        {
          "indexed": false,
          "internalType": "uint256",
          "name": "marketID",
          "type": "uint256"
        }
      ],
      "name": "PlatformFeeRedeemed",
      "type": "event"
    },
    {
      "anonymous": false,
      "inputs": [],
      "name": "TradingFeeRedeemed",
      "type": "event"
    },
    {
      "inputs": [
        {
          "internalType": "address",
          "name": "token",
          "type": "address"
        },
        {
          "internalType": "address",
          "name": "withdrawer",
          "type": "address"
        }
      ],
      "name": "authorizeInterestWithdrawer",
      "outputs": [],
      "stateMutability": "nonpayable",
      "type": "function"
    },
    {
      "inputs": [
        {
          "internalType": "uint256",
          "name": "marketID",
          "type": "uint256"
        },
        {
          "internalType": "address",
          "name": "withdrawer",
          "type": "address"
        }
      ],
      "name": "authorizePlatformFeeWithdrawer",
      "outputs": [],
      "stateMutability": "nonpayable",
      "type": "function"
    },
    {
      "inputs": [
        {
          "internalType": "address",
          "name": "ideaToken",
          "type": "address"
        },
        {
          "internalType": "uint256",
          "name": "amount",
          "type": "uint256"
        },
        {
          "internalType": "uint256",
          "name": "fallbackAmount",
          "type": "uint256"
        },
        {
          "internalType": "uint256",
          "name": "cost",
          "type": "uint256"
        },
        {
          "internalType": "address",
          "name": "recipient",
          "type": "address"
        }
      ],
      "name": "buyTokens",
      "outputs": [],
      "stateMutability": "nonpayable",
      "type": "function"
    },
    {
      "inputs": [
        {
          "internalType": "address",
          "name": "ideaToken",
          "type": "address"
        },
        {
          "internalType": "uint256",
          "name": "amount",
          "type": "uint256"
        }
      ],
      "name": "getCostForBuyingTokens",
      "outputs": [
        {
          "internalType": "uint256",
          "name": "",
          "type": "uint256"
        }
      ],
      "stateMutability": "view",
      "type": "function"
    },
    {
      "inputs": [
        {
          "internalType": "address",
          "name": "token",
          "type": "address"
        }
      ],
      "name": "getInterestPayable",
      "outputs": [
        {
          "internalType": "uint256",
          "name": "",
          "type": "uint256"
        }
      ],
      "stateMutability": "view",
      "type": "function"
    },
    {
      "inputs": [],
      "name": "getOwner",
      "outputs": [
        {
          "internalType": "address",
          "name": "",
          "type": "address"
        }
      ],
      "stateMutability": "view",
      "type": "function"
    },
    {
      "inputs": [
        {
          "internalType": "uint256",
          "name": "marketID",
          "type": "uint256"
        }
      ],
      "name": "getPlatformFeePayable",
      "outputs": [
        {
          "internalType": "uint256",
          "name": "",
          "type": "uint256"
        }
      ],
      "stateMutability": "view",
      "type": "function"
    },
    {
      "inputs": [
        {
          "internalType": "address",
          "name": "ideaToken",
          "type": "address"
        },
        {
          "internalType": "uint256",
          "name": "amount",
          "type": "uint256"
        }
      ],
      "name": "getPriceForSellingTokens",
      "outputs": [
        {
          "internalType": "uint256",
          "name": "",
          "type": "uint256"
        }
      ],
      "stateMutability": "view",
      "type": "function"
    },
    {
      "inputs": [],
      "name": "getTradingFeePayable",
      "outputs": [
        {
          "internalType": "uint256",
          "name": "",
          "type": "uint256"
        }
      ],
      "stateMutability": "view",
      "type": "function"
    },
    {
      "inputs": [
        {
          "internalType": "address",
          "name": "owner",
          "type": "address"
        },
        {
          "internalType": "address",
          "name": "authorizer",
          "type": "address"
        },
        {
          "internalType": "address",
          "name": "tradingFeeRecipient",
          "type": "address"
        },
        {
          "internalType": "address",
          "name": "interestManager",
          "type": "address"
        },
        {
          "internalType": "address",
          "name": "dai",
          "type": "address"
        }
      ],
      "name": "initialize",
      "outputs": [],
      "stateMutability": "nonpayable",
      "type": "function"
    },
    {
      "inputs": [
        {
          "internalType": "address",
          "name": "ideaToken",
          "type": "address"
        },
        {
          "internalType": "uint256",
          "name": "amount",
          "type": "uint256"
        },
        {
          "internalType": "uint256",
          "name": "minPrice",
          "type": "uint256"
        },
        {
          "internalType": "address",
          "name": "recipient",
          "type": "address"
        }
      ],
      "name": "sellTokens",
      "outputs": [],
      "stateMutability": "nonpayable",
      "type": "function"
    },
    {
      "inputs": [
        {
          "internalType": "address",
          "name": "authorizer",
          "type": "address"
        }
      ],
      "name": "setAuthorizer",
      "outputs": [],
      "stateMutability": "nonpayable",
      "type": "function"
    },
    {
      "inputs": [
        {
          "internalType": "address",
          "name": "factory",
          "type": "address"
        }
      ],
      "name": "setIdeaTokenFactoryAddress",
      "outputs": [],
      "stateMutability": "nonpayable",
      "type": "function"
    },
    {
      "inputs": [
        {
          "internalType": "address",
          "name": "newOwner",
          "type": "address"
        }
      ],
      "name": "setOwner",
      "outputs": [],
      "stateMutability": "nonpayable",
      "type": "function"
    },
    {
      "inputs": [
        {
          "internalType": "address",
          "name": "token",
          "type": "address"
        }
      ],
      "name": "withdrawInterest",
      "outputs": [],
      "stateMutability": "nonpayable",
      "type": "function"
    },
    {
      "inputs": [
        {
          "internalType": "uint256",
          "name": "marketID",
          "type": "uint256"
        }
      ],
      "name": "withdrawPlatformFee",
      "outputs": [],
      "stateMutability": "nonpayable",
      "type": "function"
    },
    {
      "inputs": [],
      "name": "withdrawTradingFee",
      "outputs": [],
      "stateMutability": "nonpayable",
      "type": "function"
    }
  ],
  "bytecode": "0x608060405234801561001057600080fd5b506142c2806100206000396000f3fe608060405234801561001057600080fd5b506004361061010a5760003560e01c806368b5e647116100a2578063aa556e0b11610071578063aa556e0b146102a1578063af45f322146102bd578063cc09125f146102d9578063dde7c190146102f5578063e5aa7d35146103115761010a565b806368b5e6471461022b578063818b97561461025b578063893d20e8146102795780639b44e71c146102975761010a565b80631459457a116100de5780631459457a14610193578063159fc8f8146101af57806342de842b146101cb578063577aca59146101fb5761010a565b80628db8801461010f578063058a628f1461013f578063130362b31461015b57806313af403514610177575b600080fd5b61012960048036038101906101249190613789565b61032d565b6040516101369190614034565b60405180910390f35b61015960048036038101906101549190613504565b6103f4565b005b610175600480360381019061017091906137db565b6104c8565b005b610191600480360381019061018c9190613504565b6107aa565b005b6101ad60048036038101906101a89190613569565b610846565b005b6101c960048036038101906101c4919061352d565b610a41565b005b6101e560048036038101906101e091906135e0565b610da7565b6040516101f29190614034565b60405180910390f35b61021560048036038101906102109190613504565b610dc3565b6040516102229190614034565b60405180910390f35b610245600480360381019061024091906135e0565b610ed4565b6040516102529190614034565b60405180910390f35b610263610ef0565b6040516102709190614034565b60405180910390f35b610281610fa4565b60405161028e9190613d21565b60405180910390f35b61029f610fce565b005b6102bb60048036038101906102b6919061361c565b6110ef565b005b6102d760048036038101906102d29190613504565b6118e7565b005b6102f360048036038101906102ee919061367f565b611ba5565b005b61030f600480360381019061030a9190613789565b6124cc565b005b61032b60048036038101906103269190613504565b612710565b005b6000603c60009054906101000a900473ffffffffffffffffffffffffffffffffffffffff1673ffffffffffffffffffffffffffffffffffffffff1663d84d5e9060376000858152602001908152602001600020546040518263ffffffff1660e01b815260040161039d9190614034565b60206040518083038186803b1580156103b557600080fd5b505afa1580156103c9573d6000803e3d6000fd5b505050506040513d601f19601f820116820180604052508101906103ed91906137b2565b9050919050565b3373ffffffffffffffffffffffffffffffffffffffff16603360009054906101000a900473ffffffffffffffffffffffffffffffffffffffff1673ffffffffffffffffffffffffffffffffffffffff1614610484576040517f08c379a000000000000000000000000000000000000000000000000000000000815260040161047b90613e94565b60405180910390fd5b80603460006101000a81548173ffffffffffffffffffffffffffffffffffffffff021916908373ffffffffffffffffffffffffffffffffffffffff16021790555050565b60006038600084815260200190815260200160002060009054906101000a900473ffffffffffffffffffffffffffffffffffffffff169050600073ffffffffffffffffffffffffffffffffffffffff168173ffffffffffffffffffffffffffffffffffffffff161480156105e15750603360009054906101000a900473ffffffffffffffffffffffffffffffffffffffff1673ffffffffffffffffffffffffffffffffffffffff163373ffffffffffffffffffffffffffffffffffffffff1614806105e05750603460009054906101000a900473ffffffffffffffffffffffffffffffffffffffff1673ffffffffffffffffffffffffffffffffffffffff163373ffffffffffffffffffffffffffffffffffffffff16145b5b806106db5750600073ffffffffffffffffffffffffffffffffffffffff168173ffffffffffffffffffffffffffffffffffffffff16141580156106da5750603360009054906101000a900473ffffffffffffffffffffffffffffffffffffffff1673ffffffffffffffffffffffffffffffffffffffff163373ffffffffffffffffffffffffffffffffffffffff1614806106d957506038600084815260200190815260200160002060009054906101000a900473ffffffffffffffffffffffffffffffffffffffff1673ffffffffffffffffffffffffffffffffffffffff163373ffffffffffffffffffffffffffffffffffffffff16145b5b5b61071a576040517f08c379a000000000000000000000000000000000000000000000000000000000815260040161071190613ef4565b60405180910390fd5b816038600085815260200190815260200160002060006101000a81548173ffffffffffffffffffffffffffffffffffffffff021916908373ffffffffffffffffffffffffffffffffffffffff1602179055507f92fce6abb44de882f8e06427853d14084ef5fd2d495828dfdcb38d1f5ad0aa50838360405161079d92919061404f565b60405180910390a1505050565b3373ffffffffffffffffffffffffffffffffffffffff16603360009054906101000a900473ffffffffffffffffffffffffffffffffffffffff1673ffffffffffffffffffffffffffffffffffffffff161461083a576040517f08c379a000000000000000000000000000000000000000000000000000000000815260040161083190613e94565b60405180910390fd5b6108438161283f565b50565b600060019054906101000a900460ff168061086557506108646128e4565b5b8061087c57506000809054906101000a900460ff16155b6108bb576040517f08c379a00000000000000000000000000000000000000000000000000000000081526004016108b290613f54565b60405180910390fd5b60008060019054906101000a900460ff16159050801561090b576001600060016101000a81548160ff02191690831515021790555060016000806101000a81548160ff0219169083151502179055505b6109148661283f565b84603460006101000a81548173ffffffffffffffffffffffffffffffffffffffff021916908373ffffffffffffffffffffffffffffffffffffffff16021790555083603660006101000a81548173ffffffffffffffffffffffffffffffffffffffff021916908373ffffffffffffffffffffffffffffffffffffffff16021790555082603c60006101000a81548173ffffffffffffffffffffffffffffffffffffffff021916908373ffffffffffffffffffffffffffffffffffffffff16021790555081603d60006101000a81548173ffffffffffffffffffffffffffffffffffffffff021916908373ffffffffffffffffffffffffffffffffffffffff1602179055508015610a395760008060016101000a81548160ff0219169083151502179055505b505050505050565b6000603a60008473ffffffffffffffffffffffffffffffffffffffff1673ffffffffffffffffffffffffffffffffffffffff16815260200190815260200160002060009054906101000a900473ffffffffffffffffffffffffffffffffffffffff169050600073ffffffffffffffffffffffffffffffffffffffff168173ffffffffffffffffffffffffffffffffffffffff16148015610b865750603360009054906101000a900473ffffffffffffffffffffffffffffffffffffffff1673ffffffffffffffffffffffffffffffffffffffff163373ffffffffffffffffffffffffffffffffffffffff161480610b855750603460009054906101000a900473ffffffffffffffffffffffffffffffffffffffff1673ffffffffffffffffffffffffffffffffffffffff163373ffffffffffffffffffffffffffffffffffffffff16145b5b80610cac5750600073ffffffffffffffffffffffffffffffffffffffff168173ffffffffffffffffffffffffffffffffffffffff1614158015610cab5750603360009054906101000a900473ffffffffffffffffffffffffffffffffffffffff1673ffffffffffffffffffffffffffffffffffffffff163373ffffffffffffffffffffffffffffffffffffffff161480610caa5750603a60008473ffffffffffffffffffffffffffffffffffffffff1673ffffffffffffffffffffffffffffffffffffffff16815260200190815260200160002060009054906101000a900473ffffffffffffffffffffffffffffffffffffffff1673ffffffffffffffffffffffffffffffffffffffff163373ffffffffffffffffffffffffffffffffffffffff16145b5b5b610ceb576040517f08c379a0000000000000000000000000000000000000000000000000000000008152600401610ce290613f34565b60405180910390fd5b81603a60008573ffffffffffffffffffffffffffffffffffffffff1673ffffffffffffffffffffffffffffffffffffffff16815260200190815260200160002060006101000a81548173ffffffffffffffffffffffffffffffffffffffff021916908373ffffffffffffffffffffffffffffffffffffffff1602179055507f7a6722ef357887178c9cf10a97427a4c452d6f8d8061aacd3d008016533a89ff8383604051610d9a929190613de0565b60405180910390a1505050565b600080610db484846128fb565b50505090508091505092915050565b600080603960008473ffffffffffffffffffffffffffffffffffffffff1673ffffffffffffffffffffffffffffffffffffffff1681526020019081526020016000209050610ecc8160000154603c60009054906101000a900473ffffffffffffffffffffffffffffffffffffffff1673ffffffffffffffffffffffffffffffffffffffff1663d84d5e9084600101546040518263ffffffff1660e01b8152600401610e6e9190614034565b60206040518083038186803b158015610e8657600080fd5b505afa158015610e9a573d6000803e3d6000fd5b505050506040513d601f19601f82011682018060405250810190610ebe91906137b2565b612bac90919063ffffffff16565b915050919050565b600080610ee18484612bf6565b50505090508091505092915050565b6000603c60009054906101000a900473ffffffffffffffffffffffffffffffffffffffff1673ffffffffffffffffffffffffffffffffffffffff1663d84d5e906035546040518263ffffffff1660e01b8152600401610f4f9190614034565b60206040518083038186803b158015610f6757600080fd5b505afa158015610f7b573d6000803e3d6000fd5b505050506040513d601f19601f82011682018060405250810190610f9f91906137b2565b905090565b6000603360009054906101000a900473ffffffffffffffffffffffffffffffffffffffff16905090565b60006035541415610fde576110ed565b600060355490506000603581905550603c60009054906101000a900473ffffffffffffffffffffffffffffffffffffffff1673ffffffffffffffffffffffffffffffffffffffff1663f3e08e1f603660009054906101000a900473ffffffffffffffffffffffffffffffffffffffff16836040518363ffffffff1660e01b815260040161106c929190613e09565b602060405180830381600087803b15801561108657600080fd5b505af115801561109a573d6000803e3d6000fd5b505050506040513d601f19601f820116820180604052508101906110be91906137b2565b507fac48b4315a504eff41770e694b7191d97db2e63822283a89b1f872d98781f03a60405160405180910390a1505b565b60006110f961326c565b603b60009054906101000a900473ffffffffffffffffffffffffffffffffffffffff1673ffffffffffffffffffffffffffffffffffffffff16633911283a876040518263ffffffff1660e01b81526004016111549190613d21565b60606040518083038186803b15801561116c57600080fd5b505afa158015611180573d6000803e3d6000fd5b505050506040513d601f19601f820116820180604052508101906111a4919061371f565b905080600001516111ea576040517f08c379a00000000000000000000000000000000000000000000000000000000081526004016111e190613ed4565b60405180910390fd5b603b60009054906101000a900473ffffffffffffffffffffffffffffffffffffffff1673ffffffffffffffffffffffffffffffffffffffff1663c7d5fe5582602001516040518263ffffffff1660e01b81526004016112499190614034565b60006040518083038186803b15801561126157600080fd5b505afa158015611275573d6000803e3d6000fd5b505050506040513d6000823e3d601f19601f8201168201806040525081019061129e9190613748565b602001519150506000806000806112b58989612bf6565b935093509350935086841015611300576040517f08c379a00000000000000000000000000000000000000000000000000000000081526004016112f790613ff4565b60405180910390fd5b878973ffffffffffffffffffffffffffffffffffffffff166370a08231336040518263ffffffff1660e01b815260040161133a9190613d3c565b60206040518083038186803b15801561135257600080fd5b505afa158015611366573d6000803e3d6000fd5b505050506040513d601f19601f8201168201806040525081019061138a91906137b2565b10156113cb576040517f08c379a00000000000000000000000000000000000000000000000000000000081526004016113c290613fb4565b60405180910390fd5b8873ffffffffffffffffffffffffffffffffffffffff16639dc29fac338a6040518363ffffffff1660e01b8152600401611406929190613db7565b600060405180830381600087803b15801561142057600080fd5b505af1158015611434573d6000803e3d6000fd5b50505050603c60009054906101000a900473ffffffffffffffffffffffffffffffffffffffff1673ffffffffffffffffffffffffffffffffffffffff1663a6afed956040518163ffffffff1660e01b8152600401600060405180830381600087803b1580156114a257600080fd5b505af11580156114b6573d6000803e3d6000fd5b505050506000603960008b73ffffffffffffffffffffffffffffffffffffffff1673ffffffffffffffffffffffffffffffffffffffff16815260200190815260200160002090506000603c60009054906101000a900473ffffffffffffffffffffffffffffffffffffffff1673ffffffffffffffffffffffffffffffffffffffff16631e9a695030886040518363ffffffff1660e01b815260040161155c929190613e09565b602060405180830381600087803b15801561157657600080fd5b505af115801561158a573d6000803e3d6000fd5b505050506040513d601f19601f820116820180604052508101906115ae91906137b2565b90506000603c60009054906101000a900473ffffffffffffffffffffffffffffffffffffffff1673ffffffffffffffffffffffffffffffffffffffff1663df6395ce866040518263ffffffff1660e01b815260040161160d9190614034565b60206040518083038186803b15801561162557600080fd5b505afa158015611639573d6000803e3d6000fd5b505050506040513d601f19601f8201168201806040525081019061165d91906137b2565b90506000603c60009054906101000a900473ffffffffffffffffffffffffffffffffffffffff1673ffffffffffffffffffffffffffffffffffffffff1663df6395ce866040518263ffffffff1660e01b81526004016116bc9190614034565b60206040518083038186803b1580156116d457600080fd5b505afa1580156116e8573d6000803e3d6000fd5b505050506040513d601f19601f8201168201806040525081019061170c91906137b2565b9050611749611736826117288587612ea790919063ffffffff16565b612ea790919063ffffffff16565b8560010154612bac90919063ffffffff16565b846001018190555061176682603554612ea790919063ffffffff16565b60358190555061179281603760008c815260200190815260200160002054612ea790919063ffffffff16565b603760008b8152602001908152602001600020819055506117c0878560000154612bac90919063ffffffff16565b84600001819055505050507f616abbd513b18b60056744ecd017468fb834453acb83d0d62a0af56625cfb472868b83600001548460010154603554603760008d8152602001908152602001600020548a6040516118239796959493929190614078565b60405180910390a1603d60009054906101000a900473ffffffffffffffffffffffffffffffffffffffff1673ffffffffffffffffffffffffffffffffffffffff1663a9059cbb88876040518363ffffffff1660e01b8152600401611888929190613e09565b602060405180830381600087803b1580156118a257600080fd5b505af11580156118b6573d6000803e3d6000fd5b505050506040513d601f19601f820116820180604052508101906118da91906136f6565b5050505050505050505050565b3373ffffffffffffffffffffffffffffffffffffffff16603a60008373ffffffffffffffffffffffffffffffffffffffff1673ffffffffffffffffffffffffffffffffffffffff16815260200190815260200160002060009054906101000a900473ffffffffffffffffffffffffffffffffffffffff1673ffffffffffffffffffffffffffffffffffffffff16146119b4576040517f08c379a00000000000000000000000000000000000000000000000000000000081526004016119ab90613e54565b60405180910390fd5b603c60009054906101000a900473ffffffffffffffffffffffffffffffffffffffff1673ffffffffffffffffffffffffffffffffffffffff1663a6afed956040518163ffffffff1660e01b8152600401600060405180830381600087803b158015611a1e57600080fd5b505af1158015611a32573d6000803e3d6000fd5b505050506000611a4182610dc3565b90506000811415611a525750611ba2565b6000603960008473ffffffffffffffffffffffffffffffffffffffff1673ffffffffffffffffffffffffffffffffffffffff1681526020019081526020016000209050611b5a603c60009054906101000a900473ffffffffffffffffffffffffffffffffffffffff1673ffffffffffffffffffffffffffffffffffffffff16631e9a695033856040518363ffffffff1660e01b8152600401611af5929190613db7565b602060405180830381600087803b158015611b0f57600080fd5b505af1158015611b23573d6000803e3d6000fd5b505050506040513d601f19601f82011682018060405250810190611b4791906137b2565b8260010154612bac90919063ffffffff16565b81600101819055507fa40e10db392b78b8dc04ac947e07fca5550549d736127125952ee23edac07e4a838260010154604051611b97929190613e09565b60405180910390a150505b50565b6000611baf61326c565b603b60009054906101000a900473ffffffffffffffffffffffffffffffffffffffff1673ffffffffffffffffffffffffffffffffffffffff16633911283a886040518263ffffffff1660e01b8152600401611c0a9190613d21565b60606040518083038186803b158015611c2257600080fd5b505afa158015611c36573d6000803e3d6000fd5b505050506040513d601f19601f82011682018060405250810190611c5a919061371f565b90508060000151611ca0576040517f08c379a0000000000000000000000000000000000000000000000000000000008152600401611c9790614014565b60405180910390fd5b603b60009054906101000a900473ffffffffffffffffffffffffffffffffffffffff1673ffffffffffffffffffffffffffffffffffffffff1663c7d5fe5582602001516040518263ffffffff1660e01b8152600401611cff9190614034565b60006040518083038186803b158015611d1757600080fd5b505afa158015611d2b573d6000803e3d6000fd5b505050506040513d6000823e3d601f19601f82011682018060405250810190611d549190613748565b602001519150506000859050600080600080611d708b866128fb565b8094508195508296508397505050505087841115611de957889450611d958b866128fb565b8094508195508296508397505050505087841115611de8576040517f08c379a0000000000000000000000000000000000000000000000000000000008152600401611ddf90613e74565b60405180910390fd5b5b83603d60009054906101000a900473ffffffffffffffffffffffffffffffffffffffff1673ffffffffffffffffffffffffffffffffffffffff1663dd62ed3e33306040518363ffffffff1660e01b8152600401611e47929190613d57565b60206040518083038186803b158015611e5f57600080fd5b505afa158015611e73573d6000803e3d6000fd5b505050506040513d601f19601f82011682018060405250810190611e9791906137b2565b1015611ed8576040517f08c379a0000000000000000000000000000000000000000000000000000000008152600401611ecf90613f94565b60405180910390fd5b603d60009054906101000a900473ffffffffffffffffffffffffffffffffffffffff1673ffffffffffffffffffffffffffffffffffffffff166323b872dd33603c60009054906101000a900473ffffffffffffffffffffffffffffffffffffffff16876040518463ffffffff1660e01b8152600401611f5993929190613d80565b602060405180830381600087803b158015611f7357600080fd5b505af1158015611f87573d6000803e3d6000fd5b505050506040513d601f19601f82011682018060405250810190611fab91906136f6565b611fea576040517f08c379a0000000000000000000000000000000000000000000000000000000008152600401611fe190613fd4565b60405180910390fd5b603c60009054906101000a900473ffffffffffffffffffffffffffffffffffffffff1673ffffffffffffffffffffffffffffffffffffffff1663a6afed956040518163ffffffff1660e01b8152600401600060405180830381600087803b15801561205457600080fd5b505af1158015612068573d6000803e3d6000fd5b50505050603c60009054906101000a900473ffffffffffffffffffffffffffffffffffffffff1673ffffffffffffffffffffffffffffffffffffffff16632afcf480856040518263ffffffff1660e01b81526004016120c79190614034565b602060405180830381600087803b1580156120e157600080fd5b505af11580156120f5573d6000803e3d6000fd5b505050506040513d601f19601f8201168201806040525081019061211991906137b2565b506000603960008d73ffffffffffffffffffffffffffffffffffffffff1673ffffffffffffffffffffffffffffffffffffffff168152602001908152602001600020905061221e603c60009054906101000a900473ffffffffffffffffffffffffffffffffffffffff1673ffffffffffffffffffffffffffffffffffffffff1663df6395ce866040518263ffffffff1660e01b81526004016121bb9190614034565b60206040518083038186803b1580156121d357600080fd5b505afa1580156121e7573d6000803e3d6000fd5b505050506040513d601f19601f8201168201806040525081019061220b91906137b2565b8260010154612ea790919063ffffffff16565b81600101819055506122e5603c60009054906101000a900473ffffffffffffffffffffffffffffffffffffffff1673ffffffffffffffffffffffffffffffffffffffff1663df6395ce856040518263ffffffff1660e01b81526004016122849190614034565b60206040518083038186803b15801561229c57600080fd5b505afa1580156122b0573d6000803e3d6000fd5b505050506040513d601f19601f820116820180604052508101906122d491906137b2565b603554612ea790919063ffffffff16565b6035819055506123bb603c60009054906101000a900473ffffffffffffffffffffffffffffffffffffffff1673ffffffffffffffffffffffffffffffffffffffff1663df6395ce846040518263ffffffff1660e01b81526004016123499190614034565b60206040518083038186803b15801561236157600080fd5b505afa158015612375573d6000803e3d6000fd5b505050506040513d601f19601f8201168201806040525081019061239991906137b2565b603760008a815260200190815260200160002054612ea790919063ffffffff16565b60376000898152602001908152602001600020819055506123e9848260000154612ea790919063ffffffff16565b81600001819055507f616abbd513b18b60056744ecd017468fb834453acb83d0d62a0af56625cfb472878d83600001548460010154603554603760008e8152602001908152602001600020548b6040516124499796959493929190614078565b60405180910390a18b73ffffffffffffffffffffffffffffffffffffffff166340c10f1989886040518363ffffffff1660e01b815260040161248c929190613e09565b600060405180830381600087803b1580156124a657600080fd5b505af11580156124ba573d6000803e3d6000fd5b50505050505050505050505050505050565b3373ffffffffffffffffffffffffffffffffffffffff166038600083815260200190815260200160002060009054906101000a900473ffffffffffffffffffffffffffffffffffffffff1673ffffffffffffffffffffffffffffffffffffffff161461256d576040517f08c379a000000000000000000000000000000000000000000000000000000000815260040161256490613f74565b60405180910390fd5b603c60009054906101000a900473ffffffffffffffffffffffffffffffffffffffff1673ffffffffffffffffffffffffffffffffffffffff1663a6afed956040518163ffffffff1660e01b8152600401600060405180830381600087803b1580156125d757600080fd5b505af11580156125eb573d6000803e3d6000fd5b5050505060006125fa8261032d565b9050600081141561260b575061270d565b60006037600084815260200190815260200160002081905550603c60009054906101000a900473ffffffffffffffffffffffffffffffffffffffff1673ffffffffffffffffffffffffffffffffffffffff16631e9a695033836040518363ffffffff1660e01b8152600401612681929190613db7565b602060405180830381600087803b15801561269b57600080fd5b505af11580156126af573d6000803e3d6000fd5b505050506040513d601f19601f820116820180604052508101906126d391906137b2565b507f5671fc4203c90fcb206d4b0d7c087723f815b7aa32eacb8c069e19f89a423b5b826040516127039190614034565b60405180910390a1505b50565b3373ffffffffffffffffffffffffffffffffffffffff16603360009054906101000a900473ffffffffffffffffffffffffffffffffffffffff1673ffffffffffffffffffffffffffffffffffffffff16146127a0576040517f08c379a000000000000000000000000000000000000000000000000000000000815260040161279790613e94565b60405180910390fd5b600073ffffffffffffffffffffffffffffffffffffffff16603b60009054906101000a900473ffffffffffffffffffffffffffffffffffffffff1673ffffffffffffffffffffffffffffffffffffffff16146127fb57600080fd5b80603b60006101000a81548173ffffffffffffffffffffffffffffffffffffffff021916908373ffffffffffffffffffffffffffffffffffffffff16021790555050565b6000603360009054906101000a900473ffffffffffffffffffffffffffffffffffffffff16905081603360006101000a81548173ffffffffffffffffffffffffffffffffffffffff021916908373ffffffffffffffffffffffffffffffffffffffff1602179055507f0384899bd253d83b23daa4d29aaa2efe0563d1132b43101e9ad667235aeb951b81836040516128d8929190613de0565b60405180910390a15050565b6000803090506000813b9050600081149250505090565b60008060008061290961326c565b603b60009054906101000a900473ffffffffffffffffffffffffffffffffffffffff1673ffffffffffffffffffffffffffffffffffffffff16633911283a886040518263ffffffff1660e01b81526004016129649190613d21565b60606040518083038186803b15801561297c57600080fd5b505afa158015612990573d6000803e3d6000fd5b505050506040513d601f19601f820116820180604052508101906129b4919061371f565b90506129be61328f565b603b60009054906101000a900473ffffffffffffffffffffffffffffffffffffffff1673ffffffffffffffffffffffffffffffffffffffff1663c7d5fe5583602001516040518263ffffffff1660e01b8152600401612a1d9190614034565b60006040518083038186803b158015612a3557600080fd5b505afa158015612a49573d6000803e3d6000fd5b505050506040513d6000823e3d601f19601f82011682018060405250810190612a729190613748565b90506000612b078260a001518360c001518b73ffffffffffffffffffffffffffffffffffffffff166318160ddd6040518163ffffffff1660e01b815260040160206040518083038186803b158015612ac957600080fd5b505afa158015612add573d6000803e3d6000fd5b505050506040513d601f19601f82011682018060405250810190612b0191906137b2565b8b612efc565b90506000612b36612710612b288560e0015185612ff990919063ffffffff16565b61306990919063ffffffff16565b90506000612b66612710612b5886610100015186612ff990919063ffffffff16565b61306990919063ffffffff16565b90506000612b8f82612b818587612ea790919063ffffffff16565b612ea790919063ffffffff16565b905080848484995099509950995050505050505092959194509250565b6000612bee83836040518060400160405280601e81526020017f536166654d6174683a207375627472616374696f6e206f766572666c6f7700008152506130b3565b905092915050565b600080600080612c0461326c565b603b60009054906101000a900473ffffffffffffffffffffffffffffffffffffffff1673ffffffffffffffffffffffffffffffffffffffff16633911283a886040518263ffffffff1660e01b8152600401612c5f9190613d21565b60606040518083038186803b158015612c7757600080fd5b505afa158015612c8b573d6000803e3d6000fd5b505050506040513d601f19601f82011682018060405250810190612caf919061371f565b9050612cb961328f565b603b60009054906101000a900473ffffffffffffffffffffffffffffffffffffffff1673ffffffffffffffffffffffffffffffffffffffff1663c7d5fe5583602001516040518263ffffffff1660e01b8152600401612d189190614034565b60006040518083038186803b158015612d3057600080fd5b505afa158015612d44573d6000803e3d6000fd5b505050506040513d6000823e3d601f19601f82011682018060405250810190612d6d9190613748565b90506000612e028260a001518360c001518b73ffffffffffffffffffffffffffffffffffffffff166318160ddd6040518163ffffffff1660e01b815260040160206040518083038186803b158015612dc457600080fd5b505afa158015612dd8573d6000803e3d6000fd5b505050506040513d601f19601f82011682018060405250810190612dfc91906137b2565b8b61310e565b90506000612e31612710612e238560e0015185612ff990919063ffffffff16565b61306990919063ffffffff16565b90506000612e61612710612e5386610100015186612ff990919063ffffffff16565b61306990919063ffffffff16565b90506000612e8a82612e7c8587612bac90919063ffffffff16565b612bac90919063ffffffff16565b905080848484995099509950995050505050505092959194509250565b600080828401905083811015612ef2576040517f08c379a0000000000000000000000000000000000000000000000000000000008152600401612ee990613eb4565b60405180910390fd5b8091505092915050565b600080612f3e612f2f670de0b6b3a7640000612f218789612ff990919063ffffffff16565b61306990919063ffffffff16565b87612ea790919063ffffffff16565b90506000612f93612f84670de0b6b3a7640000612f76612f67888a612ea790919063ffffffff16565b8a612ff990919063ffffffff16565b61306990919063ffffffff16565b88612ea790919063ffffffff16565b90506000612fbd6002612faf8486612ea790919063ffffffff16565b61306990919063ffffffff16565b9050612fec670de0b6b3a7640000612fde8784612ff990919063ffffffff16565b61306990919063ffffffff16565b9350505050949350505050565b60008083141561300c5760009050613063565b600082840290508284828161301d57fe5b041461305e576040517f08c379a000000000000000000000000000000000000000000000000000000000815260040161305590613f14565b60405180910390fd5b809150505b92915050565b60006130ab83836040518060400160405280601a81526020017f536166654d6174683a206469766973696f6e206279207a65726f00000000000081525061320b565b905092915050565b60008383111582906130fb576040517f08c379a00000000000000000000000000000000000000000000000000000000081526004016130f29190613e32565b60405180910390fd5b5060008385039050809150509392505050565b600080613150613141670de0b6b3a76400006131338789612ff990919063ffffffff16565b61306990919063ffffffff16565b87612ea790919063ffffffff16565b905060006131a5613196670de0b6b3a7640000613188613179888a612bac90919063ffffffff16565b8a612ff990919063ffffffff16565b61306990919063ffffffff16565b88612ea790919063ffffffff16565b905060006131cf60026131c18486612ea790919063ffffffff16565b61306990919063ffffffff16565b90506131fe670de0b6b3a76400006131f08784612ff990919063ffffffff16565b61306990919063ffffffff16565b9350505050949350505050565b60008083118290613252576040517f08c379a00000000000000000000000000000000000000000000000000000000081526004016132499190613e32565b60405180910390fd5b50600083858161325e57fe5b049050809150509392505050565b604051806060016040528060001515815260200160008152602001600081525090565b6040518061012001604052806000151581526020016000815260200160608152602001600073ffffffffffffffffffffffffffffffffffffffff16815260200160008152602001600081526020016000815260200160008152602001600081525090565b60008135905061330281614230565b92915050565b60008151905061331781614247565b92915050565b60008151905061332c8161425e565b92915050565b600082601f83011261334357600080fd5b815161335661335182614114565b6140e7565b9150808252602083016020830185838301111561337257600080fd5b61337d8382846141ec565b50505092915050565b60006060828403121561339857600080fd5b6133a260606140e7565b905060006133b284828501613308565b60008301525060206133c6848285016134ef565b60208301525060406133da848285016134ef565b60408301525092915050565b600061012082840312156133f957600080fd5b6134046101206140e7565b9050600061341484828501613308565b6000830152506020613428848285016134ef565b602083015250604082015167ffffffffffffffff81111561344857600080fd5b61345484828501613332565b60408301525060606134688482850161331d565b606083015250608061347c848285016134ef565b60808301525060a0613490848285016134ef565b60a08301525060c06134a4848285016134ef565b60c08301525060e06134b8848285016134ef565b60e0830152506101006134cd848285016134ef565b6101008301525092915050565b6000813590506134e981614275565b92915050565b6000815190506134fe81614275565b92915050565b60006020828403121561351657600080fd5b6000613524848285016132f3565b91505092915050565b6000806040838503121561354057600080fd5b600061354e858286016132f3565b925050602061355f858286016132f3565b9150509250929050565b600080600080600060a0868803121561358157600080fd5b600061358f888289016132f3565b95505060206135a0888289016132f3565b94505060406135b1888289016132f3565b93505060606135c2888289016132f3565b92505060806135d3888289016132f3565b9150509295509295909350565b600080604083850312156135f357600080fd5b6000613601858286016132f3565b9250506020613612858286016134da565b9150509250929050565b6000806000806080858703121561363257600080fd5b6000613640878288016132f3565b9450506020613651878288016134da565b9350506040613662878288016134da565b9250506060613673878288016132f3565b91505092959194509250565b600080600080600060a0868803121561369757600080fd5b60006136a5888289016132f3565b95505060206136b6888289016134da565b94505060406136c7888289016134da565b93505060606136d8888289016134da565b92505060806136e9888289016132f3565b9150509295509295909350565b60006020828403121561370857600080fd5b600061371684828501613308565b91505092915050565b60006060828403121561373157600080fd5b600061373f84828501613386565b91505092915050565b60006020828403121561375a57600080fd5b600082015167ffffffffffffffff81111561377457600080fd5b613780848285016133e6565b91505092915050565b60006020828403121561379b57600080fd5b60006137a9848285016134da565b91505092915050565b6000602082840312156137c457600080fd5b60006137d2848285016134ef565b91505092915050565b600080604083850312156137ee57600080fd5b60006137fc858286016134da565b925050602061380d858286016132f3565b9150509250929050565b613820816141b6565b82525050565b61382f8161415c565b82525050565b600061384082614140565b61384a818561414b565b935061385a8185602086016141ec565b6138638161421f565b840191505092915050565b600061387b60208361414b565b91507f7769746864726177496e7465726573743a206e6f7420617574686f72697a65646000830152602082019050919050565b60006138bb601c8361414b565b91507f627579546f6b656e733a20736c69707061676520746f6f2068696768000000006000830152602082019050919050565b60006138fb60128361414b565b91507f4f776e61626c653a206f6e6c794f776e657200000000000000000000000000006000830152602082019050919050565b600061393b601b8361414b565b91507f536166654d6174683a206164646974696f6e206f766572666c6f7700000000006000830152602082019050919050565b600061397b60208361414b565b91507f73656c6c546f6b656e733a20746f6b656e20646f6573206e6f742065786973746000830152602082019050919050565b60006139bb602e8361414b565b91507f617574686f72697a65506c6174666f726d466565576974686472617765723a2060008301527f6e6f7420617574686f72697a65640000000000000000000000000000000000006020830152604082019050919050565b6000613a2160218361414b565b91507f536166654d6174683a206d756c7469706c69636174696f6e206f766572666c6f60008301527f77000000000000000000000000000000000000000000000000000000000000006020830152604082019050919050565b6000613a87602b8361414b565b91507f617574686f72697a65496e746572657374576974686472617765723a206e6f7460008301527f20617574686f72697a65640000000000000000000000000000000000000000006020830152604082019050919050565b6000613aed602e8361414b565b91507f436f6e747261637420696e7374616e63652068617320616c726561647920626560008301527f656e20696e697469616c697a65640000000000000000000000000000000000006020830152604082019050919050565b6000613b5360238361414b565b91507f7769746864726177506c6174666f726d4665653a206e6f7420617574686f726960008301527f7a656400000000000000000000000000000000000000000000000000000000006020830152604082019050919050565b6000613bb9601f8361414b565b91507f627579546f6b656e733a206e6f7420656e6f75676820616c6c6f77616e6365006000830152602082019050919050565b6000613bf9601d8361414b565b91507f73656c6c546f6b656e733a206e6f7420656e6f75676820746f6b656e730000006000830152602082019050919050565b6000613c39601e8361414b565b91507f627579546f6b656e733a20646169207472616e73666572206661696c656400006000830152602082019050919050565b6000613c7960248361414b565b91507f73656c6c546f6b656e733a207072696365207375626365656473206d696e207060008301527f72696365000000000000000000000000000000000000000000000000000000006020830152604082019050919050565b6000613cdf601f8361414b565b91507f627579546f6b656e733a20746f6b656e20646f6573206e6f74206578697374006000830152602082019050919050565b613d1b816141ac565b82525050565b6000602082019050613d366000830184613826565b92915050565b6000602082019050613d516000830184613817565b92915050565b6000604082019050613d6c6000830185613817565b613d796020830184613826565b9392505050565b6000606082019050613d956000830186613817565b613da26020830185613826565b613daf6040830184613d12565b949350505050565b6000604082019050613dcc6000830185613817565b613dd96020830184613d12565b9392505050565b6000604082019050613df56000830185613826565b613e026020830184613826565b9392505050565b6000604082019050613e1e6000830185613826565b613e2b6020830184613d12565b9392505050565b60006020820190508181036000830152613e4c8184613835565b905092915050565b60006020820190508181036000830152613e6d8161386e565b9050919050565b60006020820190508181036000830152613e8d816138ae565b9050919050565b60006020820190508181036000830152613ead816138ee565b9050919050565b60006020820190508181036000830152613ecd8161392e565b9050919050565b60006020820190508181036000830152613eed8161396e565b9050919050565b60006020820190508181036000830152613f0d816139ae565b9050919050565b60006020820190508181036000830152613f2d81613a14565b9050919050565b60006020820190508181036000830152613f4d81613a7a565b9050919050565b60006020820190508181036000830152613f6d81613ae0565b9050919050565b60006020820190508181036000830152613f8d81613b46565b9050919050565b60006020820190508181036000830152613fad81613bac565b9050919050565b60006020820190508181036000830152613fcd81613bec565b9050919050565b60006020820190508181036000830152613fed81613c2c565b9050919050565b6000602082019050818103600083015261400d81613c6c565b9050919050565b6000602082019050818103600083015261402d81613cd2565b9050919050565b60006020820190506140496000830184613d12565b92915050565b60006040820190506140646000830185613d12565b6140716020830184613826565b9392505050565b600060e08201905061408d600083018a613d12565b61409a6020830189613826565b6140a76040830188613d12565b6140b46060830187613d12565b6140c16080830186613d12565b6140ce60a0830185613d12565b6140db60c0830184613d12565b98975050505050505050565b6000604051905081810181811067ffffffffffffffff8211171561410a57600080fd5b8060405250919050565b600067ffffffffffffffff82111561412b57600080fd5b601f19601f8301169050602081019050919050565b600081519050919050565b600082825260208201905092915050565b60006141678261418c565b9050919050565b60008115159050919050565b60006141858261415c565b9050919050565b600073ffffffffffffffffffffffffffffffffffffffff82169050919050565b6000819050919050565b60006141c1826141c8565b9050919050565b60006141d3826141da565b9050919050565b60006141e58261418c565b9050919050565b60005b8381101561420a5780820151818401526020810190506141ef565b83811115614219576000848401525b50505050565b6000601f19601f8301169050919050565b6142398161415c565b811461424457600080fd5b50565b6142508161416e565b811461425b57600080fd5b50565b6142678161417a565b811461427257600080fd5b50565b61427e816141ac565b811461428957600080fd5b5056fea26469706673582212203f7822a540ce2d6a20714a6e1d286633549b1c403b8baaed0d96171bb7a21a2264736f6c63430006090033",
  "linkReferences": {},
  "deployedLinkReferences": {}
}