{
  "_format": "hh-sol-artifact-1",
  "contractName": "SetTimelockAdminSpell",
  "sourceName": "contracts/spells/SetTimelockAdminSpell.sol",
  "abi": [
    {
      "inputs": [
        {
          "internalType": "address",
          "name": "dsPause",
          "type": "address"
        },
        {
          "internalType": "address",
          "name": "owner",
          "type": "address"
        }
      ],
      "name": "execute",
      "outputs": [],
      "stateMutability": "nonpayable",
      "type": "function"
    }
  ],
  "bytecode": "0x608060405234801561001057600080fd5b50610165806100206000396000f3fe608060405234801561001057600080fd5b506004361061002b5760003560e01c8063d80aea1514610030575b600080fd5b6100926004803603604081101561004657600080fd5b81019080803573ffffffffffffffffffffffffffffffffffffffff169060200190929190803573ffffffffffffffffffffffffffffffffffffffff169060200190929190505050610094565b005b8173ffffffffffffffffffffffffffffffffffffffff166313af4035826040518263ffffffff1660e01b8152600401808273ffffffffffffffffffffffffffffffffffffffff1673ffffffffffffffffffffffffffffffffffffffff168152602001915050600060405180830381600087803b15801561011357600080fd5b505af1158015610127573d6000803e3d6000fd5b50505050505056fea2646970667358221220361574664cde2fab8691101aeee2dae35dcf83c0285932c9b7d97027038f198164736f6c63430006090033",
  "linkReferences": {},
  "deployedLinkReferences": {}
}