{
  "contractName": "AddMarketSpell",
  "abi": [
    {
      "inputs": [
        {
          "internalType": "address",
          "name": "factory",
          "type": "address"
        },
        {
          "internalType": "string",
          "name": "marketName",
          "type": "string"
        },
        {
          "internalType": "address",
          "name": "nameVerifier",
          "type": "address"
        },
        {
          "internalType": "uint256",
          "name": "baseCost",
          "type": "uint256"
        },
        {
          "internalType": "uint256",
          "name": "priceRise",
          "type": "uint256"
        },
        {
          "internalType": "uint256",
          "name": "tokensPerInterval",
          "type": "uint256"
        },
        {
          "internalType": "uint256",
          "name": "tradingFeeRate",
          "type": "uint256"
        },
        {
          "internalType": "uint256",
          "name": "platformFeeRate",
          "type": "uint256"
        }
      ],
      "name": "execute",
      "outputs": [],
      "stateMutability": "nonpayable",
      "type": "function"
    }
  ],
  "bytecode": "0x608060405234801561001057600080fd5b50610250806100206000396000f3fe608060405234801561001057600080fd5b506004361061002b5760003560e01c8063c565d94714610030575b600080fd5b61011a600480360361010081101561004757600080fd5b81019080803573ffffffffffffffffffffffffffffffffffffffff1690602001909291908035906020019064010000000081111561008457600080fd5b82018360208201111561009657600080fd5b803590602001918460018302840111640100000000831117156100b857600080fd5b9091929391929390803573ffffffffffffffffffffffffffffffffffffffff169060200190929190803590602001909291908035906020019092919080359060200190929190803590602001909291908035906020019092919050505061011c565b005b8873ffffffffffffffffffffffffffffffffffffffff16636de84a9e89898989898989896040518963ffffffff1660e01b815260040180806020018873ffffffffffffffffffffffffffffffffffffffff1673ffffffffffffffffffffffffffffffffffffffff16815260200187815260200186815260200185815260200184815260200183815260200182810382528a8a82818152602001925080828437600081840152601f19601f8201169050808301925050509950505050505050505050600060405180830381600087803b1580156101f757600080fd5b505af115801561020b573d6000803e3d6000fd5b5050505050505050505050505056fea2646970667358221220888219cd495f143bccb5a46fdfde2792dc68e2d9452e684f650999a6ddc6985364736f6c63430006090033",
  "immutableReferences": {},
  "source": "// SPDX-License-Identifier: MIT\r\npragma solidity ^0.6.9;\r\n\r\nimport \"../core/IIdeaTokenFactory.sol\";\r\n\r\n/**\r\n * @title AddMarketSpell\r\n * @author Alexander Schlindwein\r\n *\r\n * @dev Spell to add a market\r\n */\r\ncontract AddMarketSpell {\r\n\r\n    /**\r\n     * @dev Adds a market to the factory\r\n     *\r\n     * @param factory The address of the IdeaTokenFactory\r\n     * @param marketName The name of the market\r\n     * @param nameVerifier The address of the name verifier\r\n     * @param baseCost The base cost\r\n     * @param priceRise The price rise\r\n     * @param tokensPerInterval The tokens per interval\r\n     * @param tradingFeeRate The trading fee\r\n     * @param platformFeeRate The platform fee\r\n     */\r\n    function execute(address factory, string calldata marketName, address nameVerifier,\r\n                     uint baseCost, uint priceRise, uint tokensPerInterval,\r\n                     uint tradingFeeRate, uint platformFeeRate) external {\r\n\r\n        IIdeaTokenFactory(factory).addMarket(marketName, nameVerifier,\r\n                                              baseCost, priceRise, tokensPerInterval,\r\n                                              tradingFeeRate, platformFeeRate);\r\n    }\r\n}",
  "sourcePath": "C:/Users/alexa/Desktop/ideamarket-contracts/contracts/spells/AddMarketSpell.sol",
  "compiler": {
    "name": "solc",
    "version": "0.6.9+commit.3e3065ac.Emscripten.clang"
  },
  "schemaVersion": "3.2.3",
  "updatedAt": "2020-10-16T11:45:42.149Z",
  "networkType": "ethereum",
  "devdoc": {
    "author": "Alexander Schlindwein",
    "details": "Spell to add a market",
    "methods": {
      "execute(address,string,address,uint256,uint256,uint256,uint256,uint256)": {
        "details": "Adds a market to the factory",
        "params": {
          "baseCost": "The base cost",
          "factory": "The address of the IdeaTokenFactory",
          "marketName": "The name of the market",
          "nameVerifier": "The address of the name verifier",
          "platformFeeRate": "The platform fee",
          "priceRise": "The price rise",
          "tokensPerInterval": "The tokens per interval",
          "tradingFeeRate": "The trading fee"
        }
      }
    },
    "title": "AddMarketSpell"
  },
  "userdoc": {
    "methods": {}
  }
}