{
  "contractName": "AddMarketSpell",
  "abi": [
    {
      "inputs": [
        {
          "internalType": "address",
          "name": "factory",
          "type": "address"
        },
        {
          "internalType": "string",
          "name": "marketName",
          "type": "string"
        },
        {
          "internalType": "address",
          "name": "nameVerifier",
          "type": "address"
        },
        {
          "internalType": "uint256",
          "name": "baseCost",
          "type": "uint256"
        },
        {
          "internalType": "uint256",
          "name": "priceRise",
          "type": "uint256"
        },
        {
          "internalType": "uint256",
          "name": "tradingFeeRate",
          "type": "uint256"
        },
        {
          "internalType": "uint256",
          "name": "platformFeeRate",
          "type": "uint256"
        }
      ],
      "name": "execute",
      "outputs": [],
      "stateMutability": "nonpayable",
      "type": "function"
    }
  ],
  "bytecode": "0x608060405234801561001057600080fd5b5061023c806100206000396000f3fe608060405234801561001057600080fd5b506004361061002b5760003560e01c8063d7ed25d614610030575b600080fd5b61010f600480360360e081101561004657600080fd5b81019080803573ffffffffffffffffffffffffffffffffffffffff1690602001909291908035906020019064010000000081111561008357600080fd5b82018360208201111561009557600080fd5b803590602001918460018302840111640100000000831117156100b757600080fd5b9091929391929390803573ffffffffffffffffffffffffffffffffffffffff16906020019092919080359060200190929190803590602001909291908035906020019092919080359060200190929190505050610111565b005b8773ffffffffffffffffffffffffffffffffffffffff16638a768a9b888888888888886040518863ffffffff1660e01b815260040180806020018773ffffffffffffffffffffffffffffffffffffffff1673ffffffffffffffffffffffffffffffffffffffff1681526020018681526020018581526020018481526020018381526020018281038252898982818152602001925080828437600081840152601f19601f82011690508083019250505098505050505050505050600060405180830381600087803b1580156101e457600080fd5b505af11580156101f8573d6000803e3d6000fd5b50505050505050505050505056fea26469706673582212208ce3c70e48c33c96fe6d1635d6b1c7832358238f02bf95d5f37108bb78231e4e64736f6c63430006090033",
  "immutableReferences": {},
  "source": "// SPDX-License-Identifier: MIT\r\npragma solidity ^0.6.9;\r\n\r\nimport \"../core/IIdeaTokenFactory.sol\";\r\n\r\n/**\r\n * @title AddMarketSpell\r\n * @author Alexander Schlindwein\r\n *\r\n * @dev Spell to add a market\r\n */\r\ncontract AddMarketSpell {\r\n\r\n    /**\r\n     * @dev Adds a market to the factory\r\n     *\r\n     * @param factory The address of the IdeaTokenFactory\r\n     * @param marketName The name of the market\r\n     * @param nameVerifier The address of the name verifier\r\n     * @param baseCost The base cost\r\n     * @param priceRise The price rise\r\n     * @param tradingFeeRate The trading fee\r\n     * @param platformFeeRate The platform fee\r\n     */\r\n    function execute(address factory, string calldata marketName, address nameVerifier,\r\n                     uint baseCost, uint priceRise,\r\n                     uint tradingFeeRate, uint platformFeeRate) external {\r\n\r\n        IIdeaTokenFactory(factory).addMarket(marketName, nameVerifier,\r\n                                              baseCost, priceRise,\r\n                                              tradingFeeRate, platformFeeRate);\r\n    }\r\n}",
  "sourcePath": "C:/Users/Alexander/Desktop/ideamarket-contracts/contracts/spells/AddMarketSpell.sol",
  "compiler": {
    "name": "solc",
    "version": "0.6.9+commit.3e3065ac.Emscripten.clang"
  },
  "schemaVersion": "3.3.0",
  "updatedAt": "2020-10-18T10:34:42.971Z",
  "devdoc": {
    "author": "Alexander Schlindwein",
    "details": "Spell to add a market",
    "methods": {
      "execute(address,string,address,uint256,uint256,uint256,uint256)": {
        "details": "Adds a market to the factory",
        "params": {
          "baseCost": "The base cost",
          "factory": "The address of the IdeaTokenFactory",
          "marketName": "The name of the market",
          "nameVerifier": "The address of the name verifier",
          "platformFeeRate": "The platform fee",
          "priceRise": "The price rise",
          "tradingFeeRate": "The trading fee"
        }
      }
    },
    "title": "AddMarketSpell"
  },
  "userdoc": {
    "methods": {}
  }
}