{
  "contractName": "AuthorizePlatformFeeWithdrawerSpell",
  "abi": [
    {
      "inputs": [
        {
          "internalType": "address",
          "name": "exchange",
          "type": "address"
        },
        {
          "internalType": "uint256",
          "name": "marketID",
          "type": "uint256"
        },
        {
          "internalType": "address",
          "name": "withdrawer",
          "type": "address"
        }
      ],
      "name": "execute",
      "outputs": [],
      "stateMutability": "nonpayable",
      "type": "function"
    }
  ],
  "bytecode": "0x608060405234801561001057600080fd5b50610178806100206000396000f3fe608060405234801561001057600080fd5b506004361061002b5760003560e01c8063e0af5f6a14610030575b600080fd5b61009c6004803603606081101561004657600080fd5b81019080803573ffffffffffffffffffffffffffffffffffffffff16906020019092919080359060200190929190803573ffffffffffffffffffffffffffffffffffffffff16906020019092919050505061009e565b005b8273ffffffffffffffffffffffffffffffffffffffff1663130362b383836040518363ffffffff1660e01b8152600401808381526020018273ffffffffffffffffffffffffffffffffffffffff1673ffffffffffffffffffffffffffffffffffffffff16815260200192505050600060405180830381600087803b15801561012557600080fd5b505af1158015610139573d6000803e3d6000fd5b5050505050505056fea2646970667358221220a4d049246c6d72cf4427b5711e07449256a3c3b2051acd3b8aec81b9303b2bce64736f6c63430006090033",
  "immutableReferences": {},
  "source": "// SPDX-License-Identifier: MIT\r\npragma solidity ^0.6.9;\r\n\r\nimport \"../core/IIdeaTokenExchange.sol\";\r\n\r\ncontract AuthorizePlatformFeeWithdrawerSpell {\r\n    function execute(address exchange, uint marketID, address withdrawer) external {\r\n        IIdeaTokenExchange(exchange).authorizePlatformFeeWithdrawer(marketID, withdrawer);\r\n    }\r\n}",
  "sourcePath": "C:/Users/alexa/Desktop/ideamarket-contracts/contracts/spells/AuthorizePlatformFeeWithdrawerSpell.sol",
  "compiler": {
    "name": "solc",
    "version": "0.6.9+commit.3e3065ac.Emscripten.clang"
  },
  "schemaVersion": "3.2.3",
  "updatedAt": "2020-10-13T10:03:13.853Z",
  "devdoc": {
    "methods": {}
  },
  "userdoc": {
    "methods": {}
  }
}