{
  "contractName": "AuthorizeInterestWithdrawerSpell",
  "abi": [
    {
      "inputs": [
        {
          "internalType": "address",
          "name": "exchange",
          "type": "address"
        },
        {
          "internalType": "address",
          "name": "ideaToken",
          "type": "address"
        },
        {
          "internalType": "address",
          "name": "withdrawer",
          "type": "address"
        }
      ],
      "name": "execute",
      "outputs": [],
      "stateMutability": "nonpayable",
      "type": "function"
    }
  ],
  "bytecode": "0x608060405234801561001057600080fd5b506101ba806100206000396000f3fe608060405234801561001057600080fd5b506004361061002b5760003560e01c8063e65add9514610030575b600080fd5b6100b26004803603606081101561004657600080fd5b81019080803573ffffffffffffffffffffffffffffffffffffffff169060200190929190803573ffffffffffffffffffffffffffffffffffffffff169060200190929190803573ffffffffffffffffffffffffffffffffffffffff1690602001909291905050506100b4565b005b8273ffffffffffffffffffffffffffffffffffffffff1663159fc8f883836040518363ffffffff1660e01b8152600401808373ffffffffffffffffffffffffffffffffffffffff1673ffffffffffffffffffffffffffffffffffffffff1681526020018273ffffffffffffffffffffffffffffffffffffffff1673ffffffffffffffffffffffffffffffffffffffff16815260200192505050600060405180830381600087803b15801561016757600080fd5b505af115801561017b573d6000803e3d6000fd5b5050505050505056fea264697066735822122090263f4e2156c1cc4df99191d2a52f9e47a03dfaee55235410d4b78a6272b48264736f6c63430006090033",
  "immutableReferences": {},
  "source": "// SPDX-License-Identifier: MIT\r\npragma solidity ^0.6.9;\r\n\r\nimport \"../core/IIdeaTokenExchange.sol\";\r\n\r\n/**\r\n * @title AuthorizeInterestWithdrawerSpell\r\n * @author Alexander Schlindwein\r\n *\r\n * @dev Spell to authorize an interest withdrawer\r\n */\r\ncontract AuthorizeInterestWithdrawerSpell {\r\n\r\n    /**\r\n     * @dev Authorizes an address to withdraw interest for an IdeaToken\r\n     *\r\n     * @param exchange The address of the IdeaTokenExchange\r\n     * @param ideaToken The address of the IdeaToken for which to authorize an interest withdrawer\r\n     * @param withdrawer The address of the withdrawer\r\n     */\r\n    function execute(address exchange, address ideaToken, address withdrawer) external {\r\n        IIdeaTokenExchange(exchange).authorizeInterestWithdrawer(ideaToken, withdrawer);\r\n    }\r\n}",
  "sourcePath": "C:/Users/Alexander/Desktop/ideamarket-contracts/contracts/spells/AuthorizeInterestWithdrawerSpell.sol",
  "compiler": {
    "name": "solc",
    "version": "0.6.9+commit.3e3065ac.Emscripten.clang"
  },
  "schemaVersion": "3.3.0",
  "updatedAt": "2020-10-18T10:34:42.976Z",
  "devdoc": {
    "author": "Alexander Schlindwein",
    "details": "Spell to authorize an interest withdrawer",
    "methods": {
      "execute(address,address,address)": {
        "details": "Authorizes an address to withdraw interest for an IdeaToken",
        "params": {
          "exchange": "The address of the IdeaTokenExchange",
          "ideaToken": "The address of the IdeaToken for which to authorize an interest withdrawer",
          "withdrawer": "The address of the withdrawer"
        }
      }
    },
    "title": "AuthorizeInterestWithdrawerSpell"
  },
  "userdoc": {
    "methods": {}
  }
}