{
  "contractName": "CurrencyConverter",
  "abi": [
    {
      "inputs": [
        {
          "internalType": "address",
          "name": "ideaTokenExchange",
          "type": "address"
        },
        {
          "internalType": "address",
          "name": "dai",
          "type": "address"
        },
        {
          "internalType": "address",
          "name": "uniswapV2Router02",
          "type": "address"
        },
        {
          "internalType": "address",
          "name": "weth",
          "type": "address"
        }
      ],
      "stateMutability": "nonpayable",
      "type": "constructor"
    },
    {
      "inputs": [],
      "name": "_dai",
      "outputs": [
        {
          "internalType": "contract IERC20",
          "name": "",
          "type": "address"
        }
      ],
      "stateMutability": "view",
      "type": "function",
      "constant": true
    },
    {
      "inputs": [],
      "name": "_uniswapV2Router02",
      "outputs": [
        {
          "internalType": "contract IUniswapV2Router02",
          "name": "",
          "type": "address"
        }
      ],
      "stateMutability": "view",
      "type": "function",
      "constant": true
    },
    {
      "inputs": [],
      "name": "_weth",
      "outputs": [
        {
          "internalType": "contract IWETH",
          "name": "",
          "type": "address"
        }
      ],
      "stateMutability": "view",
      "type": "function",
      "constant": true
    },
    {
      "stateMutability": "payable",
      "type": "receive",
      "payable": true
    },
    {
      "inputs": [
        {
          "internalType": "address",
          "name": "inputCurrency",
          "type": "address"
        },
        {
          "internalType": "address",
          "name": "ideaToken",
          "type": "address"
        },
        {
          "internalType": "uint256",
          "name": "amount",
          "type": "uint256"
        },
        {
          "internalType": "uint256",
          "name": "maxCost",
          "type": "uint256"
        },
        {
          "internalType": "address",
          "name": "recipient",
          "type": "address"
        }
      ],
      "name": "buyTokens",
      "outputs": [],
      "stateMutability": "payable",
      "type": "function",
      "payable": true
    },
    {
      "inputs": [
        {
          "internalType": "address",
          "name": "outputCurrency",
          "type": "address"
        },
        {
          "internalType": "address",
          "name": "ideaToken",
          "type": "address"
        },
        {
          "internalType": "uint256",
          "name": "amount",
          "type": "uint256"
        },
        {
          "internalType": "uint256",
          "name": "minPrice",
          "type": "uint256"
        },
        {
          "internalType": "address",
          "name": "recipient",
          "type": "address"
        }
      ],
      "name": "sellTokens",
      "outputs": [],
      "stateMutability": "nonpayable",
      "type": "function"
    }
  ],
  "bytecode": "0x608060405234801561001057600080fd5b506040516123e73803806123e78339818101604052608081101561003357600080fd5b8101908080519060200190929190805190602001909291908051906020019092919080519060200190929190505050836000806101000a81548173ffffffffffffffffffffffffffffffffffffffff021916908373ffffffffffffffffffffffffffffffffffffffff16021790555082600160006101000a81548173ffffffffffffffffffffffffffffffffffffffff021916908373ffffffffffffffffffffffffffffffffffffffff16021790555081600260006101000a81548173ffffffffffffffffffffffffffffffffffffffff021916908373ffffffffffffffffffffffffffffffffffffffff16021790555080600360006101000a81548173ffffffffffffffffffffffffffffffffffffffff021916908373ffffffffffffffffffffffffffffffffffffffff1602179055505050505061226f806101786000396000f3fe60806040526004361061004e5760003560e01c80630c035d5f146100b45780633f430f831461014c57806377f78ad3146101a3578063a1764595146101fa578063dbc93ba014610251576100af565b366100af57600360009054906101000a900473ffffffffffffffffffffffffffffffffffffffff1673ffffffffffffffffffffffffffffffffffffffff163373ffffffffffffffffffffffffffffffffffffffff16146100ad57600080fd5b005b600080fd5b61014a600480360360a08110156100ca57600080fd5b81019080803573ffffffffffffffffffffffffffffffffffffffff169060200190929190803573ffffffffffffffffffffffffffffffffffffffff1690602001909291908035906020019092919080359060200190929190803573ffffffffffffffffffffffffffffffffffffffff1690602001909291905050506102f6565b005b34801561015857600080fd5b5061016161128e565b604051808273ffffffffffffffffffffffffffffffffffffffff1673ffffffffffffffffffffffffffffffffffffffff16815260200191505060405180910390f35b3480156101af57600080fd5b506101b86112b4565b604051808273ffffffffffffffffffffffffffffffffffffffff1673ffffffffffffffffffffffffffffffffffffffff16815260200191505060405180910390f35b34801561020657600080fd5b5061020f6112da565b604051808273ffffffffffffffffffffffffffffffffffffffff1673ffffffffffffffffffffffffffffffffffffffff16815260200191505060405180910390f35b34801561025d57600080fd5b506102f4600480360360a081101561027457600080fd5b81019080803573ffffffffffffffffffffffffffffffffffffffff169060200190929190803573ffffffffffffffffffffffffffffffffffffffff1690602001909291908035906020019092919080359060200190929190803573ffffffffffffffffffffffffffffffffffffffff169060200190929190505050611300565b005b6000341480156103335750600073ffffffffffffffffffffffffffffffffffffffff168573ffffffffffffffffffffffffffffffffffffffff1614155b806103775750600034141580156103765750600073ffffffffffffffffffffffffffffffffffffffff168573ffffffffffffffffffffffffffffffffffffffff16145b5b6103cc576040517f08c379a00000000000000000000000000000000000000000000000000000000081526004018080602001828103825260258152602001806122156025913960400191505060405180910390fd5b6060600267ffffffffffffffff811180156103e657600080fd5b506040519080825280602002602001820160405280156104155781602001602082028036833780820191505090505b509050600073ffffffffffffffffffffffffffffffffffffffff168673ffffffffffffffffffffffffffffffffffffffff1614156104bc57600360009054906101000a900473ffffffffffffffffffffffffffffffffffffffff168160008151811061047d57fe5b602002602001019073ffffffffffffffffffffffffffffffffffffffff16908173ffffffffffffffffffffffffffffffffffffffff1681525050610505565b85816000815181106104ca57fe5b602002602001019073ffffffffffffffffffffffffffffffffffffffff16908173ffffffffffffffffffffffffffffffffffffffff16815250505b600160009054906101000a900473ffffffffffffffffffffffffffffffffffffffff168160018151811061053557fe5b602002602001019073ffffffffffffffffffffffffffffffffffffffff16908173ffffffffffffffffffffffffffffffffffffffff168152505060008060009054906101000a900473ffffffffffffffffffffffffffffffffffffffff1673ffffffffffffffffffffffffffffffffffffffff166342de842b87876040518363ffffffff1660e01b8152600401808373ffffffffffffffffffffffffffffffffffffffff1673ffffffffffffffffffffffffffffffffffffffff1681526020018281526020019250505060206040518083038186803b15801561061757600080fd5b505afa15801561062b573d6000803e3d6000fd5b505050506040513d602081101561064157600080fd5b810190808051906020019092919050505090506000600260009054906101000a900473ffffffffffffffffffffffffffffffffffffffff1673ffffffffffffffffffffffffffffffffffffffff16631f00ca7483856040518363ffffffff1660e01b81526004018083815260200180602001828103825283818151815260200191508051906020019060200280838360005b838110156106ee5780820151818401526020810190506106d3565b50505050905001935050505060006040518083038186803b15801561071257600080fd5b505afa158015610726573d6000803e3d6000fd5b505050506040513d6000823e3d601f19601f82011682018060405250602081101561075057600080fd5b810190808051604051939291908464010000000082111561077057600080fd5b8382019150602082018581111561078657600080fd5b82518660208202830111640100000000821117156107a357600080fd5b8083526020830192505050908051906020019060200280838360005b838110156107da5780820151818401526020810190506107bf565b505050509050016040525050506000815181106107f357fe5b6020026020010151905084811115610873576040517f08c379a00000000000000000000000000000000000000000000000000000000081526004018080602001828103825260188152602001807f627579546f6b656e733a20636f737420746f6f2068696768000000000000000081525060200191505060405180910390fd5b600073ffffffffffffffffffffffffffffffffffffffff168873ffffffffffffffffffffffffffffffffffffffff161415610a8b57600360009054906101000a900473ffffffffffffffffffffffffffffffffffffffff1673ffffffffffffffffffffffffffffffffffffffff1663d0e30db0826040518263ffffffff1660e01b81526004016000604051808303818588803b15801561091257600080fd5b505af1158015610926573d6000803e3d6000fd5b5050505050600360009054906101000a900473ffffffffffffffffffffffffffffffffffffffff1673ffffffffffffffffffffffffffffffffffffffff1663095ea7b3600260009054906101000a900473ffffffffffffffffffffffffffffffffffffffff16836040518363ffffffff1660e01b8152600401808373ffffffffffffffffffffffffffffffffffffffff1673ffffffffffffffffffffffffffffffffffffffff16815260200182815260200192505050602060405180830381600087803b1580156109f657600080fd5b505af1158015610a0a573d6000803e3d6000fd5b505050506040513d6020811015610a2057600080fd5b8101908080519060200190929190505050610a86576040517f08c379a00000000000000000000000000000000000000000000000000000000081526004018080602001828103825260288152602001806121ed6028913960400191505060405180910390fd5b610e94565b6000889050818173ffffffffffffffffffffffffffffffffffffffff1663dd62ed3e33306040518363ffffffff1660e01b8152600401808373ffffffffffffffffffffffffffffffffffffffff1673ffffffffffffffffffffffffffffffffffffffff1681526020018273ffffffffffffffffffffffffffffffffffffffff1673ffffffffffffffffffffffffffffffffffffffff1681526020019250505060206040518083038186803b158015610b4257600080fd5b505afa158015610b56573d6000803e3d6000fd5b505050506040513d6020811015610b6c57600080fd5b81019080805190602001909291905050501015610bf1576040517f08c379a000000000000000000000000000000000000000000000000000000000815260040180806020018281038252601f8152602001807f627579546f6b656e733a206e6f7420656e6f75676820616c6c6f77616e63650081525060200191505060405180910390fd5b8073ffffffffffffffffffffffffffffffffffffffff166323b872dd3330856040518463ffffffff1660e01b8152600401808473ffffffffffffffffffffffffffffffffffffffff1673ffffffffffffffffffffffffffffffffffffffff1681526020018373ffffffffffffffffffffffffffffffffffffffff1673ffffffffffffffffffffffffffffffffffffffff1681526020018281526020019350505050602060405180830381600087803b158015610cac57600080fd5b505af1158015610cc0573d6000803e3d6000fd5b505050506040513d6020811015610cd657600080fd5b8101908080519060200190929190505050610d59576040517f08c379a00000000000000000000000000000000000000000000000000000000081526004018080602001828103825260208152602001807f627579546f6b656e733a206572633230207472616e73666572206661696c656481525060200191505060405180910390fd5b8073ffffffffffffffffffffffffffffffffffffffff1663095ea7b3600260009054906101000a900473ffffffffffffffffffffffffffffffffffffffff16846040518363ffffffff1660e01b8152600401808373ffffffffffffffffffffffffffffffffffffffff1673ffffffffffffffffffffffffffffffffffffffff16815260200182815260200192505050602060405180830381600087803b158015610e0257600080fd5b505af1158015610e16573d6000803e3d6000fd5b505050506040513d6020811015610e2c57600080fd5b8101908080519060200190929190505050610e92576040517f08c379a00000000000000000000000000000000000000000000000000000000081526004018080602001828103825260298152602001806121536029913960400191505060405180910390fd5b505b600260009054906101000a900473ffffffffffffffffffffffffffffffffffffffff1673ffffffffffffffffffffffffffffffffffffffff16635c11d79582848630600142016040518663ffffffff1660e01b815260040180868152602001858152602001806020018473ffffffffffffffffffffffffffffffffffffffff1673ffffffffffffffffffffffffffffffffffffffff168152602001838152602001828103825285818151815260200191508051906020019060200280838360005b83811015610f70578082015181840152602081019050610f55565b505050509050019650505050505050600060405180830381600087803b158015610f9957600080fd5b505af1158015610fad573d6000803e3d6000fd5b50505050600160009054906101000a900473ffffffffffffffffffffffffffffffffffffffff1673ffffffffffffffffffffffffffffffffffffffff1663095ea7b36000809054906101000a900473ffffffffffffffffffffffffffffffffffffffff16846040518363ffffffff1660e01b8152600401808373ffffffffffffffffffffffffffffffffffffffff1673ffffffffffffffffffffffffffffffffffffffff16815260200182815260200192505050602060405180830381600087803b15801561107b57600080fd5b505af115801561108f573d6000803e3d6000fd5b505050506040513d60208110156110a557600080fd5b810190808051906020019092919050505061110b576040517f08c379a00000000000000000000000000000000000000000000000000000000081526004018080602001828103825260258152602001806121a26025913960400191505060405180910390fd5b6000809054906101000a900473ffffffffffffffffffffffffffffffffffffffff1673ffffffffffffffffffffffffffffffffffffffff1663a7f08f8d888885886040518563ffffffff1660e01b8152600401808573ffffffffffffffffffffffffffffffffffffffff1673ffffffffffffffffffffffffffffffffffffffff1681526020018481526020018381526020018273ffffffffffffffffffffffffffffffffffffffff1673ffffffffffffffffffffffffffffffffffffffff168152602001945050505050600060405180830381600087803b1580156111ef57600080fd5b505af1158015611203573d6000803e3d6000fd5b50505050600073ffffffffffffffffffffffffffffffffffffffff168873ffffffffffffffffffffffffffffffffffffffff161415611284573373ffffffffffffffffffffffffffffffffffffffff166108fc479081150290604051600060405180830381858888f19350505050158015611282573d6000803e3d6000fd5b505b5050505050505050565b600260009054906101000a900473ffffffffffffffffffffffffffffffffffffffff1681565b600160009054906101000a900473ffffffffffffffffffffffffffffffffffffffff1681565b600360009054906101000a900473ffffffffffffffffffffffffffffffffffffffff1681565b6060600267ffffffffffffffff8111801561131a57600080fd5b506040519080825280602002602001820160405280156113495781602001602082028036833780820191505090505b509050600160009054906101000a900473ffffffffffffffffffffffffffffffffffffffff168160008151811061137c57fe5b602002602001019073ffffffffffffffffffffffffffffffffffffffff16908173ffffffffffffffffffffffffffffffffffffffff1681525050600073ffffffffffffffffffffffffffffffffffffffff168673ffffffffffffffffffffffffffffffffffffffff16141561145a57600360009054906101000a900473ffffffffffffffffffffffffffffffffffffffff168160018151811061141b57fe5b602002602001019073ffffffffffffffffffffffffffffffffffffffff16908173ffffffffffffffffffffffffffffffffffffffff16815250506114a3565b858160018151811061146857fe5b602002602001019073ffffffffffffffffffffffffffffffffffffffff16908173ffffffffffffffffffffffffffffffffffffffff16815250505b60008060009054906101000a900473ffffffffffffffffffffffffffffffffffffffff1673ffffffffffffffffffffffffffffffffffffffff166368b5e64787876040518363ffffffff1660e01b8152600401808373ffffffffffffffffffffffffffffffffffffffff1673ffffffffffffffffffffffffffffffffffffffff1681526020018281526020019250505060206040518083038186803b15801561154b57600080fd5b505afa15801561155f573d6000803e3d6000fd5b505050506040513d602081101561157557600080fd5b810190808051906020019092919050505090506000600260009054906101000a900473ffffffffffffffffffffffffffffffffffffffff1673ffffffffffffffffffffffffffffffffffffffff1663d06ca61f83856040518363ffffffff1660e01b81526004018083815260200180602001828103825283818151815260200191508051906020019060200280838360005b83811015611622578082015181840152602081019050611607565b50505050905001935050505060006040518083038186803b15801561164657600080fd5b505afa15801561165a573d6000803e3d6000fd5b505050506040513d6000823e3d601f19601f82011682018060405250602081101561168457600080fd5b81019080805160405193929190846401000000008211156116a457600080fd5b838201915060208201858111156116ba57600080fd5b82518660208202830111640100000000821117156116d757600080fd5b8083526020830192505050908051906020019060200280838360005b8381101561170e5780820151818401526020810190506116f3565b5050505090500160405250505060018151811061172757fe5b60200260200101519050848110156117a7576040517f08c379a00000000000000000000000000000000000000000000000000000000081526004018080602001828103825260198152602001807f73656c6c546f6b656e733a20707269636520746f6f206c6f770000000000000081525060200191505060405180910390fd5b858773ffffffffffffffffffffffffffffffffffffffff1663dd62ed3e33306040518363ffffffff1660e01b8152600401808373ffffffffffffffffffffffffffffffffffffffff1673ffffffffffffffffffffffffffffffffffffffff1681526020018273ffffffffffffffffffffffffffffffffffffffff1673ffffffffffffffffffffffffffffffffffffffff1681526020019250505060206040518083038186803b15801561185957600080fd5b505afa15801561186d573d6000803e3d6000fd5b505050506040513d602081101561188357600080fd5b81019080805190602001909291905050501015611908576040517f08c379a00000000000000000000000000000000000000000000000000000000081526004018080602001828103825260208152602001807f73656c6c546f6b656e733a206e6f7420656e6f75676820616c6c6f77616e636581525060200191505060405180910390fd5b8673ffffffffffffffffffffffffffffffffffffffff166323b872dd3330896040518463ffffffff1660e01b8152600401808473ffffffffffffffffffffffffffffffffffffffff1673ffffffffffffffffffffffffffffffffffffffff1681526020018373ffffffffffffffffffffffffffffffffffffffff1673ffffffffffffffffffffffffffffffffffffffff1681526020018281526020019350505050602060405180830381600087803b1580156119c357600080fd5b505af11580156119d7573d6000803e3d6000fd5b505050506040513d60208110156119ed57600080fd5b8101908080519060200190929190505050611a53576040517f08c379a000000000000000000000000000000000000000000000000000000000815260040180806020018281038252602681526020018061217c6026913960400191505060405180910390fd5b8673ffffffffffffffffffffffffffffffffffffffff1663095ea7b36000809054906101000a900473ffffffffffffffffffffffffffffffffffffffff16886040518363ffffffff1660e01b8152600401808373ffffffffffffffffffffffffffffffffffffffff1673ffffffffffffffffffffffffffffffffffffffff16815260200182815260200192505050602060405180830381600087803b158015611afb57600080fd5b505af1158015611b0f573d6000803e3d6000fd5b505050506040513d6020811015611b2557600080fd5b8101908080519060200190929190505050611b8b576040517f08c379a00000000000000000000000000000000000000000000000000000000081526004018080602001828103825260268152602001806121c76026913960400191505060405180910390fd5b6000809054906101000a900473ffffffffffffffffffffffffffffffffffffffff1673ffffffffffffffffffffffffffffffffffffffff1663aa556e0b888885306040518563ffffffff1660e01b8152600401808573ffffffffffffffffffffffffffffffffffffffff1673ffffffffffffffffffffffffffffffffffffffff1681526020018481526020018381526020018273ffffffffffffffffffffffffffffffffffffffff1673ffffffffffffffffffffffffffffffffffffffff168152602001945050505050600060405180830381600087803b158015611c6f57600080fd5b505af1158015611c83573d6000803e3d6000fd5b50505050600160009054906101000a900473ffffffffffffffffffffffffffffffffffffffff1673ffffffffffffffffffffffffffffffffffffffff1663095ea7b3600260009054906101000a900473ffffffffffffffffffffffffffffffffffffffff16846040518363ffffffff1660e01b8152600401808373ffffffffffffffffffffffffffffffffffffffff1673ffffffffffffffffffffffffffffffffffffffff16815260200182815260200192505050602060405180830381600087803b158015611d5257600080fd5b505af1158015611d66573d6000803e3d6000fd5b505050506040513d6020811015611d7c57600080fd5b8101908080519060200190929190505050611dff576040517f08c379a000000000000000000000000000000000000000000000000000000000815260040180806020018281038252601e8152602001807f73656c6c546f6b656e733a2064616920617070726f7665206661696c6564000081525060200191505060405180910390fd5b600073ffffffffffffffffffffffffffffffffffffffff168873ffffffffffffffffffffffffffffffffffffffff16141561202a57600260009054906101000a900473ffffffffffffffffffffffffffffffffffffffff1673ffffffffffffffffffffffffffffffffffffffff16635c11d79583838630600142016040518663ffffffff1660e01b815260040180868152602001858152602001806020018473ffffffffffffffffffffffffffffffffffffffff1673ffffffffffffffffffffffffffffffffffffffff168152602001838152602001828103825285818151815260200191508051906020019060200280838360005b83811015611f10578082015181840152602081019050611ef5565b505050509050019650505050505050600060405180830381600087803b158015611f3957600080fd5b505af1158015611f4d573d6000803e3d6000fd5b50505050600360009054906101000a900473ffffffffffffffffffffffffffffffffffffffff1673ffffffffffffffffffffffffffffffffffffffff16632e1a7d4d826040518263ffffffff1660e01b815260040180828152602001915050600060405180830381600087803b158015611fc657600080fd5b505af1158015611fda573d6000803e3d6000fd5b505050503373ffffffffffffffffffffffffffffffffffffffff166108fc829081150290604051600060405180830381858888f19350505050158015612024573d6000803e3d6000fd5b50612148565b600260009054906101000a900473ffffffffffffffffffffffffffffffffffffffff1673ffffffffffffffffffffffffffffffffffffffff16635c11d79583838688600142016040518663ffffffff1660e01b815260040180868152602001858152602001806020018473ffffffffffffffffffffffffffffffffffffffff1673ffffffffffffffffffffffffffffffffffffffff168152602001838152602001828103825285818151815260200191508051906020019060200280838360005b838110156121065780820151818401526020810190506120eb565b505050509050019650505050505050600060405180830381600087803b15801561212f57600080fd5b505af1158015612143573d6000803e3d6000fd5b505050505b505050505050505056fe627579546f6b656e733a206661696c656420746f20657263323020617070726f766520726f7574657273656c6c546f6b656e733a206964656120746f6b656e207472616e73666572206661696c6564627579546f6b656e733a206661696c656420746f20617070726f76652065786368616e676573656c6c546f6b656e733a206661696c656420746f20617070726f76652065786368616e6765627579546f6b656e733a206661696c656420746f207765746820617070726f766520726f75746572627579546f6b656e733a20696e7075742065697468657220657468206f7220746f6b656e73a264697066735822122075403a3e3bfd748a566f25e944ac77d5245da76bcfe893d070aabccca961a57364736f6c63430006090033",
  "immutableReferences": {},
  "source": "// SPDX-License-Identifier: MIT\r\npragma solidity ^0.6.9;\r\n\r\nimport \"@openzeppelin/contracts/token/ERC20/IERC20.sol\";\r\nimport \"../weth/IWETH.sol\";\r\nimport \"../uniswap/IUniswapV2Router02.sol\";\r\nimport \"./IIdeaTokenExchange.sol\";\r\n\r\n/**\r\n * @title CurrencyConverter\r\n * @author Alexander Schlindwein\r\n *\r\n * @dev Allows to use different currencies to buy/sell IdeaTokens by integrating UniswapV2\r\n */\r\ncontract CurrencyConverter {\r\n\r\n    IIdeaTokenExchange _ideaTokenExchange;\r\n    IERC20 public _dai;\r\n    IUniswapV2Router02 public _uniswapV2Router02;\r\n    IWETH public _weth;\r\n\r\n    /**\r\n     * @param ideaTokenExchange The address of the IdeaTokenExchange contract\r\n     * @param dai The address of the Dai token\r\n     * @param uniswapV2Router02 The address of the UniswapV2Router02 contract\r\n     * @param weth The address of the WETH token\r\n     */\r\n    constructor(address ideaTokenExchange,\r\n                address dai,\r\n                address uniswapV2Router02,\r\n                address weth) public {\r\n        _ideaTokenExchange = IIdeaTokenExchange(ideaTokenExchange);\r\n        _dai = IERC20(dai);\r\n        _uniswapV2Router02 = IUniswapV2Router02(uniswapV2Router02);\r\n        _weth = IWETH(weth);\r\n    }\r\n\r\n    /**\r\n     * @dev Converts an input currency to Dai and buys IdeaTokens\r\n     *\r\n     * @param inputCurrency The address of the input currency. 0x0 means ETH\r\n     * @param ideaToken The address of the IdeaToken to buy\r\n     * @param amount The amount of IdeaTokens to buy\r\n     * @param maxCost The maximum cost in inputCurrency for the purchase\r\n     * @param recipient The recipient of the IdeaTokens\r\n     */\r\n    function buyTokens(address inputCurrency,\r\n                       address ideaToken,\r\n                       uint amount,\r\n                       uint maxCost,\r\n                       address recipient) external payable {\r\n        require((msg.value == 0 && inputCurrency != address(0)) ||\r\n                (msg.value != 0 && inputCurrency == address(0)), \"buyTokens: input either eth or tokens\");\r\n\r\n        address[] memory path = new address[](2);\r\n        if(inputCurrency == address(0)) {\r\n            path[0] = address(_weth);\r\n        } else {\r\n            path[0] = inputCurrency;\r\n        }\r\n        path[1] = address(_dai);\r\n\r\n        uint cost = _ideaTokenExchange.getCostForBuyingTokens(ideaToken, amount);\r\n        uint requiredInput = _uniswapV2Router02.getAmountsIn(cost, path)[0];\r\n\r\n        require(requiredInput <= maxCost, \"buyTokens: cost too high\");\r\n        \r\n        if(inputCurrency == address(0)) {\r\n            _weth.deposit{value: requiredInput}();\r\n            require(IERC20(address(_weth)).approve(address(_uniswapV2Router02), requiredInput), \"buyTokens: failed to weth approve router\");\r\n        } else {\r\n            IERC20 inputERC20 = IERC20(inputCurrency);\r\n            require(inputERC20.allowance(msg.sender, address(this)) >= requiredInput, \"buyTokens: not enough allowance\");\r\n            require(inputERC20.transferFrom(msg.sender, address(this), requiredInput), \"buyTokens: erc20 transfer failed\");\r\n            require(inputERC20.approve(address(_uniswapV2Router02), requiredInput), \"buyTokens: failed to erc20 approve router\");\r\n        }\r\n\r\n        _uniswapV2Router02.swapExactTokensForTokensSupportingFeeOnTransferTokens(requiredInput,\r\n                                                                                 cost,\r\n                                                                                 path,\r\n                                                                                 address(this),\r\n                                                                                 now + 1);\r\n\r\n        require(_dai.approve(address(_ideaTokenExchange), cost), \"buyTokens: failed to approve exchange\");\r\n\r\n        _ideaTokenExchange.buyTokens(ideaToken, amount, cost, recipient);\r\n\r\n        if(inputCurrency == address(0)) {\r\n            msg.sender.transfer(address(this).balance);\r\n        }\r\n    }\r\n\r\n    /**\r\n     * @dev Sells IdeaTokens and converts the received Dai to a specified currency\r\n     *\r\n     * @param outputCurrency The address of the desired output currency\r\n     * @param ideaToken The address of the IdeaToken to sell\r\n     * @param amount The amount of IdeaTokens to sell\r\n     * @param minPrice The minimum price in outputCurrency for the sell\r\n     * @param recipient The recipient of the output currency\r\n     */\r\n    function sellTokens(address outputCurrency,\r\n                        address ideaToken,\r\n                        uint amount,\r\n                        uint minPrice,\r\n                        address recipient) external {\r\n\r\n        address[] memory path = new address[](2);\r\n        path[0] = address(_dai);\r\n        if(outputCurrency == address(0)) {\r\n            path[1] = address(_weth);\r\n        } else {\r\n            path[1] = outputCurrency;\r\n        }\r\n\r\n        uint price = _ideaTokenExchange.getPriceForSellingTokens(ideaToken, amount);\r\n        uint output = _uniswapV2Router02.getAmountsOut(price, path)[1];\r\n\r\n        require(output >= minPrice, \"sellTokens: price too low\");\r\n\r\n        require(IERC20(ideaToken).allowance(msg.sender, address(this)) >= amount, \"sellTokens: not enough allowance\");\r\n        require(IERC20(ideaToken).transferFrom(msg.sender, address(this), amount), \"sellTokens: idea token transfer failed\");\r\n        require(IERC20(ideaToken).approve(address(_ideaTokenExchange), amount), \"sellTokens: failed to approve exchange\");\r\n\r\n        _ideaTokenExchange.sellTokens(ideaToken, amount, price, address(this));\r\n\r\n        require(_dai.approve(address(_uniswapV2Router02), price), \"sellTokens: dai approve failed\");\r\n\r\n        if(outputCurrency == address(0)) {\r\n            _uniswapV2Router02.swapExactTokensForTokensSupportingFeeOnTransferTokens(price,\r\n                                                                                     output,\r\n                                                                                     path,\r\n                                                                                     address(this),\r\n                                                                                     now + 1);\r\n\r\n            _weth.withdraw(output);\r\n            msg.sender.transfer(output);\r\n        } else {\r\n            _uniswapV2Router02.swapExactTokensForTokensSupportingFeeOnTransferTokens(price,\r\n                                                                                     output,\r\n                                                                                     path,\r\n                                                                                     recipient,\r\n                                                                                     now + 1);\r\n        }\r\n    }\r\n\r\n    /**\r\n     * @dev Fallback required for WETH withdraw. Fails if sender is not WETH contract\r\n     */\r\n    receive() external payable {\r\n        require(msg.sender == address(_weth));\r\n    } \r\n}",
  "sourcePath": "C:/Users/alexa/Desktop/ideamarket-contracts/contracts/core/CurrencyConverter.sol",
  "compiler": {
    "name": "solc",
    "version": "0.6.9+commit.3e3065ac.Emscripten.clang"
  },
  "schemaVersion": "3.2.3",
  "updatedAt": "2020-10-13T10:19:49.979Z",
  "networkType": "ethereum",
  "devdoc": {
    "author": "Alexander Schlindwein",
    "details": "Allows to use different currencies to buy/sell IdeaTokens by integrating UniswapV2",
    "methods": {
      "buyTokens(address,address,uint256,uint256,address)": {
        "details": "Converts an input currency to Dai and buys IdeaTokens",
        "params": {
          "amount": "The amount of IdeaTokens to buy",
          "ideaToken": "The address of the IdeaToken to buy",
          "inputCurrency": "The address of the input currency. 0x0 means ETH",
          "maxCost": "The maximum cost in inputCurrency for the purchase",
          "recipient": "The recipient of the IdeaTokens"
        }
      },
      "constructor": {
        "params": {
          "dai": "The address of the Dai token",
          "ideaTokenExchange": "The address of the IdeaTokenExchange contract",
          "uniswapV2Router02": "The address of the UniswapV2Router02 contract",
          "weth": "The address of the WETH token"
        }
      },
      "sellTokens(address,address,uint256,uint256,address)": {
        "details": "Sells IdeaTokens and converts the received Dai to a specified currency",
        "params": {
          "amount": "The amount of IdeaTokens to sell",
          "ideaToken": "The address of the IdeaToken to sell",
          "minPrice": "The minimum price in outputCurrency for the sell",
          "outputCurrency": "The address of the desired output currency",
          "recipient": "The recipient of the output currency"
        }
      }
    },
    "title": "CurrencyConverter"
  },
  "userdoc": {
    "methods": {}
  }
}