{
  "contractName": "CurrencyConverter",
  "abi": [
    {
      "inputs": [
        {
          "internalType": "address",
          "name": "ideaTokenExchange",
          "type": "address"
        },
        {
          "internalType": "address",
          "name": "dai",
          "type": "address"
        },
        {
          "internalType": "address",
          "name": "uniswapV2Router02",
          "type": "address"
        },
        {
          "internalType": "address",
          "name": "weth",
          "type": "address"
        }
      ],
      "stateMutability": "nonpayable",
      "type": "constructor"
    },
    {
      "inputs": [],
      "name": "_dai",
      "outputs": [
        {
          "internalType": "contract IERC20",
          "name": "",
          "type": "address"
        }
      ],
      "stateMutability": "view",
      "type": "function",
      "constant": true
    },
    {
      "inputs": [],
      "name": "_uniswapV2Router02",
      "outputs": [
        {
          "internalType": "contract IUniswapV2Router02",
          "name": "",
          "type": "address"
        }
      ],
      "stateMutability": "view",
      "type": "function",
      "constant": true
    },
    {
      "inputs": [],
      "name": "_weth",
      "outputs": [
        {
          "internalType": "contract IWETH",
          "name": "",
          "type": "address"
        }
      ],
      "stateMutability": "view",
      "type": "function",
      "constant": true
    },
    {
      "stateMutability": "payable",
      "type": "receive",
      "payable": true
    },
    {
      "inputs": [
        {
          "internalType": "address",
          "name": "inputCurrency",
          "type": "address"
        },
        {
          "internalType": "address",
          "name": "ideaToken",
          "type": "address"
        },
        {
          "internalType": "uint256",
          "name": "amount",
          "type": "uint256"
        },
        {
          "internalType": "uint256",
          "name": "fallbackAmount",
          "type": "uint256"
        },
        {
          "internalType": "uint256",
          "name": "cost",
          "type": "uint256"
        },
        {
          "internalType": "address",
          "name": "recipient",
          "type": "address"
        }
      ],
      "name": "buyTokens",
      "outputs": [],
      "stateMutability": "payable",
      "type": "function",
      "payable": true
    },
    {
      "inputs": [
        {
          "internalType": "address",
          "name": "outputCurrency",
          "type": "address"
        },
        {
          "internalType": "address",
          "name": "ideaToken",
          "type": "address"
        },
        {
          "internalType": "uint256",
          "name": "amount",
          "type": "uint256"
        },
        {
          "internalType": "uint256",
          "name": "minPrice",
          "type": "uint256"
        },
        {
          "internalType": "address",
          "name": "recipient",
          "type": "address"
        }
      ],
      "name": "sellTokens",
      "outputs": [],
      "stateMutability": "nonpayable",
      "type": "function"
    }
  ],
  "bytecode": "0x608060405234801561001057600080fd5b506040516126963803806126968339818101604052608081101561003357600080fd5b8101908080519060200190929190805190602001909291908051906020019092919080519060200190929190505050836000806101000a81548173ffffffffffffffffffffffffffffffffffffffff021916908373ffffffffffffffffffffffffffffffffffffffff16021790555082600160006101000a81548173ffffffffffffffffffffffffffffffffffffffff021916908373ffffffffffffffffffffffffffffffffffffffff16021790555081600260006101000a81548173ffffffffffffffffffffffffffffffffffffffff021916908373ffffffffffffffffffffffffffffffffffffffff16021790555080600360006101000a81548173ffffffffffffffffffffffffffffffffffffffff021916908373ffffffffffffffffffffffffffffffffffffffff1602179055505050505061251e806101786000396000f3fe60806040526004361061004e5760003560e01c80632b450eec146100b45780633f430f831461015657806377f78ad3146101ad578063a176459514610204578063dbc93ba01461025b576100af565b366100af57600360009054906101000a900473ffffffffffffffffffffffffffffffffffffffff1673ffffffffffffffffffffffffffffffffffffffff163373ffffffffffffffffffffffffffffffffffffffff16146100ad57600080fd5b005b600080fd5b610154600480360360c08110156100ca57600080fd5b81019080803573ffffffffffffffffffffffffffffffffffffffff169060200190929190803573ffffffffffffffffffffffffffffffffffffffff169060200190929190803590602001909291908035906020019092919080359060200190929190803573ffffffffffffffffffffffffffffffffffffffff169060200190929190505050610300565b005b34801561016257600080fd5b5061016b61153d565b604051808273ffffffffffffffffffffffffffffffffffffffff1673ffffffffffffffffffffffffffffffffffffffff16815260200191505060405180910390f35b3480156101b957600080fd5b506101c2611563565b604051808273ffffffffffffffffffffffffffffffffffffffff1673ffffffffffffffffffffffffffffffffffffffff16815260200191505060405180910390f35b34801561021057600080fd5b50610219611589565b604051808273ffffffffffffffffffffffffffffffffffffffff1673ffffffffffffffffffffffffffffffffffffffff16815260200191505060405180910390f35b34801561026757600080fd5b506102fe600480360360a081101561027e57600080fd5b81019080803573ffffffffffffffffffffffffffffffffffffffff169060200190929190803573ffffffffffffffffffffffffffffffffffffffff1690602001909291908035906020019092919080359060200190929190803573ffffffffffffffffffffffffffffffffffffffff1690602001909291905050506115af565b005b60003414801561033d5750600073ffffffffffffffffffffffffffffffffffffffff168673ffffffffffffffffffffffffffffffffffffffff1614155b806103815750600034141580156103805750600073ffffffffffffffffffffffffffffffffffffffff168673ffffffffffffffffffffffffffffffffffffffff16145b5b6103d6576040517f08c379a00000000000000000000000000000000000000000000000000000000081526004018080602001828103825260258152602001806124c46025913960400191505060405180910390fd5b6060600267ffffffffffffffff811180156103f057600080fd5b5060405190808252806020026020018201604052801561041f5781602001602082028036833780820191505090505b509050600073ffffffffffffffffffffffffffffffffffffffff168773ffffffffffffffffffffffffffffffffffffffff1614156104c657600360009054906101000a900473ffffffffffffffffffffffffffffffffffffffff168160008151811061048757fe5b602002602001019073ffffffffffffffffffffffffffffffffffffffff16908173ffffffffffffffffffffffffffffffffffffffff168152505061050f565b86816000815181106104d457fe5b602002602001019073ffffffffffffffffffffffffffffffffffffffff16908173ffffffffffffffffffffffffffffffffffffffff16815250505b600160009054906101000a900473ffffffffffffffffffffffffffffffffffffffff168160018151811061053f57fe5b602002602001019073ffffffffffffffffffffffffffffffffffffffff16908173ffffffffffffffffffffffffffffffffffffffff1681525050600085905060008060009054906101000a900473ffffffffffffffffffffffffffffffffffffffff1673ffffffffffffffffffffffffffffffffffffffff166342de842b89846040518363ffffffff1660e01b8152600401808373ffffffffffffffffffffffffffffffffffffffff1673ffffffffffffffffffffffffffffffffffffffff1681526020018281526020019250505060206040518083038186803b15801561062657600080fd5b505afa15801561063a573d6000803e3d6000fd5b505050506040513d602081101561065057600080fd5b810190808051906020019092919050505090506000600260009054906101000a900473ffffffffffffffffffffffffffffffffffffffff1673ffffffffffffffffffffffffffffffffffffffff16631f00ca7483866040518363ffffffff1660e01b81526004018083815260200180602001828103825283818151815260200191508051906020019060200280838360005b838110156106fd5780820151818401526020810190506106e2565b50505050905001935050505060006040518083038186803b15801561072157600080fd5b505afa158015610735573d6000803e3d6000fd5b505050506040513d6000823e3d601f19601f82011682018060405250602081101561075f57600080fd5b810190808051604051939291908464010000000082111561077f57600080fd5b8382019150602082018581111561079557600080fd5b82518660208202830111640100000000821117156107b257600080fd5b8083526020830192505050908051906020019060200280838360005b838110156107e95780820151818401526020810190506107ce565b5050505090500160405250505060008151811061080257fe5b6020026020010151905085811115610aa2578692506000809054906101000a900473ffffffffffffffffffffffffffffffffffffffff1673ffffffffffffffffffffffffffffffffffffffff166342de842b8a856040518363ffffffff1660e01b8152600401808373ffffffffffffffffffffffffffffffffffffffff1673ffffffffffffffffffffffffffffffffffffffff1681526020018281526020019250505060206040518083038186803b1580156108bd57600080fd5b505afa1580156108d1573d6000803e3d6000fd5b505050506040513d60208110156108e757600080fd5b81019080805190602001909291905050509150600260009054906101000a900473ffffffffffffffffffffffffffffffffffffffff1673ffffffffffffffffffffffffffffffffffffffff16631f00ca7483866040518363ffffffff1660e01b81526004018083815260200180602001828103825283818151815260200191508051906020019060200280838360005b83811015610992578082015181840152602081019050610977565b50505050905001935050505060006040518083038186803b1580156109b657600080fd5b505afa1580156109ca573d6000803e3d6000fd5b505050506040513d6000823e3d601f19601f8201168201806040525060208110156109f457600080fd5b8101908080516040519392919084640100000000821115610a1457600080fd5b83820191506020820185811115610a2a57600080fd5b8251866020820283011164010000000082111715610a4757600080fd5b8083526020830192505050908051906020019060200280838360005b83811015610a7e578082015181840152602081019050610a63565b50505050905001604052505050600081518110610a9757fe5b602002602001015190505b85811115610b18576040517f08c379a000000000000000000000000000000000000000000000000000000000815260040180806020018281038252601c8152602001807f627579546f6b656e733a20736c69707061676520746f6f20686967680000000081525060200191505060405180910390fd5b600073ffffffffffffffffffffffffffffffffffffffff168a73ffffffffffffffffffffffffffffffffffffffff161415610d3057600360009054906101000a900473ffffffffffffffffffffffffffffffffffffffff1673ffffffffffffffffffffffffffffffffffffffff1663d0e30db0826040518263ffffffff1660e01b81526004016000604051808303818588803b158015610bb757600080fd5b505af1158015610bcb573d6000803e3d6000fd5b5050505050600360009054906101000a900473ffffffffffffffffffffffffffffffffffffffff1673ffffffffffffffffffffffffffffffffffffffff1663095ea7b3600260009054906101000a900473ffffffffffffffffffffffffffffffffffffffff16836040518363ffffffff1660e01b8152600401808373ffffffffffffffffffffffffffffffffffffffff1673ffffffffffffffffffffffffffffffffffffffff16815260200182815260200192505050602060405180830381600087803b158015610c9b57600080fd5b505af1158015610caf573d6000803e3d6000fd5b505050506040513d6020811015610cc557600080fd5b8101908080519060200190929190505050610d2b576040517f08c379a000000000000000000000000000000000000000000000000000000000815260040180806020018281038252602881526020018061249c6028913960400191505060405180910390fd5b611139565b60008a9050818173ffffffffffffffffffffffffffffffffffffffff1663dd62ed3e33306040518363ffffffff1660e01b8152600401808373ffffffffffffffffffffffffffffffffffffffff1673ffffffffffffffffffffffffffffffffffffffff1681526020018273ffffffffffffffffffffffffffffffffffffffff1673ffffffffffffffffffffffffffffffffffffffff1681526020019250505060206040518083038186803b158015610de757600080fd5b505afa158015610dfb573d6000803e3d6000fd5b505050506040513d6020811015610e1157600080fd5b81019080805190602001909291905050501015610e96576040517f08c379a000000000000000000000000000000000000000000000000000000000815260040180806020018281038252601f8152602001807f627579546f6b656e733a206e6f7420656e6f75676820616c6c6f77616e63650081525060200191505060405180910390fd5b8073ffffffffffffffffffffffffffffffffffffffff166323b872dd3330856040518463ffffffff1660e01b8152600401808473ffffffffffffffffffffffffffffffffffffffff1673ffffffffffffffffffffffffffffffffffffffff1681526020018373ffffffffffffffffffffffffffffffffffffffff1673ffffffffffffffffffffffffffffffffffffffff1681526020018281526020019350505050602060405180830381600087803b158015610f5157600080fd5b505af1158015610f65573d6000803e3d6000fd5b505050506040513d6020811015610f7b57600080fd5b8101908080519060200190929190505050610ffe576040517f08c379a00000000000000000000000000000000000000000000000000000000081526004018080602001828103825260208152602001807f627579546f6b656e733a206572633230207472616e73666572206661696c656481525060200191505060405180910390fd5b8073ffffffffffffffffffffffffffffffffffffffff1663095ea7b3600260009054906101000a900473ffffffffffffffffffffffffffffffffffffffff16846040518363ffffffff1660e01b8152600401808373ffffffffffffffffffffffffffffffffffffffff1673ffffffffffffffffffffffffffffffffffffffff16815260200182815260200192505050602060405180830381600087803b1580156110a757600080fd5b505af11580156110bb573d6000803e3d6000fd5b505050506040513d60208110156110d157600080fd5b8101908080519060200190929190505050611137576040517f08c379a00000000000000000000000000000000000000000000000000000000081526004018080602001828103825260298152602001806124026029913960400191505060405180910390fd5b505b600260009054906101000a900473ffffffffffffffffffffffffffffffffffffffff1673ffffffffffffffffffffffffffffffffffffffff16635c11d79582848730600142016040518663ffffffff1660e01b815260040180868152602001858152602001806020018473ffffffffffffffffffffffffffffffffffffffff1673ffffffffffffffffffffffffffffffffffffffff168152602001838152602001828103825285818151815260200191508051906020019060200280838360005b838110156112155780820151818401526020810190506111fa565b505050509050019650505050505050600060405180830381600087803b15801561123e57600080fd5b505af1158015611252573d6000803e3d6000fd5b50505050600160009054906101000a900473ffffffffffffffffffffffffffffffffffffffff1673ffffffffffffffffffffffffffffffffffffffff1663095ea7b36000809054906101000a900473ffffffffffffffffffffffffffffffffffffffff16846040518363ffffffff1660e01b8152600401808373ffffffffffffffffffffffffffffffffffffffff1673ffffffffffffffffffffffffffffffffffffffff16815260200182815260200192505050602060405180830381600087803b15801561132057600080fd5b505af1158015611334573d6000803e3d6000fd5b505050506040513d602081101561134a57600080fd5b81019080805190602001909291905050506113b0576040517f08c379a00000000000000000000000000000000000000000000000000000000081526004018080602001828103825260258152602001806124516025913960400191505060405180910390fd5b6000809054906101000a900473ffffffffffffffffffffffffffffffffffffffff1673ffffffffffffffffffffffffffffffffffffffff1663cc09125f8a8586868a6040518663ffffffff1660e01b8152600401808673ffffffffffffffffffffffffffffffffffffffff1673ffffffffffffffffffffffffffffffffffffffff1681526020018581526020018481526020018381526020018273ffffffffffffffffffffffffffffffffffffffff1673ffffffffffffffffffffffffffffffffffffffff16815260200195505050505050600060405180830381600087803b15801561149c57600080fd5b505af11580156114b0573d6000803e3d6000fd5b50505050600073ffffffffffffffffffffffffffffffffffffffff168a73ffffffffffffffffffffffffffffffffffffffff161415611531573373ffffffffffffffffffffffffffffffffffffffff166108fc479081150290604051600060405180830381858888f1935050505015801561152f573d6000803e3d6000fd5b505b50505050505050505050565b600260009054906101000a900473ffffffffffffffffffffffffffffffffffffffff1681565b600160009054906101000a900473ffffffffffffffffffffffffffffffffffffffff1681565b600360009054906101000a900473ffffffffffffffffffffffffffffffffffffffff1681565b6060600267ffffffffffffffff811180156115c957600080fd5b506040519080825280602002602001820160405280156115f85781602001602082028036833780820191505090505b509050600160009054906101000a900473ffffffffffffffffffffffffffffffffffffffff168160008151811061162b57fe5b602002602001019073ffffffffffffffffffffffffffffffffffffffff16908173ffffffffffffffffffffffffffffffffffffffff1681525050600073ffffffffffffffffffffffffffffffffffffffff168673ffffffffffffffffffffffffffffffffffffffff16141561170957600360009054906101000a900473ffffffffffffffffffffffffffffffffffffffff16816001815181106116ca57fe5b602002602001019073ffffffffffffffffffffffffffffffffffffffff16908173ffffffffffffffffffffffffffffffffffffffff1681525050611752565b858160018151811061171757fe5b602002602001019073ffffffffffffffffffffffffffffffffffffffff16908173ffffffffffffffffffffffffffffffffffffffff16815250505b60008060009054906101000a900473ffffffffffffffffffffffffffffffffffffffff1673ffffffffffffffffffffffffffffffffffffffff166368b5e64787876040518363ffffffff1660e01b8152600401808373ffffffffffffffffffffffffffffffffffffffff1673ffffffffffffffffffffffffffffffffffffffff1681526020018281526020019250505060206040518083038186803b1580156117fa57600080fd5b505afa15801561180e573d6000803e3d6000fd5b505050506040513d602081101561182457600080fd5b810190808051906020019092919050505090506000600260009054906101000a900473ffffffffffffffffffffffffffffffffffffffff1673ffffffffffffffffffffffffffffffffffffffff1663d06ca61f83856040518363ffffffff1660e01b81526004018083815260200180602001828103825283818151815260200191508051906020019060200280838360005b838110156118d15780820151818401526020810190506118b6565b50505050905001935050505060006040518083038186803b1580156118f557600080fd5b505afa158015611909573d6000803e3d6000fd5b505050506040513d6000823e3d601f19601f82011682018060405250602081101561193357600080fd5b810190808051604051939291908464010000000082111561195357600080fd5b8382019150602082018581111561196957600080fd5b825186602082028301116401000000008211171561198657600080fd5b8083526020830192505050908051906020019060200280838360005b838110156119bd5780820151818401526020810190506119a2565b505050509050016040525050506001815181106119d657fe5b6020026020010151905084811015611a56576040517f08c379a000000000000000000000000000000000000000000000000000000000815260040180806020018281038252601d8152602001807f73656c6c546f6b656e733a20736c69707061676520746f6f206869676800000081525060200191505060405180910390fd5b858773ffffffffffffffffffffffffffffffffffffffff1663dd62ed3e33306040518363ffffffff1660e01b8152600401808373ffffffffffffffffffffffffffffffffffffffff1673ffffffffffffffffffffffffffffffffffffffff1681526020018273ffffffffffffffffffffffffffffffffffffffff1673ffffffffffffffffffffffffffffffffffffffff1681526020019250505060206040518083038186803b158015611b0857600080fd5b505afa158015611b1c573d6000803e3d6000fd5b505050506040513d6020811015611b3257600080fd5b81019080805190602001909291905050501015611bb7576040517f08c379a00000000000000000000000000000000000000000000000000000000081526004018080602001828103825260208152602001807f73656c6c546f6b656e733a206e6f7420656e6f75676820616c6c6f77616e636581525060200191505060405180910390fd5b8673ffffffffffffffffffffffffffffffffffffffff166323b872dd3330896040518463ffffffff1660e01b8152600401808473ffffffffffffffffffffffffffffffffffffffff1673ffffffffffffffffffffffffffffffffffffffff1681526020018373ffffffffffffffffffffffffffffffffffffffff1673ffffffffffffffffffffffffffffffffffffffff1681526020018281526020019350505050602060405180830381600087803b158015611c7257600080fd5b505af1158015611c86573d6000803e3d6000fd5b505050506040513d6020811015611c9c57600080fd5b8101908080519060200190929190505050611d02576040517f08c379a000000000000000000000000000000000000000000000000000000000815260040180806020018281038252602681526020018061242b6026913960400191505060405180910390fd5b8673ffffffffffffffffffffffffffffffffffffffff1663095ea7b36000809054906101000a900473ffffffffffffffffffffffffffffffffffffffff16886040518363ffffffff1660e01b8152600401808373ffffffffffffffffffffffffffffffffffffffff1673ffffffffffffffffffffffffffffffffffffffff16815260200182815260200192505050602060405180830381600087803b158015611daa57600080fd5b505af1158015611dbe573d6000803e3d6000fd5b505050506040513d6020811015611dd457600080fd5b8101908080519060200190929190505050611e3a576040517f08c379a00000000000000000000000000000000000000000000000000000000081526004018080602001828103825260268152602001806124766026913960400191505060405180910390fd5b6000809054906101000a900473ffffffffffffffffffffffffffffffffffffffff1673ffffffffffffffffffffffffffffffffffffffff1663aa556e0b888885306040518563ffffffff1660e01b8152600401808573ffffffffffffffffffffffffffffffffffffffff1673ffffffffffffffffffffffffffffffffffffffff1681526020018481526020018381526020018273ffffffffffffffffffffffffffffffffffffffff1673ffffffffffffffffffffffffffffffffffffffff168152602001945050505050600060405180830381600087803b158015611f1e57600080fd5b505af1158015611f32573d6000803e3d6000fd5b50505050600160009054906101000a900473ffffffffffffffffffffffffffffffffffffffff1673ffffffffffffffffffffffffffffffffffffffff1663095ea7b3600260009054906101000a900473ffffffffffffffffffffffffffffffffffffffff16846040518363ffffffff1660e01b8152600401808373ffffffffffffffffffffffffffffffffffffffff1673ffffffffffffffffffffffffffffffffffffffff16815260200182815260200192505050602060405180830381600087803b15801561200157600080fd5b505af1158015612015573d6000803e3d6000fd5b505050506040513d602081101561202b57600080fd5b81019080805190602001909291905050506120ae576040517f08c379a000000000000000000000000000000000000000000000000000000000815260040180806020018281038252601e8152602001807f73656c6c546f6b656e733a2064616920617070726f7665206661696c6564000081525060200191505060405180910390fd5b600073ffffffffffffffffffffffffffffffffffffffff168873ffffffffffffffffffffffffffffffffffffffff1614156122d957600260009054906101000a900473ffffffffffffffffffffffffffffffffffffffff1673ffffffffffffffffffffffffffffffffffffffff16635c11d79583838630600142016040518663ffffffff1660e01b815260040180868152602001858152602001806020018473ffffffffffffffffffffffffffffffffffffffff1673ffffffffffffffffffffffffffffffffffffffff168152602001838152602001828103825285818151815260200191508051906020019060200280838360005b838110156121bf5780820151818401526020810190506121a4565b505050509050019650505050505050600060405180830381600087803b1580156121e857600080fd5b505af11580156121fc573d6000803e3d6000fd5b50505050600360009054906101000a900473ffffffffffffffffffffffffffffffffffffffff1673ffffffffffffffffffffffffffffffffffffffff16632e1a7d4d826040518263ffffffff1660e01b815260040180828152602001915050600060405180830381600087803b15801561227557600080fd5b505af1158015612289573d6000803e3d6000fd5b505050503373ffffffffffffffffffffffffffffffffffffffff166108fc829081150290604051600060405180830381858888f193505050501580156122d3573d6000803e3d6000fd5b506123f7565b600260009054906101000a900473ffffffffffffffffffffffffffffffffffffffff1673ffffffffffffffffffffffffffffffffffffffff16635c11d79583838688600142016040518663ffffffff1660e01b815260040180868152602001858152602001806020018473ffffffffffffffffffffffffffffffffffffffff1673ffffffffffffffffffffffffffffffffffffffff168152602001838152602001828103825285818151815260200191508051906020019060200280838360005b838110156123b557808201518184015260208101905061239a565b505050509050019650505050505050600060405180830381600087803b1580156123de57600080fd5b505af11580156123f2573d6000803e3d6000fd5b505050505b505050505050505056fe627579546f6b656e733a206661696c656420746f20657263323020617070726f766520726f7574657273656c6c546f6b656e733a206964656120746f6b656e207472616e73666572206661696c6564627579546f6b656e733a206661696c656420746f20617070726f76652065786368616e676573656c6c546f6b656e733a206661696c656420746f20617070726f76652065786368616e6765627579546f6b656e733a206661696c656420746f207765746820617070726f766520726f75746572627579546f6b656e733a20696e7075742065697468657220657468206f7220746f6b656e73a26469706673582212200ff7cfe1232d1539db31b5346df14074a97ed731e9e7d716ba3fe1e030bd041d64736f6c63430006090033",
  "immutableReferences": {},
  "source": "// SPDX-License-Identifier: MIT\r\npragma solidity ^0.6.9;\r\n\r\nimport \"@openzeppelin/contracts/token/ERC20/IERC20.sol\";\r\nimport \"../weth/IWETH.sol\";\r\nimport \"../uniswap/IUniswapV2Router02.sol\";\r\nimport \"./IIdeaTokenExchange.sol\";\r\n\r\n/**\r\n * @title CurrencyConverter\r\n * @author Alexander Schlindwein\r\n *\r\n * @dev Allows to use different currencies to buy/sell IdeaTokens by integrating UniswapV2\r\n */\r\ncontract CurrencyConverter {\r\n\r\n    IIdeaTokenExchange _ideaTokenExchange;\r\n    IERC20 public _dai;\r\n    IUniswapV2Router02 public _uniswapV2Router02;\r\n    IWETH public _weth;\r\n\r\n    /**\r\n     * @param ideaTokenExchange The address of the IdeaTokenExchange contract\r\n     * @param dai The address of the Dai token\r\n     * @param uniswapV2Router02 The address of the UniswapV2Router02 contract\r\n     * @param weth The address of the WETH token\r\n     */\r\n    constructor(address ideaTokenExchange,\r\n                address dai,\r\n                address uniswapV2Router02,\r\n                address weth) public {\r\n        _ideaTokenExchange = IIdeaTokenExchange(ideaTokenExchange);\r\n        _dai = IERC20(dai);\r\n        _uniswapV2Router02 = IUniswapV2Router02(uniswapV2Router02);\r\n        _weth = IWETH(weth);\r\n    }\r\n\r\n    /**\r\n     * @dev Converts an input currency to Dai and buys IdeaTokens\r\n     *\r\n     * @param inputCurrency The address of the input currency. 0x0 means ETH\r\n     * @param ideaToken The address of the IdeaToken to buy\r\n     * @param amount The amount of IdeaTokens to buy\r\n     * @param fallbackAmount The fallback amount to buy in case the price changed\r\n     * @param cost The maximum allowed cost in inputCurrency\r\n     * @param recipient The recipient of the IdeaTokens\r\n     */\r\n    function buyTokens(address inputCurrency,\r\n                       address ideaToken,\r\n                       uint amount,\r\n                       uint fallbackAmount,\r\n                       uint cost,\r\n                       address recipient) external payable {\r\n        require((msg.value == 0 && inputCurrency != address(0)) ||\r\n                (msg.value != 0 && inputCurrency == address(0)), \"buyTokens: input either eth or tokens\");\r\n\r\n        address[] memory path = new address[](2);\r\n        if(inputCurrency == address(0)) {\r\n            path[0] = address(_weth);\r\n        } else {\r\n            path[0] = inputCurrency;\r\n        }\r\n        path[1] = address(_dai);\r\n\r\n        uint actualAmount = amount;\r\n        uint costToBuy = _ideaTokenExchange.getCostForBuyingTokens(ideaToken, actualAmount);\r\n        uint requiredInput = _uniswapV2Router02.getAmountsIn(costToBuy, path)[0];\r\n\r\n        if(requiredInput > cost) {\r\n            actualAmount = fallbackAmount;\r\n            costToBuy = _ideaTokenExchange.getCostForBuyingTokens(ideaToken, actualAmount);\r\n            requiredInput = _uniswapV2Router02.getAmountsIn(costToBuy, path)[0];\r\n        }\r\n\r\n        require(requiredInput <= cost, \"buyTokens: slippage too high\");\r\n        \r\n        if(inputCurrency == address(0)) {\r\n            _weth.deposit{value: requiredInput}();\r\n            require(IERC20(address(_weth)).approve(address(_uniswapV2Router02), requiredInput), \"buyTokens: failed to weth approve router\");\r\n        } else {\r\n            IERC20 inputERC20 = IERC20(inputCurrency);\r\n            require(inputERC20.allowance(msg.sender, address(this)) >= requiredInput, \"buyTokens: not enough allowance\");\r\n            require(inputERC20.transferFrom(msg.sender, address(this), requiredInput), \"buyTokens: erc20 transfer failed\");\r\n            require(inputERC20.approve(address(_uniswapV2Router02), requiredInput), \"buyTokens: failed to erc20 approve router\");\r\n        }\r\n\r\n        _uniswapV2Router02.swapExactTokensForTokensSupportingFeeOnTransferTokens(requiredInput,\r\n                                                                                 costToBuy,\r\n                                                                                 path,\r\n                                                                                 address(this),\r\n                                                                                 now + 1);\r\n\r\n        require(_dai.approve(address(_ideaTokenExchange), costToBuy), \"buyTokens: failed to approve exchange\");\r\n\r\n        _ideaTokenExchange.buyTokens(ideaToken, actualAmount, actualAmount, costToBuy, recipient);\r\n\r\n        if(inputCurrency == address(0)) {\r\n            msg.sender.transfer(address(this).balance);\r\n        }\r\n    }\r\n\r\n    /**\r\n     * @dev Sells IdeaTokens and converts the received Dai to a specified currency\r\n     *\r\n     * @param outputCurrency The address of the desired output currency\r\n     * @param ideaToken The address of the IdeaToken to sell\r\n     * @param amount The amount of IdeaTokens to sell\r\n     * @param minPrice The minimum price in outputCurrency for the sell\r\n     * @param recipient The recipient of the output currency\r\n     */\r\n    function sellTokens(address outputCurrency,\r\n                        address ideaToken,\r\n                        uint amount,\r\n                        uint minPrice,\r\n                        address recipient) external {\r\n\r\n        address[] memory path = new address[](2);\r\n        path[0] = address(_dai);\r\n        if(outputCurrency == address(0)) {\r\n            path[1] = address(_weth);\r\n        } else {\r\n            path[1] = outputCurrency;\r\n        }\r\n\r\n        uint price = _ideaTokenExchange.getPriceForSellingTokens(ideaToken, amount);\r\n        uint output = _uniswapV2Router02.getAmountsOut(price, path)[1];\r\n\r\n        require(output >= minPrice, \"sellTokens: slippage too high\");\r\n\r\n        require(IERC20(ideaToken).allowance(msg.sender, address(this)) >= amount, \"sellTokens: not enough allowance\");\r\n        require(IERC20(ideaToken).transferFrom(msg.sender, address(this), amount), \"sellTokens: idea token transfer failed\");\r\n        require(IERC20(ideaToken).approve(address(_ideaTokenExchange), amount), \"sellTokens: failed to approve exchange\");\r\n\r\n        _ideaTokenExchange.sellTokens(ideaToken, amount, price, address(this));\r\n\r\n        require(_dai.approve(address(_uniswapV2Router02), price), \"sellTokens: dai approve failed\");\r\n\r\n        if(outputCurrency == address(0)) {\r\n            _uniswapV2Router02.swapExactTokensForTokensSupportingFeeOnTransferTokens(price,\r\n                                                                                     output,\r\n                                                                                     path,\r\n                                                                                     address(this),\r\n                                                                                     now + 1);\r\n\r\n            _weth.withdraw(output);\r\n            msg.sender.transfer(output);\r\n        } else {\r\n            _uniswapV2Router02.swapExactTokensForTokensSupportingFeeOnTransferTokens(price,\r\n                                                                                     output,\r\n                                                                                     path,\r\n                                                                                     recipient,\r\n                                                                                     now + 1);\r\n        }\r\n    }\r\n\r\n    /**\r\n     * @dev Fallback required for WETH withdraw. Fails if sender is not WETH contract\r\n     */\r\n    receive() external payable {\r\n        require(msg.sender == address(_weth));\r\n    } \r\n}",
  "sourcePath": "C:/Users/alexa/Desktop/ideamarket-contracts/contracts/core/CurrencyConverter.sol",
  "compiler": {
    "name": "solc",
    "version": "0.6.9+commit.3e3065ac.Emscripten.clang"
  },
  "schemaVersion": "3.3.1",
  "updatedAt": "2020-10-20T11:28:26.384Z",
  "networkType": "ethereum",
  "devdoc": {
    "author": "Alexander Schlindwein",
    "details": "Allows to use different currencies to buy/sell IdeaTokens by integrating UniswapV2",
    "methods": {
      "buyTokens(address,address,uint256,uint256,uint256,address)": {
        "details": "Converts an input currency to Dai and buys IdeaTokens",
        "params": {
          "amount": "The amount of IdeaTokens to buy",
          "cost": "The maximum allowed cost in inputCurrency",
          "fallbackAmount": "The fallback amount to buy in case the price changed",
          "ideaToken": "The address of the IdeaToken to buy",
          "inputCurrency": "The address of the input currency. 0x0 means ETH",
          "recipient": "The recipient of the IdeaTokens"
        }
      },
      "constructor": {
        "params": {
          "dai": "The address of the Dai token",
          "ideaTokenExchange": "The address of the IdeaTokenExchange contract",
          "uniswapV2Router02": "The address of the UniswapV2Router02 contract",
          "weth": "The address of the WETH token"
        }
      },
      "sellTokens(address,address,uint256,uint256,address)": {
        "details": "Sells IdeaTokens and converts the received Dai to a specified currency",
        "params": {
          "amount": "The amount of IdeaTokens to sell",
          "ideaToken": "The address of the IdeaToken to sell",
          "minPrice": "The minimum price in outputCurrency for the sell",
          "outputCurrency": "The address of the desired output currency",
          "recipient": "The recipient of the output currency"
        }
      }
    },
    "title": "CurrencyConverter"
  },
  "userdoc": {
    "methods": {}
  }
}