{
  "contractName": "CurrencyConverter",
  "abi": [
    {
      "inputs": [
        {
          "internalType": "address",
          "name": "ideaTokenExchange",
          "type": "address"
        },
        {
          "internalType": "address",
          "name": "dai",
          "type": "address"
        },
        {
          "internalType": "address",
          "name": "uniswapV2Router02",
          "type": "address"
        },
        {
          "internalType": "address",
          "name": "weth",
          "type": "address"
        }
      ],
      "stateMutability": "nonpayable",
      "type": "constructor"
    },
    {
      "inputs": [],
      "name": "_dai",
      "outputs": [
        {
          "internalType": "contract IERC20",
          "name": "",
          "type": "address"
        }
      ],
      "stateMutability": "view",
      "type": "function"
    },
    {
      "inputs": [],
      "name": "_uniswapV2Router02",
      "outputs": [
        {
          "internalType": "contract IUniswapV2Router02",
          "name": "",
          "type": "address"
        }
      ],
      "stateMutability": "view",
      "type": "function"
    },
    {
      "inputs": [],
      "name": "_weth",
      "outputs": [
        {
          "internalType": "contract IWETH",
          "name": "",
          "type": "address"
        }
      ],
      "stateMutability": "view",
      "type": "function"
    },
    {
      "stateMutability": "payable",
      "type": "receive"
    },
    {
      "inputs": [
        {
          "internalType": "address",
          "name": "inputCurrency",
          "type": "address"
        },
        {
          "internalType": "address",
          "name": "ideaToken",
          "type": "address"
        },
        {
          "internalType": "uint256",
          "name": "inputAmount",
          "type": "uint256"
        },
        {
          "internalType": "uint256",
          "name": "minOutput",
          "type": "uint256"
        },
        {
          "internalType": "address",
          "name": "recipient",
          "type": "address"
        }
      ],
      "name": "buyTokens",
      "outputs": [],
      "stateMutability": "payable",
      "type": "function"
    },
    {
      "inputs": [
        {
          "internalType": "address",
          "name": "outputCurrency",
          "type": "address"
        },
        {
          "internalType": "address",
          "name": "ideaToken",
          "type": "address"
        },
        {
          "internalType": "uint256",
          "name": "tokenAmount",
          "type": "uint256"
        },
        {
          "internalType": "uint256",
          "name": "minOutput",
          "type": "uint256"
        },
        {
          "internalType": "address",
          "name": "recipient",
          "type": "address"
        }
      ],
      "name": "sellTokens",
      "outputs": [],
      "stateMutability": "nonpayable",
      "type": "function"
    }
  ],
  "bytecode": "0x608060405234801561001057600080fd5b50604051611ffd380380611ffd8339818101604052608081101561003357600080fd5b8101908080519060200190929190805190602001909291908051906020019092919080519060200190929190505050836000806101000a81548173ffffffffffffffffffffffffffffffffffffffff021916908373ffffffffffffffffffffffffffffffffffffffff16021790555082600160006101000a81548173ffffffffffffffffffffffffffffffffffffffff021916908373ffffffffffffffffffffffffffffffffffffffff16021790555081600260006101000a81548173ffffffffffffffffffffffffffffffffffffffff021916908373ffffffffffffffffffffffffffffffffffffffff16021790555080600360006101000a81548173ffffffffffffffffffffffffffffffffffffffff021916908373ffffffffffffffffffffffffffffffffffffffff16021790555050505050611e85806101786000396000f3fe60806040526004361061004e5760003560e01c80630c035d5f146100b45780633f430f831461014c57806377f78ad3146101a3578063a1764595146101fa578063dbc93ba014610251576100af565b366100af57600360009054906101000a900473ffffffffffffffffffffffffffffffffffffffff1673ffffffffffffffffffffffffffffffffffffffff163373ffffffffffffffffffffffffffffffffffffffff16146100ad57600080fd5b005b600080fd5b61014a600480360360a08110156100ca57600080fd5b81019080803573ffffffffffffffffffffffffffffffffffffffff169060200190929190803573ffffffffffffffffffffffffffffffffffffffff1690602001909291908035906020019092919080359060200190929190803573ffffffffffffffffffffffffffffffffffffffff1690602001909291905050506102f6565b005b34801561015857600080fd5b50610161610feb565b604051808273ffffffffffffffffffffffffffffffffffffffff1673ffffffffffffffffffffffffffffffffffffffff16815260200191505060405180910390f35b3480156101af57600080fd5b506101b8611011565b604051808273ffffffffffffffffffffffffffffffffffffffff1673ffffffffffffffffffffffffffffffffffffffff16815260200191505060405180910390f35b34801561020657600080fd5b5061020f611037565b604051808273ffffffffffffffffffffffffffffffffffffffff1673ffffffffffffffffffffffffffffffffffffffff16815260200191505060405180910390f35b34801561025d57600080fd5b506102f4600480360360a081101561027457600080fd5b81019080803573ffffffffffffffffffffffffffffffffffffffff169060200190929190803573ffffffffffffffffffffffffffffffffffffffff1690602001909291908035906020019092919080359060200190929190803573ffffffffffffffffffffffffffffffffffffffff16906020019092919050505061105d565b005b6000341480156103335750600073ffffffffffffffffffffffffffffffffffffffff168573ffffffffffffffffffffffffffffffffffffffff1614155b806103775750600034141580156103765750600073ffffffffffffffffffffffffffffffffffffffff168573ffffffffffffffffffffffffffffffffffffffff16145b5b6103cc576040517f08c379a0000000000000000000000000000000000000000000000000000000008152600401808060200182810382526025815260200180611e2b6025913960400191505060405180910390fd5b6060600267ffffffffffffffff811180156103e657600080fd5b506040519080825280602002602001820160405280156104155781602001602082028036833780820191505090505b509050600073ffffffffffffffffffffffffffffffffffffffff168673ffffffffffffffffffffffffffffffffffffffff1614156104bc57600360009054906101000a900473ffffffffffffffffffffffffffffffffffffffff168160008151811061047d57fe5b602002602001019073ffffffffffffffffffffffffffffffffffffffff16908173ffffffffffffffffffffffffffffffffffffffff1681525050610505565b85816000815181106104ca57fe5b602002602001019073ffffffffffffffffffffffffffffffffffffffff16908173ffffffffffffffffffffffffffffffffffffffff16815250505b600160009054906101000a900473ffffffffffffffffffffffffffffffffffffffff168160018151811061053557fe5b602002602001019073ffffffffffffffffffffffffffffffffffffffff16908173ffffffffffffffffffffffffffffffffffffffff1681525050600073ffffffffffffffffffffffffffffffffffffffff168673ffffffffffffffffffffffffffffffffffffffff16141561078757600360009054906101000a900473ffffffffffffffffffffffffffffffffffffffff1673ffffffffffffffffffffffffffffffffffffffff1663d0e30db0856040518263ffffffff1660e01b81526004016000604051808303818588803b15801561060e57600080fd5b505af1158015610622573d6000803e3d6000fd5b5050505050600360009054906101000a900473ffffffffffffffffffffffffffffffffffffffff1673ffffffffffffffffffffffffffffffffffffffff1663095ea7b3600260009054906101000a900473ffffffffffffffffffffffffffffffffffffffff16866040518363ffffffff1660e01b8152600401808373ffffffffffffffffffffffffffffffffffffffff1673ffffffffffffffffffffffffffffffffffffffff16815260200182815260200192505050602060405180830381600087803b1580156106f257600080fd5b505af1158015610706573d6000803e3d6000fd5b505050506040513d602081101561071c57600080fd5b8101908080519060200190929190505050610782576040517f08c379a0000000000000000000000000000000000000000000000000000000008152600401808060200182810382526028815260200180611e036028913960400191505060405180910390fd5b610b90565b6000869050848173ffffffffffffffffffffffffffffffffffffffff1663dd62ed3e33306040518363ffffffff1660e01b8152600401808373ffffffffffffffffffffffffffffffffffffffff1673ffffffffffffffffffffffffffffffffffffffff1681526020018273ffffffffffffffffffffffffffffffffffffffff1673ffffffffffffffffffffffffffffffffffffffff1681526020019250505060206040518083038186803b15801561083e57600080fd5b505afa158015610852573d6000803e3d6000fd5b505050506040513d602081101561086857600080fd5b810190808051906020019092919050505010156108ed576040517f08c379a000000000000000000000000000000000000000000000000000000000815260040180806020018281038252601f8152602001807f627579546f6b656e733a206e6f7420656e6f75676820616c6c6f77616e63650081525060200191505060405180910390fd5b8073ffffffffffffffffffffffffffffffffffffffff166323b872dd3330886040518463ffffffff1660e01b8152600401808473ffffffffffffffffffffffffffffffffffffffff1673ffffffffffffffffffffffffffffffffffffffff1681526020018373ffffffffffffffffffffffffffffffffffffffff1673ffffffffffffffffffffffffffffffffffffffff1681526020018281526020019350505050602060405180830381600087803b1580156109a857600080fd5b505af11580156109bc573d6000803e3d6000fd5b505050506040513d60208110156109d257600080fd5b8101908080519060200190929190505050610a55576040517f08c379a00000000000000000000000000000000000000000000000000000000081526004018080602001828103825260208152602001807f627579546f6b656e733a206572633230207472616e73666572206661696c656481525060200191505060405180910390fd5b8073ffffffffffffffffffffffffffffffffffffffff1663095ea7b3600260009054906101000a900473ffffffffffffffffffffffffffffffffffffffff16876040518363ffffffff1660e01b8152600401808373ffffffffffffffffffffffffffffffffffffffff1673ffffffffffffffffffffffffffffffffffffffff16815260200182815260200192505050602060405180830381600087803b158015610afe57600080fd5b505af1158015610b12573d6000803e3d6000fd5b505050506040513d6020811015610b2857600080fd5b8101908080519060200190929190505050610b8e576040517f08c379a0000000000000000000000000000000000000000000000000000000008152600401808060200182810382526029815260200180611d696029913960400191505060405180910390fd5b505b600260009054906101000a900473ffffffffffffffffffffffffffffffffffffffff1673ffffffffffffffffffffffffffffffffffffffff16635c11d7958560018430600142016040518663ffffffff1660e01b815260040180868152602001858152602001806020018473ffffffffffffffffffffffffffffffffffffffff1673ffffffffffffffffffffffffffffffffffffffff168152602001838152602001828103825285818151815260200191508051906020019060200280838360005b83811015610c6d578082015181840152602081019050610c52565b505050509050019650505050505050600060405180830381600087803b158015610c9657600080fd5b505af1158015610caa573d6000803e3d6000fd5b505050506000600160009054906101000a900473ffffffffffffffffffffffffffffffffffffffff1673ffffffffffffffffffffffffffffffffffffffff166370a08231306040518263ffffffff1660e01b8152600401808273ffffffffffffffffffffffffffffffffffffffff1673ffffffffffffffffffffffffffffffffffffffff16815260200191505060206040518083038186803b158015610d4f57600080fd5b505afa158015610d63573d6000803e3d6000fd5b505050506040513d6020811015610d7957600080fd5b81019080805190602001909291905050509050600160009054906101000a900473ffffffffffffffffffffffffffffffffffffffff1673ffffffffffffffffffffffffffffffffffffffff1663095ea7b36000809054906101000a900473ffffffffffffffffffffffffffffffffffffffff16836040518363ffffffff1660e01b8152600401808373ffffffffffffffffffffffffffffffffffffffff1673ffffffffffffffffffffffffffffffffffffffff16815260200182815260200192505050602060405180830381600087803b158015610e5657600080fd5b505af1158015610e6a573d6000803e3d6000fd5b505050506040513d6020811015610e8057600080fd5b8101908080519060200190929190505050610ee6576040517f08c379a0000000000000000000000000000000000000000000000000000000008152600401808060200182810382526025815260200180611db86025913960400191505060405180910390fd5b6000809054906101000a900473ffffffffffffffffffffffffffffffffffffffff1673ffffffffffffffffffffffffffffffffffffffff1663a7f08f8d878387876040518563ffffffff1660e01b8152600401808573ffffffffffffffffffffffffffffffffffffffff1673ffffffffffffffffffffffffffffffffffffffff1681526020018481526020018381526020018273ffffffffffffffffffffffffffffffffffffffff1673ffffffffffffffffffffffffffffffffffffffff168152602001945050505050600060405180830381600087803b158015610fca57600080fd5b505af1158015610fde573d6000803e3d6000fd5b5050505050505050505050565b600260009054906101000a900473ffffffffffffffffffffffffffffffffffffffff1681565b600160009054906101000a900473ffffffffffffffffffffffffffffffffffffffff1681565b600360009054906101000a900473ffffffffffffffffffffffffffffffffffffffff1681565b6060600267ffffffffffffffff8111801561107757600080fd5b506040519080825280602002602001820160405280156110a65781602001602082028036833780820191505090505b509050600160009054906101000a900473ffffffffffffffffffffffffffffffffffffffff16816000815181106110d957fe5b602002602001019073ffffffffffffffffffffffffffffffffffffffff16908173ffffffffffffffffffffffffffffffffffffffff1681525050600073ffffffffffffffffffffffffffffffffffffffff168673ffffffffffffffffffffffffffffffffffffffff1614156111b757600360009054906101000a900473ffffffffffffffffffffffffffffffffffffffff168160018151811061117857fe5b602002602001019073ffffffffffffffffffffffffffffffffffffffff16908173ffffffffffffffffffffffffffffffffffffffff1681525050611200565b85816001815181106111c557fe5b602002602001019073ffffffffffffffffffffffffffffffffffffffff16908173ffffffffffffffffffffffffffffffffffffffff16815250505b838573ffffffffffffffffffffffffffffffffffffffff1663dd62ed3e33306040518363ffffffff1660e01b8152600401808373ffffffffffffffffffffffffffffffffffffffff1673ffffffffffffffffffffffffffffffffffffffff1681526020018273ffffffffffffffffffffffffffffffffffffffff1673ffffffffffffffffffffffffffffffffffffffff1681526020019250505060206040518083038186803b1580156112b257600080fd5b505afa1580156112c6573d6000803e3d6000fd5b505050506040513d60208110156112dc57600080fd5b81019080805190602001909291905050501015611361576040517f08c379a00000000000000000000000000000000000000000000000000000000081526004018080602001828103825260208152602001807f73656c6c546f6b656e733a206e6f7420656e6f75676820616c6c6f77616e636581525060200191505060405180910390fd5b8473ffffffffffffffffffffffffffffffffffffffff166323b872dd3330876040518463ffffffff1660e01b8152600401808473ffffffffffffffffffffffffffffffffffffffff1673ffffffffffffffffffffffffffffffffffffffff1681526020018373ffffffffffffffffffffffffffffffffffffffff1673ffffffffffffffffffffffffffffffffffffffff1681526020018281526020019350505050602060405180830381600087803b15801561141c57600080fd5b505af1158015611430573d6000803e3d6000fd5b505050506040513d602081101561144657600080fd5b81019080805190602001909291905050506114ac576040517f08c379a0000000000000000000000000000000000000000000000000000000008152600401808060200182810382526026815260200180611d926026913960400191505060405180910390fd5b8473ffffffffffffffffffffffffffffffffffffffff1663095ea7b36000809054906101000a900473ffffffffffffffffffffffffffffffffffffffff16866040518363ffffffff1660e01b8152600401808373ffffffffffffffffffffffffffffffffffffffff1673ffffffffffffffffffffffffffffffffffffffff16815260200182815260200192505050602060405180830381600087803b15801561155457600080fd5b505af1158015611568573d6000803e3d6000fd5b505050506040513d602081101561157e57600080fd5b81019080805190602001909291905050506115e4576040517f08c379a0000000000000000000000000000000000000000000000000000000008152600401808060200182810382526026815260200180611ddd6026913960400191505060405180910390fd5b6000809054906101000a900473ffffffffffffffffffffffffffffffffffffffff1673ffffffffffffffffffffffffffffffffffffffff1663aa556e0b86866001306040518563ffffffff1660e01b8152600401808573ffffffffffffffffffffffffffffffffffffffff1673ffffffffffffffffffffffffffffffffffffffff1681526020018481526020018381526020018273ffffffffffffffffffffffffffffffffffffffff1673ffffffffffffffffffffffffffffffffffffffff168152602001945050505050600060405180830381600087803b1580156116c957600080fd5b505af11580156116dd573d6000803e3d6000fd5b505050506000600160009054906101000a900473ffffffffffffffffffffffffffffffffffffffff1673ffffffffffffffffffffffffffffffffffffffff166370a08231306040518263ffffffff1660e01b8152600401808273ffffffffffffffffffffffffffffffffffffffff1673ffffffffffffffffffffffffffffffffffffffff16815260200191505060206040518083038186803b15801561178257600080fd5b505afa158015611796573d6000803e3d6000fd5b505050506040513d60208110156117ac57600080fd5b81019080805190602001909291905050509050600160009054906101000a900473ffffffffffffffffffffffffffffffffffffffff1673ffffffffffffffffffffffffffffffffffffffff1663095ea7b3600260009054906101000a900473ffffffffffffffffffffffffffffffffffffffff16836040518363ffffffff1660e01b8152600401808373ffffffffffffffffffffffffffffffffffffffff1673ffffffffffffffffffffffffffffffffffffffff16815260200182815260200192505050602060405180830381600087803b15801561188a57600080fd5b505af115801561189e573d6000803e3d6000fd5b505050506040513d60208110156118b457600080fd5b8101908080519060200190929190505050611937576040517f08c379a000000000000000000000000000000000000000000000000000000000815260040180806020018281038252601e8152602001807f73656c6c546f6b656e733a2064616920617070726f7665206661696c6564000081525060200191505060405180910390fd5b600073ffffffffffffffffffffffffffffffffffffffff168773ffffffffffffffffffffffffffffffffffffffff161415611c4157600260009054906101000a900473ffffffffffffffffffffffffffffffffffffffff1673ffffffffffffffffffffffffffffffffffffffff16635c11d79582868530600142016040518663ffffffff1660e01b815260040180868152602001858152602001806020018473ffffffffffffffffffffffffffffffffffffffff1673ffffffffffffffffffffffffffffffffffffffff168152602001838152602001828103825285818151815260200191508051906020019060200280838360005b83811015611a48578082015181840152602081019050611a2d565b505050509050019650505050505050600060405180830381600087803b158015611a7157600080fd5b505af1158015611a85573d6000803e3d6000fd5b505050506000600360009054906101000a900473ffffffffffffffffffffffffffffffffffffffff1673ffffffffffffffffffffffffffffffffffffffff166370a08231306040518263ffffffff1660e01b8152600401808273ffffffffffffffffffffffffffffffffffffffff1673ffffffffffffffffffffffffffffffffffffffff16815260200191505060206040518083038186803b158015611b2a57600080fd5b505afa158015611b3e573d6000803e3d6000fd5b505050506040513d6020811015611b5457600080fd5b81019080805190602001909291905050509050600360009054906101000a900473ffffffffffffffffffffffffffffffffffffffff1673ffffffffffffffffffffffffffffffffffffffff16632e1a7d4d826040518263ffffffff1660e01b815260040180828152602001915050600060405180830381600087803b158015611bdc57600080fd5b505af1158015611bf0573d6000803e3d6000fd5b505050503373ffffffffffffffffffffffffffffffffffffffff166108fc829081150290604051600060405180830381858888f19350505050158015611c3a573d6000803e3d6000fd5b5050611d5f565b600260009054906101000a900473ffffffffffffffffffffffffffffffffffffffff1673ffffffffffffffffffffffffffffffffffffffff16635c11d79582868587600142016040518663ffffffff1660e01b815260040180868152602001858152602001806020018473ffffffffffffffffffffffffffffffffffffffff1673ffffffffffffffffffffffffffffffffffffffff168152602001838152602001828103825285818151815260200191508051906020019060200280838360005b83811015611d1d578082015181840152602081019050611d02565b505050509050019650505050505050600060405180830381600087803b158015611d4657600080fd5b505af1158015611d5a573d6000803e3d6000fd5b505050505b5050505050505056fe627579546f6b656e733a206661696c656420746f20657263323020617070726f766520726f7574657273656c6c546f6b656e733a206964656120746f6b656e207472616e73666572206661696c6564627579546f6b656e733a206661696c656420746f20617070726f76652065786368616e676573656c6c546f6b656e733a206661696c656420746f20617070726f76652065786368616e6765627579546f6b656e733a206661696c656420746f207765746820617070726f766520726f75746572627579546f6b656e733a20696e7075742065697468657220657468206f7220746f6b656e73a2646970667358221220b19c0c0a8a1b274027acf005eaf41ebf7a9870f5655f66553f931418ee8cd95564736f6c63430006090033",
  "immutableReferences": {},
  "source": "// SPDX-License-Identifier: MIT\r\npragma solidity ^0.6.9;\r\n\r\nimport \"@openzeppelin/contracts/token/ERC20/IERC20.sol\";\r\nimport \"../weth/IWETH.sol\";\r\nimport \"../uniswap/IUniswapV2Router02.sol\";\r\nimport \"./IIdeaTokenExchange.sol\";\r\n\r\n/**\r\n * @title CurrencyConverter\r\n * @author Alexander Schlindwein\r\n *\r\n * @dev Allows to use different currencies to buy/sell IdeaTokens by integrating UniswapV2\r\n */\r\ncontract CurrencyConverter {\r\n\r\n    IIdeaTokenExchange _ideaTokenExchange;\r\n    IERC20 public _dai;\r\n    IUniswapV2Router02 public _uniswapV2Router02;\r\n    IWETH public _weth;\r\n\r\n    /**\r\n     * @param ideaTokenExchange The address of the IdeaTokenExchange contract\r\n     * @param dai The address of the Dai token\r\n     * @param uniswapV2Router02 The address of the UniswapV2Router02 contract\r\n     * @param weth The address of the WETH token\r\n     */\r\n    constructor(address ideaTokenExchange,\r\n                address dai,\r\n                address uniswapV2Router02,\r\n                address weth) public {\r\n        _ideaTokenExchange = IIdeaTokenExchange(ideaTokenExchange);\r\n        _dai = IERC20(dai);\r\n        _uniswapV2Router02 = IUniswapV2Router02(uniswapV2Router02);\r\n        _weth = IWETH(weth);\r\n    }\r\n\r\n    /**\r\n     * @dev Converts an input currency to Dai and buys IdeaTokens\r\n     *\r\n     * @param inputCurrency The address of the input currency. 0x0 means ETH\r\n     * @param ideaToken The address of the IdeaToken to buy\r\n     * @param inputAmount The amount of inputCurrency to spend\r\n     * @param minOutput The minimum output in IdeaTokens\r\n     * @param recipient The recipient of the IdeaTokens\r\n     */\r\n    function buyTokens(address inputCurrency,\r\n                       address ideaToken,\r\n                       uint inputAmount,\r\n                       uint minOutput,\r\n                       address recipient) external payable {\r\n        require((msg.value == 0 && inputCurrency != address(0)) ||\r\n                (msg.value != 0 && inputCurrency == address(0)), \"buyTokens: input either eth or tokens\");\r\n\r\n        address[] memory path = new address[](2);\r\n        if(inputCurrency == address(0)) {\r\n            path[0] = address(_weth);\r\n        } else {\r\n            path[0] = inputCurrency;\r\n        }\r\n        path[1] = address(_dai);\r\n\r\n\r\n        \r\n        if(inputCurrency == address(0)) {\r\n            _weth.deposit{value: inputAmount}();\r\n            require(IERC20(address(_weth)).approve(address(_uniswapV2Router02), inputAmount), \"buyTokens: failed to weth approve router\");\r\n        } else {\r\n            IERC20 inputERC20 = IERC20(inputCurrency);\r\n            require(inputERC20.allowance(msg.sender, address(this)) >= inputAmount, \"buyTokens: not enough allowance\");\r\n            require(inputERC20.transferFrom(msg.sender, address(this), inputAmount), \"buyTokens: erc20 transfer failed\");\r\n            require(inputERC20.approve(address(_uniswapV2Router02), inputAmount), \"buyTokens: failed to erc20 approve router\");\r\n        }\r\n\r\n        _uniswapV2Router02.swapExactTokensForTokensSupportingFeeOnTransferTokens(inputAmount,\r\n                                                                                 1,\r\n                                                                                 path,\r\n                                                                                 address(this),\r\n                                                                                 now + 1);\r\n\r\n        uint daiBalance = _dai.balanceOf(address(this));\r\n        require(_dai.approve(address(_ideaTokenExchange), daiBalance), \"buyTokens: failed to approve exchange\");\r\n\r\n        _ideaTokenExchange.buyTokens(ideaToken, daiBalance, minOutput, recipient);\r\n    }\r\n\r\n    /**\r\n     * @dev Sells IdeaTokens and converts the received Dai to a specified currency\r\n     *\r\n     * @param outputCurrency The address of the desired output currency\r\n     * @param ideaToken The address of the IdeaToken to sell\r\n     * @param tokenAmount The amount of IdeaTokens to sell\r\n     * @param minOutput The minimum output in outputCurrency for the sell\r\n     * @param recipient The recipient of the output currency\r\n     */\r\n    function sellTokens(address outputCurrency,\r\n                        address ideaToken,\r\n                        uint tokenAmount,\r\n                        uint minOutput,\r\n                        address recipient) external {\r\n\r\n        address[] memory path = new address[](2);\r\n        path[0] = address(_dai);\r\n        if(outputCurrency == address(0)) {\r\n            path[1] = address(_weth);\r\n        } else {\r\n            path[1] = outputCurrency;\r\n        }\r\n\r\n        require(IERC20(ideaToken).allowance(msg.sender, address(this)) >= tokenAmount, \"sellTokens: not enough allowance\");\r\n        require(IERC20(ideaToken).transferFrom(msg.sender, address(this), tokenAmount), \"sellTokens: idea token transfer failed\");\r\n        require(IERC20(ideaToken).approve(address(_ideaTokenExchange), tokenAmount), \"sellTokens: failed to approve exchange\");\r\n\r\n        _ideaTokenExchange.sellTokens(ideaToken, tokenAmount, 1, address(this));\r\n\r\n        uint daiBalance = _dai.balanceOf(address(this));\r\n        require(_dai.approve(address(_uniswapV2Router02), daiBalance), \"sellTokens: dai approve failed\");\r\n\r\n        if(outputCurrency == address(0)) {\r\n            _uniswapV2Router02.swapExactTokensForTokensSupportingFeeOnTransferTokens(daiBalance,\r\n                                                                                     minOutput,\r\n                                                                                     path,\r\n                                                                                     address(this),\r\n                                                                                     now + 1);\r\n\r\n            uint wethBalance = IERC20(address(_weth)).balanceOf(address(this)); \r\n            _weth.withdraw(wethBalance);\r\n            msg.sender.transfer(wethBalance);\r\n        } else {\r\n            _uniswapV2Router02.swapExactTokensForTokensSupportingFeeOnTransferTokens(daiBalance,\r\n                                                                                     minOutput,\r\n                                                                                     path,\r\n                                                                                     recipient,\r\n                                                                                     now + 1);\r\n        }\r\n    }\r\n\r\n    /**\r\n     * @dev Fallback required for WETH withdraw. Fails if sender is not WETH contract\r\n     */\r\n    receive() external payable {\r\n        require(msg.sender == address(_weth));\r\n    } \r\n}",
  "sourcePath": "C:/Users/Alexander/Desktop/ideamarket-contracts/contracts/core/CurrencyConverter.sol",
  "compiler": {
    "name": "solc",
    "version": "0.6.9+commit.3e3065ac.Emscripten.clang"
  },
  "schemaVersion": "3.3.0",
  "updatedAt": "2020-10-18T10:34:42.757Z",
  "devdoc": {
    "author": "Alexander Schlindwein",
    "details": "Allows to use different currencies to buy/sell IdeaTokens by integrating UniswapV2",
    "methods": {
      "buyTokens(address,address,uint256,uint256,address)": {
        "details": "Converts an input currency to Dai and buys IdeaTokens",
        "params": {
          "ideaToken": "The address of the IdeaToken to buy",
          "inputAmount": "The amount of inputCurrency to spend",
          "inputCurrency": "The address of the input currency. 0x0 means ETH",
          "minOutput": "The minimum output in IdeaTokens",
          "recipient": "The recipient of the IdeaTokens"
        }
      },
      "constructor": {
        "params": {
          "dai": "The address of the Dai token",
          "ideaTokenExchange": "The address of the IdeaTokenExchange contract",
          "uniswapV2Router02": "The address of the UniswapV2Router02 contract",
          "weth": "The address of the WETH token"
        }
      },
      "sellTokens(address,address,uint256,uint256,address)": {
        "details": "Sells IdeaTokens and converts the received Dai to a specified currency",
        "params": {
          "ideaToken": "The address of the IdeaToken to sell",
          "minOutput": "The minimum output in outputCurrency for the sell",
          "outputCurrency": "The address of the desired output currency",
          "recipient": "The recipient of the output currency",
          "tokenAmount": "The amount of IdeaTokens to sell"
        }
      }
    },
    "title": "CurrencyConverter"
  },
  "userdoc": {
    "methods": {}
  }
}