{
  "contractName": "DomainNoSubdomainNameVerifier",
  "abi": [
    {
      "inputs": [
        {
          "internalType": "string",
          "name": "name",
          "type": "string"
        }
      ],
      "name": "verifyTokenName",
      "outputs": [
        {
          "internalType": "bool",
          "name": "",
          "type": "bool"
        }
      ],
      "stateMutability": "pure",
      "type": "function"
    }
  ],
  "bytecode": "0x608060405234801561001057600080fd5b50610377806100206000396000f3fe608060405234801561001057600080fd5b506004361061002b5760003560e01c80634c8bc1c914610030575b600080fd5b6100a76004803603602081101561004657600080fd5b810190808035906020019064010000000081111561006357600080fd5b82018360208201111561007557600080fd5b8035906020019184600183028401116401000000008311171561009757600080fd5b90919293919293905050506100c1565b604051808215151515815260200191505060405180910390f35b6000606083838080601f016020809104026020016040519081016040528093929190818152602001838380828437600081840152601f19601f82011690508083019250505050505050905060008090506000809050600080905060008090505b845181101561032057600085828151811061013857fe5b602001015160f81c60f81b9050603060f81b817effffffffffffffffffffffffffffffffffffffffffffffffffffffffffffff1916101580156101a15750603960f81b817effffffffffffffffffffffffffffffffffffffffffffffffffffffffffffff191611155b1580156102075750606160f81b817effffffffffffffffffffffffffffffffffffffffffffffffffffffffffffff1916101580156102055750607a60f81b817effffffffffffffffffffffffffffffffffffffffffffffffffffffffffffff191611155b155b80156102395750602d60f81b817effffffffffffffffffffffffffffffffffffffffffffffffffffffffffffff191614155b801561026b5750602e60f81b817effffffffffffffffffffffffffffffffffffffffffffffffffffffffffffff191614155b801561029d5750605f60f81b817effffffffffffffffffffffffffffffffffffffffffffffffffffffffffffff191614155b156102b1576000965050505050505061033b565b602e60f81b817effffffffffffffffffffffffffffffffffffffffffffffffffffffffffffff191614156102fd5783156102f4576000965050505050505061033b565b60019350610312565b831561030c5760019250610311565b600194505b5b508080600101915050610121565b5082801561032b5750815b80156103345750805b9450505050505b9291505056fea2646970667358221220fb74a15cce0d83c58158dec8da45037be00544be4cb77d3d991ae201929d95da64736f6c63430006090033",
  "immutableReferences": {},
  "source": "// SPDX-License-Identifier: MIT\r\npragma solidity ^0.6.9;\r\n\r\nimport \"./IIdeaTokenNameVerifier.sol\";\r\n\r\n/**\r\n * @title DomainNoSubdomainNameVerifier\r\n * @author Alexander Schlindwein\r\n *\r\n * @dev Verifies a string to be a domain names: 0-9 and a-z and - (hyphen). Excludes subdomains\r\n */\r\ncontract DomainNoSubdomainNameVerifier is IIdeaTokenNameVerifier {\r\n    /**\r\n     * @dev Verifies whether a string matches the required format\r\n     *\r\n     * @param name The input string (domain name)\r\n     *\r\n     * @return Bool; True=matches, False=does not match\r\n     */\r\n    function verifyTokenName(string calldata name) external pure override returns (bool) {\r\n        bytes memory b = bytes(name);\r\n        bool hasDomain = false;\r\n        bool hasDot = false;\r\n        bool hasTLD = false;\r\n\r\n        for(uint i = 0; i < b.length; i++) {\r\n            bytes1 char = b[i];\r\n            if (!(char >= 0x30 && char <= 0x39) && //9-0\r\n                !(char >= 0x61 && char <= 0x7A) && //a-z\r\n                !(char == 0x2D) && //-\r\n                !(char == 0x2E) && //.\r\n                !(char == 0x5F)) {//_\r\n                    return false;\r\n                }\r\n\r\n             if (char == 0x2E) { // .\r\n                if(hasDot) {\r\n                    // There is already a dot -> no subdomains allowed\r\n                    return false;\r\n                }\r\n                hasDot = true;\r\n             } else {\r\n                if(hasDot) {\r\n                    hasTLD = true;\r\n                } else {\r\n                    hasDomain = true;\r\n                }\r\n             }\r\n        }\r\n\r\n        return hasDomain && hasDot && hasTLD;\r\n    }\r\n}\r\n",
  "sourcePath": "C:/Users/alexa/Desktop/ideamarket-contracts/contracts/core/nameVerifiers/DomainNoSubdomainNameVerifier.sol",
  "compiler": {
    "name": "solc",
    "version": "0.6.9+commit.3e3065ac.Emscripten.clang"
  },
  "schemaVersion": "3.2.3",
  "updatedAt": "2020-10-13T10:03:13.812Z",
  "devdoc": {
    "author": "Alexander Schlindwein",
    "details": "Verifies a string to be a domain names: 0-9 and a-z and - (hyphen). Excludes subdomains",
    "methods": {
      "verifyTokenName(string)": {
        "details": "Verifies whether a string matches the required format",
        "params": {
          "name": "The input string (domain name)"
        },
        "returns": {
          "_0": "Bool; True=matches, False=does not match"
        }
      }
    },
    "title": "DomainNoSubdomainNameVerifier"
  },
  "userdoc": {
    "methods": {}
  }
}