{
  "contractName": "IdeaTokenFactory",
  "abi": [
    {
      "anonymous": false,
      "inputs": [
        {
          "indexed": false,
          "internalType": "uint256",
          "name": "id",
          "type": "uint256"
        },
        {
          "indexed": false,
          "internalType": "string",
          "name": "name",
          "type": "string"
        }
      ],
      "name": "NewMarket",
      "type": "event"
    },
    {
      "anonymous": false,
      "inputs": [
        {
          "indexed": false,
          "internalType": "uint256",
          "name": "id",
          "type": "uint256"
        },
        {
          "indexed": false,
          "internalType": "uint256",
          "name": "marketID",
          "type": "uint256"
        },
        {
          "indexed": false,
          "internalType": "string",
          "name": "name",
          "type": "string"
        }
      ],
      "name": "NewToken",
      "type": "event"
    },
    {
      "inputs": [
        {
          "internalType": "string",
          "name": "",
          "type": "string"
        }
      ],
      "name": "_marketIDs",
      "outputs": [
        {
          "internalType": "uint256",
          "name": "",
          "type": "uint256"
        }
      ],
      "stateMutability": "view",
      "type": "function"
    },
    {
      "inputs": [
        {
          "internalType": "uint256",
          "name": "",
          "type": "uint256"
        }
      ],
      "name": "_markets",
      "outputs": [
        {
          "internalType": "bool",
          "name": "exists",
          "type": "bool"
        },
        {
          "internalType": "uint256",
          "name": "id",
          "type": "uint256"
        },
        {
          "internalType": "string",
          "name": "name",
          "type": "string"
        },
        {
          "internalType": "contract IIdeaTokenNameVerifier",
          "name": "nameVerifier",
          "type": "address"
        },
        {
          "internalType": "uint256",
          "name": "numTokens",
          "type": "uint256"
        }
      ],
      "stateMutability": "view",
      "type": "function"
    },
    {
      "inputs": [],
      "name": "_numMarkets",
      "outputs": [
        {
          "internalType": "uint256",
          "name": "",
          "type": "uint256"
        }
      ],
      "stateMutability": "view",
      "type": "function"
    },
    {
      "inputs": [],
      "name": "_owner",
      "outputs": [
        {
          "internalType": "address",
          "name": "",
          "type": "address"
        }
      ],
      "stateMutability": "view",
      "type": "function"
    },
    {
      "inputs": [
        {
          "internalType": "string",
          "name": "",
          "type": "string"
        }
      ],
      "name": "tokenNameUsed",
      "outputs": [
        {
          "internalType": "bool",
          "name": "",
          "type": "bool"
        }
      ],
      "stateMutability": "view",
      "type": "function"
    },
    {
      "inputs": [
        {
          "internalType": "address",
          "name": "owner",
          "type": "address"
        }
      ],
      "name": "initialize",
      "outputs": [],
      "stateMutability": "nonpayable",
      "type": "function"
    },
    {
      "inputs": [
        {
          "internalType": "string",
          "name": "marketName",
          "type": "string"
        },
        {
          "internalType": "address",
          "name": "nameVerifier",
          "type": "address"
        }
      ],
      "name": "addMarket",
      "outputs": [],
      "stateMutability": "nonpayable",
      "type": "function"
    },
    {
      "inputs": [
        {
          "internalType": "string",
          "name": "tokenName",
          "type": "string"
        },
        {
          "internalType": "uint256",
          "name": "marketID",
          "type": "uint256"
        }
      ],
      "name": "addToken",
      "outputs": [],
      "stateMutability": "nonpayable",
      "type": "function"
    }
  ],
  "bytecode": "0x608060405234801561001057600080fd5b5033603360006101000a81548173ffffffffffffffffffffffffffffffffffffffff021916908373ffffffffffffffffffffffffffffffffffffffff160217905550612d82806100616000396000f3fe60806040523480156200001157600080fd5b5060043610620000945760003560e01c8063c4d66de81162000063578063c4d66de814620002e6578063cfc0dee0146200032d578063d07a7a28146200034d578063fdd9b97414620004465762000094565b8063739fe54b14620000995780638ca132f714620001725780639e485ffc14620001fb578063b2bdfa7b146200029a575b600080fd5b6200015860048036036020811015620000b157600080fd5b8101908080359060200190640100000000811115620000cf57600080fd5b820183602082011115620000e257600080fd5b803590602001918460018302840111640100000000831117156200010557600080fd5b91908080601f016020809104026020016040519081016040528093929190818152602001838380828437600081840152601f19601f8201169050808301925050505050505091929192905050506200051b565b604051808215151515815260200191505060405180910390f35b620001f9600480360360408110156200018a57600080fd5b8101908080359060200190640100000000811115620001a857600080fd5b820183602082011115620001bb57600080fd5b80359060200191846001830284011164010000000083111715620001de57600080fd5b90919293919293908035906020019092919050505062000551565b005b62000298600480360360408110156200021357600080fd5b81019080803590602001906401000000008111156200023157600080fd5b8201836020820111156200024457600080fd5b803590602001918460018302840111640100000000831117156200026757600080fd5b9091929391929390803573ffffffffffffffffffffffffffffffffffffffff16906020019092919050505062000aa3565b005b620002a462000df8565b604051808273ffffffffffffffffffffffffffffffffffffffff1673ffffffffffffffffffffffffffffffffffffffff16815260200191505060405180910390f35b6200032b60048036036020811015620002fe57600080fd5b81019080803573ffffffffffffffffffffffffffffffffffffffff16906020019092919050505062000e1e565b005b6200033762000f67565b6040518082815260200191505060405180910390f35b6200037c600480360360208110156200036557600080fd5b810190808035906020019092919050505062000f6d565b6040518086151515158152602001858152602001806020018473ffffffffffffffffffffffffffffffffffffffff1673ffffffffffffffffffffffffffffffffffffffff168152602001838152602001828103825285818151815260200191508051906020019080838360005b8381101562000406578082015181840152602081019050620003e9565b50505050905090810190601f168015620004345780820380516001836020036101000a031916815260200191505b50965050505050505060405180910390f35b62000505600480360360208110156200045e57600080fd5b81019080803590602001906401000000008111156200047c57600080fd5b8201836020820111156200048f57600080fd5b80359060200191846001830284011164010000000083111715620004b257600080fd5b91908080601f016020809104026020016040519081016040528093929190818152602001838380828437600081840152601f19601f8201169050808301925050505050505091929192905050506200106c565b6040518082815260200191505060405180910390f35b6037818051602081018201805184825260208301602085012081835280955050505050506000915054906101000a900460ff1681565b60006034600083815260200190815260200160002090508060000160009054906101000a900460ff16620005ed576040517f08c379a000000000000000000000000000000000000000000000000000000000815260040180806020018281038252601f8152602001807f616464546f6b656e3a206d61726b657420646f6573206e6f742065786973740081525060200191505060405180910390fd5b60378484604051808383808284378083019250505092505050908152602001604051809103902060009054906101000a900460ff161562000696576040517f08c379a000000000000000000000000000000000000000000000000000000000815260040180806020018281038252601e8152602001807f616464546f6b656e3a20746f6b656e2065786973747320616c7265616479000081525060200191505060405180910390fd5b8060030160009054906101000a900473ffffffffffffffffffffffffffffffffffffffff1673ffffffffffffffffffffffffffffffffffffffff16634c8bc1c985856040518363ffffffff1660e01b815260040180806020018281038252848482818152602001925080828437600081840152601f19601f820116905080830192505050935050505060206040518083038186803b1580156200073857600080fd5b505afa1580156200074d573d6000803e3d6000fd5b505050506040513d60208110156200076457600080fd5b8101908080519060200190929190505050620007cc576040517f08c379a000000000000000000000000000000000000000000000000000000000815260040180806020018281038252602281526020018062002cfd6022913960400191505060405180910390fd5b6000604051620007dc90620010b1565b808060200180602001838103835260098152602001807f746f6b656e4e616d650000000000000000000000000000000000000000000000815250602001838103825260038152602001807f494454000000000000000000000000000000000000000000000000000000000081525060200192505050604051809103906000f0801580156200086e573d6000803e3d6000fd5b50905060008260060160008154600101919050819055905062000890620010bf565b604051806080016040528060011515815260200183815260200188888080601f016020809104026020016040519081016040528093929190818152602001838380828437600081840152601f19601f8201169050808301925050505050505081526020018473ffffffffffffffffffffffffffffffffffffffff1681525090508084600401600084815260200190815260200160002060008201518160000160006101000a81548160ff0219169083151502179055506020820151816001015560408201518160020190805190602001906200096e929190620010ff565b5060608201518160030160006101000a81548173ffffffffffffffffffffffffffffffffffffffff021916908373ffffffffffffffffffffffffffffffffffffffff16021790555090505081846005018888604051808383808284378083019250505092505050908152602001604051809103902081905550600160378888604051808383808284378083019250505092505050908152602001604051809103902060006101000a81548160ff0219169083151502179055507f301c672ea6f378619ccb90a6177100923c2b8363b043f46e329675dab3f0e0f68286898960405180858152602001848152602001806020018281038252848482818152602001925080828437600081840152601f19601f8201169050808301925050509550505050505060405180910390a150505050505050565b3373ffffffffffffffffffffffffffffffffffffffff16603360009054906101000a900473ffffffffffffffffffffffffffffffffffffffff1673ffffffffffffffffffffffffffffffffffffffff161462000b67576040517f08c379a00000000000000000000000000000000000000000000000000000000081526004018080602001828103825260128152602001807f4f776e61626c653a206f6e6c794f776e6572000000000000000000000000000081525060200191505060405180910390fd5b6000603584846040518083838082843780830192505050925050509081526020016040518091039020541462000c05576040517f08c379a00000000000000000000000000000000000000000000000000000000081526004018080602001828103825260208152602001807f6164644d61726b65743a206d61726b65742065786973747320616c726561647981525060200191505060405180910390fd5b6000603660008154600101919050819055905062000c2262001186565b6040518060a0016040528060011515815260200183815260200186868080601f016020809104026020016040519081016040528093929190818152602001838380828437600081840152601f19601f8201169050808301925050505050505081526020018473ffffffffffffffffffffffffffffffffffffffff16815260200160008152509050806034600084815260200190815260200160002060008201518160000160006101000a81548160ff02191690831515021790555060208201518160010155604082015181600201908051906020019062000d05929190620010ff565b5060608201518160030160006101000a81548173ffffffffffffffffffffffffffffffffffffffff021916908373ffffffffffffffffffffffffffffffffffffffff1602179055506080820151816006015590505081603586866040518083838082843780830192505050925050509081526020016040518091039020819055507f0c03e90d10e5f978fc9b022aab9ac8740763701a3e79f508e58303a66605d7d982868660405180848152602001806020018281038252848482818152602001925080828437600081840152601f19601f82011690508083019250505094505050505060405180910390a15050505050565b603360009054906101000a900473ffffffffffffffffffffffffffffffffffffffff1681565b600060019054906101000a900460ff168062000e40575062000e3f6200109a565b5b8062000e5857506000809054906101000a900460ff16155b62000eaf576040517f08c379a000000000000000000000000000000000000000000000000000000000815260040180806020018281038252602e81526020018062002d1f602e913960400191505060405180910390fd5b60008060019054906101000a900460ff16159050801562000f00576001600060016101000a81548160ff02191690831515021790555060016000806101000a81548160ff0219169083151502179055505b81603360006101000a81548173ffffffffffffffffffffffffffffffffffffffff021916908373ffffffffffffffffffffffffffffffffffffffff160217905550801562000f635760008060016101000a81548160ff0219169083151502179055505b5050565b60365481565b60346020528060005260406000206000915090508060000160009054906101000a900460ff1690806001015490806002018054600181600116156101000203166002900480601f016020809104026020016040519081016040528092919081815260200182805460018160011615610100020316600290048015620010365780601f106200100a5761010080835404028352916020019162001036565b820191906000526020600020905b8154815290600101906020018083116200101857829003601f168201915b5050505050908060030160009054906101000a900473ffffffffffffffffffffffffffffffffffffffff16908060060154905085565b6035818051602081018201805184825260208301602085012081835280955050505050506000915090505481565b6000803090506000813b9050600081149250505090565b611b0780620011f683390190565b60405180608001604052806000151581526020016000815260200160608152602001600073ffffffffffffffffffffffffffffffffffffffff1681525090565b828054600181600116156101000203166002900490600052602060002090601f016020900481019282601f106200114257805160ff191683800117855562001173565b8280016001018555821562001173579182015b828111156200117257825182559160200191906001019062001155565b5b509050620011829190620011cd565b5090565b6040518060a001604052806000151581526020016000815260200160608152602001600073ffffffffffffffffffffffffffffffffffffffff168152602001600081525090565b620011f291905b80821115620011ee576000816000905550600101620011d4565b5090565b9056fe60806040523480156200001157600080fd5b5060405162001b0738038062001b07833981810160405260408110156200003757600080fd5b81019080805160405193929190846401000000008211156200005857600080fd5b838201915060208201858111156200006f57600080fd5b82518660018202830111640100000000821117156200008d57600080fd5b8083526020830192505050908051906020019080838360005b83811015620000c3578082015181840152602081019050620000a6565b50505050905090810190601f168015620000f15780820380516001836020036101000a031916815260200191505b50604052602001805160405193929190846401000000008211156200011557600080fd5b838201915060208201858111156200012c57600080fd5b82518660018202830111640100000000821117156200014a57600080fd5b8083526020830192505050908051906020019080838360005b838110156200018057808201518184015260208101905062000163565b50505050905090810190601f168015620001ae5780820380516001836020036101000a031916815260200191505b5060405250505081818160039080519060200190620001cf92919062000250565b508060049080519060200190620001e892919062000250565b506012600560006101000a81548160ff021916908360ff160217905550505033600560016101000a81548173ffffffffffffffffffffffffffffffffffffffff021916908373ffffffffffffffffffffffffffffffffffffffff1602179055505050620002ff565b828054600181600116156101000203166002900490600052602060002090601f016020900481019282601f106200029357805160ff1916838001178555620002c4565b82800160010185558215620002c4579182015b82811115620002c3578251825591602001919060010190620002a6565b5b509050620002d39190620002d7565b5090565b620002fc91905b80821115620002f8576000816000905550600101620002de565b5090565b90565b6117f8806200030f6000396000f3fe608060405234801561001057600080fd5b50600436106100ea5760003560e01c806370a082311161008c578063a457c2d711610066578063a457c2d71461047d578063a9059cbb146104e3578063b2bdfa7b14610549578063dd62ed3e14610593576100ea565b806370a082311461035457806395d89b41146103ac5780639dc29fac1461042f576100ea565b806323b872dd116100c857806323b872dd146101f6578063313ce5671461027c57806339509351146102a057806340c10f1914610306576100ea565b806306fdde03146100ef578063095ea7b31461017257806318160ddd146101d8575b600080fd5b6100f761060b565b6040518080602001828103825283818151815260200191508051906020019080838360005b8381101561013757808201518184015260208101905061011c565b50505050905090810190601f1680156101645780820380516001836020036101000a031916815260200191505b509250505060405180910390f35b6101be6004803603604081101561018857600080fd5b81019080803573ffffffffffffffffffffffffffffffffffffffff169060200190929190803590602001909291905050506106ad565b604051808215151515815260200191505060405180910390f35b6101e06106cb565b6040518082815260200191505060405180910390f35b6102626004803603606081101561020c57600080fd5b81019080803573ffffffffffffffffffffffffffffffffffffffff169060200190929190803573ffffffffffffffffffffffffffffffffffffffff169060200190929190803590602001909291905050506106d5565b604051808215151515815260200191505060405180910390f35b6102846107ae565b604051808260ff1660ff16815260200191505060405180910390f35b6102ec600480360360408110156102b657600080fd5b81019080803573ffffffffffffffffffffffffffffffffffffffff169060200190929190803590602001909291905050506107c5565b604051808215151515815260200191505060405180910390f35b6103526004803603604081101561031c57600080fd5b81019080803573ffffffffffffffffffffffffffffffffffffffff16906020019092919080359060200190929190505050610878565b005b6103966004803603602081101561036a57600080fd5b81019080803573ffffffffffffffffffffffffffffffffffffffff169060200190929190505050610949565b6040518082815260200191505060405180910390f35b6103b4610991565b6040518080602001828103825283818151815260200191508051906020019080838360005b838110156103f45780820151818401526020810190506103d9565b50505050905090810190601f1680156104215780820380516001836020036101000a031916815260200191505b509250505060405180910390f35b61047b6004803603604081101561044557600080fd5b81019080803573ffffffffffffffffffffffffffffffffffffffff16906020019092919080359060200190929190505050610a33565b005b6104c96004803603604081101561049357600080fd5b81019080803573ffffffffffffffffffffffffffffffffffffffff16906020019092919080359060200190929190505050610b04565b604051808215151515815260200191505060405180910390f35b61052f600480360360408110156104f957600080fd5b81019080803573ffffffffffffffffffffffffffffffffffffffff16906020019092919080359060200190929190505050610bd1565b604051808215151515815260200191505060405180910390f35b610551610bef565b604051808273ffffffffffffffffffffffffffffffffffffffff1673ffffffffffffffffffffffffffffffffffffffff16815260200191505060405180910390f35b6105f5600480360360408110156105a957600080fd5b81019080803573ffffffffffffffffffffffffffffffffffffffff169060200190929190803573ffffffffffffffffffffffffffffffffffffffff169060200190929190505050610c15565b6040518082815260200191505060405180910390f35b606060038054600181600116156101000203166002900480601f0160208091040260200160405190810160405280929190818152602001828054600181600116156101000203166002900480156106a35780601f10610678576101008083540402835291602001916106a3565b820191906000526020600020905b81548152906001019060200180831161068657829003601f168201915b5050505050905090565b60006106c16106ba610c9c565b8484610ca4565b6001905092915050565b6000600254905090565b60006106e2848484610e9b565b6107a3846106ee610c9c565b61079e8560405180606001604052806028815260200161170c60289139600160008b73ffffffffffffffffffffffffffffffffffffffff1673ffffffffffffffffffffffffffffffffffffffff1681526020019081526020016000206000610754610c9c565b73ffffffffffffffffffffffffffffffffffffffff1673ffffffffffffffffffffffffffffffffffffffff1681526020019081526020016000205461115c9092919063ffffffff16565b610ca4565b600190509392505050565b6000600560009054906101000a900460ff16905090565b600061086e6107d2610c9c565b8461086985600160006107e3610c9c565b73ffffffffffffffffffffffffffffffffffffffff1673ffffffffffffffffffffffffffffffffffffffff16815260200190815260200160002060008973ffffffffffffffffffffffffffffffffffffffff1673ffffffffffffffffffffffffffffffffffffffff1681526020019081526020016000205461121c90919063ffffffff16565b610ca4565b6001905092915050565b3373ffffffffffffffffffffffffffffffffffffffff16600560019054906101000a900473ffffffffffffffffffffffffffffffffffffffff1673ffffffffffffffffffffffffffffffffffffffff161461093b576040517f08c379a00000000000000000000000000000000000000000000000000000000081526004018080602001828103825260128152602001807f4f776e61626c653a206f6e6c794f776e6572000000000000000000000000000081525060200191505060405180910390fd5b61094582826112a4565b5050565b60008060008373ffffffffffffffffffffffffffffffffffffffff1673ffffffffffffffffffffffffffffffffffffffff168152602001908152602001600020549050919050565b606060048054600181600116156101000203166002900480601f016020809104026020016040519081016040528092919081815260200182805460018160011615610100020316600290048015610a295780601f106109fe57610100808354040283529160200191610a29565b820191906000526020600020905b815481529060010190602001808311610a0c57829003601f168201915b5050505050905090565b3373ffffffffffffffffffffffffffffffffffffffff16600560019054906101000a900473ffffffffffffffffffffffffffffffffffffffff1673ffffffffffffffffffffffffffffffffffffffff1614610af6576040517f08c379a00000000000000000000000000000000000000000000000000000000081526004018080602001828103825260128152602001807f4f776e61626c653a206f6e6c794f776e6572000000000000000000000000000081525060200191505060405180910390fd5b610b00828261146b565b5050565b6000610bc7610b11610c9c565b84610bc28560405180606001604052806025815260200161179e6025913960016000610b3b610c9c565b73ffffffffffffffffffffffffffffffffffffffff1673ffffffffffffffffffffffffffffffffffffffff16815260200190815260200160002060008a73ffffffffffffffffffffffffffffffffffffffff1673ffffffffffffffffffffffffffffffffffffffff1681526020019081526020016000205461115c9092919063ffffffff16565b610ca4565b6001905092915050565b6000610be5610bde610c9c565b8484610e9b565b6001905092915050565b600560019054906101000a900473ffffffffffffffffffffffffffffffffffffffff1681565b6000600160008473ffffffffffffffffffffffffffffffffffffffff1673ffffffffffffffffffffffffffffffffffffffff16815260200190815260200160002060008373ffffffffffffffffffffffffffffffffffffffff1673ffffffffffffffffffffffffffffffffffffffff16815260200190815260200160002054905092915050565b600033905090565b600073ffffffffffffffffffffffffffffffffffffffff168373ffffffffffffffffffffffffffffffffffffffff161415610d2a576040517f08c379a000000000000000000000000000000000000000000000000000000000815260040180806020018281038252602481526020018061177a6024913960400191505060405180910390fd5b600073ffffffffffffffffffffffffffffffffffffffff168273ffffffffffffffffffffffffffffffffffffffff161415610db0576040517f08c379a00000000000000000000000000000000000000000000000000000000081526004018080602001828103825260228152602001806116c46022913960400191505060405180910390fd5b80600160008573ffffffffffffffffffffffffffffffffffffffff1673ffffffffffffffffffffffffffffffffffffffff16815260200190815260200160002060008473ffffffffffffffffffffffffffffffffffffffff1673ffffffffffffffffffffffffffffffffffffffff168152602001908152602001600020819055508173ffffffffffffffffffffffffffffffffffffffff168373ffffffffffffffffffffffffffffffffffffffff167f8c5be1e5ebec7d5bd14f71427d1e84f3dd0314c0f7b2291e5b200ac8c7c3b925836040518082815260200191505060405180910390a3505050565b600073ffffffffffffffffffffffffffffffffffffffff168373ffffffffffffffffffffffffffffffffffffffff161415610f21576040517f08c379a00000000000000000000000000000000000000000000000000000000081526004018080602001828103825260258152602001806117556025913960400191505060405180910390fd5b600073ffffffffffffffffffffffffffffffffffffffff168273ffffffffffffffffffffffffffffffffffffffff161415610fa7576040517f08c379a000000000000000000000000000000000000000000000000000000000815260040180806020018281038252602381526020018061167f6023913960400191505060405180910390fd5b610fb283838361162f565b61101d816040518060600160405280602681526020016116e6602691396000808773ffffffffffffffffffffffffffffffffffffffff1673ffffffffffffffffffffffffffffffffffffffff1681526020019081526020016000205461115c9092919063ffffffff16565b6000808573ffffffffffffffffffffffffffffffffffffffff1673ffffffffffffffffffffffffffffffffffffffff168152602001908152602001600020819055506110b0816000808573ffffffffffffffffffffffffffffffffffffffff1673ffffffffffffffffffffffffffffffffffffffff1681526020019081526020016000205461121c90919063ffffffff16565b6000808473ffffffffffffffffffffffffffffffffffffffff1673ffffffffffffffffffffffffffffffffffffffff168152602001908152602001600020819055508173ffffffffffffffffffffffffffffffffffffffff168373ffffffffffffffffffffffffffffffffffffffff167fddf252ad1be2c89b69c2b068fc378daa952ba7f163c4a11628f55a4df523b3ef836040518082815260200191505060405180910390a3505050565b6000838311158290611209576040517f08c379a00000000000000000000000000000000000000000000000000000000081526004018080602001828103825283818151815260200191508051906020019080838360005b838110156111ce5780820151818401526020810190506111b3565b50505050905090810190601f1680156111fb5780820380516001836020036101000a031916815260200191505b509250505060405180910390fd5b5060008385039050809150509392505050565b60008082840190508381101561129a576040517f08c379a000000000000000000000000000000000000000000000000000000000815260040180806020018281038252601b8152602001807f536166654d6174683a206164646974696f6e206f766572666c6f77000000000081525060200191505060405180910390fd5b8091505092915050565b600073ffffffffffffffffffffffffffffffffffffffff168273ffffffffffffffffffffffffffffffffffffffff161415611347576040517f08c379a000000000000000000000000000000000000000000000000000000000815260040180806020018281038252601f8152602001807f45524332303a206d696e7420746f20746865207a65726f20616464726573730081525060200191505060405180910390fd5b6113536000838361162f565b6113688160025461121c90919063ffffffff16565b6002819055506113bf816000808573ffffffffffffffffffffffffffffffffffffffff1673ffffffffffffffffffffffffffffffffffffffff1681526020019081526020016000205461121c90919063ffffffff16565b6000808473ffffffffffffffffffffffffffffffffffffffff1673ffffffffffffffffffffffffffffffffffffffff168152602001908152602001600020819055508173ffffffffffffffffffffffffffffffffffffffff16600073ffffffffffffffffffffffffffffffffffffffff167fddf252ad1be2c89b69c2b068fc378daa952ba7f163c4a11628f55a4df523b3ef836040518082815260200191505060405180910390a35050565b600073ffffffffffffffffffffffffffffffffffffffff168273ffffffffffffffffffffffffffffffffffffffff1614156114f1576040517f08c379a00000000000000000000000000000000000000000000000000000000081526004018080602001828103825260218152602001806117346021913960400191505060405180910390fd5b6114fd8260008361162f565b611568816040518060600160405280602281526020016116a2602291396000808673ffffffffffffffffffffffffffffffffffffffff1673ffffffffffffffffffffffffffffffffffffffff1681526020019081526020016000205461115c9092919063ffffffff16565b6000808473ffffffffffffffffffffffffffffffffffffffff1673ffffffffffffffffffffffffffffffffffffffff168152602001908152602001600020819055506115bf8160025461163490919063ffffffff16565b600281905550600073ffffffffffffffffffffffffffffffffffffffff168273ffffffffffffffffffffffffffffffffffffffff167fddf252ad1be2c89b69c2b068fc378daa952ba7f163c4a11628f55a4df523b3ef836040518082815260200191505060405180910390a35050565b505050565b600061167683836040518060400160405280601e81526020017f536166654d6174683a207375627472616374696f6e206f766572666c6f77000081525061115c565b90509291505056fe45524332303a207472616e7366657220746f20746865207a65726f206164647265737345524332303a206275726e20616d6f756e7420657863656564732062616c616e636545524332303a20617070726f766520746f20746865207a65726f206164647265737345524332303a207472616e7366657220616d6f756e7420657863656564732062616c616e636545524332303a207472616e7366657220616d6f756e74206578636565647320616c6c6f77616e636545524332303a206275726e2066726f6d20746865207a65726f206164647265737345524332303a207472616e736665722066726f6d20746865207a65726f206164647265737345524332303a20617070726f76652066726f6d20746865207a65726f206164647265737345524332303a2064656372656173656420616c6c6f77616e63652062656c6f77207a65726fa2646970667358221220d61f9a2a2bdcc72cbfc5499131ed771702fe08470eca3b1da4740363ecb7a6ec64736f6c63430006090033616464546f6b656e3a206e616d6520766572696669636174696f6e206661696c6564436f6e747261637420696e7374616e63652068617320616c7265616479206265656e20696e697469616c697a6564a2646970667358221220f044a800d97b93642b91cce436dd8139989773a5e7f14837ffc20dc422cab43764736f6c63430006090033",
  "immutableReferences": {},
  "source": "// SPDX-License-Identifier: MIT\r\npragma solidity ^0.6.9;\r\n\r\nimport \"../util/Ownable.sol\";\r\nimport \"./IdeaToken.sol\";\r\nimport \"./IIdeaTokenNameVerifier.sol\";\r\nimport \"@openzeppelin/upgrades/contracts/Initializable.sol\";\r\n\r\n/**\r\n * @title IdeaTokenFactory\r\n * @author Alexander Schlindwein\r\n *\r\n * @dev Manages the creation, exchange and interest distribution of IdeaTokens\r\n */\r\ncontract IdeaTokenFactory is Initializable, Ownable {\r\n\r\n    /// @dev Stores information about a token\r\n    struct TokenInfo {\r\n        bool exists;\r\n        uint id;\r\n        string name;\r\n        IdeaToken ideaToken;\r\n    }\r\n\r\n    /// @dev Stores information about a market\r\n    struct MarketInfo {\r\n        bool exists;\r\n        uint id;\r\n        string name;\r\n\r\n        IIdeaTokenNameVerifier nameVerifier;\r\n        mapping(uint => TokenInfo) tokens;\r\n        mapping(string => uint) tokenIDs;\r\n        uint numTokens;\r\n    }\r\n\r\n    mapping(uint => MarketInfo) public _markets;\r\n    mapping(string => uint) public _marketIDs;\r\n    uint public _numMarkets;\r\n\r\n    /// @dev We want token names to be unique across markets, so we keep track of them in a seperate map\r\n    mapping(string => bool) public tokenNameUsed;\r\n\r\n    event NewMarket(uint id, string name);\r\n    event NewToken(uint id, uint marketID, string name);\r\n\r\n    /**\r\n     * @dev Initializes the contract\r\n     *\r\n     * @param owner The owner of the contract\r\n     */\r\n    function initialize(address owner) external initializer {\r\n        _owner = owner;\r\n    }\r\n\r\n    /**\r\n     * @dev Adds a new market. May only be called by admin\r\n\r\n     * @param marketName The name of the market\r\n     * @param nameVerifier The address of the name verifier\r\n     */\r\n    function addMarket(string calldata marketName, address nameVerifier) external onlyOwner {\r\n        require(_marketIDs[marketName] == 0, \"addMarket: market exists already\");\r\n\r\n        uint marketID = ++_numMarkets;\r\n        MarketInfo memory marketInfo = MarketInfo({\r\n            exists: true,\r\n            id: marketID,\r\n            name: marketName,\r\n\r\n            nameVerifier: IIdeaTokenNameVerifier(nameVerifier),\r\n            numTokens: 0\r\n        });\r\n\r\n        _markets[marketID] = marketInfo;\r\n        _marketIDs[marketName] = marketID;\r\n\r\n        emit NewMarket(marketID, marketName);\r\n    }\r\n\r\n    /**\r\n     * @dev Adds a new token.\r\n\r\n     * @param tokenName The name of the token\r\n     * @param marketID The ID of the market\r\n     */\r\n    function addToken(string calldata tokenName, uint marketID) external {\r\n        MarketInfo storage marketInfo = _markets[marketID];\r\n        require(marketInfo.exists, \"addToken: market does not exist\");\r\n        require(!tokenNameUsed[tokenName], \"addToken: token exists already\");\r\n        require(marketInfo.nameVerifier.verifyTokenName(tokenName), \"addToken: name verification failed\");\r\n\r\n        IdeaToken ideaToken = new IdeaToken(\"tokenName\", \"IDT\");\r\n\r\n        uint tokenID = ++marketInfo.numTokens;\r\n        TokenInfo memory tokenInfo = TokenInfo({\r\n            exists: true,\r\n            id: tokenID,\r\n            name: tokenName,\r\n            ideaToken: ideaToken\r\n        });\r\n\r\n        marketInfo.tokens[tokenID] = tokenInfo;\r\n        marketInfo.tokenIDs[tokenName] = tokenID;\r\n        tokenNameUsed[tokenName] = true;\r\n\r\n\r\n\r\n        emit NewToken(tokenID, marketID, tokenName);\r\n    }\r\n\r\n\r\n\r\n}",
  "sourcePath": "C:/Users/Alexander/Desktop/ideamarket/contracts/core/IdeaTokenFactory.sol",
  "compiler": {
    "name": "solc",
    "version": "0.6.9+commit.3e3065ac.Emscripten.clang"
  },
  "schemaVersion": "3.2.2",
  "updatedAt": "2020-07-20T15:42:31.357Z",
  "devdoc": {
    "author": "Alexander Schlindwein",
    "details": "Manages the creation, exchange and interest distribution of IdeaTokens",
    "methods": {
      "addMarket(string,address)": {
        "details": "Adds a new market. May only be called by admin",
        "params": {
          "marketName": "The name of the market",
          "nameVerifier": "The address of the name verifier"
        }
      },
      "addToken(string,uint256)": {
        "details": "Adds a new token.",
        "params": {
          "marketID": "The ID of the market",
          "tokenName": "The name of the token"
        }
      },
      "initialize(address)": {
        "details": "Initializes the contract",
        "params": {
          "owner": "The owner of the contract"
        }
      }
    },
    "stateVariables": {
      "tokenNameUsed": {
        "details": "We want token names to be unique across markets, so we keep track of them in a seperate map"
      }
    },
    "title": "IdeaTokenFactory"
  },
  "userdoc": {
    "methods": {}
  }
}