{
  "contractName": "IdeaTokenExchange",
  "abi": [
    {
      "anonymous": false,
      "inputs": [
        {
          "indexed": false,
          "internalType": "address",
          "name": "ideaToken",
          "type": "address"
        },
        {
          "indexed": false,
          "internalType": "address",
          "name": "withdrawer",
          "type": "address"
        }
      ],
      "name": "NewInterestWithdrawer",
      "type": "event"
    },
    {
      "anonymous": false,
      "inputs": [
        {
          "indexed": false,
          "internalType": "uint256",
          "name": "marketID",
          "type": "uint256"
        },
        {
          "indexed": false,
          "internalType": "address",
          "name": "withdrawer",
          "type": "address"
        }
      ],
      "name": "NewPlatformFeeWithdrawer",
      "type": "event"
    },
    {
      "anonymous": false,
      "inputs": [
        {
          "indexed": false,
          "internalType": "address",
          "name": "oldOwner",
          "type": "address"
        },
        {
          "indexed": false,
          "internalType": "address",
          "name": "newOwner",
          "type": "address"
        }
      ],
      "name": "OwnershipChanged",
      "type": "event"
    },
    {
      "anonymous": false,
      "inputs": [
        {
          "indexed": false,
          "internalType": "address",
          "name": "ideaToken",
          "type": "address"
        },
        {
          "indexed": false,
          "internalType": "uint256",
          "name": "amount",
          "type": "uint256"
        },
        {
          "indexed": false,
          "internalType": "uint256",
          "name": "price",
          "type": "uint256"
        },
        {
          "indexed": false,
          "internalType": "uint256",
          "name": "tradingFee",
          "type": "uint256"
        },
        {
          "indexed": false,
          "internalType": "uint256",
          "name": "platformFee",
          "type": "uint256"
        }
      ],
      "name": "TokensBought",
      "type": "event"
    },
    {
      "anonymous": false,
      "inputs": [
        {
          "indexed": false,
          "internalType": "address",
          "name": "ideaToken",
          "type": "address"
        },
        {
          "indexed": false,
          "internalType": "uint256",
          "name": "amount",
          "type": "uint256"
        },
        {
          "indexed": false,
          "internalType": "uint256",
          "name": "price",
          "type": "uint256"
        },
        {
          "indexed": false,
          "internalType": "uint256",
          "name": "tradingFee",
          "type": "uint256"
        },
        {
          "indexed": false,
          "internalType": "uint256",
          "name": "platformFee",
          "type": "uint256"
        }
      ],
      "name": "TokensSold",
      "type": "event"
    },
    {
      "inputs": [],
      "name": "getOwner",
      "outputs": [
        {
          "internalType": "address",
          "name": "",
          "type": "address"
        }
      ],
      "stateMutability": "view",
      "type": "function"
    },
    {
      "inputs": [
        {
          "internalType": "address",
          "name": "newOwner",
          "type": "address"
        }
      ],
      "name": "setOwner",
      "outputs": [],
      "stateMutability": "nonpayable",
      "type": "function"
    },
    {
      "inputs": [
        {
          "internalType": "address",
          "name": "owner",
          "type": "address"
        },
        {
          "internalType": "address",
          "name": "tradingFeeRecipient",
          "type": "address"
        },
        {
          "internalType": "address",
          "name": "interestManager",
          "type": "address"
        },
        {
          "internalType": "address",
          "name": "dai",
          "type": "address"
        }
      ],
      "name": "initialize",
      "outputs": [],
      "stateMutability": "nonpayable",
      "type": "function"
    },
    {
      "inputs": [
        {
          "internalType": "address",
          "name": "ideaToken",
          "type": "address"
        },
        {
          "internalType": "uint256",
          "name": "tokenAmount",
          "type": "uint256"
        },
        {
          "internalType": "uint256",
          "name": "minOutput",
          "type": "uint256"
        },
        {
          "internalType": "address",
          "name": "recipient",
          "type": "address"
        }
      ],
      "name": "sellTokens",
      "outputs": [],
      "stateMutability": "nonpayable",
      "type": "function"
    },
    {
      "inputs": [
        {
          "internalType": "address",
          "name": "ideaToken",
          "type": "address"
        },
        {
          "internalType": "uint256",
          "name": "tokenAmount",
          "type": "uint256"
        }
      ],
      "name": "getSellOutput",
      "outputs": [
        {
          "internalType": "uint256",
          "name": "",
          "type": "uint256"
        }
      ],
      "stateMutability": "view",
      "type": "function"
    },
    {
      "inputs": [
        {
          "internalType": "address",
          "name": "ideaToken",
          "type": "address"
        },
        {
          "internalType": "uint256",
          "name": "daiAmount",
          "type": "uint256"
        },
        {
          "internalType": "uint256",
          "name": "minOutput",
          "type": "uint256"
        },
        {
          "internalType": "address",
          "name": "recipient",
          "type": "address"
        }
      ],
      "name": "buyTokens",
      "outputs": [],
      "stateMutability": "nonpayable",
      "type": "function"
    },
    {
      "inputs": [
        {
          "internalType": "address",
          "name": "ideaToken",
          "type": "address"
        },
        {
          "internalType": "uint256",
          "name": "daiAmount",
          "type": "uint256"
        }
      ],
      "name": "getBuyOutput",
      "outputs": [
        {
          "internalType": "uint256",
          "name": "",
          "type": "uint256"
        }
      ],
      "stateMutability": "view",
      "type": "function"
    },
    {
      "inputs": [
        {
          "internalType": "address",
          "name": "token",
          "type": "address"
        }
      ],
      "name": "withdrawInterest",
      "outputs": [],
      "stateMutability": "nonpayable",
      "type": "function"
    },
    {
      "inputs": [
        {
          "internalType": "address",
          "name": "token",
          "type": "address"
        }
      ],
      "name": "getInterestPayable",
      "outputs": [
        {
          "internalType": "uint256",
          "name": "",
          "type": "uint256"
        }
      ],
      "stateMutability": "view",
      "type": "function"
    },
    {
      "inputs": [
        {
          "internalType": "address",
          "name": "token",
          "type": "address"
        },
        {
          "internalType": "address",
          "name": "withdrawer",
          "type": "address"
        }
      ],
      "name": "authorizeInterestWithdrawer",
      "outputs": [],
      "stateMutability": "nonpayable",
      "type": "function"
    },
    {
      "inputs": [
        {
          "internalType": "uint256",
          "name": "marketID",
          "type": "uint256"
        }
      ],
      "name": "withdrawPlatformFee",
      "outputs": [],
      "stateMutability": "nonpayable",
      "type": "function"
    },
    {
      "inputs": [
        {
          "internalType": "uint256",
          "name": "marketID",
          "type": "uint256"
        }
      ],
      "name": "getPlatformFeePayable",
      "outputs": [
        {
          "internalType": "uint256",
          "name": "",
          "type": "uint256"
        }
      ],
      "stateMutability": "view",
      "type": "function"
    },
    {
      "inputs": [
        {
          "internalType": "uint256",
          "name": "marketID",
          "type": "uint256"
        },
        {
          "internalType": "address",
          "name": "withdrawer",
          "type": "address"
        }
      ],
      "name": "authorizePlatformFeeWithdrawer",
      "outputs": [],
      "stateMutability": "nonpayable",
      "type": "function"
    },
    {
      "inputs": [],
      "name": "withdrawTradingFee",
      "outputs": [],
      "stateMutability": "nonpayable",
      "type": "function"
    },
    {
      "inputs": [],
      "name": "getTradingFeePayable",
      "outputs": [
        {
          "internalType": "uint256",
          "name": "",
          "type": "uint256"
        }
      ],
      "stateMutability": "view",
      "type": "function"
    },
    {
      "inputs": [
        {
          "internalType": "address",
          "name": "factory",
          "type": "address"
        }
      ],
      "name": "setIdeaTokenFactoryAddress",
      "outputs": [],
      "stateMutability": "nonpayable",
      "type": "function"
    }
  ],
  "bytecode": "0x608060405234801561001057600080fd5b50613b30806100206000396000f3fe608060405234801561001057600080fd5b50600436106100ff5760003560e01c80639b44e71c11610097578063af45f32211610066578063af45f32214610296578063dde7c190146102b2578063e5aa7d35146102ce578063f8c8765e146102ea576100ff565b80639b44e71c14610224578063a2c3f6091461022e578063a7f08f8d1461025e578063aa556e0b1461027a576100ff565b8063577aca59116100d3578063577aca59146101885780637c7b62a7146101b8578063818b9756146101e8578063893d20e814610206576100ff565b80628db88014610104578063130362b31461013457806313af403514610150578063159fc8f81461016c575b600080fd5b61011e60048036038101906101199190613013565b610306565b60405161012b9190613911565b60405180910390f35b61014e60048036038101906101499190613065565b6103ee565b005b61016a60048036038101906101659190612e19565b610576565b005b61018660048036038101906101819190612e42565b610612565b005b6101a2600480360381019061019d9190612e19565b6107f2565b6040516101af9190613911565b60405180910390f35b6101d260048036038101906101cd9190612ee1565b610924565b6040516101df9190613911565b60405180910390f35b6101f061093f565b6040516101fd9190613911565b60405180910390f35b61020e610a14565b60405161021b91906135ab565b60405180910390f35b61022c610a3e565b005b61024860048036038101906102439190612ee1565b610b33565b6040516102559190613911565b60405180910390f35b61027860048036038101906102739190612f1d565b610b4e565b005b610294600480360381019061028f9190612f1d565b611325565b005b6102b060048036038101906102ab9190612e19565b611c4c565b005b6102cc60048036038101906102c79190613013565b611ecd565b005b6102e860048036038101906102e39190612e19565b6120da565b005b61030460048036038101906102ff9190612e7e565b612209565b005b60006103e7670de0b6b3a76400006103d9603b60009054906101000a900473ffffffffffffffffffffffffffffffffffffffff1673ffffffffffffffffffffffffffffffffffffffff1663e6aa216c6040518163ffffffff1660e01b815260040160206040518083038186803b15801561037f57600080fd5b505afa158015610393573d6000803e3d6000fd5b505050506040513d601f19601f820116820180604052508101906103b7919061303c565b60366000878152602001908152602001600020546123c290919063ffffffff16565b61243290919063ffffffff16565b9050919050565b603360009054906101000a900473ffffffffffffffffffffffffffffffffffffffff1673ffffffffffffffffffffffffffffffffffffffff163373ffffffffffffffffffffffffffffffffffffffff1614806104a857506037600083815260200190815260200160002060009054906101000a900473ffffffffffffffffffffffffffffffffffffffff1673ffffffffffffffffffffffffffffffffffffffff163373ffffffffffffffffffffffffffffffffffffffff16145b6104e7576040517f08c379a00000000000000000000000000000000000000000000000000000000081526004016104de906137b1565b60405180910390fd5b806037600084815260200190815260200160002060006101000a81548173ffffffffffffffffffffffffffffffffffffffff021916908373ffffffffffffffffffffffffffffffffffffffff1602179055507f92fce6abb44de882f8e06427853d14084ef5fd2d495828dfdcb38d1f5ad0aa50828260405161056a92919061392c565b60405180910390a15050565b3373ffffffffffffffffffffffffffffffffffffffff16603360009054906101000a900473ffffffffffffffffffffffffffffffffffffffff1673ffffffffffffffffffffffffffffffffffffffff1614610606576040517f08c379a00000000000000000000000000000000000000000000000000000000081526004016105fd90613751565b60405180910390fd5b61060f8161247c565b50565b603360009054906101000a900473ffffffffffffffffffffffffffffffffffffffff1673ffffffffffffffffffffffffffffffffffffffff163373ffffffffffffffffffffffffffffffffffffffff1614806106f85750603960008373ffffffffffffffffffffffffffffffffffffffff1673ffffffffffffffffffffffffffffffffffffffff16815260200190815260200160002060009054906101000a900473ffffffffffffffffffffffffffffffffffffffff1673ffffffffffffffffffffffffffffffffffffffff163373ffffffffffffffffffffffffffffffffffffffff16145b610737576040517f08c379a000000000000000000000000000000000000000000000000000000000815260040161072e906137f1565b60405180910390fd5b80603960008473ffffffffffffffffffffffffffffffffffffffff1673ffffffffffffffffffffffffffffffffffffffff16815260200190815260200160002060006101000a81548173ffffffffffffffffffffffffffffffffffffffff021916908373ffffffffffffffffffffffffffffffffffffffff1602179055507f7a6722ef357887178c9cf10a97427a4c452d6f8d8061aacd3d008016533a89ff82826040516107e692919061366a565b60405180910390a15050565b600080603860008473ffffffffffffffffffffffffffffffffffffffff1673ffffffffffffffffffffffffffffffffffffffff168152602001908152602001600020905061091c816000015461090e670de0b6b3a7640000610900603b60009054906101000a900473ffffffffffffffffffffffffffffffffffffffff1673ffffffffffffffffffffffffffffffffffffffff1663e6aa216c6040518163ffffffff1660e01b815260040160206040518083038186803b1580156108b557600080fd5b505afa1580156108c9573d6000803e3d6000fd5b505050506040513d601f19601f820116820180604052508101906108ed919061303c565b86600101546123c290919063ffffffff16565b61243290919063ffffffff16565b61252190919063ffffffff16565b915050919050565b600080610931848461256b565b505090508091505092915050565b6000610a0f670de0b6b3a7640000610a01603b60009054906101000a900473ffffffffffffffffffffffffffffffffffffffff1673ffffffffffffffffffffffffffffffffffffffff1663e6aa216c6040518163ffffffff1660e01b815260040160206040518083038186803b1580156109b857600080fd5b505afa1580156109cc573d6000803e3d6000fd5b505050506040513d601f19601f820116820180604052508101906109f0919061303c565b6034546123c290919063ffffffff16565b61243290919063ffffffff16565b905090565b6000603360009054906101000a900473ffffffffffffffffffffffffffffffffffffffff16905090565b60006034541415610a4e57610b31565b600060345490506000603481905550603b60009054906101000a900473ffffffffffffffffffffffffffffffffffffffff1673ffffffffffffffffffffffffffffffffffffffff1663f3e08e1f603560009054906101000a900473ffffffffffffffffffffffffffffffffffffffff16836040518363ffffffff1660e01b8152600401610adc929190613693565b602060405180830381600087803b158015610af657600080fd5b505af1158015610b0a573d6000803e3d6000fd5b505050506040513d601f19601f82011682018060405250810190610b2e919061303c565b50505b565b600080610b408484612798565b505090508091505092915050565b610b56612b81565b603a60009054906101000a900473ffffffffffffffffffffffffffffffffffffffff1673ffffffffffffffffffffffffffffffffffffffff16633911283a866040518263ffffffff1660e01b8152600401610bb191906135ab565b60606040518083038186803b158015610bc957600080fd5b505afa158015610bdd573d6000803e3d6000fd5b505050506040513d601f19601f82011682018060405250810190610c019190612fa9565b90508060000151610c47576040517f08c379a0000000000000000000000000000000000000000000000000000000008152600401610c3e906138f1565b60405180910390fd5b610c4f612ba4565b603a60009054906101000a900473ffffffffffffffffffffffffffffffffffffffff1673ffffffffffffffffffffffffffffffffffffffff1663c7d5fe5583602001516040518263ffffffff1660e01b8152600401610cae9190613911565b60006040518083038186803b158015610cc657600080fd5b505afa158015610cda573d6000803e3d6000fd5b505050506040513d6000823e3d601f19601f82011682018060405250810190610d039190612fd2565b90506000806000610d14898961256b565b9250925092506000610d4182610d33858c61252190919063ffffffff16565b61252190919063ffffffff16565b905087841015610d86576040517f08c379a0000000000000000000000000000000000000000000000000000000008152600401610d7d90613891565b60405180910390fd5b88603c60009054906101000a900473ffffffffffffffffffffffffffffffffffffffff1673ffffffffffffffffffffffffffffffffffffffff1663dd62ed3e33306040518363ffffffff1660e01b8152600401610de49291906135e1565b60206040518083038186803b158015610dfc57600080fd5b505afa158015610e10573d6000803e3d6000fd5b505050506040513d601f19601f82011682018060405250810190610e34919061303c565b1015610e75576040517f08c379a0000000000000000000000000000000000000000000000000000000008152600401610e6c90613851565b60405180910390fd5b603c60009054906101000a900473ffffffffffffffffffffffffffffffffffffffff1673ffffffffffffffffffffffffffffffffffffffff166323b872dd33603b60009054906101000a900473ffffffffffffffffffffffffffffffffffffffff168c6040518463ffffffff1660e01b8152600401610ef69392919061360a565b602060405180830381600087803b158015610f1057600080fd5b505af1158015610f24573d6000803e3d6000fd5b505050506040513d601f19601f82011682018060405250810190610f489190612f80565b610f87576040517f08c379a0000000000000000000000000000000000000000000000000000000008152600401610f7e906138b1565b60405180910390fd5b6000603860008c73ffffffffffffffffffffffffffffffffffffffff1673ffffffffffffffffffffffffffffffffffffffff168152602001908152602001600020905061108d603b60009054906101000a900473ffffffffffffffffffffffffffffffffffffffff1673ffffffffffffffffffffffffffffffffffffffff16632afcf480846040518263ffffffff1660e01b81526004016110289190613911565b602060405180830381600087803b15801561104257600080fd5b505af1158015611056573d6000803e3d6000fd5b505050506040513d601f19601f8201168201806040525081019061107a919061303c565b82600101546129c590919063ffffffff16565b8160010181905550611156603b60009054906101000a900473ffffffffffffffffffffffffffffffffffffffff1673ffffffffffffffffffffffffffffffffffffffff16632afcf480866040518263ffffffff1660e01b81526004016110f39190613911565b602060405180830381600087803b15801561110d57600080fd5b505af1158015611121573d6000803e3d6000fd5b505050506040513d601f19601f82011682018060405250810190611145919061303c565b6034546129c590919063ffffffff16565b603481905550611232603b60009054906101000a900473ffffffffffffffffffffffffffffffffffffffff1673ffffffffffffffffffffffffffffffffffffffff16632afcf480856040518263ffffffff1660e01b81526004016111ba9190613911565b602060405180830381600087803b1580156111d457600080fd5b505af11580156111e8573d6000803e3d6000fd5b505050506040513d601f19601f8201168201806040525081019061120c919061303c565b6036600089602001518152602001908152602001600020546129c590919063ffffffff16565b6036600088602001518152602001908152602001600020819055506112648282600001546129c590919063ffffffff16565b81600001819055507fca1d1d2c3f24bb3f0c4ad90bd9823d2465052996d73438c962e227ea67a206d88b868c87876040516112a39594939291906136bc565b60405180910390a18a73ffffffffffffffffffffffffffffffffffffffff166340c10f1989876040518363ffffffff1660e01b81526004016112e6929190613693565b600060405180830381600087803b15801561130057600080fd5b505af1158015611314573d6000803e3d6000fd5b505050505050505050505050505050565b61132d612b81565b603a60009054906101000a900473ffffffffffffffffffffffffffffffffffffffff1673ffffffffffffffffffffffffffffffffffffffff16633911283a866040518263ffffffff1660e01b815260040161138891906135ab565b60606040518083038186803b1580156113a057600080fd5b505afa1580156113b4573d6000803e3d6000fd5b505050506040513d601f19601f820116820180604052508101906113d89190612fa9565b9050806000015161141e576040517f08c379a000000000000000000000000000000000000000000000000000000000815260040161141590613791565b60405180910390fd5b611426612ba4565b603a60009054906101000a900473ffffffffffffffffffffffffffffffffffffffff1673ffffffffffffffffffffffffffffffffffffffff1663c7d5fe5583602001516040518263ffffffff1660e01b81526004016114859190613911565b60006040518083038186803b15801561149d57600080fd5b505afa1580156114b1573d6000803e3d6000fd5b505050506040513d6000823e3d601f19601f820116820180604052508101906114da9190612fd2565b905060008060006114eb8989612798565b92509250925086831015611534576040517f08c379a000000000000000000000000000000000000000000000000000000000815260040161152b906138d1565b60405180910390fd5b878973ffffffffffffffffffffffffffffffffffffffff166370a08231336040518263ffffffff1660e01b815260040161156e91906135c6565b60206040518083038186803b15801561158657600080fd5b505afa15801561159a573d6000803e3d6000fd5b505050506040513d601f19601f820116820180604052508101906115be919061303c565b10156115ff576040517f08c379a00000000000000000000000000000000000000000000000000000000081526004016115f690613871565b60405180910390fd5b8873ffffffffffffffffffffffffffffffffffffffff16639dc29fac338a6040518363ffffffff1660e01b815260040161163a929190613641565b600060405180830381600087803b15801561165457600080fd5b505af1158015611668573d6000803e3d6000fd5b505050506000603b60009054906101000a900473ffffffffffffffffffffffffffffffffffffffff1673ffffffffffffffffffffffffffffffffffffffff16631e9a695030866040518363ffffffff1660e01b81526004016116cb929190613693565b602060405180830381600087803b1580156116e557600080fd5b505af11580156116f9573d6000803e3d6000fd5b505050506040513d601f19601f8201168201806040525081019061171d919061303c565b90506000603b60009054906101000a900473ffffffffffffffffffffffffffffffffffffffff1673ffffffffffffffffffffffffffffffffffffffff16631e9a6950603b60009054906101000a900473ffffffffffffffffffffffffffffffffffffffff16866040518363ffffffff1660e01b81526004016117a0929190613693565b602060405180830381600087803b1580156117ba57600080fd5b505af11580156117ce573d6000803e3d6000fd5b505050506040513d601f19601f820116820180604052508101906117f2919061303c565b9050603b60009054906101000a900473ffffffffffffffffffffffffffffffffffffffff1673ffffffffffffffffffffffffffffffffffffffff16632afcf480856040518263ffffffff1660e01b815260040161184f9190613911565b602060405180830381600087803b15801561186957600080fd5b505af115801561187d573d6000803e3d6000fd5b505050506040513d601f19601f820116820180604052508101906118a1919061303c565b506000603b60009054906101000a900473ffffffffffffffffffffffffffffffffffffffff1673ffffffffffffffffffffffffffffffffffffffff16631e9a6950603b60009054906101000a900473ffffffffffffffffffffffffffffffffffffffff16866040518363ffffffff1660e01b8152600401611923929190613693565b602060405180830381600087803b15801561193d57600080fd5b505af1158015611951573d6000803e3d6000fd5b505050506040513d601f19601f82011682018060405250810190611975919061303c565b9050603b60009054906101000a900473ffffffffffffffffffffffffffffffffffffffff1673ffffffffffffffffffffffffffffffffffffffff16632afcf480856040518263ffffffff1660e01b81526004016119d29190613911565b602060405180830381600087803b1580156119ec57600080fd5b505af1158015611a00573d6000803e3d6000fd5b505050506040513d601f19601f82011682018060405250810190611a24919061303c565b506000603860008e73ffffffffffffffffffffffffffffffffffffffff1673ffffffffffffffffffffffffffffffffffffffff1681526020019081526020016000209050611aa3611a9083611a8286886129c590919063ffffffff16565b6129c590919063ffffffff16565b826001015461252190919063ffffffff16565b8160010181905550611ac0836034546129c590919063ffffffff16565b603481905550611af082603660008b602001518152602001908152602001600020546129c590919063ffffffff16565b603660008a60200151815260200190815260200160002081905550611b46611b3386611b25898b6129c590919063ffffffff16565b6129c590919063ffffffff16565b826000015461252190919063ffffffff16565b81600001819055507f6b17016c67d28f4cc3a653d895e3b1db09320d6852a46f95aa225059190f7dcd8d8d898989604051611b859594939291906136bc565b60405180910390a1603c60009054906101000a900473ffffffffffffffffffffffffffffffffffffffff1673ffffffffffffffffffffffffffffffffffffffff1663a9059cbb8b896040518363ffffffff1660e01b8152600401611bea929190613693565b602060405180830381600087803b158015611c0457600080fd5b505af1158015611c18573d6000803e3d6000fd5b505050506040513d601f19601f82011682018060405250810190611c3c9190612f80565b5050505050505050505050505050565b3373ffffffffffffffffffffffffffffffffffffffff16603960008373ffffffffffffffffffffffffffffffffffffffff1673ffffffffffffffffffffffffffffffffffffffff16815260200190815260200160002060009054906101000a900473ffffffffffffffffffffffffffffffffffffffff1673ffffffffffffffffffffffffffffffffffffffff1614611d19576040517f08c379a0000000000000000000000000000000000000000000000000000000008152600401611d1090613731565b60405180910390fd5b603b60009054906101000a900473ffffffffffffffffffffffffffffffffffffffff1673ffffffffffffffffffffffffffffffffffffffff1663a6afed956040518163ffffffff1660e01b8152600401600060405180830381600087803b158015611d8357600080fd5b505af1158015611d97573d6000803e3d6000fd5b505050506000611da6826107f2565b90506000811415611db75750611eca565b6000603860008473ffffffffffffffffffffffffffffffffffffffff1673ffffffffffffffffffffffffffffffffffffffff1681526020019081526020016000209050611ebf603b60009054906101000a900473ffffffffffffffffffffffffffffffffffffffff1673ffffffffffffffffffffffffffffffffffffffff16631e9a695033856040518363ffffffff1660e01b8152600401611e5a929190613641565b602060405180830381600087803b158015611e7457600080fd5b505af1158015611e88573d6000803e3d6000fd5b505050506040513d601f19601f82011682018060405250810190611eac919061303c565b826001015461252190919063ffffffff16565b816001018190555050505b50565b3373ffffffffffffffffffffffffffffffffffffffff166037600083815260200190815260200160002060009054906101000a900473ffffffffffffffffffffffffffffffffffffffff1673ffffffffffffffffffffffffffffffffffffffff1614611f6e576040517f08c379a0000000000000000000000000000000000000000000000000000000008152600401611f6590613831565b60405180910390fd5b603b60009054906101000a900473ffffffffffffffffffffffffffffffffffffffff1673ffffffffffffffffffffffffffffffffffffffff1663a6afed956040518163ffffffff1660e01b8152600401600060405180830381600087803b158015611fd857600080fd5b505af1158015611fec573d6000803e3d6000fd5b505050506000611ffb82610306565b9050600081141561200c57506120d7565b60006036600084815260200190815260200160002081905550603b60009054906101000a900473ffffffffffffffffffffffffffffffffffffffff1673ffffffffffffffffffffffffffffffffffffffff16631e9a695033836040518363ffffffff1660e01b8152600401612082929190613641565b602060405180830381600087803b15801561209c57600080fd5b505af11580156120b0573d6000803e3d6000fd5b505050506040513d601f19601f820116820180604052508101906120d4919061303c565b50505b50565b3373ffffffffffffffffffffffffffffffffffffffff16603360009054906101000a900473ffffffffffffffffffffffffffffffffffffffff1673ffffffffffffffffffffffffffffffffffffffff161461216a576040517f08c379a000000000000000000000000000000000000000000000000000000000815260040161216190613751565b60405180910390fd5b600073ffffffffffffffffffffffffffffffffffffffff16603a60009054906101000a900473ffffffffffffffffffffffffffffffffffffffff1673ffffffffffffffffffffffffffffffffffffffff16146121c557600080fd5b80603a60006101000a81548173ffffffffffffffffffffffffffffffffffffffff021916908373ffffffffffffffffffffffffffffffffffffffff16021790555050565b600060019054906101000a900460ff16806122285750612227612a1a565b5b8061223f57506000809054906101000a900460ff16155b61227e576040517f08c379a000000000000000000000000000000000000000000000000000000000815260040161227590613811565b60405180910390fd5b60008060019054906101000a900460ff1615905080156122ce576001600060016101000a81548160ff02191690831515021790555060016000806101000a81548160ff0219169083151502179055505b6122d78561247c565b83603560006101000a81548173ffffffffffffffffffffffffffffffffffffffff021916908373ffffffffffffffffffffffffffffffffffffffff16021790555082603b60006101000a81548173ffffffffffffffffffffffffffffffffffffffff021916908373ffffffffffffffffffffffffffffffffffffffff16021790555081603c60006101000a81548173ffffffffffffffffffffffffffffffffffffffff021916908373ffffffffffffffffffffffffffffffffffffffff16021790555080156123bb5760008060016101000a81548160ff0219169083151502179055505b5050505050565b6000808314156123d5576000905061242c565b60008284029050828482816123e657fe5b0414612427576040517f08c379a000000000000000000000000000000000000000000000000000000000815260040161241e906137d1565b60405180910390fd5b809150505b92915050565b600061247483836040518060400160405280601a81526020017f536166654d6174683a206469766973696f6e206279207a65726f000000000000815250612a31565b905092915050565b6000603360009054906101000a900473ffffffffffffffffffffffffffffffffffffffff16905081603360006101000a81548173ffffffffffffffffffffffffffffffffffffffff021916908373ffffffffffffffffffffffffffffffffffffffff1602179055507f0384899bd253d83b23daa4d29aaa2efe0563d1132b43101e9ad667235aeb951b818360405161251592919061366a565b60405180910390a15050565b600061256383836040518060400160405280601e81526020017f536166654d6174683a207375627472616374696f6e206f766572666c6f770000815250612a92565b905092915050565b6000806000612578612b81565b603a60009054906101000a900473ffffffffffffffffffffffffffffffffffffffff1673ffffffffffffffffffffffffffffffffffffffff16633911283a876040518263ffffffff1660e01b81526004016125d391906135ab565b60606040518083038186803b1580156125eb57600080fd5b505afa1580156125ff573d6000803e3d6000fd5b505050506040513d601f19601f820116820180604052508101906126239190612fa9565b905061262d612ba4565b603a60009054906101000a900473ffffffffffffffffffffffffffffffffffffffff1673ffffffffffffffffffffffffffffffffffffffff1663c7d5fe5583602001516040518263ffffffff1660e01b815260040161268c9190613911565b60006040518083038186803b1580156126a457600080fd5b505afa1580156126b8573d6000803e3d6000fd5b505050506040513d6000823e3d601f19601f820116820180604052508101906126e19190612fd2565b905060006127106127106127028460e001518a6123c290919063ffffffff16565b61243290919063ffffffff16565b905060006127406127106127328561010001518b6123c290919063ffffffff16565b61243290919063ffffffff16565b905060006127698261275b858c61252190919063ffffffff16565b61252190919063ffffffff16565b905060006127808560a001518660c0015184612aed565b90508084849850985098505050505050509250925092565b60008060006127a5612b81565b603a60009054906101000a900473ffffffffffffffffffffffffffffffffffffffff1673ffffffffffffffffffffffffffffffffffffffff16633911283a876040518263ffffffff1660e01b815260040161280091906135ab565b60606040518083038186803b15801561281857600080fd5b505afa15801561282c573d6000803e3d6000fd5b505050506040513d601f19601f820116820180604052508101906128509190612fa9565b905061285a612ba4565b603a60009054906101000a900473ffffffffffffffffffffffffffffffffffffffff1673ffffffffffffffffffffffffffffffffffffffff1663c7d5fe5583602001516040518263ffffffff1660e01b81526004016128b99190613911565b60006040518083038186803b1580156128d157600080fd5b505afa1580156128e5573d6000803e3d6000fd5b505050506040513d6000823e3d601f19601f8201168201806040525081019061290e9190612fd2565b905060006129258260a001518360c0015189612b37565b905060006129546127106129468560e00151856123c290919063ffffffff16565b61243290919063ffffffff16565b90506000612984612710612976866101000151866123c290919063ffffffff16565b61243290919063ffffffff16565b905060006129ad8261299f858761252190919063ffffffff16565b61252190919063ffffffff16565b90508083839850985098505050505050509250925092565b600080828401905083811015612a10576040517f08c379a0000000000000000000000000000000000000000000000000000000008152600401612a0790613771565b60405180910390fd5b8091505092915050565b6000803090506000813b9050600081149250505090565b60008083118290612a78576040517f08c379a0000000000000000000000000000000000000000000000000000000008152600401612a6f919061370f565b60405180910390fd5b506000838581612a8457fe5b049050809150509392505050565b6000838311158290612ada576040517f08c379a0000000000000000000000000000000000000000000000000000000008152600401612ad1919061370f565b60405180910390fd5b5060008385039050809150509392505050565b6000612b2e83612b20670de0b6b3a7640000612b12888761252190919063ffffffff16565b6123c290919063ffffffff16565b61243290919063ffffffff16565b90509392505050565b6000612b78612b69670de0b6b3a7640000612b5b85876123c290919063ffffffff16565b61243290919063ffffffff16565b856129c590919063ffffffff16565b90509392505050565b604051806060016040528060001515815260200160008152602001600081525090565b6040518061012001604052806000151581526020016000815260200160608152602001600073ffffffffffffffffffffffffffffffffffffffff16815260200160008152602001600081526020016000815260200160008152602001600081525090565b600081359050612c1781613a9e565b92915050565b600081519050612c2c81613ab5565b92915050565b600081519050612c4181613acc565b92915050565b600082601f830112612c5857600080fd5b8151612c6b612c6682613982565b613955565b91508082526020830160208301858383011115612c8757600080fd5b612c92838284613a5a565b50505092915050565b600060608284031215612cad57600080fd5b612cb76060613955565b90506000612cc784828501612c1d565b6000830152506020612cdb84828501612e04565b6020830152506040612cef84828501612e04565b60408301525092915050565b60006101208284031215612d0e57600080fd5b612d19610120613955565b90506000612d2984828501612c1d565b6000830152506020612d3d84828501612e04565b602083015250604082015167ffffffffffffffff811115612d5d57600080fd5b612d6984828501612c47565b6040830152506060612d7d84828501612c32565b6060830152506080612d9184828501612e04565b60808301525060a0612da584828501612e04565b60a08301525060c0612db984828501612e04565b60c08301525060e0612dcd84828501612e04565b60e083015250610100612de284828501612e04565b6101008301525092915050565b600081359050612dfe81613ae3565b92915050565b600081519050612e1381613ae3565b92915050565b600060208284031215612e2b57600080fd5b6000612e3984828501612c08565b91505092915050565b60008060408385031215612e5557600080fd5b6000612e6385828601612c08565b9250506020612e7485828601612c08565b9150509250929050565b60008060008060808587031215612e9457600080fd5b6000612ea287828801612c08565b9450506020612eb387828801612c08565b9350506040612ec487828801612c08565b9250506060612ed587828801612c08565b91505092959194509250565b60008060408385031215612ef457600080fd5b6000612f0285828601612c08565b9250506020612f1385828601612def565b9150509250929050565b60008060008060808587031215612f3357600080fd5b6000612f4187828801612c08565b9450506020612f5287828801612def565b9350506040612f6387828801612def565b9250506060612f7487828801612c08565b91505092959194509250565b600060208284031215612f9257600080fd5b6000612fa084828501612c1d565b91505092915050565b600060608284031215612fbb57600080fd5b6000612fc984828501612c9b565b91505092915050565b600060208284031215612fe457600080fd5b600082015167ffffffffffffffff811115612ffe57600080fd5b61300a84828501612cfb565b91505092915050565b60006020828403121561302557600080fd5b600061303384828501612def565b91505092915050565b60006020828403121561304e57600080fd5b600061305c84828501612e04565b91505092915050565b6000806040838503121561307857600080fd5b600061308685828601612def565b925050602061309785828601612c08565b9150509250929050565b6130aa81613a24565b82525050565b6130b9816139ca565b82525050565b60006130ca826139ae565b6130d481856139b9565b93506130e4818560208601613a5a565b6130ed81613a8d565b840191505092915050565b60006131056020836139b9565b91507f7769746864726177496e7465726573743a206e6f7420617574686f72697a65646000830152602082019050919050565b60006131456012836139b9565b91507f4f776e61626c653a206f6e6c794f776e657200000000000000000000000000006000830152602082019050919050565b6000613185601b836139b9565b91507f536166654d6174683a206164646974696f6e206f766572666c6f7700000000006000830152602082019050919050565b60006131c56020836139b9565b91507f73656c6c546f6b656e733a20746f6b656e20646f6573206e6f742065786973746000830152602082019050919050565b6000613205602e836139b9565b91507f617574686f72697a65506c6174666f726d466565576974686472617765723a2060008301527f6e6f7420617574686f72697a65640000000000000000000000000000000000006020830152604082019050919050565b600061326b6021836139b9565b91507f536166654d6174683a206d756c7469706c69636174696f6e206f766572666c6f60008301527f77000000000000000000000000000000000000000000000000000000000000006020830152604082019050919050565b60006132d1602b836139b9565b91507f617574686f72697a65496e746572657374576974686472617765723a206e6f7460008301527f20617574686f72697a65640000000000000000000000000000000000000000006020830152604082019050919050565b6000613337602e836139b9565b91507f436f6e747261637420696e7374616e63652068617320616c726561647920626560008301527f656e20696e697469616c697a65640000000000000000000000000000000000006020830152604082019050919050565b600061339d6023836139b9565b91507f7769746864726177506c6174666f726d4665653a206e6f7420617574686f726960008301527f7a656400000000000000000000000000000000000000000000000000000000006020830152604082019050919050565b6000613403601f836139b9565b91507f627579546f6b656e733a206e6f7420656e6f75676820616c6c6f77616e6365006000830152602082019050919050565b6000613443601d836139b9565b91507f73656c6c546f6b656e733a206e6f7420656e6f75676820746f6b656e730000006000830152602082019050919050565b60006134836013836139b9565b91507f627579546f6b656e733a20736c697070616765000000000000000000000000006000830152602082019050919050565b60006134c3601e836139b9565b91507f627579546f6b656e733a20646169207472616e73666572206661696c656400006000830152602082019050919050565b60006135036024836139b9565b91507f73656c6c546f6b656e733a207072696365207375626365656473206d696e207060008301527f72696365000000000000000000000000000000000000000000000000000000006020830152604082019050919050565b6000613569601f836139b9565b91507f627579546f6b656e733a20746f6b656e20646f6573206e6f74206578697374006000830152602082019050919050565b6135a581613a1a565b82525050565b60006020820190506135c060008301846130b0565b92915050565b60006020820190506135db60008301846130a1565b92915050565b60006040820190506135f660008301856130a1565b61360360208301846130b0565b9392505050565b600060608201905061361f60008301866130a1565b61362c60208301856130b0565b613639604083018461359c565b949350505050565b600060408201905061365660008301856130a1565b613663602083018461359c565b9392505050565b600060408201905061367f60008301856130b0565b61368c60208301846130b0565b9392505050565b60006040820190506136a860008301856130b0565b6136b5602083018461359c565b9392505050565b600060a0820190506136d160008301886130b0565b6136de602083018761359c565b6136eb604083018661359c565b6136f8606083018561359c565b613705608083018461359c565b9695505050505050565b6000602082019050818103600083015261372981846130bf565b905092915050565b6000602082019050818103600083015261374a816130f8565b9050919050565b6000602082019050818103600083015261376a81613138565b9050919050565b6000602082019050818103600083015261378a81613178565b9050919050565b600060208201905081810360008301526137aa816131b8565b9050919050565b600060208201905081810360008301526137ca816131f8565b9050919050565b600060208201905081810360008301526137ea8161325e565b9050919050565b6000602082019050818103600083015261380a816132c4565b9050919050565b6000602082019050818103600083015261382a8161332a565b9050919050565b6000602082019050818103600083015261384a81613390565b9050919050565b6000602082019050818103600083015261386a816133f6565b9050919050565b6000602082019050818103600083015261388a81613436565b9050919050565b600060208201905081810360008301526138aa81613476565b9050919050565b600060208201905081810360008301526138ca816134b6565b9050919050565b600060208201905081810360008301526138ea816134f6565b9050919050565b6000602082019050818103600083015261390a8161355c565b9050919050565b6000602082019050613926600083018461359c565b92915050565b6000604082019050613941600083018561359c565b61394e60208301846130b0565b9392505050565b6000604051905081810181811067ffffffffffffffff8211171561397857600080fd5b8060405250919050565b600067ffffffffffffffff82111561399957600080fd5b601f19601f8301169050602081019050919050565b600081519050919050565b600082825260208201905092915050565b60006139d5826139fa565b9050919050565b60008115159050919050565b60006139f3826139ca565b9050919050565b600073ffffffffffffffffffffffffffffffffffffffff82169050919050565b6000819050919050565b6000613a2f82613a36565b9050919050565b6000613a4182613a48565b9050919050565b6000613a53826139fa565b9050919050565b60005b83811015613a78578082015181840152602081019050613a5d565b83811115613a87576000848401525b50505050565b6000601f19601f8301169050919050565b613aa7816139ca565b8114613ab257600080fd5b50565b613abe816139dc565b8114613ac957600080fd5b50565b613ad5816139e8565b8114613ae057600080fd5b50565b613aec81613a1a565b8114613af757600080fd5b5056fea2646970667358221220948abba08dc5044750a9f6dd9fcfb50e59a3048fa8b3b219d824b539de2fe6fc64736f6c63430006090033",
  "immutableReferences": {},
  "source": "// SPDX-License-Identifier: MIT\r\npragma solidity ^0.6.9;\r\npragma experimental ABIEncoderV2;\r\n\r\nimport \"../util/Ownable.sol\";\r\nimport \"./IIdeaTokenExchange.sol\";\r\nimport \"./IIdeaToken.sol\";\r\nimport \"./IIdeaTokenFactory.sol\";\r\nimport \"./IInterestManager.sol\";\r\nimport \"../util/Initializable.sol\";\r\nimport \"@openzeppelin/contracts/token/ERC20/IERC20.sol\";\r\nimport \"@openzeppelin/contracts/math/SafeMath.sol\";\r\n\r\n/**\r\n * @title IdeaTokenExchange\r\n * @author Alexander Schlindwein\r\n *\r\n * @dev Exchanges Dai <-> IdeaTokens using a bonding curve. Sits behind a proxy\r\n */\r\ncontract IdeaTokenExchange is IIdeaTokenExchange, Initializable, Ownable {\r\n    using SafeMath for uint256;\r\n\r\n    struct TokenExchangeInfo {\r\n        uint daiInToken; // The amount of Dai collected by trading\r\n        uint invested; // The amount of \"investment tokens\", e.g. cDai\r\n    }\r\n\r\n    uint constant private FEE_SCALE = 10000;\r\n\r\n    uint _tradingFeeInvested; // The amount of \"investment tokens\" for the collected trading fee, e.g. cDai\r\n    address _tradingFeeRecipient;\r\n\r\n    mapping(uint => uint) _platformFeeInvested;\r\n    mapping(uint => address) _authorizedPlatformFeeWithdrawers;\r\n\r\n    mapping(address => TokenExchangeInfo) _tokensExchangeInfo;\r\n    mapping(address => address) _authorizedInterestWithdrawers;\r\n\r\n    IIdeaTokenFactory _ideaTokenFactory;\r\n    IInterestManager _interestManager;\r\n    IERC20 _dai;\r\n\r\n    event TokensBought(address ideaToken, uint amount, uint price, uint tradingFee, uint platformFee);\r\n    event TokensSold(address ideaToken, uint amount, uint price, uint tradingFee, uint platformFee);\r\n    event NewInterestWithdrawer(address ideaToken, address withdrawer);\r\n    event NewPlatformFeeWithdrawer(uint marketID, address withdrawer);\r\n\r\n    /**\r\n     * @dev Initializes the contract\r\n     *\r\n     * @param owner The owner of the contract\r\n     * @param tradingFeeRecipient The address of the recipient of the trading fee\r\n     * @param interestManager The address of the InterestManager\r\n     * @param dai The address of Dai\r\n     */\r\n    function initialize(address owner,\r\n                        address tradingFeeRecipient,\r\n                        address interestManager,\r\n                        address dai) external initializer {\r\n        setOwnerInternal(owner);\r\n        _tradingFeeRecipient = tradingFeeRecipient;\r\n        _interestManager = IInterestManager(interestManager);\r\n        _dai = IERC20(dai);\r\n    }\r\n\r\n    /**\r\n     * @dev Burns IdeaTokens in exchange for Dai\r\n     *\r\n     * @param ideaToken The IdeaToken to sell\r\n     * @param tokenAmount The amount of IdeaTokens to sell\r\n     * @param minOutput The minimum output in Dai\r\n     * @param recipient The recipient of the redeemed Dai\r\n     */\r\n    function sellTokens(address ideaToken, uint tokenAmount, uint minOutput, address recipient) external override {\r\n        IIdeaTokenFactory.IDPair memory idPair = _ideaTokenFactory.getTokenIDPair(ideaToken);\r\n        require(idPair.exists, \"sellTokens: token does not exist\");\r\n        IIdeaTokenFactory.MarketDetails memory marketDetails = _ideaTokenFactory.getMarketDetailsByID(idPair.marketID);\r\n\r\n        (uint output, uint tradingFee, uint platformFee) = getSellOutputAndFees(ideaToken, tokenAmount);\r\n\r\n        require(output >= minOutput, \"sellTokens: price subceeds min price\");\r\n        require(IIdeaToken(ideaToken).balanceOf(msg.sender) >= tokenAmount, \"sellTokens: not enough tokens\");\r\n        \r\n        IIdeaToken(ideaToken).burn(msg.sender, tokenAmount);\r\n\r\n        // TODO: Make this more efficient\r\n        uint finalRedeemed = _interestManager.redeem(address(this), output);\r\n        uint tradingFeeRedeemed = _interestManager.redeem(address(_interestManager), tradingFee);\r\n        _interestManager.invest(tradingFee);\r\n        uint platformFeeRedeemed = _interestManager.redeem(address(_interestManager), platformFee);\r\n        _interestManager.invest(platformFee);\r\n\r\n        TokenExchangeInfo storage exchangeInfo = _tokensExchangeInfo[ideaToken];\r\n        exchangeInfo.invested = exchangeInfo.invested.sub(finalRedeemed.add(tradingFeeRedeemed).add(platformFeeRedeemed));\r\n        _tradingFeeInvested = _tradingFeeInvested.add(tradingFeeRedeemed);\r\n        _platformFeeInvested[marketDetails.id] = _platformFeeInvested[marketDetails.id].add(platformFeeRedeemed);\r\n        exchangeInfo.daiInToken = exchangeInfo.daiInToken.sub(output.add(tradingFee).add(platformFee));\r\n    \r\n        emit TokensSold(ideaToken, tokenAmount, output, tradingFee, platformFee);\r\n        _dai.transfer(recipient, output);\r\n    }\r\n\r\n    /**\r\n     * @dev Returns the amount of Dai receivable by selling a given amount of IdeaTokens\r\n     *\r\n     * @param ideaToken The IdeaToken to sell\r\n     * @param tokenAmount The amount of IdeaTokens to sell\r\n     *\r\n     * @return The amount of Dai receivable by selling a given amount of IdeaTokens\r\n     */\r\n    function getSellOutput(address ideaToken, uint tokenAmount) external view override returns (uint) {\r\n        (uint output, , ) = getSellOutputAndFees(ideaToken, tokenAmount);\r\n        return output;\r\n    }\r\n\r\n    /**\r\n     * @dev Calculates output and fees related to selling tokens\r\n     *\r\n     * @param ideaToken The IdeaToken to sell\r\n     * @param tokenAmount The amount of IdeaTokens to sell\r\n     *\r\n     * @return Output, trading fee, platform fee\r\n     */\r\n    function getSellOutputAndFees(address ideaToken, uint tokenAmount) internal view returns (uint, uint, uint) {\r\n        IIdeaTokenFactory.IDPair memory idPair = _ideaTokenFactory.getTokenIDPair(ideaToken);\r\n        IIdeaTokenFactory.MarketDetails memory marketDetails = _ideaTokenFactory.getMarketDetailsByID(idPair.marketID);\r\n\r\n        uint rawOutput = getRawSellOutput(marketDetails.basePrice,\r\n                                          marketDetails.priceRise,\r\n                                          tokenAmount);\r\n\r\n        uint tradingFee = rawOutput.mul(marketDetails.tradingFeeRate).div(FEE_SCALE);\r\n        uint platformFee = rawOutput.mul(marketDetails.platformFeeRate).div(FEE_SCALE);\r\n        uint remaining = rawOutput.sub(tradingFee).sub(platformFee);\r\n    \r\n        return (remaining, tradingFee, platformFee);\r\n    }\r\n\r\n    /**\r\n     * @dev Returns the amount of Dai receivable for selling a given amount of IdeaTokens without any fees applied\r\n     *\r\n     * @param basePrice The base price of the token\r\n     * @param priceRise The price rise of the token\r\n     * @param tokenAmount The amount IdeaTokens to sell\r\n     *\r\n     * @return The amount of Dai receivable for selling a given amount of IdeaTokens without any fees applied\r\n     */\r\n    function getRawSellOutput(uint basePrice, uint priceRise, uint tokenAmount) internal pure returns (uint) {\r\n        return basePrice.add(priceRise.mul(tokenAmount).div(10**18));\r\n    }\r\n\r\n    /**\r\n     * @dev Mints IdeaTokens in exchange for Dai\r\n     *\r\n     * @param ideaToken The IdeaToken to buy\r\n     * @param daiAmount The amount of Dai to spend\r\n     * @param minOutput The minimum output in IdeaTokens\r\n     * @param recipient The recipient of the bought IdeaTokens\r\n     */\r\n    function buyTokens(address ideaToken, uint daiAmount, uint minOutput, address recipient) external override {\r\n        IIdeaTokenFactory.IDPair memory idPair = _ideaTokenFactory.getTokenIDPair(ideaToken);\r\n        require(idPair.exists, \"buyTokens: token does not exist\");\r\n        IIdeaTokenFactory.MarketDetails memory marketDetails = _ideaTokenFactory.getMarketDetailsByID(idPair.marketID);\r\n\r\n        (uint output, uint tradingFee, uint platformFee) = getBuyOutputAndFees(ideaToken, daiAmount);\r\n        uint rawCost = daiAmount.sub(tradingFee).sub(platformFee);\r\n\r\n        require(output >= minOutput, \"buyTokens: slippage\");\r\n        require(_dai.allowance(msg.sender, address(this)) >= daiAmount, \"buyTokens: not enough allowance\");\r\n        require(_dai.transferFrom(msg.sender, address(_interestManager), daiAmount), \"buyTokens: dai transfer failed\");\r\n        \r\n        // TODO: Can we do a single invest call? Worried about rounding errors when dividing\r\n        TokenExchangeInfo storage exchangeInfo = _tokensExchangeInfo[ideaToken];\r\n        exchangeInfo.invested = exchangeInfo.invested.add(_interestManager.invest(rawCost));\r\n        _tradingFeeInvested = _tradingFeeInvested.add(_interestManager.invest(tradingFee));\r\n        _platformFeeInvested[marketDetails.id] = _platformFeeInvested[marketDetails.id].add(_interestManager.invest(platformFee));\r\n        exchangeInfo.daiInToken = exchangeInfo.daiInToken.add(rawCost);\r\n    \r\n        emit TokensBought(ideaToken, output, daiAmount, tradingFee, platformFee);\r\n        IIdeaToken(ideaToken).mint(recipient, output);\r\n    }\r\n\r\n    /**\r\n     * @dev Returns the amount of IdeaTokens purchasable for a given amount of Dai\r\n     *\r\n     * @param ideaToken The IdeaToken to buy\r\n     * @param daiAmount The amount of Dai to spend\r\n     *\r\n     * @return The amount of IdeaTokens purchasable for a given amount of Dai\r\n     */\r\n    function getBuyOutput(address ideaToken, uint daiAmount) external view override returns (uint) {\r\n        (uint output, , ) = getBuyOutputAndFees(ideaToken, daiAmount);\r\n        return output;\r\n    }\r\n\r\n    /**\r\n     * @dev Calculates output and fees related to buying tokens\r\n     *\r\n     * @param ideaToken The IdeaToken to buy\r\n     * @param daiAmount The amount of Dai to spend\r\n     *\r\n     * @return Output, trading fee, platform fee\r\n     */\r\n    function getBuyOutputAndFees(address ideaToken, uint daiAmount) internal view returns (uint, uint, uint) {\r\n        IIdeaTokenFactory.IDPair memory idPair = _ideaTokenFactory.getTokenIDPair(ideaToken);\r\n        IIdeaTokenFactory.MarketDetails memory marketDetails = _ideaTokenFactory.getMarketDetailsByID(idPair.marketID);\r\n\r\n        uint tradingFee = daiAmount.mul(marketDetails.tradingFeeRate).div(FEE_SCALE);\r\n        uint platformFee = daiAmount.mul(marketDetails.platformFeeRate).div(FEE_SCALE);\r\n        uint remaining = daiAmount.sub(tradingFee).sub(platformFee);\r\n\r\n        uint output = getRawBuyOutput(marketDetails.basePrice,\r\n                                      marketDetails.priceRise,\r\n                                      remaining);\r\n\r\n        return (output, tradingFee, platformFee);\r\n    }\r\n\r\n    /**\r\n     * @dev Returns the amount of purchasable IdeaTokens for a given amount of Dai without any fees applied\r\n     *\r\n     * @param basePrice The base price of the token\r\n     * @param priceRise The price rise of the token\r\n     * @param daiAmount The amount of Dai to spend\r\n     *\r\n     * @return The amount of purchasable IdeaTokens for a given amount of Dai without any fees applied\r\n     */\r\n    function getRawBuyOutput(uint basePrice, uint priceRise, uint daiAmount) internal pure returns (uint) {\r\n        return daiAmount.sub(basePrice).mul(10**18).div(priceRise);\r\n    }\r\n\r\n    /**\r\n     * @dev Withdraws available interest for a publisher\r\n     *\r\n     * @param token The token from which the generated interest is to be withdrawn\r\n     */\r\n    function withdrawInterest(address token) external {\r\n        require(_authorizedInterestWithdrawers[token] == msg.sender, \"withdrawInterest: not authorized\");\r\n        _interestManager.accrueInterest();\r\n\r\n        uint interestPayable = getInterestPayable(token);\r\n        if(interestPayable == 0) {\r\n            return;\r\n        }\r\n\r\n        TokenExchangeInfo storage exchangeInfo = _tokensExchangeInfo[token];\r\n        exchangeInfo.invested = exchangeInfo.invested.sub(_interestManager.redeem(msg.sender, interestPayable));\r\n    }\r\n\r\n    /**\r\n     * @dev Returns the interest available to be paid out\r\n     *\r\n     * @param token The token from which the generated interest is to be withdrawn\r\n     *\r\n     * @return The interest available to be paid out\r\n     */\r\n    function getInterestPayable(address token) public view returns (uint) {\r\n        TokenExchangeInfo storage exchangeInfo = _tokensExchangeInfo[token];\r\n        return exchangeInfo.invested.mul(_interestManager.getExchangeRate())\r\n                                    .div(10**18)\r\n                                    .sub(exchangeInfo.daiInToken);\r\n    }\r\n\r\n    /**\r\n     * @dev Authorizes an address which is allowed to withdraw interest for a token\r\n     *\r\n     * @param token The token for which to authorize an address\r\n     * @param withdrawer The address to be authorized\r\n     */\r\n    function authorizeInterestWithdrawer(address token, address withdrawer) external override {\r\n        require(msg.sender == _owner || msg.sender == _authorizedInterestWithdrawers[token], \"authorizeInterestWithdrawer: not authorized\");\r\n        _authorizedInterestWithdrawers[token] = withdrawer;\r\n\r\n        emit NewInterestWithdrawer(token, withdrawer);\r\n    }\r\n\r\n    /**\r\n     * @dev Withdraws available platform fee\r\n     *\r\n     * @param marketID The market from which the generated platform fee is to be withdrawn\r\n     */\r\n    function withdrawPlatformFee(uint marketID) external {\r\n        require(_authorizedPlatformFeeWithdrawers[marketID] == msg.sender, \"withdrawPlatformFee: not authorized\");\r\n        _interestManager.accrueInterest();\r\n\r\n        uint platformFeePayable = getPlatformFeePayable(marketID);\r\n        if(platformFeePayable == 0) {\r\n            return;\r\n        }\r\n\r\n        _platformFeeInvested[marketID] = 0;\r\n        _interestManager.redeem(msg.sender, platformFeePayable);\r\n    }\r\n\r\n    /**\r\n     * @dev Returns the platform fee available to be paid out\r\n     *\r\n     * @param marketID The market from which the generated interest is to be withdrawn\r\n     *\r\n     * @return The platform fee available to be paid out\r\n     */\r\n    function getPlatformFeePayable(uint marketID) public view returns (uint) {\r\n        return _platformFeeInvested[marketID].mul(_interestManager.getExchangeRate()).div(10**18);\r\n    }\r\n\r\n    /**\r\n     * @dev Authorizes an address which is allowed to withdraw platform fee for a market\r\n     *\r\n     * @param marketID The market for which to authorize an address\r\n     * @param withdrawer The address to be authorized\r\n     */\r\n    function authorizePlatformFeeWithdrawer(uint marketID, address withdrawer) external override {\r\n        require(msg.sender == _owner || msg.sender == _authorizedPlatformFeeWithdrawers[marketID], \"authorizePlatformFeeWithdrawer: not authorized\");\r\n        _authorizedPlatformFeeWithdrawers[marketID] = withdrawer;\r\n\r\n        emit NewPlatformFeeWithdrawer(marketID, withdrawer);\r\n    }\r\n\r\n    /**\r\n     * @dev Withdraws available trading fee\r\n     */\r\n    function withdrawTradingFee() external {\r\n\r\n        if(_tradingFeeInvested == 0) {\r\n            return;\r\n        }\r\n\r\n        uint redeem = _tradingFeeInvested;\r\n        _tradingFeeInvested = 0;\r\n        _interestManager.redeemInvestmentToken(_tradingFeeRecipient, redeem);\r\n    }\r\n\r\n    /**\r\n     * @dev Returns the trading fee available to be paid out\r\n     *\r\n     * @return The trading fee available to be paid out\r\n     */\r\n    function getTradingFeePayable() public view returns (uint) {\r\n        return _tradingFeeInvested.mul(_interestManager.getExchangeRate()).div(10**18);\r\n    }\r\n\r\n    /**\r\n     * @dev Sets the IdeaTokenFactory address. Only required once for deployment\r\n     *\r\n     * @param factory The address of the IdeaTokenFactory \r\n     */\r\n    function setIdeaTokenFactoryAddress(address factory) external onlyOwner {\r\n        require(address(_ideaTokenFactory) == address(0));\r\n        _ideaTokenFactory = IIdeaTokenFactory(factory);\r\n    }\r\n}",
  "sourcePath": "C:/Users/Alexander/Desktop/ideamarket-contracts/contracts/core/IdeaTokenExchange.sol",
  "compiler": {
    "name": "solc",
    "version": "0.6.9+commit.3e3065ac.Emscripten.clang"
  },
  "schemaVersion": "3.3.0",
  "updatedAt": "2020-10-18T10:34:42.809Z",
  "devdoc": {
    "author": "Alexander Schlindwein",
    "details": "Exchanges Dai <-> IdeaTokens using a bonding curve. Sits behind a proxy",
    "methods": {
      "authorizeInterestWithdrawer(address,address)": {
        "details": "Authorizes an address which is allowed to withdraw interest for a token",
        "params": {
          "token": "The token for which to authorize an address",
          "withdrawer": "The address to be authorized"
        }
      },
      "authorizePlatformFeeWithdrawer(uint256,address)": {
        "details": "Authorizes an address which is allowed to withdraw platform fee for a market",
        "params": {
          "marketID": "The market for which to authorize an address",
          "withdrawer": "The address to be authorized"
        }
      },
      "buyTokens(address,uint256,uint256,address)": {
        "details": "Mints IdeaTokens in exchange for Dai",
        "params": {
          "daiAmount": "The amount of Dai to spend",
          "ideaToken": "The IdeaToken to buy",
          "minOutput": "The minimum output in IdeaTokens",
          "recipient": "The recipient of the bought IdeaTokens"
        }
      },
      "getBuyOutput(address,uint256)": {
        "details": "Returns the amount of IdeaTokens purchasable for a given amount of Dai",
        "params": {
          "daiAmount": "The amount of Dai to spend",
          "ideaToken": "The IdeaToken to buy"
        },
        "returns": {
          "_0": "The amount of IdeaTokens purchasable for a given amount of Dai"
        }
      },
      "getInterestPayable(address)": {
        "details": "Returns the interest available to be paid out",
        "params": {
          "token": "The token from which the generated interest is to be withdrawn"
        },
        "returns": {
          "_0": "The interest available to be paid out"
        }
      },
      "getPlatformFeePayable(uint256)": {
        "details": "Returns the platform fee available to be paid out",
        "params": {
          "marketID": "The market from which the generated interest is to be withdrawn"
        },
        "returns": {
          "_0": "The platform fee available to be paid out"
        }
      },
      "getSellOutput(address,uint256)": {
        "details": "Returns the amount of Dai receivable by selling a given amount of IdeaTokens",
        "params": {
          "ideaToken": "The IdeaToken to sell",
          "tokenAmount": "The amount of IdeaTokens to sell"
        },
        "returns": {
          "_0": "The amount of Dai receivable by selling a given amount of IdeaTokens"
        }
      },
      "getTradingFeePayable()": {
        "details": "Returns the trading fee available to be paid out",
        "returns": {
          "_0": "The trading fee available to be paid out"
        }
      },
      "initialize(address,address,address,address)": {
        "details": "Initializes the contract",
        "params": {
          "dai": "The address of Dai",
          "interestManager": "The address of the InterestManager",
          "owner": "The owner of the contract",
          "tradingFeeRecipient": "The address of the recipient of the trading fee"
        }
      },
      "sellTokens(address,uint256,uint256,address)": {
        "details": "Burns IdeaTokens in exchange for Dai",
        "params": {
          "ideaToken": "The IdeaToken to sell",
          "minOutput": "The minimum output in Dai",
          "recipient": "The recipient of the redeemed Dai",
          "tokenAmount": "The amount of IdeaTokens to sell"
        }
      },
      "setIdeaTokenFactoryAddress(address)": {
        "details": "Sets the IdeaTokenFactory address. Only required once for deployment",
        "params": {
          "factory": "The address of the IdeaTokenFactory "
        }
      },
      "withdrawInterest(address)": {
        "details": "Withdraws available interest for a publisher",
        "params": {
          "token": "The token from which the generated interest is to be withdrawn"
        }
      },
      "withdrawPlatformFee(uint256)": {
        "details": "Withdraws available platform fee",
        "params": {
          "marketID": "The market from which the generated platform fee is to be withdrawn"
        }
      },
      "withdrawTradingFee()": {
        "details": "Withdraws available trading fee"
      }
    },
    "title": "IdeaTokenExchange"
  },
  "userdoc": {
    "methods": {}
  }
}