{
  "contractName": "IdeaTokenExchange",
  "abi": [
    {
      "anonymous": false,
      "inputs": [
        {
          "indexed": false,
          "internalType": "address",
          "name": "ideaToken",
          "type": "address"
        },
        {
          "indexed": false,
          "internalType": "address",
          "name": "withdrawer",
          "type": "address"
        }
      ],
      "name": "NewInterestWithdrawer",
      "type": "event"
    },
    {
      "anonymous": false,
      "inputs": [
        {
          "indexed": false,
          "internalType": "uint256",
          "name": "marketID",
          "type": "uint256"
        },
        {
          "indexed": false,
          "internalType": "address",
          "name": "withdrawer",
          "type": "address"
        }
      ],
      "name": "NewPlatformFeeWithdrawer",
      "type": "event"
    },
    {
      "anonymous": false,
      "inputs": [
        {
          "indexed": false,
          "internalType": "address",
          "name": "oldOwner",
          "type": "address"
        },
        {
          "indexed": false,
          "internalType": "address",
          "name": "newOwner",
          "type": "address"
        }
      ],
      "name": "OwnershipChanged",
      "type": "event"
    },
    {
      "anonymous": false,
      "inputs": [
        {
          "indexed": false,
          "internalType": "address",
          "name": "ideaToken",
          "type": "address"
        },
        {
          "indexed": false,
          "internalType": "uint256",
          "name": "amount",
          "type": "uint256"
        },
        {
          "indexed": false,
          "internalType": "uint256",
          "name": "rawCost",
          "type": "uint256"
        },
        {
          "indexed": false,
          "internalType": "uint256",
          "name": "finalCost",
          "type": "uint256"
        }
      ],
      "name": "TokensBought",
      "type": "event"
    },
    {
      "anonymous": false,
      "inputs": [
        {
          "indexed": false,
          "internalType": "address",
          "name": "ideaToken",
          "type": "address"
        },
        {
          "indexed": false,
          "internalType": "uint256",
          "name": "amount",
          "type": "uint256"
        },
        {
          "indexed": false,
          "internalType": "uint256",
          "name": "rawPrice",
          "type": "uint256"
        },
        {
          "indexed": false,
          "internalType": "uint256",
          "name": "finalPrice",
          "type": "uint256"
        }
      ],
      "name": "TokensSold",
      "type": "event"
    },
    {
      "inputs": [],
      "name": "getOwner",
      "outputs": [
        {
          "internalType": "address",
          "name": "",
          "type": "address"
        }
      ],
      "stateMutability": "view",
      "type": "function",
      "constant": true
    },
    {
      "inputs": [
        {
          "internalType": "address",
          "name": "newOwner",
          "type": "address"
        }
      ],
      "name": "setOwner",
      "outputs": [],
      "stateMutability": "nonpayable",
      "type": "function"
    },
    {
      "inputs": [
        {
          "internalType": "address",
          "name": "owner",
          "type": "address"
        },
        {
          "internalType": "address",
          "name": "tradingFeeRecipient",
          "type": "address"
        },
        {
          "internalType": "address",
          "name": "interestManager",
          "type": "address"
        },
        {
          "internalType": "address",
          "name": "dai",
          "type": "address"
        }
      ],
      "name": "initialize",
      "outputs": [],
      "stateMutability": "nonpayable",
      "type": "function"
    },
    {
      "inputs": [
        {
          "internalType": "address",
          "name": "ideaToken",
          "type": "address"
        },
        {
          "internalType": "uint256",
          "name": "amount",
          "type": "uint256"
        },
        {
          "internalType": "uint256",
          "name": "minPrice",
          "type": "uint256"
        },
        {
          "internalType": "address",
          "name": "recipient",
          "type": "address"
        }
      ],
      "name": "sellTokens",
      "outputs": [],
      "stateMutability": "nonpayable",
      "type": "function"
    },
    {
      "inputs": [
        {
          "internalType": "address",
          "name": "ideaToken",
          "type": "address"
        },
        {
          "internalType": "uint256",
          "name": "amount",
          "type": "uint256"
        }
      ],
      "name": "getPriceForSellingTokens",
      "outputs": [
        {
          "internalType": "uint256",
          "name": "",
          "type": "uint256"
        }
      ],
      "stateMutability": "view",
      "type": "function",
      "constant": true
    },
    {
      "inputs": [
        {
          "internalType": "address",
          "name": "ideaToken",
          "type": "address"
        },
        {
          "internalType": "uint256",
          "name": "amount",
          "type": "uint256"
        },
        {
          "internalType": "uint256",
          "name": "maxCost",
          "type": "uint256"
        },
        {
          "internalType": "address",
          "name": "recipient",
          "type": "address"
        }
      ],
      "name": "buyTokens",
      "outputs": [],
      "stateMutability": "nonpayable",
      "type": "function"
    },
    {
      "inputs": [
        {
          "internalType": "address",
          "name": "ideaToken",
          "type": "address"
        },
        {
          "internalType": "uint256",
          "name": "amount",
          "type": "uint256"
        }
      ],
      "name": "getCostForBuyingTokens",
      "outputs": [
        {
          "internalType": "uint256",
          "name": "",
          "type": "uint256"
        }
      ],
      "stateMutability": "view",
      "type": "function",
      "constant": true
    },
    {
      "inputs": [
        {
          "internalType": "address",
          "name": "token",
          "type": "address"
        }
      ],
      "name": "withdrawInterest",
      "outputs": [],
      "stateMutability": "nonpayable",
      "type": "function"
    },
    {
      "inputs": [
        {
          "internalType": "address",
          "name": "token",
          "type": "address"
        }
      ],
      "name": "getInterestPayable",
      "outputs": [
        {
          "internalType": "uint256",
          "name": "",
          "type": "uint256"
        }
      ],
      "stateMutability": "view",
      "type": "function",
      "constant": true
    },
    {
      "inputs": [
        {
          "internalType": "address",
          "name": "token",
          "type": "address"
        },
        {
          "internalType": "address",
          "name": "withdrawer",
          "type": "address"
        }
      ],
      "name": "authorizeInterestWithdrawer",
      "outputs": [],
      "stateMutability": "nonpayable",
      "type": "function"
    },
    {
      "inputs": [
        {
          "internalType": "uint256",
          "name": "marketID",
          "type": "uint256"
        }
      ],
      "name": "withdrawPlatformFee",
      "outputs": [],
      "stateMutability": "nonpayable",
      "type": "function"
    },
    {
      "inputs": [
        {
          "internalType": "uint256",
          "name": "marketID",
          "type": "uint256"
        }
      ],
      "name": "getPlatformFeePayable",
      "outputs": [
        {
          "internalType": "uint256",
          "name": "",
          "type": "uint256"
        }
      ],
      "stateMutability": "view",
      "type": "function",
      "constant": true
    },
    {
      "inputs": [
        {
          "internalType": "uint256",
          "name": "marketID",
          "type": "uint256"
        },
        {
          "internalType": "address",
          "name": "withdrawer",
          "type": "address"
        }
      ],
      "name": "authorizePlatformFeeWithdrawer",
      "outputs": [],
      "stateMutability": "nonpayable",
      "type": "function"
    },
    {
      "inputs": [],
      "name": "withdrawTradingFee",
      "outputs": [],
      "stateMutability": "nonpayable",
      "type": "function"
    },
    {
      "inputs": [],
      "name": "getTradingFeePayable",
      "outputs": [
        {
          "internalType": "uint256",
          "name": "",
          "type": "uint256"
        }
      ],
      "stateMutability": "view",
      "type": "function",
      "constant": true
    },
    {
      "inputs": [
        {
          "internalType": "address",
          "name": "factory",
          "type": "address"
        }
      ],
      "name": "setIdeaTokenFactoryAddress",
      "outputs": [],
      "stateMutability": "nonpayable",
      "type": "function"
    }
  ],
  "bytecode": "0x608060405234801561001057600080fd5b50613d8f806100206000396000f3fe608060405234801561001057600080fd5b50600436106100ff5760003560e01c8063893d20e811610097578063af45f32211610066578063af45f32214610296578063dde7c190146102b2578063e5aa7d35146102ce578063f8c8765e146102ea576100ff565b8063893d20e8146102365780639b44e71c14610254578063a7f08f8d1461025e578063aa556e0b1461027a576100ff565b806342de842b116100d357806342de842b14610188578063577aca59146101b857806368b5e647146101e8578063818b975614610218576100ff565b80628db88014610104578063130362b31461013457806313af403514610150578063159fc8f81461016c575b600080fd5b61011e60048036038101906101199190613280565b610306565b60405161012b9190613b70565b60405180910390f35b61014e600480360381019061014991906132d2565b6103ee565b005b61016a60048036038101906101659190613086565b610576565b005b610186600480360381019061018191906130af565b610612565b005b6101a2600480360381019061019d919061314e565b6107f2565b6040516101af9190613b70565b60405180910390f35b6101d260048036038101906101cd9190613086565b61080e565b6040516101df9190613b70565b60405180910390f35b61020260048036038101906101fd919061314e565b610940565b60405161020f9190613b70565b60405180910390f35b61022061095c565b60405161022d9190613b70565b60405180910390f35b61023e610a31565b60405161024b9190613818565b60405180910390f35b61025c610a5b565b005b6102786004803603810190610273919061318a565b610b50565b005b610294600480360381019061028f919061318a565b6112ff565b005b6102b060048036038101906102ab9190613086565b611c04565b005b6102cc60048036038101906102c79190613280565b611e85565b005b6102e860048036038101906102e39190613086565b612092565b005b61030460048036038101906102ff91906130eb565b6121c1565b005b60006103e7670de0b6b3a76400006103d9603b60009054906101000a900473ffffffffffffffffffffffffffffffffffffffff1673ffffffffffffffffffffffffffffffffffffffff1663e6aa216c6040518163ffffffff1660e01b815260040160206040518083038186803b15801561037f57600080fd5b505afa158015610393573d6000803e3d6000fd5b505050506040513d601f19601f820116820180604052508101906103b791906132a9565b603660008781526020019081526020016000205461237a90919063ffffffff16565b6123ea90919063ffffffff16565b9050919050565b603360009054906101000a900473ffffffffffffffffffffffffffffffffffffffff1673ffffffffffffffffffffffffffffffffffffffff163373ffffffffffffffffffffffffffffffffffffffff1614806104a857506037600083815260200190815260200160002060009054906101000a900473ffffffffffffffffffffffffffffffffffffffff1673ffffffffffffffffffffffffffffffffffffffff163373ffffffffffffffffffffffffffffffffffffffff16145b6104e7576040517f08c379a00000000000000000000000000000000000000000000000000000000081526004016104de90613a30565b60405180910390fd5b806037600084815260200190815260200160002060006101000a81548173ffffffffffffffffffffffffffffffffffffffff021916908373ffffffffffffffffffffffffffffffffffffffff1602179055507f92fce6abb44de882f8e06427853d14084ef5fd2d495828dfdcb38d1f5ad0aa50828260405161056a929190613b8b565b60405180910390a15050565b3373ffffffffffffffffffffffffffffffffffffffff16603360009054906101000a900473ffffffffffffffffffffffffffffffffffffffff1673ffffffffffffffffffffffffffffffffffffffff1614610606576040517f08c379a00000000000000000000000000000000000000000000000000000000081526004016105fd906139b0565b60405180910390fd5b61060f81612434565b50565b603360009054906101000a900473ffffffffffffffffffffffffffffffffffffffff1673ffffffffffffffffffffffffffffffffffffffff163373ffffffffffffffffffffffffffffffffffffffff1614806106f85750603960008373ffffffffffffffffffffffffffffffffffffffff1673ffffffffffffffffffffffffffffffffffffffff16815260200190815260200160002060009054906101000a900473ffffffffffffffffffffffffffffffffffffffff1673ffffffffffffffffffffffffffffffffffffffff163373ffffffffffffffffffffffffffffffffffffffff16145b610737576040517f08c379a000000000000000000000000000000000000000000000000000000000815260040161072e90613a70565b60405180910390fd5b80603960008473ffffffffffffffffffffffffffffffffffffffff1673ffffffffffffffffffffffffffffffffffffffff16815260200190815260200160002060006101000a81548173ffffffffffffffffffffffffffffffffffffffff021916908373ffffffffffffffffffffffffffffffffffffffff1602179055507f7a6722ef357887178c9cf10a97427a4c452d6f8d8061aacd3d008016533a89ff82826040516107e69291906138d7565b60405180910390a15050565b6000806107ff84846124d9565b50505090508091505092915050565b600080603860008473ffffffffffffffffffffffffffffffffffffffff1673ffffffffffffffffffffffffffffffffffffffff1681526020019081526020016000209050610938816000015461092a670de0b6b3a764000061091c603b60009054906101000a900473ffffffffffffffffffffffffffffffffffffffff1673ffffffffffffffffffffffffffffffffffffffff1663e6aa216c6040518163ffffffff1660e01b815260040160206040518083038186803b1580156108d157600080fd5b505afa1580156108e5573d6000803e3d6000fd5b505050506040513d601f19601f8201168201806040525081019061090991906132a9565b866001015461237a90919063ffffffff16565b6123ea90919063ffffffff16565b61279090919063ffffffff16565b915050919050565b60008061094d84846127da565b50505090508091505092915050565b6000610a2c670de0b6b3a7640000610a1e603b60009054906101000a900473ffffffffffffffffffffffffffffffffffffffff1673ffffffffffffffffffffffffffffffffffffffff1663e6aa216c6040518163ffffffff1660e01b815260040160206040518083038186803b1580156109d557600080fd5b505afa1580156109e9573d6000803e3d6000fd5b505050506040513d601f19601f82011682018060405250810190610a0d91906132a9565b60345461237a90919063ffffffff16565b6123ea90919063ffffffff16565b905090565b6000603360009054906101000a900473ffffffffffffffffffffffffffffffffffffffff16905090565b60006034541415610a6b57610b4e565b600060345490506000603481905550603b60009054906101000a900473ffffffffffffffffffffffffffffffffffffffff1673ffffffffffffffffffffffffffffffffffffffff1663f3e08e1f603560009054906101000a900473ffffffffffffffffffffffffffffffffffffffff16836040518363ffffffff1660e01b8152600401610af9929190613900565b602060405180830381600087803b158015610b1357600080fd5b505af1158015610b27573d6000803e3d6000fd5b505050506040513d601f19601f82011682018060405250810190610b4b91906132a9565b50505b565b610b58612dd1565b603a60009054906101000a900473ffffffffffffffffffffffffffffffffffffffff1673ffffffffffffffffffffffffffffffffffffffff16633911283a866040518263ffffffff1660e01b8152600401610bb39190613818565b60606040518083038186803b158015610bcb57600080fd5b505afa158015610bdf573d6000803e3d6000fd5b505050506040513d601f19601f82011682018060405250810190610c039190613216565b90508060000151610c49576040517f08c379a0000000000000000000000000000000000000000000000000000000008152600401610c4090613b50565b60405180910390fd5b610c51612df4565b603a60009054906101000a900473ffffffffffffffffffffffffffffffffffffffff1673ffffffffffffffffffffffffffffffffffffffff1663c7d5fe5583602001516040518263ffffffff1660e01b8152600401610cb09190613b70565b60006040518083038186803b158015610cc857600080fd5b505afa158015610cdc573d6000803e3d6000fd5b505050506040513d6000823e3d601f19601f82011682018060405250810190610d05919061323f565b9050600080600080610d178a8a6124d9565b935093509350935087841115610d62576040517f08c379a0000000000000000000000000000000000000000000000000000000008152600401610d59906139d0565b60405180910390fd5b83603c60009054906101000a900473ffffffffffffffffffffffffffffffffffffffff1673ffffffffffffffffffffffffffffffffffffffff1663dd62ed3e33306040518363ffffffff1660e01b8152600401610dc092919061384e565b60206040518083038186803b158015610dd857600080fd5b505afa158015610dec573d6000803e3d6000fd5b505050506040513d601f19601f82011682018060405250810190610e1091906132a9565b1015610e51576040517f08c379a0000000000000000000000000000000000000000000000000000000008152600401610e4890613ad0565b60405180910390fd5b603c60009054906101000a900473ffffffffffffffffffffffffffffffffffffffff1673ffffffffffffffffffffffffffffffffffffffff166323b872dd33603b60009054906101000a900473ffffffffffffffffffffffffffffffffffffffff16876040518463ffffffff1660e01b8152600401610ed293929190613877565b602060405180830381600087803b158015610eec57600080fd5b505af1158015610f00573d6000803e3d6000fd5b505050506040513d601f19601f82011682018060405250810190610f2491906131ed565b610f63576040517f08c379a0000000000000000000000000000000000000000000000000000000008152600401610f5a90613b10565b60405180910390fd5b6000603860008c73ffffffffffffffffffffffffffffffffffffffff1673ffffffffffffffffffffffffffffffffffffffff1681526020019081526020016000209050611069603b60009054906101000a900473ffffffffffffffffffffffffffffffffffffffff1673ffffffffffffffffffffffffffffffffffffffff16632afcf480866040518263ffffffff1660e01b81526004016110049190613b70565b602060405180830381600087803b15801561101e57600080fd5b505af1158015611032573d6000803e3d6000fd5b505050506040513d601f19601f8201168201806040525081019061105691906132a9565b8260010154612a9190919063ffffffff16565b8160010181905550611132603b60009054906101000a900473ffffffffffffffffffffffffffffffffffffffff1673ffffffffffffffffffffffffffffffffffffffff16632afcf480856040518263ffffffff1660e01b81526004016110cf9190613b70565b602060405180830381600087803b1580156110e957600080fd5b505af11580156110fd573d6000803e3d6000fd5b505050506040513d601f19601f8201168201806040525081019061112191906132a9565b603454612a9190919063ffffffff16565b60348190555061120e603b60009054906101000a900473ffffffffffffffffffffffffffffffffffffffff1673ffffffffffffffffffffffffffffffffffffffff16632afcf480846040518263ffffffff1660e01b81526004016111969190613b70565b602060405180830381600087803b1580156111b057600080fd5b505af11580156111c4573d6000803e3d6000fd5b505050506040513d601f19601f820116820180604052508101906111e891906132a9565b603660008960200151815260200190815260200160002054612a9190919063ffffffff16565b603660008860200151815260200190815260200160002081905550611240848260000154612a9190919063ffffffff16565b81600001819055507f22f6af6e13430e3e7b6418d01e6a48c1fbce5e8cb1698901fc95134b4b1c58ad8b8b868860405161127d9493929190613929565b60405180910390a18a73ffffffffffffffffffffffffffffffffffffffff166340c10f19898c6040518363ffffffff1660e01b81526004016112c0929190613900565b600060405180830381600087803b1580156112da57600080fd5b505af11580156112ee573d6000803e3d6000fd5b505050505050505050505050505050565b611307612dd1565b603a60009054906101000a900473ffffffffffffffffffffffffffffffffffffffff1673ffffffffffffffffffffffffffffffffffffffff16633911283a866040518263ffffffff1660e01b81526004016113629190613818565b60606040518083038186803b15801561137a57600080fd5b505afa15801561138e573d6000803e3d6000fd5b505050506040513d601f19601f820116820180604052508101906113b29190613216565b905080600001516113f8576040517f08c379a00000000000000000000000000000000000000000000000000000000081526004016113ef90613a10565b60405180910390fd5b611400612df4565b603a60009054906101000a900473ffffffffffffffffffffffffffffffffffffffff1673ffffffffffffffffffffffffffffffffffffffff1663c7d5fe5583602001516040518263ffffffff1660e01b815260040161145f9190613b70565b60006040518083038186803b15801561147757600080fd5b505afa15801561148b573d6000803e3d6000fd5b505050506040513d6000823e3d601f19601f820116820180604052508101906114b4919061323f565b90506000806000806114c68a8a6127da565b935093509350935087841015611511576040517f08c379a000000000000000000000000000000000000000000000000000000000815260040161150890613b30565b60405180910390fd5b888a73ffffffffffffffffffffffffffffffffffffffff166370a08231336040518263ffffffff1660e01b815260040161154b9190613833565b60206040518083038186803b15801561156357600080fd5b505afa158015611577573d6000803e3d6000fd5b505050506040513d601f19601f8201168201806040525081019061159b91906132a9565b10156115dc576040517f08c379a00000000000000000000000000000000000000000000000000000000081526004016115d390613af0565b60405180910390fd5b8973ffffffffffffffffffffffffffffffffffffffff16639dc29fac338b6040518363ffffffff1660e01b81526004016116179291906138ae565b600060405180830381600087803b15801561163157600080fd5b505af1158015611645573d6000803e3d6000fd5b505050506000603b60009054906101000a900473ffffffffffffffffffffffffffffffffffffffff1673ffffffffffffffffffffffffffffffffffffffff16631e9a695030876040518363ffffffff1660e01b81526004016116a8929190613900565b602060405180830381600087803b1580156116c257600080fd5b505af11580156116d6573d6000803e3d6000fd5b505050506040513d601f19601f820116820180604052508101906116fa91906132a9565b90506000603b60009054906101000a900473ffffffffffffffffffffffffffffffffffffffff1673ffffffffffffffffffffffffffffffffffffffff16631e9a6950603b60009054906101000a900473ffffffffffffffffffffffffffffffffffffffff16866040518363ffffffff1660e01b815260040161177d929190613900565b602060405180830381600087803b15801561179757600080fd5b505af11580156117ab573d6000803e3d6000fd5b505050506040513d601f19601f820116820180604052508101906117cf91906132a9565b9050603b60009054906101000a900473ffffffffffffffffffffffffffffffffffffffff1673ffffffffffffffffffffffffffffffffffffffff16632afcf480856040518263ffffffff1660e01b815260040161182c9190613b70565b602060405180830381600087803b15801561184657600080fd5b505af115801561185a573d6000803e3d6000fd5b505050506040513d601f19601f8201168201806040525081019061187e91906132a9565b506000603b60009054906101000a900473ffffffffffffffffffffffffffffffffffffffff1673ffffffffffffffffffffffffffffffffffffffff16631e9a6950603b60009054906101000a900473ffffffffffffffffffffffffffffffffffffffff16866040518363ffffffff1660e01b8152600401611900929190613900565b602060405180830381600087803b15801561191a57600080fd5b505af115801561192e573d6000803e3d6000fd5b505050506040513d601f19601f8201168201806040525081019061195291906132a9565b9050603b60009054906101000a900473ffffffffffffffffffffffffffffffffffffffff1673ffffffffffffffffffffffffffffffffffffffff16632afcf480856040518263ffffffff1660e01b81526004016119af9190613b70565b602060405180830381600087803b1580156119c957600080fd5b505af11580156119dd573d6000803e3d6000fd5b505050506040513d601f19601f82011682018060405250810190611a0191906132a9565b506000603860008f73ffffffffffffffffffffffffffffffffffffffff1673ffffffffffffffffffffffffffffffffffffffff1681526020019081526020016000209050611a80611a6d83611a5f8688612a9190919063ffffffff16565b612a9190919063ffffffff16565b826001015461279090919063ffffffff16565b8160010181905550611a9d83603454612a9190919063ffffffff16565b603481905550611acd82603660008c60200151815260200190815260200160002054612a9190919063ffffffff16565b603660008b60200151815260200190815260200160002081905550611aff87826000015461279090919063ffffffff16565b81600001819055507f6db63bebf1e6540277744df32846ebdb98385b1a73f2d5de49b28348add63f508e8e898b604051611b3c9493929190613929565b60405180910390a1603c60009054906101000a900473ffffffffffffffffffffffffffffffffffffffff1673ffffffffffffffffffffffffffffffffffffffff1663a9059cbb8c8a6040518363ffffffff1660e01b8152600401611ba1929190613900565b602060405180830381600087803b158015611bbb57600080fd5b505af1158015611bcf573d6000803e3d6000fd5b505050506040513d601f19601f82011682018060405250810190611bf391906131ed565b505050505050505050505050505050565b3373ffffffffffffffffffffffffffffffffffffffff16603960008373ffffffffffffffffffffffffffffffffffffffff1673ffffffffffffffffffffffffffffffffffffffff16815260200190815260200160002060009054906101000a900473ffffffffffffffffffffffffffffffffffffffff1673ffffffffffffffffffffffffffffffffffffffff1614611cd1576040517f08c379a0000000000000000000000000000000000000000000000000000000008152600401611cc890613990565b60405180910390fd5b603b60009054906101000a900473ffffffffffffffffffffffffffffffffffffffff1673ffffffffffffffffffffffffffffffffffffffff1663a6afed956040518163ffffffff1660e01b8152600401600060405180830381600087803b158015611d3b57600080fd5b505af1158015611d4f573d6000803e3d6000fd5b505050506000611d5e8261080e565b90506000811415611d6f5750611e82565b6000603860008473ffffffffffffffffffffffffffffffffffffffff1673ffffffffffffffffffffffffffffffffffffffff1681526020019081526020016000209050611e77603b60009054906101000a900473ffffffffffffffffffffffffffffffffffffffff1673ffffffffffffffffffffffffffffffffffffffff16631e9a695033856040518363ffffffff1660e01b8152600401611e129291906138ae565b602060405180830381600087803b158015611e2c57600080fd5b505af1158015611e40573d6000803e3d6000fd5b505050506040513d601f19601f82011682018060405250810190611e6491906132a9565b826001015461279090919063ffffffff16565b816001018190555050505b50565b3373ffffffffffffffffffffffffffffffffffffffff166037600083815260200190815260200160002060009054906101000a900473ffffffffffffffffffffffffffffffffffffffff1673ffffffffffffffffffffffffffffffffffffffff1614611f26576040517f08c379a0000000000000000000000000000000000000000000000000000000008152600401611f1d90613ab0565b60405180910390fd5b603b60009054906101000a900473ffffffffffffffffffffffffffffffffffffffff1673ffffffffffffffffffffffffffffffffffffffff1663a6afed956040518163ffffffff1660e01b8152600401600060405180830381600087803b158015611f9057600080fd5b505af1158015611fa4573d6000803e3d6000fd5b505050506000611fb382610306565b90506000811415611fc4575061208f565b60006036600084815260200190815260200160002081905550603b60009054906101000a900473ffffffffffffffffffffffffffffffffffffffff1673ffffffffffffffffffffffffffffffffffffffff16631e9a695033836040518363ffffffff1660e01b815260040161203a9291906138ae565b602060405180830381600087803b15801561205457600080fd5b505af1158015612068573d6000803e3d6000fd5b505050506040513d601f19601f8201168201806040525081019061208c91906132a9565b50505b50565b3373ffffffffffffffffffffffffffffffffffffffff16603360009054906101000a900473ffffffffffffffffffffffffffffffffffffffff1673ffffffffffffffffffffffffffffffffffffffff1614612122576040517f08c379a0000000000000000000000000000000000000000000000000000000008152600401612119906139b0565b60405180910390fd5b600073ffffffffffffffffffffffffffffffffffffffff16603a60009054906101000a900473ffffffffffffffffffffffffffffffffffffffff1673ffffffffffffffffffffffffffffffffffffffff161461217d57600080fd5b80603a60006101000a81548173ffffffffffffffffffffffffffffffffffffffff021916908373ffffffffffffffffffffffffffffffffffffffff16021790555050565b600060019054906101000a900460ff16806121e057506121df612ae6565b5b806121f757506000809054906101000a900460ff16155b612236576040517f08c379a000000000000000000000000000000000000000000000000000000000815260040161222d90613a90565b60405180910390fd5b60008060019054906101000a900460ff161590508015612286576001600060016101000a81548160ff02191690831515021790555060016000806101000a81548160ff0219169083151502179055505b61228f85612434565b83603560006101000a81548173ffffffffffffffffffffffffffffffffffffffff021916908373ffffffffffffffffffffffffffffffffffffffff16021790555082603b60006101000a81548173ffffffffffffffffffffffffffffffffffffffff021916908373ffffffffffffffffffffffffffffffffffffffff16021790555081603c60006101000a81548173ffffffffffffffffffffffffffffffffffffffff021916908373ffffffffffffffffffffffffffffffffffffffff16021790555080156123735760008060016101000a81548160ff0219169083151502179055505b5050505050565b60008083141561238d57600090506123e4565b600082840290508284828161239e57fe5b04146123df576040517f08c379a00000000000000000000000000000000000000000000000000000000081526004016123d690613a50565b60405180910390fd5b809150505b92915050565b600061242c83836040518060400160405280601a81526020017f536166654d6174683a206469766973696f6e206279207a65726f000000000000815250612afd565b905092915050565b6000603360009054906101000a900473ffffffffffffffffffffffffffffffffffffffff16905081603360006101000a81548173ffffffffffffffffffffffffffffffffffffffff021916908373ffffffffffffffffffffffffffffffffffffffff1602179055507f0384899bd253d83b23daa4d29aaa2efe0563d1132b43101e9ad667235aeb951b81836040516124cd9291906138d7565b60405180910390a15050565b6000806000806124e7612dd1565b603a60009054906101000a900473ffffffffffffffffffffffffffffffffffffffff1673ffffffffffffffffffffffffffffffffffffffff16633911283a886040518263ffffffff1660e01b81526004016125429190613818565b60606040518083038186803b15801561255a57600080fd5b505afa15801561256e573d6000803e3d6000fd5b505050506040513d601f19601f820116820180604052508101906125929190613216565b905061259c612df4565b603a60009054906101000a900473ffffffffffffffffffffffffffffffffffffffff1673ffffffffffffffffffffffffffffffffffffffff1663c7d5fe5583602001516040518263ffffffff1660e01b81526004016125fb9190613b70565b60006040518083038186803b15801561261357600080fd5b505afa158015612627573d6000803e3d6000fd5b505050506040513d6000823e3d601f19601f82011682018060405250810190612650919061323f565b905060006126ea8260a001518360c001518460e001518c73ffffffffffffffffffffffffffffffffffffffff166318160ddd6040518163ffffffff1660e01b815260040160206040518083038186803b1580156126ac57600080fd5b505afa1580156126c0573d6000803e3d6000fd5b505050506040513d601f19601f820116820180604052508101906126e491906132a9565b8c612b5e565b9050600061271a61271061270c8561010001518561237a90919063ffffffff16565b6123ea90919063ffffffff16565b9050600061274a61271061273c8661012001518661237a90919063ffffffff16565b6123ea90919063ffffffff16565b90506000612773826127658587612a9190919063ffffffff16565b612a9190919063ffffffff16565b905080848484995099509950995050505050505092959194509250565b60006127d283836040518060400160405280601e81526020017f536166654d6174683a207375627472616374696f6e206f766572666c6f770000815250612bb7565b905092915050565b6000806000806127e8612dd1565b603a60009054906101000a900473ffffffffffffffffffffffffffffffffffffffff1673ffffffffffffffffffffffffffffffffffffffff16633911283a886040518263ffffffff1660e01b81526004016128439190613818565b60606040518083038186803b15801561285b57600080fd5b505afa15801561286f573d6000803e3d6000fd5b505050506040513d601f19601f820116820180604052508101906128939190613216565b905061289d612df4565b603a60009054906101000a900473ffffffffffffffffffffffffffffffffffffffff1673ffffffffffffffffffffffffffffffffffffffff1663c7d5fe5583602001516040518263ffffffff1660e01b81526004016128fc9190613b70565b60006040518083038186803b15801561291457600080fd5b505afa158015612928573d6000803e3d6000fd5b505050506040513d6000823e3d601f19601f82011682018060405250810190612951919061323f565b905060006129eb8260a001518360c001518460e001518c73ffffffffffffffffffffffffffffffffffffffff166318160ddd6040518163ffffffff1660e01b815260040160206040518083038186803b1580156129ad57600080fd5b505afa1580156129c1573d6000803e3d6000fd5b505050506040513d601f19601f820116820180604052508101906129e591906132a9565b8c612c12565b90506000612a1b612710612a0d8561010001518561237a90919063ffffffff16565b6123ea90919063ffffffff16565b90506000612a4b612710612a3d8661012001518661237a90919063ffffffff16565b6123ea90919063ffffffff16565b90506000612a7482612a66858761279090919063ffffffff16565b61279090919063ffffffff16565b905080848484995099509950995050505050505092959194509250565b600080828401905083811015612adc576040517f08c379a0000000000000000000000000000000000000000000000000000000008152600401612ad3906139f0565b60405180910390fd5b8091505092915050565b6000803090506000813b9050600081149250505090565b60008083118290612b44576040517f08c379a0000000000000000000000000000000000000000000000000000000008152600401612b3b919061396e565b60405180910390fd5b506000838581612b5057fe5b049050809150509392505050565b600080612b6d87878787612c6b565b90506000612b8f888888612b8a888a612a9190919063ffffffff16565b612c6b565b90506000612ba6838361279090919063ffffffff16565b905080935050505095945050505050565b6000838311158290612bff576040517f08c379a0000000000000000000000000000000000000000000000000000000008152600401612bf6919061396e565b60405180910390fd5b5060008385039050809150509392505050565b600080612c2187878787612c6b565b90506000612c43888888612c3e888a61279090919063ffffffff16565b612c6b565b90506000612c5a828461279090919063ffffffff16565b905080935050505095945050505050565b600080612c8184846123ea90919063ffffffff16565b9050612d15670de0b6b3a7640000612d07612ced612cba612cab8a8761237a90919063ffffffff16565b8b612a9190919063ffffffff16565b612cdf612cd08a8861237a90919063ffffffff16565b8961279090919063ffffffff16565b61237a90919063ffffffff16565b612cf98a8a8a88612d20565b612a9190919063ffffffff16565b6123ea90919063ffffffff16565b915050949350505050565b6000612dc7612d82612d616002612d53612d44600188612a9190919063ffffffff16565b8761237a90919063ffffffff16565b6123ea90919063ffffffff16565b612d74868861237a90919063ffffffff16565b61237a90919063ffffffff16565b612db9612d98878961279090919063ffffffff16565b612dab878761237a90919063ffffffff16565b61237a90919063ffffffff16565b612a9190919063ffffffff16565b9050949350505050565b604051806060016040528060001515815260200160008152602001600081525090565b6040518061014001604052806000151581526020016000815260200160608152602001600073ffffffffffffffffffffffffffffffffffffffff1681526020016000815260200160008152602001600081526020016000815260200160008152602001600081525090565b600081359050612e6e81613cfd565b92915050565b600081519050612e8381613d14565b92915050565b600081519050612e9881613d2b565b92915050565b600082601f830112612eaf57600080fd5b8151612ec2612ebd82613be1565b613bb4565b91508082526020830160208301858383011115612ede57600080fd5b612ee9838284613cb9565b50505092915050565b600060608284031215612f0457600080fd5b612f0e6060613bb4565b90506000612f1e84828501612e74565b6000830152506020612f3284828501613071565b6020830152506040612f4684828501613071565b60408301525092915050565b60006101408284031215612f6557600080fd5b612f70610140613bb4565b90506000612f8084828501612e74565b6000830152506020612f9484828501613071565b602083015250604082015167ffffffffffffffff811115612fb457600080fd5b612fc084828501612e9e565b6040830152506060612fd484828501612e89565b6060830152506080612fe884828501613071565b60808301525060a0612ffc84828501613071565b60a08301525060c061301084828501613071565b60c08301525060e061302484828501613071565b60e08301525061010061303984828501613071565b6101008301525061012061304f84828501613071565b6101208301525092915050565b60008135905061306b81613d42565b92915050565b60008151905061308081613d42565b92915050565b60006020828403121561309857600080fd5b60006130a684828501612e5f565b91505092915050565b600080604083850312156130c257600080fd5b60006130d085828601612e5f565b92505060206130e185828601612e5f565b9150509250929050565b6000806000806080858703121561310157600080fd5b600061310f87828801612e5f565b945050602061312087828801612e5f565b935050604061313187828801612e5f565b925050606061314287828801612e5f565b91505092959194509250565b6000806040838503121561316157600080fd5b600061316f85828601612e5f565b92505060206131808582860161305c565b9150509250929050565b600080600080608085870312156131a057600080fd5b60006131ae87828801612e5f565b94505060206131bf8782880161305c565b93505060406131d08782880161305c565b92505060606131e187828801612e5f565b91505092959194509250565b6000602082840312156131ff57600080fd5b600061320d84828501612e74565b91505092915050565b60006060828403121561322857600080fd5b600061323684828501612ef2565b91505092915050565b60006020828403121561325157600080fd5b600082015167ffffffffffffffff81111561326b57600080fd5b61327784828501612f52565b91505092915050565b60006020828403121561329257600080fd5b60006132a08482850161305c565b91505092915050565b6000602082840312156132bb57600080fd5b60006132c984828501613071565b91505092915050565b600080604083850312156132e557600080fd5b60006132f38582860161305c565b925050602061330485828601612e5f565b9150509250929050565b61331781613c83565b82525050565b61332681613c29565b82525050565b600061333782613c0d565b6133418185613c18565b9350613351818560208601613cb9565b61335a81613cec565b840191505092915050565b6000613372602083613c18565b91507f7769746864726177496e7465726573743a206e6f7420617574686f72697a65646000830152602082019050919050565b60006133b2601283613c18565b91507f4f776e61626c653a206f6e6c794f776e657200000000000000000000000000006000830152602082019050919050565b60006133f2601f83613c18565b91507f627579546f6b656e733a20636f73742065786365656473206d6178436f7374006000830152602082019050919050565b6000613432601b83613c18565b91507f536166654d6174683a206164646974696f6e206f766572666c6f7700000000006000830152602082019050919050565b6000613472602083613c18565b91507f73656c6c546f6b656e733a20746f6b656e20646f6573206e6f742065786973746000830152602082019050919050565b60006134b2602e83613c18565b91507f617574686f72697a65506c6174666f726d466565576974686472617765723a2060008301527f6e6f7420617574686f72697a65640000000000000000000000000000000000006020830152604082019050919050565b6000613518602183613c18565b91507f536166654d6174683a206d756c7469706c69636174696f6e206f766572666c6f60008301527f77000000000000000000000000000000000000000000000000000000000000006020830152604082019050919050565b600061357e602b83613c18565b91507f617574686f72697a65496e746572657374576974686472617765723a206e6f7460008301527f20617574686f72697a65640000000000000000000000000000000000000000006020830152604082019050919050565b60006135e4602e83613c18565b91507f436f6e747261637420696e7374616e63652068617320616c726561647920626560008301527f656e20696e697469616c697a65640000000000000000000000000000000000006020830152604082019050919050565b600061364a602383613c18565b91507f7769746864726177506c6174666f726d4665653a206e6f7420617574686f726960008301527f7a656400000000000000000000000000000000000000000000000000000000006020830152604082019050919050565b60006136b0601f83613c18565b91507f627579546f6b656e733a206e6f7420656e6f75676820616c6c6f77616e6365006000830152602082019050919050565b60006136f0601d83613c18565b91507f73656c6c546f6b656e733a206e6f7420656e6f75676820746f6b656e730000006000830152602082019050919050565b6000613730601e83613c18565b91507f627579546f6b656e733a20646169207472616e73666572206661696c656400006000830152602082019050919050565b6000613770602483613c18565b91507f73656c6c546f6b656e733a207072696365207375626365656473206d696e207060008301527f72696365000000000000000000000000000000000000000000000000000000006020830152604082019050919050565b60006137d6601f83613c18565b91507f627579546f6b656e733a20746f6b656e20646f6573206e6f74206578697374006000830152602082019050919050565b61381281613c79565b82525050565b600060208201905061382d600083018461331d565b92915050565b6000602082019050613848600083018461330e565b92915050565b6000604082019050613863600083018561330e565b613870602083018461331d565b9392505050565b600060608201905061388c600083018661330e565b613899602083018561331d565b6138a66040830184613809565b949350505050565b60006040820190506138c3600083018561330e565b6138d06020830184613809565b9392505050565b60006040820190506138ec600083018561331d565b6138f9602083018461331d565b9392505050565b6000604082019050613915600083018561331d565b6139226020830184613809565b9392505050565b600060808201905061393e600083018761331d565b61394b6020830186613809565b6139586040830185613809565b6139656060830184613809565b95945050505050565b60006020820190508181036000830152613988818461332c565b905092915050565b600060208201905081810360008301526139a981613365565b9050919050565b600060208201905081810360008301526139c9816133a5565b9050919050565b600060208201905081810360008301526139e9816133e5565b9050919050565b60006020820190508181036000830152613a0981613425565b9050919050565b60006020820190508181036000830152613a2981613465565b9050919050565b60006020820190508181036000830152613a49816134a5565b9050919050565b60006020820190508181036000830152613a698161350b565b9050919050565b60006020820190508181036000830152613a8981613571565b9050919050565b60006020820190508181036000830152613aa9816135d7565b9050919050565b60006020820190508181036000830152613ac98161363d565b9050919050565b60006020820190508181036000830152613ae9816136a3565b9050919050565b60006020820190508181036000830152613b09816136e3565b9050919050565b60006020820190508181036000830152613b2981613723565b9050919050565b60006020820190508181036000830152613b4981613763565b9050919050565b60006020820190508181036000830152613b69816137c9565b9050919050565b6000602082019050613b856000830184613809565b92915050565b6000604082019050613ba06000830185613809565b613bad602083018461331d565b9392505050565b6000604051905081810181811067ffffffffffffffff82111715613bd757600080fd5b8060405250919050565b600067ffffffffffffffff821115613bf857600080fd5b601f19601f8301169050602081019050919050565b600081519050919050565b600082825260208201905092915050565b6000613c3482613c59565b9050919050565b60008115159050919050565b6000613c5282613c29565b9050919050565b600073ffffffffffffffffffffffffffffffffffffffff82169050919050565b6000819050919050565b6000613c8e82613c95565b9050919050565b6000613ca082613ca7565b9050919050565b6000613cb282613c59565b9050919050565b60005b83811015613cd7578082015181840152602081019050613cbc565b83811115613ce6576000848401525b50505050565b6000601f19601f8301169050919050565b613d0681613c29565b8114613d1157600080fd5b50565b613d1d81613c3b565b8114613d2857600080fd5b50565b613d3481613c47565b8114613d3f57600080fd5b50565b613d4b81613c79565b8114613d5657600080fd5b5056fea26469706673582212201c5f4b08b9d15db1fa7e1d221a5b168fcde8f53565a1be0233864d656aa6725364736f6c63430006090033",
  "immutableReferences": {},
  "source": "// SPDX-License-Identifier: MIT\r\npragma solidity ^0.6.9;\r\npragma experimental ABIEncoderV2;\r\n\r\nimport \"../util/Ownable.sol\";\r\nimport \"./IIdeaTokenExchange.sol\";\r\nimport \"./IIdeaToken.sol\";\r\nimport \"./IIdeaTokenFactory.sol\";\r\nimport \"./IInterestManager.sol\";\r\nimport \"../util/Initializable.sol\";\r\nimport \"@openzeppelin/contracts/token/ERC20/IERC20.sol\";\r\nimport \"@openzeppelin/contracts/math/SafeMath.sol\";\r\n\r\n/**\r\n * @title IdeaTokenExchange\r\n * @author Alexander Schlindwein\r\n *\r\n * @dev Exchanges Dai <-> IdeaTokens using a bonding curve. Sits behind a proxy\r\n */\r\ncontract IdeaTokenExchange is IIdeaTokenExchange, Initializable, Ownable {\r\n    using SafeMath for uint256;\r\n\r\n    struct TokenExchangeInfo {\r\n        uint daiInToken; // The amount of Dai collected by trading\r\n        uint invested; // The amount of \"investment tokens\", e.g. cDai\r\n    }\r\n\r\n    uint constant private FEE_SCALE = 10000;\r\n\r\n    uint _tradingFeeInvested; // The amount of \"investment tokens\" for the collected trading fee, e.g. cDai\r\n    address _tradingFeeRecipient;\r\n\r\n    mapping(uint => uint) _platformFeeInvested;\r\n    mapping(uint => address) _authorizedPlatformFeeWithdrawers;\r\n\r\n    mapping(address => TokenExchangeInfo) _tokensExchangeInfo;\r\n    mapping(address => address) _authorizedInterestWithdrawers;\r\n\r\n    IIdeaTokenFactory _ideaTokenFactory;\r\n    IInterestManager _interestManager;\r\n    IERC20 _dai;\r\n\r\n    event TokensBought(address ideaToken, uint amount, uint rawCost, uint finalCost);\r\n    event TokensSold(address ideaToken, uint amount, uint rawPrice, uint finalPrice);\r\n    event NewInterestWithdrawer(address ideaToken, address withdrawer);\r\n    event NewPlatformFeeWithdrawer(uint marketID, address withdrawer);\r\n\r\n    /**\r\n     * @dev Initializes the contract\r\n     *\r\n     * @param owner The owner of the contract\r\n     * @param tradingFeeRecipient The address of the recipient of the trading fee\r\n     * @param interestManager The address of the InterestManager\r\n     * @param dai The address of Dai\r\n     */\r\n    function initialize(address owner,\r\n                        address tradingFeeRecipient,\r\n                        address interestManager,\r\n                        address dai) external initializer {\r\n        setOwnerInternal(owner);\r\n        _tradingFeeRecipient = tradingFeeRecipient;\r\n        _interestManager = IInterestManager(interestManager);\r\n        _dai = IERC20(dai);\r\n    }\r\n\r\n    /**\r\n     * @dev Burns IdeaTokens in exchange for Dai\r\n     *\r\n     * @param ideaToken The IdeaToken to sell\r\n     * @param amount The amount of IdeaTokens to sell\r\n     * @param minPrice The minimum allowed price in Dai for selling `amount` IdeaTokens\r\n     * @param recipient The recipient of the redeemed Dai\r\n     */\r\n    function sellTokens(address ideaToken, uint amount, uint minPrice, address recipient) external override {\r\n        IIdeaTokenFactory.IDPair memory idPair = _ideaTokenFactory.getTokenIDPair(ideaToken);\r\n        require(idPair.exists, \"sellTokens: token does not exist\");\r\n        IIdeaTokenFactory.MarketDetails memory marketDetails = _ideaTokenFactory.getMarketDetailsByID(idPair.marketID);\r\n\r\n        (uint finalPrice, uint rawPrice, uint tradingFee, uint platformFee) = getPricesForSellingTokens(ideaToken, amount);\r\n\r\n        require(finalPrice >= minPrice, \"sellTokens: price subceeds min price\");\r\n        require(IIdeaToken(ideaToken).balanceOf(msg.sender) >= amount, \"sellTokens: not enough tokens\");\r\n        \r\n        IIdeaToken(ideaToken).burn(msg.sender, amount);\r\n\r\n        // TODO: Make this more efficient\r\n        uint finalRedeemed = _interestManager.redeem(address(this), finalPrice);\r\n        uint tradingFeeRedeemed = _interestManager.redeem(address(_interestManager), tradingFee);\r\n        _interestManager.invest(tradingFee);\r\n        uint platformFeeRedeemed = _interestManager.redeem(address(_interestManager), platformFee);\r\n        _interestManager.invest(platformFee);\r\n\r\n        TokenExchangeInfo storage exchangeInfo = _tokensExchangeInfo[ideaToken];\r\n        exchangeInfo.invested = exchangeInfo.invested.sub(finalRedeemed.add(tradingFeeRedeemed).add(platformFeeRedeemed));\r\n        _tradingFeeInvested = _tradingFeeInvested.add(tradingFeeRedeemed);\r\n        _platformFeeInvested[marketDetails.id] = _platformFeeInvested[marketDetails.id].add(platformFeeRedeemed);\r\n        exchangeInfo.daiInToken = exchangeInfo.daiInToken.sub(rawPrice);\r\n    \r\n        emit TokensSold(ideaToken, amount, rawPrice, finalPrice);\r\n        _dai.transfer(recipient, finalPrice);\r\n    }\r\n\r\n    /**\r\n     * @dev Returns the price for selling IdeaTokens\r\n     *\r\n     * @param ideaToken The IdeaToken to sell\r\n     * @param amount The amount of IdeaTokens to sell\r\n     *\r\n     * @return The price in Dai for selling `amount` IdeaTokens\r\n     */\r\n    function getPriceForSellingTokens(address ideaToken, uint amount) external view override returns (uint) {\r\n        (uint finalCost, , , ) = getPricesForSellingTokens(ideaToken, amount);\r\n        return finalCost;\r\n    }\r\n\r\n    /**\r\n     * @dev Calculates each price related to selling tokens\r\n     *\r\n     * @param ideaToken The IdeaToken to sell\r\n     * @param amount The amount of IdeaTokens to sell\r\n     *\r\n     * @return Final cost, raw cost and trading fee\r\n     */\r\n    function getPricesForSellingTokens(address ideaToken, uint amount) internal view returns (uint, uint, uint, uint) {\r\n        IIdeaTokenFactory.IDPair memory idPair = _ideaTokenFactory.getTokenIDPair(ideaToken);\r\n        IIdeaTokenFactory.MarketDetails memory marketDetails = _ideaTokenFactory.getMarketDetailsByID(idPair.marketID);\r\n\r\n        uint rawPrice = getRawPriceForSellingTokens(marketDetails.baseCost,\r\n                                                    marketDetails.priceRise,\r\n                                                    marketDetails.tokensPerInterval,\r\n                                                    IERC20(ideaToken).totalSupply(),\r\n                                                    amount);\r\n        uint tradingFee = rawPrice.mul(marketDetails.tradingFeeRate).div(FEE_SCALE);\r\n        uint platformFee = rawPrice.mul(marketDetails.platformFeeRate).div(FEE_SCALE);\r\n        uint finalCost = rawPrice.sub(tradingFee).sub(platformFee);\r\n\r\n        return (finalCost, rawPrice, tradingFee, platformFee);\r\n    }\r\n\r\n    /**\r\n     * @dev Returns the price for selling IdeaTokens without any fees applied\r\n     *\r\n     * @param b The baseCost of the token\r\n     * @param r The priceRise of the token\r\n     * @param t The amount of tokens per interval\r\n     * @param supply The current total supply of the token\r\n     * @param amount The amount of IdeaTokens to sell\r\n     *\r\n     * @return Returns the price for selling `amount` IdeaTokens without any fees applied\r\n     */\r\n    function getRawPriceForSellingTokens(uint b, uint r, uint t, uint supply, uint amount) internal pure returns (uint) {\r\n        uint costForSupply = getCostFromZeroSupply(b, r, t, supply);\r\n        uint costForSupplyMinusAmount = getCostFromZeroSupply(b, r, t, supply.sub(amount));\r\n\r\n        uint rawPrice = costForSupply.sub(costForSupplyMinusAmount);\r\n        return rawPrice;\r\n    }\r\n\r\n    /**\r\n     * @dev Mints IdeaTokens in exchange for Dai\r\n     *\r\n     * @param ideaToken The IdeaToken to buy\r\n     * @param amount The amount of IdeaTokens to buy\r\n     * @param maxCost The maximum allowed cost in Dai to buy `amount` IdeaTokens\r\n     * @param recipient The recipient of the bought IdeaTokens\r\n     */\r\n    function buyTokens(address ideaToken, uint amount, uint maxCost, address recipient) external override {\r\n        IIdeaTokenFactory.IDPair memory idPair = _ideaTokenFactory.getTokenIDPair(ideaToken);\r\n        require(idPair.exists, \"buyTokens: token does not exist\");\r\n        IIdeaTokenFactory.MarketDetails memory marketDetails = _ideaTokenFactory.getMarketDetailsByID(idPair.marketID);\r\n\r\n        (uint finalCost, uint rawCost, uint tradingFee, uint platformFee) = getCostsForBuyingTokens(ideaToken, amount);\r\n\r\n        require(finalCost <= maxCost, \"buyTokens: cost exceeds maxCost\");\r\n        require(_dai.allowance(msg.sender, address(this)) >= finalCost, \"buyTokens: not enough allowance\");\r\n        require(_dai.transferFrom(msg.sender, address(_interestManager), finalCost), \"buyTokens: dai transfer failed\");\r\n        \r\n        // TODO: Can we do a single invest call? Worried about rounding errors when dividing\r\n        TokenExchangeInfo storage exchangeInfo = _tokensExchangeInfo[ideaToken];\r\n        exchangeInfo.invested = exchangeInfo.invested.add(_interestManager.invest(rawCost));\r\n        _tradingFeeInvested = _tradingFeeInvested.add(_interestManager.invest(tradingFee));\r\n        _platformFeeInvested[marketDetails.id] = _platformFeeInvested[marketDetails.id].add(_interestManager.invest(platformFee));\r\n        exchangeInfo.daiInToken = exchangeInfo.daiInToken.add(rawCost);\r\n    \r\n        emit TokensBought(ideaToken, amount, rawCost, finalCost);\r\n        IIdeaToken(ideaToken).mint(recipient, amount);\r\n    }\r\n\r\n    /**\r\n     * @dev Returns the cost for buying IdeaTokens\r\n     *\r\n     * @param ideaToken The IdeaToken to buy\r\n     * @param amount The amount of IdeaTokens to buy\r\n     *\r\n     * @return The cost in Dai for buying `amount` IdeaTokens\r\n     */\r\n    function getCostForBuyingTokens(address ideaToken, uint amount) external view override returns (uint) {\r\n        (uint finalCost, , , ) = getCostsForBuyingTokens(ideaToken, amount);\r\n        return finalCost;\r\n    }\r\n\r\n    /**\r\n     * @dev Calculates each cost related to buying tokens\r\n     *\r\n     * @param ideaToken The IdeaToken to buy\r\n     * @param amount The amount of IdeaTokens to buy\r\n     *\r\n     * @return Final cost, raw cost and trading fee\r\n     */\r\n    function getCostsForBuyingTokens(address ideaToken, uint amount) internal view returns (uint, uint, uint, uint) {\r\n        IIdeaTokenFactory.IDPair memory idPair = _ideaTokenFactory.getTokenIDPair(ideaToken);\r\n        IIdeaTokenFactory.MarketDetails memory marketDetails = _ideaTokenFactory.getMarketDetailsByID(idPair.marketID);\r\n\r\n        uint rawCost = getRawCostForBuyingTokens(marketDetails.baseCost,\r\n                                                 marketDetails.priceRise,\r\n                                                 marketDetails.tokensPerInterval,\r\n                                                 IERC20(ideaToken).totalSupply(),\r\n                                                 amount);\r\n        uint tradingFee = rawCost.mul(marketDetails.tradingFeeRate).div(FEE_SCALE);\r\n        uint platformFee = rawCost.mul(marketDetails.platformFeeRate).div(FEE_SCALE);\r\n        uint finalCost = rawCost.add(tradingFee).add(platformFee);\r\n\r\n        return (finalCost, rawCost, tradingFee, platformFee);\r\n    }\r\n\r\n    /**\r\n     * @dev Returns the cost for buying IdeaTokens without any fees applied\r\n     *\r\n     * @param b The baseCost of the token\r\n     * @param r The priceRise of the token\r\n     * @param t The amount of tokens per interval\r\n     * @param supply The current total supply of the token\r\n     * @param amount The amount of IdeaTokens to buy\r\n     *\r\n     * @return The cost for buying `amount` IdeaTokens without any fees applied\r\n     */\r\n    function getRawCostForBuyingTokens(uint b, uint r, uint t, uint supply, uint amount) internal pure returns (uint) {\r\n        uint costForSupply = getCostFromZeroSupply(b, r, t, supply);\r\n        uint costForSupplyPlusAmount = getCostFromZeroSupply(b, r, t, supply.add(amount));\r\n\r\n        uint rawCost = costForSupplyPlusAmount.sub(costForSupply);\r\n        return rawCost;\r\n    }\r\n\r\n    /**\r\n     * @dev Returns the cost for buying IdeaTokens without any fees applied from 0 supply\r\n     *\r\n     * @param b The baseCost of the token\r\n     * @param r The priceRise of the token\r\n     * @param t The amount of tokens per interval\r\n     * @param amount The amount of IdeaTokens to buy\r\n     *\r\n     * @return The cost for buying `amount` IdeaTokens without any fees applied from 0 supply\r\n     */\r\n    function getCostFromZeroSupply(uint b, uint r, uint t, uint amount) internal pure returns (uint) {\r\n        uint n = amount.div(t);\r\n        return getCostForCompletedIntervals(b, r, t, n).add(amount.sub(n.mul(t)).mul(b.add(n.mul(r)))).div(10**18);\r\n    }\r\n\r\n    /**\r\n     * @dev Returns the cost for completed intervals from 0 supply\r\n     *\r\n     * @param b The baseCost of the token\r\n     * @param r The priceRise of the token\r\n     * @param t The amount of tokens per interval\r\n     * @param n The amount of completed intervals\r\n     *\r\n     * @return Returns the cost for `n` completed intervals from 0 supply\r\n     */\r\n    function getCostForCompletedIntervals(uint b, uint r, uint t, uint n) internal pure returns (uint) {\r\n        return n.mul(t).mul(b.sub(r)).add(r.mul(t).mul(n.mul(n.add(1)).div(2)));\r\n    }\r\n\r\n    /**\r\n     * @dev Withdraws available interest for a publisher\r\n     *\r\n     * @param token The token from which the generated interest is to be withdrawn\r\n     */\r\n    function withdrawInterest(address token) external {\r\n        require(_authorizedInterestWithdrawers[token] == msg.sender, \"withdrawInterest: not authorized\");\r\n        _interestManager.accrueInterest();\r\n\r\n        uint interestPayable = getInterestPayable(token);\r\n        if(interestPayable == 0) {\r\n            return;\r\n        }\r\n\r\n        TokenExchangeInfo storage exchangeInfo = _tokensExchangeInfo[token];\r\n        exchangeInfo.invested = exchangeInfo.invested.sub(_interestManager.redeem(msg.sender, interestPayable));\r\n    }\r\n\r\n    /**\r\n     * @dev Returns the interest available to be paid out\r\n     *\r\n     * @param token The token from which the generated interest is to be withdrawn\r\n     *\r\n     * @return The interest available to be paid out\r\n     */\r\n    function getInterestPayable(address token) public view returns (uint) {\r\n        TokenExchangeInfo storage exchangeInfo = _tokensExchangeInfo[token];\r\n        return exchangeInfo.invested.mul(_interestManager.getExchangeRate())\r\n                                    .div(10**18)\r\n                                    .sub(exchangeInfo.daiInToken);\r\n    }\r\n\r\n    /**\r\n     * @dev Authorizes an address which is allowed to withdraw interest for a token\r\n     *\r\n     * @param token The token for which to authorize an address\r\n     * @param withdrawer The address to be authorized\r\n     */\r\n    function authorizeInterestWithdrawer(address token, address withdrawer) external override {\r\n        require(msg.sender == _owner || msg.sender == _authorizedInterestWithdrawers[token], \"authorizeInterestWithdrawer: not authorized\");\r\n        _authorizedInterestWithdrawers[token] = withdrawer;\r\n\r\n        emit NewInterestWithdrawer(token, withdrawer);\r\n    }\r\n\r\n    /**\r\n     * @dev Withdraws available platform fee\r\n     *\r\n     * @param marketID The market from which the generated platform fee is to be withdrawn\r\n     */\r\n    function withdrawPlatformFee(uint marketID) external {\r\n        require(_authorizedPlatformFeeWithdrawers[marketID] == msg.sender, \"withdrawPlatformFee: not authorized\");\r\n        _interestManager.accrueInterest();\r\n\r\n        uint platformFeePayable = getPlatformFeePayable(marketID);\r\n        if(platformFeePayable == 0) {\r\n            return;\r\n        }\r\n\r\n        _platformFeeInvested[marketID] = 0;\r\n        _interestManager.redeem(msg.sender, platformFeePayable);\r\n    }\r\n\r\n    /**\r\n     * @dev Returns the platform fee available to be paid out\r\n     *\r\n     * @param marketID The market from which the generated interest is to be withdrawn\r\n     *\r\n     * @return The platform fee available to be paid out\r\n     */\r\n    function getPlatformFeePayable(uint marketID) public view returns (uint) {\r\n        return _platformFeeInvested[marketID].mul(_interestManager.getExchangeRate()).div(10**18);\r\n    }\r\n\r\n    /**\r\n     * @dev Authorizes an address which is allowed to withdraw platform fee for a market\r\n     *\r\n     * @param marketID The market for which to authorize an address\r\n     * @param withdrawer The address to be authorized\r\n     */\r\n    function authorizePlatformFeeWithdrawer(uint marketID, address withdrawer) external override {\r\n        require(msg.sender == _owner || msg.sender == _authorizedPlatformFeeWithdrawers[marketID], \"authorizePlatformFeeWithdrawer: not authorized\");\r\n        _authorizedPlatformFeeWithdrawers[marketID] = withdrawer;\r\n\r\n        emit NewPlatformFeeWithdrawer(marketID, withdrawer);\r\n    }\r\n\r\n    /**\r\n     * @dev Withdraws available trading fee\r\n     */\r\n    function withdrawTradingFee() external {\r\n\r\n        if(_tradingFeeInvested == 0) {\r\n            return;\r\n        }\r\n\r\n        uint redeem = _tradingFeeInvested;\r\n        _tradingFeeInvested = 0;\r\n        _interestManager.redeemInvestmentToken(_tradingFeeRecipient, redeem);\r\n    }\r\n\r\n    /**\r\n     * @dev Returns the trading fee available to be paid out\r\n     *\r\n     * @return The trading fee available to be paid out\r\n     */\r\n    function getTradingFeePayable() public view returns (uint) {\r\n        return _tradingFeeInvested.mul(_interestManager.getExchangeRate()).div(10**18);\r\n    }\r\n\r\n    /**\r\n     * @dev Sets the IdeaTokenFactory address. Only required once for deployment\r\n     *\r\n     * @param factory The address of the IdeaTokenFactory \r\n     */\r\n    function setIdeaTokenFactoryAddress(address factory) external onlyOwner {\r\n        require(address(_ideaTokenFactory) == address(0));\r\n        _ideaTokenFactory = IIdeaTokenFactory(factory);\r\n    }\r\n}",
  "sourcePath": "C:/Users/alexa/Desktop/ideamarket-contracts/contracts/core/IdeaTokenExchange.sol",
  "compiler": {
    "name": "solc",
    "version": "0.6.9+commit.3e3065ac.Emscripten.clang"
  },
  "schemaVersion": "3.2.3",
  "updatedAt": "2020-10-16T11:45:02.044Z",
  "networkType": "ethereum",
  "devdoc": {
    "author": "Alexander Schlindwein",
    "details": "Exchanges Dai <-> IdeaTokens using a bonding curve. Sits behind a proxy",
    "methods": {
      "authorizeInterestWithdrawer(address,address)": {
        "details": "Authorizes an address which is allowed to withdraw interest for a token",
        "params": {
          "token": "The token for which to authorize an address",
          "withdrawer": "The address to be authorized"
        }
      },
      "authorizePlatformFeeWithdrawer(uint256,address)": {
        "details": "Authorizes an address which is allowed to withdraw platform fee for a market",
        "params": {
          "marketID": "The market for which to authorize an address",
          "withdrawer": "The address to be authorized"
        }
      },
      "buyTokens(address,uint256,uint256,address)": {
        "details": "Mints IdeaTokens in exchange for Dai",
        "params": {
          "amount": "The amount of IdeaTokens to buy",
          "ideaToken": "The IdeaToken to buy",
          "maxCost": "The maximum allowed cost in Dai to buy `amount` IdeaTokens",
          "recipient": "The recipient of the bought IdeaTokens"
        }
      },
      "getCostForBuyingTokens(address,uint256)": {
        "details": "Returns the cost for buying IdeaTokens",
        "params": {
          "amount": "The amount of IdeaTokens to buy",
          "ideaToken": "The IdeaToken to buy"
        },
        "returns": {
          "_0": "The cost in Dai for buying `amount` IdeaTokens"
        }
      },
      "getInterestPayable(address)": {
        "details": "Returns the interest available to be paid out",
        "params": {
          "token": "The token from which the generated interest is to be withdrawn"
        },
        "returns": {
          "_0": "The interest available to be paid out"
        }
      },
      "getPlatformFeePayable(uint256)": {
        "details": "Returns the platform fee available to be paid out",
        "params": {
          "marketID": "The market from which the generated interest is to be withdrawn"
        },
        "returns": {
          "_0": "The platform fee available to be paid out"
        }
      },
      "getPriceForSellingTokens(address,uint256)": {
        "details": "Returns the price for selling IdeaTokens",
        "params": {
          "amount": "The amount of IdeaTokens to sell",
          "ideaToken": "The IdeaToken to sell"
        },
        "returns": {
          "_0": "The price in Dai for selling `amount` IdeaTokens"
        }
      },
      "getTradingFeePayable()": {
        "details": "Returns the trading fee available to be paid out",
        "returns": {
          "_0": "The trading fee available to be paid out"
        }
      },
      "initialize(address,address,address,address)": {
        "details": "Initializes the contract",
        "params": {
          "dai": "The address of Dai",
          "interestManager": "The address of the InterestManager",
          "owner": "The owner of the contract",
          "tradingFeeRecipient": "The address of the recipient of the trading fee"
        }
      },
      "sellTokens(address,uint256,uint256,address)": {
        "details": "Burns IdeaTokens in exchange for Dai",
        "params": {
          "amount": "The amount of IdeaTokens to sell",
          "ideaToken": "The IdeaToken to sell",
          "minPrice": "The minimum allowed price in Dai for selling `amount` IdeaTokens",
          "recipient": "The recipient of the redeemed Dai"
        }
      },
      "setIdeaTokenFactoryAddress(address)": {
        "details": "Sets the IdeaTokenFactory address. Only required once for deployment",
        "params": {
          "factory": "The address of the IdeaTokenFactory "
        }
      },
      "withdrawInterest(address)": {
        "details": "Withdraws available interest for a publisher",
        "params": {
          "token": "The token from which the generated interest is to be withdrawn"
        }
      },
      "withdrawPlatformFee(uint256)": {
        "details": "Withdraws available platform fee",
        "params": {
          "marketID": "The market from which the generated platform fee is to be withdrawn"
        }
      },
      "withdrawTradingFee()": {
        "details": "Withdraws available trading fee"
      }
    },
    "title": "IdeaTokenExchange"
  },
  "userdoc": {
    "methods": {}
  }
}