{
  "contractName": "IdeaTokenExchange",
  "abi": [
    {
      "anonymous": false,
      "inputs": [
        {
          "indexed": false,
          "internalType": "address",
          "name": "ideaToken",
          "type": "address"
        },
        {
          "indexed": false,
          "internalType": "uint256",
          "name": "daiInToken",
          "type": "uint256"
        },
        {
          "indexed": false,
          "internalType": "uint256",
          "name": "investmentToken",
          "type": "uint256"
        }
      ],
      "name": "DaiInvested",
      "type": "event"
    },
    {
      "anonymous": false,
      "inputs": [
        {
          "indexed": false,
          "internalType": "address",
          "name": "ideaToken",
          "type": "address"
        },
        {
          "indexed": false,
          "internalType": "address",
          "name": "withdrawer",
          "type": "address"
        }
      ],
      "name": "NewInterestWithdrawer",
      "type": "event"
    },
    {
      "anonymous": false,
      "inputs": [
        {
          "indexed": false,
          "internalType": "uint256",
          "name": "marketID",
          "type": "uint256"
        },
        {
          "indexed": false,
          "internalType": "address",
          "name": "withdrawer",
          "type": "address"
        }
      ],
      "name": "NewPlatformFeeWithdrawer",
      "type": "event"
    },
    {
      "anonymous": false,
      "inputs": [
        {
          "indexed": false,
          "internalType": "address",
          "name": "oldOwner",
          "type": "address"
        },
        {
          "indexed": false,
          "internalType": "address",
          "name": "newOwner",
          "type": "address"
        }
      ],
      "name": "OwnershipChanged",
      "type": "event"
    },
    {
      "anonymous": false,
      "inputs": [
        {
          "indexed": false,
          "internalType": "uint256",
          "name": "marketID",
          "type": "uint256"
        },
        {
          "indexed": false,
          "internalType": "uint256",
          "name": "investmentToken",
          "type": "uint256"
        }
      ],
      "name": "PlatformFeeInvested",
      "type": "event"
    },
    {
      "anonymous": false,
      "inputs": [
        {
          "indexed": false,
          "internalType": "address",
          "name": "ideaToken",
          "type": "address"
        },
        {
          "indexed": false,
          "internalType": "uint256",
          "name": "amount",
          "type": "uint256"
        },
        {
          "indexed": false,
          "internalType": "uint256",
          "name": "rawCost",
          "type": "uint256"
        },
        {
          "indexed": false,
          "internalType": "uint256",
          "name": "finalCost",
          "type": "uint256"
        }
      ],
      "name": "TokensBought",
      "type": "event"
    },
    {
      "anonymous": false,
      "inputs": [
        {
          "indexed": false,
          "internalType": "address",
          "name": "ideaToken",
          "type": "address"
        },
        {
          "indexed": false,
          "internalType": "uint256",
          "name": "amount",
          "type": "uint256"
        },
        {
          "indexed": false,
          "internalType": "uint256",
          "name": "rawPrice",
          "type": "uint256"
        },
        {
          "indexed": false,
          "internalType": "uint256",
          "name": "finalPrice",
          "type": "uint256"
        }
      ],
      "name": "TokensSold",
      "type": "event"
    },
    {
      "anonymous": false,
      "inputs": [
        {
          "indexed": false,
          "internalType": "uint256",
          "name": "investmentToken",
          "type": "uint256"
        }
      ],
      "name": "TradingFeeInvested",
      "type": "event"
    },
    {
      "inputs": [],
      "name": "getOwner",
      "outputs": [
        {
          "internalType": "address",
          "name": "",
          "type": "address"
        }
      ],
      "stateMutability": "view",
      "type": "function",
      "constant": true
    },
    {
      "inputs": [
        {
          "internalType": "address",
          "name": "newOwner",
          "type": "address"
        }
      ],
      "name": "setOwner",
      "outputs": [],
      "stateMutability": "nonpayable",
      "type": "function"
    },
    {
      "inputs": [
        {
          "internalType": "address",
          "name": "owner",
          "type": "address"
        },
        {
          "internalType": "address",
          "name": "tradingFeeRecipient",
          "type": "address"
        },
        {
          "internalType": "address",
          "name": "interestManager",
          "type": "address"
        },
        {
          "internalType": "address",
          "name": "dai",
          "type": "address"
        }
      ],
      "name": "initialize",
      "outputs": [],
      "stateMutability": "nonpayable",
      "type": "function"
    },
    {
      "inputs": [
        {
          "internalType": "address",
          "name": "ideaToken",
          "type": "address"
        },
        {
          "internalType": "uint256",
          "name": "amount",
          "type": "uint256"
        },
        {
          "internalType": "uint256",
          "name": "minPrice",
          "type": "uint256"
        },
        {
          "internalType": "address",
          "name": "recipient",
          "type": "address"
        }
      ],
      "name": "sellTokens",
      "outputs": [],
      "stateMutability": "nonpayable",
      "type": "function"
    },
    {
      "inputs": [
        {
          "internalType": "address",
          "name": "ideaToken",
          "type": "address"
        },
        {
          "internalType": "uint256",
          "name": "amount",
          "type": "uint256"
        }
      ],
      "name": "getPriceForSellingTokens",
      "outputs": [
        {
          "internalType": "uint256",
          "name": "",
          "type": "uint256"
        }
      ],
      "stateMutability": "view",
      "type": "function",
      "constant": true
    },
    {
      "inputs": [
        {
          "internalType": "address",
          "name": "ideaToken",
          "type": "address"
        },
        {
          "internalType": "uint256",
          "name": "amount",
          "type": "uint256"
        },
        {
          "internalType": "uint256",
          "name": "fallbackAmount",
          "type": "uint256"
        },
        {
          "internalType": "uint256",
          "name": "cost",
          "type": "uint256"
        },
        {
          "internalType": "address",
          "name": "recipient",
          "type": "address"
        }
      ],
      "name": "buyTokens",
      "outputs": [],
      "stateMutability": "nonpayable",
      "type": "function"
    },
    {
      "inputs": [
        {
          "internalType": "address",
          "name": "ideaToken",
          "type": "address"
        },
        {
          "internalType": "uint256",
          "name": "amount",
          "type": "uint256"
        }
      ],
      "name": "getCostForBuyingTokens",
      "outputs": [
        {
          "internalType": "uint256",
          "name": "",
          "type": "uint256"
        }
      ],
      "stateMutability": "view",
      "type": "function",
      "constant": true
    },
    {
      "inputs": [
        {
          "internalType": "address",
          "name": "token",
          "type": "address"
        }
      ],
      "name": "withdrawInterest",
      "outputs": [],
      "stateMutability": "nonpayable",
      "type": "function"
    },
    {
      "inputs": [
        {
          "internalType": "address",
          "name": "token",
          "type": "address"
        }
      ],
      "name": "getInterestPayable",
      "outputs": [
        {
          "internalType": "uint256",
          "name": "",
          "type": "uint256"
        }
      ],
      "stateMutability": "view",
      "type": "function",
      "constant": true
    },
    {
      "inputs": [
        {
          "internalType": "address",
          "name": "token",
          "type": "address"
        },
        {
          "internalType": "address",
          "name": "withdrawer",
          "type": "address"
        }
      ],
      "name": "authorizeInterestWithdrawer",
      "outputs": [],
      "stateMutability": "nonpayable",
      "type": "function"
    },
    {
      "inputs": [
        {
          "internalType": "uint256",
          "name": "marketID",
          "type": "uint256"
        }
      ],
      "name": "withdrawPlatformFee",
      "outputs": [],
      "stateMutability": "nonpayable",
      "type": "function"
    },
    {
      "inputs": [
        {
          "internalType": "uint256",
          "name": "marketID",
          "type": "uint256"
        }
      ],
      "name": "getPlatformFeePayable",
      "outputs": [
        {
          "internalType": "uint256",
          "name": "",
          "type": "uint256"
        }
      ],
      "stateMutability": "view",
      "type": "function",
      "constant": true
    },
    {
      "inputs": [
        {
          "internalType": "uint256",
          "name": "marketID",
          "type": "uint256"
        },
        {
          "internalType": "address",
          "name": "withdrawer",
          "type": "address"
        }
      ],
      "name": "authorizePlatformFeeWithdrawer",
      "outputs": [],
      "stateMutability": "nonpayable",
      "type": "function"
    },
    {
      "inputs": [],
      "name": "withdrawTradingFee",
      "outputs": [],
      "stateMutability": "nonpayable",
      "type": "function"
    },
    {
      "inputs": [],
      "name": "getTradingFeePayable",
      "outputs": [
        {
          "internalType": "uint256",
          "name": "",
          "type": "uint256"
        }
      ],
      "stateMutability": "view",
      "type": "function",
      "constant": true
    },
    {
      "inputs": [
        {
          "internalType": "address",
          "name": "factory",
          "type": "address"
        }
      ],
      "name": "setIdeaTokenFactoryAddress",
      "outputs": [],
      "stateMutability": "nonpayable",
      "type": "function"
    }
  ],
  "bytecode": "0x608060405234801561001057600080fd5b506140af806100206000396000f3fe608060405234801561001057600080fd5b50600436106100ff5760003560e01c8063893d20e811610097578063cc09125f11610066578063cc09125f14610296578063dde7c190146102b2578063e5aa7d35146102ce578063f8c8765e146102ea576100ff565b8063893d20e8146102365780639b44e71c14610254578063aa556e0b1461025e578063af45f3221461027a576100ff565b806342de842b116100d357806342de842b14610188578063577aca59146101b857806368b5e647146101e8578063818b975614610218576100ff565b80628db88014610104578063130362b31461013457806313af403514610150578063159fc8f81461016c575b600080fd5b61011e600480360381019061011991906134db565b610306565b60405161012b9190613e2c565b60405180910390f35b61014e6004803603810190610149919061352d565b6103cd565b005b61016a6004803603810190610165919061326a565b610555565b005b61018660048036038101906101819190613293565b6105f1565b005b6101a2600480360381019061019d9190613332565b6107d1565b6040516101af9190613e2c565b60405180910390f35b6101d260048036038101906101cd919061326a565b6107ed565b6040516101df9190613e2c565b60405180910390f35b61020260048036038101906101fd9190613332565b6108fe565b60405161020f9190613e2c565b60405180910390f35b61022061091a565b60405161022d9190613e2c565b60405180910390f35b61023e6109ce565b60405161024b9190613a82565b60405180910390f35b61025c6109f8565b005b6102786004803603810190610273919061336e565b610b25565b005b610294600480360381019061028f919061326a565b6113d4565b005b6102b060048036038101906102ab91906133d1565b611698565b005b6102cc60048036038101906102c791906134db565b612076565b005b6102e860048036038101906102e3919061326a565b6122bd565b005b61030460048036038101906102ff91906132cf565b6123ec565b005b6000603b60009054906101000a900473ffffffffffffffffffffffffffffffffffffffff1673ffffffffffffffffffffffffffffffffffffffff1663d84d5e9060366000858152602001908152602001600020546040518263ffffffff1660e01b81526004016103769190613e2c565b60206040518083038186803b15801561038e57600080fd5b505afa1580156103a2573d6000803e3d6000fd5b505050506040513d601f19601f820116820180604052508101906103c69190613504565b9050919050565b603360009054906101000a900473ffffffffffffffffffffffffffffffffffffffff1673ffffffffffffffffffffffffffffffffffffffff163373ffffffffffffffffffffffffffffffffffffffff16148061048757506037600083815260200190815260200160002060009054906101000a900473ffffffffffffffffffffffffffffffffffffffff1673ffffffffffffffffffffffffffffffffffffffff163373ffffffffffffffffffffffffffffffffffffffff16145b6104c6576040517f08c379a00000000000000000000000000000000000000000000000000000000081526004016104bd90613cec565b60405180910390fd5b806037600084815260200190815260200160002060006101000a81548173ffffffffffffffffffffffffffffffffffffffff021916908373ffffffffffffffffffffffffffffffffffffffff1602179055507f92fce6abb44de882f8e06427853d14084ef5fd2d495828dfdcb38d1f5ad0aa508282604051610549929190613e47565b60405180910390a15050565b3373ffffffffffffffffffffffffffffffffffffffff16603360009054906101000a900473ffffffffffffffffffffffffffffffffffffffff1673ffffffffffffffffffffffffffffffffffffffff16146105e5576040517f08c379a00000000000000000000000000000000000000000000000000000000081526004016105dc90613c8c565b60405180910390fd5b6105ee816125a5565b50565b603360009054906101000a900473ffffffffffffffffffffffffffffffffffffffff1673ffffffffffffffffffffffffffffffffffffffff163373ffffffffffffffffffffffffffffffffffffffff1614806106d75750603960008373ffffffffffffffffffffffffffffffffffffffff1673ffffffffffffffffffffffffffffffffffffffff16815260200190815260200160002060009054906101000a900473ffffffffffffffffffffffffffffffffffffffff1673ffffffffffffffffffffffffffffffffffffffff163373ffffffffffffffffffffffffffffffffffffffff16145b610716576040517f08c379a000000000000000000000000000000000000000000000000000000000815260040161070d90613d2c565b60405180910390fd5b80603960008473ffffffffffffffffffffffffffffffffffffffff1673ffffffffffffffffffffffffffffffffffffffff16815260200190815260200160002060006101000a81548173ffffffffffffffffffffffffffffffffffffffff021916908373ffffffffffffffffffffffffffffffffffffffff1602179055507f7a6722ef357887178c9cf10a97427a4c452d6f8d8061aacd3d008016533a89ff82826040516107c5929190613b41565b60405180910390a15050565b6000806107de848461264a565b50505090508091505092915050565b600080603860008473ffffffffffffffffffffffffffffffffffffffff1673ffffffffffffffffffffffffffffffffffffffff16815260200190815260200160002090506108f68160000154603b60009054906101000a900473ffffffffffffffffffffffffffffffffffffffff1673ffffffffffffffffffffffffffffffffffffffff1663d84d5e9084600101546040518263ffffffff1660e01b81526004016108989190613e2c565b60206040518083038186803b1580156108b057600080fd5b505afa1580156108c4573d6000803e3d6000fd5b505050506040513d601f19601f820116820180604052508101906108e89190613504565b6128fb90919063ffffffff16565b915050919050565b60008061090b8484612945565b50505090508091505092915050565b6000603b60009054906101000a900473ffffffffffffffffffffffffffffffffffffffff1673ffffffffffffffffffffffffffffffffffffffff1663d84d5e906034546040518263ffffffff1660e01b81526004016109799190613e2c565b60206040518083038186803b15801561099157600080fd5b505afa1580156109a5573d6000803e3d6000fd5b505050506040513d601f19601f820116820180604052508101906109c99190613504565b905090565b6000603360009054906101000a900473ffffffffffffffffffffffffffffffffffffffff16905090565b60006034541415610a0857610b23565b600060345490506000603481905550603b60009054906101000a900473ffffffffffffffffffffffffffffffffffffffff1673ffffffffffffffffffffffffffffffffffffffff1663f3e08e1f603560009054906101000a900473ffffffffffffffffffffffffffffffffffffffff16836040518363ffffffff1660e01b8152600401610a96929190613b6a565b602060405180830381600087803b158015610ab057600080fd5b505af1158015610ac4573d6000803e3d6000fd5b505050506040513d601f19601f82011682018060405250810190610ae89190613504565b507fd6b0cdd3144d995a863b23666258e8ff856859a28147a5138f64264defe585276000604051610b199190613c0f565b60405180910390a1505b565b610b2d612fd2565b603a60009054906101000a900473ffffffffffffffffffffffffffffffffffffffff1673ffffffffffffffffffffffffffffffffffffffff16633911283a866040518263ffffffff1660e01b8152600401610b889190613a82565b60606040518083038186803b158015610ba057600080fd5b505afa158015610bb4573d6000803e3d6000fd5b505050506040513d601f19601f82011682018060405250810190610bd89190613471565b90508060000151610c1e576040517f08c379a0000000000000000000000000000000000000000000000000000000008152600401610c1590613ccc565b60405180910390fd5b610c26612ff5565b603a60009054906101000a900473ffffffffffffffffffffffffffffffffffffffff1673ffffffffffffffffffffffffffffffffffffffff1663c7d5fe5583602001516040518263ffffffff1660e01b8152600401610c859190613e2c565b60006040518083038186803b158015610c9d57600080fd5b505afa158015610cb1573d6000803e3d6000fd5b505050506040513d6000823e3d601f19601f82011682018060405250810190610cda919061349a565b9050600080600080610cec8a8a612945565b935093509350935087841015610d37576040517f08c379a0000000000000000000000000000000000000000000000000000000008152600401610d2e90613dec565b60405180910390fd5b888a73ffffffffffffffffffffffffffffffffffffffff166370a08231336040518263ffffffff1660e01b8152600401610d719190613a9d565b60206040518083038186803b158015610d8957600080fd5b505afa158015610d9d573d6000803e3d6000fd5b505050506040513d601f19601f82011682018060405250810190610dc19190613504565b1015610e02576040517f08c379a0000000000000000000000000000000000000000000000000000000008152600401610df990613dac565b60405180910390fd5b8973ffffffffffffffffffffffffffffffffffffffff16639dc29fac338b6040518363ffffffff1660e01b8152600401610e3d929190613b18565b600060405180830381600087803b158015610e5757600080fd5b505af1158015610e6b573d6000803e3d6000fd5b50505050603b60009054906101000a900473ffffffffffffffffffffffffffffffffffffffff1673ffffffffffffffffffffffffffffffffffffffff1663a6afed956040518163ffffffff1660e01b8152600401600060405180830381600087803b158015610ed957600080fd5b505af1158015610eed573d6000803e3d6000fd5b505050506000603b60009054906101000a900473ffffffffffffffffffffffffffffffffffffffff1673ffffffffffffffffffffffffffffffffffffffff16631e9a695030876040518363ffffffff1660e01b8152600401610f50929190613b6a565b602060405180830381600087803b158015610f6a57600080fd5b505af1158015610f7e573d6000803e3d6000fd5b505050506040513d601f19601f82011682018060405250810190610fa29190613504565b90506000603b60009054906101000a900473ffffffffffffffffffffffffffffffffffffffff1673ffffffffffffffffffffffffffffffffffffffff1663df6395ce856040518263ffffffff1660e01b81526004016110019190613e2c565b60206040518083038186803b15801561101957600080fd5b505afa15801561102d573d6000803e3d6000fd5b505050506040513d601f19601f820116820180604052508101906110519190613504565b90506000603b60009054906101000a900473ffffffffffffffffffffffffffffffffffffffff1673ffffffffffffffffffffffffffffffffffffffff1663df6395ce856040518263ffffffff1660e01b81526004016110b09190613e2c565b60206040518083038186803b1580156110c857600080fd5b505afa1580156110dc573d6000803e3d6000fd5b505050506040513d601f19601f820116820180604052508101906111009190613504565b90506000603860008f73ffffffffffffffffffffffffffffffffffffffff1673ffffffffffffffffffffffffffffffffffffffff168152602001908152602001600020905061118061116d8361115f8688612bf690919063ffffffff16565b612bf690919063ffffffff16565b82600101546128fb90919063ffffffff16565b816001018190555061119d83603454612bf690919063ffffffff16565b6034819055506111cd82603660008c60200151815260200190815260200160002054612bf690919063ffffffff16565b603660008b602001518152602001908152602001600020819055506111ff8782600001546128fb90919063ffffffff16565b81600001819055507f6db63bebf1e6540277744df32846ebdb98385b1a73f2d5de49b28348add63f508e8e898b60405161123c9493929190613bca565b60405180910390a17fabe3032c085c7d42f2183eb46dcf8607c6e04d221d6f9920c7291ee18e9c59b68e8260000154836001015460405161127f93929190613b93565b60405180910390a17fd6b0cdd3144d995a863b23666258e8ff856859a28147a5138f64264defe585276034546040516112b89190613e2c565b60405180910390a17f5c2982642443bff7429db96062d667a54f7c06c0294cefab1986a8e56d78d2a18960200151603660008c6020015181526020019081526020016000205460405161130c929190613e99565b60405180910390a1603c60009054906101000a900473ffffffffffffffffffffffffffffffffffffffff1673ffffffffffffffffffffffffffffffffffffffff1663a9059cbb8c8a6040518363ffffffff1660e01b8152600401611371929190613b6a565b602060405180830381600087803b15801561138b57600080fd5b505af115801561139f573d6000803e3d6000fd5b505050506040513d601f19601f820116820180604052508101906113c39190613448565b505050505050505050505050505050565b3373ffffffffffffffffffffffffffffffffffffffff16603960008373ffffffffffffffffffffffffffffffffffffffff1673ffffffffffffffffffffffffffffffffffffffff16815260200190815260200160002060009054906101000a900473ffffffffffffffffffffffffffffffffffffffff1673ffffffffffffffffffffffffffffffffffffffff16146114a1576040517f08c379a000000000000000000000000000000000000000000000000000000000815260040161149890613c4c565b60405180910390fd5b603b60009054906101000a900473ffffffffffffffffffffffffffffffffffffffff1673ffffffffffffffffffffffffffffffffffffffff1663a6afed956040518163ffffffff1660e01b8152600401600060405180830381600087803b15801561150b57600080fd5b505af115801561151f573d6000803e3d6000fd5b50505050600061152e826107ed565b9050600081141561153f5750611695565b6000603860008473ffffffffffffffffffffffffffffffffffffffff1673ffffffffffffffffffffffffffffffffffffffff1681526020019081526020016000209050611647603b60009054906101000a900473ffffffffffffffffffffffffffffffffffffffff1673ffffffffffffffffffffffffffffffffffffffff16631e9a695033856040518363ffffffff1660e01b81526004016115e2929190613b18565b602060405180830381600087803b1580156115fc57600080fd5b505af1158015611610573d6000803e3d6000fd5b505050506040513d601f19601f820116820180604052508101906116349190613504565b82600101546128fb90919063ffffffff16565b81600101819055507fabe3032c085c7d42f2183eb46dcf8607c6e04d221d6f9920c7291ee18e9c59b6838260000154836001015460405161168a93929190613b93565b60405180910390a150505b50565b6116a0612fd2565b603a60009054906101000a900473ffffffffffffffffffffffffffffffffffffffff1673ffffffffffffffffffffffffffffffffffffffff16633911283a876040518263ffffffff1660e01b81526004016116fb9190613a82565b60606040518083038186803b15801561171357600080fd5b505afa158015611727573d6000803e3d6000fd5b505050506040513d601f19601f8201168201806040525081019061174b9190613471565b90508060000151611791576040517f08c379a000000000000000000000000000000000000000000000000000000000815260040161178890613e0c565b60405180910390fd5b611799612ff5565b603a60009054906101000a900473ffffffffffffffffffffffffffffffffffffffff1673ffffffffffffffffffffffffffffffffffffffff1663c7d5fe5583602001516040518263ffffffff1660e01b81526004016117f89190613e2c565b60006040518083038186803b15801561181057600080fd5b505afa158015611824573d6000803e3d6000fd5b505050506040513d6000823e3d601f19601f8201168201806040525081019061184d919061349a565b905060008690506000806000806118648c8661264a565b80945081955082965083975050505050888411156118dd578994506118898c8661264a565b80945081955082965083975050505050888411156118dc576040517f08c379a00000000000000000000000000000000000000000000000000000000081526004016118d390613c6c565b60405180910390fd5b5b83603c60009054906101000a900473ffffffffffffffffffffffffffffffffffffffff1673ffffffffffffffffffffffffffffffffffffffff1663dd62ed3e33306040518363ffffffff1660e01b815260040161193b929190613ab8565b60206040518083038186803b15801561195357600080fd5b505afa158015611967573d6000803e3d6000fd5b505050506040513d601f19601f8201168201806040525081019061198b9190613504565b10156119cc576040517f08c379a00000000000000000000000000000000000000000000000000000000081526004016119c390613d8c565b60405180910390fd5b603c60009054906101000a900473ffffffffffffffffffffffffffffffffffffffff1673ffffffffffffffffffffffffffffffffffffffff166323b872dd33603b60009054906101000a900473ffffffffffffffffffffffffffffffffffffffff16876040518463ffffffff1660e01b8152600401611a4d93929190613ae1565b602060405180830381600087803b158015611a6757600080fd5b505af1158015611a7b573d6000803e3d6000fd5b505050506040513d601f19601f82011682018060405250810190611a9f9190613448565b611ade576040517f08c379a0000000000000000000000000000000000000000000000000000000008152600401611ad590613dcc565b60405180910390fd5b603b60009054906101000a900473ffffffffffffffffffffffffffffffffffffffff1673ffffffffffffffffffffffffffffffffffffffff1663a6afed956040518163ffffffff1660e01b8152600401600060405180830381600087803b158015611b4857600080fd5b505af1158015611b5c573d6000803e3d6000fd5b50505050603b60009054906101000a900473ffffffffffffffffffffffffffffffffffffffff1673ffffffffffffffffffffffffffffffffffffffff16632afcf480856040518263ffffffff1660e01b8152600401611bbb9190613e2c565b602060405180830381600087803b158015611bd557600080fd5b505af1158015611be9573d6000803e3d6000fd5b505050506040513d601f19601f82011682018060405250810190611c0d9190613504565b506000603860008e73ffffffffffffffffffffffffffffffffffffffff1673ffffffffffffffffffffffffffffffffffffffff1681526020019081526020016000209050611d12603b60009054906101000a900473ffffffffffffffffffffffffffffffffffffffff1673ffffffffffffffffffffffffffffffffffffffff1663df6395ce866040518263ffffffff1660e01b8152600401611caf9190613e2c565b60206040518083038186803b158015611cc757600080fd5b505afa158015611cdb573d6000803e3d6000fd5b505050506040513d601f19601f82011682018060405250810190611cff9190613504565b8260010154612bf690919063ffffffff16565b8160010181905550611dd9603b60009054906101000a900473ffffffffffffffffffffffffffffffffffffffff1673ffffffffffffffffffffffffffffffffffffffff1663df6395ce856040518263ffffffff1660e01b8152600401611d789190613e2c565b60206040518083038186803b158015611d9057600080fd5b505afa158015611da4573d6000803e3d6000fd5b505050506040513d601f19601f82011682018060405250810190611dc89190613504565b603454612bf690919063ffffffff16565b603481905550611eb3603b60009054906101000a900473ffffffffffffffffffffffffffffffffffffffff1673ffffffffffffffffffffffffffffffffffffffff1663df6395ce846040518263ffffffff1660e01b8152600401611e3d9190613e2c565b60206040518083038186803b158015611e5557600080fd5b505afa158015611e69573d6000803e3d6000fd5b505050506040513d601f19601f82011682018060405250810190611e8d9190613504565b603660008a60200151815260200190815260200160002054612bf690919063ffffffff16565b603660008960200151815260200190815260200160002081905550611ee5848260000154612bf690919063ffffffff16565b81600001819055507f22f6af6e13430e3e7b6418d01e6a48c1fbce5e8cb1698901fc95134b4b1c58ad8d878688604051611f229493929190613bca565b60405180910390a17fabe3032c085c7d42f2183eb46dcf8607c6e04d221d6f9920c7291ee18e9c59b68d82600001548360010154604051611f6593929190613b93565b60405180910390a17fd6b0cdd3144d995a863b23666258e8ff856859a28147a5138f64264defe58527603454604051611f9e9190613e2c565b60405180910390a17f5c2982642443bff7429db96062d667a54f7c06c0294cefab1986a8e56d78d2a18760200151603660008a60200151815260200190815260200160002054604051611ff2929190613e99565b60405180910390a18c73ffffffffffffffffffffffffffffffffffffffff166340c10f198a886040518363ffffffff1660e01b8152600401612035929190613b6a565b600060405180830381600087803b15801561204f57600080fd5b505af1158015612063573d6000803e3d6000fd5b5050505050505050505050505050505050565b3373ffffffffffffffffffffffffffffffffffffffff166037600083815260200190815260200160002060009054906101000a900473ffffffffffffffffffffffffffffffffffffffff1673ffffffffffffffffffffffffffffffffffffffff1614612117576040517f08c379a000000000000000000000000000000000000000000000000000000000815260040161210e90613d6c565b60405180910390fd5b603b60009054906101000a900473ffffffffffffffffffffffffffffffffffffffff1673ffffffffffffffffffffffffffffffffffffffff1663a6afed956040518163ffffffff1660e01b8152600401600060405180830381600087803b15801561218157600080fd5b505af1158015612195573d6000803e3d6000fd5b5050505060006121a482610306565b905060008114156121b557506122ba565b60006036600084815260200190815260200160002081905550603b60009054906101000a900473ffffffffffffffffffffffffffffffffffffffff1673ffffffffffffffffffffffffffffffffffffffff16631e9a695033836040518363ffffffff1660e01b815260040161222b929190613b18565b602060405180830381600087803b15801561224557600080fd5b505af1158015612259573d6000803e3d6000fd5b505050506040513d601f19601f8201168201806040525081019061227d9190613504565b507f5c2982642443bff7429db96062d667a54f7c06c0294cefab1986a8e56d78d2a18260006040516122b0929190613e70565b60405180910390a1505b50565b3373ffffffffffffffffffffffffffffffffffffffff16603360009054906101000a900473ffffffffffffffffffffffffffffffffffffffff1673ffffffffffffffffffffffffffffffffffffffff161461234d576040517f08c379a000000000000000000000000000000000000000000000000000000000815260040161234490613c8c565b60405180910390fd5b600073ffffffffffffffffffffffffffffffffffffffff16603a60009054906101000a900473ffffffffffffffffffffffffffffffffffffffff1673ffffffffffffffffffffffffffffffffffffffff16146123a857600080fd5b80603a60006101000a81548173ffffffffffffffffffffffffffffffffffffffff021916908373ffffffffffffffffffffffffffffffffffffffff16021790555050565b600060019054906101000a900460ff168061240b575061240a612c4b565b5b8061242257506000809054906101000a900460ff16155b612461576040517f08c379a000000000000000000000000000000000000000000000000000000000815260040161245890613d4c565b60405180910390fd5b60008060019054906101000a900460ff1615905080156124b1576001600060016101000a81548160ff02191690831515021790555060016000806101000a81548160ff0219169083151502179055505b6124ba856125a5565b83603560006101000a81548173ffffffffffffffffffffffffffffffffffffffff021916908373ffffffffffffffffffffffffffffffffffffffff16021790555082603b60006101000a81548173ffffffffffffffffffffffffffffffffffffffff021916908373ffffffffffffffffffffffffffffffffffffffff16021790555081603c60006101000a81548173ffffffffffffffffffffffffffffffffffffffff021916908373ffffffffffffffffffffffffffffffffffffffff160217905550801561259e5760008060016101000a81548160ff0219169083151502179055505b5050505050565b6000603360009054906101000a900473ffffffffffffffffffffffffffffffffffffffff16905081603360006101000a81548173ffffffffffffffffffffffffffffffffffffffff021916908373ffffffffffffffffffffffffffffffffffffffff1602179055507f0384899bd253d83b23daa4d29aaa2efe0563d1132b43101e9ad667235aeb951b818360405161263e929190613b41565b60405180910390a15050565b600080600080612658612fd2565b603a60009054906101000a900473ffffffffffffffffffffffffffffffffffffffff1673ffffffffffffffffffffffffffffffffffffffff16633911283a886040518263ffffffff1660e01b81526004016126b39190613a82565b60606040518083038186803b1580156126cb57600080fd5b505afa1580156126df573d6000803e3d6000fd5b505050506040513d601f19601f820116820180604052508101906127039190613471565b905061270d612ff5565b603a60009054906101000a900473ffffffffffffffffffffffffffffffffffffffff1673ffffffffffffffffffffffffffffffffffffffff1663c7d5fe5583602001516040518263ffffffff1660e01b815260040161276c9190613e2c565b60006040518083038186803b15801561278457600080fd5b505afa158015612798573d6000803e3d6000fd5b505050506040513d6000823e3d601f19601f820116820180604052508101906127c1919061349a565b905060006128568260a001518360c001518b73ffffffffffffffffffffffffffffffffffffffff166318160ddd6040518163ffffffff1660e01b815260040160206040518083038186803b15801561281857600080fd5b505afa15801561282c573d6000803e3d6000fd5b505050506040513d601f19601f820116820180604052508101906128509190613504565b8b612c62565b905060006128856127106128778560e0015185612d5f90919063ffffffff16565b612dcf90919063ffffffff16565b905060006128b56127106128a786610100015186612d5f90919063ffffffff16565b612dcf90919063ffffffff16565b905060006128de826128d08587612bf690919063ffffffff16565b612bf690919063ffffffff16565b905080848484995099509950995050505050505092959194509250565b600061293d83836040518060400160405280601e81526020017f536166654d6174683a207375627472616374696f6e206f766572666c6f770000815250612e19565b905092915050565b600080600080612953612fd2565b603a60009054906101000a900473ffffffffffffffffffffffffffffffffffffffff1673ffffffffffffffffffffffffffffffffffffffff16633911283a886040518263ffffffff1660e01b81526004016129ae9190613a82565b60606040518083038186803b1580156129c657600080fd5b505afa1580156129da573d6000803e3d6000fd5b505050506040513d601f19601f820116820180604052508101906129fe9190613471565b9050612a08612ff5565b603a60009054906101000a900473ffffffffffffffffffffffffffffffffffffffff1673ffffffffffffffffffffffffffffffffffffffff1663c7d5fe5583602001516040518263ffffffff1660e01b8152600401612a679190613e2c565b60006040518083038186803b158015612a7f57600080fd5b505afa158015612a93573d6000803e3d6000fd5b505050506040513d6000823e3d601f19601f82011682018060405250810190612abc919061349a565b90506000612b518260a001518360c001518b73ffffffffffffffffffffffffffffffffffffffff166318160ddd6040518163ffffffff1660e01b815260040160206040518083038186803b158015612b1357600080fd5b505afa158015612b27573d6000803e3d6000fd5b505050506040513d601f19601f82011682018060405250810190612b4b9190613504565b8b612e74565b90506000612b80612710612b728560e0015185612d5f90919063ffffffff16565b612dcf90919063ffffffff16565b90506000612bb0612710612ba286610100015186612d5f90919063ffffffff16565b612dcf90919063ffffffff16565b90506000612bd982612bcb85876128fb90919063ffffffff16565b6128fb90919063ffffffff16565b905080848484995099509950995050505050505092959194509250565b600080828401905083811015612c41576040517f08c379a0000000000000000000000000000000000000000000000000000000008152600401612c3890613cac565b60405180910390fd5b8091505092915050565b6000803090506000813b9050600081149250505090565b600080612ca4612c95670de0b6b3a7640000612c878789612d5f90919063ffffffff16565b612dcf90919063ffffffff16565b87612bf690919063ffffffff16565b90506000612cf9612cea670de0b6b3a7640000612cdc612ccd888a612bf690919063ffffffff16565b8a612d5f90919063ffffffff16565b612dcf90919063ffffffff16565b88612bf690919063ffffffff16565b90506000612d236002612d158486612bf690919063ffffffff16565b612dcf90919063ffffffff16565b9050612d52670de0b6b3a7640000612d448784612d5f90919063ffffffff16565b612dcf90919063ffffffff16565b9350505050949350505050565b600080831415612d725760009050612dc9565b6000828402905082848281612d8357fe5b0414612dc4576040517f08c379a0000000000000000000000000000000000000000000000000000000008152600401612dbb90613d0c565b60405180910390fd5b809150505b92915050565b6000612e1183836040518060400160405280601a81526020017f536166654d6174683a206469766973696f6e206279207a65726f000000000000815250612f71565b905092915050565b6000838311158290612e61576040517f08c379a0000000000000000000000000000000000000000000000000000000008152600401612e589190613c2a565b60405180910390fd5b5060008385039050809150509392505050565b600080612eb6612ea7670de0b6b3a7640000612e998789612d5f90919063ffffffff16565b612dcf90919063ffffffff16565b87612bf690919063ffffffff16565b90506000612f0b612efc670de0b6b3a7640000612eee612edf888a6128fb90919063ffffffff16565b8a612d5f90919063ffffffff16565b612dcf90919063ffffffff16565b88612bf690919063ffffffff16565b90506000612f356002612f278486612bf690919063ffffffff16565b612dcf90919063ffffffff16565b9050612f64670de0b6b3a7640000612f568784612d5f90919063ffffffff16565b612dcf90919063ffffffff16565b9350505050949350505050565b60008083118290612fb8576040517f08c379a0000000000000000000000000000000000000000000000000000000008152600401612faf9190613c2a565b60405180910390fd5b506000838581612fc457fe5b049050809150509392505050565b604051806060016040528060001515815260200160008152602001600081525090565b6040518061012001604052806000151581526020016000815260200160608152602001600073ffffffffffffffffffffffffffffffffffffffff16815260200160008152602001600081526020016000815260200160008152602001600081525090565b6000813590506130688161401d565b92915050565b60008151905061307d81614034565b92915050565b6000815190506130928161404b565b92915050565b600082601f8301126130a957600080fd5b81516130bc6130b782613eef565b613ec2565b915080825260208301602083018583830111156130d857600080fd5b6130e3838284613fd9565b50505092915050565b6000606082840312156130fe57600080fd5b6131086060613ec2565b905060006131188482850161306e565b600083015250602061312c84828501613255565b602083015250604061314084828501613255565b60408301525092915050565b6000610120828403121561315f57600080fd5b61316a610120613ec2565b9050600061317a8482850161306e565b600083015250602061318e84828501613255565b602083015250604082015167ffffffffffffffff8111156131ae57600080fd5b6131ba84828501613098565b60408301525060606131ce84828501613083565b60608301525060806131e284828501613255565b60808301525060a06131f684828501613255565b60a08301525060c061320a84828501613255565b60c08301525060e061321e84828501613255565b60e08301525061010061323384828501613255565b6101008301525092915050565b60008135905061324f81614062565b92915050565b60008151905061326481614062565b92915050565b60006020828403121561327c57600080fd5b600061328a84828501613059565b91505092915050565b600080604083850312156132a657600080fd5b60006132b485828601613059565b92505060206132c585828601613059565b9150509250929050565b600080600080608085870312156132e557600080fd5b60006132f387828801613059565b945050602061330487828801613059565b935050604061331587828801613059565b925050606061332687828801613059565b91505092959194509250565b6000806040838503121561334557600080fd5b600061335385828601613059565b925050602061336485828601613240565b9150509250929050565b6000806000806080858703121561338457600080fd5b600061339287828801613059565b94505060206133a387828801613240565b93505060406133b487828801613240565b92505060606133c587828801613059565b91505092959194509250565b600080600080600060a086880312156133e957600080fd5b60006133f788828901613059565b955050602061340888828901613240565b945050604061341988828901613240565b935050606061342a88828901613240565b925050608061343b88828901613059565b9150509295509295909350565b60006020828403121561345a57600080fd5b60006134688482850161306e565b91505092915050565b60006060828403121561348357600080fd5b6000613491848285016130ec565b91505092915050565b6000602082840312156134ac57600080fd5b600082015167ffffffffffffffff8111156134c657600080fd5b6134d28482850161314c565b91505092915050565b6000602082840312156134ed57600080fd5b60006134fb84828501613240565b91505092915050565b60006020828403121561351657600080fd5b600061352484828501613255565b91505092915050565b6000806040838503121561354057600080fd5b600061354e85828601613240565b925050602061355f85828601613059565b9150509250929050565b61357281613f91565b82525050565b61358181613f37565b82525050565b61359081613fa3565b82525050565b60006135a182613f1b565b6135ab8185613f26565b93506135bb818560208601613fd9565b6135c48161400c565b840191505092915050565b60006135dc602083613f26565b91507f7769746864726177496e7465726573743a206e6f7420617574686f72697a65646000830152602082019050919050565b600061361c601c83613f26565b91507f627579546f6b656e733a20736c69707061676520746f6f2068696768000000006000830152602082019050919050565b600061365c601283613f26565b91507f4f776e61626c653a206f6e6c794f776e657200000000000000000000000000006000830152602082019050919050565b600061369c601b83613f26565b91507f536166654d6174683a206164646974696f6e206f766572666c6f7700000000006000830152602082019050919050565b60006136dc602083613f26565b91507f73656c6c546f6b656e733a20746f6b656e20646f6573206e6f742065786973746000830152602082019050919050565b600061371c602e83613f26565b91507f617574686f72697a65506c6174666f726d466565576974686472617765723a2060008301527f6e6f7420617574686f72697a65640000000000000000000000000000000000006020830152604082019050919050565b6000613782602183613f26565b91507f536166654d6174683a206d756c7469706c69636174696f6e206f766572666c6f60008301527f77000000000000000000000000000000000000000000000000000000000000006020830152604082019050919050565b60006137e8602b83613f26565b91507f617574686f72697a65496e746572657374576974686472617765723a206e6f7460008301527f20617574686f72697a65640000000000000000000000000000000000000000006020830152604082019050919050565b600061384e602e83613f26565b91507f436f6e747261637420696e7374616e63652068617320616c726561647920626560008301527f656e20696e697469616c697a65640000000000000000000000000000000000006020830152604082019050919050565b60006138b4602383613f26565b91507f7769746864726177506c6174666f726d4665653a206e6f7420617574686f726960008301527f7a656400000000000000000000000000000000000000000000000000000000006020830152604082019050919050565b600061391a601f83613f26565b91507f627579546f6b656e733a206e6f7420656e6f75676820616c6c6f77616e6365006000830152602082019050919050565b600061395a601d83613f26565b91507f73656c6c546f6b656e733a206e6f7420656e6f75676820746f6b656e730000006000830152602082019050919050565b600061399a601e83613f26565b91507f627579546f6b656e733a20646169207472616e73666572206661696c656400006000830152602082019050919050565b60006139da602483613f26565b91507f73656c6c546f6b656e733a207072696365207375626365656473206d696e207060008301527f72696365000000000000000000000000000000000000000000000000000000006020830152604082019050919050565b6000613a40601f83613f26565b91507f627579546f6b656e733a20746f6b656e20646f6573206e6f74206578697374006000830152602082019050919050565b613a7c81613f87565b82525050565b6000602082019050613a976000830184613578565b92915050565b6000602082019050613ab26000830184613569565b92915050565b6000604082019050613acd6000830185613569565b613ada6020830184613578565b9392505050565b6000606082019050613af66000830186613569565b613b036020830185613578565b613b106040830184613a73565b949350505050565b6000604082019050613b2d6000830185613569565b613b3a6020830184613a73565b9392505050565b6000604082019050613b566000830185613578565b613b636020830184613578565b9392505050565b6000604082019050613b7f6000830185613578565b613b8c6020830184613a73565b9392505050565b6000606082019050613ba86000830186613578565b613bb56020830185613a73565b613bc26040830184613a73565b949350505050565b6000608082019050613bdf6000830187613578565b613bec6020830186613a73565b613bf96040830185613a73565b613c066060830184613a73565b95945050505050565b6000602082019050613c246000830184613587565b92915050565b60006020820190508181036000830152613c448184613596565b905092915050565b60006020820190508181036000830152613c65816135cf565b9050919050565b60006020820190508181036000830152613c858161360f565b9050919050565b60006020820190508181036000830152613ca58161364f565b9050919050565b60006020820190508181036000830152613cc58161368f565b9050919050565b60006020820190508181036000830152613ce5816136cf565b9050919050565b60006020820190508181036000830152613d058161370f565b9050919050565b60006020820190508181036000830152613d2581613775565b9050919050565b60006020820190508181036000830152613d45816137db565b9050919050565b60006020820190508181036000830152613d6581613841565b9050919050565b60006020820190508181036000830152613d85816138a7565b9050919050565b60006020820190508181036000830152613da58161390d565b9050919050565b60006020820190508181036000830152613dc58161394d565b9050919050565b60006020820190508181036000830152613de58161398d565b9050919050565b60006020820190508181036000830152613e05816139cd565b9050919050565b60006020820190508181036000830152613e2581613a33565b9050919050565b6000602082019050613e416000830184613a73565b92915050565b6000604082019050613e5c6000830185613a73565b613e696020830184613578565b9392505050565b6000604082019050613e856000830185613a73565b613e926020830184613587565b9392505050565b6000604082019050613eae6000830185613a73565b613ebb6020830184613a73565b9392505050565b6000604051905081810181811067ffffffffffffffff82111715613ee557600080fd5b8060405250919050565b600067ffffffffffffffff821115613f0657600080fd5b601f19601f8301169050602081019050919050565b600081519050919050565b600082825260208201905092915050565b6000613f4282613f67565b9050919050565b60008115159050919050565b6000613f6082613f37565b9050919050565b600073ffffffffffffffffffffffffffffffffffffffff82169050919050565b6000819050919050565b6000613f9c82613fb5565b9050919050565b6000613fae82613f87565b9050919050565b6000613fc082613fc7565b9050919050565b6000613fd282613f67565b9050919050565b60005b83811015613ff7578082015181840152602081019050613fdc565b83811115614006576000848401525b50505050565b6000601f19601f8301169050919050565b61402681613f37565b811461403157600080fd5b50565b61403d81613f49565b811461404857600080fd5b50565b61405481613f55565b811461405f57600080fd5b50565b61406b81613f87565b811461407657600080fd5b5056fea2646970667358221220cfe0975f95eedf7e99cb3bc4c6dd4064c1c5dede07b7c5ca1ae0c6060c60c7de64736f6c63430006090033",
  "immutableReferences": {},
  "source": "// SPDX-License-Identifier: MIT\r\npragma solidity ^0.6.9;\r\npragma experimental ABIEncoderV2;\r\n\r\nimport \"../util/Ownable.sol\";\r\nimport \"./IIdeaTokenExchange.sol\";\r\nimport \"./IIdeaToken.sol\";\r\nimport \"./IIdeaTokenFactory.sol\";\r\nimport \"./IInterestManager.sol\";\r\nimport \"../util/Initializable.sol\";\r\nimport \"@openzeppelin/contracts/token/ERC20/IERC20.sol\";\r\nimport \"@openzeppelin/contracts/math/SafeMath.sol\";\r\n\r\n/**\r\n * @title IdeaTokenExchange\r\n * @author Alexander Schlindwein\r\n *\r\n * @dev Exchanges Dai <-> IdeaTokens using a bonding curve. Sits behind a proxy\r\n */\r\ncontract IdeaTokenExchange is IIdeaTokenExchange, Initializable, Ownable {\r\n    using SafeMath for uint256;\r\n\r\n    struct TokenExchangeInfo {\r\n        uint daiInToken; // The amount of Dai collected by trading\r\n        uint invested; // The amount of \"investment tokens\", e.g. cDai\r\n    }\r\n\r\n    uint constant private FEE_SCALE = 10000;\r\n\r\n    uint _tradingFeeInvested; // The amount of \"investment tokens\" for the collected trading fee, e.g. cDai\r\n    address _tradingFeeRecipient;\r\n\r\n    mapping(uint => uint) _platformFeeInvested;\r\n    mapping(uint => address) _authorizedPlatformFeeWithdrawers;\r\n\r\n    mapping(address => TokenExchangeInfo) _tokensExchangeInfo;\r\n    mapping(address => address) _authorizedInterestWithdrawers;\r\n\r\n    IIdeaTokenFactory _ideaTokenFactory;\r\n    IInterestManager _interestManager;\r\n    IERC20 _dai;\r\n\r\n    event TokensBought(address ideaToken, uint amount, uint rawCost, uint finalCost);\r\n    event TokensSold(address ideaToken, uint amount, uint rawPrice, uint finalPrice);\r\n\r\n    event NewInterestWithdrawer(address ideaToken, address withdrawer);\r\n    event NewPlatformFeeWithdrawer(uint marketID, address withdrawer);\r\n\r\n    event DaiInvested(address ideaToken, uint daiInToken, uint investmentToken);\r\n    event TradingFeeInvested(uint investmentToken);\r\n    event PlatformFeeInvested(uint marketID, uint investmentToken);\r\n    \r\n    /**\r\n     * @dev Initializes the contract\r\n     *\r\n     * @param owner The owner of the contract\r\n     * @param tradingFeeRecipient The address of the recipient of the trading fee\r\n     * @param interestManager The address of the InterestManager\r\n     * @param dai The address of Dai\r\n     */\r\n    function initialize(address owner,\r\n                        address tradingFeeRecipient,\r\n                        address interestManager,\r\n                        address dai) external initializer {\r\n        setOwnerInternal(owner);\r\n        _tradingFeeRecipient = tradingFeeRecipient;\r\n        _interestManager = IInterestManager(interestManager);\r\n        _dai = IERC20(dai);\r\n    }\r\n\r\n    /**\r\n     * @dev Burns IdeaTokens in exchange for Dai\r\n     *\r\n     * @param ideaToken The IdeaToken to sell\r\n     * @param amount The amount of IdeaTokens to sell\r\n     * @param minPrice The minimum allowed price in Dai for selling `amount` IdeaTokens\r\n     * @param recipient The recipient of the redeemed Dai\r\n     */\r\n    function sellTokens(address ideaToken, uint amount, uint minPrice, address recipient) external override {\r\n        IIdeaTokenFactory.IDPair memory idPair = _ideaTokenFactory.getTokenIDPair(ideaToken);\r\n        require(idPair.exists, \"sellTokens: token does not exist\");\r\n        IIdeaTokenFactory.MarketDetails memory marketDetails = _ideaTokenFactory.getMarketDetailsByID(idPair.marketID);\r\n\r\n        (uint finalPrice, uint rawPrice, uint tradingFee, uint platformFee) = getPricesForSellingTokens(ideaToken, amount);\r\n\r\n        require(finalPrice >= minPrice, \"sellTokens: price subceeds min price\");\r\n        require(IIdeaToken(ideaToken).balanceOf(msg.sender) >= amount, \"sellTokens: not enough tokens\");\r\n        \r\n        IIdeaToken(ideaToken).burn(msg.sender, amount);\r\n\r\n        _interestManager.accrueInterest();\r\n        uint finalRedeemed = _interestManager.redeem(address(this), finalPrice);\r\n        uint tradingFeeRedeemed = _interestManager.underlyingToInvestmentToken(tradingFee);\r\n        uint platformFeeRedeemed = _interestManager.underlyingToInvestmentToken(platformFee);\r\n\r\n        TokenExchangeInfo storage exchangeInfo = _tokensExchangeInfo[ideaToken];\r\n        exchangeInfo.invested = exchangeInfo.invested.sub(finalRedeemed.add(tradingFeeRedeemed).add(platformFeeRedeemed));\r\n        _tradingFeeInvested = _tradingFeeInvested.add(tradingFeeRedeemed);\r\n        _platformFeeInvested[marketDetails.id] = _platformFeeInvested[marketDetails.id].add(platformFeeRedeemed);\r\n        exchangeInfo.daiInToken = exchangeInfo.daiInToken.sub(rawPrice);\r\n    \r\n        emit TokensSold(ideaToken, amount, rawPrice, finalPrice);\r\n        emit DaiInvested(ideaToken, exchangeInfo.daiInToken, exchangeInfo.invested);\r\n        emit TradingFeeInvested(_tradingFeeInvested);\r\n        emit PlatformFeeInvested(marketDetails.id, _platformFeeInvested[marketDetails.id]);\r\n        _dai.transfer(recipient, finalPrice);\r\n    }\r\n\r\n    /**\r\n     * @dev Returns the price for selling IdeaTokens\r\n     *\r\n     * @param ideaToken The IdeaToken to sell\r\n     * @param amount The amount of IdeaTokens to sell\r\n     *\r\n     * @return The price in Dai for selling `amount` IdeaTokens\r\n     */\r\n    function getPriceForSellingTokens(address ideaToken, uint amount) external view override returns (uint) {\r\n        (uint finalCost, , , ) = getPricesForSellingTokens(ideaToken, amount);\r\n        return finalCost;\r\n    }\r\n\r\n    /**\r\n     * @dev Calculates each price related to selling tokens\r\n     *\r\n     * @param ideaToken The IdeaToken to sell\r\n     * @param amount The amount of IdeaTokens to sell\r\n     *\r\n     * @return Final cost, raw cost and trading fee\r\n     */\r\n    function getPricesForSellingTokens(address ideaToken, uint amount) internal view returns (uint, uint, uint, uint) {\r\n        IIdeaTokenFactory.IDPair memory idPair = _ideaTokenFactory.getTokenIDPair(ideaToken);\r\n        IIdeaTokenFactory.MarketDetails memory marketDetails = _ideaTokenFactory.getMarketDetailsByID(idPair.marketID);\r\n\r\n        uint rawPrice = getRawPriceForSellingTokens(marketDetails.baseCost,\r\n                                                    marketDetails.priceRise,\r\n                                                    IERC20(ideaToken).totalSupply(),\r\n                                                    amount);\r\n\r\n        uint tradingFee = rawPrice.mul(marketDetails.tradingFeeRate).div(FEE_SCALE);\r\n        uint platformFee = rawPrice.mul(marketDetails.platformFeeRate).div(FEE_SCALE);\r\n        uint finalCost = rawPrice.sub(tradingFee).sub(platformFee);\r\n\r\n        return (finalCost, rawPrice, tradingFee, platformFee);\r\n    }\r\n\r\n    /**\r\n     * @dev Returns the price for selling tokens without any fees applied\r\n     *\r\n     * @param b The baseCost of the token\r\n     * @param r The priceRise of the token\r\n     * @param supply The current total supply of the token\r\n     * @param amount The amount of IdeaTokens to sell\r\n     *\r\n     * @return The price selling `amount` IdeaTokens without any fees applied\r\n     */\r\n    function getRawPriceForSellingTokens(uint b, uint r, uint supply, uint amount) internal pure returns (uint) {\r\n        uint priceAtSupply = b.add(r.mul(supply).div(10**18));\r\n        uint priceAtSupplyMinusAmount = b.add(r.mul(supply.sub(amount)).div(10**18));\r\n        uint average = priceAtSupply.add(priceAtSupplyMinusAmount).div(2);\r\n    \r\n        return average.mul(amount).div(10**18);\r\n    }\r\n\r\n    /**\r\n     * @dev Mints IdeaTokens in exchange for Dai\r\n     *\r\n     * @param ideaToken The IdeaToken to buy\r\n     * @param amount The amount of IdeaTokens to buy\r\n     * @param fallbackAmount The fallback amount to buy in case the price changed\r\n     * @param cost The maximum allowed cost in Dai\r\n     * @param recipient The recipient of the bought IdeaTokens\r\n     */\r\n    function buyTokens(address ideaToken, uint amount, uint fallbackAmount, uint cost, address recipient) external override {\r\n        IIdeaTokenFactory.IDPair memory idPair = _ideaTokenFactory.getTokenIDPair(ideaToken);\r\n        require(idPair.exists, \"buyTokens: token does not exist\");\r\n        IIdeaTokenFactory.MarketDetails memory marketDetails = _ideaTokenFactory.getMarketDetailsByID(idPair.marketID);\r\n\r\n        uint actualAmount = amount;\r\n        uint finalCost;\r\n        uint rawCost;\r\n        uint tradingFee;\r\n        uint platformFee;\r\n        (finalCost, rawCost, tradingFee, platformFee) = getCostsForBuyingTokens(ideaToken, actualAmount);\r\n\r\n        if(finalCost > cost) {\r\n            actualAmount = fallbackAmount;\r\n            (finalCost, rawCost, tradingFee, platformFee) = getCostsForBuyingTokens(ideaToken, actualAmount);\r\n    \r\n            require(finalCost <= cost, \"buyTokens: slippage too high\");\r\n        }\r\n\r\n        \r\n        require(_dai.allowance(msg.sender, address(this)) >= finalCost, \"buyTokens: not enough allowance\");\r\n        require(_dai.transferFrom(msg.sender, address(_interestManager), finalCost), \"buyTokens: dai transfer failed\");\r\n        \r\n        _interestManager.accrueInterest();\r\n        _interestManager.invest(finalCost);\r\n\r\n        TokenExchangeInfo storage exchangeInfo = _tokensExchangeInfo[ideaToken];\r\n        exchangeInfo.invested = exchangeInfo.invested.add(_interestManager.underlyingToInvestmentToken(rawCost));\r\n        _tradingFeeInvested = _tradingFeeInvested.add(_interestManager.underlyingToInvestmentToken(tradingFee));\r\n        _platformFeeInvested[marketDetails.id] = _platformFeeInvested[marketDetails.id].add(_interestManager.underlyingToInvestmentToken(platformFee));\r\n        exchangeInfo.daiInToken = exchangeInfo.daiInToken.add(rawCost);\r\n    \r\n        emit TokensBought(ideaToken, actualAmount, rawCost, finalCost);\r\n        emit DaiInvested(ideaToken, exchangeInfo.daiInToken, exchangeInfo.invested);\r\n        emit TradingFeeInvested(_tradingFeeInvested);\r\n        emit PlatformFeeInvested(marketDetails.id, _platformFeeInvested[marketDetails.id]);\r\n        IIdeaToken(ideaToken).mint(recipient, actualAmount);\r\n    }\r\n\r\n    /**\r\n     * @dev Returns the cost for buying IdeaTokens\r\n     *\r\n     * @param ideaToken The IdeaToken to buy\r\n     * @param amount The amount of IdeaTokens to buy\r\n     *\r\n     * @return The cost in Dai for buying `amount` IdeaTokens\r\n     */\r\n    function getCostForBuyingTokens(address ideaToken, uint amount) external view override returns (uint) {\r\n        (uint finalCost, , , ) = getCostsForBuyingTokens(ideaToken, amount);\r\n        return finalCost;\r\n    }\r\n\r\n    /**\r\n     * @dev Calculates each cost related to buying tokens\r\n     *\r\n     * @param ideaToken The IdeaToken to buy\r\n     * @param amount The amount of IdeaTokens to buy\r\n     *\r\n     * @return Final cost, raw cost and trading fee\r\n     */\r\n    function getCostsForBuyingTokens(address ideaToken, uint amount) internal view returns (uint, uint, uint, uint) {\r\n        IIdeaTokenFactory.IDPair memory idPair = _ideaTokenFactory.getTokenIDPair(ideaToken);\r\n        IIdeaTokenFactory.MarketDetails memory marketDetails = _ideaTokenFactory.getMarketDetailsByID(idPair.marketID);\r\n\r\n        uint rawCost = getRawCostForBuyingTokens(marketDetails.baseCost,\r\n                                                 marketDetails.priceRise,\r\n                                                 IERC20(ideaToken).totalSupply(),\r\n                                                 amount);\r\n\r\n        uint tradingFee = rawCost.mul(marketDetails.tradingFeeRate).div(FEE_SCALE);\r\n        uint platformFee = rawCost.mul(marketDetails.platformFeeRate).div(FEE_SCALE);\r\n        uint finalCost = rawCost.add(tradingFee).add(platformFee);\r\n\r\n        return (finalCost, rawCost, tradingFee, platformFee);\r\n    }\r\n\r\n    /**\r\n     * @dev Returns the cost for buying tokens without any fees applied\r\n     *\r\n     * @param b The baseCost of the token\r\n     * @param r The priceRise of the token\r\n     * @param supply The current total supply of the token\r\n     * @param amount The amount of IdeaTokens to buy\r\n     *\r\n     * @return The cost buying `amount` IdeaTokens without any fees applied\r\n     */\r\n    function getRawCostForBuyingTokens(uint b, uint r, uint supply, uint amount) internal pure returns (uint) {\r\n        uint priceAtSupply = b.add(r.mul(supply).div(10**18));\r\n        uint priceAtSupplyPlusAmount = b.add(r.mul(supply.add(amount)).div(10**18));\r\n        uint average = priceAtSupply.add(priceAtSupplyPlusAmount).div(2);\r\n\r\n        return average.mul(amount).div(10**18);\r\n    }\r\n\r\n    /**\r\n     * @dev Withdraws available interest for a publisher\r\n     *\r\n     * @param token The token from which the generated interest is to be withdrawn\r\n     */\r\n    function withdrawInterest(address token) external {\r\n        require(_authorizedInterestWithdrawers[token] == msg.sender, \"withdrawInterest: not authorized\");\r\n        _interestManager.accrueInterest();\r\n\r\n        uint interestPayable = getInterestPayable(token);\r\n        if(interestPayable == 0) {\r\n            return;\r\n        }\r\n\r\n        TokenExchangeInfo storage exchangeInfo = _tokensExchangeInfo[token];\r\n        exchangeInfo.invested = exchangeInfo.invested.sub(_interestManager.redeem(msg.sender, interestPayable));\r\n\r\n        emit DaiInvested(token, exchangeInfo.daiInToken, exchangeInfo.invested);\r\n    }\r\n\r\n    /**\r\n     * @dev Returns the interest available to be paid out\r\n     *\r\n     * @param token The token from which the generated interest is to be withdrawn\r\n     *\r\n     * @return The interest available to be paid out\r\n     */\r\n    function getInterestPayable(address token) public view returns (uint) {\r\n        TokenExchangeInfo storage exchangeInfo = _tokensExchangeInfo[token];\r\n        return _interestManager.investmentTokenToUnderlying(exchangeInfo.invested).sub(exchangeInfo.daiInToken);\r\n    }\r\n\r\n    /**\r\n     * @dev Authorizes an address which is allowed to withdraw interest for a token\r\n     *\r\n     * @param token The token for which to authorize an address\r\n     * @param withdrawer The address to be authorized\r\n     */\r\n    function authorizeInterestWithdrawer(address token, address withdrawer) external override {\r\n        require(msg.sender == _owner || msg.sender == _authorizedInterestWithdrawers[token], \"authorizeInterestWithdrawer: not authorized\");\r\n        _authorizedInterestWithdrawers[token] = withdrawer;\r\n\r\n        emit NewInterestWithdrawer(token, withdrawer);\r\n    }\r\n\r\n    /**\r\n     * @dev Withdraws available platform fee\r\n     *\r\n     * @param marketID The market from which the generated platform fee is to be withdrawn\r\n     */\r\n    function withdrawPlatformFee(uint marketID) external {\r\n        require(_authorizedPlatformFeeWithdrawers[marketID] == msg.sender, \"withdrawPlatformFee: not authorized\");\r\n        _interestManager.accrueInterest();\r\n\r\n        uint platformFeePayable = getPlatformFeePayable(marketID);\r\n        if(platformFeePayable == 0) {\r\n            return;\r\n        }\r\n\r\n        _platformFeeInvested[marketID] = 0;\r\n        _interestManager.redeem(msg.sender, platformFeePayable);\r\n\r\n        emit PlatformFeeInvested(marketID, 0);\r\n    }\r\n\r\n    /**\r\n     * @dev Returns the platform fee available to be paid out\r\n     *\r\n     * @param marketID The market from which the generated interest is to be withdrawn\r\n     *\r\n     * @return The platform fee available to be paid out\r\n     */\r\n    function getPlatformFeePayable(uint marketID) public view returns (uint) {\r\n        return _interestManager.investmentTokenToUnderlying(_platformFeeInvested[marketID]);\r\n    }\r\n\r\n    /**\r\n     * @dev Authorizes an address which is allowed to withdraw platform fee for a market\r\n     *\r\n     * @param marketID The market for which to authorize an address\r\n     * @param withdrawer The address to be authorized\r\n     */\r\n    function authorizePlatformFeeWithdrawer(uint marketID, address withdrawer) external override {\r\n        require(msg.sender == _owner || msg.sender == _authorizedPlatformFeeWithdrawers[marketID], \"authorizePlatformFeeWithdrawer: not authorized\");\r\n        _authorizedPlatformFeeWithdrawers[marketID] = withdrawer;\r\n\r\n        emit NewPlatformFeeWithdrawer(marketID, withdrawer);\r\n    }\r\n\r\n    /**\r\n     * @dev Withdraws available trading fee\r\n     */\r\n    function withdrawTradingFee() external {\r\n\r\n        if(_tradingFeeInvested == 0) {\r\n            return;\r\n        }\r\n\r\n        uint redeem = _tradingFeeInvested;\r\n        _tradingFeeInvested = 0;\r\n        _interestManager.redeemInvestmentToken(_tradingFeeRecipient, redeem);\r\n\r\n        emit TradingFeeInvested(0);\r\n    }\r\n\r\n    /**\r\n     * @dev Returns the trading fee available to be paid out\r\n     *\r\n     * @return The trading fee available to be paid out\r\n     */\r\n    function getTradingFeePayable() public view returns (uint) {\r\n        return _interestManager.investmentTokenToUnderlying(_tradingFeeInvested);\r\n    }\r\n\r\n    /**\r\n     * @dev Sets the IdeaTokenFactory address. Only required once for deployment\r\n     *\r\n     * @param factory The address of the IdeaTokenFactory \r\n     */\r\n    function setIdeaTokenFactoryAddress(address factory) external onlyOwner {\r\n        require(address(_ideaTokenFactory) == address(0));\r\n        _ideaTokenFactory = IIdeaTokenFactory(factory);\r\n    }\r\n}",
  "sourcePath": "C:/Users/alexa/Desktop/ideamarket-contracts/contracts/core/IdeaTokenExchange.sol",
  "compiler": {
    "name": "solc",
    "version": "0.6.9+commit.3e3065ac.Emscripten.clang"
  },
  "schemaVersion": "3.2.3",
  "updatedAt": "2020-10-19T08:01:10.835Z",
  "networkType": "ethereum",
  "devdoc": {
    "author": "Alexander Schlindwein",
    "details": "Exchanges Dai <-> IdeaTokens using a bonding curve. Sits behind a proxy",
    "methods": {
      "authorizeInterestWithdrawer(address,address)": {
        "details": "Authorizes an address which is allowed to withdraw interest for a token",
        "params": {
          "token": "The token for which to authorize an address",
          "withdrawer": "The address to be authorized"
        }
      },
      "authorizePlatformFeeWithdrawer(uint256,address)": {
        "details": "Authorizes an address which is allowed to withdraw platform fee for a market",
        "params": {
          "marketID": "The market for which to authorize an address",
          "withdrawer": "The address to be authorized"
        }
      },
      "buyTokens(address,uint256,uint256,uint256,address)": {
        "details": "Mints IdeaTokens in exchange for Dai",
        "params": {
          "amount": "The amount of IdeaTokens to buy",
          "cost": "The maximum allowed cost in Dai",
          "fallbackAmount": "The fallback amount to buy in case the price changed",
          "ideaToken": "The IdeaToken to buy",
          "recipient": "The recipient of the bought IdeaTokens"
        }
      },
      "getCostForBuyingTokens(address,uint256)": {
        "details": "Returns the cost for buying IdeaTokens",
        "params": {
          "amount": "The amount of IdeaTokens to buy",
          "ideaToken": "The IdeaToken to buy"
        },
        "returns": {
          "_0": "The cost in Dai for buying `amount` IdeaTokens"
        }
      },
      "getInterestPayable(address)": {
        "details": "Returns the interest available to be paid out",
        "params": {
          "token": "The token from which the generated interest is to be withdrawn"
        },
        "returns": {
          "_0": "The interest available to be paid out"
        }
      },
      "getPlatformFeePayable(uint256)": {
        "details": "Returns the platform fee available to be paid out",
        "params": {
          "marketID": "The market from which the generated interest is to be withdrawn"
        },
        "returns": {
          "_0": "The platform fee available to be paid out"
        }
      },
      "getPriceForSellingTokens(address,uint256)": {
        "details": "Returns the price for selling IdeaTokens",
        "params": {
          "amount": "The amount of IdeaTokens to sell",
          "ideaToken": "The IdeaToken to sell"
        },
        "returns": {
          "_0": "The price in Dai for selling `amount` IdeaTokens"
        }
      },
      "getTradingFeePayable()": {
        "details": "Returns the trading fee available to be paid out",
        "returns": {
          "_0": "The trading fee available to be paid out"
        }
      },
      "initialize(address,address,address,address)": {
        "details": "Initializes the contract",
        "params": {
          "dai": "The address of Dai",
          "interestManager": "The address of the InterestManager",
          "owner": "The owner of the contract",
          "tradingFeeRecipient": "The address of the recipient of the trading fee"
        }
      },
      "sellTokens(address,uint256,uint256,address)": {
        "details": "Burns IdeaTokens in exchange for Dai",
        "params": {
          "amount": "The amount of IdeaTokens to sell",
          "ideaToken": "The IdeaToken to sell",
          "minPrice": "The minimum allowed price in Dai for selling `amount` IdeaTokens",
          "recipient": "The recipient of the redeemed Dai"
        }
      },
      "setIdeaTokenFactoryAddress(address)": {
        "details": "Sets the IdeaTokenFactory address. Only required once for deployment",
        "params": {
          "factory": "The address of the IdeaTokenFactory "
        }
      },
      "withdrawInterest(address)": {
        "details": "Withdraws available interest for a publisher",
        "params": {
          "token": "The token from which the generated interest is to be withdrawn"
        }
      },
      "withdrawPlatformFee(uint256)": {
        "details": "Withdraws available platform fee",
        "params": {
          "marketID": "The market from which the generated platform fee is to be withdrawn"
        }
      },
      "withdrawTradingFee()": {
        "details": "Withdraws available trading fee"
      }
    },
    "title": "IdeaTokenExchange"
  },
  "userdoc": {
    "methods": {}
  }
}