{
  "contractName": "IdeaTokenFactory",
  "abi": [
    {
      "anonymous": false,
      "inputs": [
        {
          "indexed": false,
          "internalType": "uint256",
          "name": "id",
          "type": "uint256"
        },
        {
          "indexed": false,
          "internalType": "string",
          "name": "name",
          "type": "string"
        },
        {
          "indexed": false,
          "internalType": "uint256",
          "name": "baseCost",
          "type": "uint256"
        },
        {
          "indexed": false,
          "internalType": "uint256",
          "name": "priceRise",
          "type": "uint256"
        },
        {
          "indexed": false,
          "internalType": "uint256",
          "name": "tokensPerInterval",
          "type": "uint256"
        },
        {
          "indexed": false,
          "internalType": "uint256",
          "name": "tradingFeeRate",
          "type": "uint256"
        },
        {
          "indexed": false,
          "internalType": "uint256",
          "name": "platformFeeRate",
          "type": "uint256"
        }
      ],
      "name": "NewMarket",
      "type": "event"
    },
    {
      "anonymous": false,
      "inputs": [
        {
          "indexed": false,
          "internalType": "uint256",
          "name": "id",
          "type": "uint256"
        },
        {
          "indexed": false,
          "internalType": "uint256",
          "name": "marketID",
          "type": "uint256"
        },
        {
          "indexed": false,
          "internalType": "string",
          "name": "name",
          "type": "string"
        },
        {
          "indexed": false,
          "internalType": "address",
          "name": "addr",
          "type": "address"
        }
      ],
      "name": "NewToken",
      "type": "event"
    },
    {
      "anonymous": false,
      "inputs": [
        {
          "indexed": false,
          "internalType": "address",
          "name": "oldOwner",
          "type": "address"
        },
        {
          "indexed": false,
          "internalType": "address",
          "name": "newOwner",
          "type": "address"
        }
      ],
      "name": "OwnershipChanged",
      "type": "event"
    },
    {
      "inputs": [],
      "name": "getOwner",
      "outputs": [
        {
          "internalType": "address",
          "name": "",
          "type": "address"
        }
      ],
      "stateMutability": "view",
      "type": "function",
      "constant": true
    },
    {
      "inputs": [
        {
          "internalType": "address",
          "name": "newOwner",
          "type": "address"
        }
      ],
      "name": "setOwner",
      "outputs": [],
      "stateMutability": "nonpayable",
      "type": "function"
    },
    {
      "inputs": [
        {
          "internalType": "address",
          "name": "owner",
          "type": "address"
        },
        {
          "internalType": "address",
          "name": "ideaTokenExchange",
          "type": "address"
        }
      ],
      "name": "initialize",
      "outputs": [],
      "stateMutability": "nonpayable",
      "type": "function"
    },
    {
      "inputs": [
        {
          "internalType": "string",
          "name": "marketName",
          "type": "string"
        },
        {
          "internalType": "address",
          "name": "nameVerifier",
          "type": "address"
        },
        {
          "internalType": "uint256",
          "name": "baseCost",
          "type": "uint256"
        },
        {
          "internalType": "uint256",
          "name": "priceRise",
          "type": "uint256"
        },
        {
          "internalType": "uint256",
          "name": "tokensPerInterval",
          "type": "uint256"
        },
        {
          "internalType": "uint256",
          "name": "tradingFeeRate",
          "type": "uint256"
        },
        {
          "internalType": "uint256",
          "name": "platformFeeRate",
          "type": "uint256"
        }
      ],
      "name": "addMarket",
      "outputs": [],
      "stateMutability": "nonpayable",
      "type": "function"
    },
    {
      "inputs": [
        {
          "internalType": "string",
          "name": "tokenName",
          "type": "string"
        },
        {
          "internalType": "uint256",
          "name": "marketID",
          "type": "uint256"
        }
      ],
      "name": "addToken",
      "outputs": [],
      "stateMutability": "nonpayable",
      "type": "function"
    },
    {
      "inputs": [
        {
          "internalType": "string",
          "name": "tokenName",
          "type": "string"
        },
        {
          "internalType": "uint256",
          "name": "marketID",
          "type": "uint256"
        }
      ],
      "name": "isValidTokenName",
      "outputs": [
        {
          "internalType": "bool",
          "name": "",
          "type": "bool"
        }
      ],
      "stateMutability": "view",
      "type": "function",
      "constant": true
    },
    {
      "inputs": [
        {
          "internalType": "string",
          "name": "marketName",
          "type": "string"
        }
      ],
      "name": "getMarketIDByName",
      "outputs": [
        {
          "internalType": "uint256",
          "name": "",
          "type": "uint256"
        }
      ],
      "stateMutability": "view",
      "type": "function",
      "constant": true
    },
    {
      "inputs": [
        {
          "internalType": "uint256",
          "name": "marketID",
          "type": "uint256"
        }
      ],
      "name": "getMarketDetailsByID",
      "outputs": [
        {
          "components": [
            {
              "internalType": "bool",
              "name": "exists",
              "type": "bool"
            },
            {
              "internalType": "uint256",
              "name": "id",
              "type": "uint256"
            },
            {
              "internalType": "string",
              "name": "name",
              "type": "string"
            },
            {
              "internalType": "contract IIdeaTokenNameVerifier",
              "name": "nameVerifier",
              "type": "address"
            },
            {
              "internalType": "uint256",
              "name": "numTokens",
              "type": "uint256"
            },
            {
              "internalType": "uint256",
              "name": "baseCost",
              "type": "uint256"
            },
            {
              "internalType": "uint256",
              "name": "priceRise",
              "type": "uint256"
            },
            {
              "internalType": "uint256",
              "name": "tokensPerInterval",
              "type": "uint256"
            },
            {
              "internalType": "uint256",
              "name": "tradingFeeRate",
              "type": "uint256"
            },
            {
              "internalType": "uint256",
              "name": "platformFeeRate",
              "type": "uint256"
            }
          ],
          "internalType": "struct IIdeaTokenFactory.MarketDetails",
          "name": "",
          "type": "tuple"
        }
      ],
      "stateMutability": "view",
      "type": "function",
      "constant": true
    },
    {
      "inputs": [
        {
          "internalType": "string",
          "name": "marketName",
          "type": "string"
        }
      ],
      "name": "getMarketDetailsByName",
      "outputs": [
        {
          "components": [
            {
              "internalType": "bool",
              "name": "exists",
              "type": "bool"
            },
            {
              "internalType": "uint256",
              "name": "id",
              "type": "uint256"
            },
            {
              "internalType": "string",
              "name": "name",
              "type": "string"
            },
            {
              "internalType": "contract IIdeaTokenNameVerifier",
              "name": "nameVerifier",
              "type": "address"
            },
            {
              "internalType": "uint256",
              "name": "numTokens",
              "type": "uint256"
            },
            {
              "internalType": "uint256",
              "name": "baseCost",
              "type": "uint256"
            },
            {
              "internalType": "uint256",
              "name": "priceRise",
              "type": "uint256"
            },
            {
              "internalType": "uint256",
              "name": "tokensPerInterval",
              "type": "uint256"
            },
            {
              "internalType": "uint256",
              "name": "tradingFeeRate",
              "type": "uint256"
            },
            {
              "internalType": "uint256",
              "name": "platformFeeRate",
              "type": "uint256"
            }
          ],
          "internalType": "struct IIdeaTokenFactory.MarketDetails",
          "name": "",
          "type": "tuple"
        }
      ],
      "stateMutability": "view",
      "type": "function",
      "constant": true
    },
    {
      "inputs": [],
      "name": "getNumMarkets",
      "outputs": [
        {
          "internalType": "uint256",
          "name": "",
          "type": "uint256"
        }
      ],
      "stateMutability": "view",
      "type": "function",
      "constant": true
    },
    {
      "inputs": [
        {
          "internalType": "string",
          "name": "tokenName",
          "type": "string"
        },
        {
          "internalType": "uint256",
          "name": "marketID",
          "type": "uint256"
        }
      ],
      "name": "getTokenIDByName",
      "outputs": [
        {
          "internalType": "uint256",
          "name": "",
          "type": "uint256"
        }
      ],
      "stateMutability": "view",
      "type": "function",
      "constant": true
    },
    {
      "inputs": [
        {
          "internalType": "uint256",
          "name": "marketID",
          "type": "uint256"
        },
        {
          "internalType": "uint256",
          "name": "tokenID",
          "type": "uint256"
        }
      ],
      "name": "getTokenInfo",
      "outputs": [
        {
          "components": [
            {
              "internalType": "bool",
              "name": "exists",
              "type": "bool"
            },
            {
              "internalType": "uint256",
              "name": "id",
              "type": "uint256"
            },
            {
              "internalType": "string",
              "name": "name",
              "type": "string"
            },
            {
              "internalType": "contract IIdeaToken",
              "name": "ideaToken",
              "type": "address"
            }
          ],
          "internalType": "struct IIdeaTokenFactory.TokenInfo",
          "name": "",
          "type": "tuple"
        }
      ],
      "stateMutability": "view",
      "type": "function",
      "constant": true
    },
    {
      "inputs": [
        {
          "internalType": "address",
          "name": "token",
          "type": "address"
        }
      ],
      "name": "getTokenIDPair",
      "outputs": [
        {
          "components": [
            {
              "internalType": "bool",
              "name": "exists",
              "type": "bool"
            },
            {
              "internalType": "uint256",
              "name": "marketID",
              "type": "uint256"
            },
            {
              "internalType": "uint256",
              "name": "tokenID",
              "type": "uint256"
            }
          ],
          "internalType": "struct IIdeaTokenFactory.IDPair",
          "name": "",
          "type": "tuple"
        }
      ],
      "stateMutability": "view",
      "type": "function",
      "constant": true
    },
    {
      "inputs": [
        {
          "internalType": "uint256",
          "name": "marketID",
          "type": "uint256"
        },
        {
          "internalType": "uint256",
          "name": "tradingFeeRate",
          "type": "uint256"
        }
      ],
      "name": "setTradingFee",
      "outputs": [],
      "stateMutability": "nonpayable",
      "type": "function"
    },
    {
      "inputs": [
        {
          "internalType": "uint256",
          "name": "marketID",
          "type": "uint256"
        },
        {
          "internalType": "uint256",
          "name": "platformFeeRate",
          "type": "uint256"
        }
      ],
      "name": "setPlatformFee",
      "outputs": [],
      "stateMutability": "nonpayable",
      "type": "function"
    }
  ],
  "bytecode": "0x608060405234801561001057600080fd5b50614448806100206000396000f3fe60806040523480156200001157600080fd5b50600436106200010c5760003560e01c806381eaaa1c11620000a5578063b8f7534a116200006f578063b8f7534a14620002cd578063c7d5fe551462000303578063dc5ea5d91462000339578063fcbd9edd1462000359576200010c565b806381eaaa1c1462000235578063893d20e8146200026b5780638ca132f7146200028d578063a5ffb1e914620002ad576200010c565b80633911283a11620000e75780633911283a1462000189578063485cc95514620001bf5780636de84a9e14620001df57806372e99a4c14620001ff576200010c565b80630a81adc1146200011157806313af40351462000147578063295c39a51462000167575b600080fd5b6200012f600480360381019062000129919062001b6c565b6200038f565b6040516200013e919062002380565b60405180910390f35b6200016560048036038101906200015f919062001936565b620004f4565b005b6200017162000595565b604051620001809190620023a4565b60405180910390f35b620001a76004803603810190620001a1919062001936565b6200059f565b604051620001b691906200233f565b60405180910390f35b620001dd6004803603810190620001d7919062001962565b62000629565b005b620001fd6004803603810190620001f7919062001a18565b62000769565b005b6200021d600480360381019062000217919062001ae2565b62000aff565b6040516200022c9190620021b1565b60405180910390f35b6200025360048036038101906200024d9190620019cf565b62000c26565b6040516200026291906200235c565b60405180910390f35b6200027562000dd9565b60405162000284919062002167565b60405180910390f35b620002ab6004803603810190620002a5919062001ae2565b62000e03565b005b620002cb6004803603810190620002c5919062001b6c565b62001223565b005b620002eb6004803603810190620002e5919062001ae2565b62001332565b604051620002fa9190620023a4565b60405180910390f35b6200032160048036038101906200031b919062001b40565b62001374565b6040516200033091906200235c565b60405180910390f35b62000357600480360381019062000351919062001b6c565b62001504565b005b620003776004803603810190620003719190620019cf565b62001613565b604051620003869190620023a4565b60405180910390f35b62000399620016fe565b6036600084815260200190815260200160002060000160008381526020019081526020016000206040518060800160405290816000820160009054906101000a900460ff1615151515815260200160018201548152602001600282018054600181600116156101000203166002900480601f0160208091040260200160405190810160405280929190818152602001828054600181600116156101000203166002900480156200048d5780601f1062000461576101008083540402835291602001916200048d565b820191906000526020600020905b8154815290600101906020018083116200046f57829003601f168201915b505050505081526020016003820160009054906101000a900473ffffffffffffffffffffffffffffffffffffffff1673ffffffffffffffffffffffffffffffffffffffff1673ffffffffffffffffffffffffffffffffffffffff1681525050905092915050565b3373ffffffffffffffffffffffffffffffffffffffff16603360009054906101000a900473ffffffffffffffffffffffffffffffffffffffff1673ffffffffffffffffffffffffffffffffffffffff161462000587576040517f08c379a00000000000000000000000000000000000000000000000000000000081526004016200057e9062002295565b60405180910390fd5b620005928162001640565b50565b6000603854905090565b620005a96200173e565b603560008373ffffffffffffffffffffffffffffffffffffffff1673ffffffffffffffffffffffffffffffffffffffff1681526020019081526020016000206040518060600160405290816000820160009054906101000a900460ff16151515158152602001600182015481526020016002820154815250509050919050565b600060019054906101000a900460ff16806200064b57506200064a620016e7565b5b806200066357506000809054906101000a900460ff16155b620006a5576040517f08c379a00000000000000000000000000000000000000000000000000000000081526004016200069c906200231d565b60405180910390fd5b60008060019054906101000a900460ff161590508015620006f6576001600060016101000a81548160ff02191690831515021790555060016000806101000a81548160ff0219169083151502179055505b620007018362001640565b81603460006101000a81548173ffffffffffffffffffffffffffffffffffffffff021916908373ffffffffffffffffffffffffffffffffffffffff1602179055508015620007645760008060016101000a81548160ff0219169083151502179055505b505050565b3373ffffffffffffffffffffffffffffffffffffffff16603360009054906101000a900473ffffffffffffffffffffffffffffffffffffffff1673ffffffffffffffffffffffffffffffffffffffff1614620007fc576040517f08c379a0000000000000000000000000000000000000000000000000000000008152600401620007f39062002295565b60405180910390fd5b600060378989604051620008129291906200214c565b9081526020016040518091039020541462000864576040517f08c379a00000000000000000000000000000000000000000000000000000000081526004016200085b9062002251565b60405180910390fd5b600085118015620008755750600084115b8015620008825750600083115b620008c4576040517f08c379a0000000000000000000000000000000000000000000000000000000008152600401620008bb906200222f565b60405180910390fd5b60006038600081546001019190508190559050620008e162001761565b60405180602001604052806040518061014001604052806001151581526020018581526020018d8d8080601f016020809104026020016040519081016040528093929190818152602001838380828437600081840152601f19601f8201169050808301925050505050505081526020018b73ffffffffffffffffffffffffffffffffffffffff168152602001600081526020018a8152602001898152602001888152602001878152602001868152508152509050806036600084815260200190815260200160002060008201518160020160008201518160000160006101000a81548160ff021916908315150217905550602082015181600101556040820151816002019080519060200190620009fa9291906200177c565b5060608201518160030160006101000a81548173ffffffffffffffffffffffffffffffffffffffff021916908373ffffffffffffffffffffffffffffffffffffffff1602179055506080820151816004015560a0820151816005015560c0820151816006015560e082015181600701556101008201518160080155610120820151816009015550509050508160378b8b60405162000a9a9291906200214c565b9081526020016040518091039020819055507f7bd24e3c7dc3034dddb40b8cfe4d5771ea3c86558240d2899732049934f401f6828b8b8a8a8a8a8a60405162000aeb989796959493929190620023c1565b60405180910390a150505050505050505050565b6000806036600084815260200190815260200160002060020190506039858560405162000b2e9291906200214c565b908152602001604051809103902060009054906101000a900460ff168062000c0857508060030160009054906101000a900473ffffffffffffffffffffffffffffffffffffffff1673ffffffffffffffffffffffffffffffffffffffff16634c8bc1c986866040518363ffffffff1660e01b815260040162000bb2929190620021ce565b60206040518083038186803b15801562000bcb57600080fd5b505afa15801562000be0573d6000803e3d6000fd5b505050506040513d601f19601f8201168201806040525081019062000c069190620019a3565b155b1562000c1957600091505062000c1f565b60019150505b9392505050565b62000c3062001803565b603660006037858560405162000c489291906200214c565b9081526020016040518091039020548152602001908152602001600020600201604051806101400160405290816000820160009054906101000a900460ff1615151515815260200160018201548152602001600282018054600181600116156101000203166002900480601f01602080910402602001604051908101604052809291908181526020018280546001816001161561010002031660029004801562000d365780601f1062000d0a5761010080835404028352916020019162000d36565b820191906000526020600020905b81548152906001019060200180831162000d1857829003601f168201915b505050505081526020016003820160009054906101000a900473ffffffffffffffffffffffffffffffffffffffff1673ffffffffffffffffffffffffffffffffffffffff1673ffffffffffffffffffffffffffffffffffffffff1681526020016004820154815260200160058201548152602001600682015481526020016007820154815260200160088201548152602001600982015481525050905092915050565b6000603360009054906101000a900473ffffffffffffffffffffffffffffffffffffffff16905090565b60006036600083815260200190815260200160002090508060020160000160009054906101000a900460ff1662000e71576040517f08c379a000000000000000000000000000000000000000000000000000000000815260040162000e689062002273565b60405180910390fd5b62000e7e84848462000aff565b62000ec0576040517f08c379a000000000000000000000000000000000000000000000000000000000815260040162000eb790620022b7565b60405180910390fd5b6000848460405162000ed2906200186e565b62000edf929190620021f4565b604051809103906000f08015801562000efc573d6000803e3d6000fd5b50905060008190508173ffffffffffffffffffffffffffffffffffffffff166313af4035603460009054906101000a900473ffffffffffffffffffffffffffffffffffffffff166040518263ffffffff1660e01b815260040162000f61919062002167565b600060405180830381600087803b15801562000f7c57600080fd5b505af115801562000f91573d6000803e3d6000fd5b5050505060008360020160040160008154600101919050819055905062000fb7620016fe565b604051806080016040528060011515815260200183815260200189898080601f016020809104026020016040519081016040528093929190818152602001838380828437600081840152601f19601f8201169050808301925050505050505081526020018473ffffffffffffffffffffffffffffffffffffffff1681525090508085600001600084815260200190815260200160002060008201518160000160006101000a81548160ff021916908315150217905550602082015181600101556040820151816002019080519060200190620010959291906200177c565b5060608201518160030160006101000a81548173ffffffffffffffffffffffffffffffffffffffff021916908373ffffffffffffffffffffffffffffffffffffffff16021790555090505081856001018989604051620010f79291906200214c565b9081526020016040518091039020819055506001603989896040516200111f9291906200214c565b908152602001604051809103902060006101000a81548160ff021916908315150217905550604051806060016040528060011515815260200187815260200183815250603560008573ffffffffffffffffffffffffffffffffffffffff1673ffffffffffffffffffffffffffffffffffffffff16815260200190815260200160002060008201518160000160006101000a81548160ff02191690831515021790555060208201518160010155604082015181600201559050507f06430973bed05624589a1204f7a2c53ae3608d56e51741f9828eb62b3789981382878a8a876040516200121195949392919062002447565b60405180910390a15050505050505050565b3373ffffffffffffffffffffffffffffffffffffffff16603360009054906101000a900473ffffffffffffffffffffffffffffffffffffffff1673ffffffffffffffffffffffffffffffffffffffff1614620012b6576040517f08c379a0000000000000000000000000000000000000000000000000000000008152600401620012ad9062002295565b60405180910390fd5b60006036600084815260200190815260200160002060020190508060000160009054906101000a900460ff1662001324576040517f08c379a00000000000000000000000000000000000000000000000000000000081526004016200131b90620022d9565b60405180910390fd5b818160080181905550505050565b60006036600083815260200190815260200160002060010184846040516200135c9291906200214c565b90815260200160405180910390205490509392505050565b6200137e62001803565b60366000838152602001908152602001600020600201604051806101400160405290816000820160009054906101000a900460ff1615151515815260200160018201548152602001600282018054600181600116156101000203166002900480601f016020809104026020016040519081016040528092919081815260200182805460018160011615610100020316600290048015620014625780601f10620014365761010080835404028352916020019162001462565b820191906000526020600020905b8154815290600101906020018083116200144457829003601f168201915b505050505081526020016003820160009054906101000a900473ffffffffffffffffffffffffffffffffffffffff1673ffffffffffffffffffffffffffffffffffffffff1673ffffffffffffffffffffffffffffffffffffffff16815260200160048201548152602001600582015481526020016006820154815260200160078201548152602001600882015481526020016009820154815250509050919050565b3373ffffffffffffffffffffffffffffffffffffffff16603360009054906101000a900473ffffffffffffffffffffffffffffffffffffffff1673ffffffffffffffffffffffffffffffffffffffff161462001597576040517f08c379a00000000000000000000000000000000000000000000000000000000081526004016200158e9062002295565b60405180910390fd5b60006036600084815260200190815260200160002060020190508060000160009054906101000a900460ff1662001605576040517f08c379a0000000000000000000000000000000000000000000000000000000008152600401620015fc90620022fb565b60405180910390fd5b818160090181905550505050565b600060378383604051620016299291906200214c565b908152602001604051809103902054905092915050565b6000603360009054906101000a900473ffffffffffffffffffffffffffffffffffffffff16905081603360006101000a81548173ffffffffffffffffffffffffffffffffffffffff021916908373ffffffffffffffffffffffffffffffffffffffff1602179055507f0384899bd253d83b23daa4d29aaa2efe0563d1132b43101e9ad667235aeb951b8183604051620016db92919062002184565b60405180910390a15050565b6000803090506000813b9050600081149250505090565b60405180608001604052806000151581526020016000815260200160608152602001600073ffffffffffffffffffffffffffffffffffffffff1681525090565b604051806060016040528060001515815260200160008152602001600081525090565b60405180602001604052806200177662001803565b81525090565b828054600181600116156101000203166002900490600052602060002090601f016020900481019282601f10620017bf57805160ff1916838001178555620017f0565b82800160010185558215620017f0579182015b82811115620017ef578251825591602001919060010190620017d2565b5b509050620017ff91906200187c565b5090565b6040518061014001604052806000151581526020016000815260200160608152602001600073ffffffffffffffffffffffffffffffffffffffff1681526020016000815260200160008152602001600081526020016000815260200160008152602001600081525090565b611dff806200261483390190565b620018a191905b808211156200189d57600081600090555060010162001883565b5090565b90565b600081359050620018b581620025c5565b92915050565b600081519050620018cc81620025df565b92915050565b60008083601f840112620018e557600080fd5b8235905067ffffffffffffffff811115620018ff57600080fd5b6020830191508360018202830111156200191857600080fd5b9250929050565b6000813590506200193081620025f9565b92915050565b6000602082840312156200194957600080fd5b60006200195984828501620018a4565b91505092915050565b600080604083850312156200197657600080fd5b60006200198685828601620018a4565b92505060206200199985828601620018a4565b9150509250929050565b600060208284031215620019b657600080fd5b6000620019c684828501620018bb565b91505092915050565b60008060208385031215620019e357600080fd5b600083013567ffffffffffffffff811115620019fe57600080fd5b62001a0c85828601620018d2565b92509250509250929050565b60008060008060008060008060e0898b03121562001a3557600080fd5b600089013567ffffffffffffffff81111562001a5057600080fd5b62001a5e8b828c01620018d2565b9850985050602062001a738b828c01620018a4565b965050604062001a868b828c016200191f565b955050606062001a998b828c016200191f565b945050608062001aac8b828c016200191f565b93505060a062001abf8b828c016200191f565b92505060c062001ad28b828c016200191f565b9150509295985092959890939650565b60008060006040848603121562001af857600080fd5b600084013567ffffffffffffffff81111562001b1357600080fd5b62001b2186828701620018d2565b9350935050602062001b36868287016200191f565b9150509250925092565b60006020828403121562001b5357600080fd5b600062001b63848285016200191f565b91505092915050565b6000806040838503121562001b8057600080fd5b600062001b90858286016200191f565b925050602062001ba3858286016200191f565b9150509250929050565b62001bb881620024d5565b82525050565b62001bc981620024e9565b82525050565b62001bda81620024e9565b82525050565b62001beb816200251f565b82525050565b62001bfc8162002547565b82525050565b600062001c108385620024b9565b935062001c1f8385846200256f565b62001c2a83620025b4565b840190509392505050565b600062001c438385620024ca565b935062001c528385846200256f565b82840190509392505050565b600062001c6b826200249d565b62001c778185620024a8565b935062001c898185602086016200257e565b62001c9481620025b4565b840191505092915050565b600062001cae601d83620024b9565b91507f6164644d61726b65743a20696e76616c696420706172616d65746572730000006000830152602082019050919050565b600062001cf0602083620024b9565b91507f6164644d61726b65743a206d61726b65742065786973747320616c72656164796000830152602082019050919050565b600062001d32601f83620024b9565b91507f616464546f6b656e3a206d61726b657420646f6573206e6f74206578697374006000830152602082019050919050565b600062001d74601283620024b9565b91507f4f776e61626c653a206f6e6c794f776e657200000000000000000000000000006000830152602082019050919050565b600062001db6602283620024b9565b91507f616464546f6b656e3a206e616d6520766572696669636174696f6e206661696c60008301527f65640000000000000000000000000000000000000000000000000000000000006020830152604082019050919050565b600062001e1e600383620024b9565b91507f49445400000000000000000000000000000000000000000000000000000000006000830152602082019050919050565b600062001e60602483620024b9565b91507f73657454726164696e674665653a206d61726b657420646f6573206e6f74206560008301527f78697374000000000000000000000000000000000000000000000000000000006020830152604082019050919050565b600062001ec8602583620024b9565b91507f736574506c6174666f726d4665653a206d61726b657420646f6573206e6f742060008301527f65786973740000000000000000000000000000000000000000000000000000006020830152604082019050919050565b600062001f30602e83620024b9565b91507f436f6e747261637420696e7374616e63652068617320616c726561647920626560008301527f656e20696e697469616c697a65640000000000000000000000000000000000006020830152604082019050919050565b60608201600082015162001fa1600085018262001bbe565b50602082015162001fb660208501826200212a565b50604082015162001fcb60408501826200212a565b50505050565b60006101408301600083015162001fec600086018262001bbe565b5060208301516200200160208601826200212a565b50604083015184820360408601526200201b828262001c5e565b915050606083015162002032606086018262001be0565b5060808301516200204760808601826200212a565b5060a08301516200205c60a08601826200212a565b5060c08301516200207160c08601826200212a565b5060e08301516200208660e08601826200212a565b506101008301516200209d6101008601826200212a565b50610120830151620020b46101208601826200212a565b508091505092915050565b6000608083016000830151620020d9600086018262001bbe565b506020830151620020ee60208601826200212a565b506040830151848203604086015262002108828262001c5e565b91505060608301516200211f606086018262001bf1565b508091505092915050565b620021358162002515565b82525050565b620021468162002515565b82525050565b60006200215b82848662001c35565b91508190509392505050565b60006020820190506200217e600083018462001bad565b92915050565b60006040820190506200219b600083018562001bad565b620021aa602083018462001bad565b9392505050565b6000602082019050620021c8600083018462001bcf565b92915050565b60006020820190508181036000830152620021eb81848662001c02565b90509392505050565b600060408201905081810360008301526200221181848662001c02565b90508181036020830152620022268162001e0f565b90509392505050565b600060208201905081810360008301526200224a8162001c9f565b9050919050565b600060208201905081810360008301526200226c8162001ce1565b9050919050565b600060208201905081810360008301526200228e8162001d23565b9050919050565b60006020820190508181036000830152620022b08162001d65565b9050919050565b60006020820190508181036000830152620022d28162001da7565b9050919050565b60006020820190508181036000830152620022f48162001e51565b9050919050565b60006020820190508181036000830152620023168162001eb9565b9050919050565b60006020820190508181036000830152620023388162001f21565b9050919050565b600060608201905062002356600083018462001f89565b92915050565b6000602082019050818103600083015262002378818462001fd1565b905092915050565b600060208201905081810360008301526200239c8184620020bf565b905092915050565b6000602082019050620023bb60008301846200213b565b92915050565b600060e082019050620023d8600083018b6200213b565b8181036020830152620023ed81898b62001c02565b9050620023fe60408301886200213b565b6200240d60608301876200213b565b6200241c60808301866200213b565b6200242b60a08301856200213b565b6200243a60c08301846200213b565b9998505050505050505050565b60006080820190506200245e60008301886200213b565b6200246d60208301876200213b565b81810360408301526200248281858762001c02565b905062002493606083018462001bad565b9695505050505050565b600081519050919050565b600082825260208201905092915050565b600082825260208201905092915050565b600081905092915050565b6000620024e282620024f5565b9050919050565b60008115159050919050565b600073ffffffffffffffffffffffffffffffffffffffff82169050919050565b6000819050919050565b60006200252c8262002533565b9050919050565b60006200254082620024f5565b9050919050565b600062002554826200255b565b9050919050565b60006200256882620024f5565b9050919050565b82818337600083830152505050565b60005b838110156200259e57808201518184015260208101905062002581565b83811115620025ae576000848401525b50505050565b6000601f19601f8301169050919050565b620025d081620024d5565b8114620025dc57600080fd5b50565b620025ea81620024e9565b8114620025f657600080fd5b50565b620026048162002515565b81146200261057600080fd5b5056fe60806040523480156200001157600080fd5b5060405162001dff38038062001dff833981810160405260408110156200003757600080fd5b81019080805160405193929190846401000000008211156200005857600080fd5b838201915060208201858111156200006f57600080fd5b82518660018202830111640100000000821117156200008d57600080fd5b8083526020830192505050908051906020019080838360005b83811015620000c3578082015181840152602081019050620000a6565b50505050905090810190601f168015620000f15780820380516001836020036101000a031916815260200191505b50604052602001805160405193929190846401000000008211156200011557600080fd5b838201915060208201858111156200012c57600080fd5b82518660018202830111640100000000821117156200014a57600080fd5b8083526020830192505050908051906020019080838360005b838110156200018057808201518184015260208101905062000163565b50505050905090810190601f168015620001ae5780820380516001836020036101000a031916815260200191505b5060405250505081818160039080519060200190620001cf92919062000323565b508060049080519060200190620001e892919062000323565b506012600560006101000a81548160ff021916908360ff160217905550505062000218336200022060201b60201c565b5050620003d2565b6000600560019054906101000a900473ffffffffffffffffffffffffffffffffffffffff16905081600560016101000a81548173ffffffffffffffffffffffffffffffffffffffff021916908373ffffffffffffffffffffffffffffffffffffffff1602179055507f0384899bd253d83b23daa4d29aaa2efe0563d1132b43101e9ad667235aeb951b8183604051808373ffffffffffffffffffffffffffffffffffffffff1673ffffffffffffffffffffffffffffffffffffffff1681526020018273ffffffffffffffffffffffffffffffffffffffff1673ffffffffffffffffffffffffffffffffffffffff1681526020019250505060405180910390a15050565b828054600181600116156101000203166002900490600052602060002090601f016020900481019282601f106200036657805160ff191683800117855562000397565b8280016001018555821562000397579182015b828111156200039657825182559160200191906001019062000379565b5b509050620003a69190620003aa565b5090565b620003cf91905b80821115620003cb576000816000905550600101620003b1565b5090565b90565b611a1d80620003e26000396000f3fe608060405234801561001057600080fd5b50600436106100f55760003560e01c806340c10f19116100975780639dc29fac116100665780639dc29fac146104c8578063a457c2d714610516578063a9059cbb1461057c578063dd62ed3e146105e2576100f5565b806340c10f191461035557806370a08231146103a3578063893d20e8146103fb57806395d89b4114610445576100f5565b806318160ddd116100d357806318160ddd1461022757806323b872dd14610245578063313ce567146102cb57806339509351146102ef576100f5565b806306fdde03146100fa578063095ea7b31461017d57806313af4035146101e3575b600080fd5b61010261065a565b6040518080602001828103825283818151815260200191508051906020019080838360005b83811015610142578082015181840152602081019050610127565b50505050905090810190601f16801561016f5780820380516001836020036101000a031916815260200191505b509250505060405180910390f35b6101c96004803603604081101561019357600080fd5b81019080803573ffffffffffffffffffffffffffffffffffffffff169060200190929190803590602001909291905050506106fc565b604051808215151515815260200191505060405180910390f35b610225600480360360208110156101f957600080fd5b81019080803573ffffffffffffffffffffffffffffffffffffffff16906020019092919050505061071a565b005b61022f6107e9565b6040518082815260200191505060405180910390f35b6102b16004803603606081101561025b57600080fd5b81019080803573ffffffffffffffffffffffffffffffffffffffff169060200190929190803573ffffffffffffffffffffffffffffffffffffffff169060200190929190803590602001909291905050506107f3565b604051808215151515815260200191505060405180910390f35b6102d36108cc565b604051808260ff1660ff16815260200191505060405180910390f35b61033b6004803603604081101561030557600080fd5b81019080803573ffffffffffffffffffffffffffffffffffffffff169060200190929190803590602001909291905050506108e3565b604051808215151515815260200191505060405180910390f35b6103a16004803603604081101561036b57600080fd5b81019080803573ffffffffffffffffffffffffffffffffffffffff16906020019092919080359060200190929190505050610996565b005b6103e5600480360360208110156103b957600080fd5b81019080803573ffffffffffffffffffffffffffffffffffffffff169060200190929190505050610a67565b6040518082815260200191505060405180910390f35b610403610aaf565b604051808273ffffffffffffffffffffffffffffffffffffffff1673ffffffffffffffffffffffffffffffffffffffff16815260200191505060405180910390f35b61044d610ad9565b6040518080602001828103825283818151815260200191508051906020019080838360005b8381101561048d578082015181840152602081019050610472565b50505050905090810190601f1680156104ba5780820380516001836020036101000a031916815260200191505b509250505060405180910390f35b610514600480360360408110156104de57600080fd5b81019080803573ffffffffffffffffffffffffffffffffffffffff16906020019092919080359060200190929190505050610b7b565b005b6105626004803603604081101561052c57600080fd5b81019080803573ffffffffffffffffffffffffffffffffffffffff16906020019092919080359060200190929190505050610c4c565b604051808215151515815260200191505060405180910390f35b6105c86004803603604081101561059257600080fd5b81019080803573ffffffffffffffffffffffffffffffffffffffff16906020019092919080359060200190929190505050610d19565b604051808215151515815260200191505060405180910390f35b610644600480360360408110156105f857600080fd5b81019080803573ffffffffffffffffffffffffffffffffffffffff169060200190929190803573ffffffffffffffffffffffffffffffffffffffff169060200190929190505050610d37565b6040518082815260200191505060405180910390f35b606060038054600181600116156101000203166002900480601f0160208091040260200160405190810160405280929190818152602001828054600181600116156101000203166002900480156106f25780601f106106c7576101008083540402835291602001916106f2565b820191906000526020600020905b8154815290600101906020018083116106d557829003601f168201915b5050505050905090565b6000610710610709610dbe565b8484610dc6565b6001905092915050565b3373ffffffffffffffffffffffffffffffffffffffff16600560019054906101000a900473ffffffffffffffffffffffffffffffffffffffff1673ffffffffffffffffffffffffffffffffffffffff16146107dd576040517f08c379a00000000000000000000000000000000000000000000000000000000081526004018080602001828103825260128152602001807f4f776e61626c653a206f6e6c794f776e6572000000000000000000000000000081525060200191505060405180910390fd5b6107e681610fbd565b50565b6000600254905090565b60006108008484846110c0565b6108c18461080c610dbe565b6108bc8560405180606001604052806028815260200161193160289139600160008b73ffffffffffffffffffffffffffffffffffffffff1673ffffffffffffffffffffffffffffffffffffffff1681526020019081526020016000206000610872610dbe565b73ffffffffffffffffffffffffffffffffffffffff1673ffffffffffffffffffffffffffffffffffffffff168152602001908152602001600020546113819092919063ffffffff16565b610dc6565b600190509392505050565b6000600560009054906101000a900460ff16905090565b600061098c6108f0610dbe565b846109878560016000610901610dbe565b73ffffffffffffffffffffffffffffffffffffffff1673ffffffffffffffffffffffffffffffffffffffff16815260200190815260200160002060008973ffffffffffffffffffffffffffffffffffffffff1673ffffffffffffffffffffffffffffffffffffffff1681526020019081526020016000205461144190919063ffffffff16565b610dc6565b6001905092915050565b3373ffffffffffffffffffffffffffffffffffffffff16600560019054906101000a900473ffffffffffffffffffffffffffffffffffffffff1673ffffffffffffffffffffffffffffffffffffffff1614610a59576040517f08c379a00000000000000000000000000000000000000000000000000000000081526004018080602001828103825260128152602001807f4f776e61626c653a206f6e6c794f776e6572000000000000000000000000000081525060200191505060405180910390fd5b610a6382826114c9565b5050565b60008060008373ffffffffffffffffffffffffffffffffffffffff1673ffffffffffffffffffffffffffffffffffffffff168152602001908152602001600020549050919050565b6000600560019054906101000a900473ffffffffffffffffffffffffffffffffffffffff16905090565b606060048054600181600116156101000203166002900480601f016020809104026020016040519081016040528092919081815260200182805460018160011615610100020316600290048015610b715780601f10610b4657610100808354040283529160200191610b71565b820191906000526020600020905b815481529060010190602001808311610b5457829003601f168201915b5050505050905090565b3373ffffffffffffffffffffffffffffffffffffffff16600560019054906101000a900473ffffffffffffffffffffffffffffffffffffffff1673ffffffffffffffffffffffffffffffffffffffff1614610c3e576040517f08c379a00000000000000000000000000000000000000000000000000000000081526004018080602001828103825260128152602001807f4f776e61626c653a206f6e6c794f776e6572000000000000000000000000000081525060200191505060405180910390fd5b610c488282611690565b5050565b6000610d0f610c59610dbe565b84610d0a856040518060600160405280602581526020016119c36025913960016000610c83610dbe565b73ffffffffffffffffffffffffffffffffffffffff1673ffffffffffffffffffffffffffffffffffffffff16815260200190815260200160002060008a73ffffffffffffffffffffffffffffffffffffffff1673ffffffffffffffffffffffffffffffffffffffff168152602001908152602001600020546113819092919063ffffffff16565b610dc6565b6001905092915050565b6000610d2d610d26610dbe565b84846110c0565b6001905092915050565b6000600160008473ffffffffffffffffffffffffffffffffffffffff1673ffffffffffffffffffffffffffffffffffffffff16815260200190815260200160002060008373ffffffffffffffffffffffffffffffffffffffff1673ffffffffffffffffffffffffffffffffffffffff16815260200190815260200160002054905092915050565b600033905090565b600073ffffffffffffffffffffffffffffffffffffffff168373ffffffffffffffffffffffffffffffffffffffff161415610e4c576040517f08c379a000000000000000000000000000000000000000000000000000000000815260040180806020018281038252602481526020018061199f6024913960400191505060405180910390fd5b600073ffffffffffffffffffffffffffffffffffffffff168273ffffffffffffffffffffffffffffffffffffffff161415610ed2576040517f08c379a00000000000000000000000000000000000000000000000000000000081526004018080602001828103825260228152602001806118e96022913960400191505060405180910390fd5b80600160008573ffffffffffffffffffffffffffffffffffffffff1673ffffffffffffffffffffffffffffffffffffffff16815260200190815260200160002060008473ffffffffffffffffffffffffffffffffffffffff1673ffffffffffffffffffffffffffffffffffffffff168152602001908152602001600020819055508173ffffffffffffffffffffffffffffffffffffffff168373ffffffffffffffffffffffffffffffffffffffff167f8c5be1e5ebec7d5bd14f71427d1e84f3dd0314c0f7b2291e5b200ac8c7c3b925836040518082815260200191505060405180910390a3505050565b6000600560019054906101000a900473ffffffffffffffffffffffffffffffffffffffff16905081600560016101000a81548173ffffffffffffffffffffffffffffffffffffffff021916908373ffffffffffffffffffffffffffffffffffffffff1602179055507f0384899bd253d83b23daa4d29aaa2efe0563d1132b43101e9ad667235aeb951b8183604051808373ffffffffffffffffffffffffffffffffffffffff1673ffffffffffffffffffffffffffffffffffffffff1681526020018273ffffffffffffffffffffffffffffffffffffffff1673ffffffffffffffffffffffffffffffffffffffff1681526020019250505060405180910390a15050565b600073ffffffffffffffffffffffffffffffffffffffff168373ffffffffffffffffffffffffffffffffffffffff161415611146576040517f08c379a000000000000000000000000000000000000000000000000000000000815260040180806020018281038252602581526020018061197a6025913960400191505060405180910390fd5b600073ffffffffffffffffffffffffffffffffffffffff168273ffffffffffffffffffffffffffffffffffffffff1614156111cc576040517f08c379a00000000000000000000000000000000000000000000000000000000081526004018080602001828103825260238152602001806118a46023913960400191505060405180910390fd5b6111d7838383611854565b6112428160405180606001604052806026815260200161190b602691396000808773ffffffffffffffffffffffffffffffffffffffff1673ffffffffffffffffffffffffffffffffffffffff168152602001908152602001600020546113819092919063ffffffff16565b6000808573ffffffffffffffffffffffffffffffffffffffff1673ffffffffffffffffffffffffffffffffffffffff168152602001908152602001600020819055506112d5816000808573ffffffffffffffffffffffffffffffffffffffff1673ffffffffffffffffffffffffffffffffffffffff1681526020019081526020016000205461144190919063ffffffff16565b6000808473ffffffffffffffffffffffffffffffffffffffff1673ffffffffffffffffffffffffffffffffffffffff168152602001908152602001600020819055508173ffffffffffffffffffffffffffffffffffffffff168373ffffffffffffffffffffffffffffffffffffffff167fddf252ad1be2c89b69c2b068fc378daa952ba7f163c4a11628f55a4df523b3ef836040518082815260200191505060405180910390a3505050565b600083831115829061142e576040517f08c379a00000000000000000000000000000000000000000000000000000000081526004018080602001828103825283818151815260200191508051906020019080838360005b838110156113f35780820151818401526020810190506113d8565b50505050905090810190601f1680156114205780820380516001836020036101000a031916815260200191505b509250505060405180910390fd5b5060008385039050809150509392505050565b6000808284019050838110156114bf576040517f08c379a000000000000000000000000000000000000000000000000000000000815260040180806020018281038252601b8152602001807f536166654d6174683a206164646974696f6e206f766572666c6f77000000000081525060200191505060405180910390fd5b8091505092915050565b600073ffffffffffffffffffffffffffffffffffffffff168273ffffffffffffffffffffffffffffffffffffffff16141561156c576040517f08c379a000000000000000000000000000000000000000000000000000000000815260040180806020018281038252601f8152602001807f45524332303a206d696e7420746f20746865207a65726f20616464726573730081525060200191505060405180910390fd5b61157860008383611854565b61158d8160025461144190919063ffffffff16565b6002819055506115e4816000808573ffffffffffffffffffffffffffffffffffffffff1673ffffffffffffffffffffffffffffffffffffffff1681526020019081526020016000205461144190919063ffffffff16565b6000808473ffffffffffffffffffffffffffffffffffffffff1673ffffffffffffffffffffffffffffffffffffffff168152602001908152602001600020819055508173ffffffffffffffffffffffffffffffffffffffff16600073ffffffffffffffffffffffffffffffffffffffff167fddf252ad1be2c89b69c2b068fc378daa952ba7f163c4a11628f55a4df523b3ef836040518082815260200191505060405180910390a35050565b600073ffffffffffffffffffffffffffffffffffffffff168273ffffffffffffffffffffffffffffffffffffffff161415611716576040517f08c379a00000000000000000000000000000000000000000000000000000000081526004018080602001828103825260218152602001806119596021913960400191505060405180910390fd5b61172282600083611854565b61178d816040518060600160405280602281526020016118c7602291396000808673ffffffffffffffffffffffffffffffffffffffff1673ffffffffffffffffffffffffffffffffffffffff168152602001908152602001600020546113819092919063ffffffff16565b6000808473ffffffffffffffffffffffffffffffffffffffff1673ffffffffffffffffffffffffffffffffffffffff168152602001908152602001600020819055506117e48160025461185990919063ffffffff16565b600281905550600073ffffffffffffffffffffffffffffffffffffffff168273ffffffffffffffffffffffffffffffffffffffff167fddf252ad1be2c89b69c2b068fc378daa952ba7f163c4a11628f55a4df523b3ef836040518082815260200191505060405180910390a35050565b505050565b600061189b83836040518060400160405280601e81526020017f536166654d6174683a207375627472616374696f6e206f766572666c6f770000815250611381565b90509291505056fe45524332303a207472616e7366657220746f20746865207a65726f206164647265737345524332303a206275726e20616d6f756e7420657863656564732062616c616e636545524332303a20617070726f766520746f20746865207a65726f206164647265737345524332303a207472616e7366657220616d6f756e7420657863656564732062616c616e636545524332303a207472616e7366657220616d6f756e74206578636565647320616c6c6f77616e636545524332303a206275726e2066726f6d20746865207a65726f206164647265737345524332303a207472616e736665722066726f6d20746865207a65726f206164647265737345524332303a20617070726f76652066726f6d20746865207a65726f206164647265737345524332303a2064656372656173656420616c6c6f77616e63652062656c6f77207a65726fa2646970667358221220ea26520e5befb02eae524384aca6555ffd461cd2a85059d38a0d1fb845c124bc64736f6c63430006090033a26469706673582212206e9c9866d7cce0c6f7b1a3506a73b50fa4051c81aa38e3ad81875bf14fd8df8164736f6c63430006090033",
  "immutableReferences": {},
  "source": "// SPDX-License-Identifier: MIT\r\npragma solidity ^0.6.9;\r\npragma experimental ABIEncoderV2;\r\n\r\nimport \"../util/Initializable.sol\";\r\nimport \"@openzeppelin/contracts/math/SafeMath.sol\";\r\nimport \"../util/Ownable.sol\";\r\nimport \"./IIdeaTokenFactory.sol\";\r\nimport \"./IdeaToken.sol\";\r\nimport \"./IIdeaToken.sol\";\r\nimport \"./nameVerifiers/IIdeaTokenNameVerifier.sol\";\r\n\r\n/**\r\n * @title IdeaTokenFactory\r\n * @author Alexander Schlindwein\r\n *\r\n * @dev Manages the creation, exchange and interest distribution of IdeaTokens. Sits behind a proxy\r\n */\r\ncontract IdeaTokenFactory is IIdeaTokenFactory, Initializable, Ownable {\r\n\r\n    using SafeMath for uint256;\r\n\r\n    struct MarketInfo {\r\n        mapping(uint => TokenInfo) tokens;\r\n        mapping(string => uint) tokenIDs;\r\n\r\n        MarketDetails marketDetails;\r\n    }\r\n\r\n    address _ideaTokenExchange;\r\n\r\n    mapping(address => IDPair) _tokenIDPairs;\r\n\r\n    mapping(uint => MarketInfo) _markets;\r\n    mapping(string => uint) _marketIDs;\r\n    uint _numMarkets;\r\n\r\n    /// @dev We want token names to be unique across markets, so we keep track of them in a seperate map\r\n    mapping(string => bool) _tokenNameUsed;\r\n\r\n    event NewMarket(uint id,\r\n                    string name,\r\n                    uint baseCost,\r\n                    uint priceRise,\r\n                    uint tokensPerInterval,\r\n                    uint tradingFeeRate,\r\n                    uint platformFeeRate);\r\n\r\n    event NewToken(uint id, uint marketID, string name, address addr);\r\n\r\n    /**\r\n     * @dev Initializes the contract\r\n     *\r\n     * @param owner The owner of the contract\r\n     */\r\n    function initialize(address owner, address ideaTokenExchange) external initializer {\r\n        setOwnerInternal(owner);\r\n        _ideaTokenExchange = ideaTokenExchange;\r\n    }\r\n\r\n    /**\r\n     * @dev Adds a new market. May only be called by admin\r\n\r\n     * @param marketName The name of the market\r\n     * @param nameVerifier The address of the name verifier\r\n     * @param baseCost: The initial cost in Dai per IdeaToken in the first interval\r\n     * @param priceRise: The price rise in Dai per IdeaToken per completed interval\r\n     * @param tokensPerInterval: The amount of IdeaTokens in each interval\r\n     * @param tradingFeeRate: The trading fee rate\r\n     * @param platformFeeRate: The platform fee rate\r\n     */\r\n    function addMarket(string calldata marketName, address nameVerifier,\r\n                       uint baseCost, uint priceRise, uint tokensPerInterval,\r\n                       uint tradingFeeRate, uint platformFeeRate) external override onlyOwner {\r\n        require(_marketIDs[marketName] == 0, \"addMarket: market exists already\");\r\n        require(baseCost > 0 && priceRise > 0 && tokensPerInterval > 0, \"addMarket: invalid parameters\");\r\n\r\n        uint marketID = ++_numMarkets;\r\n        MarketInfo memory marketInfo = MarketInfo({\r\n            marketDetails: MarketDetails({\r\n                exists: true,\r\n                id: marketID,\r\n                name: marketName,\r\n                nameVerifier: IIdeaTokenNameVerifier(nameVerifier),\r\n                numTokens: 0,\r\n                baseCost: baseCost,\r\n                priceRise: priceRise,\r\n                tokensPerInterval: tokensPerInterval,\r\n                tradingFeeRate: tradingFeeRate,\r\n                platformFeeRate: platformFeeRate\r\n            })\r\n        });\r\n\r\n        _markets[marketID] = marketInfo;\r\n        _marketIDs[marketName] = marketID;\r\n\r\n        emit NewMarket(marketID,\r\n                       marketName,\r\n                       baseCost,\r\n                       priceRise,\r\n                       tokensPerInterval, \r\n                       tradingFeeRate,\r\n                       platformFeeRate);\r\n    }\r\n\r\n    /**\r\n     * @dev Adds a new token.\r\n\r\n     * @param tokenName The name of the token\r\n     * @param marketID The ID of the market\r\n     */\r\n    function addToken(string calldata tokenName, uint marketID) external override {\r\n        MarketInfo storage marketInfo = _markets[marketID];\r\n        require(marketInfo.marketDetails.exists, \"addToken: market does not exist\");\r\n        require(isValidTokenName(tokenName, marketID), \"addToken: name verification failed\");\r\n\r\n        address ideaTokenAddress = address(new IdeaToken(tokenName, \"IDT\"));\r\n        IIdeaToken ideaToken = IIdeaToken(ideaTokenAddress);\r\n        Ownable(ideaTokenAddress).setOwner(_ideaTokenExchange);\r\n\r\n        uint tokenID = ++marketInfo.marketDetails.numTokens;\r\n        TokenInfo memory tokenInfo = TokenInfo({\r\n            exists: true,\r\n            id: tokenID,\r\n            name: tokenName,\r\n            ideaToken: ideaToken\r\n        });\r\n\r\n        marketInfo.tokens[tokenID] = tokenInfo;\r\n        marketInfo.tokenIDs[tokenName] = tokenID;\r\n        _tokenNameUsed[tokenName] = true;\r\n        _tokenIDPairs[address(ideaToken)] = IDPair({\r\n            exists: true,\r\n            marketID: marketID,\r\n            tokenID: tokenID\r\n        });\r\n\r\n        emit NewToken(tokenID, marketID, tokenName, address(ideaToken));\r\n    }\r\n\r\n    /**\r\n     * @dev Checks whether a token name is allowed and not used already\r\n     *\r\n     * @param tokenName The intended token name\r\n     * @param marketID The market on which the token is to be listed\r\n     *\r\n     * @return True if the name is allowed, false otherwise\r\n     */\r\n    function isValidTokenName(string calldata tokenName, uint marketID) public view override returns (bool) {\r\n\r\n        MarketDetails storage marketDetails = _markets[marketID].marketDetails;\r\n\r\n        if(_tokenNameUsed[tokenName] || !marketDetails.nameVerifier.verifyTokenName(tokenName)) {\r\n            return false;\r\n        }\r\n\r\n        return true;\r\n    }\r\n\r\n    /**\r\n     * @dev Returns the market id by the market name\r\n     *\r\n     * @param marketName The market name\r\n     *\r\n     * @return The market id\r\n     */\r\n    function getMarketIDByName(string calldata marketName) external view override returns (uint) {\r\n        return _marketIDs[marketName];\r\n    }\r\n\r\n    /**\r\n     * @dev Returns the market details by the market id\r\n     *\r\n     * @param marketID The market id\r\n     *\r\n     * @return The market details\r\n     */\r\n    function getMarketDetailsByID(uint marketID) external view override returns (MarketDetails memory) {\r\n        return _markets[marketID].marketDetails;\r\n    }\r\n\r\n    /**\r\n     * @dev Returns the market details by the market name\r\n     *\r\n     * @param marketName The market name\r\n     *\r\n     * @return The market details\r\n     */\r\n    function getMarketDetailsByName(string calldata marketName) external view override returns (MarketDetails memory) {\r\n        return _markets[_marketIDs[marketName]].marketDetails;\r\n    }\r\n\r\n    /**\r\n     * @dev Returns the amount of existing markets\r\n     *\r\n     * @return The amount of existing markets\r\n     */\r\n    function getNumMarkets() external view override  returns (uint) {\r\n        return _numMarkets;\r\n    }\r\n\r\n    /**\r\n     * @dev Returns the token id by the token name and market id\r\n     *\r\n     * @param tokenName The token name\r\n     * @param marketID The market id\r\n     *\r\n     * @return The token id\r\n     */\r\n    function getTokenIDByName(string calldata tokenName, uint marketID) external view override returns (uint) {\r\n        return _markets[marketID].tokenIDs[tokenName];\r\n    }\r\n\r\n    /**\r\n     * @dev Returns the token info by the token id and market id\r\n     *\r\n     * @param marketID The market id\r\n     * @param tokenID The token id\r\n     *\r\n     * @return The token info\r\n     */\r\n    function getTokenInfo(uint marketID, uint tokenID) external view override returns (TokenInfo memory) {\r\n        return _markets[marketID].tokens[tokenID];\r\n    }\r\n\r\n    /**\r\n     * @dev Returns the token id pair by the tokens address\r\n     *\r\n     * @param token The tokens address\r\n     *\r\n     * @return The token id pair\r\n     */\r\n    function getTokenIDPair(address token) external view override returns (IDPair memory) {\r\n        return _tokenIDPairs[token];\r\n    }\r\n\r\n    /**\r\n     * @dev Sets the trading fee for a market\r\n     *\r\n     * @param marketID The market id for which to set the trading fee\r\n     * @param tradingFeeRate The trading fee\r\n     */\r\n    function setTradingFee(uint marketID, uint tradingFeeRate) external override onlyOwner {\r\n        MarketDetails storage marketDetails = _markets[marketID].marketDetails;\r\n        require(marketDetails.exists, \"setTradingFee: market does not exist\");\r\n        marketDetails.tradingFeeRate = tradingFeeRate;\r\n    }\r\n\r\n    /**\r\n     * @dev Sets the platform fee for a market\r\n     *\r\n     * @param marketID The market id for which to set the platform fee\r\n     * @param platformFeeRate The platform fee\r\n     */\r\n    function setPlatformFee(uint marketID, uint platformFeeRate) external override onlyOwner {\r\n        MarketDetails storage marketDetails = _markets[marketID].marketDetails;\r\n        require(marketDetails.exists, \"setPlatformFee: market does not exist\");\r\n        marketDetails.platformFeeRate = platformFeeRate;\r\n    }\r\n}",
  "sourcePath": "C:/Users/alexa/Desktop/ideamarket-contracts/contracts/core/IdeaTokenFactory.sol",
  "compiler": {
    "name": "solc",
    "version": "0.6.9+commit.3e3065ac.Emscripten.clang"
  },
  "schemaVersion": "3.2.3",
  "updatedAt": "2020-10-14T12:14:30.151Z",
  "networkType": "ethereum",
  "devdoc": {
    "author": "Alexander Schlindwein",
    "details": "Manages the creation, exchange and interest distribution of IdeaTokens. Sits behind a proxy",
    "methods": {
      "addMarket(string,address,uint256,uint256,uint256,uint256,uint256)": {
        "details": "Adds a new market. May only be called by admin",
        "params": {
          "baseCost": ": The initial cost in Dai per IdeaToken in the first interval",
          "marketName": "The name of the market",
          "nameVerifier": "The address of the name verifier",
          "platformFeeRate": ": The platform fee rate",
          "priceRise": ": The price rise in Dai per IdeaToken per completed interval",
          "tokensPerInterval": ": The amount of IdeaTokens in each interval",
          "tradingFeeRate": ": The trading fee rate"
        }
      },
      "addToken(string,uint256)": {
        "details": "Adds a new token.",
        "params": {
          "marketID": "The ID of the market",
          "tokenName": "The name of the token"
        }
      },
      "getMarketDetailsByID(uint256)": {
        "details": "Returns the market details by the market id",
        "params": {
          "marketID": "The market id"
        },
        "returns": {
          "_0": "The market details"
        }
      },
      "getMarketDetailsByName(string)": {
        "details": "Returns the market details by the market name",
        "params": {
          "marketName": "The market name"
        },
        "returns": {
          "_0": "The market details"
        }
      },
      "getMarketIDByName(string)": {
        "details": "Returns the market id by the market name",
        "params": {
          "marketName": "The market name"
        },
        "returns": {
          "_0": "The market id"
        }
      },
      "getNumMarkets()": {
        "details": "Returns the amount of existing markets",
        "returns": {
          "_0": "The amount of existing markets"
        }
      },
      "getTokenIDByName(string,uint256)": {
        "details": "Returns the token id by the token name and market id",
        "params": {
          "marketID": "The market id",
          "tokenName": "The token name"
        },
        "returns": {
          "_0": "The token id"
        }
      },
      "getTokenIDPair(address)": {
        "details": "Returns the token id pair by the tokens address",
        "params": {
          "token": "The tokens address"
        },
        "returns": {
          "_0": "The token id pair"
        }
      },
      "getTokenInfo(uint256,uint256)": {
        "details": "Returns the token info by the token id and market id",
        "params": {
          "marketID": "The market id",
          "tokenID": "The token id"
        },
        "returns": {
          "_0": "The token info"
        }
      },
      "initialize(address,address)": {
        "details": "Initializes the contract",
        "params": {
          "owner": "The owner of the contract"
        }
      },
      "isValidTokenName(string,uint256)": {
        "details": "Checks whether a token name is allowed and not used already",
        "params": {
          "marketID": "The market on which the token is to be listed",
          "tokenName": "The intended token name"
        },
        "returns": {
          "_0": "True if the name is allowed, false otherwise"
        }
      },
      "setPlatformFee(uint256,uint256)": {
        "details": "Sets the platform fee for a market",
        "params": {
          "marketID": "The market id for which to set the platform fee",
          "platformFeeRate": "The platform fee"
        }
      },
      "setTradingFee(uint256,uint256)": {
        "details": "Sets the trading fee for a market",
        "params": {
          "marketID": "The market id for which to set the trading fee",
          "tradingFeeRate": "The trading fee"
        }
      }
    },
    "stateVariables": {
      "_tokenNameUsed": {
        "details": "We want token names to be unique across markets, so we keep track of them in a seperate map"
      }
    },
    "title": "IdeaTokenFactory"
  },
  "userdoc": {
    "methods": {}
  }
}