{
  "contractName": "IdeaTokenFactory",
  "abi": [
    {
      "anonymous": false,
      "inputs": [
        {
          "indexed": false,
          "internalType": "uint256",
          "name": "id",
          "type": "uint256"
        },
        {
          "indexed": false,
          "internalType": "string",
          "name": "name",
          "type": "string"
        },
        {
          "indexed": false,
          "internalType": "uint256",
          "name": "baseCost",
          "type": "uint256"
        },
        {
          "indexed": false,
          "internalType": "uint256",
          "name": "priceRise",
          "type": "uint256"
        },
        {
          "indexed": false,
          "internalType": "uint256",
          "name": "tokensPerInterval",
          "type": "uint256"
        },
        {
          "indexed": false,
          "internalType": "uint256",
          "name": "tradingFeeRate",
          "type": "uint256"
        },
        {
          "indexed": false,
          "internalType": "uint256",
          "name": "platformFeeRate",
          "type": "uint256"
        }
      ],
      "name": "NewMarket",
      "type": "event"
    },
    {
      "anonymous": false,
      "inputs": [
        {
          "indexed": false,
          "internalType": "uint256",
          "name": "id",
          "type": "uint256"
        },
        {
          "indexed": false,
          "internalType": "uint256",
          "name": "marketID",
          "type": "uint256"
        },
        {
          "indexed": false,
          "internalType": "string",
          "name": "name",
          "type": "string"
        },
        {
          "indexed": false,
          "internalType": "address",
          "name": "addr",
          "type": "address"
        }
      ],
      "name": "NewToken",
      "type": "event"
    },
    {
      "anonymous": false,
      "inputs": [
        {
          "indexed": false,
          "internalType": "address",
          "name": "oldOwner",
          "type": "address"
        },
        {
          "indexed": false,
          "internalType": "address",
          "name": "newOwner",
          "type": "address"
        }
      ],
      "name": "OwnershipChanged",
      "type": "event"
    },
    {
      "inputs": [],
      "name": "getOwner",
      "outputs": [
        {
          "internalType": "address",
          "name": "",
          "type": "address"
        }
      ],
      "stateMutability": "view",
      "type": "function",
      "constant": true
    },
    {
      "inputs": [
        {
          "internalType": "address",
          "name": "newOwner",
          "type": "address"
        }
      ],
      "name": "setOwner",
      "outputs": [],
      "stateMutability": "nonpayable",
      "type": "function"
    },
    {
      "inputs": [
        {
          "internalType": "address",
          "name": "owner",
          "type": "address"
        },
        {
          "internalType": "address",
          "name": "ideaTokenExchange",
          "type": "address"
        }
      ],
      "name": "initialize",
      "outputs": [],
      "stateMutability": "nonpayable",
      "type": "function"
    },
    {
      "inputs": [
        {
          "internalType": "string",
          "name": "marketName",
          "type": "string"
        },
        {
          "internalType": "address",
          "name": "nameVerifier",
          "type": "address"
        },
        {
          "internalType": "uint256",
          "name": "baseCost",
          "type": "uint256"
        },
        {
          "internalType": "uint256",
          "name": "priceRise",
          "type": "uint256"
        },
        {
          "internalType": "uint256",
          "name": "tokensPerInterval",
          "type": "uint256"
        },
        {
          "internalType": "uint256",
          "name": "tradingFeeRate",
          "type": "uint256"
        },
        {
          "internalType": "uint256",
          "name": "platformFeeRate",
          "type": "uint256"
        }
      ],
      "name": "addMarket",
      "outputs": [],
      "stateMutability": "nonpayable",
      "type": "function"
    },
    {
      "inputs": [
        {
          "internalType": "string",
          "name": "tokenName",
          "type": "string"
        },
        {
          "internalType": "uint256",
          "name": "marketID",
          "type": "uint256"
        }
      ],
      "name": "addToken",
      "outputs": [],
      "stateMutability": "nonpayable",
      "type": "function"
    },
    {
      "inputs": [
        {
          "internalType": "string",
          "name": "tokenName",
          "type": "string"
        },
        {
          "internalType": "uint256",
          "name": "marketID",
          "type": "uint256"
        }
      ],
      "name": "isValidTokenName",
      "outputs": [
        {
          "internalType": "bool",
          "name": "",
          "type": "bool"
        }
      ],
      "stateMutability": "view",
      "type": "function",
      "constant": true
    },
    {
      "inputs": [
        {
          "internalType": "string",
          "name": "marketName",
          "type": "string"
        }
      ],
      "name": "getMarketIDByName",
      "outputs": [
        {
          "internalType": "uint256",
          "name": "",
          "type": "uint256"
        }
      ],
      "stateMutability": "view",
      "type": "function",
      "constant": true
    },
    {
      "inputs": [
        {
          "internalType": "uint256",
          "name": "marketID",
          "type": "uint256"
        }
      ],
      "name": "getMarketDetailsByID",
      "outputs": [
        {
          "components": [
            {
              "internalType": "bool",
              "name": "exists",
              "type": "bool"
            },
            {
              "internalType": "uint256",
              "name": "id",
              "type": "uint256"
            },
            {
              "internalType": "string",
              "name": "name",
              "type": "string"
            },
            {
              "internalType": "contract IIdeaTokenNameVerifier",
              "name": "nameVerifier",
              "type": "address"
            },
            {
              "internalType": "uint256",
              "name": "numTokens",
              "type": "uint256"
            },
            {
              "internalType": "uint256",
              "name": "baseCost",
              "type": "uint256"
            },
            {
              "internalType": "uint256",
              "name": "priceRise",
              "type": "uint256"
            },
            {
              "internalType": "uint256",
              "name": "tokensPerInterval",
              "type": "uint256"
            },
            {
              "internalType": "uint256",
              "name": "tradingFeeRate",
              "type": "uint256"
            },
            {
              "internalType": "uint256",
              "name": "platformFeeRate",
              "type": "uint256"
            }
          ],
          "internalType": "struct IIdeaTokenFactory.MarketDetails",
          "name": "",
          "type": "tuple"
        }
      ],
      "stateMutability": "view",
      "type": "function",
      "constant": true
    },
    {
      "inputs": [
        {
          "internalType": "string",
          "name": "marketName",
          "type": "string"
        }
      ],
      "name": "getMarketDetailsByName",
      "outputs": [
        {
          "components": [
            {
              "internalType": "bool",
              "name": "exists",
              "type": "bool"
            },
            {
              "internalType": "uint256",
              "name": "id",
              "type": "uint256"
            },
            {
              "internalType": "string",
              "name": "name",
              "type": "string"
            },
            {
              "internalType": "contract IIdeaTokenNameVerifier",
              "name": "nameVerifier",
              "type": "address"
            },
            {
              "internalType": "uint256",
              "name": "numTokens",
              "type": "uint256"
            },
            {
              "internalType": "uint256",
              "name": "baseCost",
              "type": "uint256"
            },
            {
              "internalType": "uint256",
              "name": "priceRise",
              "type": "uint256"
            },
            {
              "internalType": "uint256",
              "name": "tokensPerInterval",
              "type": "uint256"
            },
            {
              "internalType": "uint256",
              "name": "tradingFeeRate",
              "type": "uint256"
            },
            {
              "internalType": "uint256",
              "name": "platformFeeRate",
              "type": "uint256"
            }
          ],
          "internalType": "struct IIdeaTokenFactory.MarketDetails",
          "name": "",
          "type": "tuple"
        }
      ],
      "stateMutability": "view",
      "type": "function",
      "constant": true
    },
    {
      "inputs": [],
      "name": "getNumMarkets",
      "outputs": [
        {
          "internalType": "uint256",
          "name": "",
          "type": "uint256"
        }
      ],
      "stateMutability": "view",
      "type": "function",
      "constant": true
    },
    {
      "inputs": [
        {
          "internalType": "string",
          "name": "tokenName",
          "type": "string"
        },
        {
          "internalType": "uint256",
          "name": "marketID",
          "type": "uint256"
        }
      ],
      "name": "getTokenIDByName",
      "outputs": [
        {
          "internalType": "uint256",
          "name": "",
          "type": "uint256"
        }
      ],
      "stateMutability": "view",
      "type": "function",
      "constant": true
    },
    {
      "inputs": [
        {
          "internalType": "uint256",
          "name": "marketID",
          "type": "uint256"
        },
        {
          "internalType": "uint256",
          "name": "tokenID",
          "type": "uint256"
        }
      ],
      "name": "getTokenInfo",
      "outputs": [
        {
          "components": [
            {
              "internalType": "bool",
              "name": "exists",
              "type": "bool"
            },
            {
              "internalType": "uint256",
              "name": "id",
              "type": "uint256"
            },
            {
              "internalType": "string",
              "name": "name",
              "type": "string"
            },
            {
              "internalType": "contract IIdeaToken",
              "name": "ideaToken",
              "type": "address"
            }
          ],
          "internalType": "struct IIdeaTokenFactory.TokenInfo",
          "name": "",
          "type": "tuple"
        }
      ],
      "stateMutability": "view",
      "type": "function",
      "constant": true
    },
    {
      "inputs": [
        {
          "internalType": "address",
          "name": "token",
          "type": "address"
        }
      ],
      "name": "getTokenIDPair",
      "outputs": [
        {
          "components": [
            {
              "internalType": "bool",
              "name": "exists",
              "type": "bool"
            },
            {
              "internalType": "uint256",
              "name": "marketID",
              "type": "uint256"
            },
            {
              "internalType": "uint256",
              "name": "tokenID",
              "type": "uint256"
            }
          ],
          "internalType": "struct IIdeaTokenFactory.IDPair",
          "name": "",
          "type": "tuple"
        }
      ],
      "stateMutability": "view",
      "type": "function",
      "constant": true
    }
  ],
  "bytecode": "0x608060405234801561001057600080fd5b506140ac806100206000396000f3fe60806040523480156200001157600080fd5b5060043610620000e25760003560e01c806372e99a4c11620000995780638ca132f7116200006f5780638ca132f71462000263578063b8f7534a1462000283578063c7d5fe5514620002b9578063fcbd9edd14620002ef57620000e2565b806372e99a4c14620001d557806381eaaa1c146200020b578063893d20e8146200024157620000e2565b80630a81adc114620000e757806313af4035146200011d578063295c39a5146200013d5780633911283a146200015f578063485cc95514620001955780636de84a9e14620001b5575b600080fd5b620001056004803603810190620000ff9190620018e4565b62000325565b60405162000114919062001fe4565b60405180910390f35b6200013b6004803603810190620001359190620016ae565b6200048a565b005b620001476200052b565b60405162000156919062002008565b60405180910390f35b6200017d6004803603810190620001779190620016ae565b62000535565b6040516200018c919062001fa3565b60405180910390f35b620001b36004803603810190620001ad9190620016da565b620005bf565b005b620001d36004803603810190620001cd919062001790565b620006ff565b005b620001f36004803603810190620001ed91906200185a565b62000a95565b60405162000202919062001e59565b60405180910390f35b62000229600480360381019062000223919062001747565b62000bbc565b60405162000238919062001fc0565b60405180910390f35b6200024b62000d6f565b6040516200025a919062001e0f565b60405180910390f35b6200028160048036038101906200027b91906200185a565b62000d99565b005b620002a160048036038101906200029b91906200185a565b620011b9565b604051620002b0919062002008565b60405180910390f35b620002d76004803603810190620002d19190620018b8565b620011fb565b604051620002e6919062001fc0565b60405180910390f35b6200030d600480360381019062000307919062001747565b6200138b565b6040516200031c919062002008565b60405180910390f35b6200032f62001476565b6036600084815260200190815260200160002060000160008381526020019081526020016000206040518060800160405290816000820160009054906101000a900460ff1615151515815260200160018201548152602001600282018054600181600116156101000203166002900480601f016020809104026020016040519081016040528092919081815260200182805460018160011615610100020316600290048015620004235780601f10620003f75761010080835404028352916020019162000423565b820191906000526020600020905b8154815290600101906020018083116200040557829003601f168201915b505050505081526020016003820160009054906101000a900473ffffffffffffffffffffffffffffffffffffffff1673ffffffffffffffffffffffffffffffffffffffff1673ffffffffffffffffffffffffffffffffffffffff1681525050905092915050565b3373ffffffffffffffffffffffffffffffffffffffff16603360009054906101000a900473ffffffffffffffffffffffffffffffffffffffff1673ffffffffffffffffffffffffffffffffffffffff16146200051d576040517f08c379a0000000000000000000000000000000000000000000000000000000008152600401620005149062001f3d565b60405180910390fd5b6200052881620013b8565b50565b6000603854905090565b6200053f620014b6565b603560008373ffffffffffffffffffffffffffffffffffffffff1673ffffffffffffffffffffffffffffffffffffffff1681526020019081526020016000206040518060600160405290816000820160009054906101000a900460ff16151515158152602001600182015481526020016002820154815250509050919050565b600060019054906101000a900460ff1680620005e15750620005e06200145f565b5b80620005f957506000809054906101000a900460ff16155b6200063b576040517f08c379a0000000000000000000000000000000000000000000000000000000008152600401620006329062001f81565b60405180910390fd5b60008060019054906101000a900460ff1615905080156200068c576001600060016101000a81548160ff02191690831515021790555060016000806101000a81548160ff0219169083151502179055505b6200069783620013b8565b81603460006101000a81548173ffffffffffffffffffffffffffffffffffffffff021916908373ffffffffffffffffffffffffffffffffffffffff1602179055508015620006fa5760008060016101000a81548160ff0219169083151502179055505b505050565b3373ffffffffffffffffffffffffffffffffffffffff16603360009054906101000a900473ffffffffffffffffffffffffffffffffffffffff1673ffffffffffffffffffffffffffffffffffffffff161462000792576040517f08c379a0000000000000000000000000000000000000000000000000000000008152600401620007899062001f3d565b60405180910390fd5b600060378989604051620007a892919062001df4565b90815260200160405180910390205414620007fa576040517f08c379a0000000000000000000000000000000000000000000000000000000008152600401620007f19062001ef9565b60405180910390fd5b6000851180156200080b5750600084115b8015620008185750600083115b6200085a576040517f08c379a0000000000000000000000000000000000000000000000000000000008152600401620008519062001ed7565b60405180910390fd5b6000603860008154600101919050819055905062000877620014d9565b60405180602001604052806040518061014001604052806001151581526020018581526020018d8d8080601f016020809104026020016040519081016040528093929190818152602001838380828437600081840152601f19601f8201169050808301925050505050505081526020018b73ffffffffffffffffffffffffffffffffffffffff168152602001600081526020018a8152602001898152602001888152602001878152602001868152508152509050806036600084815260200190815260200160002060008201518160020160008201518160000160006101000a81548160ff02191690831515021790555060208201518160010155604082015181600201908051906020019062000990929190620014f4565b5060608201518160030160006101000a81548173ffffffffffffffffffffffffffffffffffffffff021916908373ffffffffffffffffffffffffffffffffffffffff1602179055506080820151816004015560a0820151816005015560c0820151816006015560e082015181600701556101008201518160080155610120820151816009015550509050508160378b8b60405162000a3092919062001df4565b9081526020016040518091039020819055507f7bd24e3c7dc3034dddb40b8cfe4d5771ea3c86558240d2899732049934f401f6828b8b8a8a8a8a8a60405162000a8198979695949392919062002025565b60405180910390a150505050505050505050565b6000806036600084815260200190815260200160002060020190506039858560405162000ac492919062001df4565b908152602001604051809103902060009054906101000a900460ff168062000b9e57508060030160009054906101000a900473ffffffffffffffffffffffffffffffffffffffff1673ffffffffffffffffffffffffffffffffffffffff16634c8bc1c986866040518363ffffffff1660e01b815260040162000b4892919062001e76565b60206040518083038186803b15801562000b6157600080fd5b505afa15801562000b76573d6000803e3d6000fd5b505050506040513d601f19601f8201168201806040525081019062000b9c91906200171b565b155b1562000baf57600091505062000bb5565b60019150505b9392505050565b62000bc66200157b565b603660006037858560405162000bde92919062001df4565b9081526020016040518091039020548152602001908152602001600020600201604051806101400160405290816000820160009054906101000a900460ff1615151515815260200160018201548152602001600282018054600181600116156101000203166002900480601f01602080910402602001604051908101604052809291908181526020018280546001816001161561010002031660029004801562000ccc5780601f1062000ca05761010080835404028352916020019162000ccc565b820191906000526020600020905b81548152906001019060200180831162000cae57829003601f168201915b505050505081526020016003820160009054906101000a900473ffffffffffffffffffffffffffffffffffffffff1673ffffffffffffffffffffffffffffffffffffffff1673ffffffffffffffffffffffffffffffffffffffff1681526020016004820154815260200160058201548152602001600682015481526020016007820154815260200160088201548152602001600982015481525050905092915050565b6000603360009054906101000a900473ffffffffffffffffffffffffffffffffffffffff16905090565b60006036600083815260200190815260200160002090508060020160000160009054906101000a900460ff1662000e07576040517f08c379a000000000000000000000000000000000000000000000000000000000815260040162000dfe9062001f1b565b60405180910390fd5b62000e1484848462000a95565b62000e56576040517f08c379a000000000000000000000000000000000000000000000000000000000815260040162000e4d9062001f5f565b60405180910390fd5b6000848460405162000e6890620015e6565b62000e7592919062001e9c565b604051809103906000f08015801562000e92573d6000803e3d6000fd5b50905060008190508173ffffffffffffffffffffffffffffffffffffffff166313af4035603460009054906101000a900473ffffffffffffffffffffffffffffffffffffffff166040518263ffffffff1660e01b815260040162000ef7919062001e0f565b600060405180830381600087803b15801562000f1257600080fd5b505af115801562000f27573d6000803e3d6000fd5b5050505060008360020160040160008154600101919050819055905062000f4d62001476565b604051806080016040528060011515815260200183815260200189898080601f016020809104026020016040519081016040528093929190818152602001838380828437600081840152601f19601f8201169050808301925050505050505081526020018473ffffffffffffffffffffffffffffffffffffffff1681525090508085600001600084815260200190815260200160002060008201518160000160006101000a81548160ff0219169083151502179055506020820151816001015560408201518160020190805190602001906200102b929190620014f4565b5060608201518160030160006101000a81548173ffffffffffffffffffffffffffffffffffffffff021916908373ffffffffffffffffffffffffffffffffffffffff160217905550905050818560010189896040516200108d92919062001df4565b908152602001604051809103902081905550600160398989604051620010b592919062001df4565b908152602001604051809103902060006101000a81548160ff021916908315150217905550604051806060016040528060011515815260200187815260200183815250603560008573ffffffffffffffffffffffffffffffffffffffff1673ffffffffffffffffffffffffffffffffffffffff16815260200190815260200160002060008201518160000160006101000a81548160ff02191690831515021790555060208201518160010155604082015181600201559050507f06430973bed05624589a1204f7a2c53ae3608d56e51741f9828eb62b3789981382878a8a87604051620011a7959493929190620020ab565b60405180910390a15050505050505050565b6000603660008381526020019081526020016000206001018484604051620011e392919062001df4565b90815260200160405180910390205490509392505050565b620012056200157b565b60366000838152602001908152602001600020600201604051806101400160405290816000820160009054906101000a900460ff1615151515815260200160018201548152602001600282018054600181600116156101000203166002900480601f016020809104026020016040519081016040528092919081815260200182805460018160011615610100020316600290048015620012e95780601f10620012bd57610100808354040283529160200191620012e9565b820191906000526020600020905b815481529060010190602001808311620012cb57829003601f168201915b505050505081526020016003820160009054906101000a900473ffffffffffffffffffffffffffffffffffffffff1673ffffffffffffffffffffffffffffffffffffffff1673ffffffffffffffffffffffffffffffffffffffff16815260200160048201548152602001600582015481526020016006820154815260200160078201548152602001600882015481526020016009820154815250509050919050565b600060378383604051620013a192919062001df4565b908152602001604051809103902054905092915050565b6000603360009054906101000a900473ffffffffffffffffffffffffffffffffffffffff16905081603360006101000a81548173ffffffffffffffffffffffffffffffffffffffff021916908373ffffffffffffffffffffffffffffffffffffffff1602179055507f0384899bd253d83b23daa4d29aaa2efe0563d1132b43101e9ad667235aeb951b81836040516200145392919062001e2c565b60405180910390a15050565b6000803090506000813b9050600081149250505090565b60405180608001604052806000151581526020016000815260200160608152602001600073ffffffffffffffffffffffffffffffffffffffff1681525090565b604051806060016040528060001515815260200160008152602001600081525090565b6040518060200160405280620014ee6200157b565b81525090565b828054600181600116156101000203166002900490600052602060002090601f016020900481019282601f106200153757805160ff191683800117855562001568565b8280016001018555821562001568579182015b82811115620015675782518255916020019190600101906200154a565b5b509050620015779190620015f4565b5090565b6040518061014001604052806000151581526020016000815260200160608152602001600073ffffffffffffffffffffffffffffffffffffffff1681526020016000815260200160008152602001600081526020016000815260200160008152602001600081525090565b611dff806200227883390190565b6200161991905b8082111562001615576000816000905550600101620015fb565b5090565b90565b6000813590506200162d8162002229565b92915050565b600081519050620016448162002243565b92915050565b60008083601f8401126200165d57600080fd5b8235905067ffffffffffffffff8111156200167757600080fd5b6020830191508360018202830111156200169057600080fd5b9250929050565b600081359050620016a8816200225d565b92915050565b600060208284031215620016c157600080fd5b6000620016d1848285016200161c565b91505092915050565b60008060408385031215620016ee57600080fd5b6000620016fe858286016200161c565b925050602062001711858286016200161c565b9150509250929050565b6000602082840312156200172e57600080fd5b60006200173e8482850162001633565b91505092915050565b600080602083850312156200175b57600080fd5b600083013567ffffffffffffffff8111156200177657600080fd5b62001784858286016200164a565b92509250509250929050565b60008060008060008060008060e0898b031215620017ad57600080fd5b600089013567ffffffffffffffff811115620017c857600080fd5b620017d68b828c016200164a565b98509850506020620017eb8b828c016200161c565b9650506040620017fe8b828c0162001697565b9550506060620018118b828c0162001697565b9450506080620018248b828c0162001697565b93505060a0620018378b828c0162001697565b92505060c06200184a8b828c0162001697565b9150509295985092959890939650565b6000806000604084860312156200187057600080fd5b600084013567ffffffffffffffff8111156200188b57600080fd5b62001899868287016200164a565b93509350506020620018ae8682870162001697565b9150509250925092565b600060208284031215620018cb57600080fd5b6000620018db8482850162001697565b91505092915050565b60008060408385031215620018f857600080fd5b6000620019088582860162001697565b92505060206200191b8582860162001697565b9150509250929050565b620019308162002139565b82525050565b62001941816200214d565b82525050565b62001952816200214d565b82525050565b620019638162002183565b82525050565b6200197481620021ab565b82525050565b60006200198883856200211d565b935062001997838584620021d3565b620019a28362002218565b840190509392505050565b6000620019bb83856200212e565b9350620019ca838584620021d3565b82840190509392505050565b6000620019e38262002101565b620019ef81856200210c565b935062001a01818560208601620021e2565b62001a0c8162002218565b840191505092915050565b600062001a26601d836200211d565b91507f6164644d61726b65743a20696e76616c696420706172616d65746572730000006000830152602082019050919050565b600062001a686020836200211d565b91507f6164644d61726b65743a206d61726b65742065786973747320616c72656164796000830152602082019050919050565b600062001aaa601f836200211d565b91507f616464546f6b656e3a206d61726b657420646f6573206e6f74206578697374006000830152602082019050919050565b600062001aec6012836200211d565b91507f4f776e61626c653a206f6e6c794f776e657200000000000000000000000000006000830152602082019050919050565b600062001b2e6022836200211d565b91507f616464546f6b656e3a206e616d6520766572696669636174696f6e206661696c60008301527f65640000000000000000000000000000000000000000000000000000000000006020830152604082019050919050565b600062001b966003836200211d565b91507f49445400000000000000000000000000000000000000000000000000000000006000830152602082019050919050565b600062001bd8602e836200211d565b91507f436f6e747261637420696e7374616e63652068617320616c726561647920626560008301527f656e20696e697469616c697a65640000000000000000000000000000000000006020830152604082019050919050565b60608201600082015162001c49600085018262001936565b50602082015162001c5e602085018262001dd2565b50604082015162001c73604085018262001dd2565b50505050565b60006101408301600083015162001c94600086018262001936565b50602083015162001ca9602086018262001dd2565b506040830151848203604086015262001cc38282620019d6565b915050606083015162001cda606086018262001958565b50608083015162001cef608086018262001dd2565b5060a083015162001d0460a086018262001dd2565b5060c083015162001d1960c086018262001dd2565b5060e083015162001d2e60e086018262001dd2565b5061010083015162001d4561010086018262001dd2565b5061012083015162001d5c61012086018262001dd2565b508091505092915050565b600060808301600083015162001d81600086018262001936565b50602083015162001d96602086018262001dd2565b506040830151848203604086015262001db08282620019d6565b915050606083015162001dc7606086018262001969565b508091505092915050565b62001ddd8162002179565b82525050565b62001dee8162002179565b82525050565b600062001e03828486620019ad565b91508190509392505050565b600060208201905062001e26600083018462001925565b92915050565b600060408201905062001e43600083018562001925565b62001e52602083018462001925565b9392505050565b600060208201905062001e70600083018462001947565b92915050565b6000602082019050818103600083015262001e938184866200197a565b90509392505050565b6000604082019050818103600083015262001eb98184866200197a565b9050818103602083015262001ece8162001b87565b90509392505050565b6000602082019050818103600083015262001ef28162001a17565b9050919050565b6000602082019050818103600083015262001f148162001a59565b9050919050565b6000602082019050818103600083015262001f368162001a9b565b9050919050565b6000602082019050818103600083015262001f588162001add565b9050919050565b6000602082019050818103600083015262001f7a8162001b1f565b9050919050565b6000602082019050818103600083015262001f9c8162001bc9565b9050919050565b600060608201905062001fba600083018462001c31565b92915050565b6000602082019050818103600083015262001fdc818462001c79565b905092915050565b6000602082019050818103600083015262002000818462001d67565b905092915050565b60006020820190506200201f600083018462001de3565b92915050565b600060e0820190506200203c600083018b62001de3565b81810360208301526200205181898b6200197a565b905062002062604083018862001de3565b62002071606083018762001de3565b62002080608083018662001de3565b6200208f60a083018562001de3565b6200209e60c083018462001de3565b9998505050505050505050565b6000608082019050620020c2600083018862001de3565b620020d1602083018762001de3565b8181036040830152620020e68185876200197a565b9050620020f7606083018462001925565b9695505050505050565b600081519050919050565b600082825260208201905092915050565b600082825260208201905092915050565b600081905092915050565b6000620021468262002159565b9050919050565b60008115159050919050565b600073ffffffffffffffffffffffffffffffffffffffff82169050919050565b6000819050919050565b6000620021908262002197565b9050919050565b6000620021a48262002159565b9050919050565b6000620021b882620021bf565b9050919050565b6000620021cc8262002159565b9050919050565b82818337600083830152505050565b60005b8381101562002202578082015181840152602081019050620021e5565b8381111562002212576000848401525b50505050565b6000601f19601f8301169050919050565b620022348162002139565b81146200224057600080fd5b50565b6200224e816200214d565b81146200225a57600080fd5b50565b620022688162002179565b81146200227457600080fd5b5056fe60806040523480156200001157600080fd5b5060405162001dff38038062001dff833981810160405260408110156200003757600080fd5b81019080805160405193929190846401000000008211156200005857600080fd5b838201915060208201858111156200006f57600080fd5b82518660018202830111640100000000821117156200008d57600080fd5b8083526020830192505050908051906020019080838360005b83811015620000c3578082015181840152602081019050620000a6565b50505050905090810190601f168015620000f15780820380516001836020036101000a031916815260200191505b50604052602001805160405193929190846401000000008211156200011557600080fd5b838201915060208201858111156200012c57600080fd5b82518660018202830111640100000000821117156200014a57600080fd5b8083526020830192505050908051906020019080838360005b838110156200018057808201518184015260208101905062000163565b50505050905090810190601f168015620001ae5780820380516001836020036101000a031916815260200191505b5060405250505081818160039080519060200190620001cf92919062000323565b508060049080519060200190620001e892919062000323565b506012600560006101000a81548160ff021916908360ff160217905550505062000218336200022060201b60201c565b5050620003d2565b6000600560019054906101000a900473ffffffffffffffffffffffffffffffffffffffff16905081600560016101000a81548173ffffffffffffffffffffffffffffffffffffffff021916908373ffffffffffffffffffffffffffffffffffffffff1602179055507f0384899bd253d83b23daa4d29aaa2efe0563d1132b43101e9ad667235aeb951b8183604051808373ffffffffffffffffffffffffffffffffffffffff1673ffffffffffffffffffffffffffffffffffffffff1681526020018273ffffffffffffffffffffffffffffffffffffffff1673ffffffffffffffffffffffffffffffffffffffff1681526020019250505060405180910390a15050565b828054600181600116156101000203166002900490600052602060002090601f016020900481019282601f106200036657805160ff191683800117855562000397565b8280016001018555821562000397579182015b828111156200039657825182559160200191906001019062000379565b5b509050620003a69190620003aa565b5090565b620003cf91905b80821115620003cb576000816000905550600101620003b1565b5090565b90565b611a1d80620003e26000396000f3fe608060405234801561001057600080fd5b50600436106100f55760003560e01c806340c10f19116100975780639dc29fac116100665780639dc29fac146104c8578063a457c2d714610516578063a9059cbb1461057c578063dd62ed3e146105e2576100f5565b806340c10f191461035557806370a08231146103a3578063893d20e8146103fb57806395d89b4114610445576100f5565b806318160ddd116100d357806318160ddd1461022757806323b872dd14610245578063313ce567146102cb57806339509351146102ef576100f5565b806306fdde03146100fa578063095ea7b31461017d57806313af4035146101e3575b600080fd5b61010261065a565b6040518080602001828103825283818151815260200191508051906020019080838360005b83811015610142578082015181840152602081019050610127565b50505050905090810190601f16801561016f5780820380516001836020036101000a031916815260200191505b509250505060405180910390f35b6101c96004803603604081101561019357600080fd5b81019080803573ffffffffffffffffffffffffffffffffffffffff169060200190929190803590602001909291905050506106fc565b604051808215151515815260200191505060405180910390f35b610225600480360360208110156101f957600080fd5b81019080803573ffffffffffffffffffffffffffffffffffffffff16906020019092919050505061071a565b005b61022f6107e9565b6040518082815260200191505060405180910390f35b6102b16004803603606081101561025b57600080fd5b81019080803573ffffffffffffffffffffffffffffffffffffffff169060200190929190803573ffffffffffffffffffffffffffffffffffffffff169060200190929190803590602001909291905050506107f3565b604051808215151515815260200191505060405180910390f35b6102d36108cc565b604051808260ff1660ff16815260200191505060405180910390f35b61033b6004803603604081101561030557600080fd5b81019080803573ffffffffffffffffffffffffffffffffffffffff169060200190929190803590602001909291905050506108e3565b604051808215151515815260200191505060405180910390f35b6103a16004803603604081101561036b57600080fd5b81019080803573ffffffffffffffffffffffffffffffffffffffff16906020019092919080359060200190929190505050610996565b005b6103e5600480360360208110156103b957600080fd5b81019080803573ffffffffffffffffffffffffffffffffffffffff169060200190929190505050610a67565b6040518082815260200191505060405180910390f35b610403610aaf565b604051808273ffffffffffffffffffffffffffffffffffffffff1673ffffffffffffffffffffffffffffffffffffffff16815260200191505060405180910390f35b61044d610ad9565b6040518080602001828103825283818151815260200191508051906020019080838360005b8381101561048d578082015181840152602081019050610472565b50505050905090810190601f1680156104ba5780820380516001836020036101000a031916815260200191505b509250505060405180910390f35b610514600480360360408110156104de57600080fd5b81019080803573ffffffffffffffffffffffffffffffffffffffff16906020019092919080359060200190929190505050610b7b565b005b6105626004803603604081101561052c57600080fd5b81019080803573ffffffffffffffffffffffffffffffffffffffff16906020019092919080359060200190929190505050610c4c565b604051808215151515815260200191505060405180910390f35b6105c86004803603604081101561059257600080fd5b81019080803573ffffffffffffffffffffffffffffffffffffffff16906020019092919080359060200190929190505050610d19565b604051808215151515815260200191505060405180910390f35b610644600480360360408110156105f857600080fd5b81019080803573ffffffffffffffffffffffffffffffffffffffff169060200190929190803573ffffffffffffffffffffffffffffffffffffffff169060200190929190505050610d37565b6040518082815260200191505060405180910390f35b606060038054600181600116156101000203166002900480601f0160208091040260200160405190810160405280929190818152602001828054600181600116156101000203166002900480156106f25780601f106106c7576101008083540402835291602001916106f2565b820191906000526020600020905b8154815290600101906020018083116106d557829003601f168201915b5050505050905090565b6000610710610709610dbe565b8484610dc6565b6001905092915050565b3373ffffffffffffffffffffffffffffffffffffffff16600560019054906101000a900473ffffffffffffffffffffffffffffffffffffffff1673ffffffffffffffffffffffffffffffffffffffff16146107dd576040517f08c379a00000000000000000000000000000000000000000000000000000000081526004018080602001828103825260128152602001807f4f776e61626c653a206f6e6c794f776e6572000000000000000000000000000081525060200191505060405180910390fd5b6107e681610fbd565b50565b6000600254905090565b60006108008484846110c0565b6108c18461080c610dbe565b6108bc8560405180606001604052806028815260200161193160289139600160008b73ffffffffffffffffffffffffffffffffffffffff1673ffffffffffffffffffffffffffffffffffffffff1681526020019081526020016000206000610872610dbe565b73ffffffffffffffffffffffffffffffffffffffff1673ffffffffffffffffffffffffffffffffffffffff168152602001908152602001600020546113819092919063ffffffff16565b610dc6565b600190509392505050565b6000600560009054906101000a900460ff16905090565b600061098c6108f0610dbe565b846109878560016000610901610dbe565b73ffffffffffffffffffffffffffffffffffffffff1673ffffffffffffffffffffffffffffffffffffffff16815260200190815260200160002060008973ffffffffffffffffffffffffffffffffffffffff1673ffffffffffffffffffffffffffffffffffffffff1681526020019081526020016000205461144190919063ffffffff16565b610dc6565b6001905092915050565b3373ffffffffffffffffffffffffffffffffffffffff16600560019054906101000a900473ffffffffffffffffffffffffffffffffffffffff1673ffffffffffffffffffffffffffffffffffffffff1614610a59576040517f08c379a00000000000000000000000000000000000000000000000000000000081526004018080602001828103825260128152602001807f4f776e61626c653a206f6e6c794f776e6572000000000000000000000000000081525060200191505060405180910390fd5b610a6382826114c9565b5050565b60008060008373ffffffffffffffffffffffffffffffffffffffff1673ffffffffffffffffffffffffffffffffffffffff168152602001908152602001600020549050919050565b6000600560019054906101000a900473ffffffffffffffffffffffffffffffffffffffff16905090565b606060048054600181600116156101000203166002900480601f016020809104026020016040519081016040528092919081815260200182805460018160011615610100020316600290048015610b715780601f10610b4657610100808354040283529160200191610b71565b820191906000526020600020905b815481529060010190602001808311610b5457829003601f168201915b5050505050905090565b3373ffffffffffffffffffffffffffffffffffffffff16600560019054906101000a900473ffffffffffffffffffffffffffffffffffffffff1673ffffffffffffffffffffffffffffffffffffffff1614610c3e576040517f08c379a00000000000000000000000000000000000000000000000000000000081526004018080602001828103825260128152602001807f4f776e61626c653a206f6e6c794f776e6572000000000000000000000000000081525060200191505060405180910390fd5b610c488282611690565b5050565b6000610d0f610c59610dbe565b84610d0a856040518060600160405280602581526020016119c36025913960016000610c83610dbe565b73ffffffffffffffffffffffffffffffffffffffff1673ffffffffffffffffffffffffffffffffffffffff16815260200190815260200160002060008a73ffffffffffffffffffffffffffffffffffffffff1673ffffffffffffffffffffffffffffffffffffffff168152602001908152602001600020546113819092919063ffffffff16565b610dc6565b6001905092915050565b6000610d2d610d26610dbe565b84846110c0565b6001905092915050565b6000600160008473ffffffffffffffffffffffffffffffffffffffff1673ffffffffffffffffffffffffffffffffffffffff16815260200190815260200160002060008373ffffffffffffffffffffffffffffffffffffffff1673ffffffffffffffffffffffffffffffffffffffff16815260200190815260200160002054905092915050565b600033905090565b600073ffffffffffffffffffffffffffffffffffffffff168373ffffffffffffffffffffffffffffffffffffffff161415610e4c576040517f08c379a000000000000000000000000000000000000000000000000000000000815260040180806020018281038252602481526020018061199f6024913960400191505060405180910390fd5b600073ffffffffffffffffffffffffffffffffffffffff168273ffffffffffffffffffffffffffffffffffffffff161415610ed2576040517f08c379a00000000000000000000000000000000000000000000000000000000081526004018080602001828103825260228152602001806118e96022913960400191505060405180910390fd5b80600160008573ffffffffffffffffffffffffffffffffffffffff1673ffffffffffffffffffffffffffffffffffffffff16815260200190815260200160002060008473ffffffffffffffffffffffffffffffffffffffff1673ffffffffffffffffffffffffffffffffffffffff168152602001908152602001600020819055508173ffffffffffffffffffffffffffffffffffffffff168373ffffffffffffffffffffffffffffffffffffffff167f8c5be1e5ebec7d5bd14f71427d1e84f3dd0314c0f7b2291e5b200ac8c7c3b925836040518082815260200191505060405180910390a3505050565b6000600560019054906101000a900473ffffffffffffffffffffffffffffffffffffffff16905081600560016101000a81548173ffffffffffffffffffffffffffffffffffffffff021916908373ffffffffffffffffffffffffffffffffffffffff1602179055507f0384899bd253d83b23daa4d29aaa2efe0563d1132b43101e9ad667235aeb951b8183604051808373ffffffffffffffffffffffffffffffffffffffff1673ffffffffffffffffffffffffffffffffffffffff1681526020018273ffffffffffffffffffffffffffffffffffffffff1673ffffffffffffffffffffffffffffffffffffffff1681526020019250505060405180910390a15050565b600073ffffffffffffffffffffffffffffffffffffffff168373ffffffffffffffffffffffffffffffffffffffff161415611146576040517f08c379a000000000000000000000000000000000000000000000000000000000815260040180806020018281038252602581526020018061197a6025913960400191505060405180910390fd5b600073ffffffffffffffffffffffffffffffffffffffff168273ffffffffffffffffffffffffffffffffffffffff1614156111cc576040517f08c379a00000000000000000000000000000000000000000000000000000000081526004018080602001828103825260238152602001806118a46023913960400191505060405180910390fd5b6111d7838383611854565b6112428160405180606001604052806026815260200161190b602691396000808773ffffffffffffffffffffffffffffffffffffffff1673ffffffffffffffffffffffffffffffffffffffff168152602001908152602001600020546113819092919063ffffffff16565b6000808573ffffffffffffffffffffffffffffffffffffffff1673ffffffffffffffffffffffffffffffffffffffff168152602001908152602001600020819055506112d5816000808573ffffffffffffffffffffffffffffffffffffffff1673ffffffffffffffffffffffffffffffffffffffff1681526020019081526020016000205461144190919063ffffffff16565b6000808473ffffffffffffffffffffffffffffffffffffffff1673ffffffffffffffffffffffffffffffffffffffff168152602001908152602001600020819055508173ffffffffffffffffffffffffffffffffffffffff168373ffffffffffffffffffffffffffffffffffffffff167fddf252ad1be2c89b69c2b068fc378daa952ba7f163c4a11628f55a4df523b3ef836040518082815260200191505060405180910390a3505050565b600083831115829061142e576040517f08c379a00000000000000000000000000000000000000000000000000000000081526004018080602001828103825283818151815260200191508051906020019080838360005b838110156113f35780820151818401526020810190506113d8565b50505050905090810190601f1680156114205780820380516001836020036101000a031916815260200191505b509250505060405180910390fd5b5060008385039050809150509392505050565b6000808284019050838110156114bf576040517f08c379a000000000000000000000000000000000000000000000000000000000815260040180806020018281038252601b8152602001807f536166654d6174683a206164646974696f6e206f766572666c6f77000000000081525060200191505060405180910390fd5b8091505092915050565b600073ffffffffffffffffffffffffffffffffffffffff168273ffffffffffffffffffffffffffffffffffffffff16141561156c576040517f08c379a000000000000000000000000000000000000000000000000000000000815260040180806020018281038252601f8152602001807f45524332303a206d696e7420746f20746865207a65726f20616464726573730081525060200191505060405180910390fd5b61157860008383611854565b61158d8160025461144190919063ffffffff16565b6002819055506115e4816000808573ffffffffffffffffffffffffffffffffffffffff1673ffffffffffffffffffffffffffffffffffffffff1681526020019081526020016000205461144190919063ffffffff16565b6000808473ffffffffffffffffffffffffffffffffffffffff1673ffffffffffffffffffffffffffffffffffffffff168152602001908152602001600020819055508173ffffffffffffffffffffffffffffffffffffffff16600073ffffffffffffffffffffffffffffffffffffffff167fddf252ad1be2c89b69c2b068fc378daa952ba7f163c4a11628f55a4df523b3ef836040518082815260200191505060405180910390a35050565b600073ffffffffffffffffffffffffffffffffffffffff168273ffffffffffffffffffffffffffffffffffffffff161415611716576040517f08c379a00000000000000000000000000000000000000000000000000000000081526004018080602001828103825260218152602001806119596021913960400191505060405180910390fd5b61172282600083611854565b61178d816040518060600160405280602281526020016118c7602291396000808673ffffffffffffffffffffffffffffffffffffffff1673ffffffffffffffffffffffffffffffffffffffff168152602001908152602001600020546113819092919063ffffffff16565b6000808473ffffffffffffffffffffffffffffffffffffffff1673ffffffffffffffffffffffffffffffffffffffff168152602001908152602001600020819055506117e48160025461185990919063ffffffff16565b600281905550600073ffffffffffffffffffffffffffffffffffffffff168273ffffffffffffffffffffffffffffffffffffffff167fddf252ad1be2c89b69c2b068fc378daa952ba7f163c4a11628f55a4df523b3ef836040518082815260200191505060405180910390a35050565b505050565b600061189b83836040518060400160405280601e81526020017f536166654d6174683a207375627472616374696f6e206f766572666c6f770000815250611381565b90509291505056fe45524332303a207472616e7366657220746f20746865207a65726f206164647265737345524332303a206275726e20616d6f756e7420657863656564732062616c616e636545524332303a20617070726f766520746f20746865207a65726f206164647265737345524332303a207472616e7366657220616d6f756e7420657863656564732062616c616e636545524332303a207472616e7366657220616d6f756e74206578636565647320616c6c6f77616e636545524332303a206275726e2066726f6d20746865207a65726f206164647265737345524332303a207472616e736665722066726f6d20746865207a65726f206164647265737345524332303a20617070726f76652066726f6d20746865207a65726f206164647265737345524332303a2064656372656173656420616c6c6f77616e63652062656c6f77207a65726fa2646970667358221220ea26520e5befb02eae524384aca6555ffd461cd2a85059d38a0d1fb845c124bc64736f6c63430006090033a2646970667358221220c145085f1c2724f9398877224af0ebec0914bab64251d4b695bb8272d2b4904a64736f6c63430006090033",
  "immutableReferences": {},
  "source": "// SPDX-License-Identifier: MIT\r\npragma solidity ^0.6.9;\r\npragma experimental ABIEncoderV2;\r\n\r\nimport \"../util/Initializable.sol\";\r\nimport \"@openzeppelin/contracts/math/SafeMath.sol\";\r\nimport \"../util/Ownable.sol\";\r\nimport \"./IIdeaTokenFactory.sol\";\r\nimport \"./IdeaToken.sol\";\r\nimport \"./IIdeaToken.sol\";\r\nimport \"./nameVerifiers/IIdeaTokenNameVerifier.sol\";\r\n\r\n/**\r\n * @title IdeaTokenFactory\r\n * @author Alexander Schlindwein\r\n *\r\n * @dev Manages the creation, exchange and interest distribution of IdeaTokens. Sits behind a proxy\r\n */\r\ncontract IdeaTokenFactory is IIdeaTokenFactory, Initializable, Ownable {\r\n\r\n    using SafeMath for uint256;\r\n\r\n    struct MarketInfo {\r\n        mapping(uint => TokenInfo) tokens;\r\n        mapping(string => uint) tokenIDs;\r\n\r\n        MarketDetails marketDetails;\r\n    }\r\n\r\n    address _ideaTokenExchange;\r\n\r\n    mapping(address => IDPair) _tokenIDPairs;\r\n\r\n    mapping(uint => MarketInfo) _markets;\r\n    mapping(string => uint) _marketIDs;\r\n    uint _numMarkets;\r\n\r\n    /// @dev We want token names to be unique across markets, so we keep track of them in a seperate map\r\n    mapping(string => bool) _tokenNameUsed;\r\n\r\n    event NewMarket(uint id,\r\n                    string name,\r\n                    uint baseCost,\r\n                    uint priceRise,\r\n                    uint tokensPerInterval,\r\n                    uint tradingFeeRate,\r\n                    uint platformFeeRate);\r\n\r\n    event NewToken(uint id, uint marketID, string name, address addr);\r\n\r\n    /**\r\n     * @dev Initializes the contract\r\n     *\r\n     * @param owner The owner of the contract\r\n     */\r\n    function initialize(address owner, address ideaTokenExchange) external initializer {\r\n        setOwnerInternal(owner);\r\n        _ideaTokenExchange = ideaTokenExchange;\r\n    }\r\n\r\n    /**\r\n     * @dev Adds a new market. May only be called by admin\r\n\r\n     * @param marketName The name of the market\r\n     * @param nameVerifier The address of the name verifier\r\n     * @param baseCost: The initial cost in Dai per IdeaToken in the first interval\r\n     * @param priceRise: The price rise in Dai per IdeaToken per completed interval\r\n     * @param tokensPerInterval: The amount of IdeaTokens in each interval\r\n     * @param tradingFeeRate: The trading fee rate\r\n     * @param platformFeeRate: The platform fee rate\r\n     */\r\n    function addMarket(string calldata marketName, address nameVerifier,\r\n                       uint baseCost, uint priceRise, uint tokensPerInterval,\r\n                       uint tradingFeeRate, uint platformFeeRate) external override onlyOwner {\r\n        require(_marketIDs[marketName] == 0, \"addMarket: market exists already\");\r\n        require(baseCost > 0 && priceRise > 0 && tokensPerInterval > 0, \"addMarket: invalid parameters\");\r\n\r\n        uint marketID = ++_numMarkets;\r\n        MarketInfo memory marketInfo = MarketInfo({\r\n            marketDetails: MarketDetails({\r\n                exists: true,\r\n                id: marketID,\r\n                name: marketName,\r\n                nameVerifier: IIdeaTokenNameVerifier(nameVerifier),\r\n                numTokens: 0,\r\n                baseCost: baseCost,\r\n                priceRise: priceRise,\r\n                tokensPerInterval: tokensPerInterval,\r\n                tradingFeeRate: tradingFeeRate,\r\n                platformFeeRate: platformFeeRate\r\n            })\r\n        });\r\n\r\n        _markets[marketID] = marketInfo;\r\n        _marketIDs[marketName] = marketID;\r\n\r\n        emit NewMarket(marketID,\r\n                       marketName,\r\n                       baseCost,\r\n                       priceRise,\r\n                       tokensPerInterval, \r\n                       tradingFeeRate,\r\n                       platformFeeRate);\r\n    }\r\n\r\n    /**\r\n     * @dev Adds a new token.\r\n\r\n     * @param tokenName The name of the token\r\n     * @param marketID The ID of the market\r\n     */\r\n    function addToken(string calldata tokenName, uint marketID) external override {\r\n        MarketInfo storage marketInfo = _markets[marketID];\r\n        require(marketInfo.marketDetails.exists, \"addToken: market does not exist\");\r\n        require(isValidTokenName(tokenName, marketID), \"addToken: name verification failed\");\r\n\r\n        address ideaTokenAddress = address(new IdeaToken(tokenName, \"IDT\"));\r\n        IIdeaToken ideaToken = IIdeaToken(ideaTokenAddress);\r\n        Ownable(ideaTokenAddress).setOwner(_ideaTokenExchange);\r\n\r\n        uint tokenID = ++marketInfo.marketDetails.numTokens;\r\n        TokenInfo memory tokenInfo = TokenInfo({\r\n            exists: true,\r\n            id: tokenID,\r\n            name: tokenName,\r\n            ideaToken: ideaToken\r\n        });\r\n\r\n        marketInfo.tokens[tokenID] = tokenInfo;\r\n        marketInfo.tokenIDs[tokenName] = tokenID;\r\n        _tokenNameUsed[tokenName] = true;\r\n        _tokenIDPairs[address(ideaToken)] = IDPair({\r\n            exists: true,\r\n            marketID: marketID,\r\n            tokenID: tokenID\r\n        });\r\n\r\n        emit NewToken(tokenID, marketID, tokenName, address(ideaToken));\r\n    }\r\n\r\n    /**\r\n     * @dev Checks whether a token name is allowed and not used already\r\n     *\r\n     * @param tokenName The intended token name\r\n     * @param marketID The market on which the token is to be listed\r\n     *\r\n     * @return True if the name is allowed, false otherwise\r\n     */\r\n    function isValidTokenName(string calldata tokenName, uint marketID) public view override returns (bool) {\r\n\r\n        MarketDetails storage marketDetails = _markets[marketID].marketDetails;\r\n\r\n        if(_tokenNameUsed[tokenName] || !marketDetails.nameVerifier.verifyTokenName(tokenName)) {\r\n            return false;\r\n        }\r\n\r\n        return true;\r\n    }\r\n\r\n    /**\r\n     * @dev Returns the market id by the market name\r\n     *\r\n     * @param marketName The market name\r\n     *\r\n     * @return The market id\r\n     */\r\n    function getMarketIDByName(string calldata marketName) external view override returns (uint) {\r\n        return _marketIDs[marketName];\r\n    }\r\n\r\n    /**\r\n     * @dev Returns the market details by the market id\r\n     *\r\n     * @param marketID The market id\r\n     *\r\n     * @return The market details\r\n     */\r\n    function getMarketDetailsByID(uint marketID) external view override returns (MarketDetails memory) {\r\n        return _markets[marketID].marketDetails;\r\n    }\r\n\r\n    /**\r\n     * @dev Returns the market details by the market name\r\n     *\r\n     * @param marketName The market name\r\n     *\r\n     * @return The market details\r\n     */\r\n    function getMarketDetailsByName(string calldata marketName) external view override returns (MarketDetails memory) {\r\n        return _markets[_marketIDs[marketName]].marketDetails;\r\n    }\r\n\r\n    /**\r\n     * @dev Returns the amount of existing markets\r\n     *\r\n     * @return The amount of existing markets\r\n     */\r\n    function getNumMarkets() external view override  returns (uint) {\r\n        return _numMarkets;\r\n    }\r\n\r\n    /**\r\n     * @dev Returns the token id by the token name and market id\r\n     *\r\n     * @param tokenName The token name\r\n     * @param marketID The market id\r\n     *\r\n     * @return The token id\r\n     */\r\n    function getTokenIDByName(string calldata tokenName, uint marketID) external view override returns (uint) {\r\n        return _markets[marketID].tokenIDs[tokenName];\r\n    }\r\n\r\n    /**\r\n     * @dev Returns the token info by the token id and market id\r\n     *\r\n     * @param marketID The market id\r\n     * @param tokenID The token id\r\n     *\r\n     * @return The token info\r\n     */\r\n    function getTokenInfo(uint marketID, uint tokenID) external view override returns (TokenInfo memory) {\r\n        return _markets[marketID].tokens[tokenID];\r\n    }\r\n\r\n    /**\r\n     * @dev Returns the token id pair by the tokens address\r\n     *\r\n     * @param token The tokens address\r\n     *\r\n     * @return The token id pair\r\n     */\r\n    function getTokenIDPair(address token) external view override returns (IDPair memory) {\r\n        return _tokenIDPairs[token];\r\n    }\r\n}",
  "sourcePath": "C:/Users/alexa/Desktop/ideamarket-contracts/contracts/core/IdeaTokenFactory.sol",
  "compiler": {
    "name": "solc",
    "version": "0.6.9+commit.3e3065ac.Emscripten.clang"
  },
  "schemaVersion": "3.2.3",
  "updatedAt": "2020-10-13T10:19:02.526Z",
  "networkType": "ethereum",
  "devdoc": {
    "author": "Alexander Schlindwein",
    "details": "Manages the creation, exchange and interest distribution of IdeaTokens. Sits behind a proxy",
    "methods": {
      "addMarket(string,address,uint256,uint256,uint256,uint256,uint256)": {
        "details": "Adds a new market. May only be called by admin",
        "params": {
          "baseCost": ": The initial cost in Dai per IdeaToken in the first interval",
          "marketName": "The name of the market",
          "nameVerifier": "The address of the name verifier",
          "platformFeeRate": ": The platform fee rate",
          "priceRise": ": The price rise in Dai per IdeaToken per completed interval",
          "tokensPerInterval": ": The amount of IdeaTokens in each interval",
          "tradingFeeRate": ": The trading fee rate"
        }
      },
      "addToken(string,uint256)": {
        "details": "Adds a new token.",
        "params": {
          "marketID": "The ID of the market",
          "tokenName": "The name of the token"
        }
      },
      "getMarketDetailsByID(uint256)": {
        "details": "Returns the market details by the market id",
        "params": {
          "marketID": "The market id"
        },
        "returns": {
          "_0": "The market details"
        }
      },
      "getMarketDetailsByName(string)": {
        "details": "Returns the market details by the market name",
        "params": {
          "marketName": "The market name"
        },
        "returns": {
          "_0": "The market details"
        }
      },
      "getMarketIDByName(string)": {
        "details": "Returns the market id by the market name",
        "params": {
          "marketName": "The market name"
        },
        "returns": {
          "_0": "The market id"
        }
      },
      "getNumMarkets()": {
        "details": "Returns the amount of existing markets",
        "returns": {
          "_0": "The amount of existing markets"
        }
      },
      "getTokenIDByName(string,uint256)": {
        "details": "Returns the token id by the token name and market id",
        "params": {
          "marketID": "The market id",
          "tokenName": "The token name"
        },
        "returns": {
          "_0": "The token id"
        }
      },
      "getTokenIDPair(address)": {
        "details": "Returns the token id pair by the tokens address",
        "params": {
          "token": "The tokens address"
        },
        "returns": {
          "_0": "The token id pair"
        }
      },
      "getTokenInfo(uint256,uint256)": {
        "details": "Returns the token info by the token id and market id",
        "params": {
          "marketID": "The market id",
          "tokenID": "The token id"
        },
        "returns": {
          "_0": "The token info"
        }
      },
      "initialize(address,address)": {
        "details": "Initializes the contract",
        "params": {
          "owner": "The owner of the contract"
        }
      },
      "isValidTokenName(string,uint256)": {
        "details": "Checks whether a token name is allowed and not used already",
        "params": {
          "marketID": "The market on which the token is to be listed",
          "tokenName": "The intended token name"
        },
        "returns": {
          "_0": "True if the name is allowed, false otherwise"
        }
      }
    },
    "stateVariables": {
      "_tokenNameUsed": {
        "details": "We want token names to be unique across markets, so we keep track of them in a seperate map"
      }
    },
    "title": "IdeaTokenFactory"
  },
  "userdoc": {
    "methods": {}
  }
}