{
  "contractName": "IdeaTokenExchange",
  "abi": [
    {
      "anonymous": false,
      "inputs": [
        {
          "indexed": false,
          "internalType": "address",
          "name": "oldOwner",
          "type": "address"
        },
        {
          "indexed": false,
          "internalType": "address",
          "name": "newOwner",
          "type": "address"
        }
      ],
      "name": "OwnershipChanged",
      "type": "event"
    },
    {
      "anonymous": false,
      "inputs": [
        {
          "indexed": false,
          "internalType": "address",
          "name": "ideaToken",
          "type": "address"
        },
        {
          "indexed": false,
          "internalType": "uint256",
          "name": "amount",
          "type": "uint256"
        },
        {
          "indexed": false,
          "internalType": "uint256",
          "name": "rawCost",
          "type": "uint256"
        },
        {
          "indexed": false,
          "internalType": "uint256",
          "name": "finalCost",
          "type": "uint256"
        }
      ],
      "name": "TokensBought",
      "type": "event"
    },
    {
      "anonymous": false,
      "inputs": [
        {
          "indexed": false,
          "internalType": "address",
          "name": "ideaToken",
          "type": "address"
        },
        {
          "indexed": false,
          "internalType": "uint256",
          "name": "amount",
          "type": "uint256"
        },
        {
          "indexed": false,
          "internalType": "uint256",
          "name": "rawPrice",
          "type": "uint256"
        },
        {
          "indexed": false,
          "internalType": "uint256",
          "name": "finalPrice",
          "type": "uint256"
        }
      ],
      "name": "TokensSold",
      "type": "event"
    },
    {
      "inputs": [],
      "name": "getOwner",
      "outputs": [
        {
          "internalType": "address",
          "name": "",
          "type": "address"
        }
      ],
      "stateMutability": "view",
      "type": "function",
      "constant": true
    },
    {
      "inputs": [
        {
          "internalType": "address",
          "name": "newOwner",
          "type": "address"
        }
      ],
      "name": "setOwner",
      "outputs": [],
      "stateMutability": "nonpayable",
      "type": "function"
    },
    {
      "inputs": [
        {
          "internalType": "address",
          "name": "owner",
          "type": "address"
        },
        {
          "internalType": "address",
          "name": "tradingFeeRecipient",
          "type": "address"
        },
        {
          "internalType": "address",
          "name": "interestManager",
          "type": "address"
        },
        {
          "internalType": "address",
          "name": "dai",
          "type": "address"
        }
      ],
      "name": "initialize",
      "outputs": [],
      "stateMutability": "nonpayable",
      "type": "function"
    },
    {
      "inputs": [
        {
          "internalType": "address",
          "name": "ideaToken",
          "type": "address"
        },
        {
          "internalType": "uint256",
          "name": "amount",
          "type": "uint256"
        },
        {
          "internalType": "uint256",
          "name": "minPrice",
          "type": "uint256"
        },
        {
          "internalType": "address",
          "name": "recipient",
          "type": "address"
        }
      ],
      "name": "sellTokens",
      "outputs": [],
      "stateMutability": "nonpayable",
      "type": "function"
    },
    {
      "inputs": [
        {
          "internalType": "address",
          "name": "ideaToken",
          "type": "address"
        },
        {
          "internalType": "uint256",
          "name": "amount",
          "type": "uint256"
        }
      ],
      "name": "getPriceForSellingTokens",
      "outputs": [
        {
          "internalType": "uint256",
          "name": "",
          "type": "uint256"
        }
      ],
      "stateMutability": "view",
      "type": "function",
      "constant": true
    },
    {
      "inputs": [
        {
          "internalType": "address",
          "name": "ideaToken",
          "type": "address"
        },
        {
          "internalType": "uint256",
          "name": "amount",
          "type": "uint256"
        },
        {
          "internalType": "uint256",
          "name": "maxCost",
          "type": "uint256"
        },
        {
          "internalType": "address",
          "name": "recipient",
          "type": "address"
        }
      ],
      "name": "buyTokens",
      "outputs": [],
      "stateMutability": "nonpayable",
      "type": "function"
    },
    {
      "inputs": [
        {
          "internalType": "address",
          "name": "ideaToken",
          "type": "address"
        },
        {
          "internalType": "uint256",
          "name": "amount",
          "type": "uint256"
        }
      ],
      "name": "getCostForBuyingTokens",
      "outputs": [
        {
          "internalType": "uint256",
          "name": "",
          "type": "uint256"
        }
      ],
      "stateMutability": "view",
      "type": "function",
      "constant": true
    },
    {
      "inputs": [
        {
          "internalType": "address",
          "name": "token",
          "type": "address"
        }
      ],
      "name": "withdrawInterest",
      "outputs": [],
      "stateMutability": "nonpayable",
      "type": "function"
    },
    {
      "inputs": [
        {
          "internalType": "address",
          "name": "token",
          "type": "address"
        }
      ],
      "name": "getInterestPayable",
      "outputs": [
        {
          "internalType": "uint256",
          "name": "",
          "type": "uint256"
        }
      ],
      "stateMutability": "view",
      "type": "function",
      "constant": true
    },
    {
      "inputs": [
        {
          "internalType": "address",
          "name": "token",
          "type": "address"
        },
        {
          "internalType": "address",
          "name": "withdrawer",
          "type": "address"
        }
      ],
      "name": "authorizeInterestWithdrawer",
      "outputs": [],
      "stateMutability": "nonpayable",
      "type": "function"
    },
    {
      "inputs": [
        {
          "internalType": "uint256",
          "name": "marketID",
          "type": "uint256"
        }
      ],
      "name": "withdrawPlatformFee",
      "outputs": [],
      "stateMutability": "nonpayable",
      "type": "function"
    },
    {
      "inputs": [
        {
          "internalType": "uint256",
          "name": "marketID",
          "type": "uint256"
        }
      ],
      "name": "getPlatformFeePayable",
      "outputs": [
        {
          "internalType": "uint256",
          "name": "",
          "type": "uint256"
        }
      ],
      "stateMutability": "view",
      "type": "function",
      "constant": true
    },
    {
      "inputs": [
        {
          "internalType": "uint256",
          "name": "marketID",
          "type": "uint256"
        },
        {
          "internalType": "address",
          "name": "withdrawer",
          "type": "address"
        }
      ],
      "name": "authorizePlatformFeeWithdrawer",
      "outputs": [],
      "stateMutability": "nonpayable",
      "type": "function"
    },
    {
      "inputs": [],
      "name": "withdrawTradingFee",
      "outputs": [],
      "stateMutability": "nonpayable",
      "type": "function"
    },
    {
      "inputs": [],
      "name": "getTradingFeePayable",
      "outputs": [
        {
          "internalType": "uint256",
          "name": "",
          "type": "uint256"
        }
      ],
      "stateMutability": "view",
      "type": "function",
      "constant": true
    },
    {
      "inputs": [
        {
          "internalType": "uint256",
          "name": "factory",
          "type": "uint256"
        }
      ],
      "name": "setIdeaTokenFactoryAddress",
      "outputs": [],
      "stateMutability": "nonpayable",
      "type": "function"
    }
  ],
  "bytecode": "0x608060405234801561001057600080fd5b50613cf4806100206000396000f3fe608060405234801561001057600080fd5b50600436106100ff5760003560e01c8063818b975611610097578063aa556e0b11610066578063aa556e0b14610296578063af45f322146102b2578063dde7c190146102ce578063f8c8765e146102ea576100ff565b8063818b975614610234578063893d20e8146102525780639b44e71c14610270578063a7f08f8d1461027a576100ff565b806342de842b116100d357806342de842b146101885780635335411b146101b8578063577aca59146101d457806368b5e64714610204576100ff565b80628db88014610104578063130362b31461013457806313af403514610150578063159fc8f81461016c575b600080fd5b61011e6004803603810190610119919061320e565b610306565b60405161012b9190613afe565b60405180910390f35b61014e60048036038101906101499190613260565b6103ee565b005b61016a60048036038101906101659190613014565b61053d565b005b6101866004803603810190610181919061303d565b6105d9565b005b6101a2600480360381019061019d91906130dc565b610780565b6040516101af9190613afe565b60405180910390f35b6101d260048036038101906101cd919061320e565b61079c565b005b6101ee60048036038101906101e99190613014565b6108cb565b6040516101fb9190613afe565b60405180910390f35b61021e600480360381019061021991906130dc565b6109fd565b60405161022b9190613afe565b60405180910390f35b61023c610a19565b6040516102499190613afe565b60405180910390f35b61025a610aee565b60405161026791906137a6565b60405180910390f35b610278610b18565b005b610294600480360381019061028f9190613118565b610c0d565b005b6102b060048036038101906102ab9190613118565b6113bc565b005b6102cc60048036038101906102c79190613014565b611cc1565b005b6102e860048036038101906102e3919061320e565b611f42565b005b61030460048036038101906102ff9190613079565b61214f565b005b60006103e7670de0b6b3a76400006103d9603b60009054906101000a900473ffffffffffffffffffffffffffffffffffffffff1673ffffffffffffffffffffffffffffffffffffffff1663e6aa216c6040518163ffffffff1660e01b815260040160206040518083038186803b15801561037f57600080fd5b505afa158015610393573d6000803e3d6000fd5b505050506040513d601f19601f820116820180604052508101906103b79190613237565b603660008781526020019081526020016000205461230890919063ffffffff16565b61237890919063ffffffff16565b9050919050565b603360009054906101000a900473ffffffffffffffffffffffffffffffffffffffff1673ffffffffffffffffffffffffffffffffffffffff163373ffffffffffffffffffffffffffffffffffffffff1614806104a857506037600083815260200190815260200160002060009054906101000a900473ffffffffffffffffffffffffffffffffffffffff1673ffffffffffffffffffffffffffffffffffffffff163373ffffffffffffffffffffffffffffffffffffffff16145b6104e7576040517f08c379a00000000000000000000000000000000000000000000000000000000081526004016104de906139be565b60405180910390fd5b806037600084815260200190815260200160002060006101000a81548173ffffffffffffffffffffffffffffffffffffffff021916908373ffffffffffffffffffffffffffffffffffffffff1602179055505050565b3373ffffffffffffffffffffffffffffffffffffffff16603360009054906101000a900473ffffffffffffffffffffffffffffffffffffffff1673ffffffffffffffffffffffffffffffffffffffff16146105cd576040517f08c379a00000000000000000000000000000000000000000000000000000000081526004016105c49061393e565b60405180910390fd5b6105d6816123c2565b50565b603360009054906101000a900473ffffffffffffffffffffffffffffffffffffffff1673ffffffffffffffffffffffffffffffffffffffff163373ffffffffffffffffffffffffffffffffffffffff1614806106bf5750603960008373ffffffffffffffffffffffffffffffffffffffff1673ffffffffffffffffffffffffffffffffffffffff16815260200190815260200160002060009054906101000a900473ffffffffffffffffffffffffffffffffffffffff1673ffffffffffffffffffffffffffffffffffffffff163373ffffffffffffffffffffffffffffffffffffffff16145b6106fe576040517f08c379a00000000000000000000000000000000000000000000000000000000081526004016106f5906139fe565b60405180910390fd5b80603960008473ffffffffffffffffffffffffffffffffffffffff1673ffffffffffffffffffffffffffffffffffffffff16815260200190815260200160002060006101000a81548173ffffffffffffffffffffffffffffffffffffffff021916908373ffffffffffffffffffffffffffffffffffffffff1602179055505050565b60008061078d8484612467565b50505090508091505092915050565b3373ffffffffffffffffffffffffffffffffffffffff16603360009054906101000a900473ffffffffffffffffffffffffffffffffffffffff1673ffffffffffffffffffffffffffffffffffffffff161461082c576040517f08c379a00000000000000000000000000000000000000000000000000000000081526004016108239061393e565b60405180910390fd5b600073ffffffffffffffffffffffffffffffffffffffff16603a60009054906101000a900473ffffffffffffffffffffffffffffffffffffffff1673ffffffffffffffffffffffffffffffffffffffff161461088757600080fd5b80603a60006101000a81548173ffffffffffffffffffffffffffffffffffffffff021916908373ffffffffffffffffffffffffffffffffffffffff16021790555050565b600080603860008473ffffffffffffffffffffffffffffffffffffffff1673ffffffffffffffffffffffffffffffffffffffff16815260200190815260200160002090506109f581600001546109e7670de0b6b3a76400006109d9603b60009054906101000a900473ffffffffffffffffffffffffffffffffffffffff1673ffffffffffffffffffffffffffffffffffffffff1663e6aa216c6040518163ffffffff1660e01b815260040160206040518083038186803b15801561098e57600080fd5b505afa1580156109a2573d6000803e3d6000fd5b505050506040513d601f19601f820116820180604052508101906109c69190613237565b866001015461230890919063ffffffff16565b61237890919063ffffffff16565b61271e90919063ffffffff16565b915050919050565b600080610a0a8484612768565b50505090508091505092915050565b6000610ae9670de0b6b3a7640000610adb603b60009054906101000a900473ffffffffffffffffffffffffffffffffffffffff1673ffffffffffffffffffffffffffffffffffffffff1663e6aa216c6040518163ffffffff1660e01b815260040160206040518083038186803b158015610a9257600080fd5b505afa158015610aa6573d6000803e3d6000fd5b505050506040513d601f19601f82011682018060405250810190610aca9190613237565b60345461230890919063ffffffff16565b61237890919063ffffffff16565b905090565b6000603360009054906101000a900473ffffffffffffffffffffffffffffffffffffffff16905090565b60006034541415610b2857610c0b565b600060345490506000603481905550603b60009054906101000a900473ffffffffffffffffffffffffffffffffffffffff1673ffffffffffffffffffffffffffffffffffffffff1663f3e08e1f603560009054906101000a900473ffffffffffffffffffffffffffffffffffffffff16836040518363ffffffff1660e01b8152600401610bb692919061388e565b602060405180830381600087803b158015610bd057600080fd5b505af1158015610be4573d6000803e3d6000fd5b505050506040513d601f19601f82011682018060405250810190610c089190613237565b50505b565b610c15612d5f565b603a60009054906101000a900473ffffffffffffffffffffffffffffffffffffffff1673ffffffffffffffffffffffffffffffffffffffff16633911283a866040518263ffffffff1660e01b8152600401610c7091906137a6565b60606040518083038186803b158015610c8857600080fd5b505afa158015610c9c573d6000803e3d6000fd5b505050506040513d601f19601f82011682018060405250810190610cc091906131a4565b90508060000151610d06576040517f08c379a0000000000000000000000000000000000000000000000000000000008152600401610cfd90613ade565b60405180910390fd5b610d0e612d82565b603a60009054906101000a900473ffffffffffffffffffffffffffffffffffffffff1673ffffffffffffffffffffffffffffffffffffffff1663c7d5fe5583602001516040518263ffffffff1660e01b8152600401610d6d9190613afe565b60006040518083038186803b158015610d8557600080fd5b505afa158015610d99573d6000803e3d6000fd5b505050506040513d6000823e3d601f19601f82011682018060405250810190610dc291906131cd565b9050600080600080610dd48a8a612467565b935093509350935087841115610e1f576040517f08c379a0000000000000000000000000000000000000000000000000000000008152600401610e169061395e565b60405180910390fd5b83603c60009054906101000a900473ffffffffffffffffffffffffffffffffffffffff1673ffffffffffffffffffffffffffffffffffffffff1663dd62ed3e33306040518363ffffffff1660e01b8152600401610e7d9291906137dc565b60206040518083038186803b158015610e9557600080fd5b505afa158015610ea9573d6000803e3d6000fd5b505050506040513d601f19601f82011682018060405250810190610ecd9190613237565b1015610f0e576040517f08c379a0000000000000000000000000000000000000000000000000000000008152600401610f0590613a5e565b60405180910390fd5b603c60009054906101000a900473ffffffffffffffffffffffffffffffffffffffff1673ffffffffffffffffffffffffffffffffffffffff166323b872dd33603b60009054906101000a900473ffffffffffffffffffffffffffffffffffffffff16876040518463ffffffff1660e01b8152600401610f8f93929190613805565b602060405180830381600087803b158015610fa957600080fd5b505af1158015610fbd573d6000803e3d6000fd5b505050506040513d601f19601f82011682018060405250810190610fe1919061317b565b611020576040517f08c379a000000000000000000000000000000000000000000000000000000000815260040161101790613a9e565b60405180910390fd5b6000603860008c73ffffffffffffffffffffffffffffffffffffffff1673ffffffffffffffffffffffffffffffffffffffff1681526020019081526020016000209050611126603b60009054906101000a900473ffffffffffffffffffffffffffffffffffffffff1673ffffffffffffffffffffffffffffffffffffffff16632afcf480866040518263ffffffff1660e01b81526004016110c19190613afe565b602060405180830381600087803b1580156110db57600080fd5b505af11580156110ef573d6000803e3d6000fd5b505050506040513d601f19601f820116820180604052508101906111139190613237565b8260010154612a1f90919063ffffffff16565b81600101819055506111ef603b60009054906101000a900473ffffffffffffffffffffffffffffffffffffffff1673ffffffffffffffffffffffffffffffffffffffff16632afcf480856040518263ffffffff1660e01b815260040161118c9190613afe565b602060405180830381600087803b1580156111a657600080fd5b505af11580156111ba573d6000803e3d6000fd5b505050506040513d601f19601f820116820180604052508101906111de9190613237565b603454612a1f90919063ffffffff16565b6034819055506112cb603b60009054906101000a900473ffffffffffffffffffffffffffffffffffffffff1673ffffffffffffffffffffffffffffffffffffffff16632afcf480846040518263ffffffff1660e01b81526004016112539190613afe565b602060405180830381600087803b15801561126d57600080fd5b505af1158015611281573d6000803e3d6000fd5b505050506040513d601f19601f820116820180604052508101906112a59190613237565b603660008960200151815260200190815260200160002054612a1f90919063ffffffff16565b6036600088602001518152602001908152602001600020819055506112fd848260000154612a1f90919063ffffffff16565b81600001819055507f22f6af6e13430e3e7b6418d01e6a48c1fbce5e8cb1698901fc95134b4b1c58ad8b8b868860405161133a94939291906138b7565b60405180910390a18a73ffffffffffffffffffffffffffffffffffffffff166340c10f19898c6040518363ffffffff1660e01b815260040161137d92919061388e565b600060405180830381600087803b15801561139757600080fd5b505af11580156113ab573d6000803e3d6000fd5b505050505050505050505050505050565b6113c4612d5f565b603a60009054906101000a900473ffffffffffffffffffffffffffffffffffffffff1673ffffffffffffffffffffffffffffffffffffffff16633911283a866040518263ffffffff1660e01b815260040161141f91906137a6565b60606040518083038186803b15801561143757600080fd5b505afa15801561144b573d6000803e3d6000fd5b505050506040513d601f19601f8201168201806040525081019061146f91906131a4565b905080600001516114b5576040517f08c379a00000000000000000000000000000000000000000000000000000000081526004016114ac9061399e565b60405180910390fd5b6114bd612d82565b603a60009054906101000a900473ffffffffffffffffffffffffffffffffffffffff1673ffffffffffffffffffffffffffffffffffffffff1663c7d5fe5583602001516040518263ffffffff1660e01b815260040161151c9190613afe565b60006040518083038186803b15801561153457600080fd5b505afa158015611548573d6000803e3d6000fd5b505050506040513d6000823e3d601f19601f8201168201806040525081019061157191906131cd565b90506000806000806115838a8a612768565b9350935093509350878410156115ce576040517f08c379a00000000000000000000000000000000000000000000000000000000081526004016115c590613abe565b60405180910390fd5b888a73ffffffffffffffffffffffffffffffffffffffff166370a08231336040518263ffffffff1660e01b815260040161160891906137c1565b60206040518083038186803b15801561162057600080fd5b505afa158015611634573d6000803e3d6000fd5b505050506040513d601f19601f820116820180604052508101906116589190613237565b1015611699576040517f08c379a000000000000000000000000000000000000000000000000000000000815260040161169090613a7e565b60405180910390fd5b8973ffffffffffffffffffffffffffffffffffffffff16639dc29fac338b6040518363ffffffff1660e01b81526004016116d492919061383c565b600060405180830381600087803b1580156116ee57600080fd5b505af1158015611702573d6000803e3d6000fd5b505050506000603b60009054906101000a900473ffffffffffffffffffffffffffffffffffffffff1673ffffffffffffffffffffffffffffffffffffffff16631e9a695030876040518363ffffffff1660e01b815260040161176592919061388e565b602060405180830381600087803b15801561177f57600080fd5b505af1158015611793573d6000803e3d6000fd5b505050506040513d601f19601f820116820180604052508101906117b79190613237565b90506000603b60009054906101000a900473ffffffffffffffffffffffffffffffffffffffff1673ffffffffffffffffffffffffffffffffffffffff16631e9a6950603b60009054906101000a900473ffffffffffffffffffffffffffffffffffffffff16866040518363ffffffff1660e01b815260040161183a92919061388e565b602060405180830381600087803b15801561185457600080fd5b505af1158015611868573d6000803e3d6000fd5b505050506040513d601f19601f8201168201806040525081019061188c9190613237565b9050603b60009054906101000a900473ffffffffffffffffffffffffffffffffffffffff1673ffffffffffffffffffffffffffffffffffffffff16632afcf480856040518263ffffffff1660e01b81526004016118e99190613afe565b602060405180830381600087803b15801561190357600080fd5b505af1158015611917573d6000803e3d6000fd5b505050506040513d601f19601f8201168201806040525081019061193b9190613237565b506000603b60009054906101000a900473ffffffffffffffffffffffffffffffffffffffff1673ffffffffffffffffffffffffffffffffffffffff16631e9a6950603b60009054906101000a900473ffffffffffffffffffffffffffffffffffffffff16866040518363ffffffff1660e01b81526004016119bd92919061388e565b602060405180830381600087803b1580156119d757600080fd5b505af11580156119eb573d6000803e3d6000fd5b505050506040513d601f19601f82011682018060405250810190611a0f9190613237565b9050603b60009054906101000a900473ffffffffffffffffffffffffffffffffffffffff1673ffffffffffffffffffffffffffffffffffffffff16632afcf480856040518263ffffffff1660e01b8152600401611a6c9190613afe565b602060405180830381600087803b158015611a8657600080fd5b505af1158015611a9a573d6000803e3d6000fd5b505050506040513d601f19601f82011682018060405250810190611abe9190613237565b506000603860008f73ffffffffffffffffffffffffffffffffffffffff1673ffffffffffffffffffffffffffffffffffffffff1681526020019081526020016000209050611b3d611b2a83611b1c8688612a1f90919063ffffffff16565b612a1f90919063ffffffff16565b826001015461271e90919063ffffffff16565b8160010181905550611b5a83603454612a1f90919063ffffffff16565b603481905550611b8a82603660008c60200151815260200190815260200160002054612a1f90919063ffffffff16565b603660008b60200151815260200190815260200160002081905550611bbc87826000015461271e90919063ffffffff16565b81600001819055507f6db63bebf1e6540277744df32846ebdb98385b1a73f2d5de49b28348add63f508e8e898b604051611bf994939291906138b7565b60405180910390a1603c60009054906101000a900473ffffffffffffffffffffffffffffffffffffffff1673ffffffffffffffffffffffffffffffffffffffff1663a9059cbb8c8a6040518363ffffffff1660e01b8152600401611c5e92919061388e565b602060405180830381600087803b158015611c7857600080fd5b505af1158015611c8c573d6000803e3d6000fd5b505050506040513d601f19601f82011682018060405250810190611cb0919061317b565b505050505050505050505050505050565b3373ffffffffffffffffffffffffffffffffffffffff16603960008373ffffffffffffffffffffffffffffffffffffffff1673ffffffffffffffffffffffffffffffffffffffff16815260200190815260200160002060009054906101000a900473ffffffffffffffffffffffffffffffffffffffff1673ffffffffffffffffffffffffffffffffffffffff1614611d8e576040517f08c379a0000000000000000000000000000000000000000000000000000000008152600401611d859061391e565b60405180910390fd5b603b60009054906101000a900473ffffffffffffffffffffffffffffffffffffffff1673ffffffffffffffffffffffffffffffffffffffff1663a6afed956040518163ffffffff1660e01b8152600401600060405180830381600087803b158015611df857600080fd5b505af1158015611e0c573d6000803e3d6000fd5b505050506000611e1b826108cb565b90506000811415611e2c5750611f3f565b6000603860008473ffffffffffffffffffffffffffffffffffffffff1673ffffffffffffffffffffffffffffffffffffffff1681526020019081526020016000209050611f34603b60009054906101000a900473ffffffffffffffffffffffffffffffffffffffff1673ffffffffffffffffffffffffffffffffffffffff16631e9a695033856040518363ffffffff1660e01b8152600401611ecf92919061383c565b602060405180830381600087803b158015611ee957600080fd5b505af1158015611efd573d6000803e3d6000fd5b505050506040513d601f19601f82011682018060405250810190611f219190613237565b826001015461271e90919063ffffffff16565b816001018190555050505b50565b3373ffffffffffffffffffffffffffffffffffffffff166037600083815260200190815260200160002060009054906101000a900473ffffffffffffffffffffffffffffffffffffffff1673ffffffffffffffffffffffffffffffffffffffff1614611fe3576040517f08c379a0000000000000000000000000000000000000000000000000000000008152600401611fda90613a3e565b60405180910390fd5b603b60009054906101000a900473ffffffffffffffffffffffffffffffffffffffff1673ffffffffffffffffffffffffffffffffffffffff1663a6afed956040518163ffffffff1660e01b8152600401600060405180830381600087803b15801561204d57600080fd5b505af1158015612061573d6000803e3d6000fd5b50505050600061207082610306565b90506000811415612081575061214c565b60006036600084815260200190815260200160002081905550603b60009054906101000a900473ffffffffffffffffffffffffffffffffffffffff1673ffffffffffffffffffffffffffffffffffffffff16631e9a695033836040518363ffffffff1660e01b81526004016120f792919061383c565b602060405180830381600087803b15801561211157600080fd5b505af1158015612125573d6000803e3d6000fd5b505050506040513d601f19601f820116820180604052508101906121499190613237565b50505b50565b600060019054906101000a900460ff168061216e575061216d612a74565b5b8061218557506000809054906101000a900460ff16155b6121c4576040517f08c379a00000000000000000000000000000000000000000000000000000000081526004016121bb90613a1e565b60405180910390fd5b60008060019054906101000a900460ff161590508015612214576001600060016101000a81548160ff02191690831515021790555060016000806101000a81548160ff0219169083151502179055505b61221d856123c2565b83603560006101000a81548173ffffffffffffffffffffffffffffffffffffffff021916908373ffffffffffffffffffffffffffffffffffffffff16021790555082603b60006101000a81548173ffffffffffffffffffffffffffffffffffffffff021916908373ffffffffffffffffffffffffffffffffffffffff16021790555081603c60006101000a81548173ffffffffffffffffffffffffffffffffffffffff021916908373ffffffffffffffffffffffffffffffffffffffff16021790555080156123015760008060016101000a81548160ff0219169083151502179055505b5050505050565b60008083141561231b5760009050612372565b600082840290508284828161232c57fe5b041461236d576040517f08c379a0000000000000000000000000000000000000000000000000000000008152600401612364906139de565b60405180910390fd5b809150505b92915050565b60006123ba83836040518060400160405280601a81526020017f536166654d6174683a206469766973696f6e206279207a65726f000000000000815250612a8b565b905092915050565b6000603360009054906101000a900473ffffffffffffffffffffffffffffffffffffffff16905081603360006101000a81548173ffffffffffffffffffffffffffffffffffffffff021916908373ffffffffffffffffffffffffffffffffffffffff1602179055507f0384899bd253d83b23daa4d29aaa2efe0563d1132b43101e9ad667235aeb951b818360405161245b929190613865565b60405180910390a15050565b600080600080612475612d5f565b603a60009054906101000a900473ffffffffffffffffffffffffffffffffffffffff1673ffffffffffffffffffffffffffffffffffffffff16633911283a886040518263ffffffff1660e01b81526004016124d091906137a6565b60606040518083038186803b1580156124e857600080fd5b505afa1580156124fc573d6000803e3d6000fd5b505050506040513d601f19601f8201168201806040525081019061252091906131a4565b905061252a612d82565b603a60009054906101000a900473ffffffffffffffffffffffffffffffffffffffff1673ffffffffffffffffffffffffffffffffffffffff1663c7d5fe5583602001516040518263ffffffff1660e01b81526004016125899190613afe565b60006040518083038186803b1580156125a157600080fd5b505afa1580156125b5573d6000803e3d6000fd5b505050506040513d6000823e3d601f19601f820116820180604052508101906125de91906131cd565b905060006126788260a001518360c001518460e001518c73ffffffffffffffffffffffffffffffffffffffff166318160ddd6040518163ffffffff1660e01b815260040160206040518083038186803b15801561263a57600080fd5b505afa15801561264e573d6000803e3d6000fd5b505050506040513d601f19601f820116820180604052508101906126729190613237565b8c612aec565b905060006126a861271061269a8561010001518561230890919063ffffffff16565b61237890919063ffffffff16565b905060006126d86127106126ca8661012001518661230890919063ffffffff16565b61237890919063ffffffff16565b90506000612701826126f38587612a1f90919063ffffffff16565b612a1f90919063ffffffff16565b905080848484995099509950995050505050505092959194509250565b600061276083836040518060400160405280601e81526020017f536166654d6174683a207375627472616374696f6e206f766572666c6f770000815250612b45565b905092915050565b600080600080612776612d5f565b603a60009054906101000a900473ffffffffffffffffffffffffffffffffffffffff1673ffffffffffffffffffffffffffffffffffffffff16633911283a886040518263ffffffff1660e01b81526004016127d191906137a6565b60606040518083038186803b1580156127e957600080fd5b505afa1580156127fd573d6000803e3d6000fd5b505050506040513d601f19601f8201168201806040525081019061282191906131a4565b905061282b612d82565b603a60009054906101000a900473ffffffffffffffffffffffffffffffffffffffff1673ffffffffffffffffffffffffffffffffffffffff1663c7d5fe5583602001516040518263ffffffff1660e01b815260040161288a9190613afe565b60006040518083038186803b1580156128a257600080fd5b505afa1580156128b6573d6000803e3d6000fd5b505050506040513d6000823e3d601f19601f820116820180604052508101906128df91906131cd565b905060006129798260a001518360c001518460e001518c73ffffffffffffffffffffffffffffffffffffffff166318160ddd6040518163ffffffff1660e01b815260040160206040518083038186803b15801561293b57600080fd5b505afa15801561294f573d6000803e3d6000fd5b505050506040513d601f19601f820116820180604052508101906129739190613237565b8c612ba0565b905060006129a961271061299b8561010001518561230890919063ffffffff16565b61237890919063ffffffff16565b905060006129d96127106129cb8661012001518661230890919063ffffffff16565b61237890919063ffffffff16565b90506000612a02826129f4858761271e90919063ffffffff16565b61271e90919063ffffffff16565b905080848484995099509950995050505050505092959194509250565b600080828401905083811015612a6a576040517f08c379a0000000000000000000000000000000000000000000000000000000008152600401612a619061397e565b60405180910390fd5b8091505092915050565b6000803090506000813b9050600081149250505090565b60008083118290612ad2576040517f08c379a0000000000000000000000000000000000000000000000000000000008152600401612ac991906138fc565b60405180910390fd5b506000838581612ade57fe5b049050809150509392505050565b600080612afb87878787612bf9565b90506000612b1d888888612b18888a612a1f90919063ffffffff16565b612bf9565b90506000612b34838361271e90919063ffffffff16565b905080935050505095945050505050565b6000838311158290612b8d576040517f08c379a0000000000000000000000000000000000000000000000000000000008152600401612b8491906138fc565b60405180910390fd5b5060008385039050809150509392505050565b600080612baf87878787612bf9565b90506000612bd1888888612bcc888a61271e90919063ffffffff16565b612bf9565b90506000612be8828461271e90919063ffffffff16565b905080935050505095945050505050565b600080612c0f848461237890919063ffffffff16565b9050612ca3670de0b6b3a7640000612c95612c7b612c48612c398a8761230890919063ffffffff16565b8b612a1f90919063ffffffff16565b612c6d612c5e8a8861230890919063ffffffff16565b8961271e90919063ffffffff16565b61230890919063ffffffff16565b612c878a8a8a88612cae565b612a1f90919063ffffffff16565b61237890919063ffffffff16565b915050949350505050565b6000612d55612d10612cef6002612ce1612cd2600188612a1f90919063ffffffff16565b8761230890919063ffffffff16565b61237890919063ffffffff16565b612d02868861230890919063ffffffff16565b61230890919063ffffffff16565b612d47612d26878961271e90919063ffffffff16565b612d39878761230890919063ffffffff16565b61230890919063ffffffff16565b612a1f90919063ffffffff16565b9050949350505050565b604051806060016040528060001515815260200160008152602001600081525090565b6040518061014001604052806000151581526020016000815260200160608152602001600073ffffffffffffffffffffffffffffffffffffffff1681526020016000815260200160008152602001600081526020016000815260200160008152602001600081525090565b600081359050612dfc81613c62565b92915050565b600081519050612e1181613c79565b92915050565b600081519050612e2681613c90565b92915050565b600082601f830112612e3d57600080fd5b8151612e50612e4b82613b46565b613b19565b91508082526020830160208301858383011115612e6c57600080fd5b612e77838284613c1e565b50505092915050565b600060608284031215612e9257600080fd5b612e9c6060613b19565b90506000612eac84828501612e02565b6000830152506020612ec084828501612fff565b6020830152506040612ed484828501612fff565b60408301525092915050565b60006101408284031215612ef357600080fd5b612efe610140613b19565b90506000612f0e84828501612e02565b6000830152506020612f2284828501612fff565b602083015250604082015167ffffffffffffffff811115612f4257600080fd5b612f4e84828501612e2c565b6040830152506060612f6284828501612e17565b6060830152506080612f7684828501612fff565b60808301525060a0612f8a84828501612fff565b60a08301525060c0612f9e84828501612fff565b60c08301525060e0612fb284828501612fff565b60e083015250610100612fc784828501612fff565b61010083015250610120612fdd84828501612fff565b6101208301525092915050565b600081359050612ff981613ca7565b92915050565b60008151905061300e81613ca7565b92915050565b60006020828403121561302657600080fd5b600061303484828501612ded565b91505092915050565b6000806040838503121561305057600080fd5b600061305e85828601612ded565b925050602061306f85828601612ded565b9150509250929050565b6000806000806080858703121561308f57600080fd5b600061309d87828801612ded565b94505060206130ae87828801612ded565b93505060406130bf87828801612ded565b92505060606130d087828801612ded565b91505092959194509250565b600080604083850312156130ef57600080fd5b60006130fd85828601612ded565b925050602061310e85828601612fea565b9150509250929050565b6000806000806080858703121561312e57600080fd5b600061313c87828801612ded565b945050602061314d87828801612fea565b935050604061315e87828801612fea565b925050606061316f87828801612ded565b91505092959194509250565b60006020828403121561318d57600080fd5b600061319b84828501612e02565b91505092915050565b6000606082840312156131b657600080fd5b60006131c484828501612e80565b91505092915050565b6000602082840312156131df57600080fd5b600082015167ffffffffffffffff8111156131f957600080fd5b61320584828501612ee0565b91505092915050565b60006020828403121561322057600080fd5b600061322e84828501612fea565b91505092915050565b60006020828403121561324957600080fd5b600061325784828501612fff565b91505092915050565b6000806040838503121561327357600080fd5b600061328185828601612fea565b925050602061329285828601612ded565b9150509250929050565b6132a581613be8565b82525050565b6132b481613b8e565b82525050565b60006132c582613b72565b6132cf8185613b7d565b93506132df818560208601613c1e565b6132e881613c51565b840191505092915050565b6000613300602083613b7d565b91507f7769746864726177496e7465726573743a206e6f7420617574686f72697a65646000830152602082019050919050565b6000613340601283613b7d565b91507f4f776e61626c653a206f6e6c794f776e657200000000000000000000000000006000830152602082019050919050565b6000613380601f83613b7d565b91507f627579546f6b656e733a20636f73742065786365656473206d6178436f7374006000830152602082019050919050565b60006133c0601b83613b7d565b91507f536166654d6174683a206164646974696f6e206f766572666c6f7700000000006000830152602082019050919050565b6000613400602083613b7d565b91507f73656c6c546f6b656e733a20746f6b656e20646f6573206e6f742065786973746000830152602082019050919050565b6000613440602e83613b7d565b91507f617574686f72697a65506c6174666f726d466565576974686472617765723a2060008301527f6e6f7420617574686f72697a65640000000000000000000000000000000000006020830152604082019050919050565b60006134a6602183613b7d565b91507f536166654d6174683a206d756c7469706c69636174696f6e206f766572666c6f60008301527f77000000000000000000000000000000000000000000000000000000000000006020830152604082019050919050565b600061350c602b83613b7d565b91507f617574686f72697a65496e746572657374576974686472617765723a206e6f7460008301527f20617574686f72697a65640000000000000000000000000000000000000000006020830152604082019050919050565b6000613572602e83613b7d565b91507f436f6e747261637420696e7374616e63652068617320616c726561647920626560008301527f656e20696e697469616c697a65640000000000000000000000000000000000006020830152604082019050919050565b60006135d8602383613b7d565b91507f7769746864726177506c6174666f726d4665653a206e6f7420617574686f726960008301527f7a656400000000000000000000000000000000000000000000000000000000006020830152604082019050919050565b600061363e601f83613b7d565b91507f627579546f6b656e733a206e6f7420656e6f75676820616c6c6f77616e6365006000830152602082019050919050565b600061367e601d83613b7d565b91507f73656c6c546f6b656e733a206e6f7420656e6f75676820746f6b656e730000006000830152602082019050919050565b60006136be601e83613b7d565b91507f627579546f6b656e733a20646169207472616e73666572206661696c656400006000830152602082019050919050565b60006136fe602483613b7d565b91507f73656c6c546f6b656e733a207072696365207375626365656473206d696e207060008301527f72696365000000000000000000000000000000000000000000000000000000006020830152604082019050919050565b6000613764601f83613b7d565b91507f627579546f6b656e733a20746f6b656e20646f6573206e6f74206578697374006000830152602082019050919050565b6137a081613bde565b82525050565b60006020820190506137bb60008301846132ab565b92915050565b60006020820190506137d6600083018461329c565b92915050565b60006040820190506137f1600083018561329c565b6137fe60208301846132ab565b9392505050565b600060608201905061381a600083018661329c565b61382760208301856132ab565b6138346040830184613797565b949350505050565b6000604082019050613851600083018561329c565b61385e6020830184613797565b9392505050565b600060408201905061387a60008301856132ab565b61388760208301846132ab565b9392505050565b60006040820190506138a360008301856132ab565b6138b06020830184613797565b9392505050565b60006080820190506138cc60008301876132ab565b6138d96020830186613797565b6138e66040830185613797565b6138f36060830184613797565b95945050505050565b6000602082019050818103600083015261391681846132ba565b905092915050565b60006020820190508181036000830152613937816132f3565b9050919050565b6000602082019050818103600083015261395781613333565b9050919050565b6000602082019050818103600083015261397781613373565b9050919050565b60006020820190508181036000830152613997816133b3565b9050919050565b600060208201905081810360008301526139b7816133f3565b9050919050565b600060208201905081810360008301526139d781613433565b9050919050565b600060208201905081810360008301526139f781613499565b9050919050565b60006020820190508181036000830152613a17816134ff565b9050919050565b60006020820190508181036000830152613a3781613565565b9050919050565b60006020820190508181036000830152613a57816135cb565b9050919050565b60006020820190508181036000830152613a7781613631565b9050919050565b60006020820190508181036000830152613a9781613671565b9050919050565b60006020820190508181036000830152613ab7816136b1565b9050919050565b60006020820190508181036000830152613ad7816136f1565b9050919050565b60006020820190508181036000830152613af781613757565b9050919050565b6000602082019050613b136000830184613797565b92915050565b6000604051905081810181811067ffffffffffffffff82111715613b3c57600080fd5b8060405250919050565b600067ffffffffffffffff821115613b5d57600080fd5b601f19601f8301169050602081019050919050565b600081519050919050565b600082825260208201905092915050565b6000613b9982613bbe565b9050919050565b60008115159050919050565b6000613bb782613b8e565b9050919050565b600073ffffffffffffffffffffffffffffffffffffffff82169050919050565b6000819050919050565b6000613bf382613bfa565b9050919050565b6000613c0582613c0c565b9050919050565b6000613c1782613bbe565b9050919050565b60005b83811015613c3c578082015181840152602081019050613c21565b83811115613c4b576000848401525b50505050565b6000601f19601f8301169050919050565b613c6b81613b8e565b8114613c7657600080fd5b50565b613c8281613ba0565b8114613c8d57600080fd5b50565b613c9981613bac565b8114613ca457600080fd5b50565b613cb081613bde565b8114613cbb57600080fd5b5056fea264697066735822122043fea4348353d88d75e3a8cd2a02c2aac3c59875e579c0ff12494132d7da9ac664736f6c63430006090033",
  "immutableReferences": {},
  "source": "// SPDX-License-Identifier: MIT\r\npragma solidity ^0.6.9;\r\npragma experimental ABIEncoderV2;\r\n\r\nimport \"../util/Ownable.sol\";\r\nimport \"./IIdeaTokenExchange.sol\";\r\nimport \"./IIdeaToken.sol\";\r\nimport \"./IIdeaTokenFactory.sol\";\r\nimport \"./IInterestManager.sol\";\r\nimport \"../util/Initializable.sol\";\r\nimport \"@openzeppelin/contracts/token/ERC20/IERC20.sol\";\r\nimport \"@openzeppelin/contracts/math/SafeMath.sol\";\r\n\r\n/**\r\n * @title IdeaTokenExchange\r\n * @author Alexander Schlindwein\r\n *\r\n * @dev Exchanges Dai <-> IdeaTokens using a bonding curve. Sits behind a proxy\r\n */\r\ncontract IdeaTokenExchange is IIdeaTokenExchange, Initializable, Ownable {\r\n    using SafeMath for uint256;\r\n\r\n    struct TokenExchangeInfo {\r\n        uint daiInToken; // The amount of Dai collected by trading\r\n        uint invested; // The amount of \"investment tokens\", e.g. cDai\r\n    }\r\n\r\n    uint constant private FEE_SCALE = 10000;\r\n\r\n    uint _tradingFeeInvested; // The amount of \"investment tokens\" for the collected trading fee, e.g. cDai\r\n    address _tradingFeeRecipient;\r\n\r\n    mapping(uint => uint) _platformFeeInvested;\r\n    mapping(uint => address) _authorizedPlatformFeeWithdrawers;\r\n\r\n    mapping(address => TokenExchangeInfo) _tokensExchangeInfo;\r\n    mapping(address => address) _authorizedInterestWithdrawers;\r\n\r\n    IIdeaTokenFactory _ideaTokenFactory;\r\n    IInterestManager _interestManager;\r\n    IERC20 _dai;\r\n\r\n    event TokensBought(address ideaToken, uint amount, uint rawCost, uint finalCost);\r\n    event TokensSold(address ideaToken, uint amount, uint rawPrice, uint finalPrice);\r\n\r\n    /**\r\n     * @dev Initializes the contract\r\n     *\r\n     * @param owner The owner of the contract\r\n     * @param tradingFeeRecipient The address of the recipient of the trading fee\r\n     * @param interestManager The address of the InterestManager\r\n     * @param dai The address of Dai\r\n     */\r\n    function initialize(address owner,\r\n                        address tradingFeeRecipient,\r\n                        address interestManager,\r\n                        address dai) external initializer {\r\n        setOwnerInternal(owner);\r\n        _tradingFeeRecipient = tradingFeeRecipient;\r\n        _interestManager = IInterestManager(interestManager);\r\n        _dai = IERC20(dai);\r\n    }\r\n\r\n    /**\r\n     * @dev Burns IdeaTokens in exchange for Dai\r\n     *\r\n     * @param ideaToken The IdeaToken to sell\r\n     * @param amount The amount of IdeaTokens to sell\r\n     * @param minPrice The minimum allowed price in Dai for selling `amount` IdeaTokens\r\n     * @param recipient The recipient of the redeemed Dai\r\n     */\r\n    function sellTokens(address ideaToken, uint amount, uint minPrice, address recipient) external override {\r\n        IIdeaTokenFactory.IDPair memory idPair = _ideaTokenFactory.getTokenIDPair(ideaToken);\r\n        require(idPair.exists, \"sellTokens: token does not exist\");\r\n        IIdeaTokenFactory.MarketDetails memory marketDetails = _ideaTokenFactory.getMarketDetailsByID(idPair.marketID);\r\n\r\n        (uint finalPrice, uint rawPrice, uint tradingFee, uint platformFee) = getPricesForSellingTokens(ideaToken, amount);\r\n\r\n        require(finalPrice >= minPrice, \"sellTokens: price subceeds min price\");\r\n        require(IIdeaToken(ideaToken).balanceOf(msg.sender) >= amount, \"sellTokens: not enough tokens\");\r\n        \r\n        IIdeaToken(ideaToken).burn(msg.sender, amount);\r\n\r\n        // TODO: Make this more efficient\r\n        uint finalRedeemed = _interestManager.redeem(address(this), finalPrice);\r\n        uint tradingFeeRedeemed = _interestManager.redeem(address(_interestManager), tradingFee);\r\n        _interestManager.invest(tradingFee);\r\n        uint platformFeeRedeemed = _interestManager.redeem(address(_interestManager), platformFee);\r\n        _interestManager.invest(platformFee);\r\n\r\n        TokenExchangeInfo storage exchangeInfo = _tokensExchangeInfo[ideaToken];\r\n        exchangeInfo.invested = exchangeInfo.invested.sub(finalRedeemed.add(tradingFeeRedeemed).add(platformFeeRedeemed));\r\n        _tradingFeeInvested = _tradingFeeInvested.add(tradingFeeRedeemed);\r\n        _platformFeeInvested[marketDetails.id] = _platformFeeInvested[marketDetails.id].add(platformFeeRedeemed);\r\n        exchangeInfo.daiInToken = exchangeInfo.daiInToken.sub(rawPrice);\r\n    \r\n        emit TokensSold(ideaToken, amount, rawPrice, finalPrice);\r\n        _dai.transfer(recipient, finalPrice);\r\n    }\r\n\r\n    /**\r\n     * @dev Returns the price for selling IdeaTokens\r\n     *\r\n     * @param ideaToken The IdeaToken to sell\r\n     * @param amount The amount of IdeaTokens to sell\r\n     *\r\n     * @return The price in Dai for selling `amount` IdeaTokens\r\n     */\r\n    function getPriceForSellingTokens(address ideaToken, uint amount) external view override returns (uint) {\r\n        (uint finalCost, , , ) = getPricesForSellingTokens(ideaToken, amount);\r\n        return finalCost;\r\n    }\r\n\r\n    /**\r\n     * @dev Calculates each price related to selling tokens\r\n     *\r\n     * @param ideaToken The IdeaToken to sell\r\n     * @param amount The amount of IdeaTokens to sell\r\n     *\r\n     * @return Final cost, raw cost and trading fee\r\n     */\r\n    function getPricesForSellingTokens(address ideaToken, uint amount) internal view returns (uint, uint, uint, uint) {\r\n        IIdeaTokenFactory.IDPair memory idPair = _ideaTokenFactory.getTokenIDPair(ideaToken);\r\n        IIdeaTokenFactory.MarketDetails memory marketDetails = _ideaTokenFactory.getMarketDetailsByID(idPair.marketID);\r\n\r\n        uint rawPrice = getRawPriceForSellingTokens(marketDetails.baseCost,\r\n                                                    marketDetails.priceRise,\r\n                                                    marketDetails.tokensPerInterval,\r\n                                                    IERC20(ideaToken).totalSupply(),\r\n                                                    amount);\r\n        uint tradingFee = rawPrice.mul(marketDetails.tradingFeeRate).div(FEE_SCALE);\r\n        uint platformFee = rawPrice.mul(marketDetails.platformFeeRate).div(FEE_SCALE);\r\n        uint finalCost = rawPrice.sub(tradingFee).sub(platformFee);\r\n\r\n        return (finalCost, rawPrice, tradingFee, platformFee);\r\n    }\r\n\r\n    /**\r\n     * @dev Returns the price for selling IdeaTokens without any fees applied\r\n     *\r\n     * @param b The baseCost of the token\r\n     * @param r The priceRise of the token\r\n     * @param t The amount of tokens per interval\r\n     * @param supply The current total supply of the token\r\n     * @param amount The amount of IdeaTokens to sell\r\n     *\r\n     * @return Returns the price for selling `amount` IdeaTokens without any fees applied\r\n     */\r\n    function getRawPriceForSellingTokens(uint b, uint r, uint t, uint supply, uint amount) internal pure returns (uint) {\r\n        uint costForSupply = getCostFromZeroSupply(b, r, t, supply);\r\n        uint costForSupplyMinusAmount = getCostFromZeroSupply(b, r, t, supply.sub(amount));\r\n\r\n        uint rawPrice = costForSupply.sub(costForSupplyMinusAmount);\r\n        return rawPrice;\r\n    }\r\n\r\n    /**\r\n     * @dev Mints IdeaTokens in exchange for Dai\r\n     *\r\n     * @param ideaToken The IdeaToken to buy\r\n     * @param amount The amount of IdeaTokens to buy\r\n     * @param maxCost The maximum allowed cost in Dai to buy `amount` IdeaTokens\r\n     * @param recipient The recipient of the bought IdeaTokens\r\n     */\r\n    function buyTokens(address ideaToken, uint amount, uint maxCost, address recipient) external override {\r\n        IIdeaTokenFactory.IDPair memory idPair = _ideaTokenFactory.getTokenIDPair(ideaToken);\r\n        require(idPair.exists, \"buyTokens: token does not exist\");\r\n        IIdeaTokenFactory.MarketDetails memory marketDetails = _ideaTokenFactory.getMarketDetailsByID(idPair.marketID);\r\n\r\n        (uint finalCost, uint rawCost, uint tradingFee, uint platformFee) = getCostsForBuyingTokens(ideaToken, amount);\r\n\r\n        require(finalCost <= maxCost, \"buyTokens: cost exceeds maxCost\");\r\n        require(_dai.allowance(msg.sender, address(this)) >= finalCost, \"buyTokens: not enough allowance\");\r\n        require(_dai.transferFrom(msg.sender, address(_interestManager), finalCost), \"buyTokens: dai transfer failed\");\r\n        \r\n        // TODO: Can we do a single invest call? Worried about rounding errors when dividing\r\n        TokenExchangeInfo storage exchangeInfo = _tokensExchangeInfo[ideaToken];\r\n        exchangeInfo.invested = exchangeInfo.invested.add(_interestManager.invest(rawCost));\r\n        _tradingFeeInvested = _tradingFeeInvested.add(_interestManager.invest(tradingFee));\r\n        _platformFeeInvested[marketDetails.id] = _platformFeeInvested[marketDetails.id].add(_interestManager.invest(platformFee));\r\n        exchangeInfo.daiInToken = exchangeInfo.daiInToken.add(rawCost);\r\n    \r\n        emit TokensBought(ideaToken, amount, rawCost, finalCost);\r\n        IIdeaToken(ideaToken).mint(recipient, amount);\r\n    }\r\n\r\n    /**\r\n     * @dev Returns the cost for buying IdeaTokens\r\n     *\r\n     * @param ideaToken The IdeaToken to buy\r\n     * @param amount The amount of IdeaTokens to buy\r\n     *\r\n     * @return The cost in Dai for buying `amount` IdeaTokens\r\n     */\r\n    function getCostForBuyingTokens(address ideaToken, uint amount) external view override returns (uint) {\r\n        (uint finalCost, , , ) = getCostsForBuyingTokens(ideaToken, amount);\r\n        return finalCost;\r\n    }\r\n\r\n    /**\r\n     * @dev Calculates each cost related to buying tokens\r\n     *\r\n     * @param ideaToken The IdeaToken to buy\r\n     * @param amount The amount of IdeaTokens to buy\r\n     *\r\n     * @return Final cost, raw cost and trading fee\r\n     */\r\n    function getCostsForBuyingTokens(address ideaToken, uint amount) internal view returns (uint, uint, uint, uint) {\r\n        IIdeaTokenFactory.IDPair memory idPair = _ideaTokenFactory.getTokenIDPair(ideaToken);\r\n        IIdeaTokenFactory.MarketDetails memory marketDetails = _ideaTokenFactory.getMarketDetailsByID(idPair.marketID);\r\n\r\n        uint rawCost = getRawCostForBuyingTokens(marketDetails.baseCost,\r\n                                                 marketDetails.priceRise,\r\n                                                 marketDetails.tokensPerInterval,\r\n                                                 IERC20(ideaToken).totalSupply(),\r\n                                                 amount);\r\n        uint tradingFee = rawCost.mul(marketDetails.tradingFeeRate).div(FEE_SCALE);\r\n        uint platformFee = rawCost.mul(marketDetails.platformFeeRate).div(FEE_SCALE);\r\n        uint finalCost = rawCost.add(tradingFee).add(platformFee);\r\n\r\n        return (finalCost, rawCost, tradingFee, platformFee);\r\n    }\r\n\r\n    /**\r\n     * @dev Returns the cost for buying IdeaTokens without any fees applied\r\n     *\r\n     * @param b The baseCost of the token\r\n     * @param r The priceRise of the token\r\n     * @param t The amount of tokens per interval\r\n     * @param supply The current total supply of the token\r\n     * @param amount The amount of IdeaTokens to buy\r\n     *\r\n     * @return The cost for buying `amount` IdeaTokens without any fees applied\r\n     */\r\n    function getRawCostForBuyingTokens(uint b, uint r, uint t, uint supply, uint amount) internal pure returns (uint) {\r\n        uint costForSupply = getCostFromZeroSupply(b, r, t, supply);\r\n        uint costForSupplyPlusAmount = getCostFromZeroSupply(b, r, t, supply.add(amount));\r\n\r\n        uint rawCost = costForSupplyPlusAmount.sub(costForSupply);\r\n        return rawCost;\r\n    }\r\n\r\n    /**\r\n     * @dev Returns the cost for buying IdeaTokens without any fees applied from 0 supply\r\n     *\r\n     * @param b The baseCost of the token\r\n     * @param r The priceRise of the token\r\n     * @param t The amount of tokens per interval\r\n     * @param amount The amount of IdeaTokens to buy\r\n     *\r\n     * @return The cost for buying `amount` IdeaTokens without any fees applied from 0 supply\r\n     */\r\n    function getCostFromZeroSupply(uint b, uint r, uint t, uint amount) internal pure returns (uint) {\r\n        uint n = amount.div(t);\r\n        return getCostForCompletedIntervals(b, r, t, n).add(amount.sub(n.mul(t)).mul(b.add(n.mul(r)))).div(10**18);\r\n    }\r\n\r\n    /**\r\n     * @dev Returns the cost for completed intervals from 0 supply\r\n     *\r\n     * @param b The baseCost of the token\r\n     * @param r The priceRise of the token\r\n     * @param t The amount of tokens per interval\r\n     * @param n The amount of completed intervals\r\n     *\r\n     * @return Returns the cost for `n` completed intervals from 0 supply\r\n     */\r\n    function getCostForCompletedIntervals(uint b, uint r, uint t, uint n) internal pure returns (uint) {\r\n        return n.mul(t).mul(b.sub(r)).add(r.mul(t).mul(n.mul(n.add(1)).div(2)));\r\n    }\r\n\r\n    /**\r\n     * @dev Withdraws available interest for a publisher\r\n     *\r\n     * @param token The token from which the generated interest is to be withdrawn\r\n     */\r\n    function withdrawInterest(address token) external {\r\n        require(_authorizedInterestWithdrawers[token] == msg.sender, \"withdrawInterest: not authorized\");\r\n        _interestManager.accrueInterest();\r\n\r\n        uint interestPayable = getInterestPayable(token);\r\n        if(interestPayable == 0) {\r\n            return;\r\n        }\r\n\r\n        TokenExchangeInfo storage exchangeInfo = _tokensExchangeInfo[token];\r\n        exchangeInfo.invested = exchangeInfo.invested.sub(_interestManager.redeem(msg.sender, interestPayable));\r\n    }\r\n\r\n    /**\r\n     * @dev Returns the interest available to be paid out\r\n     *\r\n     * @param token The token from which the generated interest is to be withdrawn\r\n     *\r\n     * @return The interest available to be paid out\r\n     */\r\n    function getInterestPayable(address token) public view returns (uint) {\r\n        TokenExchangeInfo storage exchangeInfo = _tokensExchangeInfo[token];\r\n        return exchangeInfo.invested.mul(_interestManager.getExchangeRate())\r\n                                    .div(10**18)\r\n                                    .sub(exchangeInfo.daiInToken);\r\n    }\r\n\r\n    /**\r\n     * @dev Authorizes an address which is allowed to withdraw interest for a token\r\n     *\r\n     * @param token The token for which to authorize an address\r\n     * @param withdrawer The address to be authorized\r\n     */\r\n    function authorizeInterestWithdrawer(address token, address withdrawer) external override {\r\n        require(msg.sender == _owner || msg.sender == _authorizedInterestWithdrawers[token], \"authorizeInterestWithdrawer: not authorized\");\r\n        _authorizedInterestWithdrawers[token] = withdrawer;\r\n    }\r\n\r\n    /**\r\n     * @dev Withdraws available platform fee\r\n     *\r\n     * @param marketID The market from which the generated platform fee is to be withdrawn\r\n     */\r\n    function withdrawPlatformFee(uint marketID) external {\r\n        require(_authorizedPlatformFeeWithdrawers[marketID] == msg.sender, \"withdrawPlatformFee: not authorized\");\r\n        _interestManager.accrueInterest();\r\n\r\n        uint platformFeePayable = getPlatformFeePayable(marketID);\r\n        if(platformFeePayable == 0) {\r\n            return;\r\n        }\r\n\r\n        _platformFeeInvested[marketID] = 0;\r\n        _interestManager.redeem(msg.sender, platformFeePayable);\r\n    }\r\n\r\n    /**\r\n     * @dev Returns the platform fee available to be paid out\r\n     *\r\n     * @param marketID The market from which the generated interest is to be withdrawn\r\n     *\r\n     * @return The platform fee available to be paid out\r\n     */\r\n    function getPlatformFeePayable(uint marketID) public view returns (uint) {\r\n        return _platformFeeInvested[marketID].mul(_interestManager.getExchangeRate()).div(10**18);\r\n    }\r\n\r\n    /**\r\n     * @dev Authorizes an address which is allowed to withdraw platform fee for a market\r\n     *\r\n     * @param marketID The market for which to authorize an address\r\n     * @param withdrawer The address to be authorized\r\n     */\r\n    function authorizePlatformFeeWithdrawer(uint marketID, address withdrawer) external override {\r\n        require(msg.sender == _owner || msg.sender == _authorizedPlatformFeeWithdrawers[marketID], \"authorizePlatformFeeWithdrawer: not authorized\");\r\n        _authorizedPlatformFeeWithdrawers[marketID] = withdrawer;\r\n    }\r\n\r\n    /**\r\n     * @dev Withdraws available trading fee\r\n     */\r\n    function withdrawTradingFee() external {\r\n\r\n        if(_tradingFeeInvested == 0) {\r\n            return;\r\n        }\r\n\r\n        uint redeem = _tradingFeeInvested;\r\n        _tradingFeeInvested = 0;\r\n        _interestManager.redeemInvestmentToken(_tradingFeeRecipient, redeem);\r\n    }\r\n\r\n    /**\r\n     * @dev Returns the trading fee available to be paid out\r\n     *\r\n     * @return The trading fee available to be paid out\r\n     */\r\n    function getTradingFeePayable() public view returns (uint) {\r\n        return _tradingFeeInvested.mul(_interestManager.getExchangeRate()).div(10**18);\r\n    }\r\n\r\n    /**\r\n     * @dev Sets the IdeaTokenFactory address. Only required once for deployment\r\n     *\r\n     * @param factory The address of the IdeaTokenFactory \r\n     */\r\n    function setIdeaTokenFactoryAddress(uint factory) external onlyOwner {\r\n        require(address(_ideaTokenFactory) == address(0));\r\n        _ideaTokenFactory = IIdeaTokenFactory(factory);\r\n    }\r\n}",
  "sourcePath": "C:/Users/alexa/Desktop/ideamarket-contracts/contracts/core/IdeaTokenExchange.sol",
  "compiler": {
    "name": "solc",
    "version": "0.6.9+commit.3e3065ac.Emscripten.clang"
  },
  "schemaVersion": "3.2.3",
  "updatedAt": "2020-10-13T10:19:29.943Z",
  "networkType": "ethereum",
  "devdoc": {
    "author": "Alexander Schlindwein",
    "details": "Exchanges Dai <-> IdeaTokens using a bonding curve. Sits behind a proxy",
    "methods": {
      "authorizeInterestWithdrawer(address,address)": {
        "details": "Authorizes an address which is allowed to withdraw interest for a token",
        "params": {
          "token": "The token for which to authorize an address",
          "withdrawer": "The address to be authorized"
        }
      },
      "authorizePlatformFeeWithdrawer(uint256,address)": {
        "details": "Authorizes an address which is allowed to withdraw platform fee for a market",
        "params": {
          "marketID": "The market for which to authorize an address",
          "withdrawer": "The address to be authorized"
        }
      },
      "buyTokens(address,uint256,uint256,address)": {
        "details": "Mints IdeaTokens in exchange for Dai",
        "params": {
          "amount": "The amount of IdeaTokens to buy",
          "ideaToken": "The IdeaToken to buy",
          "maxCost": "The maximum allowed cost in Dai to buy `amount` IdeaTokens",
          "recipient": "The recipient of the bought IdeaTokens"
        }
      },
      "getCostForBuyingTokens(address,uint256)": {
        "details": "Returns the cost for buying IdeaTokens",
        "params": {
          "amount": "The amount of IdeaTokens to buy",
          "ideaToken": "The IdeaToken to buy"
        },
        "returns": {
          "_0": "The cost in Dai for buying `amount` IdeaTokens"
        }
      },
      "getInterestPayable(address)": {
        "details": "Returns the interest available to be paid out",
        "params": {
          "token": "The token from which the generated interest is to be withdrawn"
        },
        "returns": {
          "_0": "The interest available to be paid out"
        }
      },
      "getPlatformFeePayable(uint256)": {
        "details": "Returns the platform fee available to be paid out",
        "params": {
          "marketID": "The market from which the generated interest is to be withdrawn"
        },
        "returns": {
          "_0": "The platform fee available to be paid out"
        }
      },
      "getPriceForSellingTokens(address,uint256)": {
        "details": "Returns the price for selling IdeaTokens",
        "params": {
          "amount": "The amount of IdeaTokens to sell",
          "ideaToken": "The IdeaToken to sell"
        },
        "returns": {
          "_0": "The price in Dai for selling `amount` IdeaTokens"
        }
      },
      "getTradingFeePayable()": {
        "details": "Returns the trading fee available to be paid out",
        "returns": {
          "_0": "The trading fee available to be paid out"
        }
      },
      "initialize(address,address,address,address)": {
        "details": "Initializes the contract",
        "params": {
          "dai": "The address of Dai",
          "interestManager": "The address of the InterestManager",
          "owner": "The owner of the contract",
          "tradingFeeRecipient": "The address of the recipient of the trading fee"
        }
      },
      "sellTokens(address,uint256,uint256,address)": {
        "details": "Burns IdeaTokens in exchange for Dai",
        "params": {
          "amount": "The amount of IdeaTokens to sell",
          "ideaToken": "The IdeaToken to sell",
          "minPrice": "The minimum allowed price in Dai for selling `amount` IdeaTokens",
          "recipient": "The recipient of the redeemed Dai"
        }
      },
      "setIdeaTokenFactoryAddress(uint256)": {
        "details": "Sets the IdeaTokenFactory address. Only required once for deployment",
        "params": {
          "factory": "The address of the IdeaTokenFactory "
        }
      },
      "withdrawInterest(address)": {
        "details": "Withdraws available interest for a publisher",
        "params": {
          "token": "The token from which the generated interest is to be withdrawn"
        }
      },
      "withdrawPlatformFee(uint256)": {
        "details": "Withdraws available platform fee",
        "params": {
          "marketID": "The market from which the generated platform fee is to be withdrawn"
        }
      },
      "withdrawTradingFee()": {
        "details": "Withdraws available trading fee"
      }
    },
    "title": "IdeaTokenExchange"
  },
  "userdoc": {
    "methods": {}
  }
}