{
  "contractName": "IdeaTokenFactory",
  "abi": [
    {
      "anonymous": false,
      "inputs": [
        {
          "indexed": false,
          "internalType": "uint256",
          "name": "id",
          "type": "uint256"
        },
        {
          "indexed": false,
          "internalType": "string",
          "name": "name",
          "type": "string"
        },
        {
          "indexed": false,
          "internalType": "uint256",
          "name": "baseCost",
          "type": "uint256"
        },
        {
          "indexed": false,
          "internalType": "uint256",
          "name": "priceRise",
          "type": "uint256"
        },
        {
          "indexed": false,
          "internalType": "uint256",
          "name": "tokensPerInterval",
          "type": "uint256"
        },
        {
          "indexed": false,
          "internalType": "uint256",
          "name": "tradingFeeRate",
          "type": "uint256"
        },
        {
          "indexed": false,
          "internalType": "uint256",
          "name": "platformFeeRate",
          "type": "uint256"
        }
      ],
      "name": "NewMarket",
      "type": "event"
    },
    {
      "anonymous": false,
      "inputs": [
        {
          "indexed": false,
          "internalType": "uint256",
          "name": "marketID",
          "type": "uint256"
        },
        {
          "indexed": false,
          "internalType": "uint256",
          "name": "platformFeeRate",
          "type": "uint256"
        }
      ],
      "name": "NewPlatformFee",
      "type": "event"
    },
    {
      "anonymous": false,
      "inputs": [
        {
          "indexed": false,
          "internalType": "uint256",
          "name": "id",
          "type": "uint256"
        },
        {
          "indexed": false,
          "internalType": "uint256",
          "name": "marketID",
          "type": "uint256"
        },
        {
          "indexed": false,
          "internalType": "string",
          "name": "name",
          "type": "string"
        },
        {
          "indexed": false,
          "internalType": "address",
          "name": "addr",
          "type": "address"
        }
      ],
      "name": "NewToken",
      "type": "event"
    },
    {
      "anonymous": false,
      "inputs": [
        {
          "indexed": false,
          "internalType": "uint256",
          "name": "marketID",
          "type": "uint256"
        },
        {
          "indexed": false,
          "internalType": "uint256",
          "name": "tradingFeeRate",
          "type": "uint256"
        }
      ],
      "name": "NewTradingFee",
      "type": "event"
    },
    {
      "anonymous": false,
      "inputs": [
        {
          "indexed": false,
          "internalType": "address",
          "name": "oldOwner",
          "type": "address"
        },
        {
          "indexed": false,
          "internalType": "address",
          "name": "newOwner",
          "type": "address"
        }
      ],
      "name": "OwnershipChanged",
      "type": "event"
    },
    {
      "inputs": [],
      "name": "getOwner",
      "outputs": [
        {
          "internalType": "address",
          "name": "",
          "type": "address"
        }
      ],
      "stateMutability": "view",
      "type": "function",
      "constant": true
    },
    {
      "inputs": [
        {
          "internalType": "address",
          "name": "newOwner",
          "type": "address"
        }
      ],
      "name": "setOwner",
      "outputs": [],
      "stateMutability": "nonpayable",
      "type": "function"
    },
    {
      "inputs": [
        {
          "internalType": "address",
          "name": "owner",
          "type": "address"
        },
        {
          "internalType": "address",
          "name": "ideaTokenExchange",
          "type": "address"
        }
      ],
      "name": "initialize",
      "outputs": [],
      "stateMutability": "nonpayable",
      "type": "function"
    },
    {
      "inputs": [
        {
          "internalType": "string",
          "name": "marketName",
          "type": "string"
        },
        {
          "internalType": "address",
          "name": "nameVerifier",
          "type": "address"
        },
        {
          "internalType": "uint256",
          "name": "baseCost",
          "type": "uint256"
        },
        {
          "internalType": "uint256",
          "name": "priceRise",
          "type": "uint256"
        },
        {
          "internalType": "uint256",
          "name": "tokensPerInterval",
          "type": "uint256"
        },
        {
          "internalType": "uint256",
          "name": "tradingFeeRate",
          "type": "uint256"
        },
        {
          "internalType": "uint256",
          "name": "platformFeeRate",
          "type": "uint256"
        }
      ],
      "name": "addMarket",
      "outputs": [],
      "stateMutability": "nonpayable",
      "type": "function"
    },
    {
      "inputs": [
        {
          "internalType": "string",
          "name": "tokenName",
          "type": "string"
        },
        {
          "internalType": "uint256",
          "name": "marketID",
          "type": "uint256"
        }
      ],
      "name": "addToken",
      "outputs": [],
      "stateMutability": "nonpayable",
      "type": "function"
    },
    {
      "inputs": [
        {
          "internalType": "string",
          "name": "tokenName",
          "type": "string"
        },
        {
          "internalType": "uint256",
          "name": "marketID",
          "type": "uint256"
        }
      ],
      "name": "isValidTokenName",
      "outputs": [
        {
          "internalType": "bool",
          "name": "",
          "type": "bool"
        }
      ],
      "stateMutability": "view",
      "type": "function",
      "constant": true
    },
    {
      "inputs": [
        {
          "internalType": "string",
          "name": "marketName",
          "type": "string"
        }
      ],
      "name": "getMarketIDByName",
      "outputs": [
        {
          "internalType": "uint256",
          "name": "",
          "type": "uint256"
        }
      ],
      "stateMutability": "view",
      "type": "function",
      "constant": true
    },
    {
      "inputs": [
        {
          "internalType": "uint256",
          "name": "marketID",
          "type": "uint256"
        }
      ],
      "name": "getMarketDetailsByID",
      "outputs": [
        {
          "components": [
            {
              "internalType": "bool",
              "name": "exists",
              "type": "bool"
            },
            {
              "internalType": "uint256",
              "name": "id",
              "type": "uint256"
            },
            {
              "internalType": "string",
              "name": "name",
              "type": "string"
            },
            {
              "internalType": "contract IIdeaTokenNameVerifier",
              "name": "nameVerifier",
              "type": "address"
            },
            {
              "internalType": "uint256",
              "name": "numTokens",
              "type": "uint256"
            },
            {
              "internalType": "uint256",
              "name": "baseCost",
              "type": "uint256"
            },
            {
              "internalType": "uint256",
              "name": "priceRise",
              "type": "uint256"
            },
            {
              "internalType": "uint256",
              "name": "tokensPerInterval",
              "type": "uint256"
            },
            {
              "internalType": "uint256",
              "name": "tradingFeeRate",
              "type": "uint256"
            },
            {
              "internalType": "uint256",
              "name": "platformFeeRate",
              "type": "uint256"
            }
          ],
          "internalType": "struct IIdeaTokenFactory.MarketDetails",
          "name": "",
          "type": "tuple"
        }
      ],
      "stateMutability": "view",
      "type": "function",
      "constant": true
    },
    {
      "inputs": [
        {
          "internalType": "string",
          "name": "marketName",
          "type": "string"
        }
      ],
      "name": "getMarketDetailsByName",
      "outputs": [
        {
          "components": [
            {
              "internalType": "bool",
              "name": "exists",
              "type": "bool"
            },
            {
              "internalType": "uint256",
              "name": "id",
              "type": "uint256"
            },
            {
              "internalType": "string",
              "name": "name",
              "type": "string"
            },
            {
              "internalType": "contract IIdeaTokenNameVerifier",
              "name": "nameVerifier",
              "type": "address"
            },
            {
              "internalType": "uint256",
              "name": "numTokens",
              "type": "uint256"
            },
            {
              "internalType": "uint256",
              "name": "baseCost",
              "type": "uint256"
            },
            {
              "internalType": "uint256",
              "name": "priceRise",
              "type": "uint256"
            },
            {
              "internalType": "uint256",
              "name": "tokensPerInterval",
              "type": "uint256"
            },
            {
              "internalType": "uint256",
              "name": "tradingFeeRate",
              "type": "uint256"
            },
            {
              "internalType": "uint256",
              "name": "platformFeeRate",
              "type": "uint256"
            }
          ],
          "internalType": "struct IIdeaTokenFactory.MarketDetails",
          "name": "",
          "type": "tuple"
        }
      ],
      "stateMutability": "view",
      "type": "function",
      "constant": true
    },
    {
      "inputs": [],
      "name": "getNumMarkets",
      "outputs": [
        {
          "internalType": "uint256",
          "name": "",
          "type": "uint256"
        }
      ],
      "stateMutability": "view",
      "type": "function",
      "constant": true
    },
    {
      "inputs": [
        {
          "internalType": "string",
          "name": "tokenName",
          "type": "string"
        },
        {
          "internalType": "uint256",
          "name": "marketID",
          "type": "uint256"
        }
      ],
      "name": "getTokenIDByName",
      "outputs": [
        {
          "internalType": "uint256",
          "name": "",
          "type": "uint256"
        }
      ],
      "stateMutability": "view",
      "type": "function",
      "constant": true
    },
    {
      "inputs": [
        {
          "internalType": "uint256",
          "name": "marketID",
          "type": "uint256"
        },
        {
          "internalType": "uint256",
          "name": "tokenID",
          "type": "uint256"
        }
      ],
      "name": "getTokenInfo",
      "outputs": [
        {
          "components": [
            {
              "internalType": "bool",
              "name": "exists",
              "type": "bool"
            },
            {
              "internalType": "uint256",
              "name": "id",
              "type": "uint256"
            },
            {
              "internalType": "string",
              "name": "name",
              "type": "string"
            },
            {
              "internalType": "contract IIdeaToken",
              "name": "ideaToken",
              "type": "address"
            }
          ],
          "internalType": "struct IIdeaTokenFactory.TokenInfo",
          "name": "",
          "type": "tuple"
        }
      ],
      "stateMutability": "view",
      "type": "function",
      "constant": true
    },
    {
      "inputs": [
        {
          "internalType": "address",
          "name": "token",
          "type": "address"
        }
      ],
      "name": "getTokenIDPair",
      "outputs": [
        {
          "components": [
            {
              "internalType": "bool",
              "name": "exists",
              "type": "bool"
            },
            {
              "internalType": "uint256",
              "name": "marketID",
              "type": "uint256"
            },
            {
              "internalType": "uint256",
              "name": "tokenID",
              "type": "uint256"
            }
          ],
          "internalType": "struct IIdeaTokenFactory.IDPair",
          "name": "",
          "type": "tuple"
        }
      ],
      "stateMutability": "view",
      "type": "function",
      "constant": true
    },
    {
      "inputs": [
        {
          "internalType": "uint256",
          "name": "marketID",
          "type": "uint256"
        },
        {
          "internalType": "uint256",
          "name": "tradingFeeRate",
          "type": "uint256"
        }
      ],
      "name": "setTradingFee",
      "outputs": [],
      "stateMutability": "nonpayable",
      "type": "function"
    },
    {
      "inputs": [
        {
          "internalType": "uint256",
          "name": "marketID",
          "type": "uint256"
        },
        {
          "internalType": "uint256",
          "name": "platformFeeRate",
          "type": "uint256"
        }
      ],
      "name": "setPlatformFee",
      "outputs": [],
      "stateMutability": "nonpayable",
      "type": "function"
    }
  ],
  "bytecode": "0x608060405234801561001057600080fd5b506144eb806100206000396000f3fe60806040523480156200001157600080fd5b50600436106200010c5760003560e01c806381eaaa1c11620000a5578063b8f7534a116200006f578063b8f7534a14620002cd578063c7d5fe551462000303578063dc5ea5d91462000339578063fcbd9edd1462000359576200010c565b806381eaaa1c1462000235578063893d20e8146200026b5780638ca132f7146200028d578063a5ffb1e914620002ad576200010c565b80633911283a11620000e75780633911283a1462000189578063485cc95514620001bf5780636de84a9e14620001df57806372e99a4c14620001ff576200010c565b80630a81adc1146200011157806313af40351462000147578063295c39a51462000167575b600080fd5b6200012f600480360381019062000129919062001be2565b6200038f565b6040516200013e9190620023f6565b60405180910390f35b6200016560048036038101906200015f9190620019ac565b620004f4565b005b6200017162000595565b6040516200018091906200241a565b60405180910390f35b620001a76004803603810190620001a19190620019ac565b6200059f565b604051620001b69190620023b5565b60405180910390f35b620001dd6004803603810190620001d79190620019d8565b62000629565b005b620001fd6004803603810190620001f7919062001a8e565b62000769565b005b6200021d600480360381019062000217919062001b58565b62000aff565b6040516200022c919062002227565b60405180910390f35b6200025360048036038101906200024d919062001a45565b62000c26565b604051620002629190620023d2565b60405180910390f35b6200027562000dd9565b604051620002849190620021dd565b60405180910390f35b620002ab6004803603810190620002a5919062001b58565b62000e03565b005b620002cb6004803603810190620002c5919062001be2565b62001223565b005b620002eb6004803603810190620002e5919062001b58565b6200136d565b604051620002fa91906200241a565b60405180910390f35b6200032160048036038101906200031b919062001bb6565b620013af565b604051620003309190620023d2565b60405180910390f35b62000357600480360381019062000351919062001be2565b6200153f565b005b62000377600480360381019062000371919062001a45565b62001689565b6040516200038691906200241a565b60405180910390f35b6200039962001774565b6036600084815260200190815260200160002060000160008381526020019081526020016000206040518060800160405290816000820160009054906101000a900460ff1615151515815260200160018201548152602001600282018054600181600116156101000203166002900480601f0160208091040260200160405190810160405280929190818152602001828054600181600116156101000203166002900480156200048d5780601f1062000461576101008083540402835291602001916200048d565b820191906000526020600020905b8154815290600101906020018083116200046f57829003601f168201915b505050505081526020016003820160009054906101000a900473ffffffffffffffffffffffffffffffffffffffff1673ffffffffffffffffffffffffffffffffffffffff1673ffffffffffffffffffffffffffffffffffffffff1681525050905092915050565b3373ffffffffffffffffffffffffffffffffffffffff16603360009054906101000a900473ffffffffffffffffffffffffffffffffffffffff1673ffffffffffffffffffffffffffffffffffffffff161462000587576040517f08c379a00000000000000000000000000000000000000000000000000000000081526004016200057e906200230b565b60405180910390fd5b6200059281620016b6565b50565b6000603854905090565b620005a9620017b4565b603560008373ffffffffffffffffffffffffffffffffffffffff1673ffffffffffffffffffffffffffffffffffffffff1681526020019081526020016000206040518060600160405290816000820160009054906101000a900460ff16151515158152602001600182015481526020016002820154815250509050919050565b600060019054906101000a900460ff16806200064b57506200064a6200175d565b5b806200066357506000809054906101000a900460ff16155b620006a5576040517f08c379a00000000000000000000000000000000000000000000000000000000081526004016200069c9062002393565b60405180910390fd5b60008060019054906101000a900460ff161590508015620006f6576001600060016101000a81548160ff02191690831515021790555060016000806101000a81548160ff0219169083151502179055505b6200070183620016b6565b81603460006101000a81548173ffffffffffffffffffffffffffffffffffffffff021916908373ffffffffffffffffffffffffffffffffffffffff1602179055508015620007645760008060016101000a81548160ff0219169083151502179055505b505050565b3373ffffffffffffffffffffffffffffffffffffffff16603360009054906101000a900473ffffffffffffffffffffffffffffffffffffffff1673ffffffffffffffffffffffffffffffffffffffff1614620007fc576040517f08c379a0000000000000000000000000000000000000000000000000000000008152600401620007f3906200230b565b60405180910390fd5b60006037898960405162000812929190620021c2565b9081526020016040518091039020541462000864576040517f08c379a00000000000000000000000000000000000000000000000000000000081526004016200085b90620022c7565b60405180910390fd5b600085118015620008755750600084115b8015620008825750600083115b620008c4576040517f08c379a0000000000000000000000000000000000000000000000000000000008152600401620008bb90620022a5565b60405180910390fd5b60006038600081546001019190508190559050620008e1620017d7565b60405180602001604052806040518061014001604052806001151581526020018581526020018d8d8080601f016020809104026020016040519081016040528093929190818152602001838380828437600081840152601f19601f8201169050808301925050505050505081526020018b73ffffffffffffffffffffffffffffffffffffffff168152602001600081526020018a8152602001898152602001888152602001878152602001868152508152509050806036600084815260200190815260200160002060008201518160020160008201518160000160006101000a81548160ff021916908315150217905550602082015181600101556040820151816002019080519060200190620009fa929190620017f2565b5060608201518160030160006101000a81548173ffffffffffffffffffffffffffffffffffffffff021916908373ffffffffffffffffffffffffffffffffffffffff1602179055506080820151816004015560a0820151816005015560c0820151816006015560e082015181600701556101008201518160080155610120820151816009015550509050508160378b8b60405162000a9a929190620021c2565b9081526020016040518091039020819055507f7bd24e3c7dc3034dddb40b8cfe4d5771ea3c86558240d2899732049934f401f6828b8b8a8a8a8a8a60405162000aeb98979695949392919062002437565b60405180910390a150505050505050505050565b6000806036600084815260200190815260200160002060020190506039858560405162000b2e929190620021c2565b908152602001604051809103902060009054906101000a900460ff168062000c0857508060030160009054906101000a900473ffffffffffffffffffffffffffffffffffffffff1673ffffffffffffffffffffffffffffffffffffffff16634c8bc1c986866040518363ffffffff1660e01b815260040162000bb292919062002244565b60206040518083038186803b15801562000bcb57600080fd5b505afa15801562000be0573d6000803e3d6000fd5b505050506040513d601f19601f8201168201806040525081019062000c06919062001a19565b155b1562000c1957600091505062000c1f565b60019150505b9392505050565b62000c3062001879565b603660006037858560405162000c48929190620021c2565b9081526020016040518091039020548152602001908152602001600020600201604051806101400160405290816000820160009054906101000a900460ff1615151515815260200160018201548152602001600282018054600181600116156101000203166002900480601f01602080910402602001604051908101604052809291908181526020018280546001816001161561010002031660029004801562000d365780601f1062000d0a5761010080835404028352916020019162000d36565b820191906000526020600020905b81548152906001019060200180831162000d1857829003601f168201915b505050505081526020016003820160009054906101000a900473ffffffffffffffffffffffffffffffffffffffff1673ffffffffffffffffffffffffffffffffffffffff1673ffffffffffffffffffffffffffffffffffffffff1681526020016004820154815260200160058201548152602001600682015481526020016007820154815260200160088201548152602001600982015481525050905092915050565b6000603360009054906101000a900473ffffffffffffffffffffffffffffffffffffffff16905090565b60006036600083815260200190815260200160002090508060020160000160009054906101000a900460ff1662000e71576040517f08c379a000000000000000000000000000000000000000000000000000000000815260040162000e6890620022e9565b60405180910390fd5b62000e7e84848462000aff565b62000ec0576040517f08c379a000000000000000000000000000000000000000000000000000000000815260040162000eb7906200232d565b60405180910390fd5b6000848460405162000ed290620018e4565b62000edf9291906200226a565b604051809103906000f08015801562000efc573d6000803e3d6000fd5b50905060008190508173ffffffffffffffffffffffffffffffffffffffff166313af4035603460009054906101000a900473ffffffffffffffffffffffffffffffffffffffff166040518263ffffffff1660e01b815260040162000f619190620021dd565b600060405180830381600087803b15801562000f7c57600080fd5b505af115801562000f91573d6000803e3d6000fd5b5050505060008360020160040160008154600101919050819055905062000fb762001774565b604051806080016040528060011515815260200183815260200189898080601f016020809104026020016040519081016040528093929190818152602001838380828437600081840152601f19601f8201169050808301925050505050505081526020018473ffffffffffffffffffffffffffffffffffffffff1681525090508085600001600084815260200190815260200160002060008201518160000160006101000a81548160ff02191690831515021790555060208201518160010155604082015181600201908051906020019062001095929190620017f2565b5060608201518160030160006101000a81548173ffffffffffffffffffffffffffffffffffffffff021916908373ffffffffffffffffffffffffffffffffffffffff16021790555090505081856001018989604051620010f7929190620021c2565b9081526020016040518091039020819055506001603989896040516200111f929190620021c2565b908152602001604051809103902060006101000a81548160ff021916908315150217905550604051806060016040528060011515815260200187815260200183815250603560008573ffffffffffffffffffffffffffffffffffffffff1673ffffffffffffffffffffffffffffffffffffffff16815260200190815260200160002060008201518160000160006101000a81548160ff02191690831515021790555060208201518160010155604082015181600201559050507f06430973bed05624589a1204f7a2c53ae3608d56e51741f9828eb62b3789981382878a8a8760405162001211959493929190620024ea565b60405180910390a15050505050505050565b3373ffffffffffffffffffffffffffffffffffffffff16603360009054906101000a900473ffffffffffffffffffffffffffffffffffffffff1673ffffffffffffffffffffffffffffffffffffffff1614620012b6576040517f08c379a0000000000000000000000000000000000000000000000000000000008152600401620012ad906200230b565b60405180910390fd5b60006036600084815260200190815260200160002060020190508060000160009054906101000a900460ff1662001324576040517f08c379a00000000000000000000000000000000000000000000000000000000081526004016200131b906200234f565b60405180910390fd5b8181600801819055507f230a5096627f920107df0991f11c62f1695587aa71947515d92c8a6b767db7d5838360405162001360929190620024bd565b60405180910390a1505050565b600060366000838152602001908152602001600020600101848460405162001397929190620021c2565b90815260200160405180910390205490509392505050565b620013b962001879565b60366000838152602001908152602001600020600201604051806101400160405290816000820160009054906101000a900460ff1615151515815260200160018201548152602001600282018054600181600116156101000203166002900480601f0160208091040260200160405190810160405280929190818152602001828054600181600116156101000203166002900480156200149d5780601f1062001471576101008083540402835291602001916200149d565b820191906000526020600020905b8154815290600101906020018083116200147f57829003601f168201915b505050505081526020016003820160009054906101000a900473ffffffffffffffffffffffffffffffffffffffff1673ffffffffffffffffffffffffffffffffffffffff1673ffffffffffffffffffffffffffffffffffffffff16815260200160048201548152602001600582015481526020016006820154815260200160078201548152602001600882015481526020016009820154815250509050919050565b3373ffffffffffffffffffffffffffffffffffffffff16603360009054906101000a900473ffffffffffffffffffffffffffffffffffffffff1673ffffffffffffffffffffffffffffffffffffffff1614620015d2576040517f08c379a0000000000000000000000000000000000000000000000000000000008152600401620015c9906200230b565b60405180910390fd5b60006036600084815260200190815260200160002060020190508060000160009054906101000a900460ff1662001640576040517f08c379a0000000000000000000000000000000000000000000000000000000008152600401620016379062002371565b60405180910390fd5b8181600901819055507f3d3bd3be7ec22493e58cfa4b9bf39fd0bbca83773a0d55c68ba6ad6ef070475f83836040516200167c929190620024bd565b60405180910390a1505050565b6000603783836040516200169f929190620021c2565b908152602001604051809103902054905092915050565b6000603360009054906101000a900473ffffffffffffffffffffffffffffffffffffffff16905081603360006101000a81548173ffffffffffffffffffffffffffffffffffffffff021916908373ffffffffffffffffffffffffffffffffffffffff1602179055507f0384899bd253d83b23daa4d29aaa2efe0563d1132b43101e9ad667235aeb951b818360405162001751929190620021fa565b60405180910390a15050565b6000803090506000813b9050600081149250505090565b60405180608001604052806000151581526020016000815260200160608152602001600073ffffffffffffffffffffffffffffffffffffffff1681525090565b604051806060016040528060001515815260200160008152602001600081525090565b6040518060200160405280620017ec62001879565b81525090565b828054600181600116156101000203166002900490600052602060002090601f016020900481019282601f106200183557805160ff191683800117855562001866565b8280016001018555821562001866579182015b828111156200186557825182559160200191906001019062001848565b5b509050620018759190620018f2565b5090565b6040518061014001604052806000151581526020016000815260200160608152602001600073ffffffffffffffffffffffffffffffffffffffff1681526020016000815260200160008152602001600081526020016000815260200160008152602001600081525090565b611dff80620026b783390190565b6200191791905b8082111562001913576000816000905550600101620018f9565b5090565b90565b6000813590506200192b8162002668565b92915050565b600081519050620019428162002682565b92915050565b60008083601f8401126200195b57600080fd5b8235905067ffffffffffffffff8111156200197557600080fd5b6020830191508360018202830111156200198e57600080fd5b9250929050565b600081359050620019a6816200269c565b92915050565b600060208284031215620019bf57600080fd5b6000620019cf848285016200191a565b91505092915050565b60008060408385031215620019ec57600080fd5b6000620019fc858286016200191a565b925050602062001a0f858286016200191a565b9150509250929050565b60006020828403121562001a2c57600080fd5b600062001a3c8482850162001931565b91505092915050565b6000806020838503121562001a5957600080fd5b600083013567ffffffffffffffff81111562001a7457600080fd5b62001a828582860162001948565b92509250509250929050565b60008060008060008060008060e0898b03121562001aab57600080fd5b600089013567ffffffffffffffff81111562001ac657600080fd5b62001ad48b828c0162001948565b9850985050602062001ae98b828c016200191a565b965050604062001afc8b828c0162001995565b955050606062001b0f8b828c0162001995565b945050608062001b228b828c0162001995565b93505060a062001b358b828c0162001995565b92505060c062001b488b828c0162001995565b9150509295985092959890939650565b60008060006040848603121562001b6e57600080fd5b600084013567ffffffffffffffff81111562001b8957600080fd5b62001b978682870162001948565b9350935050602062001bac8682870162001995565b9150509250925092565b60006020828403121562001bc957600080fd5b600062001bd98482850162001995565b91505092915050565b6000806040838503121562001bf657600080fd5b600062001c068582860162001995565b925050602062001c198582860162001995565b9150509250929050565b62001c2e8162002578565b82525050565b62001c3f816200258c565b82525050565b62001c50816200258c565b82525050565b62001c6181620025c2565b82525050565b62001c7281620025ea565b82525050565b600062001c8683856200255c565b935062001c9583858462002612565b62001ca08362002657565b840190509392505050565b600062001cb983856200256d565b935062001cc883858462002612565b82840190509392505050565b600062001ce18262002540565b62001ced81856200254b565b935062001cff81856020860162002621565b62001d0a8162002657565b840191505092915050565b600062001d24601d836200255c565b91507f6164644d61726b65743a20696e76616c696420706172616d65746572730000006000830152602082019050919050565b600062001d666020836200255c565b91507f6164644d61726b65743a206d61726b65742065786973747320616c72656164796000830152602082019050919050565b600062001da8601f836200255c565b91507f616464546f6b656e3a206d61726b657420646f6573206e6f74206578697374006000830152602082019050919050565b600062001dea6012836200255c565b91507f4f776e61626c653a206f6e6c794f776e657200000000000000000000000000006000830152602082019050919050565b600062001e2c6022836200255c565b91507f616464546f6b656e3a206e616d6520766572696669636174696f6e206661696c60008301527f65640000000000000000000000000000000000000000000000000000000000006020830152604082019050919050565b600062001e946003836200255c565b91507f49445400000000000000000000000000000000000000000000000000000000006000830152602082019050919050565b600062001ed66024836200255c565b91507f73657454726164696e674665653a206d61726b657420646f6573206e6f74206560008301527f78697374000000000000000000000000000000000000000000000000000000006020830152604082019050919050565b600062001f3e6025836200255c565b91507f736574506c6174666f726d4665653a206d61726b657420646f6573206e6f742060008301527f65786973740000000000000000000000000000000000000000000000000000006020830152604082019050919050565b600062001fa6602e836200255c565b91507f436f6e747261637420696e7374616e63652068617320616c726561647920626560008301527f656e20696e697469616c697a65640000000000000000000000000000000000006020830152604082019050919050565b60608201600082015162002017600085018262001c34565b5060208201516200202c6020850182620021a0565b506040820151620020416040850182620021a0565b50505050565b60006101408301600083015162002062600086018262001c34565b506020830151620020776020860182620021a0565b506040830151848203604086015262002091828262001cd4565b9150506060830151620020a8606086018262001c56565b506080830151620020bd6080860182620021a0565b5060a0830151620020d260a0860182620021a0565b5060c0830151620020e760c0860182620021a0565b5060e0830151620020fc60e0860182620021a0565b5061010083015162002113610100860182620021a0565b506101208301516200212a610120860182620021a0565b508091505092915050565b60006080830160008301516200214f600086018262001c34565b506020830151620021646020860182620021a0565b50604083015184820360408601526200217e828262001cd4565b915050606083015162002195606086018262001c67565b508091505092915050565b620021ab81620025b8565b82525050565b620021bc81620025b8565b82525050565b6000620021d182848662001cab565b91508190509392505050565b6000602082019050620021f4600083018462001c23565b92915050565b600060408201905062002211600083018562001c23565b62002220602083018462001c23565b9392505050565b60006020820190506200223e600083018462001c45565b92915050565b600060208201905081810360008301526200226181848662001c78565b90509392505050565b600060408201905081810360008301526200228781848662001c78565b905081810360208301526200229c8162001e85565b90509392505050565b60006020820190508181036000830152620022c08162001d15565b9050919050565b60006020820190508181036000830152620022e28162001d57565b9050919050565b60006020820190508181036000830152620023048162001d99565b9050919050565b60006020820190508181036000830152620023268162001ddb565b9050919050565b60006020820190508181036000830152620023488162001e1d565b9050919050565b600060208201905081810360008301526200236a8162001ec7565b9050919050565b600060208201905081810360008301526200238c8162001f2f565b9050919050565b60006020820190508181036000830152620023ae8162001f97565b9050919050565b6000606082019050620023cc600083018462001fff565b92915050565b60006020820190508181036000830152620023ee818462002047565b905092915050565b6000602082019050818103600083015262002412818462002135565b905092915050565b6000602082019050620024316000830184620021b1565b92915050565b600060e0820190506200244e600083018b620021b1565b81810360208301526200246381898b62001c78565b9050620024746040830188620021b1565b620024836060830187620021b1565b620024926080830186620021b1565b620024a160a0830185620021b1565b620024b060c0830184620021b1565b9998505050505050505050565b6000604082019050620024d46000830185620021b1565b620024e36020830184620021b1565b9392505050565b6000608082019050620025016000830188620021b1565b620025106020830187620021b1565b81810360408301526200252581858762001c78565b905062002536606083018462001c23565b9695505050505050565b600081519050919050565b600082825260208201905092915050565b600082825260208201905092915050565b600081905092915050565b6000620025858262002598565b9050919050565b60008115159050919050565b600073ffffffffffffffffffffffffffffffffffffffff82169050919050565b6000819050919050565b6000620025cf82620025d6565b9050919050565b6000620025e38262002598565b9050919050565b6000620025f782620025fe565b9050919050565b60006200260b8262002598565b9050919050565b82818337600083830152505050565b60005b838110156200264157808201518184015260208101905062002624565b8381111562002651576000848401525b50505050565b6000601f19601f8301169050919050565b620026738162002578565b81146200267f57600080fd5b50565b6200268d816200258c565b81146200269957600080fd5b50565b620026a781620025b8565b8114620026b357600080fd5b5056fe60806040523480156200001157600080fd5b5060405162001dff38038062001dff833981810160405260408110156200003757600080fd5b81019080805160405193929190846401000000008211156200005857600080fd5b838201915060208201858111156200006f57600080fd5b82518660018202830111640100000000821117156200008d57600080fd5b8083526020830192505050908051906020019080838360005b83811015620000c3578082015181840152602081019050620000a6565b50505050905090810190601f168015620000f15780820380516001836020036101000a031916815260200191505b50604052602001805160405193929190846401000000008211156200011557600080fd5b838201915060208201858111156200012c57600080fd5b82518660018202830111640100000000821117156200014a57600080fd5b8083526020830192505050908051906020019080838360005b838110156200018057808201518184015260208101905062000163565b50505050905090810190601f168015620001ae5780820380516001836020036101000a031916815260200191505b5060405250505081818160039080519060200190620001cf92919062000323565b508060049080519060200190620001e892919062000323565b506012600560006101000a81548160ff021916908360ff160217905550505062000218336200022060201b60201c565b5050620003d2565b6000600560019054906101000a900473ffffffffffffffffffffffffffffffffffffffff16905081600560016101000a81548173ffffffffffffffffffffffffffffffffffffffff021916908373ffffffffffffffffffffffffffffffffffffffff1602179055507f0384899bd253d83b23daa4d29aaa2efe0563d1132b43101e9ad667235aeb951b8183604051808373ffffffffffffffffffffffffffffffffffffffff1673ffffffffffffffffffffffffffffffffffffffff1681526020018273ffffffffffffffffffffffffffffffffffffffff1673ffffffffffffffffffffffffffffffffffffffff1681526020019250505060405180910390a15050565b828054600181600116156101000203166002900490600052602060002090601f016020900481019282601f106200036657805160ff191683800117855562000397565b8280016001018555821562000397579182015b828111156200039657825182559160200191906001019062000379565b5b509050620003a69190620003aa565b5090565b620003cf91905b80821115620003cb576000816000905550600101620003b1565b5090565b90565b611a1d80620003e26000396000f3fe608060405234801561001057600080fd5b50600436106100f55760003560e01c806340c10f19116100975780639dc29fac116100665780639dc29fac146104c8578063a457c2d714610516578063a9059cbb1461057c578063dd62ed3e146105e2576100f5565b806340c10f191461035557806370a08231146103a3578063893d20e8146103fb57806395d89b4114610445576100f5565b806318160ddd116100d357806318160ddd1461022757806323b872dd14610245578063313ce567146102cb57806339509351146102ef576100f5565b806306fdde03146100fa578063095ea7b31461017d57806313af4035146101e3575b600080fd5b61010261065a565b6040518080602001828103825283818151815260200191508051906020019080838360005b83811015610142578082015181840152602081019050610127565b50505050905090810190601f16801561016f5780820380516001836020036101000a031916815260200191505b509250505060405180910390f35b6101c96004803603604081101561019357600080fd5b81019080803573ffffffffffffffffffffffffffffffffffffffff169060200190929190803590602001909291905050506106fc565b604051808215151515815260200191505060405180910390f35b610225600480360360208110156101f957600080fd5b81019080803573ffffffffffffffffffffffffffffffffffffffff16906020019092919050505061071a565b005b61022f6107e9565b6040518082815260200191505060405180910390f35b6102b16004803603606081101561025b57600080fd5b81019080803573ffffffffffffffffffffffffffffffffffffffff169060200190929190803573ffffffffffffffffffffffffffffffffffffffff169060200190929190803590602001909291905050506107f3565b604051808215151515815260200191505060405180910390f35b6102d36108cc565b604051808260ff1660ff16815260200191505060405180910390f35b61033b6004803603604081101561030557600080fd5b81019080803573ffffffffffffffffffffffffffffffffffffffff169060200190929190803590602001909291905050506108e3565b604051808215151515815260200191505060405180910390f35b6103a16004803603604081101561036b57600080fd5b81019080803573ffffffffffffffffffffffffffffffffffffffff16906020019092919080359060200190929190505050610996565b005b6103e5600480360360208110156103b957600080fd5b81019080803573ffffffffffffffffffffffffffffffffffffffff169060200190929190505050610a67565b6040518082815260200191505060405180910390f35b610403610aaf565b604051808273ffffffffffffffffffffffffffffffffffffffff1673ffffffffffffffffffffffffffffffffffffffff16815260200191505060405180910390f35b61044d610ad9565b6040518080602001828103825283818151815260200191508051906020019080838360005b8381101561048d578082015181840152602081019050610472565b50505050905090810190601f1680156104ba5780820380516001836020036101000a031916815260200191505b509250505060405180910390f35b610514600480360360408110156104de57600080fd5b81019080803573ffffffffffffffffffffffffffffffffffffffff16906020019092919080359060200190929190505050610b7b565b005b6105626004803603604081101561052c57600080fd5b81019080803573ffffffffffffffffffffffffffffffffffffffff16906020019092919080359060200190929190505050610c4c565b604051808215151515815260200191505060405180910390f35b6105c86004803603604081101561059257600080fd5b81019080803573ffffffffffffffffffffffffffffffffffffffff16906020019092919080359060200190929190505050610d19565b604051808215151515815260200191505060405180910390f35b610644600480360360408110156105f857600080fd5b81019080803573ffffffffffffffffffffffffffffffffffffffff169060200190929190803573ffffffffffffffffffffffffffffffffffffffff169060200190929190505050610d37565b6040518082815260200191505060405180910390f35b606060038054600181600116156101000203166002900480601f0160208091040260200160405190810160405280929190818152602001828054600181600116156101000203166002900480156106f25780601f106106c7576101008083540402835291602001916106f2565b820191906000526020600020905b8154815290600101906020018083116106d557829003601f168201915b5050505050905090565b6000610710610709610dbe565b8484610dc6565b6001905092915050565b3373ffffffffffffffffffffffffffffffffffffffff16600560019054906101000a900473ffffffffffffffffffffffffffffffffffffffff1673ffffffffffffffffffffffffffffffffffffffff16146107dd576040517f08c379a00000000000000000000000000000000000000000000000000000000081526004018080602001828103825260128152602001807f4f776e61626c653a206f6e6c794f776e6572000000000000000000000000000081525060200191505060405180910390fd5b6107e681610fbd565b50565b6000600254905090565b60006108008484846110c0565b6108c18461080c610dbe565b6108bc8560405180606001604052806028815260200161193160289139600160008b73ffffffffffffffffffffffffffffffffffffffff1673ffffffffffffffffffffffffffffffffffffffff1681526020019081526020016000206000610872610dbe565b73ffffffffffffffffffffffffffffffffffffffff1673ffffffffffffffffffffffffffffffffffffffff168152602001908152602001600020546113819092919063ffffffff16565b610dc6565b600190509392505050565b6000600560009054906101000a900460ff16905090565b600061098c6108f0610dbe565b846109878560016000610901610dbe565b73ffffffffffffffffffffffffffffffffffffffff1673ffffffffffffffffffffffffffffffffffffffff16815260200190815260200160002060008973ffffffffffffffffffffffffffffffffffffffff1673ffffffffffffffffffffffffffffffffffffffff1681526020019081526020016000205461144190919063ffffffff16565b610dc6565b6001905092915050565b3373ffffffffffffffffffffffffffffffffffffffff16600560019054906101000a900473ffffffffffffffffffffffffffffffffffffffff1673ffffffffffffffffffffffffffffffffffffffff1614610a59576040517f08c379a00000000000000000000000000000000000000000000000000000000081526004018080602001828103825260128152602001807f4f776e61626c653a206f6e6c794f776e6572000000000000000000000000000081525060200191505060405180910390fd5b610a6382826114c9565b5050565b60008060008373ffffffffffffffffffffffffffffffffffffffff1673ffffffffffffffffffffffffffffffffffffffff168152602001908152602001600020549050919050565b6000600560019054906101000a900473ffffffffffffffffffffffffffffffffffffffff16905090565b606060048054600181600116156101000203166002900480601f016020809104026020016040519081016040528092919081815260200182805460018160011615610100020316600290048015610b715780601f10610b4657610100808354040283529160200191610b71565b820191906000526020600020905b815481529060010190602001808311610b5457829003601f168201915b5050505050905090565b3373ffffffffffffffffffffffffffffffffffffffff16600560019054906101000a900473ffffffffffffffffffffffffffffffffffffffff1673ffffffffffffffffffffffffffffffffffffffff1614610c3e576040517f08c379a00000000000000000000000000000000000000000000000000000000081526004018080602001828103825260128152602001807f4f776e61626c653a206f6e6c794f776e6572000000000000000000000000000081525060200191505060405180910390fd5b610c488282611690565b5050565b6000610d0f610c59610dbe565b84610d0a856040518060600160405280602581526020016119c36025913960016000610c83610dbe565b73ffffffffffffffffffffffffffffffffffffffff1673ffffffffffffffffffffffffffffffffffffffff16815260200190815260200160002060008a73ffffffffffffffffffffffffffffffffffffffff1673ffffffffffffffffffffffffffffffffffffffff168152602001908152602001600020546113819092919063ffffffff16565b610dc6565b6001905092915050565b6000610d2d610d26610dbe565b84846110c0565b6001905092915050565b6000600160008473ffffffffffffffffffffffffffffffffffffffff1673ffffffffffffffffffffffffffffffffffffffff16815260200190815260200160002060008373ffffffffffffffffffffffffffffffffffffffff1673ffffffffffffffffffffffffffffffffffffffff16815260200190815260200160002054905092915050565b600033905090565b600073ffffffffffffffffffffffffffffffffffffffff168373ffffffffffffffffffffffffffffffffffffffff161415610e4c576040517f08c379a000000000000000000000000000000000000000000000000000000000815260040180806020018281038252602481526020018061199f6024913960400191505060405180910390fd5b600073ffffffffffffffffffffffffffffffffffffffff168273ffffffffffffffffffffffffffffffffffffffff161415610ed2576040517f08c379a00000000000000000000000000000000000000000000000000000000081526004018080602001828103825260228152602001806118e96022913960400191505060405180910390fd5b80600160008573ffffffffffffffffffffffffffffffffffffffff1673ffffffffffffffffffffffffffffffffffffffff16815260200190815260200160002060008473ffffffffffffffffffffffffffffffffffffffff1673ffffffffffffffffffffffffffffffffffffffff168152602001908152602001600020819055508173ffffffffffffffffffffffffffffffffffffffff168373ffffffffffffffffffffffffffffffffffffffff167f8c5be1e5ebec7d5bd14f71427d1e84f3dd0314c0f7b2291e5b200ac8c7c3b925836040518082815260200191505060405180910390a3505050565b6000600560019054906101000a900473ffffffffffffffffffffffffffffffffffffffff16905081600560016101000a81548173ffffffffffffffffffffffffffffffffffffffff021916908373ffffffffffffffffffffffffffffffffffffffff1602179055507f0384899bd253d83b23daa4d29aaa2efe0563d1132b43101e9ad667235aeb951b8183604051808373ffffffffffffffffffffffffffffffffffffffff1673ffffffffffffffffffffffffffffffffffffffff1681526020018273ffffffffffffffffffffffffffffffffffffffff1673ffffffffffffffffffffffffffffffffffffffff1681526020019250505060405180910390a15050565b600073ffffffffffffffffffffffffffffffffffffffff168373ffffffffffffffffffffffffffffffffffffffff161415611146576040517f08c379a000000000000000000000000000000000000000000000000000000000815260040180806020018281038252602581526020018061197a6025913960400191505060405180910390fd5b600073ffffffffffffffffffffffffffffffffffffffff168273ffffffffffffffffffffffffffffffffffffffff1614156111cc576040517f08c379a00000000000000000000000000000000000000000000000000000000081526004018080602001828103825260238152602001806118a46023913960400191505060405180910390fd5b6111d7838383611854565b6112428160405180606001604052806026815260200161190b602691396000808773ffffffffffffffffffffffffffffffffffffffff1673ffffffffffffffffffffffffffffffffffffffff168152602001908152602001600020546113819092919063ffffffff16565b6000808573ffffffffffffffffffffffffffffffffffffffff1673ffffffffffffffffffffffffffffffffffffffff168152602001908152602001600020819055506112d5816000808573ffffffffffffffffffffffffffffffffffffffff1673ffffffffffffffffffffffffffffffffffffffff1681526020019081526020016000205461144190919063ffffffff16565b6000808473ffffffffffffffffffffffffffffffffffffffff1673ffffffffffffffffffffffffffffffffffffffff168152602001908152602001600020819055508173ffffffffffffffffffffffffffffffffffffffff168373ffffffffffffffffffffffffffffffffffffffff167fddf252ad1be2c89b69c2b068fc378daa952ba7f163c4a11628f55a4df523b3ef836040518082815260200191505060405180910390a3505050565b600083831115829061142e576040517f08c379a00000000000000000000000000000000000000000000000000000000081526004018080602001828103825283818151815260200191508051906020019080838360005b838110156113f35780820151818401526020810190506113d8565b50505050905090810190601f1680156114205780820380516001836020036101000a031916815260200191505b509250505060405180910390fd5b5060008385039050809150509392505050565b6000808284019050838110156114bf576040517f08c379a000000000000000000000000000000000000000000000000000000000815260040180806020018281038252601b8152602001807f536166654d6174683a206164646974696f6e206f766572666c6f77000000000081525060200191505060405180910390fd5b8091505092915050565b600073ffffffffffffffffffffffffffffffffffffffff168273ffffffffffffffffffffffffffffffffffffffff16141561156c576040517f08c379a000000000000000000000000000000000000000000000000000000000815260040180806020018281038252601f8152602001807f45524332303a206d696e7420746f20746865207a65726f20616464726573730081525060200191505060405180910390fd5b61157860008383611854565b61158d8160025461144190919063ffffffff16565b6002819055506115e4816000808573ffffffffffffffffffffffffffffffffffffffff1673ffffffffffffffffffffffffffffffffffffffff1681526020019081526020016000205461144190919063ffffffff16565b6000808473ffffffffffffffffffffffffffffffffffffffff1673ffffffffffffffffffffffffffffffffffffffff168152602001908152602001600020819055508173ffffffffffffffffffffffffffffffffffffffff16600073ffffffffffffffffffffffffffffffffffffffff167fddf252ad1be2c89b69c2b068fc378daa952ba7f163c4a11628f55a4df523b3ef836040518082815260200191505060405180910390a35050565b600073ffffffffffffffffffffffffffffffffffffffff168273ffffffffffffffffffffffffffffffffffffffff161415611716576040517f08c379a00000000000000000000000000000000000000000000000000000000081526004018080602001828103825260218152602001806119596021913960400191505060405180910390fd5b61172282600083611854565b61178d816040518060600160405280602281526020016118c7602291396000808673ffffffffffffffffffffffffffffffffffffffff1673ffffffffffffffffffffffffffffffffffffffff168152602001908152602001600020546113819092919063ffffffff16565b6000808473ffffffffffffffffffffffffffffffffffffffff1673ffffffffffffffffffffffffffffffffffffffff168152602001908152602001600020819055506117e48160025461185990919063ffffffff16565b600281905550600073ffffffffffffffffffffffffffffffffffffffff168273ffffffffffffffffffffffffffffffffffffffff167fddf252ad1be2c89b69c2b068fc378daa952ba7f163c4a11628f55a4df523b3ef836040518082815260200191505060405180910390a35050565b505050565b600061189b83836040518060400160405280601e81526020017f536166654d6174683a207375627472616374696f6e206f766572666c6f770000815250611381565b90509291505056fe45524332303a207472616e7366657220746f20746865207a65726f206164647265737345524332303a206275726e20616d6f756e7420657863656564732062616c616e636545524332303a20617070726f766520746f20746865207a65726f206164647265737345524332303a207472616e7366657220616d6f756e7420657863656564732062616c616e636545524332303a207472616e7366657220616d6f756e74206578636565647320616c6c6f77616e636545524332303a206275726e2066726f6d20746865207a65726f206164647265737345524332303a207472616e736665722066726f6d20746865207a65726f206164647265737345524332303a20617070726f76652066726f6d20746865207a65726f206164647265737345524332303a2064656372656173656420616c6c6f77616e63652062656c6f77207a65726fa26469706673582212206389d5bf4072cfd67060e999d310f070a4cefc5c2e3e6f46b87b77cb51c8dbee64736f6c63430006090033a2646970667358221220a04deed3ac5f706da39c4cff8f778d5f4a43028068a35e1b2fc02f8dccba2b0864736f6c63430006090033",
  "immutableReferences": {},
  "source": "// SPDX-License-Identifier: MIT\r\npragma solidity ^0.6.9;\r\npragma experimental ABIEncoderV2;\r\n\r\nimport \"../util/Initializable.sol\";\r\nimport \"@openzeppelin/contracts/math/SafeMath.sol\";\r\nimport \"../util/Ownable.sol\";\r\nimport \"./IIdeaTokenFactory.sol\";\r\nimport \"./IdeaToken.sol\";\r\nimport \"./IIdeaToken.sol\";\r\nimport \"./nameVerifiers/IIdeaTokenNameVerifier.sol\";\r\n\r\n/**\r\n * @title IdeaTokenFactory\r\n * @author Alexander Schlindwein\r\n *\r\n * @dev Manages the creation, exchange and interest distribution of IdeaTokens. Sits behind a proxy\r\n */\r\ncontract IdeaTokenFactory is IIdeaTokenFactory, Initializable, Ownable {\r\n\r\n    using SafeMath for uint256;\r\n\r\n    struct MarketInfo {\r\n        mapping(uint => TokenInfo) tokens;\r\n        mapping(string => uint) tokenIDs;\r\n\r\n        MarketDetails marketDetails;\r\n    }\r\n\r\n    address _ideaTokenExchange;\r\n\r\n    mapping(address => IDPair) _tokenIDPairs;\r\n\r\n    mapping(uint => MarketInfo) _markets;\r\n    mapping(string => uint) _marketIDs;\r\n    uint _numMarkets;\r\n\r\n    /// @dev We want token names to be unique across markets, so we keep track of them in a seperate map\r\n    mapping(string => bool) _tokenNameUsed;\r\n\r\n    event NewMarket(uint id,\r\n                    string name,\r\n                    uint baseCost,\r\n                    uint priceRise,\r\n                    uint tokensPerInterval,\r\n                    uint tradingFeeRate,\r\n                    uint platformFeeRate);\r\n\r\n    event NewToken(uint id, uint marketID, string name, address addr);\r\n    event NewTradingFee(uint marketID, uint tradingFeeRate);\r\n    event NewPlatformFee(uint marketID, uint platformFeeRate);\r\n\r\n    /**\r\n     * @dev Initializes the contract\r\n     *\r\n     * @param owner The owner of the contract\r\n     */\r\n    function initialize(address owner, address ideaTokenExchange) external initializer {\r\n        setOwnerInternal(owner);\r\n        _ideaTokenExchange = ideaTokenExchange;\r\n    }\r\n\r\n    /**\r\n     * @dev Adds a new market. May only be called by admin\r\n\r\n     * @param marketName The name of the market\r\n     * @param nameVerifier The address of the name verifier\r\n     * @param baseCost: The initial cost in Dai per IdeaToken in the first interval\r\n     * @param priceRise: The price rise in Dai per IdeaToken per completed interval\r\n     * @param tokensPerInterval: The amount of IdeaTokens in each interval\r\n     * @param tradingFeeRate: The trading fee rate\r\n     * @param platformFeeRate: The platform fee rate\r\n     */\r\n    function addMarket(string calldata marketName, address nameVerifier,\r\n                       uint baseCost, uint priceRise, uint tokensPerInterval,\r\n                       uint tradingFeeRate, uint platformFeeRate) external override onlyOwner {\r\n        require(_marketIDs[marketName] == 0, \"addMarket: market exists already\");\r\n        require(baseCost > 0 && priceRise > 0 && tokensPerInterval > 0, \"addMarket: invalid parameters\");\r\n\r\n        uint marketID = ++_numMarkets;\r\n        MarketInfo memory marketInfo = MarketInfo({\r\n            marketDetails: MarketDetails({\r\n                exists: true,\r\n                id: marketID,\r\n                name: marketName,\r\n                nameVerifier: IIdeaTokenNameVerifier(nameVerifier),\r\n                numTokens: 0,\r\n                baseCost: baseCost,\r\n                priceRise: priceRise,\r\n                tokensPerInterval: tokensPerInterval,\r\n                tradingFeeRate: tradingFeeRate,\r\n                platformFeeRate: platformFeeRate\r\n            })\r\n        });\r\n\r\n        _markets[marketID] = marketInfo;\r\n        _marketIDs[marketName] = marketID;\r\n\r\n        emit NewMarket(marketID,\r\n                       marketName,\r\n                       baseCost,\r\n                       priceRise,\r\n                       tokensPerInterval, \r\n                       tradingFeeRate,\r\n                       platformFeeRate);\r\n    }\r\n\r\n    /**\r\n     * @dev Adds a new token.\r\n\r\n     * @param tokenName The name of the token\r\n     * @param marketID The ID of the market\r\n     */\r\n    function addToken(string calldata tokenName, uint marketID) external override {\r\n        MarketInfo storage marketInfo = _markets[marketID];\r\n        require(marketInfo.marketDetails.exists, \"addToken: market does not exist\");\r\n        require(isValidTokenName(tokenName, marketID), \"addToken: name verification failed\");\r\n\r\n        address ideaTokenAddress = address(new IdeaToken(tokenName, \"IDT\"));\r\n        IIdeaToken ideaToken = IIdeaToken(ideaTokenAddress);\r\n        Ownable(ideaTokenAddress).setOwner(_ideaTokenExchange);\r\n\r\n        uint tokenID = ++marketInfo.marketDetails.numTokens;\r\n        TokenInfo memory tokenInfo = TokenInfo({\r\n            exists: true,\r\n            id: tokenID,\r\n            name: tokenName,\r\n            ideaToken: ideaToken\r\n        });\r\n\r\n        marketInfo.tokens[tokenID] = tokenInfo;\r\n        marketInfo.tokenIDs[tokenName] = tokenID;\r\n        _tokenNameUsed[tokenName] = true;\r\n        _tokenIDPairs[address(ideaToken)] = IDPair({\r\n            exists: true,\r\n            marketID: marketID,\r\n            tokenID: tokenID\r\n        });\r\n\r\n        emit NewToken(tokenID, marketID, tokenName, address(ideaToken));\r\n    }\r\n\r\n    /**\r\n     * @dev Checks whether a token name is allowed and not used already\r\n     *\r\n     * @param tokenName The intended token name\r\n     * @param marketID The market on which the token is to be listed\r\n     *\r\n     * @return True if the name is allowed, false otherwise\r\n     */\r\n    function isValidTokenName(string calldata tokenName, uint marketID) public view override returns (bool) {\r\n\r\n        MarketDetails storage marketDetails = _markets[marketID].marketDetails;\r\n\r\n        if(_tokenNameUsed[tokenName] || !marketDetails.nameVerifier.verifyTokenName(tokenName)) {\r\n            return false;\r\n        }\r\n\r\n        return true;\r\n    }\r\n\r\n    /**\r\n     * @dev Returns the market id by the market name\r\n     *\r\n     * @param marketName The market name\r\n     *\r\n     * @return The market id\r\n     */\r\n    function getMarketIDByName(string calldata marketName) external view override returns (uint) {\r\n        return _marketIDs[marketName];\r\n    }\r\n\r\n    /**\r\n     * @dev Returns the market details by the market id\r\n     *\r\n     * @param marketID The market id\r\n     *\r\n     * @return The market details\r\n     */\r\n    function getMarketDetailsByID(uint marketID) external view override returns (MarketDetails memory) {\r\n        return _markets[marketID].marketDetails;\r\n    }\r\n\r\n    /**\r\n     * @dev Returns the market details by the market name\r\n     *\r\n     * @param marketName The market name\r\n     *\r\n     * @return The market details\r\n     */\r\n    function getMarketDetailsByName(string calldata marketName) external view override returns (MarketDetails memory) {\r\n        return _markets[_marketIDs[marketName]].marketDetails;\r\n    }\r\n\r\n    /**\r\n     * @dev Returns the amount of existing markets\r\n     *\r\n     * @return The amount of existing markets\r\n     */\r\n    function getNumMarkets() external view override  returns (uint) {\r\n        return _numMarkets;\r\n    }\r\n\r\n    /**\r\n     * @dev Returns the token id by the token name and market id\r\n     *\r\n     * @param tokenName The token name\r\n     * @param marketID The market id\r\n     *\r\n     * @return The token id\r\n     */\r\n    function getTokenIDByName(string calldata tokenName, uint marketID) external view override returns (uint) {\r\n        return _markets[marketID].tokenIDs[tokenName];\r\n    }\r\n\r\n    /**\r\n     * @dev Returns the token info by the token id and market id\r\n     *\r\n     * @param marketID The market id\r\n     * @param tokenID The token id\r\n     *\r\n     * @return The token info\r\n     */\r\n    function getTokenInfo(uint marketID, uint tokenID) external view override returns (TokenInfo memory) {\r\n        return _markets[marketID].tokens[tokenID];\r\n    }\r\n\r\n    /**\r\n     * @dev Returns the token id pair by the tokens address\r\n     *\r\n     * @param token The tokens address\r\n     *\r\n     * @return The token id pair\r\n     */\r\n    function getTokenIDPair(address token) external view override returns (IDPair memory) {\r\n        return _tokenIDPairs[token];\r\n    }\r\n\r\n    /**\r\n     * @dev Sets the trading fee for a market\r\n     *\r\n     * @param marketID The market id for which to set the trading fee\r\n     * @param tradingFeeRate The trading fee\r\n     */\r\n    function setTradingFee(uint marketID, uint tradingFeeRate) external override onlyOwner {\r\n        MarketDetails storage marketDetails = _markets[marketID].marketDetails;\r\n        require(marketDetails.exists, \"setTradingFee: market does not exist\");\r\n        marketDetails.tradingFeeRate = tradingFeeRate;\r\n        \r\n        emit NewTradingFee(marketID, tradingFeeRate);\r\n    }\r\n\r\n    /**\r\n     * @dev Sets the platform fee for a market\r\n     *\r\n     * @param marketID The market id for which to set the platform fee\r\n     * @param platformFeeRate The platform fee\r\n     */\r\n    function setPlatformFee(uint marketID, uint platformFeeRate) external override onlyOwner {\r\n        MarketDetails storage marketDetails = _markets[marketID].marketDetails;\r\n        require(marketDetails.exists, \"setPlatformFee: market does not exist\");\r\n        marketDetails.platformFeeRate = platformFeeRate;\r\n\r\n        emit NewPlatformFee(marketID, platformFeeRate);\r\n    }\r\n}",
  "sourcePath": "C:/Users/alexa/Desktop/ideamarket-contracts/contracts/core/IdeaTokenFactory.sol",
  "compiler": {
    "name": "solc",
    "version": "0.6.9+commit.3e3065ac.Emscripten.clang"
  },
  "schemaVersion": "3.2.3",
  "updatedAt": "2020-10-16T11:44:22.095Z",
  "networkType": "ethereum",
  "devdoc": {
    "author": "Alexander Schlindwein",
    "details": "Manages the creation, exchange and interest distribution of IdeaTokens. Sits behind a proxy",
    "methods": {
      "addMarket(string,address,uint256,uint256,uint256,uint256,uint256)": {
        "details": "Adds a new market. May only be called by admin",
        "params": {
          "baseCost": ": The initial cost in Dai per IdeaToken in the first interval",
          "marketName": "The name of the market",
          "nameVerifier": "The address of the name verifier",
          "platformFeeRate": ": The platform fee rate",
          "priceRise": ": The price rise in Dai per IdeaToken per completed interval",
          "tokensPerInterval": ": The amount of IdeaTokens in each interval",
          "tradingFeeRate": ": The trading fee rate"
        }
      },
      "addToken(string,uint256)": {
        "details": "Adds a new token.",
        "params": {
          "marketID": "The ID of the market",
          "tokenName": "The name of the token"
        }
      },
      "getMarketDetailsByID(uint256)": {
        "details": "Returns the market details by the market id",
        "params": {
          "marketID": "The market id"
        },
        "returns": {
          "_0": "The market details"
        }
      },
      "getMarketDetailsByName(string)": {
        "details": "Returns the market details by the market name",
        "params": {
          "marketName": "The market name"
        },
        "returns": {
          "_0": "The market details"
        }
      },
      "getMarketIDByName(string)": {
        "details": "Returns the market id by the market name",
        "params": {
          "marketName": "The market name"
        },
        "returns": {
          "_0": "The market id"
        }
      },
      "getNumMarkets()": {
        "details": "Returns the amount of existing markets",
        "returns": {
          "_0": "The amount of existing markets"
        }
      },
      "getTokenIDByName(string,uint256)": {
        "details": "Returns the token id by the token name and market id",
        "params": {
          "marketID": "The market id",
          "tokenName": "The token name"
        },
        "returns": {
          "_0": "The token id"
        }
      },
      "getTokenIDPair(address)": {
        "details": "Returns the token id pair by the tokens address",
        "params": {
          "token": "The tokens address"
        },
        "returns": {
          "_0": "The token id pair"
        }
      },
      "getTokenInfo(uint256,uint256)": {
        "details": "Returns the token info by the token id and market id",
        "params": {
          "marketID": "The market id",
          "tokenID": "The token id"
        },
        "returns": {
          "_0": "The token info"
        }
      },
      "initialize(address,address)": {
        "details": "Initializes the contract",
        "params": {
          "owner": "The owner of the contract"
        }
      },
      "isValidTokenName(string,uint256)": {
        "details": "Checks whether a token name is allowed and not used already",
        "params": {
          "marketID": "The market on which the token is to be listed",
          "tokenName": "The intended token name"
        },
        "returns": {
          "_0": "True if the name is allowed, false otherwise"
        }
      },
      "setPlatformFee(uint256,uint256)": {
        "details": "Sets the platform fee for a market",
        "params": {
          "marketID": "The market id for which to set the platform fee",
          "platformFeeRate": "The platform fee"
        }
      },
      "setTradingFee(uint256,uint256)": {
        "details": "Sets the trading fee for a market",
        "params": {
          "marketID": "The market id for which to set the trading fee",
          "tradingFeeRate": "The trading fee"
        }
      }
    },
    "stateVariables": {
      "_tokenNameUsed": {
        "details": "We want token names to be unique across markets, so we keep track of them in a seperate map"
      }
    },
    "title": "IdeaTokenFactory"
  },
  "userdoc": {
    "methods": {}
  }
}