{
  "contractName": "IdeaTokenExchange",
  "abi": [
    {
      "anonymous": false,
      "inputs": [
        {
          "indexed": false,
          "internalType": "address",
          "name": "ideaToken",
          "type": "address"
        },
        {
          "indexed": false,
          "internalType": "uint256",
          "name": "daiInToken",
          "type": "uint256"
        },
        {
          "indexed": false,
          "internalType": "uint256",
          "name": "investmentToken",
          "type": "uint256"
        }
      ],
      "name": "DaiInvested",
      "type": "event"
    },
    {
      "anonymous": false,
      "inputs": [
        {
          "indexed": false,
          "internalType": "address",
          "name": "ideaToken",
          "type": "address"
        },
        {
          "indexed": false,
          "internalType": "address",
          "name": "withdrawer",
          "type": "address"
        }
      ],
      "name": "NewInterestWithdrawer",
      "type": "event"
    },
    {
      "anonymous": false,
      "inputs": [
        {
          "indexed": false,
          "internalType": "uint256",
          "name": "marketID",
          "type": "uint256"
        },
        {
          "indexed": false,
          "internalType": "address",
          "name": "withdrawer",
          "type": "address"
        }
      ],
      "name": "NewPlatformFeeWithdrawer",
      "type": "event"
    },
    {
      "anonymous": false,
      "inputs": [
        {
          "indexed": false,
          "internalType": "address",
          "name": "oldOwner",
          "type": "address"
        },
        {
          "indexed": false,
          "internalType": "address",
          "name": "newOwner",
          "type": "address"
        }
      ],
      "name": "OwnershipChanged",
      "type": "event"
    },
    {
      "anonymous": false,
      "inputs": [
        {
          "indexed": false,
          "internalType": "uint256",
          "name": "marketID",
          "type": "uint256"
        },
        {
          "indexed": false,
          "internalType": "uint256",
          "name": "investmentToken",
          "type": "uint256"
        }
      ],
      "name": "PlatformFeeInvested",
      "type": "event"
    },
    {
      "anonymous": false,
      "inputs": [
        {
          "indexed": false,
          "internalType": "address",
          "name": "ideaToken",
          "type": "address"
        },
        {
          "indexed": false,
          "internalType": "uint256",
          "name": "amount",
          "type": "uint256"
        },
        {
          "indexed": false,
          "internalType": "uint256",
          "name": "rawCost",
          "type": "uint256"
        },
        {
          "indexed": false,
          "internalType": "uint256",
          "name": "finalCost",
          "type": "uint256"
        }
      ],
      "name": "TokensBought",
      "type": "event"
    },
    {
      "anonymous": false,
      "inputs": [
        {
          "indexed": false,
          "internalType": "address",
          "name": "ideaToken",
          "type": "address"
        },
        {
          "indexed": false,
          "internalType": "uint256",
          "name": "amount",
          "type": "uint256"
        },
        {
          "indexed": false,
          "internalType": "uint256",
          "name": "rawPrice",
          "type": "uint256"
        },
        {
          "indexed": false,
          "internalType": "uint256",
          "name": "finalPrice",
          "type": "uint256"
        }
      ],
      "name": "TokensSold",
      "type": "event"
    },
    {
      "anonymous": false,
      "inputs": [
        {
          "indexed": false,
          "internalType": "uint256",
          "name": "investmentToken",
          "type": "uint256"
        }
      ],
      "name": "TradingFeeInvested",
      "type": "event"
    },
    {
      "inputs": [],
      "name": "getOwner",
      "outputs": [
        {
          "internalType": "address",
          "name": "",
          "type": "address"
        }
      ],
      "stateMutability": "view",
      "type": "function",
      "constant": true
    },
    {
      "inputs": [
        {
          "internalType": "address",
          "name": "newOwner",
          "type": "address"
        }
      ],
      "name": "setOwner",
      "outputs": [],
      "stateMutability": "nonpayable",
      "type": "function"
    },
    {
      "inputs": [
        {
          "internalType": "address",
          "name": "owner",
          "type": "address"
        },
        {
          "internalType": "address",
          "name": "authorizer",
          "type": "address"
        },
        {
          "internalType": "address",
          "name": "tradingFeeRecipient",
          "type": "address"
        },
        {
          "internalType": "address",
          "name": "interestManager",
          "type": "address"
        },
        {
          "internalType": "address",
          "name": "dai",
          "type": "address"
        }
      ],
      "name": "initialize",
      "outputs": [],
      "stateMutability": "nonpayable",
      "type": "function"
    },
    {
      "inputs": [
        {
          "internalType": "address",
          "name": "ideaToken",
          "type": "address"
        },
        {
          "internalType": "uint256",
          "name": "amount",
          "type": "uint256"
        },
        {
          "internalType": "uint256",
          "name": "minPrice",
          "type": "uint256"
        },
        {
          "internalType": "address",
          "name": "recipient",
          "type": "address"
        }
      ],
      "name": "sellTokens",
      "outputs": [],
      "stateMutability": "nonpayable",
      "type": "function"
    },
    {
      "inputs": [
        {
          "internalType": "address",
          "name": "ideaToken",
          "type": "address"
        },
        {
          "internalType": "uint256",
          "name": "amount",
          "type": "uint256"
        }
      ],
      "name": "getPriceForSellingTokens",
      "outputs": [
        {
          "internalType": "uint256",
          "name": "",
          "type": "uint256"
        }
      ],
      "stateMutability": "view",
      "type": "function",
      "constant": true
    },
    {
      "inputs": [
        {
          "internalType": "address",
          "name": "ideaToken",
          "type": "address"
        },
        {
          "internalType": "uint256",
          "name": "amount",
          "type": "uint256"
        },
        {
          "internalType": "uint256",
          "name": "fallbackAmount",
          "type": "uint256"
        },
        {
          "internalType": "uint256",
          "name": "cost",
          "type": "uint256"
        },
        {
          "internalType": "address",
          "name": "recipient",
          "type": "address"
        }
      ],
      "name": "buyTokens",
      "outputs": [],
      "stateMutability": "nonpayable",
      "type": "function"
    },
    {
      "inputs": [
        {
          "internalType": "address",
          "name": "ideaToken",
          "type": "address"
        },
        {
          "internalType": "uint256",
          "name": "amount",
          "type": "uint256"
        }
      ],
      "name": "getCostForBuyingTokens",
      "outputs": [
        {
          "internalType": "uint256",
          "name": "",
          "type": "uint256"
        }
      ],
      "stateMutability": "view",
      "type": "function",
      "constant": true
    },
    {
      "inputs": [
        {
          "internalType": "address",
          "name": "token",
          "type": "address"
        }
      ],
      "name": "withdrawInterest",
      "outputs": [],
      "stateMutability": "nonpayable",
      "type": "function"
    },
    {
      "inputs": [
        {
          "internalType": "address",
          "name": "token",
          "type": "address"
        }
      ],
      "name": "getInterestPayable",
      "outputs": [
        {
          "internalType": "uint256",
          "name": "",
          "type": "uint256"
        }
      ],
      "stateMutability": "view",
      "type": "function",
      "constant": true
    },
    {
      "inputs": [
        {
          "internalType": "address",
          "name": "token",
          "type": "address"
        },
        {
          "internalType": "address",
          "name": "withdrawer",
          "type": "address"
        }
      ],
      "name": "authorizeInterestWithdrawer",
      "outputs": [],
      "stateMutability": "nonpayable",
      "type": "function"
    },
    {
      "inputs": [
        {
          "internalType": "uint256",
          "name": "marketID",
          "type": "uint256"
        }
      ],
      "name": "withdrawPlatformFee",
      "outputs": [],
      "stateMutability": "nonpayable",
      "type": "function"
    },
    {
      "inputs": [
        {
          "internalType": "uint256",
          "name": "marketID",
          "type": "uint256"
        }
      ],
      "name": "getPlatformFeePayable",
      "outputs": [
        {
          "internalType": "uint256",
          "name": "",
          "type": "uint256"
        }
      ],
      "stateMutability": "view",
      "type": "function",
      "constant": true
    },
    {
      "inputs": [
        {
          "internalType": "uint256",
          "name": "marketID",
          "type": "uint256"
        },
        {
          "internalType": "address",
          "name": "withdrawer",
          "type": "address"
        }
      ],
      "name": "authorizePlatformFeeWithdrawer",
      "outputs": [],
      "stateMutability": "nonpayable",
      "type": "function"
    },
    {
      "inputs": [],
      "name": "withdrawTradingFee",
      "outputs": [],
      "stateMutability": "nonpayable",
      "type": "function"
    },
    {
      "inputs": [],
      "name": "getTradingFeePayable",
      "outputs": [
        {
          "internalType": "uint256",
          "name": "",
          "type": "uint256"
        }
      ],
      "stateMutability": "view",
      "type": "function",
      "constant": true
    },
    {
      "inputs": [
        {
          "internalType": "address",
          "name": "authorizer",
          "type": "address"
        }
      ],
      "name": "setAuthorizer",
      "outputs": [],
      "stateMutability": "nonpayable",
      "type": "function"
    },
    {
      "inputs": [
        {
          "internalType": "address",
          "name": "factory",
          "type": "address"
        }
      ],
      "name": "setIdeaTokenFactoryAddress",
      "outputs": [],
      "stateMutability": "nonpayable",
      "type": "function"
    }
  ],
  "bytecode": "0x608060405234801561001057600080fd5b506144e0806100206000396000f3fe608060405234801561001057600080fd5b506004361061010a5760003560e01c806368b5e647116100a2578063aa556e0b11610071578063aa556e0b146102a1578063af45f322146102bd578063cc09125f146102d9578063dde7c190146102f5578063e5aa7d35146103115761010a565b806368b5e6471461022b578063818b97561461025b578063893d20e8146102795780639b44e71c146102975761010a565b80631459457a116100de5780631459457a14610193578063159fc8f8146101af57806342de842b146101cb578063577aca59146101fb5761010a565b80628db8801461010f578063058a628f1461013f578063130362b31461015b57806313af403514610177575b600080fd5b6101296004803603810190610124919061390c565b61032d565b604051610136919061425d565b60405180910390f35b61015960048036038101906101549190613687565b6103f4565b005b6101756004803603810190610170919061395e565b6104c8565b005b610191600480360381019061018c9190613687565b6107aa565b005b6101ad60048036038101906101a891906136ec565b610846565b005b6101c960048036038101906101c491906136b0565b610a41565b005b6101e560048036038101906101e09190613763565b610da7565b6040516101f2919061425d565b60405180910390f35b61021560048036038101906102109190613687565b610dc3565b604051610222919061425d565b60405180910390f35b61024560048036038101906102409190613763565b610ed4565b604051610252919061425d565b60405180910390f35b610263610ef0565b604051610270919061425d565b60405180910390f35b610281610fa4565b60405161028e9190613eb3565b60405180910390f35b61029f610fce565b005b6102bb60048036038101906102b6919061379f565b6110fb565b005b6102d760048036038101906102d29190613687565b6119aa565b005b6102f360048036038101906102ee9190613802565b611c6e565b005b61030f600480360381019061030a919061390c565b61264c565b005b61032b60048036038101906103269190613687565b612893565b005b6000603c60009054906101000a900473ffffffffffffffffffffffffffffffffffffffff1673ffffffffffffffffffffffffffffffffffffffff1663d84d5e9060376000858152602001908152602001600020546040518263ffffffff1660e01b815260040161039d919061425d565b60206040518083038186803b1580156103b557600080fd5b505afa1580156103c9573d6000803e3d6000fd5b505050506040513d601f19601f820116820180604052508101906103ed9190613935565b9050919050565b3373ffffffffffffffffffffffffffffffffffffffff16603360009054906101000a900473ffffffffffffffffffffffffffffffffffffffff1673ffffffffffffffffffffffffffffffffffffffff1614610484576040517f08c379a000000000000000000000000000000000000000000000000000000000815260040161047b906140bd565b60405180910390fd5b80603460006101000a81548173ffffffffffffffffffffffffffffffffffffffff021916908373ffffffffffffffffffffffffffffffffffffffff16021790555050565b60006038600084815260200190815260200160002060009054906101000a900473ffffffffffffffffffffffffffffffffffffffff169050600073ffffffffffffffffffffffffffffffffffffffff168173ffffffffffffffffffffffffffffffffffffffff161480156105e15750603360009054906101000a900473ffffffffffffffffffffffffffffffffffffffff1673ffffffffffffffffffffffffffffffffffffffff163373ffffffffffffffffffffffffffffffffffffffff1614806105e05750603460009054906101000a900473ffffffffffffffffffffffffffffffffffffffff1673ffffffffffffffffffffffffffffffffffffffff163373ffffffffffffffffffffffffffffffffffffffff16145b5b806106db5750600073ffffffffffffffffffffffffffffffffffffffff168173ffffffffffffffffffffffffffffffffffffffff16141580156106da5750603360009054906101000a900473ffffffffffffffffffffffffffffffffffffffff1673ffffffffffffffffffffffffffffffffffffffff163373ffffffffffffffffffffffffffffffffffffffff1614806106d957506038600084815260200190815260200160002060009054906101000a900473ffffffffffffffffffffffffffffffffffffffff1673ffffffffffffffffffffffffffffffffffffffff163373ffffffffffffffffffffffffffffffffffffffff16145b5b5b61071a576040517f08c379a00000000000000000000000000000000000000000000000000000000081526004016107119061411d565b60405180910390fd5b816038600085815260200190815260200160002060006101000a81548173ffffffffffffffffffffffffffffffffffffffff021916908373ffffffffffffffffffffffffffffffffffffffff1602179055507f92fce6abb44de882f8e06427853d14084ef5fd2d495828dfdcb38d1f5ad0aa50838360405161079d929190614278565b60405180910390a1505050565b3373ffffffffffffffffffffffffffffffffffffffff16603360009054906101000a900473ffffffffffffffffffffffffffffffffffffffff1673ffffffffffffffffffffffffffffffffffffffff161461083a576040517f08c379a0000000000000000000000000000000000000000000000000000000008152600401610831906140bd565b60405180910390fd5b610843816129c2565b50565b600060019054906101000a900460ff16806108655750610864612a67565b5b8061087c57506000809054906101000a900460ff16155b6108bb576040517f08c379a00000000000000000000000000000000000000000000000000000000081526004016108b29061417d565b60405180910390fd5b60008060019054906101000a900460ff16159050801561090b576001600060016101000a81548160ff02191690831515021790555060016000806101000a81548160ff0219169083151502179055505b610914866129c2565b84603460006101000a81548173ffffffffffffffffffffffffffffffffffffffff021916908373ffffffffffffffffffffffffffffffffffffffff16021790555083603660006101000a81548173ffffffffffffffffffffffffffffffffffffffff021916908373ffffffffffffffffffffffffffffffffffffffff16021790555082603c60006101000a81548173ffffffffffffffffffffffffffffffffffffffff021916908373ffffffffffffffffffffffffffffffffffffffff16021790555081603d60006101000a81548173ffffffffffffffffffffffffffffffffffffffff021916908373ffffffffffffffffffffffffffffffffffffffff1602179055508015610a395760008060016101000a81548160ff0219169083151502179055505b505050505050565b6000603a60008473ffffffffffffffffffffffffffffffffffffffff1673ffffffffffffffffffffffffffffffffffffffff16815260200190815260200160002060009054906101000a900473ffffffffffffffffffffffffffffffffffffffff169050600073ffffffffffffffffffffffffffffffffffffffff168173ffffffffffffffffffffffffffffffffffffffff16148015610b865750603360009054906101000a900473ffffffffffffffffffffffffffffffffffffffff1673ffffffffffffffffffffffffffffffffffffffff163373ffffffffffffffffffffffffffffffffffffffff161480610b855750603460009054906101000a900473ffffffffffffffffffffffffffffffffffffffff1673ffffffffffffffffffffffffffffffffffffffff163373ffffffffffffffffffffffffffffffffffffffff16145b5b80610cac5750600073ffffffffffffffffffffffffffffffffffffffff168173ffffffffffffffffffffffffffffffffffffffff1614158015610cab5750603360009054906101000a900473ffffffffffffffffffffffffffffffffffffffff1673ffffffffffffffffffffffffffffffffffffffff163373ffffffffffffffffffffffffffffffffffffffff161480610caa5750603a60008473ffffffffffffffffffffffffffffffffffffffff1673ffffffffffffffffffffffffffffffffffffffff16815260200190815260200160002060009054906101000a900473ffffffffffffffffffffffffffffffffffffffff1673ffffffffffffffffffffffffffffffffffffffff163373ffffffffffffffffffffffffffffffffffffffff16145b5b5b610ceb576040517f08c379a0000000000000000000000000000000000000000000000000000000008152600401610ce29061415d565b60405180910390fd5b81603a60008573ffffffffffffffffffffffffffffffffffffffff1673ffffffffffffffffffffffffffffffffffffffff16815260200190815260200160002060006101000a81548173ffffffffffffffffffffffffffffffffffffffff021916908373ffffffffffffffffffffffffffffffffffffffff1602179055507f7a6722ef357887178c9cf10a97427a4c452d6f8d8061aacd3d008016533a89ff8383604051610d9a929190613f72565b60405180910390a1505050565b600080610db48484612a7e565b50505090508091505092915050565b600080603960008473ffffffffffffffffffffffffffffffffffffffff1673ffffffffffffffffffffffffffffffffffffffff1681526020019081526020016000209050610ecc8160000154603c60009054906101000a900473ffffffffffffffffffffffffffffffffffffffff1673ffffffffffffffffffffffffffffffffffffffff1663d84d5e9084600101546040518263ffffffff1660e01b8152600401610e6e919061425d565b60206040518083038186803b158015610e8657600080fd5b505afa158015610e9a573d6000803e3d6000fd5b505050506040513d601f19601f82011682018060405250810190610ebe9190613935565b612d2f90919063ffffffff16565b915050919050565b600080610ee18484612d79565b50505090508091505092915050565b6000603c60009054906101000a900473ffffffffffffffffffffffffffffffffffffffff1673ffffffffffffffffffffffffffffffffffffffff1663d84d5e906035546040518263ffffffff1660e01b8152600401610f4f919061425d565b60206040518083038186803b158015610f6757600080fd5b505afa158015610f7b573d6000803e3d6000fd5b505050506040513d601f19601f82011682018060405250810190610f9f9190613935565b905090565b6000603360009054906101000a900473ffffffffffffffffffffffffffffffffffffffff16905090565b60006035541415610fde576110f9565b600060355490506000603581905550603c60009054906101000a900473ffffffffffffffffffffffffffffffffffffffff1673ffffffffffffffffffffffffffffffffffffffff1663f3e08e1f603660009054906101000a900473ffffffffffffffffffffffffffffffffffffffff16836040518363ffffffff1660e01b815260040161106c929190613f9b565b602060405180830381600087803b15801561108657600080fd5b505af115801561109a573d6000803e3d6000fd5b505050506040513d601f19601f820116820180604052508101906110be9190613935565b507fd6b0cdd3144d995a863b23666258e8ff856859a28147a5138f64264defe5852760006040516110ef9190614040565b60405180910390a1505b565b6111036133ef565b603b60009054906101000a900473ffffffffffffffffffffffffffffffffffffffff1673ffffffffffffffffffffffffffffffffffffffff16633911283a866040518263ffffffff1660e01b815260040161115e9190613eb3565b60606040518083038186803b15801561117657600080fd5b505afa15801561118a573d6000803e3d6000fd5b505050506040513d601f19601f820116820180604052508101906111ae91906138a2565b905080600001516111f4576040517f08c379a00000000000000000000000000000000000000000000000000000000081526004016111eb906140fd565b60405180910390fd5b6111fc613412565b603b60009054906101000a900473ffffffffffffffffffffffffffffffffffffffff1673ffffffffffffffffffffffffffffffffffffffff1663c7d5fe5583602001516040518263ffffffff1660e01b815260040161125b919061425d565b60006040518083038186803b15801561127357600080fd5b505afa158015611287573d6000803e3d6000fd5b505050506040513d6000823e3d601f19601f820116820180604052508101906112b091906138cb565b90506000806000806112c28a8a612d79565b93509350935093508784101561130d576040517f08c379a00000000000000000000000000000000000000000000000000000000081526004016113049061421d565b60405180910390fd5b888a73ffffffffffffffffffffffffffffffffffffffff166370a08231336040518263ffffffff1660e01b81526004016113479190613ece565b60206040518083038186803b15801561135f57600080fd5b505afa158015611373573d6000803e3d6000fd5b505050506040513d601f19601f820116820180604052508101906113979190613935565b10156113d8576040517f08c379a00000000000000000000000000000000000000000000000000000000081526004016113cf906141dd565b60405180910390fd5b8973ffffffffffffffffffffffffffffffffffffffff16639dc29fac338b6040518363ffffffff1660e01b8152600401611413929190613f49565b600060405180830381600087803b15801561142d57600080fd5b505af1158015611441573d6000803e3d6000fd5b50505050603c60009054906101000a900473ffffffffffffffffffffffffffffffffffffffff1673ffffffffffffffffffffffffffffffffffffffff1663a6afed956040518163ffffffff1660e01b8152600401600060405180830381600087803b1580156114af57600080fd5b505af11580156114c3573d6000803e3d6000fd5b505050506000603c60009054906101000a900473ffffffffffffffffffffffffffffffffffffffff1673ffffffffffffffffffffffffffffffffffffffff16631e9a695030876040518363ffffffff1660e01b8152600401611526929190613f9b565b602060405180830381600087803b15801561154057600080fd5b505af1158015611554573d6000803e3d6000fd5b505050506040513d601f19601f820116820180604052508101906115789190613935565b90506000603c60009054906101000a900473ffffffffffffffffffffffffffffffffffffffff1673ffffffffffffffffffffffffffffffffffffffff1663df6395ce856040518263ffffffff1660e01b81526004016115d7919061425d565b60206040518083038186803b1580156115ef57600080fd5b505afa158015611603573d6000803e3d6000fd5b505050506040513d601f19601f820116820180604052508101906116279190613935565b90506000603c60009054906101000a900473ffffffffffffffffffffffffffffffffffffffff1673ffffffffffffffffffffffffffffffffffffffff1663df6395ce856040518263ffffffff1660e01b8152600401611686919061425d565b60206040518083038186803b15801561169e57600080fd5b505afa1580156116b2573d6000803e3d6000fd5b505050506040513d601f19601f820116820180604052508101906116d69190613935565b90506000603960008f73ffffffffffffffffffffffffffffffffffffffff1673ffffffffffffffffffffffffffffffffffffffff168152602001908152602001600020905061175661174383611735868861302a90919063ffffffff16565b61302a90919063ffffffff16565b8260010154612d2f90919063ffffffff16565b81600101819055506117738360355461302a90919063ffffffff16565b6035819055506117a382603760008c6020015181526020019081526020016000205461302a90919063ffffffff16565b603760008b602001518152602001908152602001600020819055506117d5878260000154612d2f90919063ffffffff16565b81600001819055507f6db63bebf1e6540277744df32846ebdb98385b1a73f2d5de49b28348add63f508e8e898b6040516118129493929190613ffb565b60405180910390a17fabe3032c085c7d42f2183eb46dcf8607c6e04d221d6f9920c7291ee18e9c59b68e8260000154836001015460405161185593929190613fc4565b60405180910390a17fd6b0cdd3144d995a863b23666258e8ff856859a28147a5138f64264defe5852760355460405161188e919061425d565b60405180910390a17f5c2982642443bff7429db96062d667a54f7c06c0294cefab1986a8e56d78d2a18960200151603760008c602001518152602001908152602001600020546040516118e29291906142ca565b60405180910390a1603d60009054906101000a900473ffffffffffffffffffffffffffffffffffffffff1673ffffffffffffffffffffffffffffffffffffffff1663a9059cbb8c8a6040518363ffffffff1660e01b8152600401611947929190613f9b565b602060405180830381600087803b15801561196157600080fd5b505af1158015611975573d6000803e3d6000fd5b505050506040513d601f19601f820116820180604052508101906119999190613879565b505050505050505050505050505050565b3373ffffffffffffffffffffffffffffffffffffffff16603a60008373ffffffffffffffffffffffffffffffffffffffff1673ffffffffffffffffffffffffffffffffffffffff16815260200190815260200160002060009054906101000a900473ffffffffffffffffffffffffffffffffffffffff1673ffffffffffffffffffffffffffffffffffffffff1614611a77576040517f08c379a0000000000000000000000000000000000000000000000000000000008152600401611a6e9061407d565b60405180910390fd5b603c60009054906101000a900473ffffffffffffffffffffffffffffffffffffffff1673ffffffffffffffffffffffffffffffffffffffff1663a6afed956040518163ffffffff1660e01b8152600401600060405180830381600087803b158015611ae157600080fd5b505af1158015611af5573d6000803e3d6000fd5b505050506000611b0482610dc3565b90506000811415611b155750611c6b565b6000603960008473ffffffffffffffffffffffffffffffffffffffff1673ffffffffffffffffffffffffffffffffffffffff1681526020019081526020016000209050611c1d603c60009054906101000a900473ffffffffffffffffffffffffffffffffffffffff1673ffffffffffffffffffffffffffffffffffffffff16631e9a695033856040518363ffffffff1660e01b8152600401611bb8929190613f49565b602060405180830381600087803b158015611bd257600080fd5b505af1158015611be6573d6000803e3d6000fd5b505050506040513d601f19601f82011682018060405250810190611c0a9190613935565b8260010154612d2f90919063ffffffff16565b81600101819055507fabe3032c085c7d42f2183eb46dcf8607c6e04d221d6f9920c7291ee18e9c59b68382600001548360010154604051611c6093929190613fc4565b60405180910390a150505b50565b611c766133ef565b603b60009054906101000a900473ffffffffffffffffffffffffffffffffffffffff1673ffffffffffffffffffffffffffffffffffffffff16633911283a876040518263ffffffff1660e01b8152600401611cd19190613eb3565b60606040518083038186803b158015611ce957600080fd5b505afa158015611cfd573d6000803e3d6000fd5b505050506040513d601f19601f82011682018060405250810190611d2191906138a2565b90508060000151611d67576040517f08c379a0000000000000000000000000000000000000000000000000000000008152600401611d5e9061423d565b60405180910390fd5b611d6f613412565b603b60009054906101000a900473ffffffffffffffffffffffffffffffffffffffff1673ffffffffffffffffffffffffffffffffffffffff1663c7d5fe5583602001516040518263ffffffff1660e01b8152600401611dce919061425d565b60006040518083038186803b158015611de657600080fd5b505afa158015611dfa573d6000803e3d6000fd5b505050506040513d6000823e3d601f19601f82011682018060405250810190611e2391906138cb565b90506000869050600080600080611e3a8c86612a7e565b8094508195508296508397505050505088841115611eb357899450611e5f8c86612a7e565b8094508195508296508397505050505088841115611eb2576040517f08c379a0000000000000000000000000000000000000000000000000000000008152600401611ea99061409d565b60405180910390fd5b5b83603d60009054906101000a900473ffffffffffffffffffffffffffffffffffffffff1673ffffffffffffffffffffffffffffffffffffffff1663dd62ed3e33306040518363ffffffff1660e01b8152600401611f11929190613ee9565b60206040518083038186803b158015611f2957600080fd5b505afa158015611f3d573d6000803e3d6000fd5b505050506040513d601f19601f82011682018060405250810190611f619190613935565b1015611fa2576040517f08c379a0000000000000000000000000000000000000000000000000000000008152600401611f99906141bd565b60405180910390fd5b603d60009054906101000a900473ffffffffffffffffffffffffffffffffffffffff1673ffffffffffffffffffffffffffffffffffffffff166323b872dd33603c60009054906101000a900473ffffffffffffffffffffffffffffffffffffffff16876040518463ffffffff1660e01b815260040161202393929190613f12565b602060405180830381600087803b15801561203d57600080fd5b505af1158015612051573d6000803e3d6000fd5b505050506040513d601f19601f820116820180604052508101906120759190613879565b6120b4576040517f08c379a00000000000000000000000000000000000000000000000000000000081526004016120ab906141fd565b60405180910390fd5b603c60009054906101000a900473ffffffffffffffffffffffffffffffffffffffff1673ffffffffffffffffffffffffffffffffffffffff1663a6afed956040518163ffffffff1660e01b8152600401600060405180830381600087803b15801561211e57600080fd5b505af1158015612132573d6000803e3d6000fd5b50505050603c60009054906101000a900473ffffffffffffffffffffffffffffffffffffffff1673ffffffffffffffffffffffffffffffffffffffff16632afcf480856040518263ffffffff1660e01b8152600401612191919061425d565b602060405180830381600087803b1580156121ab57600080fd5b505af11580156121bf573d6000803e3d6000fd5b505050506040513d601f19601f820116820180604052508101906121e39190613935565b506000603960008e73ffffffffffffffffffffffffffffffffffffffff1673ffffffffffffffffffffffffffffffffffffffff16815260200190815260200160002090506122e8603c60009054906101000a900473ffffffffffffffffffffffffffffffffffffffff1673ffffffffffffffffffffffffffffffffffffffff1663df6395ce866040518263ffffffff1660e01b8152600401612285919061425d565b60206040518083038186803b15801561229d57600080fd5b505afa1580156122b1573d6000803e3d6000fd5b505050506040513d601f19601f820116820180604052508101906122d59190613935565b826001015461302a90919063ffffffff16565b81600101819055506123af603c60009054906101000a900473ffffffffffffffffffffffffffffffffffffffff1673ffffffffffffffffffffffffffffffffffffffff1663df6395ce856040518263ffffffff1660e01b815260040161234e919061425d565b60206040518083038186803b15801561236657600080fd5b505afa15801561237a573d6000803e3d6000fd5b505050506040513d601f19601f8201168201806040525081019061239e9190613935565b60355461302a90919063ffffffff16565b603581905550612489603c60009054906101000a900473ffffffffffffffffffffffffffffffffffffffff1673ffffffffffffffffffffffffffffffffffffffff1663df6395ce846040518263ffffffff1660e01b8152600401612413919061425d565b60206040518083038186803b15801561242b57600080fd5b505afa15801561243f573d6000803e3d6000fd5b505050506040513d601f19601f820116820180604052508101906124639190613935565b603760008a6020015181526020019081526020016000205461302a90919063ffffffff16565b6037600089602001518152602001908152602001600020819055506124bb84826000015461302a90919063ffffffff16565b81600001819055507f22f6af6e13430e3e7b6418d01e6a48c1fbce5e8cb1698901fc95134b4b1c58ad8d8786886040516124f89493929190613ffb565b60405180910390a17fabe3032c085c7d42f2183eb46dcf8607c6e04d221d6f9920c7291ee18e9c59b68d8260000154836001015460405161253b93929190613fc4565b60405180910390a17fd6b0cdd3144d995a863b23666258e8ff856859a28147a5138f64264defe58527603554604051612574919061425d565b60405180910390a17f5c2982642443bff7429db96062d667a54f7c06c0294cefab1986a8e56d78d2a18760200151603760008a602001518152602001908152602001600020546040516125c89291906142ca565b60405180910390a18c73ffffffffffffffffffffffffffffffffffffffff166340c10f198a886040518363ffffffff1660e01b815260040161260b929190613f9b565b600060405180830381600087803b15801561262557600080fd5b505af1158015612639573d6000803e3d6000fd5b5050505050505050505050505050505050565b3373ffffffffffffffffffffffffffffffffffffffff166038600083815260200190815260200160002060009054906101000a900473ffffffffffffffffffffffffffffffffffffffff1673ffffffffffffffffffffffffffffffffffffffff16146126ed576040517f08c379a00000000000000000000000000000000000000000000000000000000081526004016126e49061419d565b60405180910390fd5b603c60009054906101000a900473ffffffffffffffffffffffffffffffffffffffff1673ffffffffffffffffffffffffffffffffffffffff1663a6afed956040518163ffffffff1660e01b8152600401600060405180830381600087803b15801561275757600080fd5b505af115801561276b573d6000803e3d6000fd5b50505050600061277a8261032d565b9050600081141561278b5750612890565b60006037600084815260200190815260200160002081905550603c60009054906101000a900473ffffffffffffffffffffffffffffffffffffffff1673ffffffffffffffffffffffffffffffffffffffff16631e9a695033836040518363ffffffff1660e01b8152600401612801929190613f49565b602060405180830381600087803b15801561281b57600080fd5b505af115801561282f573d6000803e3d6000fd5b505050506040513d601f19601f820116820180604052508101906128539190613935565b507f5c2982642443bff7429db96062d667a54f7c06c0294cefab1986a8e56d78d2a18260006040516128869291906142a1565b60405180910390a1505b50565b3373ffffffffffffffffffffffffffffffffffffffff16603360009054906101000a900473ffffffffffffffffffffffffffffffffffffffff1673ffffffffffffffffffffffffffffffffffffffff1614612923576040517f08c379a000000000000000000000000000000000000000000000000000000000815260040161291a906140bd565b60405180910390fd5b600073ffffffffffffffffffffffffffffffffffffffff16603b60009054906101000a900473ffffffffffffffffffffffffffffffffffffffff1673ffffffffffffffffffffffffffffffffffffffff161461297e57600080fd5b80603b60006101000a81548173ffffffffffffffffffffffffffffffffffffffff021916908373ffffffffffffffffffffffffffffffffffffffff16021790555050565b6000603360009054906101000a900473ffffffffffffffffffffffffffffffffffffffff16905081603360006101000a81548173ffffffffffffffffffffffffffffffffffffffff021916908373ffffffffffffffffffffffffffffffffffffffff1602179055507f0384899bd253d83b23daa4d29aaa2efe0563d1132b43101e9ad667235aeb951b8183604051612a5b929190613f72565b60405180910390a15050565b6000803090506000813b9050600081149250505090565b600080600080612a8c6133ef565b603b60009054906101000a900473ffffffffffffffffffffffffffffffffffffffff1673ffffffffffffffffffffffffffffffffffffffff16633911283a886040518263ffffffff1660e01b8152600401612ae79190613eb3565b60606040518083038186803b158015612aff57600080fd5b505afa158015612b13573d6000803e3d6000fd5b505050506040513d601f19601f82011682018060405250810190612b3791906138a2565b9050612b41613412565b603b60009054906101000a900473ffffffffffffffffffffffffffffffffffffffff1673ffffffffffffffffffffffffffffffffffffffff1663c7d5fe5583602001516040518263ffffffff1660e01b8152600401612ba0919061425d565b60006040518083038186803b158015612bb857600080fd5b505afa158015612bcc573d6000803e3d6000fd5b505050506040513d6000823e3d601f19601f82011682018060405250810190612bf591906138cb565b90506000612c8a8260a001518360c001518b73ffffffffffffffffffffffffffffffffffffffff166318160ddd6040518163ffffffff1660e01b815260040160206040518083038186803b158015612c4c57600080fd5b505afa158015612c60573d6000803e3d6000fd5b505050506040513d601f19601f82011682018060405250810190612c849190613935565b8b61307f565b90506000612cb9612710612cab8560e001518561317c90919063ffffffff16565b6131ec90919063ffffffff16565b90506000612ce9612710612cdb8661010001518661317c90919063ffffffff16565b6131ec90919063ffffffff16565b90506000612d1282612d04858761302a90919063ffffffff16565b61302a90919063ffffffff16565b905080848484995099509950995050505050505092959194509250565b6000612d7183836040518060400160405280601e81526020017f536166654d6174683a207375627472616374696f6e206f766572666c6f770000815250613236565b905092915050565b600080600080612d876133ef565b603b60009054906101000a900473ffffffffffffffffffffffffffffffffffffffff1673ffffffffffffffffffffffffffffffffffffffff16633911283a886040518263ffffffff1660e01b8152600401612de29190613eb3565b60606040518083038186803b158015612dfa57600080fd5b505afa158015612e0e573d6000803e3d6000fd5b505050506040513d601f19601f82011682018060405250810190612e3291906138a2565b9050612e3c613412565b603b60009054906101000a900473ffffffffffffffffffffffffffffffffffffffff1673ffffffffffffffffffffffffffffffffffffffff1663c7d5fe5583602001516040518263ffffffff1660e01b8152600401612e9b919061425d565b60006040518083038186803b158015612eb357600080fd5b505afa158015612ec7573d6000803e3d6000fd5b505050506040513d6000823e3d601f19601f82011682018060405250810190612ef091906138cb565b90506000612f858260a001518360c001518b73ffffffffffffffffffffffffffffffffffffffff166318160ddd6040518163ffffffff1660e01b815260040160206040518083038186803b158015612f4757600080fd5b505afa158015612f5b573d6000803e3d6000fd5b505050506040513d601f19601f82011682018060405250810190612f7f9190613935565b8b613291565b90506000612fb4612710612fa68560e001518561317c90919063ffffffff16565b6131ec90919063ffffffff16565b90506000612fe4612710612fd68661010001518661317c90919063ffffffff16565b6131ec90919063ffffffff16565b9050600061300d82612fff8587612d2f90919063ffffffff16565b612d2f90919063ffffffff16565b905080848484995099509950995050505050505092959194509250565b600080828401905083811015613075576040517f08c379a000000000000000000000000000000000000000000000000000000000815260040161306c906140dd565b60405180910390fd5b8091505092915050565b6000806130c16130b2670de0b6b3a76400006130a4878961317c90919063ffffffff16565b6131ec90919063ffffffff16565b8761302a90919063ffffffff16565b90506000613116613107670de0b6b3a76400006130f96130ea888a61302a90919063ffffffff16565b8a61317c90919063ffffffff16565b6131ec90919063ffffffff16565b8861302a90919063ffffffff16565b905060006131406002613132848661302a90919063ffffffff16565b6131ec90919063ffffffff16565b905061316f670de0b6b3a7640000613161878461317c90919063ffffffff16565b6131ec90919063ffffffff16565b9350505050949350505050565b60008083141561318f57600090506131e6565b60008284029050828482816131a057fe5b04146131e1576040517f08c379a00000000000000000000000000000000000000000000000000000000081526004016131d89061413d565b60405180910390fd5b809150505b92915050565b600061322e83836040518060400160405280601a81526020017f536166654d6174683a206469766973696f6e206279207a65726f00000000000081525061338e565b905092915050565b600083831115829061327e576040517f08c379a0000000000000000000000000000000000000000000000000000000008152600401613275919061405b565b60405180910390fd5b5060008385039050809150509392505050565b6000806132d36132c4670de0b6b3a76400006132b6878961317c90919063ffffffff16565b6131ec90919063ffffffff16565b8761302a90919063ffffffff16565b90506000613328613319670de0b6b3a764000061330b6132fc888a612d2f90919063ffffffff16565b8a61317c90919063ffffffff16565b6131ec90919063ffffffff16565b8861302a90919063ffffffff16565b905060006133526002613344848661302a90919063ffffffff16565b6131ec90919063ffffffff16565b9050613381670de0b6b3a7640000613373878461317c90919063ffffffff16565b6131ec90919063ffffffff16565b9350505050949350505050565b600080831182906133d5576040517f08c379a00000000000000000000000000000000000000000000000000000000081526004016133cc919061405b565b60405180910390fd5b5060008385816133e157fe5b049050809150509392505050565b604051806060016040528060001515815260200160008152602001600081525090565b6040518061012001604052806000151581526020016000815260200160608152602001600073ffffffffffffffffffffffffffffffffffffffff16815260200160008152602001600081526020016000815260200160008152602001600081525090565b6000813590506134858161444e565b92915050565b60008151905061349a81614465565b92915050565b6000815190506134af8161447c565b92915050565b600082601f8301126134c657600080fd5b81516134d96134d482614320565b6142f3565b915080825260208301602083018583830111156134f557600080fd5b61350083828461440a565b50505092915050565b60006060828403121561351b57600080fd5b61352560606142f3565b905060006135358482850161348b565b600083015250602061354984828501613672565b602083015250604061355d84828501613672565b60408301525092915050565b6000610120828403121561357c57600080fd5b6135876101206142f3565b905060006135978482850161348b565b60008301525060206135ab84828501613672565b602083015250604082015167ffffffffffffffff8111156135cb57600080fd5b6135d7848285016134b5565b60408301525060606135eb848285016134a0565b60608301525060806135ff84828501613672565b60808301525060a061361384828501613672565b60a08301525060c061362784828501613672565b60c08301525060e061363b84828501613672565b60e08301525061010061365084828501613672565b6101008301525092915050565b60008135905061366c81614493565b92915050565b60008151905061368181614493565b92915050565b60006020828403121561369957600080fd5b60006136a784828501613476565b91505092915050565b600080604083850312156136c357600080fd5b60006136d185828601613476565b92505060206136e285828601613476565b9150509250929050565b600080600080600060a0868803121561370457600080fd5b600061371288828901613476565b955050602061372388828901613476565b945050604061373488828901613476565b935050606061374588828901613476565b925050608061375688828901613476565b9150509295509295909350565b6000806040838503121561377657600080fd5b600061378485828601613476565b92505060206137958582860161365d565b9150509250929050565b600080600080608085870312156137b557600080fd5b60006137c387828801613476565b94505060206137d48782880161365d565b93505060406137e58782880161365d565b92505060606137f687828801613476565b91505092959194509250565b600080600080600060a0868803121561381a57600080fd5b600061382888828901613476565b95505060206138398882890161365d565b945050604061384a8882890161365d565b935050606061385b8882890161365d565b925050608061386c88828901613476565b9150509295509295909350565b60006020828403121561388b57600080fd5b60006138998482850161348b565b91505092915050565b6000606082840312156138b457600080fd5b60006138c284828501613509565b91505092915050565b6000602082840312156138dd57600080fd5b600082015167ffffffffffffffff8111156138f757600080fd5b61390384828501613569565b91505092915050565b60006020828403121561391e57600080fd5b600061392c8482850161365d565b91505092915050565b60006020828403121561394757600080fd5b600061395584828501613672565b91505092915050565b6000806040838503121561397157600080fd5b600061397f8582860161365d565b925050602061399085828601613476565b9150509250929050565b6139a3816143c2565b82525050565b6139b281614368565b82525050565b6139c1816143d4565b82525050565b60006139d28261434c565b6139dc8185614357565b93506139ec81856020860161440a565b6139f58161443d565b840191505092915050565b6000613a0d602083614357565b91507f7769746864726177496e7465726573743a206e6f7420617574686f72697a65646000830152602082019050919050565b6000613a4d601c83614357565b91507f627579546f6b656e733a20736c69707061676520746f6f2068696768000000006000830152602082019050919050565b6000613a8d601283614357565b91507f4f776e61626c653a206f6e6c794f776e657200000000000000000000000000006000830152602082019050919050565b6000613acd601b83614357565b91507f536166654d6174683a206164646974696f6e206f766572666c6f7700000000006000830152602082019050919050565b6000613b0d602083614357565b91507f73656c6c546f6b656e733a20746f6b656e20646f6573206e6f742065786973746000830152602082019050919050565b6000613b4d602e83614357565b91507f617574686f72697a65506c6174666f726d466565576974686472617765723a2060008301527f6e6f7420617574686f72697a65640000000000000000000000000000000000006020830152604082019050919050565b6000613bb3602183614357565b91507f536166654d6174683a206d756c7469706c69636174696f6e206f766572666c6f60008301527f77000000000000000000000000000000000000000000000000000000000000006020830152604082019050919050565b6000613c19602b83614357565b91507f617574686f72697a65496e746572657374576974686472617765723a206e6f7460008301527f20617574686f72697a65640000000000000000000000000000000000000000006020830152604082019050919050565b6000613c7f602e83614357565b91507f436f6e747261637420696e7374616e63652068617320616c726561647920626560008301527f656e20696e697469616c697a65640000000000000000000000000000000000006020830152604082019050919050565b6000613ce5602383614357565b91507f7769746864726177506c6174666f726d4665653a206e6f7420617574686f726960008301527f7a656400000000000000000000000000000000000000000000000000000000006020830152604082019050919050565b6000613d4b601f83614357565b91507f627579546f6b656e733a206e6f7420656e6f75676820616c6c6f77616e6365006000830152602082019050919050565b6000613d8b601d83614357565b91507f73656c6c546f6b656e733a206e6f7420656e6f75676820746f6b656e730000006000830152602082019050919050565b6000613dcb601e83614357565b91507f627579546f6b656e733a20646169207472616e73666572206661696c656400006000830152602082019050919050565b6000613e0b602483614357565b91507f73656c6c546f6b656e733a207072696365207375626365656473206d696e207060008301527f72696365000000000000000000000000000000000000000000000000000000006020830152604082019050919050565b6000613e71601f83614357565b91507f627579546f6b656e733a20746f6b656e20646f6573206e6f74206578697374006000830152602082019050919050565b613ead816143b8565b82525050565b6000602082019050613ec860008301846139a9565b92915050565b6000602082019050613ee3600083018461399a565b92915050565b6000604082019050613efe600083018561399a565b613f0b60208301846139a9565b9392505050565b6000606082019050613f27600083018661399a565b613f3460208301856139a9565b613f416040830184613ea4565b949350505050565b6000604082019050613f5e600083018561399a565b613f6b6020830184613ea4565b9392505050565b6000604082019050613f8760008301856139a9565b613f9460208301846139a9565b9392505050565b6000604082019050613fb060008301856139a9565b613fbd6020830184613ea4565b9392505050565b6000606082019050613fd960008301866139a9565b613fe66020830185613ea4565b613ff36040830184613ea4565b949350505050565b600060808201905061401060008301876139a9565b61401d6020830186613ea4565b61402a6040830185613ea4565b6140376060830184613ea4565b95945050505050565b600060208201905061405560008301846139b8565b92915050565b6000602082019050818103600083015261407581846139c7565b905092915050565b6000602082019050818103600083015261409681613a00565b9050919050565b600060208201905081810360008301526140b681613a40565b9050919050565b600060208201905081810360008301526140d681613a80565b9050919050565b600060208201905081810360008301526140f681613ac0565b9050919050565b6000602082019050818103600083015261411681613b00565b9050919050565b6000602082019050818103600083015261413681613b40565b9050919050565b6000602082019050818103600083015261415681613ba6565b9050919050565b6000602082019050818103600083015261417681613c0c565b9050919050565b6000602082019050818103600083015261419681613c72565b9050919050565b600060208201905081810360008301526141b681613cd8565b9050919050565b600060208201905081810360008301526141d681613d3e565b9050919050565b600060208201905081810360008301526141f681613d7e565b9050919050565b6000602082019050818103600083015261421681613dbe565b9050919050565b6000602082019050818103600083015261423681613dfe565b9050919050565b6000602082019050818103600083015261425681613e64565b9050919050565b60006020820190506142726000830184613ea4565b92915050565b600060408201905061428d6000830185613ea4565b61429a60208301846139a9565b9392505050565b60006040820190506142b66000830185613ea4565b6142c360208301846139b8565b9392505050565b60006040820190506142df6000830185613ea4565b6142ec6020830184613ea4565b9392505050565b6000604051905081810181811067ffffffffffffffff8211171561431657600080fd5b8060405250919050565b600067ffffffffffffffff82111561433757600080fd5b601f19601f8301169050602081019050919050565b600081519050919050565b600082825260208201905092915050565b600061437382614398565b9050919050565b60008115159050919050565b600061439182614368565b9050919050565b600073ffffffffffffffffffffffffffffffffffffffff82169050919050565b6000819050919050565b60006143cd826143e6565b9050919050565b60006143df826143b8565b9050919050565b60006143f1826143f8565b9050919050565b600061440382614398565b9050919050565b60005b8381101561442857808201518184015260208101905061440d565b83811115614437576000848401525b50505050565b6000601f19601f8301169050919050565b61445781614368565b811461446257600080fd5b50565b61446e8161437a565b811461447957600080fd5b50565b61448581614386565b811461449057600080fd5b50565b61449c816143b8565b81146144a757600080fd5b5056fea264697066735822122002154aae6a3a904a6a0112553fa273f30037cb5ad6454f1b0c76e01aec26277364736f6c63430006090033",
  "immutableReferences": {},
  "source": "// SPDX-License-Identifier: MIT\r\npragma solidity ^0.6.9;\r\npragma experimental ABIEncoderV2;\r\n\r\nimport \"../util/Ownable.sol\";\r\nimport \"./IIdeaTokenExchange.sol\";\r\nimport \"./IIdeaToken.sol\";\r\nimport \"./IIdeaTokenFactory.sol\";\r\nimport \"./IInterestManager.sol\";\r\nimport \"../util/Initializable.sol\";\r\nimport \"@openzeppelin/contracts/token/ERC20/IERC20.sol\";\r\nimport \"@openzeppelin/contracts/math/SafeMath.sol\";\r\n\r\n/**\r\n * @title IdeaTokenExchange\r\n * @author Alexander Schlindwein\r\n *\r\n * @dev Exchanges Dai <-> IdeaTokens using a bonding curve. Sits behind a proxy\r\n */\r\ncontract IdeaTokenExchange is IIdeaTokenExchange, Initializable, Ownable {\r\n    using SafeMath for uint256;\r\n\r\n    struct TokenExchangeInfo {\r\n        uint daiInToken; // The amount of Dai collected by trading\r\n        uint invested; // The amount of \"investment tokens\", e.g. cDai\r\n    }\r\n\r\n    uint constant private FEE_SCALE = 10000;\r\n\r\n    address _authorizer;\r\n    uint _tradingFeeInvested; // The amount of \"investment tokens\" for the collected trading fee, e.g. cDai\r\n    address _tradingFeeRecipient;\r\n\r\n    mapping(uint => uint) _platformFeeInvested;\r\n    mapping(uint => address) _authorizedPlatformFeeWithdrawers;\r\n\r\n    mapping(address => TokenExchangeInfo) _tokensExchangeInfo;\r\n    mapping(address => address) _authorizedInterestWithdrawers;\r\n\r\n    IIdeaTokenFactory _ideaTokenFactory;\r\n    IInterestManager _interestManager;\r\n    IERC20 _dai;\r\n\r\n    event TokensBought(address ideaToken, uint amount, uint rawCost, uint finalCost);\r\n    event TokensSold(address ideaToken, uint amount, uint rawPrice, uint finalPrice);\r\n\r\n    event NewInterestWithdrawer(address ideaToken, address withdrawer);\r\n    event NewPlatformFeeWithdrawer(uint marketID, address withdrawer);\r\n\r\n    event DaiInvested(address ideaToken, uint daiInToken, uint investmentToken);\r\n    event TradingFeeInvested(uint investmentToken);\r\n    event PlatformFeeInvested(uint marketID, uint investmentToken);\r\n    \r\n    /**\r\n     * @dev Initializes the contract\r\n     *\r\n     * @param owner The owner of the contract\r\n     * @param tradingFeeRecipient The address of the recipient of the trading fee\r\n     * @param interestManager The address of the InterestManager\r\n     * @param dai The address of Dai\r\n     */\r\n    function initialize(address owner,\r\n                        address authorizer,\r\n                        address tradingFeeRecipient,\r\n                        address interestManager,\r\n                        address dai) external initializer {\r\n        setOwnerInternal(owner);\r\n        _authorizer = authorizer;\r\n        _tradingFeeRecipient = tradingFeeRecipient;\r\n        _interestManager = IInterestManager(interestManager);\r\n        _dai = IERC20(dai);\r\n    }\r\n\r\n    /**\r\n     * @dev Burns IdeaTokens in exchange for Dai\r\n     *\r\n     * @param ideaToken The IdeaToken to sell\r\n     * @param amount The amount of IdeaTokens to sell\r\n     * @param minPrice The minimum allowed price in Dai for selling `amount` IdeaTokens\r\n     * @param recipient The recipient of the redeemed Dai\r\n     */\r\n    function sellTokens(address ideaToken, uint amount, uint minPrice, address recipient) external override {\r\n        IIdeaTokenFactory.IDPair memory idPair = _ideaTokenFactory.getTokenIDPair(ideaToken);\r\n        require(idPair.exists, \"sellTokens: token does not exist\");\r\n        IIdeaTokenFactory.MarketDetails memory marketDetails = _ideaTokenFactory.getMarketDetailsByID(idPair.marketID);\r\n\r\n        (uint finalPrice, uint rawPrice, uint tradingFee, uint platformFee) = getPricesForSellingTokens(ideaToken, amount);\r\n\r\n        require(finalPrice >= minPrice, \"sellTokens: price subceeds min price\");\r\n        require(IIdeaToken(ideaToken).balanceOf(msg.sender) >= amount, \"sellTokens: not enough tokens\");\r\n        \r\n        IIdeaToken(ideaToken).burn(msg.sender, amount);\r\n\r\n        _interestManager.accrueInterest();\r\n        uint finalRedeemed = _interestManager.redeem(address(this), finalPrice);\r\n        uint tradingFeeRedeemed = _interestManager.underlyingToInvestmentToken(tradingFee);\r\n        uint platformFeeRedeemed = _interestManager.underlyingToInvestmentToken(platformFee);\r\n\r\n        TokenExchangeInfo storage exchangeInfo = _tokensExchangeInfo[ideaToken];\r\n        exchangeInfo.invested = exchangeInfo.invested.sub(finalRedeemed.add(tradingFeeRedeemed).add(platformFeeRedeemed));\r\n        _tradingFeeInvested = _tradingFeeInvested.add(tradingFeeRedeemed);\r\n        _platformFeeInvested[marketDetails.id] = _platformFeeInvested[marketDetails.id].add(platformFeeRedeemed);\r\n        exchangeInfo.daiInToken = exchangeInfo.daiInToken.sub(rawPrice);\r\n    \r\n        emit TokensSold(ideaToken, amount, rawPrice, finalPrice);\r\n        emit DaiInvested(ideaToken, exchangeInfo.daiInToken, exchangeInfo.invested);\r\n        emit TradingFeeInvested(_tradingFeeInvested);\r\n        emit PlatformFeeInvested(marketDetails.id, _platformFeeInvested[marketDetails.id]);\r\n        _dai.transfer(recipient, finalPrice);\r\n    }\r\n\r\n    /**\r\n     * @dev Returns the price for selling IdeaTokens\r\n     *\r\n     * @param ideaToken The IdeaToken to sell\r\n     * @param amount The amount of IdeaTokens to sell\r\n     *\r\n     * @return The price in Dai for selling `amount` IdeaTokens\r\n     */\r\n    function getPriceForSellingTokens(address ideaToken, uint amount) external view override returns (uint) {\r\n        (uint finalCost, , , ) = getPricesForSellingTokens(ideaToken, amount);\r\n        return finalCost;\r\n    }\r\n\r\n    /**\r\n     * @dev Calculates each price related to selling tokens\r\n     *\r\n     * @param ideaToken The IdeaToken to sell\r\n     * @param amount The amount of IdeaTokens to sell\r\n     *\r\n     * @return Final cost, raw cost and trading fee\r\n     */\r\n    function getPricesForSellingTokens(address ideaToken, uint amount) internal view returns (uint, uint, uint, uint) {\r\n        IIdeaTokenFactory.IDPair memory idPair = _ideaTokenFactory.getTokenIDPair(ideaToken);\r\n        IIdeaTokenFactory.MarketDetails memory marketDetails = _ideaTokenFactory.getMarketDetailsByID(idPair.marketID);\r\n\r\n        uint rawPrice = getRawPriceForSellingTokens(marketDetails.baseCost,\r\n                                                    marketDetails.priceRise,\r\n                                                    IERC20(ideaToken).totalSupply(),\r\n                                                    amount);\r\n\r\n        uint tradingFee = rawPrice.mul(marketDetails.tradingFeeRate).div(FEE_SCALE);\r\n        uint platformFee = rawPrice.mul(marketDetails.platformFeeRate).div(FEE_SCALE);\r\n        uint finalCost = rawPrice.sub(tradingFee).sub(platformFee);\r\n\r\n        return (finalCost, rawPrice, tradingFee, platformFee);\r\n    }\r\n\r\n    /**\r\n     * @dev Returns the price for selling tokens without any fees applied\r\n     *\r\n     * @param b The baseCost of the token\r\n     * @param r The priceRise of the token\r\n     * @param supply The current total supply of the token\r\n     * @param amount The amount of IdeaTokens to sell\r\n     *\r\n     * @return The price selling `amount` IdeaTokens without any fees applied\r\n     */\r\n    function getRawPriceForSellingTokens(uint b, uint r, uint supply, uint amount) internal pure returns (uint) {\r\n        uint priceAtSupply = b.add(r.mul(supply).div(10**18));\r\n        uint priceAtSupplyMinusAmount = b.add(r.mul(supply.sub(amount)).div(10**18));\r\n        uint average = priceAtSupply.add(priceAtSupplyMinusAmount).div(2);\r\n    \r\n        return average.mul(amount).div(10**18);\r\n    }\r\n\r\n    /**\r\n     * @dev Mints IdeaTokens in exchange for Dai\r\n     *\r\n     * @param ideaToken The IdeaToken to buy\r\n     * @param amount The amount of IdeaTokens to buy\r\n     * @param fallbackAmount The fallback amount to buy in case the price changed\r\n     * @param cost The maximum allowed cost in Dai\r\n     * @param recipient The recipient of the bought IdeaTokens\r\n     */\r\n    function buyTokens(address ideaToken, uint amount, uint fallbackAmount, uint cost, address recipient) external override {\r\n        IIdeaTokenFactory.IDPair memory idPair = _ideaTokenFactory.getTokenIDPair(ideaToken);\r\n        require(idPair.exists, \"buyTokens: token does not exist\");\r\n        IIdeaTokenFactory.MarketDetails memory marketDetails = _ideaTokenFactory.getMarketDetailsByID(idPair.marketID);\r\n\r\n        uint actualAmount = amount;\r\n        uint finalCost;\r\n        uint rawCost;\r\n        uint tradingFee;\r\n        uint platformFee;\r\n        (finalCost, rawCost, tradingFee, platformFee) = getCostsForBuyingTokens(ideaToken, actualAmount);\r\n\r\n        if(finalCost > cost) {\r\n            actualAmount = fallbackAmount;\r\n            (finalCost, rawCost, tradingFee, platformFee) = getCostsForBuyingTokens(ideaToken, actualAmount);\r\n    \r\n            require(finalCost <= cost, \"buyTokens: slippage too high\");\r\n        }\r\n\r\n        \r\n        require(_dai.allowance(msg.sender, address(this)) >= finalCost, \"buyTokens: not enough allowance\");\r\n        require(_dai.transferFrom(msg.sender, address(_interestManager), finalCost), \"buyTokens: dai transfer failed\");\r\n        \r\n        _interestManager.accrueInterest();\r\n        _interestManager.invest(finalCost);\r\n\r\n        TokenExchangeInfo storage exchangeInfo = _tokensExchangeInfo[ideaToken];\r\n        exchangeInfo.invested = exchangeInfo.invested.add(_interestManager.underlyingToInvestmentToken(rawCost));\r\n        _tradingFeeInvested = _tradingFeeInvested.add(_interestManager.underlyingToInvestmentToken(tradingFee));\r\n        _platformFeeInvested[marketDetails.id] = _platformFeeInvested[marketDetails.id].add(_interestManager.underlyingToInvestmentToken(platformFee));\r\n        exchangeInfo.daiInToken = exchangeInfo.daiInToken.add(rawCost);\r\n    \r\n        emit TokensBought(ideaToken, actualAmount, rawCost, finalCost);\r\n        emit DaiInvested(ideaToken, exchangeInfo.daiInToken, exchangeInfo.invested);\r\n        emit TradingFeeInvested(_tradingFeeInvested);\r\n        emit PlatformFeeInvested(marketDetails.id, _platformFeeInvested[marketDetails.id]);\r\n        IIdeaToken(ideaToken).mint(recipient, actualAmount);\r\n    }\r\n\r\n    /**\r\n     * @dev Returns the cost for buying IdeaTokens\r\n     *\r\n     * @param ideaToken The IdeaToken to buy\r\n     * @param amount The amount of IdeaTokens to buy\r\n     *\r\n     * @return The cost in Dai for buying `amount` IdeaTokens\r\n     */\r\n    function getCostForBuyingTokens(address ideaToken, uint amount) external view override returns (uint) {\r\n        (uint finalCost, , , ) = getCostsForBuyingTokens(ideaToken, amount);\r\n        return finalCost;\r\n    }\r\n\r\n    /**\r\n     * @dev Calculates each cost related to buying tokens\r\n     *\r\n     * @param ideaToken The IdeaToken to buy\r\n     * @param amount The amount of IdeaTokens to buy\r\n     *\r\n     * @return Final cost, raw cost and trading fee\r\n     */\r\n    function getCostsForBuyingTokens(address ideaToken, uint amount) internal view returns (uint, uint, uint, uint) {\r\n        IIdeaTokenFactory.IDPair memory idPair = _ideaTokenFactory.getTokenIDPair(ideaToken);\r\n        IIdeaTokenFactory.MarketDetails memory marketDetails = _ideaTokenFactory.getMarketDetailsByID(idPair.marketID);\r\n\r\n        uint rawCost = getRawCostForBuyingTokens(marketDetails.baseCost,\r\n                                                 marketDetails.priceRise,\r\n                                                 IERC20(ideaToken).totalSupply(),\r\n                                                 amount);\r\n\r\n        uint tradingFee = rawCost.mul(marketDetails.tradingFeeRate).div(FEE_SCALE);\r\n        uint platformFee = rawCost.mul(marketDetails.platformFeeRate).div(FEE_SCALE);\r\n        uint finalCost = rawCost.add(tradingFee).add(platformFee);\r\n\r\n        return (finalCost, rawCost, tradingFee, platformFee);\r\n    }\r\n\r\n    /**\r\n     * @dev Returns the cost for buying tokens without any fees applied\r\n     *\r\n     * @param b The baseCost of the token\r\n     * @param r The priceRise of the token\r\n     * @param supply The current total supply of the token\r\n     * @param amount The amount of IdeaTokens to buy\r\n     *\r\n     * @return The cost buying `amount` IdeaTokens without any fees applied\r\n     */\r\n    function getRawCostForBuyingTokens(uint b, uint r, uint supply, uint amount) internal pure returns (uint) {\r\n        uint priceAtSupply = b.add(r.mul(supply).div(10**18));\r\n        uint priceAtSupplyPlusAmount = b.add(r.mul(supply.add(amount)).div(10**18));\r\n        uint average = priceAtSupply.add(priceAtSupplyPlusAmount).div(2);\r\n\r\n        return average.mul(amount).div(10**18);\r\n    }\r\n\r\n    /**\r\n     * @dev Withdraws available interest for a publisher\r\n     *\r\n     * @param token The token from which the generated interest is to be withdrawn\r\n     */\r\n    function withdrawInterest(address token) external {\r\n        require(_authorizedInterestWithdrawers[token] == msg.sender, \"withdrawInterest: not authorized\");\r\n        _interestManager.accrueInterest();\r\n\r\n        uint interestPayable = getInterestPayable(token);\r\n        if(interestPayable == 0) {\r\n            return;\r\n        }\r\n\r\n        TokenExchangeInfo storage exchangeInfo = _tokensExchangeInfo[token];\r\n        exchangeInfo.invested = exchangeInfo.invested.sub(_interestManager.redeem(msg.sender, interestPayable));\r\n\r\n        emit DaiInvested(token, exchangeInfo.daiInToken, exchangeInfo.invested);\r\n    }\r\n\r\n    /**\r\n     * @dev Returns the interest available to be paid out\r\n     *\r\n     * @param token The token from which the generated interest is to be withdrawn\r\n     *\r\n     * @return The interest available to be paid out\r\n     */\r\n    function getInterestPayable(address token) public view returns (uint) {\r\n        TokenExchangeInfo storage exchangeInfo = _tokensExchangeInfo[token];\r\n        return _interestManager.investmentTokenToUnderlying(exchangeInfo.invested).sub(exchangeInfo.daiInToken);\r\n    }\r\n\r\n    /**\r\n     * @dev Authorizes an address which is allowed to withdraw interest for a token\r\n     *\r\n     * @param token The token for which to authorize an address\r\n     * @param withdrawer The address to be authorized\r\n     */\r\n    function authorizeInterestWithdrawer(address token, address withdrawer) external override {\r\n        address current = _authorizedInterestWithdrawers[token];\r\n\r\n        require((current == address(0) && (msg.sender == _owner || msg.sender == _authorizer)) ||\r\n                (current != address(0) && (msg.sender == _owner || msg.sender == _authorizedInterestWithdrawers[token])),\r\n                \"authorizeInterestWithdrawer: not authorized\");\r\n\r\n        _authorizedInterestWithdrawers[token] = withdrawer;\r\n\r\n        emit NewInterestWithdrawer(token, withdrawer);\r\n    }\r\n\r\n    /**\r\n     * @dev Withdraws available platform fee\r\n     *\r\n     * @param marketID The market from which the generated platform fee is to be withdrawn\r\n     */\r\n    function withdrawPlatformFee(uint marketID) external {\r\n        require(_authorizedPlatformFeeWithdrawers[marketID] == msg.sender, \"withdrawPlatformFee: not authorized\");\r\n        _interestManager.accrueInterest();\r\n\r\n        uint platformFeePayable = getPlatformFeePayable(marketID);\r\n        if(platformFeePayable == 0) {\r\n            return;\r\n        }\r\n\r\n        _platformFeeInvested[marketID] = 0;\r\n        _interestManager.redeem(msg.sender, platformFeePayable);\r\n\r\n        emit PlatformFeeInvested(marketID, 0);\r\n    }\r\n\r\n    /**\r\n     * @dev Returns the platform fee available to be paid out\r\n     *\r\n     * @param marketID The market from which the generated interest is to be withdrawn\r\n     *\r\n     * @return The platform fee available to be paid out\r\n     */\r\n    function getPlatformFeePayable(uint marketID) public view returns (uint) {\r\n        return _interestManager.investmentTokenToUnderlying(_platformFeeInvested[marketID]);\r\n    }\r\n\r\n    /**\r\n     * @dev Authorizes an address which is allowed to withdraw platform fee for a market\r\n     *\r\n     * @param marketID The market for which to authorize an address\r\n     * @param withdrawer The address to be authorized\r\n     */\r\n    function authorizePlatformFeeWithdrawer(uint marketID, address withdrawer) external override {\r\n        address current = _authorizedPlatformFeeWithdrawers[marketID];\r\n\r\n        require((current == address(0) && (msg.sender == _owner || msg.sender == _authorizer)) ||\r\n                (current != address(0) && (msg.sender == _owner || msg.sender == _authorizedPlatformFeeWithdrawers[marketID])),\r\n                \"authorizePlatformFeeWithdrawer: not authorized\");\r\n        \r\n        _authorizedPlatformFeeWithdrawers[marketID] = withdrawer;\r\n\r\n        emit NewPlatformFeeWithdrawer(marketID, withdrawer);\r\n    }\r\n\r\n    /**\r\n     * @dev Withdraws available trading fee\r\n     */\r\n    function withdrawTradingFee() external {\r\n\r\n        if(_tradingFeeInvested == 0) {\r\n            return;\r\n        }\r\n\r\n        uint redeem = _tradingFeeInvested;\r\n        _tradingFeeInvested = 0;\r\n        _interestManager.redeemInvestmentToken(_tradingFeeRecipient, redeem);\r\n\r\n        emit TradingFeeInvested(0);\r\n    }\r\n\r\n    /**\r\n     * @dev Returns the trading fee available to be paid out\r\n     *\r\n     * @return The trading fee available to be paid out\r\n     */\r\n    function getTradingFeePayable() public view returns (uint) {\r\n        return _interestManager.investmentTokenToUnderlying(_tradingFeeInvested);\r\n    }\r\n\r\n    /**\r\n     * @dev Sets the authorizer address\r\n     *\r\n     * @param authorizer The new authorizer address\r\n     */\r\n    function setAuthorizer(address authorizer) external onlyOwner {\r\n        _authorizer = authorizer;\r\n    }\r\n\r\n    /**\r\n     * @dev Sets the IdeaTokenFactory address. Only required once for deployment\r\n     *\r\n     * @param factory The address of the IdeaTokenFactory \r\n     */\r\n    function setIdeaTokenFactoryAddress(address factory) external onlyOwner {\r\n        require(address(_ideaTokenFactory) == address(0));\r\n        _ideaTokenFactory = IIdeaTokenFactory(factory);\r\n    }\r\n}",
  "sourcePath": "C:/Users/alexa/Desktop/ideamarket-contracts/contracts/core/IdeaTokenExchange.sol",
  "compiler": {
    "name": "solc",
    "version": "0.6.9+commit.3e3065ac.Emscripten.clang"
  },
  "schemaVersion": "3.3.1",
  "updatedAt": "2020-10-21T09:54:25.415Z",
  "networkType": "ethereum",
  "devdoc": {
    "author": "Alexander Schlindwein",
    "details": "Exchanges Dai <-> IdeaTokens using a bonding curve. Sits behind a proxy",
    "methods": {
      "authorizeInterestWithdrawer(address,address)": {
        "details": "Authorizes an address which is allowed to withdraw interest for a token",
        "params": {
          "token": "The token for which to authorize an address",
          "withdrawer": "The address to be authorized"
        }
      },
      "authorizePlatformFeeWithdrawer(uint256,address)": {
        "details": "Authorizes an address which is allowed to withdraw platform fee for a market",
        "params": {
          "marketID": "The market for which to authorize an address",
          "withdrawer": "The address to be authorized"
        }
      },
      "buyTokens(address,uint256,uint256,uint256,address)": {
        "details": "Mints IdeaTokens in exchange for Dai",
        "params": {
          "amount": "The amount of IdeaTokens to buy",
          "cost": "The maximum allowed cost in Dai",
          "fallbackAmount": "The fallback amount to buy in case the price changed",
          "ideaToken": "The IdeaToken to buy",
          "recipient": "The recipient of the bought IdeaTokens"
        }
      },
      "getCostForBuyingTokens(address,uint256)": {
        "details": "Returns the cost for buying IdeaTokens",
        "params": {
          "amount": "The amount of IdeaTokens to buy",
          "ideaToken": "The IdeaToken to buy"
        },
        "returns": {
          "_0": "The cost in Dai for buying `amount` IdeaTokens"
        }
      },
      "getInterestPayable(address)": {
        "details": "Returns the interest available to be paid out",
        "params": {
          "token": "The token from which the generated interest is to be withdrawn"
        },
        "returns": {
          "_0": "The interest available to be paid out"
        }
      },
      "getPlatformFeePayable(uint256)": {
        "details": "Returns the platform fee available to be paid out",
        "params": {
          "marketID": "The market from which the generated interest is to be withdrawn"
        },
        "returns": {
          "_0": "The platform fee available to be paid out"
        }
      },
      "getPriceForSellingTokens(address,uint256)": {
        "details": "Returns the price for selling IdeaTokens",
        "params": {
          "amount": "The amount of IdeaTokens to sell",
          "ideaToken": "The IdeaToken to sell"
        },
        "returns": {
          "_0": "The price in Dai for selling `amount` IdeaTokens"
        }
      },
      "getTradingFeePayable()": {
        "details": "Returns the trading fee available to be paid out",
        "returns": {
          "_0": "The trading fee available to be paid out"
        }
      },
      "initialize(address,address,address,address,address)": {
        "details": "Initializes the contract",
        "params": {
          "dai": "The address of Dai",
          "interestManager": "The address of the InterestManager",
          "owner": "The owner of the contract",
          "tradingFeeRecipient": "The address of the recipient of the trading fee"
        }
      },
      "sellTokens(address,uint256,uint256,address)": {
        "details": "Burns IdeaTokens in exchange for Dai",
        "params": {
          "amount": "The amount of IdeaTokens to sell",
          "ideaToken": "The IdeaToken to sell",
          "minPrice": "The minimum allowed price in Dai for selling `amount` IdeaTokens",
          "recipient": "The recipient of the redeemed Dai"
        }
      },
      "setAuthorizer(address)": {
        "details": "Sets the authorizer address",
        "params": {
          "authorizer": "The new authorizer address"
        }
      },
      "setIdeaTokenFactoryAddress(address)": {
        "details": "Sets the IdeaTokenFactory address. Only required once for deployment",
        "params": {
          "factory": "The address of the IdeaTokenFactory "
        }
      },
      "withdrawInterest(address)": {
        "details": "Withdraws available interest for a publisher",
        "params": {
          "token": "The token from which the generated interest is to be withdrawn"
        }
      },
      "withdrawPlatformFee(uint256)": {
        "details": "Withdraws available platform fee",
        "params": {
          "marketID": "The market from which the generated platform fee is to be withdrawn"
        }
      },
      "withdrawTradingFee()": {
        "details": "Withdraws available trading fee"
      }
    },
    "title": "IdeaTokenExchange"
  },
  "userdoc": {
    "methods": {}
  }
}