{
  "contractName": "InterestManagerCompound",
  "abi": [
    {
      "anonymous": false,
      "inputs": [
        {
          "indexed": false,
          "internalType": "address",
          "name": "oldOwner",
          "type": "address"
        },
        {
          "indexed": false,
          "internalType": "address",
          "name": "newOwner",
          "type": "address"
        }
      ],
      "name": "OwnershipChanged",
      "type": "event"
    },
    {
      "inputs": [],
      "name": "getOwner",
      "outputs": [
        {
          "internalType": "address",
          "name": "",
          "type": "address"
        }
      ],
      "stateMutability": "view",
      "type": "function",
      "constant": true
    },
    {
      "inputs": [
        {
          "internalType": "address",
          "name": "newOwner",
          "type": "address"
        }
      ],
      "name": "setOwner",
      "outputs": [],
      "stateMutability": "nonpayable",
      "type": "function"
    },
    {
      "inputs": [
        {
          "internalType": "address",
          "name": "owner",
          "type": "address"
        },
        {
          "internalType": "address",
          "name": "dai",
          "type": "address"
        },
        {
          "internalType": "address",
          "name": "cDai",
          "type": "address"
        },
        {
          "internalType": "address",
          "name": "comp",
          "type": "address"
        },
        {
          "internalType": "address",
          "name": "compRecipient",
          "type": "address"
        }
      ],
      "name": "initialize",
      "outputs": [],
      "stateMutability": "nonpayable",
      "type": "function"
    },
    {
      "inputs": [
        {
          "internalType": "uint256",
          "name": "amount",
          "type": "uint256"
        }
      ],
      "name": "invest",
      "outputs": [
        {
          "internalType": "uint256",
          "name": "",
          "type": "uint256"
        }
      ],
      "stateMutability": "nonpayable",
      "type": "function"
    },
    {
      "inputs": [
        {
          "internalType": "address",
          "name": "recipient",
          "type": "address"
        },
        {
          "internalType": "uint256",
          "name": "amount",
          "type": "uint256"
        }
      ],
      "name": "redeem",
      "outputs": [
        {
          "internalType": "uint256",
          "name": "",
          "type": "uint256"
        }
      ],
      "stateMutability": "nonpayable",
      "type": "function"
    },
    {
      "inputs": [
        {
          "internalType": "address",
          "name": "recipient",
          "type": "address"
        },
        {
          "internalType": "uint256",
          "name": "amount",
          "type": "uint256"
        }
      ],
      "name": "redeemInvestmentToken",
      "outputs": [
        {
          "internalType": "uint256",
          "name": "",
          "type": "uint256"
        }
      ],
      "stateMutability": "nonpayable",
      "type": "function"
    },
    {
      "inputs": [
        {
          "internalType": "uint256",
          "name": "amount",
          "type": "uint256"
        }
      ],
      "name": "donateInterest",
      "outputs": [],
      "stateMutability": "nonpayable",
      "type": "function"
    },
    {
      "inputs": [
        {
          "internalType": "uint256",
          "name": "amount",
          "type": "uint256"
        }
      ],
      "name": "redeemDonated",
      "outputs": [],
      "stateMutability": "nonpayable",
      "type": "function"
    },
    {
      "inputs": [],
      "name": "accrueInterest",
      "outputs": [],
      "stateMutability": "nonpayable",
      "type": "function"
    },
    {
      "inputs": [],
      "name": "withdrawComp",
      "outputs": [],
      "stateMutability": "nonpayable",
      "type": "function"
    },
    {
      "inputs": [],
      "name": "getExchangeRate",
      "outputs": [
        {
          "internalType": "uint256",
          "name": "",
          "type": "uint256"
        }
      ],
      "stateMutability": "view",
      "type": "function",
      "constant": true
    }
  ],
  "bytecode": "0x608060405234801561001057600080fd5b50612307806100206000396000f3fe608060405234801561001057600080fd5b50600436106100a95760003560e01c80635e8e2495116100715780635e8e249514610264578063893d20e814610292578063a6afed95146102dc578063e6aa216c146102e6578063f19c374214610304578063f3e08e1f14610332576100a9565b806313af4035146100ae5780631459457a146100f25780631e9a6950146101b65780632afcf4801461021857806338e41a221461025a575b600080fd5b6100f0600480360360208110156100c457600080fd5b81019080803573ffffffffffffffffffffffffffffffffffffffff169060200190929190505050610394565b005b6101b4600480360360a081101561010857600080fd5b81019080803573ffffffffffffffffffffffffffffffffffffffff169060200190929190803573ffffffffffffffffffffffffffffffffffffffff169060200190929190803573ffffffffffffffffffffffffffffffffffffffff169060200190929190803573ffffffffffffffffffffffffffffffffffffffff169060200190929190803573ffffffffffffffffffffffffffffffffffffffff169060200190929190505050610462565b005b610202600480360360408110156101cc57600080fd5b81019080803573ffffffffffffffffffffffffffffffffffffffff16906020019092919080359060200190929190505050610675565b6040518082815260200191505060405180910390f35b6102446004803603602081101561022e57600080fd5b810190808035906020019092919050505061074b565b6040518082815260200191505060405180910390f35b610262610d10565b005b6102906004803603602081101561027a57600080fd5b8101908080359060200190929190505050610f63565b005b61029a61109e565b604051808273ffffffffffffffffffffffffffffffffffffffff1673ffffffffffffffffffffffffffffffffffffffff16815260200191505060405180910390f35b6102e46110c7565b005b6102ee6111c6565b6040518082815260200191505060405180910390f35b6103306004803603602081101561031a57600080fd5b8101908080359060200190929190505050611270565b005b61037e6004803603604081101561034857600080fd5b81019080803573ffffffffffffffffffffffffffffffffffffffff169060200190929190803590602001909291905050506115e5565b6040518082815260200191505060405180910390f35b3373ffffffffffffffffffffffffffffffffffffffff166000809054906101000a900473ffffffffffffffffffffffffffffffffffffffff1673ffffffffffffffffffffffffffffffffffffffff1614610456576040517f08c379a00000000000000000000000000000000000000000000000000000000081526004018080602001828103825260128152602001807f4f776e61626c653a206f6e6c794f776e6572000000000000000000000000000081525060200191505060405180910390fd5b61045f81611ac3565b50565b600060159054906101000a900460ff16806104815750610480611bc4565b5b806104995750600060149054906101000a900460ff16155b6104ee576040517f08c379a000000000000000000000000000000000000000000000000000000000815260040180806020018281038252602e815260200180612283602e913960400191505060405180910390fd5b60008060159054906101000a900460ff16159050801561053f576001600060156101000a81548160ff0219169083151502179055506001600060146101000a81548160ff0219169083151502179055505b61054886611ac3565b84603360006101000a81548173ffffffffffffffffffffffffffffffffffffffff021916908373ffffffffffffffffffffffffffffffffffffffff16021790555083603460006101000a81548173ffffffffffffffffffffffffffffffffffffffff021916908373ffffffffffffffffffffffffffffffffffffffff16021790555082603560006101000a81548173ffffffffffffffffffffffffffffffffffffffff021916908373ffffffffffffffffffffffffffffffffffffffff16021790555081603660006101000a81548173ffffffffffffffffffffffffffffffffffffffff021916908373ffffffffffffffffffffffffffffffffffffffff160217905550801561066d5760008060156101000a81548160ff0219169083151502179055505b505050505050565b60003373ffffffffffffffffffffffffffffffffffffffff166000809054906101000a900473ffffffffffffffffffffffffffffffffffffffff1673ffffffffffffffffffffffffffffffffffffffff1614610739576040517f08c379a00000000000000000000000000000000000000000000000000000000081526004018080602001828103825260128152602001807f4f776e61626c653a206f6e6c794f776e6572000000000000000000000000000081525060200191505060405180910390fd5b6107438383611bdb565b905092915050565b600080603460009054906101000a900473ffffffffffffffffffffffffffffffffffffffff1673ffffffffffffffffffffffffffffffffffffffff166370a08231306040518263ffffffff1660e01b8152600401808273ffffffffffffffffffffffffffffffffffffffff1673ffffffffffffffffffffffffffffffffffffffff16815260200191505060206040518083038186803b1580156107ed57600080fd5b505afa158015610801573d6000803e3d6000fd5b505050506040513d602081101561081757600080fd5b8101908080519060200190929190505050905082603360009054906101000a900473ffffffffffffffffffffffffffffffffffffffff1673ffffffffffffffffffffffffffffffffffffffff166370a08231306040518263ffffffff1660e01b8152600401808273ffffffffffffffffffffffffffffffffffffffff1673ffffffffffffffffffffffffffffffffffffffff16815260200191505060206040518083038186803b1580156108ca57600080fd5b505afa1580156108de573d6000803e3d6000fd5b505050506040513d60208110156108f457600080fd5b81019080805190602001909291905050501015610979576040517f08c379a00000000000000000000000000000000000000000000000000000000081526004018080602001828103825260168152602001807f696e766573743a206e6f7420656e6f756768206461690000000000000000000081525060200191505060405180910390fd5b603360009054906101000a900473ffffffffffffffffffffffffffffffffffffffff1673ffffffffffffffffffffffffffffffffffffffff1663095ea7b3603460009054906101000a900473ffffffffffffffffffffffffffffffffffffffff16856040518363ffffffff1660e01b8152600401808373ffffffffffffffffffffffffffffffffffffffff1673ffffffffffffffffffffffffffffffffffffffff16815260200182815260200192505050602060405180830381600087803b158015610a4457600080fd5b505af1158015610a58573d6000803e3d6000fd5b505050506040513d6020811015610a6e57600080fd5b8101908080519060200190929190505050610af1576040517f08c379a000000000000000000000000000000000000000000000000000000000815260040180806020018281038252601f8152602001807f696e766573743a2064616920617070726f76652063446169206661696c65640081525060200191505060405180910390fd5b6000603460009054906101000a900473ffffffffffffffffffffffffffffffffffffffff1673ffffffffffffffffffffffffffffffffffffffff1663a0712d68856040518263ffffffff1660e01b815260040180828152602001915050602060405180830381600087803b158015610b6857600080fd5b505af1158015610b7c573d6000803e3d6000fd5b505050506040513d6020811015610b9257600080fd5b810190808051906020019092919050505014610c16576040517f08c379a00000000000000000000000000000000000000000000000000000000081526004018080602001828103825260188152602001807f696e766573743a2063446169206d696e74206661696c6564000000000000000081525060200191505060405180910390fd5b6000603460009054906101000a900473ffffffffffffffffffffffffffffffffffffffff1673ffffffffffffffffffffffffffffffffffffffff166370a08231306040518263ffffffff1660e01b8152600401808273ffffffffffffffffffffffffffffffffffffffff1673ffffffffffffffffffffffffffffffffffffffff16815260200191505060206040518083038186803b158015610cb757600080fd5b505afa158015610ccb573d6000803e3d6000fd5b505050506040513d6020811015610ce157600080fd5b81019080805190602001909291905050509050610d07828261203090919063ffffffff16565b92505050919050565b603560009054906101000a900473ffffffffffffffffffffffffffffffffffffffff1673ffffffffffffffffffffffffffffffffffffffff1663a9059cbb603660009054906101000a900473ffffffffffffffffffffffffffffffffffffffff16603560009054906101000a900473ffffffffffffffffffffffffffffffffffffffff1673ffffffffffffffffffffffffffffffffffffffff166370a08231306040518263ffffffff1660e01b8152600401808273ffffffffffffffffffffffffffffffffffffffff1673ffffffffffffffffffffffffffffffffffffffff16815260200191505060206040518083038186803b158015610e1057600080fd5b505afa158015610e24573d6000803e3d6000fd5b505050506040513d6020811015610e3a57600080fd5b81019080805190602001909291905050506040518363ffffffff1660e01b8152600401808373ffffffffffffffffffffffffffffffffffffffff1673ffffffffffffffffffffffffffffffffffffffff16815260200182815260200192505050602060405180830381600087803b158015610eb457600080fd5b505af1158015610ec8573d6000803e3d6000fd5b505050506040513d6020811015610ede57600080fd5b8101908080519060200190929190505050610f61576040517f08c379a000000000000000000000000000000000000000000000000000000000815260040180806020018281038252601b8152602001807f72656465656d436f6d703a207472616e73666572206661696c6564000000000081525060200191505060405180910390fd5b565b80603760003373ffffffffffffffffffffffffffffffffffffffff1673ffffffffffffffffffffffffffffffffffffffff168152602001908152602001600020541015610ffb576040517f08c379a00000000000000000000000000000000000000000000000000000000081526004018080602001828103825260218152602001806122b16021913960400191505060405180910390fd5b61104d81603760003373ffffffffffffffffffffffffffffffffffffffff1673ffffffffffffffffffffffffffffffffffffffff1681526020019081526020016000205461203090919063ffffffff16565b603760003373ffffffffffffffffffffffffffffffffffffffff1673ffffffffffffffffffffffffffffffffffffffff1681526020019081526020016000208190555061109a3382611bdb565b5050565b60008060009054906101000a900473ffffffffffffffffffffffffffffffffffffffff16905090565b6000603460009054906101000a900473ffffffffffffffffffffffffffffffffffffffff1673ffffffffffffffffffffffffffffffffffffffff1663a6afed956040518163ffffffff1660e01b8152600401602060405180830381600087803b15801561113357600080fd5b505af1158015611147573d6000803e3d6000fd5b505050506040513d602081101561115d57600080fd5b8101908080519060200190929190505050146111c4576040517f08c379a00000000000000000000000000000000000000000000000000000000081526004018080602001828103825260298152602001806121ea6029913960400191505060405180910390fd5b565b6000603460009054906101000a900473ffffffffffffffffffffffffffffffffffffffff1673ffffffffffffffffffffffffffffffffffffffff1663182df0f56040518163ffffffff1660e01b815260040160206040518083038186803b15801561123057600080fd5b505afa158015611244573d6000803e3d6000fd5b505050506040513d602081101561125a57600080fd5b8101908080519060200190929190505050905090565b80603360009054906101000a900473ffffffffffffffffffffffffffffffffffffffff1673ffffffffffffffffffffffffffffffffffffffff1663dd62ed3e33306040518363ffffffff1660e01b8152600401808373ffffffffffffffffffffffffffffffffffffffff1673ffffffffffffffffffffffffffffffffffffffff1681526020018273ffffffffffffffffffffffffffffffffffffffff1673ffffffffffffffffffffffffffffffffffffffff1681526020019250505060206040518083038186803b15801561134457600080fd5b505afa158015611358573d6000803e3d6000fd5b505050506040513d602081101561136e57600080fd5b810190808051906020019092919050505010156113d6576040517f08c379a00000000000000000000000000000000000000000000000000000000081526004018080602001828103825260248152602001806122366024913960400191505060405180910390fd5b603360009054906101000a900473ffffffffffffffffffffffffffffffffffffffff1673ffffffffffffffffffffffffffffffffffffffff166323b872dd3330846040518463ffffffff1660e01b8152600401808473ffffffffffffffffffffffffffffffffffffffff1673ffffffffffffffffffffffffffffffffffffffff1681526020018373ffffffffffffffffffffffffffffffffffffffff1673ffffffffffffffffffffffffffffffffffffffff1681526020018281526020019350505050602060405180830381600087803b1580156114b357600080fd5b505af11580156114c7573d6000803e3d6000fd5b505050506040513d60208110156114dd57600080fd5b8101908080519060200190929190505050611543576040517f08c379a00000000000000000000000000000000000000000000000000000000081526004018080602001828103825260238152602001806122136023913960400191505060405180910390fd5b61159581603760003373ffffffffffffffffffffffffffffffffffffffff1673ffffffffffffffffffffffffffffffffffffffff1681526020019081526020016000205461207a90919063ffffffff16565b603760003373ffffffffffffffffffffffffffffffffffffffff1673ffffffffffffffffffffffffffffffffffffffff168152602001908152602001600020819055506115e18161074b565b5050565b60003373ffffffffffffffffffffffffffffffffffffffff166000809054906101000a900473ffffffffffffffffffffffffffffffffffffffff1673ffffffffffffffffffffffffffffffffffffffff16146116a9576040517f08c379a00000000000000000000000000000000000000000000000000000000081526004018080602001828103825260128152602001807f4f776e61626c653a206f6e6c794f776e6572000000000000000000000000000081525060200191505060405180910390fd5b6000603360009054906101000a900473ffffffffffffffffffffffffffffffffffffffff1673ffffffffffffffffffffffffffffffffffffffff166370a08231306040518263ffffffff1660e01b8152600401808273ffffffffffffffffffffffffffffffffffffffff1673ffffffffffffffffffffffffffffffffffffffff16815260200191505060206040518083038186803b15801561174a57600080fd5b505afa15801561175e573d6000803e3d6000fd5b505050506040513d602081101561177457600080fd5b810190808051906020019092919050505090506000603460009054906101000a900473ffffffffffffffffffffffffffffffffffffffff1673ffffffffffffffffffffffffffffffffffffffff1663db006a75856040518263ffffffff1660e01b815260040180828152602001915050602060405180830381600087803b1580156117fe57600080fd5b505af1158015611812573d6000803e3d6000fd5b505050506040513d602081101561182857600080fd5b81019080805190602001909291905050501461188f576040517f08c379a00000000000000000000000000000000000000000000000000000000081526004018080602001828103825260278152602001806121c36027913960400191505060405180910390fd5b600061197d82603360009054906101000a900473ffffffffffffffffffffffffffffffffffffffff1673ffffffffffffffffffffffffffffffffffffffff166370a08231306040518263ffffffff1660e01b8152600401808273ffffffffffffffffffffffffffffffffffffffff1673ffffffffffffffffffffffffffffffffffffffff16815260200191505060206040518083038186803b15801561193457600080fd5b505afa158015611948573d6000803e3d6000fd5b505050506040513d602081101561195e57600080fd5b810190808051906020019092919050505061203090919063ffffffff16565b9050603360009054906101000a900473ffffffffffffffffffffffffffffffffffffffff1673ffffffffffffffffffffffffffffffffffffffff1663a9059cbb86836040518363ffffffff1660e01b8152600401808373ffffffffffffffffffffffffffffffffffffffff1673ffffffffffffffffffffffffffffffffffffffff16815260200182815260200192505050602060405180830381600087803b158015611a2857600080fd5b505af1158015611a3c573d6000803e3d6000fd5b505050506040513d6020811015611a5257600080fd5b8101908080519060200190929190505050611ab8576040517f08c379a000000000000000000000000000000000000000000000000000000000815260040180806020018281038252602981526020018061225a6029913960400191505060405180910390fd5b809250505092915050565b60008060009054906101000a900473ffffffffffffffffffffffffffffffffffffffff169050816000806101000a81548173ffffffffffffffffffffffffffffffffffffffff021916908373ffffffffffffffffffffffffffffffffffffffff1602179055507f0384899bd253d83b23daa4d29aaa2efe0563d1132b43101e9ad667235aeb951b8183604051808373ffffffffffffffffffffffffffffffffffffffff1673ffffffffffffffffffffffffffffffffffffffff1681526020018273ffffffffffffffffffffffffffffffffffffffff1673ffffffffffffffffffffffffffffffffffffffff1681526020019250505060405180910390a15050565b6000803090506000813b9050600081149250505090565b600080603460009054906101000a900473ffffffffffffffffffffffffffffffffffffffff1673ffffffffffffffffffffffffffffffffffffffff166370a08231306040518263ffffffff1660e01b8152600401808273ffffffffffffffffffffffffffffffffffffffff1673ffffffffffffffffffffffffffffffffffffffff16815260200191505060206040518083038186803b158015611c7d57600080fd5b505afa158015611c91573d6000803e3d6000fd5b505050506040513d6020811015611ca757600080fd5b810190808051906020019092919050505090506000603460009054906101000a900473ffffffffffffffffffffffffffffffffffffffff1673ffffffffffffffffffffffffffffffffffffffff1663852a12e3856040518263ffffffff1660e01b815260040180828152602001915050602060405180830381600087803b158015611d3157600080fd5b505af1158015611d45573d6000803e3d6000fd5b505050506040513d6020811015611d5b57600080fd5b810190808051906020019092919050505014611ddf576040517f08c379a00000000000000000000000000000000000000000000000000000000081526004018080602001828103825260188152602001807f72656465656d3a206661696c656420746f2072656465656d000000000000000081525060200191505060405180910390fd5b6000603460009054906101000a900473ffffffffffffffffffffffffffffffffffffffff1673ffffffffffffffffffffffffffffffffffffffff166370a08231306040518263ffffffff1660e01b8152600401808273ffffffffffffffffffffffffffffffffffffffff1673ffffffffffffffffffffffffffffffffffffffff16815260200191505060206040518083038186803b158015611e8057600080fd5b505afa158015611e94573d6000803e3d6000fd5b505050506040513d6020811015611eaa57600080fd5b81019080805190602001909291905050509050603360009054906101000a900473ffffffffffffffffffffffffffffffffffffffff1673ffffffffffffffffffffffffffffffffffffffff1663a9059cbb86866040518363ffffffff1660e01b8152600401808373ffffffffffffffffffffffffffffffffffffffff1673ffffffffffffffffffffffffffffffffffffffff16815260200182815260200192505050602060405180830381600087803b158015611f6657600080fd5b505af1158015611f7a573d6000803e3d6000fd5b505050506040513d6020811015611f9057600080fd5b8101908080519060200190929190505050612013576040517f08c379a000000000000000000000000000000000000000000000000000000000815260040180806020018281038252601b8152602001807f72656465656d3a20646169207472616e73666572206661696c6564000000000081525060200191505060405180910390fd5b612026818361203090919063ffffffff16565b9250505092915050565b600061207283836040518060400160405280601e81526020017f536166654d6174683a207375627472616374696f6e206f766572666c6f770000815250612102565b905092915050565b6000808284019050838110156120f8576040517f08c379a000000000000000000000000000000000000000000000000000000000815260040180806020018281038252601b8152602001807f536166654d6174683a206164646974696f6e206f766572666c6f77000000000081525060200191505060405180910390fd5b8091505092915050565b60008383111582906121af576040517f08c379a00000000000000000000000000000000000000000000000000000000081526004018080602001828103825283818151815260200191508051906020019080838360005b83811015612174578082015181840152602081019050612159565b50505050905090810190601f1680156121a15780820380516001836020036101000a031916815260200191505b509250505060405180910390fd5b506000838503905080915050939250505056fe72656465656d496e766573746d656e74546f6b656e3a206661696c656420746f2072656465656d616363727565496e7465726573743a206661696c656420746f2061636372756520696e746572657374646f6e617465496e7465726573743a20646169207472616e73666572206661696c6564646f6e617465496e7465726573743a206e6f7420656e6f75676820616c6c6f77616e636572656465656d496e766573746d656e74546f6b656e3a206661696c656420746f207472616e73666572436f6e747261637420696e7374616e63652068617320616c7265616479206265656e20696e697469616c697a656472656465656d446f6e617465643a206e6f7420656e6f75676820646f6e61746564a26469706673582212206162d7e3920c096d85915925c821f0f6dc54e5654bca4c7524fd0b51ffd2392064736f6c63430006090033",
  "immutableReferences": {},
  "source": "// SPDX-License-Identifier: MIT\r\npragma solidity ^0.6.9;\r\n\r\nimport \"./IInterestManager.sol\";\r\nimport \"../util/Ownable.sol\";\r\nimport \"../compound/ICToken.sol\";\r\nimport \"@openzeppelin/contracts/token/ERC20/IERC20.sol\";\r\nimport \"../util/Initializable.sol\";\r\nimport \"@openzeppelin/contracts/math/SafeMath.sol\";\r\n\r\n/**\r\n * @title InterestManagerCompound\r\n * @author Alexander Schlindwein\r\n *\r\n * @dev Manages DAI investments into Compound. Sits behind a proxy\r\n */\r\ncontract InterestManagerCompound is Ownable, Initializable {\r\n\r\n    using SafeMath for uint;\r\n\r\n    IERC20 private _dai;\r\n    ICToken private _cDai;\r\n    IERC20 private _comp;\r\n    address private _compRecipient;\r\n\r\n    mapping(address => uint) _donatedDai;\r\n\r\n    /**\r\n     * @dev Initializes the contract\r\n     *\r\n     * @param owner The owner of the contract\r\n     * @param dai The Dai token address\r\n     * @param cDai The cDai token address\r\n     * @param comp The Comp token address\r\n     * @param compRecipient The address of the recipient of the Comp tokens\r\n     */\r\n    function initialize(address owner, address dai, address cDai, address comp, address compRecipient) external initializer {\r\n        setOwnerInternal(owner);\r\n        _dai = IERC20(dai);\r\n        _cDai = ICToken(cDai);\r\n        _comp = IERC20(comp);\r\n        _compRecipient = compRecipient;\r\n    }\r\n\r\n    /**\r\n     * @dev Invests a given amount of Dai into Compound\r\n     *\r\n     * @param amount The amount of Dai to invest\r\n     *\r\n     * @return The amount of minted cDai\r\n     */\r\n    function invest(uint amount) public returns (uint) {\r\n        uint balanceBefore = _cDai.balanceOf(address(this));\r\n        require(_dai.balanceOf(address(this)) >= amount, \"invest: not enough dai\");\r\n        require(_dai.approve(address(_cDai), amount), \"invest: dai approve cDai failed\");\r\n        require(_cDai.mint(amount) == 0, \"invest: cDai mint failed\");\r\n        uint balanceAfter = _cDai.balanceOf(address(this));\r\n        return balanceAfter.sub(balanceBefore);\r\n    }\r\n\r\n    /**\r\n     * @dev Checks that the caller is the owner and delegates to redeemInternal\r\n     *\r\n     * @return The amount of burned cDai\r\n     */\r\n    function redeem(address recipient, uint amount) external onlyOwner returns (uint) {\r\n        return redeemInternal(recipient, amount);\r\n    }\r\n\r\n    /**\r\n     * @dev Redeem a given amount of Dai from Compound and sends it to the recipient\r\n     *\r\n     * @param recipient The recipient of the redeemed Dai\r\n     * @param amount The amount of Dai to redeem\r\n     *\r\n     * @return The amount of burned cDai\r\n     */\r\n    function redeemInternal(address recipient, uint amount) internal returns (uint) {\r\n        uint balanceBefore = _cDai.balanceOf(address(this));\r\n        require(_cDai.redeemUnderlying(amount) == 0, \"redeem: failed to redeem\");\r\n        uint balanceAfter = _cDai.balanceOf(address(this));\r\n        require(_dai.transfer(recipient, amount), \"redeem: dai transfer failed\");\r\n        return balanceBefore.sub(balanceAfter);\r\n    }\r\n\r\n    /**\r\n     * @dev Redeem a given amount of cDai from Compound and sends Dai to the recipient\r\n     *\r\n     * @param recipient The recipient of the redeemed Dai\r\n     * @param amount The amount of cDai to redeem\r\n     *\r\n     * @return The amount of redeemed Dai\r\n     */\r\n    function redeemInvestmentToken(address recipient, uint amount) external onlyOwner returns (uint) {\r\n        uint balanceBefore = _dai.balanceOf(address(this));\r\n        require(_cDai.redeem(amount) == 0, \"redeemInvestmentToken: failed to redeem\");\r\n        uint redeemed = _dai.balanceOf(address(this)).sub(balanceBefore);\r\n        require(_dai.transfer(recipient, redeemed), \"redeemInvestmentToken: failed to transfer\");\r\n        return redeemed;\r\n    }\r\n\r\n    /**\r\n     * @dev Accepts donated Dai and invests into Compound to generate interest\r\n     *\r\n     * @param amount The amount of Dai to donate\r\n     */\r\n    function donateInterest(uint amount) external {\r\n        require(_dai.allowance(msg.sender, address(this)) >= amount, \"donateInterest: not enough allowance\");\r\n        require(_dai.transferFrom(msg.sender, address(this), amount), \"donateInterest: dai transfer failed\");\r\n        _donatedDai[msg.sender] = _donatedDai[msg.sender].add(amount);\r\n        invest(amount);\r\n    }\r\n\r\n    /**\r\n     * @dev Redeems donated Dai back to the donator without generated interest\r\n     *\r\n     * @param amount The amount of Dai to redeem\r\n     */\r\n    function redeemDonated(uint amount) external {\r\n        require(_donatedDai[msg.sender] >= amount, \"redeemDonated: not enough donated\");\r\n        _donatedDai[msg.sender] = _donatedDai[msg.sender].sub(amount);\r\n        redeemInternal(msg.sender, amount);\r\n    }\r\n\r\n    /**\r\n     * @dev Updates accrued interest on the invested Dai\r\n     */\r\n    function accrueInterest() external {\r\n        require(_cDai.accrueInterest() == 0, \"accrueInterest: failed to accrue interest\");\r\n    }\r\n\r\n    /**\r\n     * @dev Withdraws the generated Comp tokens to the Comp recipient\r\n     */\r\n    function withdrawComp() external {\r\n        require(_comp.transfer(_compRecipient, _comp.balanceOf(address(this))), \"redeemComp: transfer failed\");\r\n    }\r\n\r\n    /**\r\n     * @dev Returns the exchange rate cDai -> Dai\r\n     *\r\n     * @return The exchange rate cDai -> Dai\r\n     */\r\n    function getExchangeRate() external view returns (uint) {\r\n        return _cDai.exchangeRateStored();\r\n    }\r\n}",
  "sourcePath": "C:/Users/alexa/Desktop/ideamarket-contracts/contracts/core/InterestManagerCompound.sol",
  "compiler": {
    "name": "solc",
    "version": "0.6.9+commit.3e3065ac.Emscripten.clang"
  },
  "schemaVersion": "3.2.3",
  "updatedAt": "2020-10-16T11:44:33.821Z",
  "networkType": "ethereum",
  "devdoc": {
    "author": "Alexander Schlindwein",
    "details": "Manages DAI investments into Compound. Sits behind a proxy",
    "methods": {
      "accrueInterest()": {
        "details": "Updates accrued interest on the invested Dai"
      },
      "donateInterest(uint256)": {
        "details": "Accepts donated Dai and invests into Compound to generate interest",
        "params": {
          "amount": "The amount of Dai to donate"
        }
      },
      "getExchangeRate()": {
        "details": "Returns the exchange rate cDai -> Dai",
        "returns": {
          "_0": "The exchange rate cDai -> Dai"
        }
      },
      "initialize(address,address,address,address,address)": {
        "details": "Initializes the contract",
        "params": {
          "cDai": "The cDai token address",
          "comp": "The Comp token address",
          "compRecipient": "The address of the recipient of the Comp tokens",
          "dai": "The Dai token address",
          "owner": "The owner of the contract"
        }
      },
      "invest(uint256)": {
        "details": "Invests a given amount of Dai into Compound",
        "params": {
          "amount": "The amount of Dai to invest"
        },
        "returns": {
          "_0": "The amount of minted cDai"
        }
      },
      "redeem(address,uint256)": {
        "details": "Checks that the caller is the owner and delegates to redeemInternal",
        "returns": {
          "_0": "The amount of burned cDai"
        }
      },
      "redeemDonated(uint256)": {
        "details": "Redeems donated Dai back to the donator without generated interest",
        "params": {
          "amount": "The amount of Dai to redeem"
        }
      },
      "redeemInvestmentToken(address,uint256)": {
        "details": "Redeem a given amount of cDai from Compound and sends Dai to the recipient",
        "params": {
          "amount": "The amount of cDai to redeem",
          "recipient": "The recipient of the redeemed Dai"
        },
        "returns": {
          "_0": "The amount of redeemed Dai"
        }
      },
      "withdrawComp()": {
        "details": "Withdraws the generated Comp tokens to the Comp recipient"
      }
    },
    "title": "InterestManagerCompound"
  },
  "userdoc": {
    "methods": {}
  }
}