{
  "contractName": "InterestManagerCompound",
  "abi": [
    {
      "anonymous": false,
      "inputs": [
        {
          "indexed": false,
          "internalType": "address",
          "name": "oldOwner",
          "type": "address"
        },
        {
          "indexed": false,
          "internalType": "address",
          "name": "newOwner",
          "type": "address"
        }
      ],
      "name": "OwnershipChanged",
      "type": "event"
    },
    {
      "inputs": [],
      "name": "getOwner",
      "outputs": [
        {
          "internalType": "address",
          "name": "",
          "type": "address"
        }
      ],
      "stateMutability": "view",
      "type": "function",
      "constant": true
    },
    {
      "inputs": [
        {
          "internalType": "address",
          "name": "newOwner",
          "type": "address"
        }
      ],
      "name": "setOwner",
      "outputs": [],
      "stateMutability": "nonpayable",
      "type": "function"
    },
    {
      "inputs": [
        {
          "internalType": "address",
          "name": "owner",
          "type": "address"
        },
        {
          "internalType": "address",
          "name": "dai",
          "type": "address"
        },
        {
          "internalType": "address",
          "name": "cDai",
          "type": "address"
        },
        {
          "internalType": "address",
          "name": "comp",
          "type": "address"
        },
        {
          "internalType": "address",
          "name": "compRecipient",
          "type": "address"
        }
      ],
      "name": "initialize",
      "outputs": [],
      "stateMutability": "nonpayable",
      "type": "function"
    },
    {
      "inputs": [
        {
          "internalType": "uint256",
          "name": "amount",
          "type": "uint256"
        }
      ],
      "name": "invest",
      "outputs": [
        {
          "internalType": "uint256",
          "name": "",
          "type": "uint256"
        }
      ],
      "stateMutability": "nonpayable",
      "type": "function"
    },
    {
      "inputs": [
        {
          "internalType": "address",
          "name": "recipient",
          "type": "address"
        },
        {
          "internalType": "uint256",
          "name": "amount",
          "type": "uint256"
        }
      ],
      "name": "redeem",
      "outputs": [
        {
          "internalType": "uint256",
          "name": "",
          "type": "uint256"
        }
      ],
      "stateMutability": "nonpayable",
      "type": "function"
    },
    {
      "inputs": [
        {
          "internalType": "address",
          "name": "recipient",
          "type": "address"
        },
        {
          "internalType": "uint256",
          "name": "amount",
          "type": "uint256"
        }
      ],
      "name": "redeemInvestmentToken",
      "outputs": [
        {
          "internalType": "uint256",
          "name": "",
          "type": "uint256"
        }
      ],
      "stateMutability": "nonpayable",
      "type": "function"
    },
    {
      "inputs": [
        {
          "internalType": "uint256",
          "name": "amount",
          "type": "uint256"
        }
      ],
      "name": "donateInterest",
      "outputs": [],
      "stateMutability": "nonpayable",
      "type": "function"
    },
    {
      "inputs": [
        {
          "internalType": "uint256",
          "name": "amount",
          "type": "uint256"
        }
      ],
      "name": "redeemDonated",
      "outputs": [],
      "stateMutability": "nonpayable",
      "type": "function"
    },
    {
      "inputs": [],
      "name": "accrueInterest",
      "outputs": [],
      "stateMutability": "nonpayable",
      "type": "function"
    },
    {
      "inputs": [],
      "name": "withdrawComp",
      "outputs": [],
      "stateMutability": "nonpayable",
      "type": "function"
    },
    {
      "inputs": [
        {
          "internalType": "uint256",
          "name": "underlyingAmount",
          "type": "uint256"
        }
      ],
      "name": "underlyingToInvestmentToken",
      "outputs": [
        {
          "internalType": "uint256",
          "name": "",
          "type": "uint256"
        }
      ],
      "stateMutability": "view",
      "type": "function",
      "constant": true
    },
    {
      "inputs": [
        {
          "internalType": "uint256",
          "name": "investmentTokenAmount",
          "type": "uint256"
        }
      ],
      "name": "investmentTokenToUnderlying",
      "outputs": [
        {
          "internalType": "uint256",
          "name": "",
          "type": "uint256"
        }
      ],
      "stateMutability": "view",
      "type": "function",
      "constant": true
    }
  ],
  "bytecode": "0x608060405234801561001057600080fd5b506126d8806100206000396000f3fe608060405234801561001057600080fd5b50600436106100b45760003560e01c8063893d20e811610071578063893d20e81461029d578063a6afed95146102e7578063d84d5e90146102f1578063df6395ce14610333578063f19c374214610375578063f3e08e1f146103a3576100b4565b806313af4035146100b95780631459457a146100fd5780631e9a6950146101c15780632afcf4801461022357806338e41a22146102655780635e8e24951461026f575b600080fd5b6100fb600480360360208110156100cf57600080fd5b81019080803573ffffffffffffffffffffffffffffffffffffffff169060200190929190505050610405565b005b6101bf600480360360a081101561011357600080fd5b81019080803573ffffffffffffffffffffffffffffffffffffffff169060200190929190803573ffffffffffffffffffffffffffffffffffffffff169060200190929190803573ffffffffffffffffffffffffffffffffffffffff169060200190929190803573ffffffffffffffffffffffffffffffffffffffff169060200190929190803573ffffffffffffffffffffffffffffffffffffffff1690602001909291905050506104d3565b005b61020d600480360360408110156101d757600080fd5b81019080803573ffffffffffffffffffffffffffffffffffffffff169060200190929190803590602001909291905050506106e6565b6040518082815260200191505060405180910390f35b61024f6004803603602081101561023957600080fd5b81019080803590602001909291905050506107bc565b6040518082815260200191505060405180910390f35b61026d610d81565b005b61029b6004803603602081101561028557600080fd5b8101908080359060200190929190505050610fd4565b005b6102a561110f565b604051808273ffffffffffffffffffffffffffffffffffffffff1673ffffffffffffffffffffffffffffffffffffffff16815260200191505060405180910390f35b6102ef611138565b005b61031d6004803603602081101561030757600080fd5b8101908080359060200190929190505050611237565b6040518082815260200191505060405180910390f35b61035f6004803603602081101561034957600080fd5b81019080803590602001909291905050506112ec565b6040518082815260200191505060405180910390f35b6103a16004803603602081101561038b57600080fd5b81019080803590602001909291905050506113a1565b005b6103ef600480360360408110156103b957600080fd5b81019080803573ffffffffffffffffffffffffffffffffffffffff16906020019092919080359060200190929190505050611716565b6040518082815260200191505060405180910390f35b3373ffffffffffffffffffffffffffffffffffffffff166000809054906101000a900473ffffffffffffffffffffffffffffffffffffffff1673ffffffffffffffffffffffffffffffffffffffff16146104c7576040517f08c379a00000000000000000000000000000000000000000000000000000000081526004018080602001828103825260128152602001807f4f776e61626c653a206f6e6c794f776e6572000000000000000000000000000081525060200191505060405180910390fd5b6104d081611bf4565b50565b600060159054906101000a900460ff16806104f257506104f1611cf5565b5b8061050a5750600060149054906101000a900460ff16155b61055f576040517f08c379a000000000000000000000000000000000000000000000000000000000815260040180806020018281038252602e815260200180612654602e913960400191505060405180910390fd5b60008060159054906101000a900460ff1615905080156105b0576001600060156101000a81548160ff0219169083151502179055506001600060146101000a81548160ff0219169083151502179055505b6105b986611bf4565b84603360006101000a81548173ffffffffffffffffffffffffffffffffffffffff021916908373ffffffffffffffffffffffffffffffffffffffff16021790555083603460006101000a81548173ffffffffffffffffffffffffffffffffffffffff021916908373ffffffffffffffffffffffffffffffffffffffff16021790555082603560006101000a81548173ffffffffffffffffffffffffffffffffffffffff021916908373ffffffffffffffffffffffffffffffffffffffff16021790555081603660006101000a81548173ffffffffffffffffffffffffffffffffffffffff021916908373ffffffffffffffffffffffffffffffffffffffff16021790555080156106de5760008060156101000a81548160ff0219169083151502179055505b505050505050565b60003373ffffffffffffffffffffffffffffffffffffffff166000809054906101000a900473ffffffffffffffffffffffffffffffffffffffff1673ffffffffffffffffffffffffffffffffffffffff16146107aa576040517f08c379a00000000000000000000000000000000000000000000000000000000081526004018080602001828103825260128152602001807f4f776e61626c653a206f6e6c794f776e6572000000000000000000000000000081525060200191505060405180910390fd5b6107b48383611d0c565b905092915050565b600080603460009054906101000a900473ffffffffffffffffffffffffffffffffffffffff1673ffffffffffffffffffffffffffffffffffffffff166370a08231306040518263ffffffff1660e01b8152600401808273ffffffffffffffffffffffffffffffffffffffff1673ffffffffffffffffffffffffffffffffffffffff16815260200191505060206040518083038186803b15801561085e57600080fd5b505afa158015610872573d6000803e3d6000fd5b505050506040513d602081101561088857600080fd5b8101908080519060200190929190505050905082603360009054906101000a900473ffffffffffffffffffffffffffffffffffffffff1673ffffffffffffffffffffffffffffffffffffffff166370a08231306040518263ffffffff1660e01b8152600401808273ffffffffffffffffffffffffffffffffffffffff1673ffffffffffffffffffffffffffffffffffffffff16815260200191505060206040518083038186803b15801561093b57600080fd5b505afa15801561094f573d6000803e3d6000fd5b505050506040513d602081101561096557600080fd5b810190808051906020019092919050505010156109ea576040517f08c379a00000000000000000000000000000000000000000000000000000000081526004018080602001828103825260168152602001807f696e766573743a206e6f7420656e6f756768206461690000000000000000000081525060200191505060405180910390fd5b603360009054906101000a900473ffffffffffffffffffffffffffffffffffffffff1673ffffffffffffffffffffffffffffffffffffffff1663095ea7b3603460009054906101000a900473ffffffffffffffffffffffffffffffffffffffff16856040518363ffffffff1660e01b8152600401808373ffffffffffffffffffffffffffffffffffffffff1673ffffffffffffffffffffffffffffffffffffffff16815260200182815260200192505050602060405180830381600087803b158015610ab557600080fd5b505af1158015610ac9573d6000803e3d6000fd5b505050506040513d6020811015610adf57600080fd5b8101908080519060200190929190505050610b62576040517f08c379a000000000000000000000000000000000000000000000000000000000815260040180806020018281038252601f8152602001807f696e766573743a2064616920617070726f76652063446169206661696c65640081525060200191505060405180910390fd5b6000603460009054906101000a900473ffffffffffffffffffffffffffffffffffffffff1673ffffffffffffffffffffffffffffffffffffffff1663a0712d68856040518263ffffffff1660e01b815260040180828152602001915050602060405180830381600087803b158015610bd957600080fd5b505af1158015610bed573d6000803e3d6000fd5b505050506040513d6020811015610c0357600080fd5b810190808051906020019092919050505014610c87576040517f08c379a00000000000000000000000000000000000000000000000000000000081526004018080602001828103825260188152602001807f696e766573743a2063446169206d696e74206661696c6564000000000000000081525060200191505060405180910390fd5b6000603460009054906101000a900473ffffffffffffffffffffffffffffffffffffffff1673ffffffffffffffffffffffffffffffffffffffff166370a08231306040518263ffffffff1660e01b8152600401808273ffffffffffffffffffffffffffffffffffffffff1673ffffffffffffffffffffffffffffffffffffffff16815260200191505060206040518083038186803b158015610d2857600080fd5b505afa158015610d3c573d6000803e3d6000fd5b505050506040513d6020811015610d5257600080fd5b81019080805190602001909291905050509050610d78828261216190919063ffffffff16565b92505050919050565b603560009054906101000a900473ffffffffffffffffffffffffffffffffffffffff1673ffffffffffffffffffffffffffffffffffffffff1663a9059cbb603660009054906101000a900473ffffffffffffffffffffffffffffffffffffffff16603560009054906101000a900473ffffffffffffffffffffffffffffffffffffffff1673ffffffffffffffffffffffffffffffffffffffff166370a08231306040518263ffffffff1660e01b8152600401808273ffffffffffffffffffffffffffffffffffffffff1673ffffffffffffffffffffffffffffffffffffffff16815260200191505060206040518083038186803b158015610e8157600080fd5b505afa158015610e95573d6000803e3d6000fd5b505050506040513d6020811015610eab57600080fd5b81019080805190602001909291905050506040518363ffffffff1660e01b8152600401808373ffffffffffffffffffffffffffffffffffffffff1673ffffffffffffffffffffffffffffffffffffffff16815260200182815260200192505050602060405180830381600087803b158015610f2557600080fd5b505af1158015610f39573d6000803e3d6000fd5b505050506040513d6020811015610f4f57600080fd5b8101908080519060200190929190505050610fd2576040517f08c379a000000000000000000000000000000000000000000000000000000000815260040180806020018281038252601b8152602001807f72656465656d436f6d703a207472616e73666572206661696c6564000000000081525060200191505060405180910390fd5b565b80603760003373ffffffffffffffffffffffffffffffffffffffff1673ffffffffffffffffffffffffffffffffffffffff16815260200190815260200160002054101561106c576040517f08c379a00000000000000000000000000000000000000000000000000000000081526004018080602001828103825260218152602001806126826021913960400191505060405180910390fd5b6110be81603760003373ffffffffffffffffffffffffffffffffffffffff1673ffffffffffffffffffffffffffffffffffffffff1681526020019081526020016000205461216190919063ffffffff16565b603760003373ffffffffffffffffffffffffffffffffffffffff1673ffffffffffffffffffffffffffffffffffffffff1681526020019081526020016000208190555061110b3382611d0c565b5050565b60008060009054906101000a900473ffffffffffffffffffffffffffffffffffffffff16905090565b6000603460009054906101000a900473ffffffffffffffffffffffffffffffffffffffff1673ffffffffffffffffffffffffffffffffffffffff1663a6afed956040518163ffffffff1660e01b8152600401602060405180830381600087803b1580156111a457600080fd5b505af11580156111b8573d6000803e3d6000fd5b505050506040513d60208110156111ce57600080fd5b810190808051906020019092919050505014611235576040517f08c379a000000000000000000000000000000000000000000000000000000000815260040180806020018281038252602981526020018061259a6029913960400191505060405180910390fd5b565b60006112e582603460009054906101000a900473ffffffffffffffffffffffffffffffffffffffff1673ffffffffffffffffffffffffffffffffffffffff1663182df0f56040518163ffffffff1660e01b815260040160206040518083038186803b1580156112a557600080fd5b505afa1580156112b9573d6000803e3d6000fd5b505050506040513d60208110156112cf57600080fd5b81019080805190602001909291905050506121ab565b9050919050565b600061139a82603460009054906101000a900473ffffffffffffffffffffffffffffffffffffffff1673ffffffffffffffffffffffffffffffffffffffff1663182df0f56040518163ffffffff1660e01b815260040160206040518083038186803b15801561135a57600080fd5b505afa15801561136e573d6000803e3d6000fd5b505050506040513d602081101561138457600080fd5b81019080805190602001909291905050506121cc565b9050919050565b80603360009054906101000a900473ffffffffffffffffffffffffffffffffffffffff1673ffffffffffffffffffffffffffffffffffffffff1663dd62ed3e33306040518363ffffffff1660e01b8152600401808373ffffffffffffffffffffffffffffffffffffffff1673ffffffffffffffffffffffffffffffffffffffff1681526020018273ffffffffffffffffffffffffffffffffffffffff1673ffffffffffffffffffffffffffffffffffffffff1681526020019250505060206040518083038186803b15801561147557600080fd5b505afa158015611489573d6000803e3d6000fd5b505050506040513d602081101561149f57600080fd5b81019080805190602001909291905050501015611507576040517f08c379a00000000000000000000000000000000000000000000000000000000081526004018080602001828103825260248152602001806125e66024913960400191505060405180910390fd5b603360009054906101000a900473ffffffffffffffffffffffffffffffffffffffff1673ffffffffffffffffffffffffffffffffffffffff166323b872dd3330846040518463ffffffff1660e01b8152600401808473ffffffffffffffffffffffffffffffffffffffff1673ffffffffffffffffffffffffffffffffffffffff1681526020018373ffffffffffffffffffffffffffffffffffffffff1673ffffffffffffffffffffffffffffffffffffffff1681526020018281526020019350505050602060405180830381600087803b1580156115e457600080fd5b505af11580156115f8573d6000803e3d6000fd5b505050506040513d602081101561160e57600080fd5b8101908080519060200190929190505050611674576040517f08c379a00000000000000000000000000000000000000000000000000000000081526004018080602001828103825260238152602001806125c36023913960400191505060405180910390fd5b6116c681603760003373ffffffffffffffffffffffffffffffffffffffff1673ffffffffffffffffffffffffffffffffffffffff168152602001908152602001600020546121ed90919063ffffffff16565b603760003373ffffffffffffffffffffffffffffffffffffffff1673ffffffffffffffffffffffffffffffffffffffff16815260200190815260200160002081905550611712816107bc565b5050565b60003373ffffffffffffffffffffffffffffffffffffffff166000809054906101000a900473ffffffffffffffffffffffffffffffffffffffff1673ffffffffffffffffffffffffffffffffffffffff16146117da576040517f08c379a00000000000000000000000000000000000000000000000000000000081526004018080602001828103825260128152602001807f4f776e61626c653a206f6e6c794f776e6572000000000000000000000000000081525060200191505060405180910390fd5b6000603360009054906101000a900473ffffffffffffffffffffffffffffffffffffffff1673ffffffffffffffffffffffffffffffffffffffff166370a08231306040518263ffffffff1660e01b8152600401808273ffffffffffffffffffffffffffffffffffffffff1673ffffffffffffffffffffffffffffffffffffffff16815260200191505060206040518083038186803b15801561187b57600080fd5b505afa15801561188f573d6000803e3d6000fd5b505050506040513d60208110156118a557600080fd5b810190808051906020019092919050505090506000603460009054906101000a900473ffffffffffffffffffffffffffffffffffffffff1673ffffffffffffffffffffffffffffffffffffffff1663db006a75856040518263ffffffff1660e01b815260040180828152602001915050602060405180830381600087803b15801561192f57600080fd5b505af1158015611943573d6000803e3d6000fd5b505050506040513d602081101561195957600080fd5b8101908080519060200190929190505050146119c0576040517f08c379a00000000000000000000000000000000000000000000000000000000081526004018080602001828103825260278152602001806125736027913960400191505060405180910390fd5b6000611aae82603360009054906101000a900473ffffffffffffffffffffffffffffffffffffffff1673ffffffffffffffffffffffffffffffffffffffff166370a08231306040518263ffffffff1660e01b8152600401808273ffffffffffffffffffffffffffffffffffffffff1673ffffffffffffffffffffffffffffffffffffffff16815260200191505060206040518083038186803b158015611a6557600080fd5b505afa158015611a79573d6000803e3d6000fd5b505050506040513d6020811015611a8f57600080fd5b810190808051906020019092919050505061216190919063ffffffff16565b9050603360009054906101000a900473ffffffffffffffffffffffffffffffffffffffff1673ffffffffffffffffffffffffffffffffffffffff1663a9059cbb86836040518363ffffffff1660e01b8152600401808373ffffffffffffffffffffffffffffffffffffffff1673ffffffffffffffffffffffffffffffffffffffff16815260200182815260200192505050602060405180830381600087803b158015611b5957600080fd5b505af1158015611b6d573d6000803e3d6000fd5b505050506040513d6020811015611b8357600080fd5b8101908080519060200190929190505050611be9576040517f08c379a000000000000000000000000000000000000000000000000000000000815260040180806020018281038252602981526020018061260a6029913960400191505060405180910390fd5b809250505092915050565b60008060009054906101000a900473ffffffffffffffffffffffffffffffffffffffff169050816000806101000a81548173ffffffffffffffffffffffffffffffffffffffff021916908373ffffffffffffffffffffffffffffffffffffffff1602179055507f0384899bd253d83b23daa4d29aaa2efe0563d1132b43101e9ad667235aeb951b8183604051808373ffffffffffffffffffffffffffffffffffffffff1673ffffffffffffffffffffffffffffffffffffffff1681526020018273ffffffffffffffffffffffffffffffffffffffff1673ffffffffffffffffffffffffffffffffffffffff1681526020019250505060405180910390a15050565b6000803090506000813b9050600081149250505090565b600080603460009054906101000a900473ffffffffffffffffffffffffffffffffffffffff1673ffffffffffffffffffffffffffffffffffffffff166370a08231306040518263ffffffff1660e01b8152600401808273ffffffffffffffffffffffffffffffffffffffff1673ffffffffffffffffffffffffffffffffffffffff16815260200191505060206040518083038186803b158015611dae57600080fd5b505afa158015611dc2573d6000803e3d6000fd5b505050506040513d6020811015611dd857600080fd5b810190808051906020019092919050505090506000603460009054906101000a900473ffffffffffffffffffffffffffffffffffffffff1673ffffffffffffffffffffffffffffffffffffffff1663852a12e3856040518263ffffffff1660e01b815260040180828152602001915050602060405180830381600087803b158015611e6257600080fd5b505af1158015611e76573d6000803e3d6000fd5b505050506040513d6020811015611e8c57600080fd5b810190808051906020019092919050505014611f10576040517f08c379a00000000000000000000000000000000000000000000000000000000081526004018080602001828103825260188152602001807f72656465656d3a206661696c656420746f2072656465656d000000000000000081525060200191505060405180910390fd5b6000603460009054906101000a900473ffffffffffffffffffffffffffffffffffffffff1673ffffffffffffffffffffffffffffffffffffffff166370a08231306040518263ffffffff1660e01b8152600401808273ffffffffffffffffffffffffffffffffffffffff1673ffffffffffffffffffffffffffffffffffffffff16815260200191505060206040518083038186803b158015611fb157600080fd5b505afa158015611fc5573d6000803e3d6000fd5b505050506040513d6020811015611fdb57600080fd5b81019080805190602001909291905050509050603360009054906101000a900473ffffffffffffffffffffffffffffffffffffffff1673ffffffffffffffffffffffffffffffffffffffff1663a9059cbb86866040518363ffffffff1660e01b8152600401808373ffffffffffffffffffffffffffffffffffffffff1673ffffffffffffffffffffffffffffffffffffffff16815260200182815260200192505050602060405180830381600087803b15801561209757600080fd5b505af11580156120ab573d6000803e3d6000fd5b505050506040513d60208110156120c157600080fd5b8101908080519060200190929190505050612144576040517f08c379a000000000000000000000000000000000000000000000000000000000815260040180806020018281038252601b8152602001807f72656465656d3a20646169207472616e73666572206661696c6564000000000081525060200191505060405180910390fd5b612157818361216190919063ffffffff16565b9250505092915050565b60006121a383836040518060400160405280601e81526020017f536166654d6174683a207375627472616374696f6e206f766572666c6f770000815250612275565b905092915050565b6000806121b88484612335565b90506121c381612352565b91505092915050565b6000806121d9848461236d565b90506121e481612352565b91505092915050565b60008082840190508381101561226b576040517f08c379a000000000000000000000000000000000000000000000000000000000815260040180806020018281038252601b8152602001807f536166654d6174683a206164646974696f6e206f766572666c6f77000000000081525060200191505060405180910390fd5b8091505092915050565b6000838311158290612322576040517f08c379a00000000000000000000000000000000000000000000000000000000081526004018080602001828103825283818151815260200191508051906020019080838360005b838110156122e75780820151818401526020810190506122cc565b50505050905090810190601f1680156123145780820380516001836020036101000a031916815260200191505b509250505060405180910390fd5b5060008385039050809150509392505050565b600061234a82846123a090919063ffffffff16565b905092915050565b6000670de0b6b3a7640000828161236557fe5b049050919050565b60008061238b84670de0b6b3a76400006123a090919063ffffffff16565b90506123978184612426565b91505092915050565b6000808314156123b35760009050612420565b60008284029050828482816123c457fe5b041461241b576040517f08c379a00000000000000000000000000000000000000000000000000000000081526004018080602001828103825260218152602001806126336021913960400191505060405180910390fd5b809150505b92915050565b600080612444670de0b6b3a7640000856123a090919063ffffffff16565b9050612459838261246290919063ffffffff16565b91505092915050565b60006124a483836040518060400160405280601a81526020017f536166654d6174683a206469766973696f6e206279207a65726f0000000000008152506124ac565b905092915050565b60008083118290612558576040517f08c379a00000000000000000000000000000000000000000000000000000000081526004018080602001828103825283818151815260200191508051906020019080838360005b8381101561251d578082015181840152602081019050612502565b50505050905090810190601f16801561254a5780820380516001836020036101000a031916815260200191505b509250505060405180910390fd5b50600083858161256457fe5b04905080915050939250505056fe72656465656d496e766573746d656e74546f6b656e3a206661696c656420746f2072656465656d616363727565496e7465726573743a206661696c656420746f2061636372756520696e746572657374646f6e617465496e7465726573743a20646169207472616e73666572206661696c6564646f6e617465496e7465726573743a206e6f7420656e6f75676820616c6c6f77616e636572656465656d496e766573746d656e74546f6b656e3a206661696c656420746f207472616e73666572536166654d6174683a206d756c7469706c69636174696f6e206f766572666c6f77436f6e747261637420696e7374616e63652068617320616c7265616479206265656e20696e697469616c697a656472656465656d446f6e617465643a206e6f7420656e6f75676820646f6e61746564a264697066735822122039e6a14778ee135b804d3fa11bf46d67ac88975805773cc592b0ec89a2a8132264736f6c63430006090033",
  "immutableReferences": {},
  "source": "// SPDX-License-Identifier: MIT\r\npragma solidity ^0.6.9;\r\n\r\nimport \"./IInterestManager.sol\";\r\nimport \"../util/Ownable.sol\";\r\nimport \"../compound/ICToken.sol\";\r\nimport \"@openzeppelin/contracts/token/ERC20/IERC20.sol\";\r\nimport \"../util/Initializable.sol\";\r\nimport \"@openzeppelin/contracts/math/SafeMath.sol\";\r\n\r\n/**\r\n * @title InterestManagerCompound\r\n * @author Alexander Schlindwein\r\n *\r\n * @dev Manages DAI investments into Compound. Sits behind a proxy\r\n */\r\ncontract InterestManagerCompound is Ownable, Initializable {\r\n\r\n    using SafeMath for uint;\r\n\r\n    IERC20 private _dai;\r\n    ICToken private _cDai;\r\n    IERC20 private _comp;\r\n    address private _compRecipient;\r\n\r\n    mapping(address => uint) _donatedDai;\r\n\r\n    /**\r\n     * @dev Initializes the contract\r\n     *\r\n     * @param owner The owner of the contract\r\n     * @param dai The Dai token address\r\n     * @param cDai The cDai token address\r\n     * @param comp The Comp token address\r\n     * @param compRecipient The address of the recipient of the Comp tokens\r\n     */\r\n    function initialize(address owner, address dai, address cDai, address comp, address compRecipient) external initializer {\r\n        setOwnerInternal(owner);\r\n        _dai = IERC20(dai);\r\n        _cDai = ICToken(cDai);\r\n        _comp = IERC20(comp);\r\n        _compRecipient = compRecipient;\r\n    }\r\n\r\n    /**\r\n     * @dev Invests a given amount of Dai into Compound\r\n     *\r\n     * @param amount The amount of Dai to invest\r\n     *\r\n     * @return The amount of minted cDai\r\n     */\r\n    function invest(uint amount) public returns (uint) {\r\n        uint balanceBefore = _cDai.balanceOf(address(this));\r\n        require(_dai.balanceOf(address(this)) >= amount, \"invest: not enough dai\");\r\n        require(_dai.approve(address(_cDai), amount), \"invest: dai approve cDai failed\");\r\n        require(_cDai.mint(amount) == 0, \"invest: cDai mint failed\");\r\n        uint balanceAfter = _cDai.balanceOf(address(this));\r\n        return balanceAfter.sub(balanceBefore);\r\n    }\r\n\r\n    /**\r\n     * @dev Checks that the caller is the owner and delegates to redeemInternal\r\n     *\r\n     * @return The amount of burned cDai\r\n     */\r\n    function redeem(address recipient, uint amount) external onlyOwner returns (uint) {\r\n        return redeemInternal(recipient, amount);\r\n    }\r\n\r\n    /**\r\n     * @dev Redeem a given amount of Dai from Compound and sends it to the recipient\r\n     *\r\n     * @param recipient The recipient of the redeemed Dai\r\n     * @param amount The amount of Dai to redeem\r\n     *\r\n     * @return The amount of burned cDai\r\n     */\r\n    function redeemInternal(address recipient, uint amount) internal returns (uint) {\r\n        uint balanceBefore = _cDai.balanceOf(address(this));\r\n        require(_cDai.redeemUnderlying(amount) == 0, \"redeem: failed to redeem\");\r\n        uint balanceAfter = _cDai.balanceOf(address(this));\r\n        require(_dai.transfer(recipient, amount), \"redeem: dai transfer failed\");\r\n        return balanceBefore.sub(balanceAfter);\r\n    }\r\n\r\n    /**\r\n     * @dev Redeem a given amount of cDai from Compound and sends Dai to the recipient\r\n     *\r\n     * @param recipient The recipient of the redeemed Dai\r\n     * @param amount The amount of cDai to redeem\r\n     *\r\n     * @return The amount of redeemed Dai\r\n     */\r\n    function redeemInvestmentToken(address recipient, uint amount) external onlyOwner returns (uint) {\r\n        uint balanceBefore = _dai.balanceOf(address(this));\r\n        require(_cDai.redeem(amount) == 0, \"redeemInvestmentToken: failed to redeem\");\r\n        uint redeemed = _dai.balanceOf(address(this)).sub(balanceBefore);\r\n        require(_dai.transfer(recipient, redeemed), \"redeemInvestmentToken: failed to transfer\");\r\n        return redeemed;\r\n    }\r\n\r\n    /**\r\n     * @dev Accepts donated Dai and invests into Compound to generate interest\r\n     *\r\n     * @param amount The amount of Dai to donate\r\n     */\r\n    function donateInterest(uint amount) external {\r\n        require(_dai.allowance(msg.sender, address(this)) >= amount, \"donateInterest: not enough allowance\");\r\n        require(_dai.transferFrom(msg.sender, address(this), amount), \"donateInterest: dai transfer failed\");\r\n        _donatedDai[msg.sender] = _donatedDai[msg.sender].add(amount);\r\n        invest(amount);\r\n    }\r\n\r\n    /**\r\n     * @dev Redeems donated Dai back to the donator without generated interest\r\n     *\r\n     * @param amount The amount of Dai to redeem\r\n     */\r\n    function redeemDonated(uint amount) external {\r\n        require(_donatedDai[msg.sender] >= amount, \"redeemDonated: not enough donated\");\r\n        _donatedDai[msg.sender] = _donatedDai[msg.sender].sub(amount);\r\n        redeemInternal(msg.sender, amount);\r\n    }\r\n\r\n    /**\r\n     * @dev Updates accrued interest on the invested Dai\r\n     */\r\n    function accrueInterest() external {\r\n        require(_cDai.accrueInterest() == 0, \"accrueInterest: failed to accrue interest\");\r\n    }\r\n\r\n    /**\r\n     * @dev Withdraws the generated Comp tokens to the Comp recipient\r\n     */\r\n    function withdrawComp() external {\r\n        require(_comp.transfer(_compRecipient, _comp.balanceOf(address(this))), \"redeemComp: transfer failed\");\r\n    }\r\n\r\n    /**\r\n     * @dev Converts an amount of underlying tokens to an amount of investment tokens\r\n     *\r\n     * @param underlyingAmount The amount of underlying tokens\r\n     *\r\n     * @return The amount of investment tokens\r\n     */\r\n    function underlyingToInvestmentToken(uint underlyingAmount) external view returns (uint) {\r\n        return divScalarByExpTruncate(underlyingAmount, _cDai.exchangeRateStored());\r\n    }\r\n\r\n    /**\r\n     * @dev Converts an amount of investment tokens to an amount of underlying tokens\r\n     *\r\n     * @param investmentTokenAmount The amount of investment tokens\r\n     *\r\n     * @return The amount of underlying tokens\r\n     */\r\n    function investmentTokenToUnderlying(uint investmentTokenAmount) external view returns (uint) {\r\n        return mulScalarTruncate(investmentTokenAmount, _cDai.exchangeRateStored());\r\n    }\r\n\r\n    // ====================================== COMPOUND MATH ======================================\r\n    // https://github.com/compound-finance/compound-protocol/blob/master/contracts/Exponential.sol\r\n    //\r\n    // Modified to revert instead of returning an error code\r\n\r\n    function mulScalarTruncate(uint a, uint scalar) pure internal returns (uint) {\r\n        uint product = mulScalar(a, scalar);\r\n        return truncate(product);\r\n    }\r\n\r\n    function mulScalar(uint a, uint scalar) pure internal returns (uint) {\r\n        return a.mul(scalar);\r\n    }\r\n\r\n    function divScalarByExpTruncate(uint scalar, uint divisor) pure internal returns (uint) {\r\n        uint fraction = divScalarByExp(scalar, divisor);\r\n        return truncate(fraction);\r\n    }\r\n\r\n    function divScalarByExp(uint scalar, uint divisor) pure internal returns (uint) {\r\n        uint numerator = uint(10**18).mul(scalar);\r\n        return getExp(numerator, divisor);\r\n    }\r\n\r\n    function getExp(uint num, uint denom) pure internal returns (uint) {\r\n        uint scaledNumerator = num.mul(10**18);\r\n        return scaledNumerator.div(denom);\r\n    }\r\n\r\n    function truncate(uint num) pure internal returns (uint) {\r\n        return num / 10**18;\r\n    }\r\n\r\n}",
  "sourcePath": "C:/Users/alexa/Desktop/ideamarket-contracts/contracts/core/InterestManagerCompound.sol",
  "compiler": {
    "name": "solc",
    "version": "0.6.9+commit.3e3065ac.Emscripten.clang"
  },
  "schemaVersion": "3.3.1",
  "updatedAt": "2020-10-20T11:27:49.431Z",
  "networkType": "ethereum",
  "devdoc": {
    "author": "Alexander Schlindwein",
    "details": "Manages DAI investments into Compound. Sits behind a proxy",
    "methods": {
      "accrueInterest()": {
        "details": "Updates accrued interest on the invested Dai"
      },
      "donateInterest(uint256)": {
        "details": "Accepts donated Dai and invests into Compound to generate interest",
        "params": {
          "amount": "The amount of Dai to donate"
        }
      },
      "initialize(address,address,address,address,address)": {
        "details": "Initializes the contract",
        "params": {
          "cDai": "The cDai token address",
          "comp": "The Comp token address",
          "compRecipient": "The address of the recipient of the Comp tokens",
          "dai": "The Dai token address",
          "owner": "The owner of the contract"
        }
      },
      "invest(uint256)": {
        "details": "Invests a given amount of Dai into Compound",
        "params": {
          "amount": "The amount of Dai to invest"
        },
        "returns": {
          "_0": "The amount of minted cDai"
        }
      },
      "investmentTokenToUnderlying(uint256)": {
        "details": "Converts an amount of investment tokens to an amount of underlying tokens",
        "params": {
          "investmentTokenAmount": "The amount of investment tokens"
        },
        "returns": {
          "_0": "The amount of underlying tokens"
        }
      },
      "redeem(address,uint256)": {
        "details": "Checks that the caller is the owner and delegates to redeemInternal",
        "returns": {
          "_0": "The amount of burned cDai"
        }
      },
      "redeemDonated(uint256)": {
        "details": "Redeems donated Dai back to the donator without generated interest",
        "params": {
          "amount": "The amount of Dai to redeem"
        }
      },
      "redeemInvestmentToken(address,uint256)": {
        "details": "Redeem a given amount of cDai from Compound and sends Dai to the recipient",
        "params": {
          "amount": "The amount of cDai to redeem",
          "recipient": "The recipient of the redeemed Dai"
        },
        "returns": {
          "_0": "The amount of redeemed Dai"
        }
      },
      "underlyingToInvestmentToken(uint256)": {
        "details": "Converts an amount of underlying tokens to an amount of investment tokens",
        "params": {
          "underlyingAmount": "The amount of underlying tokens"
        },
        "returns": {
          "_0": "The amount of investment tokens"
        }
      },
      "withdrawComp()": {
        "details": "Withdraws the generated Comp tokens to the Comp recipient"
      }
    },
    "title": "InterestManagerCompound"
  },
  "userdoc": {
    "methods": {}
  }
}