{
  "contractName": "Ownable",
  "abi": [
    {
      "inputs": [],
      "stateMutability": "nonpayable",
      "type": "constructor"
    },
    {
      "inputs": [],
      "name": "_owner",
      "outputs": [
        {
          "internalType": "address",
          "name": "",
          "type": "address"
        }
      ],
      "stateMutability": "view",
      "type": "function"
    }
  ],
  "bytecode": "0x608060405234801561001057600080fd5b50336000806101000a81548173ffffffffffffffffffffffffffffffffffffffff021916908373ffffffffffffffffffffffffffffffffffffffff16021790555060d08061005f6000396000f3fe6080604052348015600f57600080fd5b506004361060285760003560e01c8063b2bdfa7b14602d575b600080fd5b60336075565b604051808273ffffffffffffffffffffffffffffffffffffffff1673ffffffffffffffffffffffffffffffffffffffff16815260200191505060405180910390f35b6000809054906101000a900473ffffffffffffffffffffffffffffffffffffffff168156fea26469706673582212208df4701fb26325a7c2e95efa97cc1039eb2224af5d0a239baf4044ab1834db1064736f6c63430006090033",
  "immutableReferences": {},
  "source": "// SPDX-License-Identifier: MIT\r\npragma solidity ^0.6.9;\r\n\r\n/**\r\n * @title Ownable\r\n * @author Alexander Schlindwein\r\n *\r\n * @dev Implements only-owner functionality\r\n */\r\ncontract Ownable {\r\n\r\n    address public _owner;\r\n\r\n    constructor() public {\r\n        _owner = msg.sender;\r\n    }\r\n\r\n    modifier onlyOwner {\r\n        require(_owner == msg.sender, \"Ownable: onlyOwner\");\r\n        _;\r\n    }\r\n}",
  "sourcePath": "C:\\Users\\Alexander\\Desktop\\ideamarket\\contracts\\util\\Ownable.sol",
  "compiler": {
    "name": "solc",
    "version": "0.6.9+commit.3e3065ac.Emscripten.clang"
  },
  "schemaVersion": "3.2.2",
  "updatedAt": "2020-07-20T15:42:31.368Z",
  "devdoc": {
    "author": "Alexander Schlindwein",
    "details": "Implements only-owner functionality",
    "methods": {},
    "title": "Ownable"
  },
  "userdoc": {
    "methods": {}
  }
}