{
  "contractName": "Ownable",
  "abi": [
    {
      "anonymous": false,
      "inputs": [
        {
          "indexed": false,
          "internalType": "address",
          "name": "oldOwner",
          "type": "address"
        },
        {
          "indexed": false,
          "internalType": "address",
          "name": "newOwner",
          "type": "address"
        }
      ],
      "name": "OwnershipChanged",
      "type": "event"
    },
    {
      "inputs": [
        {
          "internalType": "address",
          "name": "newOwner",
          "type": "address"
        }
      ],
      "name": "setOwner",
      "outputs": [],
      "stateMutability": "nonpayable",
      "type": "function"
    },
    {
      "inputs": [],
      "name": "getOwner",
      "outputs": [
        {
          "internalType": "address",
          "name": "",
          "type": "address"
        }
      ],
      "stateMutability": "view",
      "type": "function"
    }
  ],
  "bytecode": "0x608060405234801561001057600080fd5b506102f7806100206000396000f3fe608060405234801561001057600080fd5b50600436106100365760003560e01c806313af40351461003b578063893d20e81461007f575b600080fd5b61007d6004803603602081101561005157600080fd5b81019080803573ffffffffffffffffffffffffffffffffffffffff1690602001909291905050506100c9565b005b610087610197565b604051808273ffffffffffffffffffffffffffffffffffffffff1673ffffffffffffffffffffffffffffffffffffffff16815260200191505060405180910390f35b3373ffffffffffffffffffffffffffffffffffffffff166000809054906101000a900473ffffffffffffffffffffffffffffffffffffffff1673ffffffffffffffffffffffffffffffffffffffff161461018b576040517f08c379a00000000000000000000000000000000000000000000000000000000081526004018080602001828103825260128152602001807f4f776e61626c653a206f6e6c794f776e6572000000000000000000000000000081525060200191505060405180910390fd5b610194816101c0565b50565b60008060009054906101000a900473ffffffffffffffffffffffffffffffffffffffff16905090565b60008060009054906101000a900473ffffffffffffffffffffffffffffffffffffffff169050816000806101000a81548173ffffffffffffffffffffffffffffffffffffffff021916908373ffffffffffffffffffffffffffffffffffffffff1602179055507f0384899bd253d83b23daa4d29aaa2efe0563d1132b43101e9ad667235aeb951b8183604051808373ffffffffffffffffffffffffffffffffffffffff1673ffffffffffffffffffffffffffffffffffffffff1681526020018273ffffffffffffffffffffffffffffffffffffffff1673ffffffffffffffffffffffffffffffffffffffff1681526020019250505060405180910390a1505056fea26469706673582212205b9795a488dfe971d41af822349017541450a92be58878531694cb0d1b5a3f8864736f6c63430006090033",
  "immutableReferences": {},
  "source": "// SPDX-License-Identifier: MIT\r\npragma solidity ^0.6.9;\r\n\r\n/**\r\n * @title Ownable\r\n * @author Alexander Schlindwein\r\n *\r\n * @dev Implements only-owner functionality\r\n */\r\ncontract Ownable {\r\n\r\n    address _owner;\r\n\r\n    event OwnershipChanged(address oldOwner, address newOwner);\r\n\r\n    modifier onlyOwner {\r\n        require(_owner == msg.sender, \"Ownable: onlyOwner\");\r\n        _;\r\n    }\r\n\r\n    function setOwner(address newOwner) external onlyOwner {\r\n        setOwnerInternal(newOwner);\r\n    }\r\n\r\n    function setOwnerInternal(address newOwner) internal {\r\n        address oldOwner = _owner;\r\n        _owner = newOwner;\r\n\r\n        emit OwnershipChanged(oldOwner, newOwner);\r\n    }\r\n\r\n    function getOwner() external view returns (address) {\r\n        return _owner;\r\n    }\r\n}",
  "sourcePath": "C:\\Users\\alexa\\Desktop\\ideamarket-contracts\\contracts\\util\\Ownable.sol",
  "compiler": {
    "name": "solc",
    "version": "0.6.9+commit.3e3065ac.Emscripten.clang"
  },
  "schemaVersion": "3.2.3",
  "updatedAt": "2020-10-16T11:56:47.989Z",
  "devdoc": {
    "author": "Alexander Schlindwein",
    "details": "Implements only-owner functionality",
    "methods": {},
    "title": "Ownable"
  },
  "userdoc": {
    "methods": {}
  }
}