{
  "contractName": "ProxyAdmin",
  "abi": [
    {
      "inputs": [
        {
          "internalType": "address",
          "name": "owner",
          "type": "address"
        }
      ],
      "stateMutability": "nonpayable",
      "type": "constructor"
    },
    {
      "anonymous": false,
      "inputs": [
        {
          "indexed": false,
          "internalType": "address",
          "name": "oldOwner",
          "type": "address"
        },
        {
          "indexed": false,
          "internalType": "address",
          "name": "newOwner",
          "type": "address"
        }
      ],
      "name": "OwnershipChanged",
      "type": "event"
    },
    {
      "inputs": [],
      "name": "getOwner",
      "outputs": [
        {
          "internalType": "address",
          "name": "",
          "type": "address"
        }
      ],
      "stateMutability": "view",
      "type": "function",
      "constant": true
    },
    {
      "inputs": [
        {
          "internalType": "address",
          "name": "newOwner",
          "type": "address"
        }
      ],
      "name": "setOwner",
      "outputs": [],
      "stateMutability": "nonpayable",
      "type": "function"
    },
    {
      "inputs": [
        {
          "internalType": "contract AdminUpgradeabilityProxy",
          "name": "proxy",
          "type": "address"
        }
      ],
      "name": "getProxyImplementation",
      "outputs": [
        {
          "internalType": "address",
          "name": "",
          "type": "address"
        }
      ],
      "stateMutability": "view",
      "type": "function",
      "constant": true
    },
    {
      "inputs": [
        {
          "internalType": "contract AdminUpgradeabilityProxy",
          "name": "proxy",
          "type": "address"
        }
      ],
      "name": "getProxyAdmin",
      "outputs": [
        {
          "internalType": "address",
          "name": "",
          "type": "address"
        }
      ],
      "stateMutability": "view",
      "type": "function",
      "constant": true
    },
    {
      "inputs": [
        {
          "internalType": "contract AdminUpgradeabilityProxy",
          "name": "proxy",
          "type": "address"
        },
        {
          "internalType": "address",
          "name": "newAdmin",
          "type": "address"
        }
      ],
      "name": "changeProxyAdmin",
      "outputs": [],
      "stateMutability": "nonpayable",
      "type": "function"
    },
    {
      "inputs": [
        {
          "internalType": "contract AdminUpgradeabilityProxy",
          "name": "proxy",
          "type": "address"
        },
        {
          "internalType": "address",
          "name": "implementation",
          "type": "address"
        }
      ],
      "name": "upgrade",
      "outputs": [],
      "stateMutability": "nonpayable",
      "type": "function"
    },
    {
      "inputs": [
        {
          "internalType": "contract AdminUpgradeabilityProxy",
          "name": "proxy",
          "type": "address"
        },
        {
          "internalType": "address",
          "name": "implementation",
          "type": "address"
        },
        {
          "internalType": "bytes",
          "name": "data",
          "type": "bytes"
        }
      ],
      "name": "upgradeAndCall",
      "outputs": [],
      "stateMutability": "payable",
      "type": "function",
      "payable": true
    }
  ],
  "bytecode": "0x608060405234801561001057600080fd5b50604051610dc9380380610dc98339818101604052602081101561003357600080fd5b81019080805190602001909291905050506100538161005960201b60201c565b5061015a565b60008060009054906101000a900473ffffffffffffffffffffffffffffffffffffffff169050816000806101000a81548173ffffffffffffffffffffffffffffffffffffffff021916908373ffffffffffffffffffffffffffffffffffffffff1602179055507f0384899bd253d83b23daa4d29aaa2efe0563d1132b43101e9ad667235aeb951b8183604051808373ffffffffffffffffffffffffffffffffffffffff1673ffffffffffffffffffffffffffffffffffffffff1681526020018273ffffffffffffffffffffffffffffffffffffffff1673ffffffffffffffffffffffffffffffffffffffff1681526020019250505060405180910390a15050565b610c60806101696000396000f3fe6080604052600436106100705760003560e01c8063893d20e81161004e578063893d20e8146101c85780639623609d1461021f57806399a88ec41461031a578063f3b7dead1461038b57610070565b806313af403514610075578063204e1c7a146100c65780637eff275e14610157575b600080fd5b34801561008157600080fd5b506100c46004803603602081101561009857600080fd5b81019080803573ffffffffffffffffffffffffffffffffffffffff16906020019092919050505061041c565b005b3480156100d257600080fd5b50610115600480360360208110156100e957600080fd5b81019080803573ffffffffffffffffffffffffffffffffffffffff1690602001909291905050506104ea565b604051808273ffffffffffffffffffffffffffffffffffffffff1673ffffffffffffffffffffffffffffffffffffffff16815260200191505060405180910390f35b34801561016357600080fd5b506101c66004803603604081101561017a57600080fd5b81019080803573ffffffffffffffffffffffffffffffffffffffff169060200190929190803573ffffffffffffffffffffffffffffffffffffffff1690602001909291905050506105b2565b005b3480156101d457600080fd5b506101dd61070f565b604051808273ffffffffffffffffffffffffffffffffffffffff1673ffffffffffffffffffffffffffffffffffffffff16815260200191505060405180910390f35b6103186004803603606081101561023557600080fd5b81019080803573ffffffffffffffffffffffffffffffffffffffff169060200190929190803573ffffffffffffffffffffffffffffffffffffffff1690602001909291908035906020019064010000000081111561029257600080fd5b8201836020820111156102a457600080fd5b803590602001918460018302840111640100000000831117156102c657600080fd5b91908080601f016020809104026020016040519081016040528093929190818152602001838380828437600081840152601f19601f820116905080830192505050505050509192919290505050610738565b005b34801561032657600080fd5b506103896004803603604081101561033d57600080fd5b81019080803573ffffffffffffffffffffffffffffffffffffffff169060200190929190803573ffffffffffffffffffffffffffffffffffffffff169060200190929190505050610904565b005b34801561039757600080fd5b506103da600480360360208110156103ae57600080fd5b81019080803573ffffffffffffffffffffffffffffffffffffffff169060200190929190505050610a61565b604051808273ffffffffffffffffffffffffffffffffffffffff1673ffffffffffffffffffffffffffffffffffffffff16815260200191505060405180910390f35b3373ffffffffffffffffffffffffffffffffffffffff166000809054906101000a900473ffffffffffffffffffffffffffffffffffffffff1673ffffffffffffffffffffffffffffffffffffffff16146104de576040517f08c379a00000000000000000000000000000000000000000000000000000000081526004018080602001828103825260128152602001807f4f776e61626c653a206f6e6c794f776e6572000000000000000000000000000081525060200191505060405180910390fd5b6104e781610b29565b50565b60008060608373ffffffffffffffffffffffffffffffffffffffff1660405180807f5c60da1b000000000000000000000000000000000000000000000000000000008152506004019050600060405180830381855afa9150503d806000811461056f576040519150601f19603f3d011682016040523d82523d6000602084013e610574565b606091505b50915091508161058357600080fd5b80806020019051602081101561059857600080fd5b810190808051906020019092919050505092505050919050565b3373ffffffffffffffffffffffffffffffffffffffff166000809054906101000a900473ffffffffffffffffffffffffffffffffffffffff1673ffffffffffffffffffffffffffffffffffffffff1614610674576040517f08c379a00000000000000000000000000000000000000000000000000000000081526004018080602001828103825260128152602001807f4f776e61626c653a206f6e6c794f776e6572000000000000000000000000000081525060200191505060405180910390fd5b8173ffffffffffffffffffffffffffffffffffffffff16638f283970826040518263ffffffff1660e01b8152600401808273ffffffffffffffffffffffffffffffffffffffff1673ffffffffffffffffffffffffffffffffffffffff168152602001915050600060405180830381600087803b1580156106f357600080fd5b505af1158015610707573d6000803e3d6000fd5b505050505050565b60008060009054906101000a900473ffffffffffffffffffffffffffffffffffffffff16905090565b3373ffffffffffffffffffffffffffffffffffffffff166000809054906101000a900473ffffffffffffffffffffffffffffffffffffffff1673ffffffffffffffffffffffffffffffffffffffff16146107fa576040517f08c379a00000000000000000000000000000000000000000000000000000000081526004018080602001828103825260128152602001807f4f776e61626c653a206f6e6c794f776e6572000000000000000000000000000081525060200191505060405180910390fd5b8273ffffffffffffffffffffffffffffffffffffffff16634f1ef2863484846040518463ffffffff1660e01b8152600401808373ffffffffffffffffffffffffffffffffffffffff1673ffffffffffffffffffffffffffffffffffffffff16815260200180602001828103825283818151815260200191508051906020019080838360005b8381101561089a57808201518184015260208101905061087f565b50505050905090810190601f1680156108c75780820380516001836020036101000a031916815260200191505b5093505050506000604051808303818588803b1580156108e657600080fd5b505af11580156108fa573d6000803e3d6000fd5b5050505050505050565b3373ffffffffffffffffffffffffffffffffffffffff166000809054906101000a900473ffffffffffffffffffffffffffffffffffffffff1673ffffffffffffffffffffffffffffffffffffffff16146109c6576040517f08c379a00000000000000000000000000000000000000000000000000000000081526004018080602001828103825260128152602001807f4f776e61626c653a206f6e6c794f776e6572000000000000000000000000000081525060200191505060405180910390fd5b8173ffffffffffffffffffffffffffffffffffffffff16633659cfe6826040518263ffffffff1660e01b8152600401808273ffffffffffffffffffffffffffffffffffffffff1673ffffffffffffffffffffffffffffffffffffffff168152602001915050600060405180830381600087803b158015610a4557600080fd5b505af1158015610a59573d6000803e3d6000fd5b505050505050565b60008060608373ffffffffffffffffffffffffffffffffffffffff1660405180807ff851a440000000000000000000000000000000000000000000000000000000008152506004019050600060405180830381855afa9150503d8060008114610ae6576040519150601f19603f3d011682016040523d82523d6000602084013e610aeb565b606091505b509150915081610afa57600080fd5b808060200190516020811015610b0f57600080fd5b810190808051906020019092919050505092505050919050565b60008060009054906101000a900473ffffffffffffffffffffffffffffffffffffffff169050816000806101000a81548173ffffffffffffffffffffffffffffffffffffffff021916908373ffffffffffffffffffffffffffffffffffffffff1602179055507f0384899bd253d83b23daa4d29aaa2efe0563d1132b43101e9ad667235aeb951b8183604051808373ffffffffffffffffffffffffffffffffffffffff1673ffffffffffffffffffffffffffffffffffffffff1681526020018273ffffffffffffffffffffffffffffffffffffffff1673ffffffffffffffffffffffffffffffffffffffff1681526020019250505060405180910390a1505056fea2646970667358221220599a018a52fedba5c7dd97d5dd86c6b4c06901d9a231dcb8bf7d21c0e94e544f64736f6c63430006090033",
  "immutableReferences": {},
  "source": "// SPDX-License-Identifier: MIT\r\n// https://github.com/OpenZeppelin/openzeppelin-upgrades/blob/master/packages/core/contracts/proxy/ProxyAdmin.sol\r\n\r\npragma solidity ^0.6.9;\r\n\r\nimport \"../util/Ownable.sol\";\r\nimport \"./AdminUpgradeabilityProxy.sol\";\r\n\r\n/**\r\n * @title ProxyAdmin\r\n * @dev This contract is the admin of a proxy, and is in charge\r\n * of upgrading it as well as transferring it to another admin.\r\n */\r\ncontract ProxyAdmin is Ownable {\r\n  \r\n  constructor(address owner) public {\r\n    setOwnerInternal(owner);\r\n  }\r\n\r\n\r\n  /**\r\n   * @dev Returns the current implementation of a proxy.\r\n   * This is needed because only the proxy admin can query it.\r\n   * @return The address of the current implementation of the proxy.\r\n   */\r\n  function getProxyImplementation(AdminUpgradeabilityProxy proxy) public view returns (address) {\r\n    // We need to manually run the static call since the getter cannot be flagged as view\r\n    // bytes4(keccak256(\"implementation()\")) == 0x5c60da1b\r\n    (bool success, bytes memory returndata) = address(proxy).staticcall(hex\"5c60da1b\");\r\n    require(success);\r\n    return abi.decode(returndata, (address));\r\n  }\r\n\r\n  /**\r\n   * @dev Returns the admin of a proxy. Only the admin can query it.\r\n   * @return The address of the current admin of the proxy.\r\n   */\r\n  function getProxyAdmin(AdminUpgradeabilityProxy proxy) public view returns (address) {\r\n    // We need to manually run the static call since the getter cannot be flagged as view\r\n    // bytes4(keccak256(\"admin()\")) == 0xf851a440\r\n    (bool success, bytes memory returndata) = address(proxy).staticcall(hex\"f851a440\");\r\n    require(success);\r\n    return abi.decode(returndata, (address));\r\n  }\r\n\r\n  /**\r\n   * @dev Changes the admin of a proxy.\r\n   * @param proxy Proxy to change admin.\r\n   * @param newAdmin Address to transfer proxy administration to.\r\n   */\r\n  function changeProxyAdmin(AdminUpgradeabilityProxy proxy, address newAdmin) public onlyOwner {\r\n    proxy.changeAdmin(newAdmin);\r\n  }\r\n\r\n  /**\r\n   * @dev Upgrades a proxy to the newest implementation of a contract.\r\n   * @param proxy Proxy to be upgraded.\r\n   * @param implementation the address of the Implementation.\r\n   */\r\n  function upgrade(AdminUpgradeabilityProxy proxy, address implementation) public onlyOwner {\r\n    proxy.upgradeTo(implementation);\r\n  }\r\n\r\n  /**\r\n   * @dev Upgrades a proxy to the newest implementation of a contract and forwards a function call to it.\r\n   * This is useful to initialize the proxied contract.\r\n   * @param proxy Proxy to be upgraded.\r\n   * @param implementation Address of the Implementation.\r\n   * @param data Data to send as msg.data in the low level call.\r\n   * It should include the signature and the parameters of the function to be called, as described in\r\n   * https://solidity.readthedocs.io/en/v0.4.24/abi-spec.html#function-selector-and-argument-encoding.\r\n   */\r\n  function upgradeAndCall(AdminUpgradeabilityProxy proxy, address implementation, bytes memory data) payable public onlyOwner {\r\n    proxy.upgradeToAndCall{value: msg.value}(implementation, data);\r\n  }\r\n}",
  "sourcePath": "C:/Users/alexa/Desktop/ideamarket-contracts/contracts/proxy/ProxyAdmin.sol",
  "compiler": {
    "name": "solc",
    "version": "0.6.9+commit.3e3065ac.Emscripten.clang"
  },
  "schemaVersion": "3.2.3",
  "updatedAt": "2020-10-13T12:04:34.506Z",
  "networkType": "ethereum",
  "devdoc": {
    "details": "This contract is the admin of a proxy, and is in charge of upgrading it as well as transferring it to another admin.",
    "methods": {
      "changeProxyAdmin(address,address)": {
        "details": "Changes the admin of a proxy.",
        "params": {
          "newAdmin": "Address to transfer proxy administration to.",
          "proxy": "Proxy to change admin."
        }
      },
      "getProxyAdmin(address)": {
        "details": "Returns the admin of a proxy. Only the admin can query it.",
        "returns": {
          "_0": "The address of the current admin of the proxy."
        }
      },
      "getProxyImplementation(address)": {
        "details": "Returns the current implementation of a proxy. This is needed because only the proxy admin can query it.",
        "returns": {
          "_0": "The address of the current implementation of the proxy."
        }
      },
      "upgrade(address,address)": {
        "details": "Upgrades a proxy to the newest implementation of a contract.",
        "params": {
          "implementation": "the address of the Implementation.",
          "proxy": "Proxy to be upgraded."
        }
      },
      "upgradeAndCall(address,address,bytes)": {
        "details": "Upgrades a proxy to the newest implementation of a contract and forwards a function call to it. This is useful to initialize the proxied contract.",
        "params": {
          "data": "Data to send as msg.data in the low level call. It should include the signature and the parameters of the function to be called, as described in https://solidity.readthedocs.io/en/v0.4.24/abi-spec.html#function-selector-and-argument-encoding.",
          "implementation": "Address of the Implementation.",
          "proxy": "Proxy to be upgraded."
        }
      }
    },
    "title": "ProxyAdmin"
  },
  "userdoc": {
    "methods": {}
  }
}