{
  "contractName": "SetPlatformFeeSpell",
  "abi": [
    {
      "inputs": [
        {
          "internalType": "address",
          "name": "factory",
          "type": "address"
        },
        {
          "internalType": "uint256",
          "name": "marketID",
          "type": "uint256"
        },
        {
          "internalType": "uint256",
          "name": "platformFeeRate",
          "type": "uint256"
        }
      ],
      "name": "execute",
      "outputs": [],
      "stateMutability": "nonpayable",
      "type": "function"
    }
  ],
  "bytecode": "0x608060405234801561001057600080fd5b5061012e806100206000396000f3fe6080604052348015600f57600080fd5b506004361060285760003560e01c8063c52ab77814602d575b600080fd5b608060048036036060811015604157600080fd5b81019080803573ffffffffffffffffffffffffffffffffffffffff16906020019092919080359060200190929190803590602001909291905050506082565b005b8273ffffffffffffffffffffffffffffffffffffffff1663dc5ea5d983836040518363ffffffff1660e01b81526004018083815260200182815260200192505050600060405180830381600087803b15801560dc57600080fd5b505af115801560ef573d6000803e3d6000fd5b5050505050505056fea26469706673582212209e559f3f0816e48ec240ccdf41b38d704ea4366377ab5b8d9d4adaa5abfc439064736f6c63430006090033",
  "immutableReferences": {},
  "source": "// SPDX-License-Identifier: MIT\r\npragma solidity ^0.6.9;\r\n\r\nimport \"../core/IIdeaTokenFactory.sol\";\r\n\r\n/**\r\n * @title SetPlatformFeeSpell\r\n * @author Alexander Schlindwein\r\n *\r\n * @dev Spell to set the platform fee for a market\r\n */\r\ncontract SetPlatformFeeSpell {\r\n\r\n    /**\r\n     * @dev Sets the platform fee for a market\r\n     *\r\n     * @param factory The address of the IdeaTokenFactory\r\n     * @param marketID The market for which to set the platform fee\r\n     * @param platformFeeRate The platform fee\r\n     */\r\n    function execute(address factory, uint marketID, uint platformFeeRate) external {\r\n        IIdeaTokenFactory(factory).setPlatformFee(marketID, platformFeeRate);\r\n    }\r\n}",
  "sourcePath": "C:/Users/alexa/Desktop/ideamarket-contracts/contracts/spells/SetPlatformFeeSpell.sol",
  "compiler": {
    "name": "solc",
    "version": "0.6.9+commit.3e3065ac.Emscripten.clang"
  },
  "schemaVersion": "3.2.3",
  "updatedAt": "2020-10-19T08:02:51.079Z",
  "networkType": "ethereum",
  "devdoc": {
    "author": "Alexander Schlindwein",
    "details": "Spell to set the platform fee for a market",
    "methods": {
      "execute(address,uint256,uint256)": {
        "details": "Sets the platform fee for a market",
        "params": {
          "factory": "The address of the IdeaTokenFactory",
          "marketID": "The market for which to set the platform fee",
          "platformFeeRate": "The platform fee"
        }
      }
    },
    "title": "SetPlatformFeeSpell"
  },
  "userdoc": {
    "methods": {}
  }
}