{
  "contractName": "SetTimelockAdminSpell",
  "abi": [
    {
      "inputs": [
        {
          "internalType": "address",
          "name": "dsPause",
          "type": "address"
        },
        {
          "internalType": "address",
          "name": "owner",
          "type": "address"
        }
      ],
      "name": "execute",
      "outputs": [],
      "stateMutability": "nonpayable",
      "type": "function"
    }
  ],
  "bytecode": "0x608060405234801561001057600080fd5b50610165806100206000396000f3fe608060405234801561001057600080fd5b506004361061002b5760003560e01c8063d80aea1514610030575b600080fd5b6100926004803603604081101561004657600080fd5b81019080803573ffffffffffffffffffffffffffffffffffffffff169060200190929190803573ffffffffffffffffffffffffffffffffffffffff169060200190929190505050610094565b005b8173ffffffffffffffffffffffffffffffffffffffff166313af4035826040518263ffffffff1660e01b8152600401808273ffffffffffffffffffffffffffffffffffffffff1673ffffffffffffffffffffffffffffffffffffffff168152602001915050600060405180830381600087803b15801561011357600080fd5b505af1158015610127573d6000803e3d6000fd5b50505050505056fea26469706673582212206fc11a2c27b0af79df393b1f6e5d28f1847dcab4f12bead0d6d310fc22c4749064736f6c63430006090033",
  "immutableReferences": {},
  "source": "// SPDX-License-Identifier: MIT\r\npragma solidity ^0.6.9;\r\n\r\nimport \"../timelock/IDSPause.sol\";\r\n\r\ncontract SetTimelockAdminSpell {\r\n    function execute(address dsPause, address owner) external {\r\n        IDSPause(dsPause).setOwner(owner);\r\n    }\r\n}",
  "sourcePath": "C:/Users/alexa/Desktop/ideamarket-contracts/contracts/spells/SetTimelockAdminSpell.sol",
  "compiler": {
    "name": "solc",
    "version": "0.6.9+commit.3e3065ac.Emscripten.clang"
  },
  "schemaVersion": "3.2.3",
  "updatedAt": "2020-10-13T10:03:13.856Z",
  "devdoc": {
    "methods": {}
  },
  "userdoc": {
    "methods": {}
  }
}