{
  "contractName": "SetTimelockDelaySpell",
  "abi": [
    {
      "inputs": [
        {
          "internalType": "address",
          "name": "dsPause",
          "type": "address"
        },
        {
          "internalType": "uint256",
          "name": "delay",
          "type": "uint256"
        }
      ],
      "name": "execute",
      "outputs": [],
      "stateMutability": "nonpayable",
      "type": "function"
    }
  ],
  "bytecode": "0x608060405234801561001057600080fd5b5061011b806100206000396000f3fe6080604052348015600f57600080fd5b506004361060285760003560e01c80633b89bb8614602d575b600080fd5b607660048036036040811015604157600080fd5b81019080803573ffffffffffffffffffffffffffffffffffffffff169060200190929190803590602001909291905050506078565b005b8173ffffffffffffffffffffffffffffffffffffffff1663e177246e826040518263ffffffff1660e01b815260040180828152602001915050600060405180830381600087803b15801560ca57600080fd5b505af115801560dd573d6000803e3d6000fd5b50505050505056fea2646970667358221220174e8ea0ad47163299f793bdfaf492f7b3126e14f8016be77c2dd0252ad4b04664736f6c63430006090033",
  "immutableReferences": {},
  "source": "// SPDX-License-Identifier: MIT\r\npragma solidity ^0.6.9;\r\n\r\nimport \"../timelock/IDSPause.sol\";\r\n\r\n/**\r\n * @title SetTimelockDelaySpell\r\n * @author Alexander Schlindwein\r\n *\r\n * @dev Spell to set the timelock delay\r\n */\r\ncontract SetTimelockDelaySpell {\r\n\r\n    /**\r\n     * @dev Sets the timelock delay\r\n     *\r\n     * @param dsPause The address of the timelock\r\n     * @param delay The new delay in seconds\r\n     */\r\n    function execute(address dsPause, uint delay) external {\r\n        IDSPause(dsPause).setDelay(delay);\r\n    }\r\n}",
  "sourcePath": "C:/Users/alexa/Desktop/ideamarket-contracts/contracts/spells/SetTimelockDelaySpell.sol",
  "compiler": {
    "name": "solc",
    "version": "0.6.9+commit.3e3065ac.Emscripten.clang"
  },
  "schemaVersion": "3.3.1",
  "updatedAt": "2020-10-21T09:10:32.158Z",
  "devdoc": {
    "author": "Alexander Schlindwein",
    "details": "Spell to set the timelock delay",
    "methods": {
      "execute(address,uint256)": {
        "details": "Sets the timelock delay",
        "params": {
          "delay": "The new delay in seconds",
          "dsPause": "The address of the timelock"
        }
      }
    },
    "title": "SetTimelockDelaySpell"
  },
  "userdoc": {
    "methods": {}
  }
}