{
  "contractName": "SetTimelockAdminSpell",
  "abi": [
    {
      "inputs": [
        {
          "internalType": "address",
          "name": "dsPause",
          "type": "address"
        },
        {
          "internalType": "address",
          "name": "owner",
          "type": "address"
        }
      ],
      "name": "execute",
      "outputs": [],
      "stateMutability": "nonpayable",
      "type": "function"
    }
  ],
  "bytecode": "0x608060405234801561001057600080fd5b50610165806100206000396000f3fe608060405234801561001057600080fd5b506004361061002b5760003560e01c8063d80aea1514610030575b600080fd5b6100926004803603604081101561004657600080fd5b81019080803573ffffffffffffffffffffffffffffffffffffffff169060200190929190803573ffffffffffffffffffffffffffffffffffffffff169060200190929190505050610094565b005b8173ffffffffffffffffffffffffffffffffffffffff166313af4035826040518263ffffffff1660e01b8152600401808273ffffffffffffffffffffffffffffffffffffffff1673ffffffffffffffffffffffffffffffffffffffff168152602001915050600060405180830381600087803b15801561011357600080fd5b505af1158015610127573d6000803e3d6000fd5b50505050505056fea2646970667358221220787761f93ffe7e725e9e45c7e1dfdb6d42ecf383bc33b9c84e61832ea1a4f14364736f6c63430006090033",
  "immutableReferences": {},
  "source": "// SPDX-License-Identifier: MIT\r\npragma solidity ^0.6.9;\r\n\r\nimport \"../timelock/IDSPause.sol\";\r\n\r\n/**\r\n * @title SetTimelockAdminSpell\r\n * @author Alexander Schlindwein\r\n *\r\n * @dev Spell to set the admin of the timelock\r\n */\r\ncontract SetTimelockAdminSpell {\r\n\r\n    /**\r\n     * @dev Sets the timelock admin\r\n     *\r\n     * @param dsPause The address of the timelock\r\n     * @param owner The address of the new admin\r\n     */\r\n    function execute(address dsPause, address owner) external {\r\n        IDSPause(dsPause).setOwner(owner);\r\n    }\r\n}",
  "sourcePath": "C:/Users/Alexander/Desktop/ideamarket-contracts/contracts/spells/SetTimelockAdminSpell.sol",
  "compiler": {
    "name": "solc",
    "version": "0.6.9+commit.3e3065ac.Emscripten.clang"
  },
  "schemaVersion": "3.3.0",
  "updatedAt": "2020-10-18T10:34:42.988Z",
  "devdoc": {
    "author": "Alexander Schlindwein",
    "details": "Spell to set the admin of the timelock",
    "methods": {
      "execute(address,address)": {
        "details": "Sets the timelock admin",
        "params": {
          "dsPause": "The address of the timelock",
          "owner": "The address of the new admin"
        }
      }
    },
    "title": "SetTimelockAdminSpell"
  },
  "userdoc": {
    "methods": {}
  }
}