{
  "contractName": "SetTradingFeeSpell",
  "abi": [
    {
      "inputs": [
        {
          "internalType": "address",
          "name": "factory",
          "type": "address"
        },
        {
          "internalType": "uint256",
          "name": "marketID",
          "type": "uint256"
        },
        {
          "internalType": "uint256",
          "name": "tradingFeeRate",
          "type": "uint256"
        }
      ],
      "name": "execute",
      "outputs": [],
      "stateMutability": "nonpayable",
      "type": "function"
    }
  ],
  "bytecode": "0x608060405234801561001057600080fd5b5061012e806100206000396000f3fe6080604052348015600f57600080fd5b506004361060285760003560e01c8063c52ab77814602d575b600080fd5b608060048036036060811015604157600080fd5b81019080803573ffffffffffffffffffffffffffffffffffffffff16906020019092919080359060200190929190803590602001909291905050506082565b005b8273ffffffffffffffffffffffffffffffffffffffff1663a5ffb1e983836040518363ffffffff1660e01b81526004018083815260200182815260200192505050600060405180830381600087803b15801560dc57600080fd5b505af115801560ef573d6000803e3d6000fd5b5050505050505056fea2646970667358221220565eb1e8ecef85968e00d881527a87daf262caf4258d624d39da395aa8911c8064736f6c63430006090033",
  "immutableReferences": {},
  "source": "// SPDX-License-Identifier: MIT\r\npragma solidity ^0.6.9;\r\n\r\nimport \"../core/IIdeaTokenFactory.sol\";\r\n\r\ncontract SetTradingFeeSpell {\r\n    function execute(address factory, uint marketID, uint tradingFeeRate) external {\r\n        IIdeaTokenFactory(factory).setTradingFee(marketID, tradingFeeRate);\r\n    }\r\n}",
  "sourcePath": "C:/Users/alexa/Desktop/ideamarket-contracts/contracts/spells/SetTradingFeeSpell.sol",
  "compiler": {
    "name": "solc",
    "version": "0.6.9+commit.3e3065ac.Emscripten.clang"
  },
  "schemaVersion": "3.2.3",
  "updatedAt": "2020-10-14T12:19:42.480Z",
  "networkType": "ethereum",
  "devdoc": {
    "methods": {}
  },
  "userdoc": {
    "methods": {}
  }
}