{
  "contractName": "TestCDai",
  "abi": [
    {
      "inputs": [
        {
          "internalType": "address",
          "name": "dai",
          "type": "address"
        },
        {
          "internalType": "address",
          "name": "comp",
          "type": "address"
        }
      ],
      "stateMutability": "nonpayable",
      "type": "constructor"
    },
    {
      "anonymous": false,
      "inputs": [
        {
          "indexed": true,
          "internalType": "address",
          "name": "owner",
          "type": "address"
        },
        {
          "indexed": true,
          "internalType": "address",
          "name": "spender",
          "type": "address"
        },
        {
          "indexed": false,
          "internalType": "uint256",
          "name": "value",
          "type": "uint256"
        }
      ],
      "name": "Approval",
      "type": "event"
    },
    {
      "anonymous": false,
      "inputs": [
        {
          "indexed": true,
          "internalType": "address",
          "name": "from",
          "type": "address"
        },
        {
          "indexed": true,
          "internalType": "address",
          "name": "to",
          "type": "address"
        },
        {
          "indexed": false,
          "internalType": "uint256",
          "name": "value",
          "type": "uint256"
        }
      ],
      "name": "Transfer",
      "type": "event"
    },
    {
      "inputs": [
        {
          "internalType": "address",
          "name": "owner",
          "type": "address"
        },
        {
          "internalType": "address",
          "name": "spender",
          "type": "address"
        }
      ],
      "name": "allowance",
      "outputs": [
        {
          "internalType": "uint256",
          "name": "",
          "type": "uint256"
        }
      ],
      "stateMutability": "view",
      "type": "function"
    },
    {
      "inputs": [
        {
          "internalType": "address",
          "name": "spender",
          "type": "address"
        },
        {
          "internalType": "uint256",
          "name": "amount",
          "type": "uint256"
        }
      ],
      "name": "approve",
      "outputs": [
        {
          "internalType": "bool",
          "name": "",
          "type": "bool"
        }
      ],
      "stateMutability": "nonpayable",
      "type": "function"
    },
    {
      "inputs": [
        {
          "internalType": "address",
          "name": "account",
          "type": "address"
        }
      ],
      "name": "balanceOf",
      "outputs": [
        {
          "internalType": "uint256",
          "name": "",
          "type": "uint256"
        }
      ],
      "stateMutability": "view",
      "type": "function"
    },
    {
      "inputs": [],
      "name": "decimals",
      "outputs": [
        {
          "internalType": "uint8",
          "name": "",
          "type": "uint8"
        }
      ],
      "stateMutability": "view",
      "type": "function"
    },
    {
      "inputs": [
        {
          "internalType": "address",
          "name": "spender",
          "type": "address"
        },
        {
          "internalType": "uint256",
          "name": "subtractedValue",
          "type": "uint256"
        }
      ],
      "name": "decreaseAllowance",
      "outputs": [
        {
          "internalType": "bool",
          "name": "",
          "type": "bool"
        }
      ],
      "stateMutability": "nonpayable",
      "type": "function"
    },
    {
      "inputs": [
        {
          "internalType": "address",
          "name": "spender",
          "type": "address"
        },
        {
          "internalType": "uint256",
          "name": "addedValue",
          "type": "uint256"
        }
      ],
      "name": "increaseAllowance",
      "outputs": [
        {
          "internalType": "bool",
          "name": "",
          "type": "bool"
        }
      ],
      "stateMutability": "nonpayable",
      "type": "function"
    },
    {
      "inputs": [],
      "name": "name",
      "outputs": [
        {
          "internalType": "string",
          "name": "",
          "type": "string"
        }
      ],
      "stateMutability": "view",
      "type": "function"
    },
    {
      "inputs": [],
      "name": "symbol",
      "outputs": [
        {
          "internalType": "string",
          "name": "",
          "type": "string"
        }
      ],
      "stateMutability": "view",
      "type": "function"
    },
    {
      "inputs": [],
      "name": "totalSupply",
      "outputs": [
        {
          "internalType": "uint256",
          "name": "",
          "type": "uint256"
        }
      ],
      "stateMutability": "view",
      "type": "function"
    },
    {
      "inputs": [
        {
          "internalType": "address",
          "name": "recipient",
          "type": "address"
        },
        {
          "internalType": "uint256",
          "name": "amount",
          "type": "uint256"
        }
      ],
      "name": "transfer",
      "outputs": [
        {
          "internalType": "bool",
          "name": "",
          "type": "bool"
        }
      ],
      "stateMutability": "nonpayable",
      "type": "function"
    },
    {
      "inputs": [
        {
          "internalType": "address",
          "name": "sender",
          "type": "address"
        },
        {
          "internalType": "address",
          "name": "recipient",
          "type": "address"
        },
        {
          "internalType": "uint256",
          "name": "amount",
          "type": "uint256"
        }
      ],
      "name": "transferFrom",
      "outputs": [
        {
          "internalType": "bool",
          "name": "",
          "type": "bool"
        }
      ],
      "stateMutability": "nonpayable",
      "type": "function"
    },
    {
      "inputs": [],
      "name": "accrueInterest",
      "outputs": [
        {
          "internalType": "uint256",
          "name": "",
          "type": "uint256"
        }
      ],
      "stateMutability": "nonpayable",
      "type": "function"
    },
    {
      "inputs": [
        {
          "internalType": "uint256",
          "name": "mintAmount",
          "type": "uint256"
        }
      ],
      "name": "mint",
      "outputs": [
        {
          "internalType": "uint256",
          "name": "",
          "type": "uint256"
        }
      ],
      "stateMutability": "nonpayable",
      "type": "function"
    },
    {
      "inputs": [
        {
          "internalType": "uint256",
          "name": "redeemAmount",
          "type": "uint256"
        }
      ],
      "name": "redeemUnderlying",
      "outputs": [
        {
          "internalType": "uint256",
          "name": "",
          "type": "uint256"
        }
      ],
      "stateMutability": "nonpayable",
      "type": "function"
    },
    {
      "inputs": [
        {
          "internalType": "uint256",
          "name": "redeemAmount",
          "type": "uint256"
        }
      ],
      "name": "redeem",
      "outputs": [
        {
          "internalType": "uint256",
          "name": "",
          "type": "uint256"
        }
      ],
      "stateMutability": "nonpayable",
      "type": "function"
    },
    {
      "inputs": [
        {
          "internalType": "uint256",
          "name": "exchangeRate",
          "type": "uint256"
        }
      ],
      "name": "setExchangeRate",
      "outputs": [],
      "stateMutability": "nonpayable",
      "type": "function"
    },
    {
      "inputs": [],
      "name": "exchangeRateStored",
      "outputs": [
        {
          "internalType": "uint256",
          "name": "",
          "type": "uint256"
        }
      ],
      "stateMutability": "view",
      "type": "function"
    }
  ],
  "bytecode": "0x60806040523480156200001157600080fd5b506040516200262638038062002626833981810160405260408110156200003757600080fd5b8101908080519060200190929190805190602001909291905050506040518060400160405280600481526020017f63446169000000000000000000000000000000000000000000000000000000008152506040518060400160405280600481526020017f63446169000000000000000000000000000000000000000000000000000000008152508160039080519060200190620000d692919062000198565b508060049080519060200190620000ef92919062000198565b506012600560006101000a81548160ff021916908360ff160217905550505081600560016101000a81548173ffffffffffffffffffffffffffffffffffffffff021916908373ffffffffffffffffffffffffffffffffffffffff16021790555080600660006101000a81548173ffffffffffffffffffffffffffffffffffffffff021916908373ffffffffffffffffffffffffffffffffffffffff160217905550505062000247565b828054600181600116156101000203166002900490600052602060002090601f016020900481019282601f10620001db57805160ff19168380011785556200020c565b828001600101855582156200020c579182015b828111156200020b578251825591602001919060010190620001ee565b5b5090506200021b91906200021f565b5090565b6200024491905b808211156200024057600081600090555060010162000226565b5090565b90565b6123cf80620002576000396000f3fe608060405234801561001057600080fd5b506004361061010b5760003560e01c8063852a12e3116100a2578063a6afed9511610071578063a6afed951461050a578063a9059cbb14610528578063db006a751461058e578063db068e0e146105d0578063dd62ed3e146105fe5761010b565b8063852a12e31461039d57806395d89b41146103df578063a0712d6814610462578063a457c2d7146104a45761010b565b806323b872dd116100de57806323b872dd14610235578063313ce567146102bb57806339509351146102df57806370a08231146103455761010b565b806306fdde0314610110578063095ea7b31461019357806318160ddd146101f9578063182df0f514610217575b600080fd5b610118610676565b6040518080602001828103825283818151815260200191508051906020019080838360005b8381101561015857808201518184015260208101905061013d565b50505050905090810190601f1680156101855780820380516001836020036101000a031916815260200191505b509250505060405180910390f35b6101df600480360360408110156101a957600080fd5b81019080803573ffffffffffffffffffffffffffffffffffffffff16906020019092919080359060200190929190505050610718565b604051808215151515815260200191505060405180910390f35b610201610736565b6040518082815260200191505060405180910390f35b61021f610740565b6040518082815260200191505060405180910390f35b6102a16004803603606081101561024b57600080fd5b81019080803573ffffffffffffffffffffffffffffffffffffffff169060200190929190803573ffffffffffffffffffffffffffffffffffffffff1690602001909291908035906020019092919050505061074a565b604051808215151515815260200191505060405180910390f35b6102c3610823565b604051808260ff1660ff16815260200191505060405180910390f35b61032b600480360360408110156102f557600080fd5b81019080803573ffffffffffffffffffffffffffffffffffffffff1690602001909291908035906020019092919050505061083a565b604051808215151515815260200191505060405180910390f35b6103876004803603602081101561035b57600080fd5b81019080803573ffffffffffffffffffffffffffffffffffffffff1690602001909291905050506108ed565b6040518082815260200191505060405180910390f35b6103c9600480360360208110156103b357600080fd5b8101908080359060200190929190505050610935565b6040518082815260200191505060405180910390f35b6103e7610c6f565b6040518080602001828103825283818151815260200191508051906020019080838360005b8381101561042757808201518184015260208101905061040c565b50505050905090810190601f1680156104545780820380516001836020036101000a031916815260200191505b509250505060405180910390f35b61048e6004803603602081101561047857600080fd5b8101908080359060200190929190505050610d11565b6040518082815260200191505060405180910390f35b6104f0600480360360408110156104ba57600080fd5b81019080803573ffffffffffffffffffffffffffffffffffffffff16906020019092919080359060200190929190505050611137565b604051808215151515815260200191505060405180910390f35b610512611204565b6040518082815260200191505060405180910390f35b6105746004803603604081101561053e57600080fd5b81019080803573ffffffffffffffffffffffffffffffffffffffff1690602001909291908035906020019092919050505061120c565b604051808215151515815260200191505060405180910390f35b6105ba600480360360208110156105a457600080fd5b810190808035906020019092919050505061122a565b6040518082815260200191505060405180910390f35b6105fc600480360360208110156105e657600080fd5b810190808035906020019092919050505061157d565b005b6106606004803603604081101561061457600080fd5b81019080803573ffffffffffffffffffffffffffffffffffffffff169060200190929190803573ffffffffffffffffffffffffffffffffffffffff1690602001909291905050506115e2565b6040518082815260200191505060405180910390f35b606060038054600181600116156101000203166002900480601f01602080910402602001604051908101604052809291908181526020018280546001816001161561010002031660029004801561070e5780601f106106e35761010080835404028352916020019161070e565b820191906000526020600020905b8154815290600101906020018083116106f157829003601f168201915b5050505050905090565b600061072c610725611669565b8484611671565b6001905092915050565b6000600254905090565b6000600754905090565b6000610757848484611868565b61081884610763611669565b610813856040518060600160405280602881526020016122b960289139600160008b73ffffffffffffffffffffffffffffffffffffffff1673ffffffffffffffffffffffffffffffffffffffff16815260200190815260200160002060006107c9611669565b73ffffffffffffffffffffffffffffffffffffffff1673ffffffffffffffffffffffffffffffffffffffff16815260200190815260200160002054611b299092919063ffffffff16565b611671565b600190509392505050565b6000600560009054906101000a900460ff16905090565b60006108e3610847611669565b846108de8560016000610858611669565b73ffffffffffffffffffffffffffffffffffffffff1673ffffffffffffffffffffffffffffffffffffffff16815260200190815260200160002060008973ffffffffffffffffffffffffffffffffffffffff1673ffffffffffffffffffffffffffffffffffffffff16815260200190815260200160002054611be990919063ffffffff16565b611671565b6001905092915050565b60008060008373ffffffffffffffffffffffffffffffffffffffff1673ffffffffffffffffffffffffffffffffffffffff168152602001908152602001600020549050919050565b60008061096c610943610740565b61095e670de0b6b3a764000086611c7190919063ffffffff16565b611cf790919063ffffffff16565b905080610978336108ed565b10156109cf576040517f08c379a00000000000000000000000000000000000000000000000000000000081526004018080602001828103825260298152602001806122496029913960400191505060405180910390fd5b6109d93382611d41565b6000600560019054906101000a900473ffffffffffffffffffffffffffffffffffffffff1673ffffffffffffffffffffffffffffffffffffffff166370a08231306040518263ffffffff1660e01b8152600401808273ffffffffffffffffffffffffffffffffffffffff1673ffffffffffffffffffffffffffffffffffffffff16815260200191505060206040518083038186803b158015610a7a57600080fd5b505afa158015610a8e573d6000803e3d6000fd5b505050506040513d6020811015610aa457600080fd5b8101908080519060200190929190505050905083811015610b8357600560019054906101000a900473ffffffffffffffffffffffffffffffffffffffff1673ffffffffffffffffffffffffffffffffffffffff166340c10f19308387036040518363ffffffff1660e01b8152600401808373ffffffffffffffffffffffffffffffffffffffff1673ffffffffffffffffffffffffffffffffffffffff16815260200182815260200192505050600060405180830381600087803b158015610b6a57600080fd5b505af1158015610b7e573d6000803e3d6000fd5b505050505b600560019054906101000a900473ffffffffffffffffffffffffffffffffffffffff1673ffffffffffffffffffffffffffffffffffffffff1663a9059cbb33866040518363ffffffff1660e01b8152600401808373ffffffffffffffffffffffffffffffffffffffff1673ffffffffffffffffffffffffffffffffffffffff16815260200182815260200192505050602060405180830381600087803b158015610c2c57600080fd5b505af1158015610c40573d6000803e3d6000fd5b505050506040513d6020811015610c5657600080fd5b8101908080519060200190929190505050505050919050565b606060048054600181600116156101000203166002900480601f016020809104026020016040519081016040528092919081815260200182805460018160011615610100020316600290048015610d075780601f10610cdc57610100808354040283529160200191610d07565b820191906000526020600020905b815481529060010190602001808311610cea57829003601f168201915b5050505050905090565b600081600560019054906101000a900473ffffffffffffffffffffffffffffffffffffffff1673ffffffffffffffffffffffffffffffffffffffff1663dd62ed3e33306040518363ffffffff1660e01b8152600401808373ffffffffffffffffffffffffffffffffffffffff1673ffffffffffffffffffffffffffffffffffffffff1681526020018273ffffffffffffffffffffffffffffffffffffffff1673ffffffffffffffffffffffffffffffffffffffff1681526020019250505060206040518083038186803b158015610de757600080fd5b505afa158015610dfb573d6000803e3d6000fd5b505050506040513d6020811015610e1157600080fd5b81019080805190602001909291905050501015610e96576040517f08c379a000000000000000000000000000000000000000000000000000000000815260040180806020018281038252601f8152602001807f63446169206d696e743a206e6f7420656e6f75676820616c6c6f77616e63650081525060200191505060405180910390fd5b600560019054906101000a900473ffffffffffffffffffffffffffffffffffffffff1673ffffffffffffffffffffffffffffffffffffffff166323b872dd3330856040518463ffffffff1660e01b8152600401808473ffffffffffffffffffffffffffffffffffffffff1673ffffffffffffffffffffffffffffffffffffffff1681526020018373ffffffffffffffffffffffffffffffffffffffff1673ffffffffffffffffffffffffffffffffffffffff1681526020018281526020019350505050602060405180830381600087803b158015610f7357600080fd5b505af1158015610f87573d6000803e3d6000fd5b505050506040513d6020811015610f9d57600080fd5b8101908080519060200190929190505050611020576040517f08c379a000000000000000000000000000000000000000000000000000000000815260040180806020018281038252601e8152602001807f63446169206d696e743a20646169207472616e73666572206661696c6564000081525060200191505060405180910390fd5b600061105661102d610740565b611048670de0b6b3a764000086611c7190919063ffffffff16565b611cf790919063ffffffff16565b90506110623382611f05565b6000670de0b6b3a76400009050600660009054906101000a900473ffffffffffffffffffffffffffffffffffffffff1673ffffffffffffffffffffffffffffffffffffffff166340c10f1933836040518363ffffffff1660e01b8152600401808373ffffffffffffffffffffffffffffffffffffffff1673ffffffffffffffffffffffffffffffffffffffff16815260200182815260200192505050600060405180830381600087803b15801561111857600080fd5b505af115801561112c573d6000803e3d6000fd5b505050505050919050565b60006111fa611144611669565b846111f585604051806060016040528060258152602001612375602591396001600061116e611669565b73ffffffffffffffffffffffffffffffffffffffff1673ffffffffffffffffffffffffffffffffffffffff16815260200190815260200160002060008a73ffffffffffffffffffffffffffffffffffffffff1673ffffffffffffffffffffffffffffffffffffffff16815260200190815260200160002054611b299092919063ffffffff16565b611671565b6001905092915050565b600080905090565b6000611220611219611669565b8484611868565b6001905092915050565b600081611236336108ed565b10156112aa576040517f08c379a000000000000000000000000000000000000000000000000000000000815260040180806020018281038252601f8152602001807f634461692072656465656d3a206e6f7420656e6f7567682062616c616e63650081525060200191505060405180910390fd5b6112b43383611d41565b60006112e5670de0b6b3a76400006112d760075486611c7190919063ffffffff16565b611cf790919063ffffffff16565b90506000600560019054906101000a900473ffffffffffffffffffffffffffffffffffffffff1673ffffffffffffffffffffffffffffffffffffffff166370a08231306040518263ffffffff1660e01b8152600401808273ffffffffffffffffffffffffffffffffffffffff1673ffffffffffffffffffffffffffffffffffffffff16815260200191505060206040518083038186803b15801561138857600080fd5b505afa15801561139c573d6000803e3d6000fd5b505050506040513d60208110156113b257600080fd5b810190808051906020019092919050505090508181101561149157600560019054906101000a900473ffffffffffffffffffffffffffffffffffffffff1673ffffffffffffffffffffffffffffffffffffffff166340c10f19308385036040518363ffffffff1660e01b8152600401808373ffffffffffffffffffffffffffffffffffffffff1673ffffffffffffffffffffffffffffffffffffffff16815260200182815260200192505050600060405180830381600087803b15801561147857600080fd5b505af115801561148c573d6000803e3d6000fd5b505050505b600560019054906101000a900473ffffffffffffffffffffffffffffffffffffffff1673ffffffffffffffffffffffffffffffffffffffff1663a9059cbb33846040518363ffffffff1660e01b8152600401808373ffffffffffffffffffffffffffffffffffffffff1673ffffffffffffffffffffffffffffffffffffffff16815260200182815260200192505050602060405180830381600087803b15801561153a57600080fd5b505af115801561154e573d6000803e3d6000fd5b505050506040513d602081101561156457600080fd5b8101908080519060200190929190505050505050919050565b6007548110156115d8576040517f08c379a000000000000000000000000000000000000000000000000000000000815260040180806020018281038252602a815260200180612327602a913960400191505060405180910390fd5b8060078190555050565b6000600160008473ffffffffffffffffffffffffffffffffffffffff1673ffffffffffffffffffffffffffffffffffffffff16815260200190815260200160002060008373ffffffffffffffffffffffffffffffffffffffff1673ffffffffffffffffffffffffffffffffffffffff16815260200190815260200160002054905092915050565b600033905090565b600073ffffffffffffffffffffffffffffffffffffffff168373ffffffffffffffffffffffffffffffffffffffff1614156116f7576040517f08c379a00000000000000000000000000000000000000000000000000000000081526004018080602001828103825260248152602001806123516024913960400191505060405180910390fd5b600073ffffffffffffffffffffffffffffffffffffffff168273ffffffffffffffffffffffffffffffffffffffff16141561177d576040517f08c379a00000000000000000000000000000000000000000000000000000000081526004018080602001828103825260228152602001806122276022913960400191505060405180910390fd5b80600160008573ffffffffffffffffffffffffffffffffffffffff1673ffffffffffffffffffffffffffffffffffffffff16815260200190815260200160002060008473ffffffffffffffffffffffffffffffffffffffff1673ffffffffffffffffffffffffffffffffffffffff168152602001908152602001600020819055508173ffffffffffffffffffffffffffffffffffffffff168373ffffffffffffffffffffffffffffffffffffffff167f8c5be1e5ebec7d5bd14f71427d1e84f3dd0314c0f7b2291e5b200ac8c7c3b925836040518082815260200191505060405180910390a3505050565b600073ffffffffffffffffffffffffffffffffffffffff168373ffffffffffffffffffffffffffffffffffffffff1614156118ee576040517f08c379a00000000000000000000000000000000000000000000000000000000081526004018080602001828103825260258152602001806123026025913960400191505060405180910390fd5b600073ffffffffffffffffffffffffffffffffffffffff168273ffffffffffffffffffffffffffffffffffffffff161415611974576040517f08c379a00000000000000000000000000000000000000000000000000000000081526004018080602001828103825260238152602001806121e26023913960400191505060405180910390fd5b61197f8383836120cc565b6119ea81604051806060016040528060268152602001612272602691396000808773ffffffffffffffffffffffffffffffffffffffff1673ffffffffffffffffffffffffffffffffffffffff16815260200190815260200160002054611b299092919063ffffffff16565b6000808573ffffffffffffffffffffffffffffffffffffffff1673ffffffffffffffffffffffffffffffffffffffff16815260200190815260200160002081905550611a7d816000808573ffffffffffffffffffffffffffffffffffffffff1673ffffffffffffffffffffffffffffffffffffffff16815260200190815260200160002054611be990919063ffffffff16565b6000808473ffffffffffffffffffffffffffffffffffffffff1673ffffffffffffffffffffffffffffffffffffffff168152602001908152602001600020819055508173ffffffffffffffffffffffffffffffffffffffff168373ffffffffffffffffffffffffffffffffffffffff167fddf252ad1be2c89b69c2b068fc378daa952ba7f163c4a11628f55a4df523b3ef836040518082815260200191505060405180910390a3505050565b6000838311158290611bd6576040517f08c379a00000000000000000000000000000000000000000000000000000000081526004018080602001828103825283818151815260200191508051906020019080838360005b83811015611b9b578082015181840152602081019050611b80565b50505050905090810190601f168015611bc85780820380516001836020036101000a031916815260200191505b509250505060405180910390fd5b5060008385039050809150509392505050565b600080828401905083811015611c67576040517f08c379a000000000000000000000000000000000000000000000000000000000815260040180806020018281038252601b8152602001807f536166654d6174683a206164646974696f6e206f766572666c6f77000000000081525060200191505060405180910390fd5b8091505092915050565b600080831415611c845760009050611cf1565b6000828402905082848281611c9557fe5b0414611cec576040517f08c379a00000000000000000000000000000000000000000000000000000000081526004018080602001828103825260218152602001806122986021913960400191505060405180910390fd5b809150505b92915050565b6000611d3983836040518060400160405280601a81526020017f536166654d6174683a206469766973696f6e206279207a65726f0000000000008152506120d1565b905092915050565b600073ffffffffffffffffffffffffffffffffffffffff168273ffffffffffffffffffffffffffffffffffffffff161415611dc7576040517f08c379a00000000000000000000000000000000000000000000000000000000081526004018080602001828103825260218152602001806122e16021913960400191505060405180910390fd5b611dd3826000836120cc565b611e3e81604051806060016040528060228152602001612205602291396000808673ffffffffffffffffffffffffffffffffffffffff1673ffffffffffffffffffffffffffffffffffffffff16815260200190815260200160002054611b299092919063ffffffff16565b6000808473ffffffffffffffffffffffffffffffffffffffff1673ffffffffffffffffffffffffffffffffffffffff16815260200190815260200160002081905550611e958160025461219790919063ffffffff16565b600281905550600073ffffffffffffffffffffffffffffffffffffffff168273ffffffffffffffffffffffffffffffffffffffff167fddf252ad1be2c89b69c2b068fc378daa952ba7f163c4a11628f55a4df523b3ef836040518082815260200191505060405180910390a35050565b600073ffffffffffffffffffffffffffffffffffffffff168273ffffffffffffffffffffffffffffffffffffffff161415611fa8576040517f08c379a000000000000000000000000000000000000000000000000000000000815260040180806020018281038252601f8152602001807f45524332303a206d696e7420746f20746865207a65726f20616464726573730081525060200191505060405180910390fd5b611fb4600083836120cc565b611fc981600254611be990919063ffffffff16565b600281905550612020816000808573ffffffffffffffffffffffffffffffffffffffff1673ffffffffffffffffffffffffffffffffffffffff16815260200190815260200160002054611be990919063ffffffff16565b6000808473ffffffffffffffffffffffffffffffffffffffff1673ffffffffffffffffffffffffffffffffffffffff168152602001908152602001600020819055508173ffffffffffffffffffffffffffffffffffffffff16600073ffffffffffffffffffffffffffffffffffffffff167fddf252ad1be2c89b69c2b068fc378daa952ba7f163c4a11628f55a4df523b3ef836040518082815260200191505060405180910390a35050565b505050565b6000808311829061217d576040517f08c379a00000000000000000000000000000000000000000000000000000000081526004018080602001828103825283818151815260200191508051906020019080838360005b83811015612142578082015181840152602081019050612127565b50505050905090810190601f16801561216f5780820380516001836020036101000a031916815260200191505b509250505060405180910390fd5b50600083858161218957fe5b049050809150509392505050565b60006121d983836040518060400160405280601e81526020017f536166654d6174683a207375627472616374696f6e206f766572666c6f770000815250611b29565b90509291505056fe45524332303a207472616e7366657220746f20746865207a65726f206164647265737345524332303a206275726e20616d6f756e7420657863656564732062616c616e636545524332303a20617070726f766520746f20746865207a65726f2061646472657373634461692072656465656d556e6465726c79696e673a206e6f7420656e6f7567682062616c616e636545524332303a207472616e7366657220616d6f756e7420657863656564732062616c616e6365536166654d6174683a206d756c7469706c69636174696f6e206f766572666c6f7745524332303a207472616e7366657220616d6f756e74206578636565647320616c6c6f77616e636545524332303a206275726e2066726f6d20746865207a65726f206164647265737345524332303a207472616e736665722066726f6d20746865207a65726f206164647265737354657374434461693a206e65772065786368616e67652072617465206d757374206265206c617267657245524332303a20617070726f76652066726f6d20746865207a65726f206164647265737345524332303a2064656372656173656420616c6c6f77616e63652062656c6f77207a65726fa264697066735822122036be07f97c78bbfdf706e44b2db631e1fc71537c55058bbc1ecb552ffa7d4fdd64736f6c63430006090033",
  "immutableReferences": {},
  "source": "// SPDX-License-Identifier: MIT\r\npragma solidity ^0.6.9;\r\n\r\nimport \"@openzeppelin/contracts/token/ERC20/ERC20.sol\";\r\nimport \"../compound/ICToken.sol\";\r\nimport \"./TestERC20.sol\";\r\n\r\n/**\r\n * @title TestCDai\r\n * @author Alexander Schlindwein\r\n *\r\n * @dev cDai token for testing\r\n */\r\ncontract TestCDai is ERC20, ICToken {\r\n\r\n    TestERC20 _dai;\r\n    TestERC20 _comp;\r\n    uint _exchangeRate;\r\n\r\n    /**\r\n     * @dev Constructs a new TestCDai\r\n     * @param dai The address of the test dai\r\n     * @param comp The address of the test comp\r\n     */\r\n    constructor (address dai, address comp) public ERC20(\"cDai\", \"cDai\") {\r\n        _dai = TestERC20(dai);\r\n        _comp = TestERC20(comp);\r\n    }\r\n\r\n    /**\r\n     * @dev Updates the interest - not implemented for testing\r\n     */\r\n    function accrueInterest() external override returns (uint) {\r\n        return 0;\r\n    }\r\n\r\n    /**\r\n     * @dev Mints a given amount of tokens to an address in exchange for dai.\r\n     *\r\n     * @param mintAmount The amount of Dai to spend for minting\r\n     */\r\n    function mint(uint mintAmount) external override returns (uint) {\r\n        require(_dai.allowance(msg.sender, address(this)) >= mintAmount, \"cDai mint: not enough allowance\");\r\n        require(_dai.transferFrom(msg.sender, address(this), mintAmount), \"cDai mint: dai transfer failed\");\r\n\r\n        uint cDaiAmount = mintAmount.mul(10 ** 18).div(exchangeRateStored());\r\n        _mint(msg.sender, cDaiAmount);\r\n\r\n        // Mint some COMP for the msg.sender\r\n        uint compAmount = 1 ether;\r\n        _comp.mint(msg.sender, compAmount);\r\n    }\r\n\r\n    /**\r\n     * @dev Redeems a given amount of Dai\r\n     *\r\n     * @param redeemAmount The amount of Dai to redeem\r\n     */\r\n    function redeemUnderlying(uint redeemAmount) external override returns (uint) {\r\n        uint cDaiAmount = redeemAmount.mul(10 ** 18).div(exchangeRateStored());\r\n        require(balanceOf(msg.sender) >= cDaiAmount, \"cDai redeemUnderlying: not enough balance\");\r\n\r\n        _burn(msg.sender, cDaiAmount);\r\n        uint daiBalance = _dai.balanceOf(address(this));\r\n        if(daiBalance < redeemAmount) {\r\n            _dai.mint(address(this), redeemAmount - daiBalance);\r\n        }\r\n        _dai.transfer(msg.sender, redeemAmount);\r\n    }\r\n\r\n    /**\r\n     * @dev Redeems a given amount of cDai\r\n     *\r\n     * @param redeemAmount The amount of cDai to redeem\r\n     */\r\n    function redeem(uint redeemAmount) external override returns (uint) {\r\n        require(balanceOf(msg.sender) >= redeemAmount, \"cDai redeem: not enough balance\");\r\n        _burn(msg.sender, redeemAmount);\r\n\r\n        uint daiAmount = redeemAmount.mul(_exchangeRate).div(10**18);\r\n        uint daiBalance = _dai.balanceOf(address(this));\r\n        if(daiBalance < daiAmount) {\r\n            _dai.mint(address(this), daiAmount - daiBalance);\r\n        }\r\n        _dai.transfer(msg.sender, daiAmount);\r\n    }\r\n\r\n    /**\r\n     * @dev Sets the exchange rate\r\n     *\r\n     * @param exchangeRate The exchange rate\r\n     */\r\n    function setExchangeRate(uint exchangeRate) external {\r\n        require(exchangeRate >= _exchangeRate, \"TestCDai: new exchange rate must be larger\");\r\n        _exchangeRate = exchangeRate;\r\n    }\r\n\r\n    /**\r\n     * @dev Returns the exchange rate for cDai -> Dai\r\n     *\r\n     * @return The exchange rate\r\n     */\r\n    function exchangeRateStored() public view override returns (uint) {\r\n        return _exchangeRate;\r\n    }\r\n}",
  "sourcePath": "C:/Users/alexa/Desktop/ideamarket-contracts/contracts/test/TestCDai.sol",
  "compiler": {
    "name": "solc",
    "version": "0.6.9+commit.3e3065ac.Emscripten.clang"
  },
  "schemaVersion": "3.2.3",
  "updatedAt": "2020-10-16T10:17:52.515Z",
  "devdoc": {
    "author": "Alexander Schlindwein",
    "details": "cDai token for testing",
    "methods": {
      "accrueInterest()": {
        "details": "Updates the interest - not implemented for testing"
      },
      "allowance(address,address)": {
        "details": "See {IERC20-allowance}."
      },
      "approve(address,uint256)": {
        "details": "See {IERC20-approve}. Requirements: - `spender` cannot be the zero address."
      },
      "balanceOf(address)": {
        "details": "See {IERC20-balanceOf}."
      },
      "constructor": {
        "details": "Constructs a new TestCDai",
        "params": {
          "comp": "The address of the test comp",
          "dai": "The address of the test dai"
        }
      },
      "decimals()": {
        "details": "Returns the number of decimals used to get its user representation. For example, if `decimals` equals `2`, a balance of `505` tokens should be displayed to a user as `5,05` (`505 / 10 ** 2`). Tokens usually opt for a value of 18, imitating the relationship between Ether and Wei. This is the value {ERC20} uses, unless {_setupDecimals} is called. NOTE: This information is only used for _display_ purposes: it in no way affects any of the arithmetic of the contract, including {IERC20-balanceOf} and {IERC20-transfer}."
      },
      "decreaseAllowance(address,uint256)": {
        "details": "Atomically decreases the allowance granted to `spender` by the caller. This is an alternative to {approve} that can be used as a mitigation for problems described in {IERC20-approve}. Emits an {Approval} event indicating the updated allowance. Requirements: - `spender` cannot be the zero address. - `spender` must have allowance for the caller of at least `subtractedValue`."
      },
      "exchangeRateStored()": {
        "details": "Returns the exchange rate for cDai -> Dai",
        "returns": {
          "_0": "The exchange rate"
        }
      },
      "increaseAllowance(address,uint256)": {
        "details": "Atomically increases the allowance granted to `spender` by the caller. This is an alternative to {approve} that can be used as a mitigation for problems described in {IERC20-approve}. Emits an {Approval} event indicating the updated allowance. Requirements: - `spender` cannot be the zero address."
      },
      "mint(uint256)": {
        "details": "Mints a given amount of tokens to an address in exchange for dai.",
        "params": {
          "mintAmount": "The amount of Dai to spend for minting"
        }
      },
      "name()": {
        "details": "Returns the name of the token."
      },
      "redeem(uint256)": {
        "details": "Redeems a given amount of cDai",
        "params": {
          "redeemAmount": "The amount of cDai to redeem"
        }
      },
      "redeemUnderlying(uint256)": {
        "details": "Redeems a given amount of Dai",
        "params": {
          "redeemAmount": "The amount of Dai to redeem"
        }
      },
      "setExchangeRate(uint256)": {
        "details": "Sets the exchange rate",
        "params": {
          "exchangeRate": "The exchange rate"
        }
      },
      "symbol()": {
        "details": "Returns the symbol of the token, usually a shorter version of the name."
      },
      "totalSupply()": {
        "details": "See {IERC20-totalSupply}."
      },
      "transfer(address,uint256)": {
        "details": "See {IERC20-transfer}. Requirements: - `recipient` cannot be the zero address. - the caller must have a balance of at least `amount`."
      },
      "transferFrom(address,address,uint256)": {
        "details": "See {IERC20-transferFrom}. Emits an {Approval} event indicating the updated allowance. This is not required by the EIP. See the note at the beginning of {ERC20}; Requirements: - `sender` and `recipient` cannot be the zero address. - `sender` must have a balance of at least `amount`. - the caller must have allowance for ``sender``'s tokens of at least `amount`."
      }
    },
    "title": "TestCDai"
  },
  "userdoc": {
    "methods": {}
  }
}