{
  "contractName": "TestCDai",
  "abi": [
    {
      "inputs": [
        {
          "internalType": "address",
          "name": "dai",
          "type": "address"
        },
        {
          "internalType": "address",
          "name": "comp",
          "type": "address"
        }
      ],
      "stateMutability": "nonpayable",
      "type": "constructor"
    },
    {
      "anonymous": false,
      "inputs": [
        {
          "indexed": true,
          "internalType": "address",
          "name": "owner",
          "type": "address"
        },
        {
          "indexed": true,
          "internalType": "address",
          "name": "spender",
          "type": "address"
        },
        {
          "indexed": false,
          "internalType": "uint256",
          "name": "value",
          "type": "uint256"
        }
      ],
      "name": "Approval",
      "type": "event"
    },
    {
      "anonymous": false,
      "inputs": [
        {
          "indexed": true,
          "internalType": "address",
          "name": "from",
          "type": "address"
        },
        {
          "indexed": true,
          "internalType": "address",
          "name": "to",
          "type": "address"
        },
        {
          "indexed": false,
          "internalType": "uint256",
          "name": "value",
          "type": "uint256"
        }
      ],
      "name": "Transfer",
      "type": "event"
    },
    {
      "inputs": [
        {
          "internalType": "address",
          "name": "owner",
          "type": "address"
        },
        {
          "internalType": "address",
          "name": "spender",
          "type": "address"
        }
      ],
      "name": "allowance",
      "outputs": [
        {
          "internalType": "uint256",
          "name": "",
          "type": "uint256"
        }
      ],
      "stateMutability": "view",
      "type": "function"
    },
    {
      "inputs": [
        {
          "internalType": "address",
          "name": "spender",
          "type": "address"
        },
        {
          "internalType": "uint256",
          "name": "amount",
          "type": "uint256"
        }
      ],
      "name": "approve",
      "outputs": [
        {
          "internalType": "bool",
          "name": "",
          "type": "bool"
        }
      ],
      "stateMutability": "nonpayable",
      "type": "function"
    },
    {
      "inputs": [
        {
          "internalType": "address",
          "name": "account",
          "type": "address"
        }
      ],
      "name": "balanceOf",
      "outputs": [
        {
          "internalType": "uint256",
          "name": "",
          "type": "uint256"
        }
      ],
      "stateMutability": "view",
      "type": "function"
    },
    {
      "inputs": [],
      "name": "decimals",
      "outputs": [
        {
          "internalType": "uint8",
          "name": "",
          "type": "uint8"
        }
      ],
      "stateMutability": "view",
      "type": "function"
    },
    {
      "inputs": [
        {
          "internalType": "address",
          "name": "spender",
          "type": "address"
        },
        {
          "internalType": "uint256",
          "name": "subtractedValue",
          "type": "uint256"
        }
      ],
      "name": "decreaseAllowance",
      "outputs": [
        {
          "internalType": "bool",
          "name": "",
          "type": "bool"
        }
      ],
      "stateMutability": "nonpayable",
      "type": "function"
    },
    {
      "inputs": [
        {
          "internalType": "address",
          "name": "spender",
          "type": "address"
        },
        {
          "internalType": "uint256",
          "name": "addedValue",
          "type": "uint256"
        }
      ],
      "name": "increaseAllowance",
      "outputs": [
        {
          "internalType": "bool",
          "name": "",
          "type": "bool"
        }
      ],
      "stateMutability": "nonpayable",
      "type": "function"
    },
    {
      "inputs": [],
      "name": "name",
      "outputs": [
        {
          "internalType": "string",
          "name": "",
          "type": "string"
        }
      ],
      "stateMutability": "view",
      "type": "function"
    },
    {
      "inputs": [],
      "name": "symbol",
      "outputs": [
        {
          "internalType": "string",
          "name": "",
          "type": "string"
        }
      ],
      "stateMutability": "view",
      "type": "function"
    },
    {
      "inputs": [],
      "name": "totalSupply",
      "outputs": [
        {
          "internalType": "uint256",
          "name": "",
          "type": "uint256"
        }
      ],
      "stateMutability": "view",
      "type": "function"
    },
    {
      "inputs": [
        {
          "internalType": "address",
          "name": "recipient",
          "type": "address"
        },
        {
          "internalType": "uint256",
          "name": "amount",
          "type": "uint256"
        }
      ],
      "name": "transfer",
      "outputs": [
        {
          "internalType": "bool",
          "name": "",
          "type": "bool"
        }
      ],
      "stateMutability": "nonpayable",
      "type": "function"
    },
    {
      "inputs": [
        {
          "internalType": "address",
          "name": "sender",
          "type": "address"
        },
        {
          "internalType": "address",
          "name": "recipient",
          "type": "address"
        },
        {
          "internalType": "uint256",
          "name": "amount",
          "type": "uint256"
        }
      ],
      "name": "transferFrom",
      "outputs": [
        {
          "internalType": "bool",
          "name": "",
          "type": "bool"
        }
      ],
      "stateMutability": "nonpayable",
      "type": "function"
    },
    {
      "inputs": [],
      "name": "accrueInterest",
      "outputs": [
        {
          "internalType": "uint256",
          "name": "",
          "type": "uint256"
        }
      ],
      "stateMutability": "nonpayable",
      "type": "function"
    },
    {
      "inputs": [
        {
          "internalType": "uint256",
          "name": "mintAmount",
          "type": "uint256"
        }
      ],
      "name": "mint",
      "outputs": [
        {
          "internalType": "uint256",
          "name": "",
          "type": "uint256"
        }
      ],
      "stateMutability": "nonpayable",
      "type": "function"
    },
    {
      "inputs": [
        {
          "internalType": "uint256",
          "name": "redeemAmount",
          "type": "uint256"
        }
      ],
      "name": "redeemUnderlying",
      "outputs": [
        {
          "internalType": "uint256",
          "name": "",
          "type": "uint256"
        }
      ],
      "stateMutability": "nonpayable",
      "type": "function"
    },
    {
      "inputs": [
        {
          "internalType": "uint256",
          "name": "redeemAmount",
          "type": "uint256"
        }
      ],
      "name": "redeem",
      "outputs": [
        {
          "internalType": "uint256",
          "name": "",
          "type": "uint256"
        }
      ],
      "stateMutability": "nonpayable",
      "type": "function"
    },
    {
      "inputs": [
        {
          "internalType": "uint256",
          "name": "exchangeRate",
          "type": "uint256"
        }
      ],
      "name": "setExchangeRate",
      "outputs": [],
      "stateMutability": "nonpayable",
      "type": "function"
    },
    {
      "inputs": [],
      "name": "exchangeRateStored",
      "outputs": [
        {
          "internalType": "uint256",
          "name": "",
          "type": "uint256"
        }
      ],
      "stateMutability": "view",
      "type": "function"
    }
  ],
  "bytecode": "0x60806040523480156200001157600080fd5b50604051620026ab380380620026ab833981810160405260408110156200003757600080fd5b8101908080519060200190929190805190602001909291905050506040518060400160405280600481526020017f63446169000000000000000000000000000000000000000000000000000000008152506040518060400160405280600481526020017f63446169000000000000000000000000000000000000000000000000000000008152508160039080519060200190620000d692919062000198565b508060049080519060200190620000ef92919062000198565b506012600560006101000a81548160ff021916908360ff160217905550505081600560016101000a81548173ffffffffffffffffffffffffffffffffffffffff021916908373ffffffffffffffffffffffffffffffffffffffff16021790555080600660006101000a81548173ffffffffffffffffffffffffffffffffffffffff021916908373ffffffffffffffffffffffffffffffffffffffff160217905550505062000247565b828054600181600116156101000203166002900490600052602060002090601f016020900481019282601f10620001db57805160ff19168380011785556200020c565b828001600101855582156200020c579182015b828111156200020b578251825591602001919060010190620001ee565b5b5090506200021b91906200021f565b5090565b6200024491905b808211156200024057600081600090555060010162000226565b5090565b90565b61245480620002576000396000f3fe608060405234801561001057600080fd5b506004361061010b5760003560e01c8063852a12e3116100a2578063a6afed9511610071578063a6afed951461050a578063a9059cbb14610528578063db006a751461058e578063db068e0e146105d0578063dd62ed3e146105fe5761010b565b8063852a12e31461039d57806395d89b41146103df578063a0712d6814610462578063a457c2d7146104a45761010b565b806323b872dd116100de57806323b872dd14610235578063313ce567146102bb57806339509351146102df57806370a08231146103455761010b565b806306fdde0314610110578063095ea7b31461019357806318160ddd146101f9578063182df0f514610217575b600080fd5b610118610676565b6040518080602001828103825283818151815260200191508051906020019080838360005b8381101561015857808201518184015260208101905061013d565b50505050905090810190601f1680156101855780820380516001836020036101000a031916815260200191505b509250505060405180910390f35b6101df600480360360408110156101a957600080fd5b81019080803573ffffffffffffffffffffffffffffffffffffffff16906020019092919080359060200190929190505050610718565b604051808215151515815260200191505060405180910390f35b610201610736565b6040518082815260200191505060405180910390f35b61021f610740565b6040518082815260200191505060405180910390f35b6102a16004803603606081101561024b57600080fd5b81019080803573ffffffffffffffffffffffffffffffffffffffff169060200190929190803573ffffffffffffffffffffffffffffffffffffffff1690602001909291908035906020019092919050505061074a565b604051808215151515815260200191505060405180910390f35b6102c3610823565b604051808260ff1660ff16815260200191505060405180910390f35b61032b600480360360408110156102f557600080fd5b81019080803573ffffffffffffffffffffffffffffffffffffffff1690602001909291908035906020019092919050505061083a565b604051808215151515815260200191505060405180910390f35b6103876004803603602081101561035b57600080fd5b81019080803573ffffffffffffffffffffffffffffffffffffffff1690602001909291905050506108ed565b6040518082815260200191505060405180910390f35b6103c9600480360360208110156103b357600080fd5b8101908080359060200190929190505050610935565b6040518082815260200191505060405180910390f35b6103e7610c4c565b6040518080602001828103825283818151815260200191508051906020019080838360005b8381101561042757808201518184015260208101905061040c565b50505050905090810190601f1680156104545780820380516001836020036101000a031916815260200191505b509250505060405180910390f35b61048e6004803603602081101561047857600080fd5b8101908080359060200190929190505050610cee565b6040518082815260200191505060405180910390f35b6104f0600480360360408110156104ba57600080fd5b81019080803573ffffffffffffffffffffffffffffffffffffffff169060200190929190803590602001909291905050506110f1565b604051808215151515815260200191505060405180910390f35b6105126111be565b6040518082815260200191505060405180910390f35b6105746004803603604081101561053e57600080fd5b81019080803573ffffffffffffffffffffffffffffffffffffffff169060200190929190803590602001909291905050506111c6565b604051808215151515815260200191505060405180910390f35b6105ba600480360360208110156105a457600080fd5b81019080803590602001909291905050506111e4565b6040518082815260200191505060405180910390f35b6105fc600480360360208110156105e657600080fd5b8101908080359060200190929190505050611519565b005b6106606004803603604081101561061457600080fd5b81019080803573ffffffffffffffffffffffffffffffffffffffff169060200190929190803573ffffffffffffffffffffffffffffffffffffffff16906020019092919050505061157e565b6040518082815260200191505060405180910390f35b606060038054600181600116156101000203166002900480601f01602080910402602001604051908101604052809291908181526020018280546001816001161561010002031660029004801561070e5780601f106106e35761010080835404028352916020019161070e565b820191906000526020600020905b8154815290600101906020018083116106f157829003601f168201915b5050505050905090565b600061072c610725611605565b848461160d565b6001905092915050565b6000600254905090565b6000600754905090565b6000610757848484611804565b61081884610763611605565b6108138560405180606001604052806028815260200161233e60289139600160008b73ffffffffffffffffffffffffffffffffffffffff1673ffffffffffffffffffffffffffffffffffffffff16815260200190815260200160002060006107c9611605565b73ffffffffffffffffffffffffffffffffffffffff1673ffffffffffffffffffffffffffffffffffffffff16815260200190815260200160002054611ac59092919063ffffffff16565b61160d565b600190509392505050565b6000600560009054906101000a900460ff16905090565b60006108e3610847611605565b846108de8560016000610858611605565b73ffffffffffffffffffffffffffffffffffffffff1673ffffffffffffffffffffffffffffffffffffffff16815260200190815260200160002060008973ffffffffffffffffffffffffffffffffffffffff1673ffffffffffffffffffffffffffffffffffffffff16815260200190815260200160002054611b8590919063ffffffff16565b61160d565b6001905092915050565b60008060008373ffffffffffffffffffffffffffffffffffffffff1673ffffffffffffffffffffffffffffffffffffffff168152602001908152602001600020549050919050565b60008061094983610944610740565b611c0d565b905080610955336108ed565b10156109ac576040517f08c379a00000000000000000000000000000000000000000000000000000000081526004018080602001828103825260298152602001806122ce6029913960400191505060405180910390fd5b6109b63382611c2e565b6000600560019054906101000a900473ffffffffffffffffffffffffffffffffffffffff1673ffffffffffffffffffffffffffffffffffffffff166370a08231306040518263ffffffff1660e01b8152600401808273ffffffffffffffffffffffffffffffffffffffff1673ffffffffffffffffffffffffffffffffffffffff16815260200191505060206040518083038186803b158015610a5757600080fd5b505afa158015610a6b573d6000803e3d6000fd5b505050506040513d6020811015610a8157600080fd5b8101908080519060200190929190505050905083811015610b6057600560019054906101000a900473ffffffffffffffffffffffffffffffffffffffff1673ffffffffffffffffffffffffffffffffffffffff166340c10f19308387036040518363ffffffff1660e01b8152600401808373ffffffffffffffffffffffffffffffffffffffff1673ffffffffffffffffffffffffffffffffffffffff16815260200182815260200192505050600060405180830381600087803b158015610b4757600080fd5b505af1158015610b5b573d6000803e3d6000fd5b505050505b600560019054906101000a900473ffffffffffffffffffffffffffffffffffffffff1673ffffffffffffffffffffffffffffffffffffffff1663a9059cbb33866040518363ffffffff1660e01b8152600401808373ffffffffffffffffffffffffffffffffffffffff1673ffffffffffffffffffffffffffffffffffffffff16815260200182815260200192505050602060405180830381600087803b158015610c0957600080fd5b505af1158015610c1d573d6000803e3d6000fd5b505050506040513d6020811015610c3357600080fd5b8101908080519060200190929190505050505050919050565b606060048054600181600116156101000203166002900480601f016020809104026020016040519081016040528092919081815260200182805460018160011615610100020316600290048015610ce45780601f10610cb957610100808354040283529160200191610ce4565b820191906000526020600020905b815481529060010190602001808311610cc757829003601f168201915b5050505050905090565b600081600560019054906101000a900473ffffffffffffffffffffffffffffffffffffffff1673ffffffffffffffffffffffffffffffffffffffff1663dd62ed3e33306040518363ffffffff1660e01b8152600401808373ffffffffffffffffffffffffffffffffffffffff1673ffffffffffffffffffffffffffffffffffffffff1681526020018273ffffffffffffffffffffffffffffffffffffffff1673ffffffffffffffffffffffffffffffffffffffff1681526020019250505060206040518083038186803b158015610dc457600080fd5b505afa158015610dd8573d6000803e3d6000fd5b505050506040513d6020811015610dee57600080fd5b81019080805190602001909291905050501015610e73576040517f08c379a000000000000000000000000000000000000000000000000000000000815260040180806020018281038252601f8152602001807f63446169206d696e743a206e6f7420656e6f75676820616c6c6f77616e63650081525060200191505060405180910390fd5b600560019054906101000a900473ffffffffffffffffffffffffffffffffffffffff1673ffffffffffffffffffffffffffffffffffffffff166323b872dd3330856040518463ffffffff1660e01b8152600401808473ffffffffffffffffffffffffffffffffffffffff1673ffffffffffffffffffffffffffffffffffffffff1681526020018373ffffffffffffffffffffffffffffffffffffffff1673ffffffffffffffffffffffffffffffffffffffff1681526020018281526020019350505050602060405180830381600087803b158015610f5057600080fd5b505af1158015610f64573d6000803e3d6000fd5b505050506040513d6020811015610f7a57600080fd5b8101908080519060200190929190505050610ffd576040517f08c379a000000000000000000000000000000000000000000000000000000000815260040180806020018281038252601e8152602001807f63446169206d696e743a20646169207472616e73666572206661696c6564000081525060200191505060405180910390fd5b60006110108361100b610740565b611c0d565b905061101c3382611df2565b6000670de0b6b3a76400009050600660009054906101000a900473ffffffffffffffffffffffffffffffffffffffff1673ffffffffffffffffffffffffffffffffffffffff166340c10f1933836040518363ffffffff1660e01b8152600401808373ffffffffffffffffffffffffffffffffffffffff1673ffffffffffffffffffffffffffffffffffffffff16815260200182815260200192505050600060405180830381600087803b1580156110d257600080fd5b505af11580156110e6573d6000803e3d6000fd5b505050505050919050565b60006111b46110fe611605565b846111af856040518060600160405280602581526020016123fa6025913960016000611128611605565b73ffffffffffffffffffffffffffffffffffffffff1673ffffffffffffffffffffffffffffffffffffffff16815260200190815260200160002060008a73ffffffffffffffffffffffffffffffffffffffff1673ffffffffffffffffffffffffffffffffffffffff16815260200190815260200160002054611ac59092919063ffffffff16565b61160d565b6001905092915050565b600080905090565b60006111da6111d3611605565b8484611804565b6001905092915050565b6000816111f0336108ed565b1015611264576040517f08c379a000000000000000000000000000000000000000000000000000000000815260040180806020018281038252601f8152602001807f634461692072656465656d3a206e6f7420656e6f7567682062616c616e63650081525060200191505060405180910390fd5b61126e3383611c2e565b600061128161127b610740565b84611fb9565b90506000600560019054906101000a900473ffffffffffffffffffffffffffffffffffffffff1673ffffffffffffffffffffffffffffffffffffffff166370a08231306040518263ffffffff1660e01b8152600401808273ffffffffffffffffffffffffffffffffffffffff1673ffffffffffffffffffffffffffffffffffffffff16815260200191505060206040518083038186803b15801561132457600080fd5b505afa158015611338573d6000803e3d6000fd5b505050506040513d602081101561134e57600080fd5b810190808051906020019092919050505090508181101561142d57600560019054906101000a900473ffffffffffffffffffffffffffffffffffffffff1673ffffffffffffffffffffffffffffffffffffffff166340c10f19308385036040518363ffffffff1660e01b8152600401808373ffffffffffffffffffffffffffffffffffffffff1673ffffffffffffffffffffffffffffffffffffffff16815260200182815260200192505050600060405180830381600087803b15801561141457600080fd5b505af1158015611428573d6000803e3d6000fd5b505050505b600560019054906101000a900473ffffffffffffffffffffffffffffffffffffffff1673ffffffffffffffffffffffffffffffffffffffff1663a9059cbb33846040518363ffffffff1660e01b8152600401808373ffffffffffffffffffffffffffffffffffffffff1673ffffffffffffffffffffffffffffffffffffffff16815260200182815260200192505050602060405180830381600087803b1580156114d657600080fd5b505af11580156114ea573d6000803e3d6000fd5b505050506040513d602081101561150057600080fd5b8101908080519060200190929190505050505050919050565b600754811015611574576040517f08c379a000000000000000000000000000000000000000000000000000000000815260040180806020018281038252602a8152602001806123ac602a913960400191505060405180910390fd5b8060078190555050565b6000600160008473ffffffffffffffffffffffffffffffffffffffff1673ffffffffffffffffffffffffffffffffffffffff16815260200190815260200160002060008373ffffffffffffffffffffffffffffffffffffffff1673ffffffffffffffffffffffffffffffffffffffff16815260200190815260200160002054905092915050565b600033905090565b600073ffffffffffffffffffffffffffffffffffffffff168373ffffffffffffffffffffffffffffffffffffffff161415611693576040517f08c379a00000000000000000000000000000000000000000000000000000000081526004018080602001828103825260248152602001806123d66024913960400191505060405180910390fd5b600073ffffffffffffffffffffffffffffffffffffffff168273ffffffffffffffffffffffffffffffffffffffff161415611719576040517f08c379a00000000000000000000000000000000000000000000000000000000081526004018080602001828103825260228152602001806122ac6022913960400191505060405180910390fd5b80600160008573ffffffffffffffffffffffffffffffffffffffff1673ffffffffffffffffffffffffffffffffffffffff16815260200190815260200160002060008473ffffffffffffffffffffffffffffffffffffffff1673ffffffffffffffffffffffffffffffffffffffff168152602001908152602001600020819055508173ffffffffffffffffffffffffffffffffffffffff168373ffffffffffffffffffffffffffffffffffffffff167f8c5be1e5ebec7d5bd14f71427d1e84f3dd0314c0f7b2291e5b200ac8c7c3b925836040518082815260200191505060405180910390a3505050565b600073ffffffffffffffffffffffffffffffffffffffff168373ffffffffffffffffffffffffffffffffffffffff16141561188a576040517f08c379a00000000000000000000000000000000000000000000000000000000081526004018080602001828103825260258152602001806123876025913960400191505060405180910390fd5b600073ffffffffffffffffffffffffffffffffffffffff168273ffffffffffffffffffffffffffffffffffffffff161415611910576040517f08c379a00000000000000000000000000000000000000000000000000000000081526004018080602001828103825260238152602001806122676023913960400191505060405180910390fd5b61191b838383611fda565b611986816040518060600160405280602681526020016122f7602691396000808773ffffffffffffffffffffffffffffffffffffffff1673ffffffffffffffffffffffffffffffffffffffff16815260200190815260200160002054611ac59092919063ffffffff16565b6000808573ffffffffffffffffffffffffffffffffffffffff1673ffffffffffffffffffffffffffffffffffffffff16815260200190815260200160002081905550611a19816000808573ffffffffffffffffffffffffffffffffffffffff1673ffffffffffffffffffffffffffffffffffffffff16815260200190815260200160002054611b8590919063ffffffff16565b6000808473ffffffffffffffffffffffffffffffffffffffff1673ffffffffffffffffffffffffffffffffffffffff168152602001908152602001600020819055508173ffffffffffffffffffffffffffffffffffffffff168373ffffffffffffffffffffffffffffffffffffffff167fddf252ad1be2c89b69c2b068fc378daa952ba7f163c4a11628f55a4df523b3ef836040518082815260200191505060405180910390a3505050565b6000838311158290611b72576040517f08c379a00000000000000000000000000000000000000000000000000000000081526004018080602001828103825283818151815260200191508051906020019080838360005b83811015611b37578082015181840152602081019050611b1c565b50505050905090810190601f168015611b645780820380516001836020036101000a031916815260200191505b509250505060405180910390fd5b5060008385039050809150509392505050565b600080828401905083811015611c03576040517f08c379a000000000000000000000000000000000000000000000000000000000815260040180806020018281038252601b8152602001807f536166654d6174683a206164646974696f6e206f766572666c6f77000000000081525060200191505060405180910390fd5b8091505092915050565b600080611c1a8484611fdf565b9050611c2581612012565b91505092915050565b600073ffffffffffffffffffffffffffffffffffffffff168273ffffffffffffffffffffffffffffffffffffffff161415611cb4576040517f08c379a00000000000000000000000000000000000000000000000000000000081526004018080602001828103825260218152602001806123666021913960400191505060405180910390fd5b611cc082600083611fda565b611d2b8160405180606001604052806022815260200161228a602291396000808673ffffffffffffffffffffffffffffffffffffffff1673ffffffffffffffffffffffffffffffffffffffff16815260200190815260200160002054611ac59092919063ffffffff16565b6000808473ffffffffffffffffffffffffffffffffffffffff1673ffffffffffffffffffffffffffffffffffffffff16815260200190815260200160002081905550611d828160025461202d90919063ffffffff16565b600281905550600073ffffffffffffffffffffffffffffffffffffffff168273ffffffffffffffffffffffffffffffffffffffff167fddf252ad1be2c89b69c2b068fc378daa952ba7f163c4a11628f55a4df523b3ef836040518082815260200191505060405180910390a35050565b600073ffffffffffffffffffffffffffffffffffffffff168273ffffffffffffffffffffffffffffffffffffffff161415611e95576040517f08c379a000000000000000000000000000000000000000000000000000000000815260040180806020018281038252601f8152602001807f45524332303a206d696e7420746f20746865207a65726f20616464726573730081525060200191505060405180910390fd5b611ea160008383611fda565b611eb681600254611b8590919063ffffffff16565b600281905550611f0d816000808573ffffffffffffffffffffffffffffffffffffffff1673ffffffffffffffffffffffffffffffffffffffff16815260200190815260200160002054611b8590919063ffffffff16565b6000808473ffffffffffffffffffffffffffffffffffffffff1673ffffffffffffffffffffffffffffffffffffffff168152602001908152602001600020819055508173ffffffffffffffffffffffffffffffffffffffff16600073ffffffffffffffffffffffffffffffffffffffff167fddf252ad1be2c89b69c2b068fc378daa952ba7f163c4a11628f55a4df523b3ef836040518082815260200191505060405180910390a35050565b600080611fc68484612077565b9050611fd181612012565b91505092915050565b505050565b600080611ffd84670de0b6b3a764000061209490919063ffffffff16565b9050612009818461211a565b91505092915050565b6000670de0b6b3a7640000828161202557fe5b049050919050565b600061206f83836040518060400160405280601e81526020017f536166654d6174683a207375627472616374696f6e206f766572666c6f770000815250611ac5565b905092915050565b600061208c828461209490919063ffffffff16565b905092915050565b6000808314156120a75760009050612114565b60008284029050828482816120b857fe5b041461210f576040517f08c379a000000000000000000000000000000000000000000000000000000000815260040180806020018281038252602181526020018061231d6021913960400191505060405180910390fd5b809150505b92915050565b600080612138670de0b6b3a76400008561209490919063ffffffff16565b905061214d838261215690919063ffffffff16565b91505092915050565b600061219883836040518060400160405280601a81526020017f536166654d6174683a206469766973696f6e206279207a65726f0000000000008152506121a0565b905092915050565b6000808311829061224c576040517f08c379a00000000000000000000000000000000000000000000000000000000081526004018080602001828103825283818151815260200191508051906020019080838360005b838110156122115780820151818401526020810190506121f6565b50505050905090810190601f16801561223e5780820380516001836020036101000a031916815260200191505b509250505060405180910390fd5b50600083858161225857fe5b04905080915050939250505056fe45524332303a207472616e7366657220746f20746865207a65726f206164647265737345524332303a206275726e20616d6f756e7420657863656564732062616c616e636545524332303a20617070726f766520746f20746865207a65726f2061646472657373634461692072656465656d556e6465726c79696e673a206e6f7420656e6f7567682062616c616e636545524332303a207472616e7366657220616d6f756e7420657863656564732062616c616e6365536166654d6174683a206d756c7469706c69636174696f6e206f766572666c6f7745524332303a207472616e7366657220616d6f756e74206578636565647320616c6c6f77616e636545524332303a206275726e2066726f6d20746865207a65726f206164647265737345524332303a207472616e736665722066726f6d20746865207a65726f206164647265737354657374434461693a206e65772065786368616e67652072617465206d757374206265206c617267657245524332303a20617070726f76652066726f6d20746865207a65726f206164647265737345524332303a2064656372656173656420616c6c6f77616e63652062656c6f77207a65726fa2646970667358221220f00d9db86cd82a43903b877b946cf55c68b325efcc848e4ac9c5a9b7bbae1ef064736f6c63430006090033",
  "immutableReferences": {},
  "source": "// SPDX-License-Identifier: MIT\r\npragma solidity ^0.6.9;\r\n\r\nimport \"@openzeppelin/contracts/token/ERC20/ERC20.sol\";\r\nimport \"../compound/ICToken.sol\";\r\nimport \"./TestERC20.sol\";\r\n\r\n/**\r\n * @title TestCDai\r\n * @author Alexander Schlindwein\r\n *\r\n * @dev cDai token for testing\r\n */\r\ncontract TestCDai is ERC20, ICToken {\r\n\r\n    TestERC20 _dai;\r\n    TestERC20 _comp;\r\n    uint _exchangeRate;\r\n\r\n    /**\r\n     * @dev Constructs a new TestCDai\r\n     * @param dai The address of the test dai\r\n     * @param comp The address of the test comp\r\n     */\r\n    constructor (address dai, address comp) public ERC20(\"cDai\", \"cDai\") {\r\n        _dai = TestERC20(dai);\r\n        _comp = TestERC20(comp);\r\n    }\r\n\r\n    /**\r\n     * @dev Updates the interest - not implemented for testing\r\n     */\r\n    function accrueInterest() external override returns (uint) {\r\n        return 0;\r\n    }\r\n\r\n    /**\r\n     * @dev Mints a given amount of tokens to an address in exchange for dai.\r\n     *\r\n     * @param mintAmount The amount of Dai to spend for minting\r\n     */\r\n    function mint(uint mintAmount) external override returns (uint) {\r\n        require(_dai.allowance(msg.sender, address(this)) >= mintAmount, \"cDai mint: not enough allowance\");\r\n        require(_dai.transferFrom(msg.sender, address(this), mintAmount), \"cDai mint: dai transfer failed\");\r\n\r\n        uint cDaiAmount = divScalarByExpTruncate(mintAmount, exchangeRateStored());\r\n        _mint(msg.sender, cDaiAmount);\r\n\r\n        // Mint some COMP for the msg.sender\r\n        uint compAmount = 1 ether;\r\n        _comp.mint(msg.sender, compAmount);\r\n    }\r\n\r\n    /**\r\n     * @dev Redeems a given amount of Dai\r\n     *\r\n     * @param redeemAmount The amount of Dai to redeem\r\n     */\r\n    function redeemUnderlying(uint redeemAmount) external override returns (uint) {\r\n        uint cDaiAmount = divScalarByExpTruncate(redeemAmount, exchangeRateStored());\r\n        require(balanceOf(msg.sender) >= cDaiAmount, \"cDai redeemUnderlying: not enough balance\");\r\n\r\n        _burn(msg.sender, cDaiAmount);\r\n        uint daiBalance = _dai.balanceOf(address(this));\r\n        if(daiBalance < redeemAmount) {\r\n            _dai.mint(address(this), redeemAmount - daiBalance);\r\n        }\r\n        _dai.transfer(msg.sender, redeemAmount);\r\n    }\r\n\r\n    /**\r\n     * @dev Redeems a given amount of cDai\r\n     *\r\n     * @param redeemAmount The amount of cDai to redeem\r\n     */\r\n    function redeem(uint redeemAmount) external override returns (uint) {\r\n        require(balanceOf(msg.sender) >= redeemAmount, \"cDai redeem: not enough balance\");\r\n        _burn(msg.sender, redeemAmount);\r\n\r\n        uint daiAmount = mulScalarTruncate(exchangeRateStored(), redeemAmount);\r\n        uint daiBalance = _dai.balanceOf(address(this));\r\n        if(daiBalance < daiAmount) {\r\n            _dai.mint(address(this), daiAmount - daiBalance);\r\n        }\r\n        _dai.transfer(msg.sender, daiAmount);\r\n    }\r\n\r\n    /**\r\n     * @dev Sets the exchange rate\r\n     *\r\n     * @param exchangeRate The exchange rate\r\n     */\r\n    function setExchangeRate(uint exchangeRate) external {\r\n        require(exchangeRate >= _exchangeRate, \"TestCDai: new exchange rate must be larger\");\r\n        _exchangeRate = exchangeRate;\r\n    }\r\n\r\n    /**\r\n     * @dev Returns the exchange rate for cDai -> Dai\r\n     *\r\n     * @return The exchange rate\r\n     */\r\n    function exchangeRateStored() public view override returns (uint) {\r\n        return _exchangeRate;\r\n    }\r\n\r\n    // ====================================== COMPOUND MATH ======================================\r\n    // https://github.com/compound-finance/compound-protocol/blob/master/contracts/Exponential.sol\r\n    //\r\n    // Modified to revert instead of returning an error code\r\n\r\n    function mulScalarTruncate(uint a, uint scalar) pure internal returns (uint) {\r\n        uint product = mulScalar(a, scalar);\r\n        return truncate(product);\r\n    }\r\n\r\n    function mulScalar(uint a, uint scalar) pure internal returns (uint) {\r\n        return a.mul(scalar);\r\n    }\r\n\r\n    function divScalarByExpTruncate(uint scalar, uint divisor) pure internal returns (uint) {\r\n        uint fraction = divScalarByExp(scalar, divisor);\r\n        return truncate(fraction);\r\n    }\r\n\r\n    function divScalarByExp(uint scalar, uint divisor) pure internal returns (uint) {\r\n        uint numerator = uint(10**18).mul(scalar);\r\n        return getExp(numerator, divisor);\r\n    }\r\n\r\n    function getExp(uint num, uint denom) pure internal returns (uint) {\r\n        uint scaledNumerator = num.mul(10**18);\r\n        return scaledNumerator.div(denom);\r\n    }\r\n\r\n    function truncate(uint num) pure internal returns (uint) {\r\n        return num / 10**18;\r\n    }\r\n}",
  "sourcePath": "C:/Users/alexa/Desktop/ideamarket-contracts/contracts/test/TestCDai.sol",
  "compiler": {
    "name": "solc",
    "version": "0.6.9+commit.3e3065ac.Emscripten.clang"
  },
  "schemaVersion": "3.3.1",
  "updatedAt": "2020-10-21T09:10:32.223Z",
  "devdoc": {
    "author": "Alexander Schlindwein",
    "details": "cDai token for testing",
    "methods": {
      "accrueInterest()": {
        "details": "Updates the interest - not implemented for testing"
      },
      "allowance(address,address)": {
        "details": "See {IERC20-allowance}."
      },
      "approve(address,uint256)": {
        "details": "See {IERC20-approve}. Requirements: - `spender` cannot be the zero address."
      },
      "balanceOf(address)": {
        "details": "See {IERC20-balanceOf}."
      },
      "constructor": {
        "details": "Constructs a new TestCDai",
        "params": {
          "comp": "The address of the test comp",
          "dai": "The address of the test dai"
        }
      },
      "decimals()": {
        "details": "Returns the number of decimals used to get its user representation. For example, if `decimals` equals `2`, a balance of `505` tokens should be displayed to a user as `5,05` (`505 / 10 ** 2`). Tokens usually opt for a value of 18, imitating the relationship between Ether and Wei. This is the value {ERC20} uses, unless {_setupDecimals} is called. NOTE: This information is only used for _display_ purposes: it in no way affects any of the arithmetic of the contract, including {IERC20-balanceOf} and {IERC20-transfer}."
      },
      "decreaseAllowance(address,uint256)": {
        "details": "Atomically decreases the allowance granted to `spender` by the caller. This is an alternative to {approve} that can be used as a mitigation for problems described in {IERC20-approve}. Emits an {Approval} event indicating the updated allowance. Requirements: - `spender` cannot be the zero address. - `spender` must have allowance for the caller of at least `subtractedValue`."
      },
      "exchangeRateStored()": {
        "details": "Returns the exchange rate for cDai -> Dai",
        "returns": {
          "_0": "The exchange rate"
        }
      },
      "increaseAllowance(address,uint256)": {
        "details": "Atomically increases the allowance granted to `spender` by the caller. This is an alternative to {approve} that can be used as a mitigation for problems described in {IERC20-approve}. Emits an {Approval} event indicating the updated allowance. Requirements: - `spender` cannot be the zero address."
      },
      "mint(uint256)": {
        "details": "Mints a given amount of tokens to an address in exchange for dai.",
        "params": {
          "mintAmount": "The amount of Dai to spend for minting"
        }
      },
      "name()": {
        "details": "Returns the name of the token."
      },
      "redeem(uint256)": {
        "details": "Redeems a given amount of cDai",
        "params": {
          "redeemAmount": "The amount of cDai to redeem"
        }
      },
      "redeemUnderlying(uint256)": {
        "details": "Redeems a given amount of Dai",
        "params": {
          "redeemAmount": "The amount of Dai to redeem"
        }
      },
      "setExchangeRate(uint256)": {
        "details": "Sets the exchange rate",
        "params": {
          "exchangeRate": "The exchange rate"
        }
      },
      "symbol()": {
        "details": "Returns the symbol of the token, usually a shorter version of the name."
      },
      "totalSupply()": {
        "details": "See {IERC20-totalSupply}."
      },
      "transfer(address,uint256)": {
        "details": "See {IERC20-transfer}. Requirements: - `recipient` cannot be the zero address. - the caller must have a balance of at least `amount`."
      },
      "transferFrom(address,address,uint256)": {
        "details": "See {IERC20-transferFrom}. Emits an {Approval} event indicating the updated allowance. This is not required by the EIP. See the note at the beginning of {ERC20}; Requirements: - `sender` and `recipient` cannot be the zero address. - `sender` must have a balance of at least `amount`. - the caller must have allowance for ``sender``'s tokens of at least `amount`."
      }
    },
    "title": "TestCDai"
  },
  "userdoc": {
    "methods": {}
  }
}