{
  "_format": "hh-sol-artifact-1",
  "contractName": "SetTimelockDelaySpell",
  "sourceName": "contracts/spells/SetTimelockDelaySpell.sol",
  "abi": [
    {
      "inputs": [
        {
          "internalType": "address",
          "name": "dsPause",
          "type": "address"
        },
        {
          "internalType": "uint256",
          "name": "delay",
          "type": "uint256"
        }
      ],
      "name": "execute",
      "outputs": [],
      "stateMutability": "nonpayable",
      "type": "function"
    }
  ],
  "bytecode": "0x608060405234801561001057600080fd5b5061011b806100206000396000f3fe6080604052348015600f57600080fd5b506004361060285760003560e01c80633b89bb8614602d575b600080fd5b607660048036036040811015604157600080fd5b81019080803573ffffffffffffffffffffffffffffffffffffffff169060200190929190803590602001909291905050506078565b005b8173ffffffffffffffffffffffffffffffffffffffff1663e177246e826040518263ffffffff1660e01b815260040180828152602001915050600060405180830381600087803b15801560ca57600080fd5b505af115801560dd573d6000803e3d6000fd5b50505050505056fea264697066735822122064d2b69105d52efd5a3dbd0255d49bcb80005cb6f794207b0cd7639efd18d8af64736f6c63430006090033",
  "linkReferences": {},
  "deployedLinkReferences": {}
}